:1000000071C1000090C100008EC100008CC10000D1
:100010008AC1000088C1000086C1000084C10000C0
:1000200082C1000080C100007EC100007CC10000D0
:100030007AC100000C94C25376C1000074C1000064
:1000400072C100000C94DB396EC100006CC100006D
:100050006AC100000C94335066C1000064C1000006
:1000600062C100000C94D05B5EC100005CC1000066
:100070005AC1000058C1000056C1000054C1000020
:100080000C94B9380C94C4384EC100004CC1000027
:100090000C94FC5B48C1000046C1000044C1000054
:1000A00042C1000040C100000C94CF380C94DA38F3
:1000B0003AC1000038C1000036C100000C94E53898
:1000C0000C94F03830C100002EC100000C94285C64
:1000D0002AC1000028C1000026C1000024C1000080
:1000E00022C10000A207A407A607A807AA07AC0719
:1000F000AE07B007B607BC07C207C407D507D707C6
:10010000D907DB07DD07DF07E107E307E907EF07AB
:10011000F507F7073D084008440848084C08500810
:10012000540858085C086008640867086523792348
:10013000B023BB23F22308240C2450247A248E24D9
:10014000A224B624CA24DE24F224F624FA24332579
:1001500049254F255325572561256725AF25D125ED
:10016000D525D925DD25E125E525E925ED25F1254F
:10017000072617261A26252627262B262F2633263E
:10018000372654261D267A269326AC26C526DE263B
:10019000F7261027292742275B2774278D27A627B4
:1001A000BF27D827F1270A2823283C2855286E285E
:1001B0008728A028B928D228EB28BB29042912298E
:1001C00031293D29422C4D2C582C632C6E2C792C36
:1001D000842C8F2C9A2CA52CB02CBB2CC62CC92C73
:1001E000DF2CF02C002D102D202D302D402D442DF6
:1001F000482D4C2D512DF62F173037305730773092
:100200009730B730A9319B32BE32C232C632CA32C1
:10021000CE32D232D632DA32DE32053308330C3304
:10022000C43388339733A633B533023406340A34E3
:100230000E34583458341134153419341D342134E3
:1002400025342934583458342D3431343534393444
:100250003D3440344334463449344C3450345334C0
:10026000563407634236B79BD8A71A39685618AE7A
:10027000BAAB558C1D3CB7CC5763BD6DEDFD753EDB
:10028000F6177231BF000000803F08000000BE92E8
:100290002449123EABAAAA2ABECDCCCC4C3E0000CB
:1002A0000080BEABAAAAAA3E00000000BF0000006A
:1002B000803F0000000000084178D3BB4387D11382
:1002C0003D190E3CC3BD4282AD2B3E68EC8276BE2A
:1002D000D98FE1A93E4C80EFFFBE01C4FF7F3F00F4
:1002E0000000000011241FBECFEFD1E2DEBFCDBF62
:1002F00000E00CBF1CE0A0E0B2E0E4EDF5EC00E0B3
:100300000BBF02C007900D92A63FB107D9F725E1B8
:10031000A6EFBCE001C01D92AB30B207E1F70E942E
:10032000545C0C94E8626CCECF93DF93E091F210B2
:10033000F091F310858596859093D9108093D8100D
:1003400040915E0D50915F0DDA011D968D919C914B
:100350001E979093530D8093520D8091451190916B
:100360004611EC012B853C853093550D2093540D9F
:10037000A0914811B09149111B962D913C911C9769
:100380003093D4102093D310F0930D0DE0930C0D07
:10039000B093E810A093E7105C874B87EA019E8733
:1003A0008D871C96FC93EE931B97B687A587DF91EC
:1003B000CF910895E091F210F091F3108091D81050
:1003C0009091D91096878587E0915E0DF0915F0D31
:1003D0008091520D9091530D96878587E09145113C
:1003E000F09146118091540D9091550D948783871B
:1003F000E0914811F09149118091D3109091D4105F
:10040000948783870895882361F0813009F057C06D
:10041000E091D110F091D21080819181029754F433
:1004200024C0E091EC10F091ED1080819181029751
:1004300024F53EC025EE30E141EE50E1BF0181E000
:1004400090E00E948F3D45EE50E161EE70E18091B9
:10045000D1109091D2100E94623EE091D110F091A3
:10046000D2108081918102972CF745EE50E161EE28
:1004700070E1CF010C94623E089521E43DE04EEE20
:1004800050E1BF0181E090E00E948F3D41E45DE0DA
:100490006EEE70E18091EC109091ED100E94623E42
:1004A000E091EC10F091ED108081918102972CF792
:1004B00041E45DE06EEE70E1CF010C94623E089580
:1004C0006091AC0F7091AD0FFB018081918102971B
:1004D0008CF024EA3FE04DE35DE081E090E00E9493
:1004E0003E3F6091AC0F7091AD0FFB018081918117
:1004F00002977CF70895823079F0833021F08130C3
:1005000009F084C013C0E091CA0FF091CB0F808135
:1005100091810297B4F550C0E091180DF091190D3A
:100520008081918102970CF04FC069C0E091B10FBA
:10053000F091B20F808191810297DCF027E23DE0DB
:1005400044E95EE0BF0181E090E00E94E53A47E2C5
:100550005DE064E97EE08091B10F9091B20F0E945E
:10056000BA3BE091B10FF091B20F80819181029777
:100570002CF747E25DE064E97EE0CF010C94BA3BE2
:10058000089525E43DE04CED50E1BF0181E090E0AD
:100590000E94E53A45E45DE06CED70E18091CA0FA0
:1005A0009091CB0F0E94BA3BE091CA0FF091CB0F14
:1005B0008081918102972CF745E45DE06CED70E15C
:1005C000CF010C94BA3B089521EA3FE04AEA5FE08C
:1005D000BF0181E090E00E94E53A41EA5FE06AEA0B
:1005E0007FE08091180D9091190D0E94BA3BE09127
:1005F000180DF091190D8081918102972CF741EA35
:100600005FE06AEA7FE0CF010C94BA3B0895E09185
:10061000F210F091F31090E01816190654F420E04F
:1006200030E00384F485E02D2F5F3F4F2817390712
:10063000C1F7F093680EE093670E08955F926F9292
:100640007F928F929F92AF92BF92CF92DF92EF9262
:10065000FF920F931F93CF93DF93CDB7DEB7C454B0
:10066000D1090FB6F894DEBF0FBECDBF882E992EEC
:100670006B0185E1FE013196DF01982F1D929A955D
:10068000E9F77596DF01982F1D929A95E9F775960F
:10069000DF011D928A95E9F7759685E0DF011D92CD
:1006A0008A95E9F741DE80923B0D90923C0DE12C5A
:1006B000F12C8E01005C1F4F772473940F2EF5E20E
:1006C000AF2EB12CF02DBFEFEB1AFB0A4AE0B801B8
:1006D000C7010E94A562B601CE0101960E94776211
:1006E000B801CE0101960E94636287E0E7E9F2E07B
:1006F000DE01569601900D928A95E1F7B801CE0180
:1007000046960E94636286E0EEE9F2E0DE019B9687
:1007100001900D928A95E1F7B801CE018B960E9467
:100720006362CE0101960E945644CE0146960E9415
:100730005644CE018B960E945644E0913B0DF091B9
:100740003C0D80910C0D90910D0DE817F90731F4D7
:1007500080915B0D811102C07092A90F828181117D
:100760001BC02091E7103091E810E217F30709F45D
:10077000A6C00384F485E02D8281882329F0F093BC
:100780003C0DE0933B0D08C0E217F30791F730935F
:100790003C0D20933B0D93C02091E7103091E81061
:1007A0002E173F07B9F590915B0D911137C07092EC
:1007B0005B0D813011F560817181CE0101960E943F
:1007C0001643E0913B0DF0913C0D86814AE0B80163
:1007D00090E00E94A562B801CE0146960E942E4389
:1007E000F80101900020E9F73197B182A082B801A9
:1007F000CE018B960E9416433FC0CE0101960E9407
:100800001D44CE0146960E941D44CE018B960E9447
:100810001D4432C080915B0D882369F0CE010196A2
:100820000E941D44CE0146960E941D44CE018B9627
:100830000E941D4421C060817181CE0101960E94F9
:100840001643E0913B0DF0913C0D86814AE0B801E2
:1008500090E00E94A562B801CE0146960E942E4308
:10086000F80101900020E9F73197B182A082B80128
:10087000CE018B960E941643E0913B0DF0913C0D0A
:100880005384648450923B0D60923C0D84E0E816E2
:10089000F10431F480915B0D811102C08BDD16C033
:1008A000AFE3BCE91197F1F700C00000B4E0EB162C
:1008B000F10409F008CF7EDD582C692C07C0809127
:1008C0005B0D8111ABCF70925B0D97CF852D962D6F
:1008D000CC5BDF4F0FB6F894DEBF0FBECDBFDF910C
:1008E000CF911F910F91FF90EF90DF90CF90BF902D
:1008F000AF909F908F907F906F905F9008958091C0
:100900005B0D811129C01092A90FE091250DF09186
:10091000260D0280F381E02DF093260DE093250D46
:1009200064EA72E08081918189DE9093F710809370
:10093000F6104091250D5091260D2091A40F309175
:10094000A50F4217530741F424EA3FE04DE35DE071
:100950006CEA7FE00C94F23E08958091A90F81111A
:1009600012C010925B0DE091250DF091260D0480D0
:10097000F581E02DF093260DE093250D64EA72E0F9
:10098000808191815BCE0895FF920F931F93CF9347
:10099000DF93F82EEB014091AC0F5091AD0F6091B9
:1009A000F2107091F31004EA1FE02DE33DE081E0C6
:1009B0000E94CA3FA8016DE37DE08091AC0F909149
:1009C000AD0F0E94114080913D0D90913E0D90938E
:1009D000260D8093250D8F2D0E94F742BE01809138
:1009E000F2109091F3102ADE9093F7108093F61096
:1009F00098014DE35DE06CEA7FE00E94F23EA801C1
:100A00006DE37DE08091AC0F9091AD0F0E9411409D
:100A1000DF91CF911F910F91FF900895AF92BF92F8
:100A2000CF92DF92EF92FF920F931F93CF93DF93BA
:100A3000CDB7DEB72A970FB6F894DEBF0FBECDBF95
:100A40008C01FE0131968AE0DF011D928A95E9F75B
:100A5000E090F210F090F3100F2EFCE2CF2ED12C8C
:100A6000F02D0F2EFDE0AF2EB12CF02DF70160819F
:100A70007181C8010E946362F80101900020E9F7CA
:100A80003197D182C082D70112968C914AE0BE0183
:100A90006F5F7F4F90E00E94A562BE016F5F7F4F46
:100AA000C8010E946362F80101900020E9F73197C4
:100AB000D182C082F70183814AE0BE016F5F7F4F20
:100AC00090E00E94A562BE016F5F7F4FC8010E9447
:100AD0006362F80101900020E9F73197D182C0826A
:100AE000D70114968C914AE0BE016F5F7F4F90E072
:100AF0000E94A562BE016F5F7F4FC8010E946362C2
:100B0000F80101900020E9F73197B182A082F70146
:100B1000E384F4848091F2109091F310E816F906C2
:100B200009F0A4CFF80101900020E9F731978BE399
:100B30009DE0918380831282E0905E0DF0905F0DC6
:100B40000F2EFCE2CF2ED12CF02D0F2EFDE0AF2E7C
:100B5000B12CF02DD7016D917C91C8010E94636288
:100B6000F80101900020E9F73197D182C082F701A6
:100B700082814AE0BE016F5F7F4F90E00E94A562D4
:100B8000BE016F5F7F4FC8010E946362F801019050
:100B90000020E9F73197D182C082D70113968C915A
:100BA0004AE0BE016F5F7F4F90E00E94A562BE01E8
:100BB0006F5F7F4FC8010E946362F80101900020BF
:100BC000E9F73197D182C082F70184814AE0BE0102
:100BD0006F5F7F4F90E00E94A562BE016F5F7F4F05
:100BE000C8010E9463628091481190914911E816F2
:100BF000F90641F0F80101900020E9F73197B18240
:100C0000A0820CC0D8010D900020E9F7119785E073
:100C1000EAEAF2E001900D928A95E1F7D7011B967E
:100C2000ED90FC901C9780915E0D90915F0DE81601
:100C3000F90609F08FCFC8010E948E5B2A960FB685
:100C4000F894DEBF0FBECDBFDF91CF911F910F9102
:100C5000FF90EF90DF90CF90BF90AF9008955F929C
:100C60006F927F928F929F92AF92BF92CF92DF92BC
:100C7000EF92FF920F931F93CF93DF93CDB7DEB721
:100C80006B970FB6F894DEBF0FBECDBF4AE08E0162
:100C90000F5F1F4FB80190E00E94A562D8010D9030
:100CA0000020E9F7119785E0E3EDF4E001900D9263
:100CB0008A95E1F762E7C8010E94E14B87E0E6EB25
:100CC000F2E0DE01559601900D928A95E1F7BE01A2
:100CD0006B5E7F4F82E691E10E945962009709F4B2
:100CE00074C0882483945E0125E1A20EB11C712C8E
:100CF00055245394972C6FEA72E00E946E62892B00
:100D000009F05AC0B50180E090E00E9459627C0170
:100D1000FC0180818B3309F046C04EC0E091670E24
:100D2000F091680E60817181C7010E946E62892B0B
:100D300059F0E091DA10F091DB1060817181C70108
:100D40000E946E62892B41F46C2D7D2D80E090E035
:100D50000E9459627C01092D1150D1F1E091670E7A
:100D6000F091680E838594859093680E8093670E4A
:100D7000E091DA10F091DB10838594859093DB107D
:100D80008093DA100111CACF6C2D7D2D80E090E0A8
:100D90000E9459627C01FC0180818B3369F06A9466
:100DA000611007C009C00F2EFDE06F2EF02DCA2C78
:100DB000DB2C1DE0052DB2CFB50180E090E00E9454
:100DC0005962009709F097CF19C08824839416C000
:100DD000E091670EF091680E838594859093680E7C
:100DE0008093670EE091DA10F091DB108385948593
:100DF0009093DB108093DA10872CC6CF882D6B96EA
:100E00000FB6F894DEBF0FBECDBFDF91CF911F911B
:100E10000F91FF90EF90DF90CF90BF90AF909F9099
:100E20008F907F906F905F900895AF92BF92CF9216
:100E3000DF92EF92FF920F931F93CF93DF93CDB783
:100E4000DEB7C059D1090FB6F894DEBF0FBECDBFD3
:100E500020E3E7E0F2E0DE01119601900D922A9581
:100E6000E1F720E3E7E3F2E0DE01D19601900D9295
:100E70002A95E1F720E3E7E6F2E0DE01AF59BF4F44
:100E800001900D922A95E1F7FE01EF59FF4FA82E30
:100E9000B92E9E012F5F3F4FAE014F5C5F4F8F0118
:100EA000005D1F4F633079F06530C9F0613011F596
:100EB000C080D180E280F380D501CD92DD92ED92A9
:100EC000FC92139717C0D901CD90DD90ED90FC9066
:100ED000D501CD92DD92ED92FC9213970BC0DA0111
:100EE000CD90DD90ED90FC90D501CD92DD92ED920C
:100EF000FC9213973496B4E0AB0EB11C2C5F3F4FBD
:100F00004C5F5F4FE017F10769F6C057DF4F0FB630
:100F1000F894DEBF0FBECDBFDF91CF911F910F912F
:100F2000FF90EF90DF90CF90BF90AF90089590E04A
:100F30008C30910570F5FC018827EE58FF4F8F4FDC
:100F40000C94C460129A0895139A0895149A0895FF
:100F5000159A0895169A0895179A0895A29A0895D1
:100F6000E5E0F1E08081806480830895E5E0F1E0D0
:100F70008081806280830895E5E0F1E08081826075
:100F800080830895409A0895E5E0F1E080818460CF
:100F90008083089590E08C30910570F5FC018827DE
:100FA000E258FF4F8F4F0C94C46012980895139825
:100FB0000895149808951598089516980895179807
:100FC0000895A2980895E5E0F1E080818F7B808309
:100FD0000895E5E0F1E080818F7D80830895E5E06C
:100FE000F1E080818D7F8083089540980895E5E049
:100FF000F1E080818B7F80830895CF938091F01002
:10100000813069F4E091500DF091510D1082C0E0F3
:101010008C2FC0DFCF5FCC30D9F780E001C081E0FA
:10102000CF910895CF93DF93EC018CE093E00E9481
:10103000E4430EC0CE010E9404520E94484188231E
:1010400039F00E94D1418CE093E00E94E443D5DF67
:101050008881813021F48091F010882359F3DF9149
:10106000CF91089590E08C309105A0F5FC01882780
:10107000E657FF4F8F4F0C94C4608FB1807808956E
:101080008091060181700895809106018270089513
:1010900080910601847008958091060188700895FA
:1010A00080910601807108958091060180720895F3
:1010B00080910601807408958091060180780895DA
:1010C000809103018078089580B18170089580B186
:1010D0008270089580E00895CF92DF92EF92FF92A0
:1010E0000F931F93CF93DF93CDB7DEB769970FB6FA
:1010F000F894DEBF0FBECDBFC82EE091250DF09154
:10110000260D0081118105C0D8011B960D911C91FF
:101110001C9760E173E0F801808191810E946E620A
:10112000892B91F3D12C1C141D04D4F4E12CF12C47
:10113000D8011B960D911C911C9703C0F8010385E3
:10114000148560E173E0D8018D919C910E946E62DC
:10115000892BA1F3BFEFEB1AFB0AEC14FD0441F756
:10116000E3D86CEB72E088E193E00E941643FE0145
:1011700031968FE0DF011D928A95E9F740910C0DC1
:1011800050910D0D50933C0D40933B0DFA0190E0B2
:101190002681920F0384F485E02D4E175F07C1F777
:1011A000F80186818C59F82EF91A87E0E7E9F2E018
:1011B000DE01119601900D928A95E1F7FFEFCF1AAB
:1011C000DF0A4AE0BE01605F7F4FC6010E94A56250
:1011D000BE01605F7F4FCE0101960E94636265E0B1
:1011E00074E1CE0101960E9464439DEC899F812D9C
:1011F000112486958695982F990F990F890FF816C7
:1012000038F46BE173E088E193E00E9416438F2D80
:10121000D80116968C93082F10E07E01B0E1EB0EFA
:10122000F11C4AE0B701C8010E94A562F7010190D4
:101230000020E9F7319785E290E09183808386E092
:10124000EEE9F2E0DE01119601900D928A95E1F748
:101250004AE0BE016B5E7F4FC6010E94A562BE01DF
:101260006B5E7F4FCE0101960E946362B701CE0193
:1012700001960E9416434AE0B701C8010E94A56288
:1012800087E0E7E9F2E0DE01119601900D928A9580
:10129000E1F74AE0BE016B5E7F4FC6010E94A56286
:1012A000BE016B5E7F4FCE0101960E946362B70163
:1012B000CE0101960E942E43EFE3FFE13197F1F753
:1012C00000C0000077D869960FB6F894DEBF0FBE55
:1012D000CDBFDF91CF911F910F91FF90EF90DF90E5
:1012E000CF900895CF93DF93CDB7DEB764970FB655
:1012F000F894DEBF0FBECDBF17D880910C0D909132
:101300000D0D90933C0D80933B0DFC0116820384E0
:10131000F485E02D8E179F07C9F74CD8CE010196B2
:1013200024E1FC0111922A95E9F726E433E73A8398
:1013300029831B82DC010D900020E9F711972AE038
:10134000EFE2F3E001900D922A95E1F70E94A45B91
:101350000E94E14281E08093580D1092AE0FE4EBC1
:10136000FFE001900020E9F73197CF01845B9F40B7
:1013700099271816190644F4E4EBFFE08C54904FBB
:101380001192E817F907E1F764960FB6F894DEBFFB
:101390000FBECDBFDF91CF9108950F931F93CF93D1
:1013A000DF9300D01F92CDB7DEB78C01E091F4102F
:1013B000F091F5108481803228F089E393E00E9457
:1013C000564404C089E393E00E941D44F801608103
:1013D000718182E493E00E941643F80184814AE01F
:1013E000BE016F5F7F4F90E00E94A562AE014F5F2C
:1013F0005F4F6FE473E082E593E00E943E4380918B
:101400001C0D813059F018F0823079F014C066E577
:1014100073E082E693E00E9416430DC060E773E03C
:1014200082E693E00E94164306C06CE773E082E612
:1014300093E00E9416430F900F900F900F90DF9152
:10144000CF911F910F9108952F923F924F925F92EB
:101450006F927F928F929F92AF92BF92CF92DF92C4
:10146000EF92FF920F931F93CF93DF93CDB7DEB729
:10147000CD54D1400FB6F894DEBF0FBECDBF562E6F
:10148000272E382E492E3A010E94503AF301EF5B85
:10149000FF4F6081718182819381349720813181F6
:1014A000428153810E94345ECF5BDE4F6883798333
:1014B0008A839B83C154D140CE01019620E3DC0195
:1014C0001D922A95E9F7652DB0DCC55BDE4F998347
:1014D0008883CB54D14040E050E0BA0180E00E94C4
:1014E00003578091F2109091F31090933C0D8093EC
:1014F0003B0D1092F0108CE093E00E94E443F30166
:10150000FD96CB5BDE4FF983E883C554D140930150
:101510002B5B3F4FC95BDE4F39832883C754D140D3
:10152000CE01C196C55CDE4F99838883CB53D140F1
:10153000C55CDE4F9881CB53D140C75BDE4F9883AB
:10154000C954D140C45CDE4FA881CC53D140C65BA6
:10155000DE4FA883CA54D140C35BDE4F1882CD54FE
:10156000D140E0913B0DF0913C0D808191810E9432
:101570008E5B8AE093E00E948E5BE0913B0DF091E0
:101580003C0D8681882309F40AC180E00E94095736
:10159000C35CDE4F688379838A839B83CD53D140BC
:1015A000CB5BDE4FE881F981C554D14080809180CA
:1015B000A280B380C95BDE4FA881B981C754D140F6
:1015C000CD90DD90ED90FC90E0913B0DF0913C0DC5
:1015D000658170E080E090E00E94805DA50194014B
:1015E0000E94345EA70196010E94345E9B01AC010B
:1015F000CF5BDE4F688179818A819B81C154D14064
:101600000E947C5C5B016C01C35CDE4F6881798168
:101610008A819B81CD53D1400E94805D20E030E0E3
:101620004AE754E40E94E55C43017B018C0120E021
:1016300030E048E454E460E070E086E194E40E9425
:101640004051C301EFDC8091F0108111A8C0E091FE
:101650003B0DF0913C0D1581C55BDE4FA881B98132
:10166000CB54D140CD90DD90ED90FC90C10ED11CBB
:10167000E11CF11CA681B0E0252D322D432D542D07
:101680000E94DB60A70196010E94806024E630E0A2
:1016900040E050E00E94A26069017A01812FE2DC03
:1016A000E0913B0DF0913C0D858141DCBB24B3946E
:1016B000E0913B0DF0913C0D8581D4DC182F809199
:1016C000FC0C811168C0112309F465C0C55CDE4FB4
:1016D000E881F981CB53D14025E011922A95E9F7B1
:1016E0004AE0C75BDE4F6881C954D140C65BDE4F1C
:1016F0007881CA54D140A8EFBCE08D919C910E94A2
:10170000A562C75BDE4F8881C954D140C65BDE4FFE
:101710009881CA54D1400E948E5B8AE093E00E9477
:101720008E5B8091F80C9091F90CA091FA0CB0911D
:10173000FB0CAC01BD014F5F5F4F6F4F7F4F40937C
:10174000F80C5093F90C6093FA0C7093FB0CC816CC
:10175000D906EA06FB0698F4E0913B0DF0913C0DAA
:10176000858118DC1092F80C1092F90C1092FA0C8A
:101770001092FB0CC35BDE4FB880CD54D1400E9469
:101780004841882341F00E94D1418CE093E00E94BF
:10179000E44333DCB82E1093FC0CB11089CFE091F8
:1017A0003B0DF0913C0D8385948590933C0D809387
:1017B0003B0D2091F2103091F3108217930729F01E
:1017C0008091F010882309F4CCCE80E00E94095764
:1017D0000E94805D20E030E04AE754E40E94E55C2E
:1017E000C35CDE4F688379838A839B83CD53D1406A
:1017F0008091F010813009F056C081E893E00E949A
:101800008E5B1092F01067E873E08FE893E00E941F
:1018100016436AE973E085EA93E00E9416434301A8
:10182000A12CB12C6501C35CDE4FE880F9800A81F0
:101830001B81CD53D14020E030E045E853E460E027
:1018400070E088E493E40E944051C301EBDB809197
:10185000F0108130B1F46AE973E08FE893E00E9400
:101860001643BFEFE3E2F4EFB150E040F040E1F7A0
:1018700000C0000060EB73E08FE893E00E94164325
:10188000FFCF2FEF31EE84E0215030408040E1F770
:1018900000C0000081E00E94F7428091F410909116
:1018A000F5107BDD6EC14301A12CB12C6501C35C39
:1018B000DE4FE880F9800A811B81CD53D14020E0C2
:1018C00030E048E454E460E070E086E194E40E9493
:1018D0004051C301A7DB8091F010813009F04BC06B
:1018E0001092F01067E873E08FE893E00E941643CF
:1018F0006AE973E085EA93E00E941643E12CF12C3B
:101900000AE714E420E030E048EC52E4CA01B901EF
:101910000E9440511092F010C30184DB8091F010BE
:10192000813009F56AE973E08FE893E00E9416437D
:1019300080E00E9409570E94805D0E944D5DAB01CE
:10194000BC0180E00E94ED5660EB73E08FE893E00D
:101950000E9416439FEFA3E2B4EF9150A040B04025
:10196000E1F700C0000081E00E94F7428091F4108E
:101970009091F51012DDDE01D19680E091E0FD013D
:101980009C01119221503040E1F79E012F5C3E4FA7
:101990008AE0F90111928A95E9F78EE1E5ECF3E02E
:1019A00001900D928A95E1F780915E0D90915F0D07
:1019B00090933C0D80933B0D40E07E01F1E3EF0EF0
:1019C000F11C0F2EF4E68F2EFCE69F2EF02D0F2E2D
:1019D000FDE2CF2ED12CF02D0F2EFCE5AF2EF2E73D
:1019E000BF2EF02D11E00F2EF0E36F2E712CF02D95
:1019F000E0913B0DF0913C0D8681882309F482C073
:101A000090E0A0E0B0E0880F991FAA1FBB1FAC01B7
:101A1000BD01440F551F661F771F440F551F661FDA
:101A2000771F9A01AB01280F391F4A1F5B1F652DD5
:101A3000722D832D942D0E9480600E947E5D0E94F5
:101A4000E35E0E94525D0E947E5D20E030E04AE746
:101A500054E40E94E55C2FE632E143E85AE30E9439
:101A60007D5CC35CDE4F688379838A839B83CD531F
:101A7000D14020E030E040E85FE30E94E15C882351
:101A80003CF4F70101900020E9F731977182608200
:101A900022E030E0AE014F5C5E4FC35CDE4F6881F8
:101AA00079818A819B81CD53D1400E944954BE01E6
:101AB0006F5C7E4FC7010E946362F70101900020B6
:101AC000E9F7319791828082128285E090E0F701F8
:101AD00001900020E9F73197D182C0820197B9F7D0
:101AE000E0913B0DF0913C0D60817181C7010E9436
:101AF0006362F70101900020E9F73197B182A0827B
:101B00001282412FE0913B0DF0913C0D838594852D
:101B100090933C0D80933B0D20915E0D30915F0DB5
:101B20008217930709F064CF413099F48DE00E9449
:101B3000F742BE016F5C7F4F83EE93E00E94164335
:101B40002FEF33E284EF215030408040E1F700C0B6
:101B500000008091F010811114C086E00E94F742CD
:101B60009FEFA7EAB1E69150A040B040E1F700C076
:101B7000000081E00E94F7428091F4109091F510EE
:101B80000CDC0E94683AC35BDE4F0FB6F894DEBFF0
:101B90000FBECDBFDF91CF911F910F91FF90EF90BE
:101BA000DF90CF90BF90AF909F908F907F906F907D
:101BB0005F904F903F902F900895CF93C82F85E06E
:101BC0000E94F7426BEE73E08FE893E00E941643A9
:101BD0002FEF83ED90E3215080409040E1F700C06B
:101BE00000004091500D5091510D6C2F70E080E03D
:101BF00090E02ADCCF9108952F923F924F925F920E
:101C00006F927F928F929F92AF92BF92CF92DF920C
:101C1000EF92FF920F931F93CF93DF93CDB7DEB771
:101C2000CA50D2400FB6F894DEBF0FBECDBF0E949F
:101C30009401FE01319680E092E0DF019C011D924B
:101C400021503040E1F7FE5F8AE0DF011D928A9566
:101C5000E9F780910C0D90910D0D90933C0D8093C0
:101C60003B0D8E010F5F1F4F0F2EF4E6CF2EFCE6CB
:101C7000DF2EF02D0F2EFDE2EF2EF12CF02D0F2E8A
:101C8000FCE52F2EF2E73F2EF02DE0913B0DF09179
:101C90003C0D6681662309F4C9C070E080E090E0E5
:101CA0000E947E5D4B015C0120E030E040E450E4A6
:101CB0000E94345E20E030E048EC52E40E94E55C93
:101CC00020E030E04AE754E40E94345E0E94E35E84
:101CD0000E94525D0E947E5D20E030E04AE754E4BD
:101CE0000E94E55C2FE632E143E85AE30E947D5C06
:101CF0002B013C0120E030E040EA50E4C501B40192
:101D00000E94345E20E030E048EC52E40E94E55C42
:101D100020E030E04AE754E40E94345E0E94E35E33
:101D20000E94525D0E947E5D20E030E04AE754E46C
:101D30000E94E55C2FE632E143E85AE30E947D5CB5
:101D40004B015C0120E030E040E85FE3C301B201F9
:101D50000E94E15C88234CF4F80101900020E9F72F
:101D6000319720E330E03183208322E030E0AE0180
:101D70004F5F5D4FC301B2010E944954BE016F5FC6
:101D80007D4FC8010E946362D8010D900020E9F7E1
:101D9000119786E0E4E1F4E001900D928A95E1F775
:101DA00020E030E040E85FE3C501B4010E94E15C5F
:101DB00088234CF4F80101900020E9F7319780E383
:101DC00090E09183808322E030E0AE014F5F5D4F71
:101DD000C501B4010E944954BE016F5F7D4FC80127
:101DE0000E946362F80101900020E9F73197D182E7
:101DF000C082128285E090E0F80101900020E9F7AE
:101E00003197F182E0820197B9F7E0913B0DF091B3
:101E10003C0D60817181C8010E946362F8010190EC
:101E20000020E9F73197318220821282E0913B0D48
:101E3000F0913C0D8585968590933C0D80933B0DEC
:101E400020910C0D30910D0D8217930709F01DCFD5
:101E5000BE016F5F7F4F8AE194E00E9416430E94AB
:101E6000DA01C65FDD4F0FB6F894DEBF0FBECDBFFF
:101E7000DF91CF911F910F91FF90EF90DF90CF9066
:101E8000BF90AF909F908F907F906F905F904F909A
:101E90003F902F900895AF92BF92CF92DF92EF9232
:101EA000FF920F931F93CF93DF93CDB7DEB7EC97DD
:101EB0000FB6F894DEBF0FBECDBFE090F210F090E9
:101EC000F31000E010E00F2EF2E6AF2EB12CF02D53
:101ED000CE0101966C01BA82A9824AE0BE016D5C16
:101EE0007F4FC8010E94A562BE016D5C7F4FC60195
:101EF0000E946362F7018281813089F018F082309C
:101F0000D9F026C0D6010D900020E9F7119787E09F
:101F1000E7E2F4E001900D928A95E1F719C0D6014D
:101F20000D900020E9F711978AE0EFE2F3E00190CD
:101F30000D928A95E1F70CC0D6010D900020E9F7CB
:101F400011978BE0EEE2F4E001900D928A95E1F7B3
:101F5000C6010E94A45B0E94E142F701E384F4847D
:101F60000F5F1F4F0C30110509F0B5CFEC960FB67F
:101F7000F894DEBF0FBECDBFDF91CF911F910F91BF
:101F8000FF90EF90DF90CF90BF90AF900895AF9209
:101F9000BF92CF92DF92EF92FF920F931F93CF9356
:101FA000DF93CDB7DEB7E6970FB6F894DEBF0FBE6E
:101FB000CDBFF82E0E9494014AE08E010F5F1F4FA3
:101FC000B8018F2D90E00E94A562D8010D900020ED
:101FD000E9F7119785E0E3EDF4E001900D928A9521
:101FE000E1F7C8010E9475508AE39DE09CAB8BAB82
:101FF0008AE090E09EAB8DABBE016D5C7F4F82E6C8
:1020000091E10E9459628C01892B09F4CDC07E01B7
:1020100083E3E80EF11C69E374E0C8010E946E627C
:10202000892B79F4B70180E090E00E9459628C011D
:10203000E091F410F091F510BC01808191810E9433
:1020400077626FEA72E0C8010E946E62892B09F024
:1020500064C0B70180E090E00E9459628C018091D9
:102060000C0D90910D0D90933C0D80933B0DFC0158
:1020700016820384F485E02D8E179F07C9F7F801B7
:1020800080818B3309F449C0CE2CDF2C80910C0D5C
:1020900090910D0D90933C0D80933B0DE0913B0D85
:1020A000F0913C0D60817181C8010E946E62892BA4
:1020B000B9F46C2D7D2D80E090E00E9459628C0176
:1020C000A0903B0DB0903C0D0E943462F5018683D8
:1020D00080910C0D90910D0D90933C0D80933B0DD4
:1020E000E0913B0DF0913C0D8385948590933C0DE0
:1020F00080933B0D20910C0D30910D0D82179307AD
:1021000069F66C2D7D2D80E090E00E9459628C0173
:10211000FC0180818B3309F0B9CF6EE374E0C80114
:102120000E946E62892B71F4B70180E090E00E94FA
:1021300059628C01C090F410D090F5100E94346266
:10214000F601828366E474E0C8010E946E62892B06
:1021500071F4B70180E090E00E9459628C01C09058
:10216000F410D090F5100E943462F601838363E589
:1021700074E0C8010E946E62892B69F4B70180E0A7
:1021800090E00E9459620091F4101091F5100E94A5
:102190003462F8018483B70180E090E00E945962C4
:1021A0008C01892B09F037CF0E94DA01E6960FB631
:1021B000F894DEBF0FBECDBFDF91CF911F910F917D
:1021C000FF90EF90DF90CF90BF90AF900895E09197
:1021D000DE10F091DF100190F081E02D882339F0BE
:1021E00090E00180F281E02D9F5F8913FACFF09398
:1021F000E410E093E3108081CACE08955F926F925D
:102200007F928F929F92AF92BF92CF92DF92EF9286
:10221000FF920F931F93CF93DF93CDB7DEB7E7976E
:102220000FB6F894DEBF0FBECDBF682E792E4B01DE
:10223000A090270DB090280DC090940ED090950ED0
:10224000FE01319682E3DF011D928A95E9F7F2964D
:1022500085E0DF011D928A95E9F7062D192FE12C03
:10226000F12C55245394C016D10631F480915B0DA6
:10227000811102C05092A90FBFEFEB1AFB0A4AE08E
:10228000BE016D5C7F4FC7010E94A562B401CE0103
:1022900001960E947762BE016D5C7F4FCE01019670
:1022A0000E946362CE0101960E94E443A016B1062B
:1022B000A1F480915B0D811114C050925B0DF80167
:1022C000808165DEE091F410F091F51060817181FC
:1022D000CE0101960E94164322C080915B0D882397
:1022E00089F06CEB72E0CE0101960E9416438FE3F9
:1022F0009CE90197F1F700C00000CE0101960E9411
:10230000AB430DC0D8018C9142DEE091F410F09106
:10231000F51060817181CE0101960E941643F8018B
:1023200001811281F6E0EF16F10421F480915B0D3A
:10233000813061F08FE39CE90197F1F700C0000064
:1023400096E0E916F10409F08ECF02C0062D172D94
:10235000C801E7960FB6F894DEBF0FBECDBFDF9180
:10236000CF911F910F91FF90EF90DF90CF90BF9092
:10237000AF909F908F907F906F905F900895FF92A5
:102380000F931F93CF93DF93F82EEB014091D11061
:102390005091D2106091E3107091E41005EE10E1BD
:1023A00021EE30E181E00E941B3EA80161EE70E168
:1023B0008091D1109091D2100E94623E8091E510E0
:1023C0009091E6109093DF108093DE108F2D0E9485
:1023D000F742E091DE10F091DF10BE018081918123
:1023E0000DDF9093050D8093040D980141EE50E1AF
:1023F00061ED70E10E94433DA80161EE70E18091C2
:10240000D1109091D2100E94623EDF91CF911F9126
:102410000F91FF9008958F929F92AF92BF92CF92AB
:10242000DF92EF92FF920F931F93CF93DF93CDB77D
:10243000DEB72F970FB6F894DEBF0FBECDBF89E190
:102440000E94F74268E574E08BEA94E00E9416432C
:1024500081E00E947B02EE24E394F12C8824839493
:102460000F2EFFE0BF2EF02DCE0101966C01912CB6
:10247000F6018B2D11928A95E9F74AE0B601C70162
:102480000E94A562D6010D900020E9F7119785E022
:10249000E3EDF4E001900D928A95E1F762E7C60161
:1024A0000E94E14B811120C08E2D0E942F068823AF
:1024B000D9F091E089120EC04091B10F5091B20F46
:1024C00007E21DE024E93EE06E2D81E00E94763BAC
:1024D000892C0AC027E23DE044E95EE061EB7FE041
:1024E0008E2D9F2D0E94953AEFEFEE1AFE0AF5E62B
:1024F000EF16F10409F0BCCFE091940EF091950E27
:10250000F093E410E093E310808141DD81E00E94CC
:10251000F7428091F4109091F5100E94CD092F960A
:102520000FB6F894DEBF0FBECDBFDF91CF911F91E4
:102530000F91FF90EF90DF90CF90BF90AF909F9062
:102540008F900895CF92DF92EF92FF920F931F9397
:10255000CF93DF93CDB7DEB7CA51D2400FB6F89410
:10256000DEBF0FBECDBF89E10E94F74265EB74E08C
:102570008BEA94E00E9416431A8219821092990EF7
:102580001092980EFE01339680E092E0DF019C01EC
:102590001D9221503040E1F78F01E12CF12C809108
:1025A000980E9091990E8E0D9F1D0E94E062680119
:1025B000D8018D938D018983CE0101960E948E5B97
:1025C000BFEFEB1AFB0AF60180818E3741F78E01CF
:1025D0000D5F1D4F84E1D8011D928A95E9F786E0D1
:1025E000E2EDF4E0D80101900D928A95E1F7C8017F
:1025F0000E947B5086E0E2EDF4E0D80101900D925C
:102600008A95E1F7BE016D5F7F4FC8010E944A5075
:102610008CE29DE0C95EDD4F99838883C751D2402B
:102620008AE090E0C75EDD4F99838883C951D2402C
:102630000091F2101091F310F12CEE24E394FF209E
:1026400049F0BE01695E7D4F80E090E00E945962D2
:10265000BC0109C0BE01695E7D4FCE0103960E9498
:102660005962BC01FE2CF801808191810E94776241
:10267000BE01695E7D4F80E090E00E9459620E9439
:102680003462D80112968C93BE01695E7D4F80E062
:1026900090E00E9459620E943462F8018383BE0177
:1026A000695E7D4F80E090E00E9459620E94346232
:1026B000D80114968C9314971B960D911C911C971E
:1026C00080914511909146110817190709F0B7CF6D
:1026D000BE01695E7D4F80E090E00E9459620091EA
:1026E0005E0D10915F0DBE01695E7D4F80E090E050
:1026F0000E945962BC01F801808191810E94776239
:10270000BE01695E7D4F80E090E00E9459627C01CD
:102710000E948E5BC7010E943462D80112968C938E
:10272000BE01695E7D4F80E090E00E9459620E9488
:102730003462F8018383BE01695E7D4F80E090E0E2
:102740000E9459620E943462D80114968C931497A7
:102750001B960D911C911C978091481190914911E5
:102760000817190709F0BFCF56DE81E00E94F74233
:10277000E091940EF091950EF093E410E093E31045
:10278000808105DC8091F4109091F5100E94CD09B4
:10279000C65EDD4F0FB6F894DEBF0FBECDBFDF9132
:1027A000CF911F910F91FF90EF90DF90CF90089500
:1027B0000F931F93CF93DF93CDB7DEB765970FB617
:1027C000F894DEBF0FBECDBFFE01319695E1DF016B
:1027D0001D929A95E9F7E091DE10F091DF100190DB
:1027E000F081E02D882339F090E00180F281E02D26
:1027F0009F5F8913FACFF093E410E093E310808198
:10280000C6DB1092A90F10925B0D64EA72E089E0BA
:102810000E94C404E091F410F091F5106081718180
:102820008E010F5F1F4FC8010E947762D8010D9083
:102830000020E9F711978AE0E8EDF4E001900D92AD
:102840008A95E1F7B80182EE94E00E9416436596FE
:102850000FB6F894DEBF0FBECDBFDF91CF911F91B1
:102860000F9108950F931F93CF93DF93CDB7DEB7EA
:10287000C558D1090FB6F894DEBF0FBECDBFFE011B
:10288000319695E0DF011D929A95E9F7359690E82B
:10289000DF011D929A95E9F7E091DE10F091DF10CB
:1028A000208131813093E4102093E310882371F06C
:1028B00090E0E091E310F091E410218132813093B7
:1028C000E4102093E3109F5F8913F3CFE091E310AE
:1028D000F091E41080815BDB8E010A5F1F4FD8010D
:1028E0000D900020E9F7119780E1ECEEF4E0019003
:1028F0000D928A95E1F7E091650EF091660E828166
:1029000090E04AE0BE016F5F7F4F01960E94A56292
:10291000BE016F5F7F4FC8010E946362F8010190A2
:102920000020E9F731978AE390E091838083E0917A
:10293000F410F091F51060817181C8010E9463620A
:10294000C8010E94BA5BC8010E948E5BE091F4103E
:10295000F091F51060817181E091650EF091660E45
:10296000808191810E94776289E10E94F74288E02C
:10297000ECEFF4E0D80101900D928A95E1F7E09137
:10298000650EF091660E82814AE0BE016F5F7F4F57
:1029900090E00E94A562BE016F5F7F4FC8010E9458
:1029A0006362D8010D900020E9F7119788E0E4E018
:1029B000F5E001900D928A95E1F7E091650EF091B6
:1029C000660E60817181C8010E946362D8010D901A
:1029D0000020E9F7119780E1ECE0F5E001900D921D
:1029E0008A95E1F7B8018BEA94E00E941643BFEFA5
:1029F00027EA81E6B15020408040E1F700C00000A6
:102A000081E00E94F7428091F4109091F5100E94AD
:102A1000CD0981E00E940302CB57DF4F0FB6F89437
:102A2000DEBF0FBECDBFDF91CF911F910F910895F3
:102A3000CF93DF93CDB7DEB7E2970FB6F894DEBF42
:102A40000FBECDBFE091E310F091E4100180F28160
:102A5000E02DF093E410E093E310BE016F5F7F4F31
:102A600082E3DB011D928A95E9F780814AE090E0DC
:102A70000E94A562E091E310F091E410808187DA72
:102A8000E2960FB6F894DEBF0FBECDBFDF91CF91B7
:102A90000895CF93DF93CDB7DEB7E2970FB6F894E2
:102AA000DEBF0FBECDBFE091E310F091E4100380D4
:102AB000F481E02DF093E410E093E310BE016F5F2A
:102AC0007F4F82E3DB011D928A95E9F780814AE01E
:102AD00090E00E94A562E091E310F091E410808103
:102AE00056DAE2960FB6F894DEBF0FBECDBFDF9187
:102AF000CF910895EF92FF920F931F93CF93DF939F
:102B0000CDB7DEB7A1970FB6F894DEBF0FBECDBF2D
:102B10008E010F5F1F4F95E1F80111929A95E9F729
:102B20007E01F6E1EF0EF11C95E0F70111929A9506
:102B3000E9F72AE530E03A8329834AE0B70190E0DB
:102B40000E94A562B701C8010E946362D8010D907E
:102B50000020E9F7119785E0E3EDF4E001900D9294
:102B60008A95E1F7C8010E94755087E0E6EBF2E034
:102B7000DE015B9601900D928A95E1F7BE01655EDC
:102B80007F4F82E691E10E9459628C01892B09F402
:102B900050C069E374E0C8010E946E62892B89F419
:102BA000BE01655E7F4F80E090E00E9459628C011B
:102BB000E091230DF091240DBC01808191810E9450
:102BC00077626EE374E0C8010E946E62892B81F423
:102BD000BE01655E7F4F80E090E00E9459628C01EB
:102BE000E090230DF090240D0E943462F70182835F
:102BF00066E474E0C8010E946E62892B79F4BE011C
:102C0000655E7F4F80E090E00E9459620091230D45
:102C10001091240D0E943462F8018383BE01655E29
:102C20007F4F80E090E00E9459628C01892B09F06F
:102C3000B0CFA1960FB6F894DEBF0FBECDBFDF9127
:102C4000CF911F910F91FF90EF9008952F923F9297
:102C50004F925F926F927F928F929F92AF92BF92AC
:102C6000CF92DF92EF92FF920F931F93CF93DF9358
:102C7000CDB7DEB7CD56D1090FB6F894DEBF0FBE83
:102C8000CDBFAD968FAFAD97AE969FAFAE97AC96DA
:102C90007FAF6EAFAC978091C90F811111C08CE1ED
:102CA00095E00E9456448091C90F811109C060903F
:102CB000450D7090460D8090DC109090DD1008C09E
:102CC0006090A10F7090A20F8090AA0F9090AB0F10
:102CD00082E3FE013196DF01982F1D929A95E9F764
:102CE000F296DF011D928A95E9F7AD96EFACAD97AC
:102CF000AE96FFACAE97A12CB12C442443946E0148
:102D0000B5E6CB0ED11C0F2EF5E05F2EF02D8F0116
:102D10002E2E312E8E149F0431F480915B0D811183
:102D200002C04092A90FF601852D11928A95E9F70C
:102D3000D7018C914AE0B60190E00E94A562C601DD
:102D40000E948E5BF7018081D5DEE091230DF0912A
:102D5000240D808191810E948E5B8AE093E00E9425
:102D60008E5BFFEFAF1ABF0A4AE0B601C5010E94B1
:102D7000A562AC966EAD7FADAC97CE0101960E9478
:102D80007762B601CE0101960E946362CE01019680
:102D90000E94E4436E147F0439F580915B0D81112C
:102DA00027C040925B0DE091230DF091240D93819B
:102DB0008091C90F981307C060817181CE0101967F
:102DC0000E94164330C06CEB72E0CE0101960E9467
:102DD00016438FE39CE90197F1F700C00000CE0194
:102DE00001960E94AB431FC080915B0D882389F040
:102DF0006CEB72E0CE0101960E941643AFE3BCE992
:102E00001197F1F700C00000CE0101960E94AB437C
:102E10000AC0E091230DF091240D60817181CE01F3
:102E200001960E9416438091C90F811144C0E09120
:102E3000230DF091240D60817181E091670EF09176
:102E4000680E808191810E946E62892BD1F4BE014F
:102E50006F5F7F4F822D932D0E947762D8010D9076
:102E60000020E9F711978AE0EFE2F3E001900D927C
:102E70008A95E1F7822D932D0E94A45B0E94E14286
:102E800077C0BE016F5F7F4F822D932D0E947762C6
:102E9000D8010D900020E9F7119787E0E7E2F4E010
:102EA00001900D928A95E1F7822D932D0E94A45BEB
:102EB0000E94E1425DC080915E0D90915F0D909304
:102EC000DB108093DA10E091230DF091240D6081E6
:102ED0007181E091DA10F091DB10808191810E9484
:102EE0006E62892BD1F4BE016F5F7F4F822D932DCF
:102EF0000E947762D8010D900020E9F711978AE0CF
:102F0000EFE2F3E001900D928A95E1F7822D932D87
:102F10000E94A45B0E94E1422BC0BE016F5F7F4F05
:102F2000822D932D0E947762D8010D900020E9F741
:102F3000119787E0E7E2F4E001900D928A95E1F7BE
:102F4000822D932D0E94A45B0E94E142E091DA1051
:102F5000F091DB10838594859093DB108093DA10D9
:102F600020915E0D30915F0D8217930709F0ABCF72
:102F7000F701E180F280F6E0AF16B10459F48091D8
:102F80005B0D811107C0AD96EFAEAD97AE96FFAE6B
:102F9000AE970BC08FE39CE90197F1F700C00000EA
:102FA00096E0A916B10409F0B5CEAD968FADAD97F8
:102FB000AE969FADAE97C359DF4F0FB6F894DEBF04
:102FC0000FBECDBFDF91CF911F910F91FF90EF907A
:102FD000DF90CF90BF90AF909F908F907F906F9039
:102FE0005F904F903F902F90089590915B0D9111BD
:102FF0006BC01092A90F8823B1F1813009F064C031
:10300000E091DE10F091DF100280F381E02DF0936B
:10301000DF10E093DE106FE175E080819181EED8E2
:103020009093050D8093040D4091DE105091DF10B8
:103030002091E5103091E6104217530709F044C083
:1030400025EE30E141EE50E161ED70E10E94433D3B
:1030500045EE50E161EE70E18091D1109091D21077
:103060000C94623E0895E0914B0DF0914C0D02805E
:10307000F381E02DF0934C0DE0934B0D68E275E089
:1030800080819181E3DD9093050D8093040D409143
:103090004B0D50914C0D2091410D3091420D421736
:1030A000530791F421E43DE04EEE50E16CEE70E107
:1030B0000E94433D41E45DE06EEE70E18091EC10D2
:1030C0009091ED100C94623E08959091A90F91118A
:1030D00027C010925B0D882399F0813009F5E091AB
:1030E000DE10F091DF100480F581E02DF093DF1009
:1030F000E093DE106FE175E0808191817FC80895D3
:10310000E0914B0DF0914C0D0480F581E02DF09392
:103110004C0DE0934B0D68E275E08081918196CD76
:103120000895FF920F931F93CF93DF93F82EEB0137
:103130008091C90F811109C08091DC109091DD1040
:103140009093440D8093430D08C08091AA0F9091F5
:10315000AB0F9093440D8093430D4091EC10509130
:10316000ED106091430D7091440D01E41DE02EEED1
:1031700030E181E00E941B3EA8016EEE70E180917B
:10318000EC109091ED100E94623E8091EE109091B3
:10319000EF1090934C0D80934B0D8F2D0E94F742B2
:1031A000E0914B0DF0914C0DBE01808191814EDD7F
:1031B0009093440D8093430D98014EEE50E16CEED8
:1031C00070E10E94433DA8016EEE70E18091EC1029
:1031D0009091ED100E94623EDF91CF911F910F916F
:1031E000FF900895FF920F931F93CF93DF93CDB776
:1031F000DEB7CF55D2400FB6F894DEBF0FBECDBFBD
:10320000182F062FFE01319682E3DF011D928A9569
:10321000E9F7F29685E0DF011D928A95E9F716300D
:10322000C1F4E091670EF091680EA081B18188E051
:10323000E0E1F3E001900D928A95E1F7E091670EED
:10324000F091680E13821482628383E10E94F74238
:103250006AC0173009F05BC0E091230DF091240D96
:1032600060817181E091670EF091680E808191819B
:103270000E947762E091670EF091680EA091230D95
:10328000B091240D12968C911297838313968C9192
:103290008483028383E10E94F7428EE492E79A835B
:1032A00089838EE290E09C838B83E091670EF0919E
:1032B000680E858190E04AE0BE016D5C7F4F01960B
:1032C0000E94A562BE016D5C7F4F8E010F5F1F4F94
:1032D000C8010E946362F80101900020E9F731976C
:1032E00080E29DE39183808380E290E093838283F8
:1032F000E091670EF091680E60817181C8010E94B3
:103300006362B80185E395E00E94164387C01830D8
:1033100051F483E10E94F74260E475E085E395E0B3
:103320000E9416437BC0163008F078C083E10E94EB
:10333000F742E0914B0DF0914C0D0190F081E02DA2
:10334000112339F080E00180F281E02D8F5F1813A6
:10335000FACFF0934F0DE0934E0D8081CBDBE091DF
:10336000230DF091240D808191810E948E5B8AE073
:1033700093E00E948E5BE091230DF091240D60811B
:103380007181E091670EF091680E808191810E94B9
:103390007762E091670EF091680E0283A091230D91
:1033A000B091240D12968C911297838313968C9171
:1033B00084838EE492E79A8389838EE290E09C83F3
:1033C0008B83858190E04AE0BE016D5C7F4F019662
:1033D0000E94A562BE016D5C7F4F8E010F5F1F4F83
:1033E000C8010E946362F80101900020E9F731975B
:1033F00080E29DE39183808380E290E093838283E7
:10340000E091670EF091680E60817181C8010E94A1
:103410006362B80185E395E00E9416430E944B0F5A
:1034200080E00E94030200001092A90F10925B0D31
:103430000F2EF4E1FF2EF02DCE01C896FC012F2DAA
:1034400011922A95E9F726E0E2EDF4E0DC01019023
:103450000D922A95E1F70E945C4D8E01045B1F4F8F
:1034600080E092E0D801FC011D923197E9F7C80194
:103470000E940E05CE01845B9D4FDC011D92FA94E3
:10348000E9F726E0E2EDF4E0DC0101900D922A95E7
:10349000E1F7B8010E944A50C15ADD4F0FB6F894C7
:1034A000DEBF0FBECDBFDF91CF911F910F91FF9077
:1034B0000895AF92BF92DF92EF92FF920F931F9306
:1034C000CF93DF93CDB7DEB7CF55D2400FB6F89488
:1034D000DEBF0FBECDBFD82E162FFE01319685E080
:1034E000DF011D928A95E9F7359682E3DF011D928F
:1034F0008A95E9F7B6E0DB1215C0E091DA10F09199
:10350000DB10A081B18188E0E0E1F3E001900D9251
:103510008A95E1F7E091DA10F091DB1013821482C2
:10352000628351C1E7E0DE121FC0E091230DF091EC
:10353000240D60817181E091DA10F091DB108081BF
:1035400091810E947762E091DA10F091DB10A091F6
:10355000230DB091240D12968C91129783831396AC
:103560008C91848312832FC1F5E0FD1520F428E0AF
:10357000D216D1F028C1E0914B0DF0914C0D019085
:10358000F081E02DDD2039F090E00180F281E02D26
:103590009F5FD912FACFF093090DE093080D808157
:1035A000A9DA38E0D31206C0E091A10FF091A20F82
:1035B0008081A0DA00915E0D10915F0DD801129606
:1035C0009C911297913009F046C1AD90BC90E0916A
:1035D000230DF091240D60817181C5010E946E62FE
:1035E000892B09F02BC17E01B6E0EB0EF11CB50171
:1035F000C7010E947762D7010D900020E9F711976B
:1036000086E1E8E5F5E001900D928A95E1F7B701D2
:103610008EE695E00E941643B70185E395E00E948F
:103620001643F801A081B18188E0E0E1F3E0019068
:103630000D928A95E1F7D80112961C921297139673
:103640001C92139714961C928D2D90E04AE0BE01B7
:103650006F5F7F4F01960E94A5628DE0E8E2F5E082
:10366000D70101900D928A95E1F7BE016F5F7F4F00
:10367000C7010E946362D7010D900020E9F71197FE
:1036800087E0E7E2F4E001900D928A95E1F7C70147
:103690000E94A45B0E94E142E0905E0DF0905F0DFD
:1036A000F801838594858E159F0509F08CC020E074
:1036B000213009F088C0D70112968C9112978111A0
:1036C00069C0E091230DF091240D608171818D918D
:1036D0009C910E94776281E0F7018283E091230D43
:1036E000F091240D8281D70113968C9313978381D7
:1036F00014968C9314976D917C918E010A5F1F4FE5
:10370000C8010E947762D8010D900020E9F7119757
:1037100089E1EBE7F5E001900D928A95E1F7B801B8
:103720008EE695E00E941643B80185E395E00E947D
:1037300016438D2D90E04AE0BE016F5F7F4F0196EA
:103740000E94A5628DE0E8E2F5E0D80101900D92BB
:103750008A95E1F7BE016F5F7F4FC8010E946362E7
:10376000D8010D900020E9F711978AE0EFE2F3E02D
:1037700001900D928A95E1F7C8010E94A45B0E9416
:10378000E14280915E0D90915F0DE816F906D9F443
:1037900020E00BC0F701E384F48480915E0D9091EA
:1037A0005F0DE816F90609F086CF213061F464E96F
:1037B00075E08EE695E00E94164364E975E085E3C6
:1037C00095E00E9416430F2EF4E1FF2EF02DCE015E
:1037D000C896DC01EF2D1D92EA95E9F726E0E2EDAF
:1037E000F4E0DC0101900D922A95E1F70E947B50F4
:1037F0008E01045B1F4F80E092E0D801FC011D9216
:103800003197E9F7C8010E940E05CE01845B9D4FF8
:10381000DC011D92FA94E9F726E0E2EDF4E0DC0128
:1038200001900D922A95E1F7B8010E944A5062EA90
:1038300075E08EE695E00E9416431CC0F8010385F2
:103840001485E0905E0DF0905F0D0E151F0509F0D8
:10385000B5CE21E02DCFD8011B960D911C911C9760
:10386000E0905E0DF0905F0D0E151F0509F0A6CEDD
:1038700021E01ECFC15ADD4F0FB6F894DEBF0FBE58
:10388000CDBFDF91CF911F910F91FF90EF90DF900F
:10389000BF90AF9008957F928F929F92AF92BF9208
:1038A000CF92DF92EF92FF920F931F93CF93DF930C
:1038B000CDB7DEB7C951D2400FB6F894DEBF0FBE08
:1038C000CDBF982E7B01742E822E0E9494018E0112
:1038D0000F5F1F4F80E092E0D801FC011D923197ED
:1038E000E9F7D8010D900020E9F7119786E0ECEB9D
:1038F000F5E001900D928A95E1F7B701C8010E94A9
:103900006362D8010D900020E9F711978AE0E2EC9C
:10391000F5E001900D928A95E1F7FE01EF5FFD4F12
:1039200085E0DF011D928A95E9F78091E71090917B
:10393000E81090933C0D80933B0D0F2EFAE3CF2EB1
:10394000D12CF02D0F2EFDE0EF2EF12CF02DE0917B
:103950003B0DF0913C0D8681882389F18081918116
:103960000E948E5BA0903B0DB0903C0DF5016081F4
:103970007181C8010E946362F80101900020E9F79B
:103980003197D182C082D50116968C914AE0BE0152
:103990006F5F7D4F90E00E94A562BE016F5F7D4F1B
:1039A000C8010E946362F80101900020E9F7319795
:1039B000F182E082CE018F5F9D4F0E948E5BE0918D
:1039C0003B0DF0913C0D8585968590933C0D809341
:1039D0003B0D2091E7103091E8108217930709F012
:1039E000B6CF8E010F5F1F4FF80101900020E9F75D
:1039F00031978BE39DE0918380831282D8010D90F3
:103A00000020E9F7119789E0E0EDF7E001900D92D1
:103A10008A95E1F74AE0BE016F5F7D4F872D90E008
:103A20000E94A562BE016F5F7D4FC8010E94636264
:103A3000F80101900020E9F731970F2EFDE0EF2EFD
:103A4000F12CF02DF182E082D8010D900020E9F7F1
:103A500011978EE0EDE5F6E001900D928A95E1F781
:103A60004AE0BE016F5F7D4F882D90E00E94A56205
:103A7000BE016F5F7D4FC8010E946362F801019033
:103A80000020E9F73197F182E082D8010D90002003
:103A9000E9F7119786E0ECECF5E001900D928A953C
:103AA000E1F7E091F410F091F5108481803271F02B
:103AB0004AE0BE016B5E7D4F90E00E94A562BE01B0
:103AC0006B5E7D4FC8010E9463620BC0FE013196A0
:103AD00001900020E9F7319783E392E3918380839B
:103AE0001282FE0131967F0101900020E9F73197A3
:103AF0008EE790E0918380838E010A5F1D4F8FE0F7
:103B0000D8011D928A95E9F74AE0B801892D90E025
:103B10000E94A562D8010D900020E9F7119785E079
:103B2000E3EDF4E001900D928A95E1F7B701C80149
:103B30000E944A500E94DA01C75EDD4F0FB6F8942A
:103B4000DEBF0FBECDBFDF91CF911F910F91FF90D0
:103B5000EF90DF90CF90BF90AF909F908F907F902D
:103B600008959F92AF92BF92CF92DF92EF92FF9211
:103B70000F931F93CF93DF93CDB7DEB72F970FB679
:103B8000F894DEBF0FBECDBF0E94940180910C0D52
:103B900090910D0D90933C0D80933B0DF12C0F2EC9
:103BA000F5E0EF2EF02D8E010F5F1F4FE0913B0DE2
:103BB000F0913C0D808191810E948E5B8AE093E0C0
:103BC0000E948E5BF8012E2D11922A95E9F7E09163
:103BD0003B0DF0913C0D86814AE0B80190E00E94D7
:103BE000A562C8010E948E5B8AE093E00E948E5B12
:103BF000E0913B0DF0913C0D8681F80E8385948514
:103C000090933C0D80933B0D20910C0D30910D0D48
:103C10008217930759F684E6F812BBC089E10E9427
:103C2000F74262ED75E08BEA94E00E941643E09162
:103C3000F410F091F51064EB7FE0808191810E9497
:103C40007762E091F410F091F51080E28483809126
:103C50000C0D90910D0D90933C0D80933B0DC12C5C
:103C6000D12C11E0E0913B0DF0913C0D8681882331
:103C7000A1F0808191810E948E5B8AE093E00E9496
:103C80008E5BE0913B0DF0913C0D8381813009F416
:103C9000D12E8481813009F4C12EE0913B0DF09149
:103CA0003C0D8385948590933C0D80933B0D209132
:103CB0000C0D30910D0D82179307A1F6E091F410D1
:103CC000F091F510D2820E94DA0101E010E00F2E8F
:103CD000FFE09F2EF02DFE0131967F01F701292D87
:103CE00011922A95E9F74AE0B701C8010E94A5623E
:103CF000D7010D900020E9F7119785E0E3EDF4E09E
:103D000001900D928A95E1F7C7010E947D508130A4
:103D1000C9F02C2D4D2D64EB7FE0802FBCDD27E218
:103D20003DE044E95EE061EB7FE0802F912F0E944F
:103D3000953A8091270D9091280D9093E4108093EF
:103D4000E31006C00F5F1F4F0436110539F628C077
:103D5000E091E310F091E41080810E94C70F81E0B0
:103D60000E94F7428091F4109091F5100E94CD09C5
:103D70001092A90F10925B0D0E9460021092AE0F7C
:103D8000E4EBFFE088EC9FE01192E817F907E1F718
:103D90001FC066EE75E088E193E00E94164318C0EC
:103DA00062E076E08BEA94E00E9416438FEF93E2A4
:103DB000E4EF81509040E040E1F700C000008091C6
:103DC000940E9091950E9093E4108093E310C0CFE1
:103DD0002F960FB6F894DEBF0FBECDBFDF91CF9107
:103DE0001F910F91FF90EF90DF90CF90BF90AF9019
:103DF0009F9008950F931F93CF93DF93CDB7DEB7B6
:103E000064970FB6F894DEBF0FBECDBF8E010F5F73
:103E10001F4F94E1F80111929A95E9F74AE0B80131
:103E200090E00E94A562D8010D900020E9F711975B
:103E300085E0E3EDF4E001900D928A95E1F7C80189
:103E40000E947B5064960FB6F894DEBF0FBECDBFC4
:103E5000DF91CF911F910F910895CF930E9494010C
:103E600020910C0D30910D0D30933C0D20933B0DA6
:103E7000F901C0E08681C80F0584F685E02D2E1774
:103E80003F07C1F70E94DA01C43681F51092A90FED
:103E900010925B0D89E10E94F74262ED75E08BEABA
:103EA00094E00E941643E091E310F091E4108081C9
:103EB000A1DFE091F410F091F51060817181A09183
:103EC000E310B091E410238142818C91E4DC81E025
:103ED0000E94F7428091F4109091F5100E94CD0954
:103EE00081E00E9403020E94600206C066EE75E057
:103EF00088E193E00E941643CF910895AF92BF925C
:103F0000CF92DF92EF92FF920F931F93CF93DF93A5
:103F1000CDB7DEB7C550D2400FB6F894DEBF0FBEA6
:103F2000CDBFFE01319680E092E0DF019C011D9241
:103F300021503040E1F78091270D9091280D90930A
:103F4000E4108093E310FC0100E00F5F0380F48134
:103F5000E02D8E179F07C9F7CE0101967C01DC0189
:103F60000D900020E9F7119780E1EFE2F6E0019073
:103F70000D928A95E1F76E019FEFC91A9DEFD90A5C
:103F800085E0D6011D928A95E9F710E04AE0B60176
:103F9000C8010E94A562B601C7010E946362F701D1
:103FA00001900020E9F731978AE390E091838083C4
:103FB000E091270DF091280DF093E410E093E310C9
:103FC00080810E94C70FE091F410F091F51060819C
:103FD0007181C7010E946362E091E310F091E410E7
:103FE000838194819093E4108093E3100150110930
:103FF000101611068CF5E12CF12CFE0131966F01A3
:104000000F2EFCE2AF2EB12CF02DF6010190002016
:10401000E9F73197B182A082E091E310F091E410CA
:1040200080810E94C70FE091F410F091F51060813B
:104030007181C6010E946362E091E310F091E41087
:10404000838194819093E4108093E310FFEFEF1A43
:10405000FF0AE016F106CCF28E010F5F1F4FF80148
:1040600001900020E9F731978AE390E09183808303
:10407000C8010E948E5BC8010E94BA5BCB5FDD4F16
:104080000FB6F894DEBF0FBECDBFDF91CF911F9169
:104090000F91FF90EF90DF90CF90BF90AF90089579
:1040A000BF92CF92DF92EF92FF920F931F93CF9325
:1040B000DF93CDB7DEB7CA50D4400FB6F894DEBF59
:1040C0000FBECDBF80E092E0FE013196DF019C0182
:1040D0001D9221503040E1F78E010F5F1D4FD80136
:1040E000FC011D923197E9F7FE01EF5FFB4F8AE07B
:1040F000DF011D928A95E9F70E9494018091F210E8
:104100009091F31090933C0D80933B0D89E0EFE389
:10411000F6E0D80101900D928A95E1F7CC24C39482
:10412000D12C12500F2EFCE2EF2EF12CF02DB12CE1
:10413000E0913B0DF0913C0D82818130B9F4B1E00A
:10414000CB1207C060817181C8010E946362CB2CD1
:104150000CC0D8010D900020E9F71197ED92FC9268
:1041600060817181C8010E946362D394E0913B0D2C
:10417000F0913C0D8385948590933C0D80933B0D8D
:104180002091F2103091F3108217930789F60E9464
:10419000DA014AE0BE016F5F7B4F8D2D90E00E94F7
:1041A000A5628E010F5F1D4FBE016F5F7B4FC8017F
:1041B0000E946362F80101900020E9F731978AE3D9
:1041C00090E091838083BE016F5F7F4FC8010E94A2
:1041D0006362C8010E94BA5BC8010E948E5BC65F21
:1041E000DB4F0FB6F894DEBF0FBECDBFDF91CF918E
:1041F0001F910F91FF90EF90DF90CF90BF900895A7
:104200000F931F93CF93DF93CDB7DEB7C450D14048
:104210000FB6F894DEBF0FBECDBF0E941B428823AD
:10422000E1F38E010F5F1F4F80E091E0F8019C01E8
:10423000119221503040E1F78CE29AE3CF5FDE4FDC
:1042400099838883C150D1408DE090E0CD5FDE4FEF
:1042500099838883C350D14067E874E1C8010E9404
:104260007762BE016F5F7E4FC8010E9459628C0168
:1042700088E496E00E948E5BC8010E948E5BE0910C
:10428000940EF091950EF093E410E093E31080818A
:104290000E94C70F0EC0E091E310F091E41001807E
:1042A000F281E02DF093E410E093E31080810E940E
:1042B000C70FE091F410F091F510B8018081918161
:1042C0000E946E62892B39F784E00E94F742CC5F2E
:1042D000DE4F0FB6F894DEBF0FBECDBFDF91CF919A
:1042E0001F910F9108952F923F924F925F926F927C
:1042F0007F928F929F92AF92BF92CF92DF92EF9276
:10430000FF920F931F93CF93DF93CDB7DEB7CC53BC
:10431000D2400FB6F894DEBF0FBECDBF8091E31040
:104320009091E4109093050D8093040D0E941B4220
:104330008823E1F387E894E10E948E5B80E091E0BE
:104340009E012F5F3F4F7901D901FC011D923197EA
:10435000E9F78E010F5F1E4FD801FC011D923197C6
:10436000E9F78CE29AE3CF5FDD4F99838883C150F0
:10437000D2408DE090E0CD5FDD4F99838883C350BC
:10438000D240FE01EB5FFD4F84E1DF011D928A9573
:10439000E9F7749685E1DF011D928A95E9F767E8F0
:1043A00074E1C9010E947762BE016F5F7D4FC70152
:1043B0000E9459627C0184E596E00E948E5BC701F1
:1043C0000E948E5BD8010D900020E9F7119786E0DE
:1043D000ECEBF5E001900D928A95E1F7B701C80189
:1043E0000E946362D8010D900020E9F711978AE0DE
:1043F000E2ECF5E001900D928A95E1F70E949401BC
:104400000F2EF7E15F2EF02D312C212C68010F2E9D
:10441000FAE38F2E912CF02D0F2EFDE06F2E712CD4
:10442000F02D44244394BE016F5F7D4F80E090E007
:104430000E945962BC01CE01875E9D4F0E94776247
:10444000BE016F5F7D4F80E090E00E9459625C0189
:104450000E943462181619060CF045C0E0900C0D4D
:10446000F0900D0DF0923C0DE0923B0D00913B0D54
:1044700010913C0DBE01675E7D4FF80180819181F6
:104480000E946E62892B59F4D80113968C91813069
:1044900009F4242CF8018481813009F4342CD801EA
:1044A0001B968D919C911C9790933C0D80933B0D96
:1044B000E816F906D9F6BE01675E7D4FC6010E9477
:1044C0006362F60101900020E9F7319791828082C2
:1044D000B501C6010E946362F60101900020E9F770
:1044E0003197718260825A9451109DCF0E94DA01F7
:1044F0008E010F5F1E4FF80101900020E9F7319700
:104500008BE39DE0918380831282D8010D9000207F
:10451000E9F7119789E0E0EDF7E001900D928A95B7
:10452000E1F74AE0BE016B5F7D4F822D90E00E9473
:10453000A562BE016B5F7D4FC8010E946362D80116
:104540000D900020E9F711978FE0ECE5F6E001907F
:104550000D928A95E1F74AE0BE016B5F7D4F832D96
:1045600090E00E94A562BE016B5F7D4FC8010E9472
:104570006362D8010D900020E9F7119789E0EBE61E
:10458000F6E001900D928A95E1F7F8010190002084
:10459000E9F731978EE790E091838083C8010E940C
:1045A0008E5B01E010E07E01B2EDEB1ABDEFFB0A7D
:1045B0000F2EFFE0AF2EF02DB02EF7012A2D119215
:1045C0002A95E9F7D12E4AE0B701C8010E94A562F9
:1045D000D7010D900020E9F7119785E0E3EDF4E0B5
:1045E00001900D928A95E1F7C7010E947D508130BC
:1045F00059F18E01025D1D4F4AE0B8018B2D9D2DB2
:104600000E94A562D8010D900020E9F7119785E07E
:10461000E3EDF4E001900D928A95E1F7BE016F5F42
:104620007E4FC8010E944A508B2D0E942F0688237E
:1046300089F027E23DE044E95EE061EB7FE08B2D0D
:104640009D2D0E94953A06C00F5F1F4F043611053D
:1046500009F0B2CFE091040DF091050DF093E41054
:10466000E093E31080810E94C70F81E00E94F7422F
:104670008091F4109091F5100E94CD09C45CDD4F3B
:104680000FB6F894DEBF0FBECDBFDF91CF911F9163
:104690000F91FF90EF90DF90CF90BF90AF909F90E1
:1046A0008F907F906F905F904F903F902F900895E4
:1046B00090E0FC013297E830F10508F0F4C088275B
:1046C000EA56FF4F8F4F0C94C46082E00E94F7427D
:1046D000E091F410F091F5106081718182E493E033
:1046E0000E9416438091F4109091F5100C94FC0DEB
:1046F000089580911C0D813039F018F08230B9F0A6
:1047000028C00E94491525C00E944915E091F41067
:10471000F091F510828181111CC00E944915E09131
:10472000F410F091F51082818823B9F312C00E9431
:104730004915E091F410F091F5108281813049F42F
:104740000E944915E091F410F091F51082818130BA
:10475000B9F38091F4109091F5100C94CD0908955F
:1047600084E00E94F742E091E310F091E410808130
:104770000C94C70F089580911C0D813039F018F00A
:104780008230B9F028C00E94181525C00E94181563
:10479000E091F410F091F510828181111CC00E940B
:1047A0001815E091F410F091F51082818823B9F387
:1047B00012C00E941815E091F410F091F51082815A
:1047C000813049F40E941815E091F410F091F51031
:1047D00082818130B9F38091F4109091F5100C949E
:1047E000CD0908958091E3109091E41090939E0F6D
:1047F00080939D0F8091940E9091950E9093E4106C
:104800008093E3106FE175E083E00C94BF1108958D
:1048100087E00C94F7420895E091940EF091950E84
:10482000F093E410E093E31080810E94C70F809121
:104830001C0D8130C1F018F0823049F12AC081E0AE
:1048400080931C0DE091F410F091F510828181119C
:1048500020C00E941815E091F410F091F5108281AB
:104860008823B9F316C082E080931C0DE091F41008
:10487000F091F5108281813061F40E941815E09169
:10488000F410F091F51082818130B9F302C01092DA
:104890001C0D8091F4109091F5100C94CD090895A1
:1048A00082E10C94F7420895813019F0823059F07A
:1048B000089581E00E94F7428091F4109091F510E4
:1048C0000C94CD09089581E00E94F7428091F41084
:1048D0009091F5100C94CD09089590E0FC0131976A
:1048E000E930F10508F09DC08827E256FF4F8F4F51
:1048F0000C94C46080E00E94E71081E00E94F742BF
:104900008091F4109091F5100E94CD091092A90F9A
:1049100010925B0D81E00C940302089581E00E94E7
:10492000E71081E00E94F7428091F4109091F51019
:104930000E94CD091092A90F10925B0D81E00C949A
:104940000302089582E00E94E71081E00E94F7428E
:104950008091F4109091F5100E94CD091092A90F4A
:1049600010925B0D81E00C940302089583E00E9495
:10497000E71081E00E94F7428091F4109091F510C9
:104980000E94CD091092A90F10925B0D81E00C944A
:104990000302089584E00E94E71081E00E94F7423C
:1049A0008091F4109091F5100E94CD091092A90FFA
:1049B00010925B0D81E00C940302089585E00E9443
:1049C000E71081E00E94F7428091F4109091F51079
:1049D0000E94CD091092A90F10925B0D81E00C94FA
:1049E0000302089581E00C946518089581E00C9409
:1049F000F51708951092A90F10925B0DE0919D0F8D
:104A0000F0919E0F80810E94C70F81E00E94F742C3
:104A10008091F4109091F5100E94CD0981E00C94E2
:104A2000030208958F929F92AF92BF92CF92DF922E
:104A3000EF92FF920F931F93CF93DF93CDB7DEB723
:104A40002F970FB6F894DEBF0FBECDBF90E0FC01EC
:104A50003197E830F10508F085C08827E955FF4F08
:104A60008F4F0C94C4608091E3109091E410909368
:104A70009E0F80939D0F8091940E9091950E909330
:104A8000E4108093E3106FE175E088E00E94BF11AD
:104A900069C080E10E94F7420E94720963C08AE007
:104AA0000E94F7425FC08DE00E94F7425BC081E048
:104AB0000E94F7428091F4109091F5100E94CD0968
:104AC00051C083E10E94F7420E944B0F4BC087E127
:104AD0000E94F74200E010E00F2EFAE0BF2EF02D0A
:104AE0009E012F5F3F4F69010F2EF5E0AF2EF02D95
:104AF0007E013BE0E30EF11CF6012B2D11922A956D
:104B0000E9F7F7012A2D11922A95E9F785E0E4E704
:104B1000F6E0D60101900D928A95E1F748013FEF4A
:104B2000831A930A4B2DB701C4010E94A562B701F5
:104B3000C6010E9463628091E910F801E80FF11D3F
:104B4000CF014B2DB70101960E94A562B701C601A6
:104B50000E94164384010630110571F603C08AE1F4
:104B60000E94F7422F960FB6F894DEBF0FBECDBF5E
:104B7000DF91CF911F910F91FF90EF90DF90CF9039
:104B8000BF90AF909F908F90089590E0FC01319777
:104B9000EA30F105F0F58827E155FF4F8F4F0C946F
:104BA000C46080E00C94D813089581E00C94D8136D
:104BB000089582E00C94D813089583E00C94D813E0
:104BC000089584E00C94D813089585E00C94D813CC
:104BD000089581E00C946518089581E00C94F51710
:104BE0000895E0919D0FF0919E0FF093E410E093F3
:104BF000E31080810E94C70F1092A90F10925B0DE5
:104C000087E00E94F74281E00C94030208950C941F
:104C1000A212089590E0FC013197EA30F10508F006
:104C200043C08827E754FF4F8F4F0C94C4600C9407
:104C3000AD0408950C947F0408951092A90F10926A
:104C40005B0D81E00C94F742089507C9089580E058
:104C50000C946C08089581E00C946C08089582E02F
:104C60000C946C08089583E00C946C08089581E01E
:104C70000E94F742E0919D0FF0919E0FF093E41097
:104C8000E093E31080810E94C70F8091F41090910F
:104C9000F5100E94CD091092A90F10925B0D81E0D2
:104CA0000E9403020C94600208950F931F93CF9308
:104CB000DF93CDB7DEB7E2970FB6F894DEBF0FBE35
:104CC000CDBFE82F9E012F5F3F4F82E3D9011D9298
:104CD0008A95E9F780E389838E2F90E0FC01319774
:104CE000EF31F10508F07FC38827ED53FF4F8F4F59
:104CF0000C94C4608091580D813041F4E091AE0F66
:104D0000F0E0EC54F04F81E4808307C0E091AE0FF7
:104D1000F0E0EC54F04F81E680838091AE0F8F5F1E
:104D20008093AE0F60C38091580D813041F4E091C3
:104D3000AE0FF0E0EC54F04F82E4808307C0E091C6
:104D4000AE0FF0E0EC54F04F82E680838091AE0F1E
:104D50008F5F8093AE0F47C38091580D813041F42F
:104D6000E091AE0FF0E0EC54F04F83E4808307C095
:104D7000E091AE0FF0E0EC54F04F83E68083809139
:104D8000AE0F8F5F8093AE0F2EC38091580D813090
:104D900041F4E091AE0FF0E0EC54F04F84E48083F6
:104DA00007C0E091AE0FF0E0EC54F04F84E6808352
:104DB0008091AE0F8F5F8093AE0F15C38091580D19
:104DC000813041F4E091AE0FF0E0EC54F04F85E417
:104DD000808307C0E091AE0FF0E0EC54F04F85E621
:104DE00080838091AE0F8F5F8093AE0FFCC2809165
:104DF000580D813041F4E091AE0FF0E0EC54F04FEB
:104E000086E4808307C0E091AE0FF0E0EC54F04FF1
:104E100086E680838091AE0F8F5F8093AE0FE3C2F2
:104E20008091580D813041F4E091AE0FF0E0EC54E8
:104E3000F04F87E4808307C0E091AE0FF0E0EC54C0
:104E4000F04F87E680838091AE0F8F5F8093AE0F27
:104E5000CAC28091580D813041F4E091AE0FF0E06C
:104E6000EC54F04F88E4808307C0E091AE0FF0E08F
:104E7000EC54F04F88E680838091AE0F8F5F809373
:104E8000AE0FB1C28091580D813041F4E091AE0F68
:104E9000F0E0EC54F04F89E4808307C0E091AE0F5E
:104EA000F0E0EC54F04F89E680838091AE0F8F5F85
:104EB0008093AE0F98C28091580D813041F4E091FB
:104EC000AE0FF0E0EC54F04F8AE4808307C0E0912D
:104ED000AE0FF0E0EC54F04F8AE680838091AE0F85
:104EE0008F5F8093AE0F7FC28091580D813041F467
:104EF000E091AE0FF0E0EC54F04F8BE4808307C0FC
:104F0000E091AE0FF0E0EC54F04F8BE6808380919F
:104F1000AE0F8F5F8093AE0F66C28091580D8130C7
:104F200041F4E091AE0FF0E0EC54F04F8CE480835C
:104F300007C0E091AE0FF0E0EC54F04F8CE68083B8
:104F40008091AE0F8F5F8093AE0F4DC28091580D50
:104F5000813041F4E091AE0FF0E0EC54F04F8DE47D
:104F6000808307C0E091AE0FF0E0EC54F04F8DE687
:104F700080838091AE0F8F5F8093AE0F34C280919B
:104F8000580D813041F4E091AE0FF0E0EC54F04F59
:104F90008EE4808307C0E091AE0FF0E0EC54F04F58
:104FA0008EE680838091AE0F8F5F8093AE0F1BC221
:104FB0008091580D813041F4E091AE0FF0E0EC5457
:104FC000F04F8FE4808307C0E091AE0FF0E0EC5427
:104FD000F04F8FE680838091AE0F8F5F8093AE0F8E
:104FE00002C28091580D813041F4E091AE0FF0E0A3
:104FF000EC54F04F80E5808307C0E091AE0FF0E005
:10500000EC54F04F80E780838091AE0F8F5F8093E8
:10501000AE0FE9C18091580D813041F4E091AE0F9F
:10502000F0E0EC54F04F81E5808307C0E091AE0FD3
:10503000F0E0EC54F04F81E780838091AE0F8F5FFA
:105040008093AE0FD0C18091580D813041F4E09132
:10505000AE0FF0E0EC54F04F82E5808307C0E091A2
:10506000AE0FF0E0EC54F04F82E780838091AE0FFA
:105070008F5F8093AE0FB7C18091580D813041F49E
:10508000E091AE0FF0E0EC54F04F83E5808307C071
:10509000E091AE0FF0E0EC54F04F83E78083809115
:1050A000AE0F8F5F8093AE0F9EC18091580D8130FF
:1050B00041F4E091AE0FF0E0EC54F04F84E58083D2
:1050C00007C0E091AE0FF0E0EC54F04F84E780832E
:1050D0008091AE0F8F5F8093AE0F85C18091580D88
:1050E000813041F4E091AE0FF0E0EC54F04F85E5F3
:1050F000808307C0E091AE0FF0E0EC54F04F85E7FD
:1051000080838091AE0F8F5F8093AE0F6CC18091D2
:10511000580D813041F4E091AE0FF0E0EC54F04FC7
:1051200086E5808307C0E091AE0FF0E0EC54F04FCD
:1051300086E780838091AE0F8F5F8093AE0F53C15F
:105140008091580D813041F4E091AE0FF0E0EC54C5
:10515000F04F87E5808307C0E091AE0FF0E0EC549C
:10516000F04F87E780838091AE0F8F5F8093AE0F03
:105170003AC18091580D813041F4E091AE0FF0E0DA
:10518000EC54F04F88E5808307C0E091AE0FF0E06B
:10519000EC54F04F88E780838091AE0F8F5F80934F
:1051A000AE0F21C18091580D813041F4E091AE0FD6
:1051B000F0E0EC54F04F89E5808307C0E091AE0F3A
:1051C000F0E0EC54F04F89E780838091AE0F8F5F61
:1051D0008093AE0F08C18091580D813041F4E09169
:1051E000AE0FF0E0EC54F04F8AE5808307C0E09109
:1051F000AE0FF0E0EC54F04F8AE780838091AE0F61
:105200008F5F8093AE0FEFC08091AE0F882319F0AF
:1052100081508093AE0FE091AE0FF0E0EC54F04F70
:105220001082E1C0E0919D0FF0919E0FF093E41089
:10523000E093E31080810E94C70F1092AE0FE4EB61
:10524000FFE088EC9FE01192E817F907E1F781E0B1
:105250000E94F7428091F4109091F5100E94CD09C0
:10526000C2C08091AE0FE82FF0E0EC54F04F90E216
:1052700090838F5F8093AE0FB6C08091E3109091C2
:10528000E41090939E0F80939D0F8091B40F811135
:1052900007C069E776E080EA96E00E94164345C0C1
:1052A00089E10E94F7426CEA76E08BEA94E00E9482
:1052B00016438091940E9091950E9093E4108093F4
:1052C000E31010E001E0E091E310F091E410808140
:1052D0000E94C70FE091F410F091F51064EB7FE0AD
:1052E000808191810E946E62892B61F411110AC044
:1052F00080E10E94F74261EE76E080EA96E00E944B
:105300001643102FE091E310F091E4108181928117
:105310009093E4108093E3102091940E3091950EB9
:105320008217930781F611111DC00E94940180918C
:105330000C0D90910D0D90933C0D80933B0DFC0155
:1053400016820384F485E02D8E179F07C9F70E940B
:10535000DA011092A90F10925B0D64EA72E081E10C
:105360000E94C40480919D0F90919E0F9093E41031
:105370008093E31038C08091580D8130D1F41092A1
:10538000580D86E493E79A8389831B82CE010196A8
:10539000DC010D900020E9F7119727E0E7E2F4E047
:1053A00001900D922A95E1F70E94A45B0E94E142D0
:1053B0001AC081E08093580D86E493E79A8389832D
:1053C0001B82CE010196DC010D900020E9F71197B8
:1053D0002AE0EFE2F3E001900D922A95E1F70E94B6
:1053E000A45B0E94E14264EB7FE087EF96E00E94BD
:1053F00016438091AE0F833118F083E18093AE0F96
:10540000E2960FB6F894DEBF0FBECDBFDF91CF910D
:105410001F910F910895813019F08230E1F00895C5
:10542000E0919D0FF0919E0FF093E410E093E31054
:1054300080810E94C70F81E00E94F7428091F410A2
:105440009091F5100E94CD091092A90F10925B0D5A
:105450000C94600208950C94B11D08950F931F934E
:10546000CF93DF93CDB7DEB764970FB6F894DEBF66
:105470000FBECDBF813021F0823009F472C07AC0F6
:10548000E091E310F091E410A381B48181819281D5
:1054900012969C938E931197E091E310F091E41093
:1054A000A181B2818381948114969C938E931397EA
:1054B00080814AE08E010F5F1F4FB80190E00E948B
:1054C000A562D8010D900020E9F7119785E0E3ED82
:1054D000F4E001900D928A95E1F7C8010E947B509B
:1054E000E091E310F091E4108091270D9091280D48
:1054F000E817F90759F4838194819093280D8093DC
:10550000270D9093E4108093E3101AC08091940EBD
:105510009091950EE817F90769F481819281909333
:10552000950E8093940E818192819093E4108093E4
:10553000E31006C0838194819093E4108093E3107C
:10554000E091E310F091E41080810E94C70F81E0A8
:105550000E94F7428091F4109091F5100E94CD09BD
:1055600009C081E00E94F7428091F4109091F510FB
:105570000E94CD0964960FB6F894DEBF0FBECDBF72
:10558000DF91CF911F910F910895813019F08230F2
:1055900029F0089587E00C94F74208958BE00C946D
:1055A000F74208954F925F926F927F928F929F92EF
:1055B000AF92BF92CF92DF92EF92FF920F931F9321
:1055C000CF93DF93CDB7DEB728970FB6F894DEBF41
:1055D0000FBECDBF813019F0823029F0FFC087E0C7
:1055E0000E94F742FBC040E050E0BA0180E00E9418
:1055F00003572091500D3091510DF901EF5BFF4F92
:1056000060817181828193813497208131814281CF
:1056100053810E94345E6D837E838F83988780914F
:10562000F2109091F31090933C0D80933B0D80E02D
:105630000E94095769837A838B839C838091500DE4
:105640009091510DFC01FD964080518062807380E5
:10565000389680809180A280B380E0913B0DF091DC
:105660003C0D658170E080E090E00E94805DA301C8
:1056700092010E94345EA50194010E94345E9B0158
:10568000AC016D817E818F8198850E947C5C5B017D
:105690006C018CE00E94F74281E097E00E948E5BF3
:1056A0008090500D9090510D69817A818B819C8101
:1056B0000E94805D20E030E04AE754E40E94E55C0F
:1056C0007B018C0120E030E048E454E460E070E0CD
:1056D00086E194E40E9440518BE097E00E948E5B4B
:1056E0008091500D9091510D0E94120885E197E034
:1056F0000E948E5B8091F01081111DC0E0913B0DE6
:10570000F0913C0D85810E94970780ED97E09A8388
:1057100089830E94484181110E94D1418FE99FE015
:105720000197F1F700C0000089819A8101979A835F
:105730008983892B71F7E0913B0DF0913C0D8581B8
:105740000E94CA07E0913B0DF0913C0D8385948542
:1057500090933C0D80933B0D2091F2103091F3100B
:105760008217930709F063CF80E00E940957809069
:10577000500D9090510D0E94805D20E030E04AE78E
:1057800054E40E94E55CA12CB12C65017B018C01E5
:1057900020E030E048E454E460E070E086E194E426
:1057A0000E9440518091500D9091510D0E9412081D
:1057B0001092F01081E00E94F742E091940EF09177
:1057C000950EF093E410E093E31080810E94C70FE0
:1057D0008091F4109091F5100E94CD0928960FB693
:1057E000F894DEBF0FBECDBFDF91CF911F910F9117
:1057F000FF90EF90DF90CF90BF90AF909F908F90F1
:105800007F906F905F904F900895813031F487E0E2
:105810000E94F74281E08093F0100895813019F4DE
:1058200087E00C94F7420895813031F48091F410B0
:105830009091F5100C94CD090895823041F0833099
:1058400051F0813089F483E00C94DD0D089585E0FA
:105850000C94DD0D089581E00E94F7428091F410D0
:105860009091F5100C94CD09089590E0FC013197CA
:10587000EE30F10508F095C08827EE51FF4F8F4FAD
:105880000C94C4601092C90F80E00E94070368E284
:1058900075E084E10C94911808951092C90F81E08D
:1058A0000E94070368E275E084E10C949118089562
:1058B0001092C90F82E00E94070368E275E084E15C
:1058C0000C94911808951092C90F83E00E94070369
:1058D00068E275E084E10C94911808951092C90F64
:1058E00084E00E94070368E275E084E10C9491185B
:1058F00008951092C90F85E00E94070368E275E0E1
:1059000084E10C94911808951092C90F86E00E94CA
:10591000070368E275E084E10C94911808951092F1
:10592000C90F87E00E94070368E275E084E10C94E8
:10593000911808951092C90F88E00E94070368E249
:1059400075E084E10C94911808951092C90F89E0D4
:105950000E94070368E275E084E10C9491180895B1
:105960001092C90F8AE00E94070368E275E084E1A3
:105970000C94911808951092C90F8BE00E940703B0
:1059800068E275E084E10C94911808950C940B1270
:10599000089581E08093C90F68E275E084E10C947A
:1059A0009118089590E0FC013197EB30F10508F073
:1059B0008BC08827E051FF4F8F4F0C94C4608091BB
:1059C000C90F811103C061E00E94F2188091C90FD4
:1059D000813009F079C061E080E00C94591A089593
:1059E0008091C90F811105C061E081E00C94F2182B
:1059F000089510925B0D61E081E00C94591A0895AE
:105A00008091C90F811105C061E082E00C94F21809
:105A1000089510925B0D61E082E00C94591A08958C
:105A20008091C90F811105C061E083E00C94F218E8
:105A3000089510925B0D61E083E00C94591A08956B
:105A40008091C90F811105C061E084E00C94F218C7
:105A5000089510925B0D61E084E00C94591A08954A
:105A60008091C90F811105C061E085E00C94F218A6
:105A7000089510925B0D61E085E00C94591A089529
:105A800080E00C946518089580E00C94F517089553
:105A900085E10C94F742089560E086E00C94F218DA
:105AA00008951092A90F10925B0D83E10E94F742B6
:105AB0000E944B0F8091C90F811103C00C94030207
:105AC000089580E00C94030208956F927F928F9264
:105AD0009F92AF92BF92CF92DF92EF92FF920F937D
