:1000000071C000008FC000008DC000008BC00000D8
:1000100089C0000087C0000085C0000083C00000C8
:1000200081C000007FC000007DC000007BC00000D8
:1000300079C0000077C0000075C0000073C00000E8
:1000400071C000006FC000006DC000006BC00000F8
:1000500069C0000067C0000065C0000063C0000008
:1000600061C00000F3C60000B4C600005BC0000021
:1000700059C0000057C0000055C0000053C0000028
:1000800051C000004FC000004DC000004BC0000038
:1000900049C0000047C0000045C0000043C0000048
:1000A00041C000003FC000003DC000003BC0000058
:1000B00039C0000037C0000035C0000033C0000068
:1000C00031C000002FC000002DC000002BC0000078
:1000D00029C0000027C0000025C0000023C0000088
:1000E00021C0000011241FBECFEFD1E2DEBFCDBF83
:1000F00000E00CBF12E0A0E0B2E0E6EBF1E100E0CE
:100100000BBF02C007900D92AA36B107D9F721E1C3
:10011000AAE6B2E001C01D92AF37B207E1F732D7CD
:100120000C94D9086DCF2F923F924F925F926F92AD
:100130007F928F929F92AF92BF92CF92DF92EF9277
:10014000FF920F931F93CF93DF93CDB7DEB72B971B
:100150000FB6F894DEBF0FBECDBF29833A834B8321
:10016000952E562E472E382E292E1F830E83A0E063
:10017000E1D764F498D729833A834B83952E562E82
:10018000472E382E292E81E08A8701C01A86AE813B
:10019000BF81B987A887BD83AC83612C712C4B8646
:1001A000422C252C532C392C01C034014301BFEFC4
:1001B0008B1A9B0A0F2EFAE0AF2EF02DB12CC12C1A
:1001C000D12CE12CF12C00E010E029813A814B8107
:1001D000532D622D7B85852D942DDCD6205DEC8101
:1001E000FD812193FD83EC8329813A814B81532D3D
:1001F000622D7B85852D942DCFD629833A834B8321
:10020000352E262E7B87582E492EA0E093D709F055
:1002100064F69A85992349F0EE81FF81E80DF91D76
:100220008DE28083D30112964D019401992014F43C
:100230002F5F3F4F35952795121613069CF4EE81DC
:10024000FF81E80DF91D8E819F81280F391FA88538
:10025000B9858C9192919D93B987A8878083A217C5
:10026000B307A9F7EE81FF81E80DF91D10822B96E7
:100270000FB6F894DEBF0FBECDBFDF91CF911F91B7
:100280000F91FF90EF90DF90CF90BF90AF909F9035
:100290008F907F906F905F904F903F902F90089538
:1002A00087E084B988E4809301018BE080930A01A0
:1002B000EBE0F1E0808188608083109271041092FD
:1002C0007204109273041092740408951F93CF93D4
:1002D000DF93D0E0C0E011E01CC089E79AE06ED067
:1002E0008D3061F4E0916F02F0E0E158FF4E108232
:1002F000C0936F02C0936E02D12F0BC090916F021A
:10030000E92FF0E0E158FF4E80839F5F90936F02EA
:10031000DC2F89E79AE046D08111DFCF8D2FDF9166
:10032000CF911F91089580E092E041D580917F1098
:10033000803371F440E050E0BA0180E00DD31092B8
:100340007104109272041092730410927404089550
:10035000409171045091720460917304709174041F
:100360004058594667467F4F40937104509372043A
:10037000609373047093740480E0EEC20895A6DF66
:100380008111D1CF0895FC01118210820895FC01E2
:1003900090818181981720F0981B892F809508956E
:1003A000891B0895FC0120819181291718F0822F63
:1003B000891B0895892F821B80950895CF93DF9321
:1003C000EC01F0DF882339F09981FE01E90FF11D7E
:1003D00082819F5F9983DF91CF9108950F931F933F
:1003E000CF93DF93EC01062F1881D1DF8823F1F33F
:1003F000011101C00FEFFE01E10FF11D02831F5F2C
:10040000188381E0DF91CF911F910F910895FF92A2
:100410000F931F93CF93DF934423C9F0C42FD72F9B
:10042000F62E8C01B4DF8C17F0F3F8019081EF2DDC
:10043000FD2FC90F2191D801A90FB11D12962C9340
:100440009F5F9C13F7CFF801C08381E001C080E07B
:10045000DF91CF911F910F91FF900895EBE0F1E0B4
:100460008081877F80830895EBE0F1E08081886060
:1004700080830895EBE0F1E080818D7F8083089593
:10048000EBE0F1E08081826080830895CF93DF9379
:10049000D82FC62FE3DFCD2311F0F2DF01C0EADF52
:1004A0008AE18A95F1F700C0DFDF8AE18A95F1F7EA
:1004B00000C0DF91CF910895CF93C82F60E8E6DFA9
:1004C00060E48C2FE3DF60E28C2FE0DF60E18C2FB3
:1004D000DDDF68E08C2FDADF64E08C2FD7DF62E0AD
:1004E0008C2FD4DF61E08C2FD1DFCF9108951F9343
:1004F000CF93DF93EC01162FB1DF8AE18A95F1F7F4
:1005000000C0B2DF8091090182FF0AC081E090E063
:1005100002C0880F991F1A95E2F79881892B88836A
:100520008AE18A95F1F700C0DF91CF911F9108957C
:10053000CF93DF931F92CDB7DEB71982EBE0F1E0E6
:1005400080818D7F808367E0CE010196D0DF66E0F9
:10055000CE010196CCDF65E0CE010196C8DF64E0F4
:10056000CE010196C4DF63E0CE010196C0DF62E0F8
:10057000CE010196BCDF61E0CE010196B8DF60E0FC
:10058000CE010196B4DF89810F90DF91CF9108955C
:100590008FE58CBD1DBC289AE2E0F1E0808180648B
:1005A00080830895662361F0FC019C01260F311DB4
:1005B00091919EBD0DB407FEFDCFE217F307C1F781
:1005C0000895882319F0813019F008952898089526
:1005D000E2E0F1E080818F7B80830895882319F029
:1005E000813019F00895289A0895E2E0F1E08081C1
:1005F000806480830895CF92DF92EF92FF920F93F1
:100600001F93CF93DF93CDB7DEB72B970FB6F89438
:10061000DEBF0FBECDBFFE01319676E0DF011D9239
:100620007A95E9F7606869835A834B833C832D830D
:10063000019709F046C0369685E0DF011D928A9544
:10064000E9F783E192E0B3D3FE0131966F0100E058
:1006500010E0D601FD906D01F11004C088E292E037
:10066000A6D31BC0BFE0BF1570F089E292E09FD314
:1006700040E1BE01695F7F4F8F2D90E067D5CE01CD
:10068000079695D30AC040E1BE01695F7F4F8F2D69
:1006900090E05CD5CE0107968AD3043011051CF496
:1006A0008BE292E084D30F5F1F4F0530110589F66E
:1006B000EFE3FCE93197F1F700C0000081E192E03F
:1006C00076D380E07EDF8E010F5F1F4F7E01F6E064
:1006D000EF0EF11CD8018D918D01EEDE0E151F0578
:1006E000C9F780E07BDF2B960FB6F894DEBF0FBE14
:1006F000CDBFDF91CF911F910F91FF90EF90DF90D1
:10070000CF9008957F928F929F92AF92BF92CF9297
:10071000DF92EF92FF920F931F93CF93DF93CDB7AA
:10072000DEB72B970FB6F894DEBF0FBECDBF7C01AE
:10073000FE01319686E0DF011D928A95E9F7162FBA
:100740001F77198380E03DDF812FB6DE8E010E5FBB
:100750001F4F6E01B6E0CB0ED11CEADEF80181938B
:100760008F01EC15FD05C9F780E038DF0C8110E042
:10077000102F00278D81082BEA94EF2809F04FC035
:100780008DE292E014D3CE0101964C01E12CF12CC4
:100790000F2EF5E07F2EF02D5E0197E0A90EB11C23
:1007A0000F2EF0E3CF2EF02DD501E72D1D92EA9507
:1007B000E9F7CF82D401DD904D01D11004C088E269
:1007C00092E0F5D215C0BFE0BD1558F089E292E085
:1007D000EED240E1B5018D2D90E0B8D4C501E7D24D
:1007E00007C040E1B5018D2D90E0B0D4C501DFD246
:1007F000E4E0EE16F1041CF48BE292E0D8D2FFEFB5
:10080000EF1AFF0A85E0E816F10471F6AFE3BCE9E0
:100810001197F1F700C0000081E192E0C8D2C80151
:100820002B960FB6F894DEBF0FBECDBFDF91CF91F0
:100830001F910F91FF90EF90DF90CF90BF90AF90FE
:100840009F908F907F9008955DCF089528E030E0CD
:1008500040E050E063E680E090E0CDDE20E030E074
:10086000A90169E280E090E0C6DE21E030E040E0EE
:1008700050E062E580E090E0BEDE20E030E0A901DB
:100880006CE180E090E0B7DE20ED37E040E050E042
:1008900064E280E090E0AFDE2FEF83ED90E3215043
:1008A00080409040E1F700C0000020E030E0A90166
:1008B00067E280E090E09FDE23E030E040E050E03F
:1008C00062E580E090E097DE29E030E040E050E033
:1008D00060E580E090E08FDE21E030E040E050E035
:1008E00063E680E090E087DE23E030E040E050E027
:1008F00062E580E090E07FDE29E030E040E050E01B
:1009000060E580E090E077DE21E030E040E050E01C
:1009100063E680E090E06FDE20E030E0A90164E66D
:1009200080E090E068CE08951F93CF93DF93162F59
:10093000C82FD0E063E6CE0187DF092E000CAA0B9A
:10094000BB0B88279C01AD01212B63E6CE0153DE52
:10095000DF91CF911F910895CF92DF92EF92FF9296
:10096000CF93C82F6A017B0163E0DEDFA701960108
:1009700068E68C2F90E03FDECF91FF90EF90DF9004
:10098000CF90089520E030E0A90167E180E090E099
:1009900032DE23E030E0A9016BE180E090E02BDE65
:1009A0002FE93FE040E050E068E180E090E023DEA6
:1009B00029E139E140E050E069E180E090E01BDEB0
:1009C00027E030E040E050E06AE180E090E013DEB4
:1009D0002FEF81EE94E0215080409040E1F700C07D
:1009E000000020E031E040E054E26AE080E090E086
:1009F00002DE20E130E0A90164E080E090E0FBDD70
:100A000020E030E040E050E265E080E090E0F3DD9F
:100A100020E030E0A90166E080E090E0ECDD2EE42B
:100A200031E0A90167E080E090E0E5DD24E332E811
:100A300040E05FEF69E080E090E0DDDD2AE039E84A
:100A400040E05FEF68E080E090E0D5DD2FEF81EEE1
:100A500094E0215080409040E1F700C0000020E089
:100A600030E140E050E065E280E090E0C4DD20E06D
:100A700030E240E050E066E280E090E0BCDD20E063
:100A800030E0A90167E280E090E0B5DD20E030E0F1
:100A9000A90169E280E090E0AEDD2FEF81EE94E005
:100AA000215080409040E1F700C000002FEF3FE769
:100AB00040E050E06CE580E090E09DDD21E83AE523
:100AC00040E050E06DE580E090E095DD28EE33E019
:100AD00040E050E06EE580E090E08DDD28EC30E015
:100AE00040E050E06FE580E090E085DD24EF31E00C
:100AF00040E050E060E680E090E07DDD21E030E025
:100B000040E050E861E680E090E075DD2FEF3FEFD8
:100B10004FEF5FE762E680E090E06DDD2FEF81EE62
:100B200094E0215080409040E1F700C0000028EEA2
:100B300033E044E650E066E580E090E05CDD28EEDE
:100B400033E044E650E064E580E090E054DD24E6E4
:100B500030E04CED55E068E580E090E04CDD20E0D1
:100B600030E044EF51E06AE580E090E044DD2FEFB3
:100B700081EE94E0215080409040E1F700C00000F9
:100B800065DE23E030E040E050E062E580E090E0A8
:100B900032DD23E030E040E050E063E680E090E0CA
:100BA0002ADD20E030E0A9016BE680E090E023DD63
:100BB00040E050E0BA0180E0CFCE08956BE690E0CF
:100BC00043DEBC01990F880B990B0895CF92DF92F9
:100BD000EF92FF920F931F93CF93DF93CDB7DEB7C2
:100BE0002B970FB6F894DEBF0FBECDBFFE01319636
:100BF00096E0DF011D929A95E9F7606869835A8350
:100C00004B833C832D83813009F047C0369685E0C5
:100C1000DF011D928A95E9F785E592E0C8D0FE01D3
:100C200031967F0100E010E0D7018C91811104C062
:100C300088E292E0BCD01AC0803178F489E292E078
:100C4000B6D0F701808140E1BE01695F7F4F90E03F
:100C50007DD2CE010796ABD009C040E1BE01695FED
:100C60007F4F90E073D2CE010796A1D004301105DA
:100C70001CF48BE292E09BD00F5F1F4FFFEFEF1A47
:100C8000FF0A0530110581F68FE39CE90197F1F722
:100C900000C0000081E192E08AD081E092DC41E076
:100CA00065E0CE0101967EDC81E098DC2B960FB6E4
:100CB000F894DEBF0FBECDBFDF91CF911F910F9192
:100CC000FF90EF90DF90CF900895E2E0F1E0808117
:100CD000886080832FEF81EE94E021508040904027
:100CE000E1F700C000008081877F80832FEF81EED5
:100CF00094E0215080409040E1F700C000008081E6
:100D0000886080832FEF83ED90E3215080409040F6
:100D1000E1F700C0000020E030E0A90160E080E0E1
:100D200055DF20E030E0A90161E080E04FDF20E006
:100D300030E0A90166E080E049DF2FE030E040E0EC
:100D400050E068E080E042DF26E036E041E053E139
:100D500069E080E03BDF24E030E048E050E06AE01A
:100D600080E034CF0895000000000895CF93DF9312
:100D70001092C50080E18093C400C1ECD0E088E10E
:100D8000888386E08093C20080E792E0FCDA89E7FE
:100D90009AE0F9DA888180688883789483EB96E01A
:100DA00090937D1080937C10DF91CF910895FC018A
:100DB00001900020E9F73197AF01481B590BBC01A6
:100DC00080E792E024DBE1ECF0E0808180628083C8
:100DD00008951F920F920FB60F9211240BB60F9227
:100DE0002F933F934F935F936F937F938F939F9333
:100DF000AF93BF93EF93FF9380E792E0D3DA88231A
:100E000031F080E792E0DADA8093C6000CC0E1ECC2
:100E1000F0E080818F7D8083E0917C10F0917D10E7
:100E2000309709F01995FF91EF91BF91AF919F9184
:100E30008F917F916F915F914F913F912F910F9083
:100E40000BBE0F900FBE0F901F9018951F920F9220
:100E50000FB60F9211240BB60F922F933F934F931F
:100E60005F936F937F938F939F93AF93BF93EF9312
:100E7000FF936091C60089E79AE0B0DAFF91EF91A5
:100E8000BF91AF919F918F917F916F915F914F91A2
:100E90003F912F910F900BBE0F900FBE0F901F90A0
:100EA00018958F929F92AF92BF92EF92FF920F93FD
:100EB0001F93CF93DF93CDB7DEB7C456D1090FB6DA
:100EC000F894DEBF0FBECDBF80916A0290916B0295
:100ED000A0916C02B0916D020196A11DB11D80938D
:100EE0006A0290936B02A0936C02B0936D028FE93B
:100EF0009FE00197F1F700C0000080916A02909195
:100F00006B02A0916C02B0916D0284369105A1052F
:100F1000B10531F510926A0210926B0210926C02C8
:100F200010926D0281E04ADEFE0131967F0124E6D7
:100F300011922A95E9F74B015C01BB0C8808982CAB
:100F400054018701262F372F482F592F682D782DD0
:100F5000882D982DE8D8C7012ADF81E192E027DFAC
:100F6000CC59DF4F0FB6F894DEBF0FBECDBFDF9177
:100F7000CF911F910F91FF90EF90BF90AF909F90F6
:100F80008F9008958DD904DBF1DE9FDEFBDCF7D96D
:100F900088DFFDCF689401C0E894F92FF12B0AF0A7
:100FA00027C0A0E0B0E0E6EDF7E093C0092E05947D
:100FB0001AF479D0112392F4F0E80F26FFEFE094B1
:100FC000F09400951095B094C094D094A194BF0A69
:100FD000CF0ADF0AEF0AFF0A0F0B1F0B13D007FC23
:100FE00062D0CDB7DEB7ECE090C0689401C0E89461
:100FF0008F929F92CF93DF9305D0DF91CF919F90F7
:101000008F90089588249924F401E401B0E49F931B
:10101000AA279A158B049C04ED05FE05CF05D00781
:10102000A10798F4AD2FDC2FCF2FFE2FE92D982CA0
:10103000892E982F872F762F652F542F432F322FED
:101040002227B85031F7BF9127C01B2EBF91BB2775
:10105000220F331F441F551F661F771F881F991FBC
:10106000881C991CEE1FFF1FCC1FDD1FAA1FBB1F72
:101070008A149B04EC05FD05CE05DF05A007B1072A
:1010800048F08A189B08EC09FD09CE09DF09A00B7E
:10109000B10B21601A94E1F62EF49401AF01BE0168
:1010A000CD01000C089560957095809590953095D0
:1010B0004095509521953F4F4F4F5F4F6F4F7F4F5A
:1010C0008F4F9F4F08952F923F924F925F926F9252
:1010D0007F928F929F92AF92BF92CF92DF92EF92C8
:1010E000FF920F931F93CF93DF93CDB7DEB7CA1B49
:1010F000DB0B0FB6F894DEBF0FBECDBF19942A8864
:10110000398848885F846E847D848C849B84AA841B
:10111000B984C884DF80EE80FD800C811B81AA81A8
:10112000B981CE0FD11D0FB6F894DEBF0FBECDBF73
:10113000ED0108950024A7FD00942A17300540050D
:10114000500560057005800590050895BB274A305D
:1011500031F4992322F4BDE2909581959F4F01C00F
:10116000BB27FB015527AA27880F991FAA1FA41781
:1011700010F0A41B83955051B9F7A05DAA3308F075
:10118000A95DA193009779F7B111B1931192CB01A9
:1011900000C0DC01FC01672F71917723E1F73297E2
:1011A00004C07C916D9370836291AE17BF07C8F342
:0611B0000895F894FFCF42
:1011B60050726F63656564205541525420303A2061
:1011C6000A0D00577269746520544D433436373121
:1011D60020646174613A20003030002C0052656151
:1011E6006420544D433436373120646174613A20AB
:1011F600005265616420544D4336323030206461BC
:1012060074613A2000577269746520544D43363232
:0A121600303020646174613A20005A
:00000001FF
