S00D00004D6F746F722E7372656306
S113000071C0000090C000008EC000008CC00000D1
S11300108AC0000088C0000086C0000084C00000C0
S113002082C0000080C000007EC000007CC00000D0
S11300307AC0000078C0000076C0000074C00000E0
S113004072C0000070C000006EC000006CC00000F0
S11300506AC0000068C0000066C0000064C0000000
S113006062C000000C94460B0C94070B5CC00000AB
S11300705AC0000058C0000056C0000054C0000020
S113008052C0000050C000004EC000004CC0000030
S11300904AC0000048C0000046C0000044C0000040
S11300A042C0000040C000003EC000003CC0000050
S11300B03AC0000038C0000036C0000034C0000060
S11300C032C0000030C000002EC000002CC0000070
S11300D02AC0000028C0000026C0000024C0000080
S11300E022C0000011241FBECFEFD1E2DEBFCDBF7E
S11300F000E00CBF12E0A0E0B2E0EEE3FEE100E0BD
S11301000BBF02C007900D92A839B107D9F721E1BE
S1130110A8E9B2E001C01D92AB3AB207E1F70E9430
S1130120720B0C941D0F6CCF87E084B988E4809324
S113013001018BE080930A01EBE0F1E080818860AB
S1130140808310929C0410929D0410929E0410923D
S11301509F0408951F93CF93DF93D0E0C0E011E094
S11301601CC084EA9AE039D28D3061F4E0919A029D
S1130170F0E0E555FF4E1082C0939A02C0939902B5
S1130180D12F0BC090919A02E92FF0E0E555FF4E74
S113019080839F5F90939A02DC2F84EA9AE011D2C5
S11301A08111DFCF8D2FDF91CF911F9108952F9271
S11301B03F924F925F926F927F928F929F92AF92F3
S11301C0BF92CF92DF92EF92FF920F931F93CF9340
S11301D0DF93CDB7DEB72B970FB6F894DEBF0FBE13
S11301E0CDBF29833A834B83952E562E472E382E26
S11301F0292E1F830E83A0E00E94DE0E6CF40E9461
S1130200970E29833A834B83952E562E472E382EEC
S1130210292E81E08A8701C01A86AE81BF81B98701
S1130220A887BD83AC83612C712C4B86422C252C72
S1130230532C392C01C034014301BFEF8B1A9B0AA4
S11302400F2EFAE0AF2EF02DB12CC12CD12CE12CC5
S1130250F12C00E010E029813A814B81532D622D6D
S11302607B85852D942D0E940E0E205DEC81FD81F1
S11302702193FD83EC8329813A814B81532D622D97
S11302807B85852D942D0E94100E29833A834B8300
S1130290352E262E7B87582E492EA0E00E94DE0E96
S11302A009F04CF69A85992349F0EE81FF81E80D17
S11302B0F91D8DE28083D30112964D01940199209A
S11302C014F42F5F3F4F35952795121613069CF4AF
S11302D0EE81FF81E80DF91D8E819F81280F391F62
S11302E0A885B9858C9192919D93B987A8878083BD
S11302F0A217B307A9F7EE81FF81E80DF91D10825B
S11303002B960FB6F894DEBF0FBECDBFDF91CF9111
S11303101F910F91FF90EF90DF90CF90BF90AF901F
S11303209F908F907F906F905F904F903F902F9011
S113033008958F929F92AF92BF92EF92FF920F9384
S11303401F93CF93DF93CDB7DEB7C456D1090FB651
S1130350F894DEBF0FBECDBF809198028A3029F594
S11303601092980280E00E94FD099E012F5F3F4F8A
S1130370790124E6F70111922A95E9F74B015C0112
S1130380BB0C8808982C54018701262F372F482F3F
S1130390592F682D782D882D982D09DFC7010E94CB
S11303A0F50A81E192E00E94F50A809198028F5F3C
S11303B0809398028FE99FE00197F1F700C0000055
S11303C0CC59DF4F0FB6F894DEBF0FBECDBFDF911F
S11303D0CF911F910F91FF90EF90BF90AF909F909E
S11303E08F9008952F923F924F925F926F927F92D7
S11303F08F929F92AF92BF92CF92DF92EF92FF9231
S11304000F931F93CF93DF9300D01F921F92CDB70A
S1130410DEB780E092E00E94F50A8091AB10803351
S113042071F440E050E0BA0180E0B5D610929C042B
S113043010929D0410929E0410929F0497C08133E1
S113044009F06EC00F2EF0E44F2EF2E45F2EFFE0B1
S11304506F2E712CF02D01E010E0CE0101961C01ED
S1130460B301A20180E097D67301620198ECC91A26
S1130470D108E108F10853014201E8EC8E0E911C09
S1130480A11CB11C01C055DF80E0B7D7C616D70642
S1130490E806F906C0F780E0B0D7681579058A0543
S11304A09B0588F783E192E00E94F50AF10125E0BB
S11304B011922A95E9F74AE0B101C8010E94EA0EB7
S11304C0C1010E94F50A8DE192E00E94F50A8FEFC6
S11304D093EDE0E381509040E040E1F700C000007C
S11304E00F5F1F4FF0E44F0EF2E45F1EFFE06F1E3C
S11304F0711C0D30110509F0B3CF40E050E0BA0192
S113050080E049D601C015DF80E077D7683C7105EB
S113051081059105C4F788E292E00E94F50A26C09D
S1130520823369F481E090E0A0E0B0E080939C0421
S113053090939D04A0939E04B0939F0417C08111CF
S113054015C040919C0450919D0460919E0470914B
S11305509F044058594667467F4F40939C045093EC
S11305609D0460939E0470939F0415D60F900F9082
S11305700F900F900F90DF91CF911F910F91FF90EB
S1130580EF90DF90CF90BF90AF909F908F907F902F
S11305906F905F904F903F902F900895DBDD811115
S11305A021CF0895FC01118210820895FC019081ED
S11305B08181981720F0981B892F80950895891BB5
S11305C00895FC0120819181291718F0822F891B3D
S11305D00895892F821B80950895CF93DF93EC01B2
S11305E0F0DF882339F09981FE01E90FF11D828142
S11305F09F5F9983DF91CF9108950F931F93CF93BA
S1130600DF93EC01062F1881D1DF8823F1F3011168
S113061001C00FEFFE01E10FF11D02831F5F18837C
S113062081E0DF91CF911F910F910895FF920F9375
S11306301F93CF93DF934423C9F0C42FD72FF62EF3
S11306408C01B4DF8C17F0F3F8019081EF2DFD2FAE
S1130650C90F2191D801A90FB11D12962C939F5F48
S11306609C13F7CFF801C08381E001C080E0DF91E3
S1130670CF911F910F91FF900895FC011082118278
S113068012821382148215821682178210861186B2
S1130690128613861486158616861786108A158A7E
S11306A0168A178A108E118E128E138E148E158E42
S11306B0168E178E10A211A212A213A214A215A2B2
S11306C016A217A210A611A612A613A614A615A662
S11306D016A617A610AA11AA12AA13AA14AA11AE32
S11306E012AE13AE14AE15AA16AA17AA10AE089528
S11306F0FC01108211821282138214828FE692E12D
S1130700A3E8BAE385839683A783B087118612860C
S113071013861486158616861786108A158A168AF5
S1130720178A108E118E128E138E148E11A612A695
S113073013A614A615A616A617A610AA11AA12AADD
S113074013AA14AA80E090E0AAEFB3E481AF92AFB9
S1130750A3AFB4AF85AB96ABA7ABB0AF158E168E77
S1130760178E10A211A212A213A214A215A216A2ED
S113077017A210A60895CF92DF92EF92FF920F93E3
S11307801F93F60161A772A783A794A725A736A78D
S113079047A750ABE1AAF2AA03AB14AB81E0808374
S11307A01F910F91FF90EF90DF90CF900895CF931A
S11307B0DF93EC012D813E814F81588569817A81D7
S11307C08B819C81FCD769837A838B839C83DF91A3
S11307D0CF9108954F925F926F927F928F929F92E2
S11307E0AF92BF92CF92DF92EF92FF92CF93DF93BB
S11307F0CDB7DEB72A970FB6F894DEBF0FBECDBFD4
S1130800DC012C91213009F038C29A8789878091C4
S1130810AA10813009F4ADC038F0823009F431C136
S1130820833009F4A4C129C2E985FA85C5A8D6A8EC
S1130830E7A8F0ACA701960165A576A587A590A9C0
S11308400E94500D181644F4A985BA859D96CD9240
S1130850DD92ED92FC92D097E985FA85C1ACD2ACD9
S1130860E3ACF4ACA701960161A572A583A594A598
S11308700E94500D181644F4A985BA859996CD9214
S1130880DD92ED92FC929C97E985FA8541A452A4ED
S113089063A474A485A496A4A7A4B0A8A3019201F8
S11308A0C501B401F4D76B017C01A985BA851996F9
S11308B06D937D938D939C931C97D1968D919D916F
S11308C00D90BC91A02D89839A83AB83BC83A7012F
S11308D09601C501B4010E94540D9B01AC016981CC
S11308E07A818B819C81CFD78823C4F4E985FA85EA
S11308F0158616861786108AA301920169817A816A
S11309008B819C81C4D70E94BB0DA985BA85199699
S11309106D937D938D939C931C971AC0A7019601A8
S1130920C301B2010E94540DA70196010E94540D07
S11309309B01AC0169817A818B819C813FD7A501A0
S11309409401A5D7E985FA85658776878787908B93
S1130950A985BA8555961D921D921D921C92589791
S1130960FD01118E128E138E148E81E08093AA10D5
S113097084C1A985BA851196CD90DD90ED90FC9047
S1130980149799964D905D906D907C909C97599694
S11309908D909D90AD90BC905C97A3019201C7018E
S11309A0B6010E94540D69837A838B839C83A501CD
S11309B09401C701B6010E94540DE985FA85258981
S11309C036894789508DFBD66D837E838F839887C4
S11309D029813A814B815C81C701B6010E94540D83
S11309E020E030E040E05FE30E94540D9B01AC0145
S11309F06D817E818F819885E2D6A985BA85959689
S1130A006D937D938D939C93989729813A814B8123
S1130A105C81C501B401D3D6E985FA8561A372A3CB
S1130A2083A394A3458E568E678E70A2CF01BFDE3A
S1130A30E985FA85218532854385548561817281F2
S1130A40838194810E94500D88230CF416C182E0A6
S1130A508093AA10E985FA8585A196A1A7A1B0A5DE
S1130A60858B968BA78BB08F81A192A1A3A1B4A1F2
S1130A70818F928FA38FB48F11821282138214827A
S1130A80FCC0E985FA85C180D280E380F480418C82
S1130A90528C638C748C20E030E0A901C701B6014C
S1130AA00E94540D4B015C01A3019201C701B601E0
S1130AB0FBD7A985BA8555962D913D914D915C91B1
S1130AC058977DD669837A838B839C83A50194018F
S1130AD0C701B601E9D720E030E040E05FE3E4D7A6
S1130AE09B01AC0169817A818B819C8168D6E985FF
S1130AF0FA8565A376A387A390A7A5019401C301F2
S1130B00B2015DD6A985BA8591966D937D938D9337
S1130B109C939497CD014BDEE985FA85258536852E
S1130B20478550896181728183819481B9D78823F3
S1130B300CF4A3C083E08093AA10A985BA8511960A
S1130B401D921D921D921C921497FD0185A196A1E0
S1130B50A7A1B0A5858B968BA78BB08F81A192A1FD
S1130B60A3A1B4A1818F928FA38FB48F86C0A985CE
S1130B70BA851196CD90DD90ED90FC9014979996DE
S1130B808D919D910D90BC91A02D2C013D0177FA82
S1130B90709477F87094E985FA85818C928CA38C93
S1130BA0B48CA3019201C701B6017ED769837A830D
S1130BB08B839C83A5019401C701B60175D7A985D0
S1130BC0BA8555962D913D914D915C915897F7D5E5
S1130BD06D837E838F83988729813A814B815C81E1
S1130BE0C701B60161D720E030E040E05FE35CD7A5
S1130BF09B01AC016D817E818F819885E0D5E9856B
S1130C00FA8565A376A387A390A729813A814B81AE
S1130C105C81C501B401D3D5A985BA8591966D933C
S1130C207D938D939C939497FD01458E568E678E8C
S1130C3070A2CD01BCDDA985BA8519962D913D918F
S1130C404D915C911C9711966D917D918D919C9124
S1130C50149726D788238CF01092AA10E985FA8578
S1130C601182128213821482108211A612A613A674
S1130C7014A615A616A617A610AA2A960FB6F894B7
S1130C80DEBF0FBECDBFDF91CF91FF90EF90DF901D
S1130C90CF90BF90AF909F908F907F906F905F9018
S1130CA04F900895EBE0F1E08081877F8083089581
S1130CB0EBE0F1E08081886080830895EBE0F1E06F
S1130CC080818D7F80830895EBE0F1E080818260F4
S1130CD080830895CF93DF93D82FC62FE3DFCD23EE
S1130CE011F0F2DF01C0EADF8AE18A95F1F700C072
S1130CF0DFDF8AE18A95F1F700C0DF91CF91089593
S1130D00CF93C82F60E8E6DF60E48C2FE3DF60E276
S1130D108C2FE0DF60E18C2FDDDF68E08C2FDADFE1
S1130D2064E08C2FD7DF62E08C2FD4DF61E08C2F5E
S1130D30D1DFCF9108951F93CF93DF93EC01162F4A
S1130D40B1DF8AE18A95F1F700C0B2DF8091090131
S1130D5082FF0AC081E090E002C0880F991F1A95B3
S1130D60E2F79881892B88838AE18A95F1F700C09C
S1130D70DF91CF911F910895CF93DF931F92CDB749
S1130D80DEB71982EBE0F1E080818D7F808367E03C
S1130D90CE010196D0DF66E0CE010196CCDF65E09E
S1130DA0CE010196C8DF64E0CE010196C4DF63E0A2
S1130DB0CE010196C0DF62E0CE010196BCDF61E0A6
S1130DC0CE010196B8DF60E0CE010196B4DF8981DF
S1130DD00F90DF91CF9108958FE58CBD1DBC289AAB
S1130DE0E2E0F1E08081806480830895662361F00D
S1130DF0FC019C01260F311D91919EBD0DB407FE8F
S1130E00FDCFE217F307C1F70895882319F0813065
S1130E1019F0089528980895E2E0F1E080818F7B2D
S1130E2080830895882319F0813019F00895289A51
S1130E300895E2E0F1E08081806480830895CF9298
S1130E40DF92EF92FF920F931F93CF93DF93CDB76F
S1130E50DEB72B970FB6F894DEBF0FBECDBFFE01F1
S1130E60319676E0DF011D927A95E9F7606869832F
S1130E705A834B833C832D83019709F046C03696F1
S1130E8085E0DF011D928A95E9F780E492E0ADD315
S1130E90FE0131966F0100E010E0D601FD906D0176
S1130EA0F11004C085E592E0A0D31BC0BFE0BF15DC
S1130EB070F086E592E099D340E1BE01695F7F4F0F
S1130EC08F2D90E087D7CE0107968FD30AC040E1DB
S1130ED0BE01695F7F4F8F2D90E07CD7CE010796CE
S1130EE084D3043011051CF488E592E07ED30F5FAF
S1130EF01F4F0530110589F6EFE3FCE93197F1F74F
S1130F0000C0000081E192E070D380E07EDF8E01BA
S1130F100F5F1F4F7E01F6E0EF0EF11CD8018D919B
S1130F208D01EEDE0E151F05C9F780E07BDF2B96E1
S1130F300FB6F894DEBF0FBECDBFDF91CF911F91E6
S1130F400F91FF90EF90DF90CF90089578CF0895A0
S1130F505F926F927F928F929F92AF92BF92CF9245
S1130F60DF92EF92FF920F931F93CF93DF93CDB74E
S1130F70DEB72B970FB6F894DEBF0FBECDBF8C0142
S1130F80FE01319686E0DF011D928A95E9F76F77BD
S1130F90F62E698380E039DF8F2DB2DE7E01B2E068
S1130FA0EB0EF11C6E01E6E0CE0ED11CE5DED7019E
S1130FB08D937D01AC15BD05C9F780E033DF8A80D0
S1130FC0912CA12CB12CBA2CA92C982C88248B817F
S1130FD0882ABA2CA92C982C88248C81882ABA2C8B
S1130FE0A92C982C88248D81882A0130110509F0B8
S1130FF04CC08AE592E0F9D2FE0131966F0100E01F
S113100010E00F2EF5E05F2EF02D7E01F7E0EF0EDD
S1131010F11C0F2EF0E36F2EF02DD701E52D1D925C
S1131020EA95E9F76F82D6017D906D01711004C0D5
S113103085E592E0DAD215C0BFE0B71558F086E531
S113104092E0D3D240E1B701872D90E0C3D6C70127
S1131050CCD207C040E1B701872D90E0BBD6C701D1
S1131060C4D2043011051CF488E592E0BED20F5FAF
S11310701F4F0530110589F6EFE3FCE93197F1F7CD
S113108000C0000081E192E0B0D2C501B4012B960A
S11310900FB6F894DEBF0FBECDBFDF91CF911F9185
S11310A00F91FF90EF90DF90CF90BF90AF909F9003
S11310B08F907F906F905F9008954ACF089528E0B5
S11310C030E040E050E063E680E090E0B8DE20E00D
S11310D030E0A90169E280E090E0B1DE21E030E097
S11310E040E050E062E580E090E0A9DE20E030E0FE
S11310F0A9016CE180E090E0A2DE20ED37E040E061
S113110050E064E280E090E09ADE2FEF83ED90E31C
S1131110215080409040E1F700C0000020E030E022
S1131120A90167E280E090E08ADE23E030E040E05D
S113113050E062E580E090E082DE29E030E040E0CB
S113114050E060E580E090E07ADE21E030E040E0CD
S113115050E063E680E090E072DE20E030E0A90138
S113116064E680E090E06BCE08951F93CF93DF9305
S1131170162FC82FD0E063E6CE019FDFDC01CB0140
S113118088279C01AD01212B63E6CE0158DEDF9157
S1131190CF911F910895CF92DF92EF92FF92CF9358
S11311A0C82F6A017B0163E0E0DFA701960168E6CE
S11311B08C2F90E044DECF91FF90EF90DF90CF90A2
S11311C0089520E030E0A90167E180E090E037DE97
S11311D023E030E0A9016BE180E090E030DE2FE90C
S11311E03FE040E050E068E180E090E028DE29E163
S11311F039E140E050E069E180E090E020DE27E062
S113120030E040E050E06AE180E090E018DE2FEF4B
S113121081EE94E0215080409040E1F700C000004E
S113122020E031E040E054E26AE080E090E007DE54
S113123020E130E0A90164E080E090E000DE20E0FD
S113124030E040E050E265E080E090E0F8DD20E04E
S113125030E0A90166E080E090E0F1DD2EE431E0C9
S1131260A90167E080E090E0EADD23E730E840E0B0
S11312705FEF69E080E090E0E2DD2BE13EE840E0F2
S11312805FEF68E080E090E0DADD2FEF81EE94E03C
S1131290215080409040E1F700C000002AE030E196
S11312A040E050E065E280E090E0C9DD20E030E21B
S11312B040E050E066E280E090E0C1DD20E030E014
S11312C0A90167E280E090E0BADD20E030E0A90106
S11312D069E280E090E0B3DD2FEF81EE94E02150ED
S11312E080409040E1F700C000002FEF3FE740E06E
S11312F050E06CE580E090E0A2DD21E83AE540E0D2
S113130050E06DE580E090E09ADD24EC39E040E0C7
S113131050E06EE580E090E092DD28EC30E040E0C3
S113132050E06FE580E090E08ADD2CED35E040E0B0
S113133050E060E680E090E082DD21E030E040E0D3
S113134050E861E680E090E07ADD2FEF3FEF4FEF69
S11313505FE762E680E090E072DD2FEF81EE94E0DB
S1131360215080409040E1F700C0000020EE3EE2B2
S113137044E650E066E580E090E061DD20EE3EE288
S113138044E650E064E580E090E059DD24EF31E08C
S113139040ED57E068E580E090E051DD20E030E08A
S11313A048EC50E06AE580E090E049DD2FEF81EE03
S11313B094E0215080409040E1F700C000007FDEBF
S11313C023E030E040E050E062E580E090E037DD8B
S11313D023E030E040E050E063E680E090E02FDD81
S11313E020E030E0A9016BE680E090E028DD40E0F9
S11313F050E0BA0180E0CFCE08956BE690E05DCE78
S11314000895CF92DF92EF92FF920F931F93CF93A1
S1131410DF93CDB7DEB72B970FB6F894DEBF0FBEC0
S1131420CDBFFE01319696E0DF011D929A95E9F752
S1131430606869835A834B833C832D83813009F030
S113144047C0369685E0DF011D928A95E9F782E868
S113145092E0CBD0FE0131967F0100E010E0D7018D
S11314608C91811104C085E592E0BFD01AC080310F
S113147078F486E592E0B9D0F701808140E1BE01BD
S1131480695F7F4F90E0A6D4CE010796AED009C025
S113149040E1BE01695F7F4F90E09CD4CE01079686
S11314A0A4D0043011051CF488E592E09ED00F5FAF
S11314B01F4FFFEFEF1AFF0A0530110581F68FE386
S11314C09CE90197F1F700C0000081E192E08DD022
S11314D081E09BDC41E065E0CE01019687DC81E0A0
S11314E0A1DC2B960FB6F894DEBF0FBECDBFDF9103
S11314F0CF911F910F91FF90EF90DF90CF900895BF
S1131500E2E0F1E08081886080832FEF81EE94E057
S1131510215080409040E1F700C000008081877F27
S113152080832FEF81EE94E0215080409040E1F7DA
S113153000C000008081886080832FEF83ED90E3FA
S1131540215080409040E1F700C0000020E130E0ED
S113155040E050E060E080E054DF20E030E0A901AA
S113156061E080E04EDF20E030E0A90166E080E049
S113157048DF2FE030E040E050E068E080E041DF09
S113158026E036E041E053E169E080E03ADF24E020
S113159030E048E050E06AE080E033CF0895000096
S11315A000000895CF93DF931092C50080E18093EB
S11315B0C400C1ECD0E088E1888386E08093C20057
S11315C08BE992E00E94D20284EA9AE00E94D2025D
S11315D088818068888378948FEC9AE09093A8102F
S11315E08093A710DF91CF910895FC010190002012
S11315F0E9F73197AF01481B590BBC018BE992E025
S113160015D8E1ECF0E080818062808308951F9218
S11316100F920FB60F9211240BB60F922F933F9394
S11316204F935F936F937F938F939F93AF93BF93E6
S1131630EF93FF938BE992E00E94E102882339F053
S11316408BE992E00E94ED028093C6000CC0E1ECAD
S1131650F0E080818F7D8083E091A710F091A81045
S1131660309709F01995FF91EF91BF91AF919F9138
S11316708F917F916F915F914F913F912F910F9037
S11316800BBE0F900FBE0F901F9018951F920F92D4
S11316900FB60F9211240BB60F922F933F934F93D3
S11316A05F936F937F938F939F93AF93BF93EF93C6
S11316B0FF936091C60084EA9AE00E94FD02FF91C4
S11316C0EF91BF91AF919F918F917F916F915F91B6
S11316D04F913F912F910F900BBE0F900FBE0F9023
S11316E01F901895CF93DF93CDB7DEB7ED970FB664
S11316F0F894DEBF0FBECDBF0E9494006DDB52DFB5
S1131700FFDE5FDD10929C0410929D0410929E04F3
S113171010929F04CE0101960E943D03CE010196D2
S11317200E9478031092AA1080919C0490919D04C9
S1131730A0919E04B0919F040197A105B10539F5CC
S11317408981811127C020E030E0A9016BE680E0A7
S113175090E0FCDB40E050E0BA0180E01CDDCE010B
S113176001966C01E12C10E4F12E0CE915E420E063
S113177030E04AE754E4CA01B9010E94BB03109265
S11317809C0410929D0410929E0410929F048981DF
S1131790882389F0CE0101961DD820E030E04AE785
S11317A054E46EA17FA188A599A57ED1D8D0AB01C0
S11317B0BC0180E0F0DC0E94CE02B6CF5058BB27BB
S11317C0AA270ED033C124D130F029D120F031F42E
S11317D09F3F11F41EF419C10EF4E095E7FB0FC10D
S11317E0E92F35D180F3BA17620773078407950789
S11317F018F071F49EF54DC10EF4E0950B2EBA2F3E
S1131800A02D0B01B90190010C01CA01A001112402
S1131810FF27591B99F0593F50F4503E68F11A16AE
S1131820F040A22F232F342F4427585FF3CF46953F
S113183037952795A795F0405395C9F77EF41F1661
S1131840BA0B620B730B840BBAF09150A1F0FF0F2B
S1131850BB1F661F771F881FC2F70EC0BA0F621F17
S1131860731F841F48F4879577956795B795F79507
S11318709E3F08F0B3CF9395880F08F09927EE0F99
S113188097958795089597D008F481E008950CD032
S1131890CDC0C5D040F0BCD030F021F45F3F19F08A
S11318A0AEC05111F7C0B1C0D2D098F39923C9F397
S11318B05523B1F3951B550BBB27AA276217730752
S11318C0840738F09F5F5F4F220F331F441FAA1F06
S11318D0A9F333D00E2E3AF0E0E830D091505040C6
S11318E0E695001CCAF729D0FE2F27D0660F771F74
S11318F0881FBB1F261737074807AB07B0E809F056
S1131900BB0B802DBF01FF2793585F4F2AF09E3FEA
S1131910510568F074C0BEC05F3FECF3983EDCF341
S1131920869577956795B795F7959F5FC9F7880F63
S1131930911D9695879597F90895E1E0660F771FB5
S1131940881FBB1F621773078407BA0720F0621B46
S1131950730B840BBA0BEE1F88F7E09508957FD0C4
S113196088F09F5790F0B92F9927B751A0F0D1F084
S1131970660F771F881F991F1AF0BA95C9F712C00E
S1131980B13081F086D0B1E0089583C0672F782FFD
S11319908827B85F39F0B93FCCF38695779567957A
S11319A0B395D9F73EF490958095709561957F4FE6
S11319B08F4F9F4F0895990F0008550FAA0BE0E829
S11319C0FEEF16161706E807F907C0F012161306FD
S11319D0E407F50798F0621B730B840B950B39F43D
S11319E00A2661F0232B242B252B21F408950A26A3
S11319F009F4A140A6958FEF811D811D089597F9E3
S1131A009F6780E870E060E008959FEF80EC0895A0
S1131A1000240A94161617061806090608950024C9
S1131A200A9412161306140605060895092E039443
S1131A30000C11F4882352F0BB0F40F4BF2B11F4B7
S1131A4060FF04C06F5F7F4F8F4F9F4F089557FD16
S1131A509058440F551F59F05F3F71F04795880F18
S1131A6097FB991F61F09F3F79F0879508951216AF
S1131A7013061406551FF2CF4695F1DF08C016165B
S1131A8017061806991FF1CF86957105610508940C
S1131A900895E894BB2766277727CB0197F9089523
S1131AA08ADF08F48FEF08950BD0C0CFB1DF28F0A0
S1131AB0B6DF18F0952309F0A2CFA7CF1124EACFFF
S1131AC0C6DFA0F3959FD1F3950F50E0551F629F99
S1131AD0F001729FBB27F00DB11D639FAA27F00D83
S1131AE0B11DAA1F649F6627B00DA11D661F829FAA
S1131AF02227B00DA11D621F739FB00DA11D621F8F
S1131B00839FA00D611D221F749F3327A00D611DAB
S1131B10231F849F600D211D822F762F6A2F11248D
S1131B209F5750408AF0E1F088234AF0EE0FFF1FE0
S1131B30BB1F661F771F881F91505040A9F79E3F17
S1131B40510570F05CCFA6CF5F3FECF3983EDCF319
S1131B50869577956795B795F795E7959F5FC1F754
S1131B60FE2B880F911D9695879597F9089511F48A
S1131B700EF44BCF3EC073DFD0F39923D9F3CEF3E9
S1131B809F57550B87FF43D00024A0E640EA9001FD
S1131B9080585695979528F4805C660F771F881FA8
S1131BA020F026173707480730F4621B730B840BA9
S1131BB0202931294A2BA6951794079420253125ED
S1131BC04A2758F7660F771F881F20F02617370714
S1131BD0480730F4620B730B840B200D311D411D3B
S1131BE0A09581F7B901842F9158880F9695879510
S1131BF008959F3F31F0915020F48795779567952C
S1131C00B795880F911D9695879597F908959150EA
S1131C105040660F771F881FD2F70895689401C05B
S1131C20E894F92FF12B0AF027C0A0E0B0E0EAE134
S1131C30FEE093C0092E05941AF479D0112392F48E
S1131C40F0E80F26FFEFE094F09400951095B0941F
S1131C50C094D094A194BF0ACF0ADF0AEF0AFF0A06
S1131C600F0B1F0B13D007FC62D0CDB7DEB7ECE02F
S1131C7090C0689401C0E8948F929F92CF93DF93B1
S1131C8005D0DF91CF919F908F9008958824992457
S1131C90F401E401B0E49F93AA279A158B049C04F1
S1131CA0ED05FE05CF05D007A10798F4AD2FDC2F75
S1131CB0CF2FFE2FE92D982C892E982F872F762F42
S1131CC0652F542F432F322F2227B85031F7BF915D
S1131CD027C01B2EBF91BB27220F331F441F551F44
S1131CE0661F771F881F991F881C991CEE1FFF1FF2
S1131CF0CC1FDD1FAA1FBB1F8A149B04EC05FD0526
S1131D00CE05DF05A007B10748F08A189B08EC0947
S1131D10FD09CE09DF09A00BB10B21601A94E1F68D
S1131D202EF49401AF01BE01CD01000C089560951D
S1131D3070958095909530954095509521953F4F9D
S1131D404F4F5F4F6F4F7F4F8F4F9F4F08952F928D
S1131D503F924F925F926F927F928F929F92AF9237
S1131D60BF92CF92DF92EF92FF920F931F93CF9384
S1131D70DF93CDB7DEB7CA1BDB0B0FB6F894DEBF1B
S1131D800FBECDBF19942A88398848885F846E8431
S1131D907D848C849B84AA84B984C884DF80EE808B
S1131DA0FD800C811B81AA81B981CE0FD11D0FB694
S1131DB0F894DEBF0FBECDBFED0108950024A7FD4A
S1131DC000942A173005400550056005700580050C
S1131DD090050895BB274A3031F4992322F4BDE2DB
S1131DE0909581959F4F01C0BB27FB015527AA27DA
S1131DF0880F991FAA1FA41710F0A41B8395505194
S1131E00B9F7A05DAA3308F0A95DA193009779F70B
S1131E10B111B1931192CB0100C0DC01FC01672F19
S1131E2071917723E1F7329704C07C916D937083AD
S1111E306291AE17BF07C8F30895F894FFCF70
S1131E3E50726F63656564205541525420303A20C8
S1131E4E0A0D00506F736974696F6E2000206572FD
S1131E5E7265696368740D0041757367616E6773AB
S1131E6E70756E6B742065727265696368742E008A
S1131E7E577269746520544D43343637312064618A
S1131E8E74613A20003030002C0052656164205495
S1131E9E4D433436373120646174613A2000526503
S1131EAE616420544D433632303020646174613A9B
S1131EBE2000577269746520544D433632303020F9
S10B1ECE646174613A20000014
S9030000FC
