S01700004D696B726F636F6E74726F6C6C65722E73726563C7
S113000071C0000090C000008EC000008CC00000D1
S11300108AC0000088C0000086C0000084C00000C0
S113002082C0000080C000007EC000007CC00000D0
S11300307AC0000078C0000076C0000074C00000E0
S113004072C0000070C000006EC000006CC00000F0
S11300506AC0000068C0000066C0000064C0000000
S1130060CCC40000FBC60000BCC600005CC000009D
S11300705AC0000058C0000056C0000054C0000020
S113008052C0000050C000004EC000004CC0000030
S11300904DC700000EC7000046C0000044C0000069
S11300A042C0000040C000003EC000003CC0000050
S11300B03AC0000038C0000036C0000034C0000060
S11300C032C0000030C000002EC0000097C70000FE
S11300D058C7000028C00000F9C70000BAC70000D4
S11300E022C0000011241FBECFEFD1E2DEBFCDBF7E
S11300F000E00CBF13E0A0E0B2E0E6E7F7E100E0C7
S11301000BBF02C007900D92AE37B107D9F723E1B8
S1130110AEE7B3E001C01D92A23DB207E1F70E9431
S113012091080C94B90B6CCF65E180E092E038D66D
S1130130C1D441E066E172E082E292E0A6D041E0FF
S113014065E272E081E392E0A0D041E064E372E012
S113015080E492E09AD021E043E452E065E472E066
S113016088E492E05CD121E043E452E065E472E08B
S11301708AE492E054D10E944C09E0EAF0E08081E4
S113018080618083089565E18CE492E009D641E0C2
S113019062E672E083EB92E078D0E8D486EB92E0FA
S11301A04CD02FEF87EA91E6215080409040E1F750
S11301B000C0000088EB92E040D00E944C09E0EAC5
S11301C0F0E080818F7E808308958F3F19F4613B36
S11301D009F4AADF8091C90B873029F48091CA0BF6
S11301E0813009F4D0CF0895CF93DF9300D0CDB7F9
S11301F0DEB79FEF99839A839B83811105C063E0E7
S1130200CE010196CDD50DC0813029F463E0CE0135
S11302100196D1D506C0823021F463E0CE01019667
S1130220D5D58FE19EE40197F1F700C000000F904F
S11302300F900F90DF91CF910895CF93DF93EC014E
S113024065E08AEB92E0B7D5FE0101900020E9F762
S11302503197BF016C1B7D0BCE01ADD581E0C4DFAE
S113026065E08AEB92E09CD5FE0101900020E9F75D
S11302703197BF016C1B7D0BCE0192D562E083E107
S113028092E08ED5DF91CF910895CF93DF93EB0168
S1130290411122C0FC0101900020E9F73197BF0110
S11302A0681B790B7DD565E080EC92E079D561E03F
S11302B086EC92E075D5FE0101900020E9F73197B4
S11302C0BF016C1B7D0BCE016BD561E086EC92E027
S11302D067D580E089DF47C0413011F5FC0101900A
S11302E00020E9F73197BF01681B790B64D565E0FD
S11302F080EC92E060D561E086EC92E05CD5FE0192
S113030001900020E9F73197BF016C1B7D0BCE01F2
S113031052D561E086EC92E04ED581E065DF23C0E2
S1130320423009F5FC0101900020E9F73197BF0143
S1130330681B790B4BD565E080EC92E047D561E012
S113034086EC92E043D5FE0101900020E9F7319755
S1130350BF016C1B7D0BCE0139D561E086EC92E0C8
S113036035D582E041DFDF91CF910895CF93DF93BC
S1130370EB0141111AC0FC0101900020E9F731970B
S1130380BF01681B790B0CD565E088EC92E008D5B9
S1130390FE0101900020E9F73197BF016C1B7D0B32
S11303A0CE01FED480E020DF37C04130D1F4FC011F
S11303B001900020E9F73197BF01681B790BFBD44A
S11303C065E088EC92E0F7D4FE0101900020E9F7A3
S11303D03197BF016C1B7D0BCE01EDD481E004DFAE
S11303E01BC04230C9F4FC0101900020E9F73197A9
S11303F0BF01681B790BEAD465E088EC92E0E6D48F
S1130400FE0101900020E9F73197BF016C1B7D0BC1
S1130410CE01DCD482E0E8DEDF91CF910895EF9243
S1130420FF920F931F93CF93DF937C018B01EA011B
S113043021112DC064E08EEC92E0B2D4F70101905A
S11304400020E9F73197BF016E197F09C701A8D4CD
S113045061E083ED92E0A4D4F80101900020E9F773
S11304603197BF01601B710BC8019AD461E083ED21
S113047092E096D4FE0101900020E9F73197BF0184
S11304806C1B7D0BCE018CD480E0AEDE5DC02130D0
S113049069F564E08EEC92E08ED4F70101900020BF
S11304A0E9F73197BF016E197F09C70184D461E070
S11304B083ED92E080D4F80101900020E9F73197B0
S11304C0BF01601B710BC80176D461E083ED92E03B
S11304D072D4FE0101900020E9F73197BF016C1B33
S11304E07D0BCE0168D481E07FDE2EC0223061F521
S11304F064E08EEC92E06AD4F70101900020E9F701
S11305003197BF016E197F09C70160D461E083EDA3
S113051092E05CD4F80101900020E9F73197BF0123
S1130520601B710BC80152D461E083ED92E04ED49C
S1130530FE0101900020E9F73197BF016C1B7D0B90
S1130540CE0144D482E050DEDF91CF911F910F9110
S1130550FF90EF900895CF93C62F2898880F8E7739
S113056084D28C2F82D2289ACF9108952898880F0C
S11305708E7780687AD280E078D2289A08956FE0E6
S113058081E0E9CF0895FBDF6DE88AE2E4DF6EE302
S11305908BE2E1DF6EE18CE2DEDF60E08DE2DBDF47
S11305A060E485E1D8DF6DE381E1D5DF84E1DEDF5E
S11305B0982F937021F4682F636084E1CCCF089561
S11305C03F924F925F926F927F928F929F92AF92DF
S11305D0BF92CF92DF92EF92FF920F931F93CF932C
S11305E0DF93982EF62EE72E442E822E332E5801BA
S11305F08CE0981609F4BAC0EEE09E1203C010E134
S113060002E102C010E000E084E0B0DF682F6F7701
S113061084E0A1DF8AE0AADF682F60688AE09BDFBC
S113062060E081E098DF512C612C712C411451045D
S11306306104710419F414C010E307E7CF2DDE2D13
S1130640C12CD12C7601699189E085DFFFEFCF1AA7
S1130650DF0AEF0AFF0AC414D504E604F70498F38A
S1130660692D81E078DF8CE0981206C08DE07EDF92
S1130670682F60688DE06FDF84E078DFF82EC0E0DB
S1130680D0E0116009C084E071DFF82E2196CF3CE0
S1130690E7E0DE0709F483C0812F8F21A1F387C02F
S11306A00170F02211F0C2E001C0C1E0FCE09F1231
S11306B08AC08AE05BDF482E8CE058DF282F277041
S11306C0A9F0842D90E00197880F991F880F991F36
S11306D0880F991F820F911D092E000CAA0BBB0BCA
S11306E0F50180839183A283B38311C0842D90E0AC
S11306F0880F991F880F991F880F991F092E000CC6
S1130700AA0BBB0BF50180839183A283B38344209E
S113071071F0842D813108F080E1482E512C612C38
S1130720712C411451046104710429F44CC0412C0E
S1130730512C32014394082D132DC12CD12C760158
S113074089E014DFF80181938F01FFEFCF1ADF0AEC
S1130750EF0AFF0AC414D504E604F70488F333C08F
S11307606CE081E0F8DE10E307E780CF84E0FEDE92
S1130770682F6F7784E0EFDE8AE0F8DE682F606828
S11307808AE0E9DE60E081E0E6DE512C612C712C28
S1130790411451046104710409F04ECFE1CF8DE09E
S11307A0E5DE682F6F778DE0D6DEC3E00CC08DE008
S11307B0DDDE682F6F778DE0CEDE86E0D7DE8B71CD
S11307C009F46ECFC3E08C2FDF91CF911F910F916D
S11307D0FF90EF90DF90CF90BF90AF909F908F905D
S11307E07F906F905F904F903F900895EF92FF92AB
S11307F00F931F93CF93DF9300D01F92CDB7DEB733
S1130800182F7B0167E08DE0A6DEF70110838E01CF
S11308100F5F1F4F970141E0B7018CE0D1DE8130BB
S113082059F449815A816B817C81403151056105BC
S1130830710519F083E001C083E00F900F900F90D1
S11308400F90DF91CF911F910F91FF90EF9008953A
S1130850EF92FF920F931F93CF93DF9300D01F92D9
S1130860CDB7DEB77C0160E08DE075DE83E9F7018A
S1130870808380E281838E010F5F1F4F970142E0E6
S1130880B7018CE09DDE813071F4F701A7014C5F64
S11308905F4F90E0219192274E175F07D9F7F70138
S11308A02481921383E00F900F900F900F90DF91AB
S11308B0CF911F910F91FF90EF900895FC01118249
S11308C010820895FC0190818181981720F0981B73
S11308D0892F80950895891B0895FC0120819181B9
S11308E0291718F0822F891B0895892F821B809560
S11308F00895CF93DF93EC01F0DF882359F08981C9
S113090091E0980FFE01E80FF11D82819F3F09F4E9
S113091090E09983DF91CF9108950F931F93CF9324
S1130920DF93EC01162F0881CDDF8823F1F3111139
S113093001C01FEF81E0800FFE01E00FF11D128363
S11309408F3F09F480E0888381E0DF91CF911F918C
S11309500F910895FF920F931F93CF93DF93442336
S1130960D9F0C42FD72FF62E8C01ACDF8C17F0F3FF
S113097015C021E0290F3191D801A90FB11D12969C
S11309803C932F3F11F4982F01C0922F415088F7C8
S1130990F801908381E00AC080E008C0F8019081EA
S11309A04FEF4C0FEF2DFD2F80E0E3CFDF91CF9180
S11309B01F910F91FF90089500000000089581E5B4
S11309C08CBD1DBC8CEC9FE079DF89EC9CE076DF6C
S11309D078948CED94E090938703809386032D9A0A
S11309E0289A0895462F2D98BC018CEC9FE0B2DF25
S11309F08CEC9FE07EDF8EBD08951F920F920FB6A0
S1130A000F9211240BB60F922F933F934F935F9342
S1130A106F937F938F939F93AF93BF93EF93FF93C2
S1130A208CEC9FE05ADF882329F08CEC9FE061DF97
S1130A308EBD08C0E0918603F0918703309709F0DA
S1130A4019952D9AFF91EF91BF91AF919F918F913D
S1130A507F916F915F914F913F912F910F900BBEBA
S1130A600F900FBE0F901F9018958EBD0DB407FE0A
S1130A70FDCF8EB50895CF93DF9300D01F921F92C0
S1130A80CDB7DEB7606869835A834B833C832D837B
S1130A9085B18823E9F380EA8A95F1F765E0CE0110
S1130AA00196A0DF0F900F900F900F900F90DF91A1
S1130AB0CF91089523E030E0A9016BE180E090E05C
S1130AC0DADF20E030E0A90167E180E090E0D3DFE5
S1130AD02FE93FE040E050E068E180E090E0CBDFC8
S1130AE025E035E040E050E069E180E090E0C3DFDC
S1130AF027E030E040E050E06AE180E090E0BBDFD6
S1130B0020E031E040E058E16AE080E090E0B3DFCB
S1130B1020E130E0A90164E080E090E0ACDF20E077
S1130B2030E040E050E265E080E090E0A4DF20E0C7
S1130B3030E0A90166E080E090E09DDF2BE431E045
S1130B40A90167E080E090E096DF26E63CE540E01E
S1130B5051E069E080E090E08EDF22EF3BE540E089
S1130B6051E068E080E090E086CF08950F931F93F2
S1130B70CF93DF93CDB7DEB72A970FB6F894DEBFD5
S1130B800FBECDBF20E030E0A9016FE180E090E02E
S1130B9072DF2CE330E040E050E060E280E090E07F
S1130BA06ADF26EF3FEF4FEF5FEF61E280E090E016
S1130BB062DF22E030E040E050E062E580E090E077
S1130BC05ADF20EA3FE040E050E064E280E090E059
S1130BD052DF28E030E040E050E063E680E090E05F
S1130BE04ADF2CE330E040E050E061E280E090E056
S1130BF042DF00E010E04AE0BE016F5F7F4FC801B2
S1130C007DD541E0BE016F5F7F4F85ED92E0AEDBA5
S1130C102FEF80E792E0215080409040E1F700C040
S1130C2000000F5F1F4F0233110529F724EC3FEF3B
S1130C304FEF5FEF61E280E090E01DDF4AE0BE012C
S1130C406F5F7F4FC8015AD541E0BE016F5F7F4F90
S1130C5085ED92E08BDB2FEF80E792E0215080401E
S1130C609040E1F700C000000F5F1F4F04361105EC
S1130C7029F720E030E0A90161E280E090E0FBDEAA
S1130C8020E030E0A90164E280E090E0F4DE2A96FE
S1130C900FB6F894DEBF0FBECDBFDF91CF911F9189
S1130CA00F910895000000000895CF92DF92EF9213
S1130CB0FF920F931F93CF93DF931092C50027E603
S1130CC02093C4000F2EF1ECCF2ED12CF02D98E9F7
S1130CD0F601908386E08093C2001092CD002093A9
S1130CE0CC000F2EF9ECEF2EF12CF02DF7019083B0
S1130CF08093CA001092D5002093D40001ED10E037
S1130D00F80190838093D20010923501209334012E
S1130D10C1E3D1E098838093320180E993E0CEDD92
S1130D208AEC9DE0CBDD8BEA94E0C8DD87EC99E0AA
S1130D30C5DD8BEC9EE0C2DD86EC98E0BFDD88EC7F
S1130D409AE0BCDD8DEC90E1B9DDF601808180682C
S1130D508083F701808180688083F80180818068C6
S1130D608083888180688883789482E596E0909374
S1130D708F0380938E0390938903809388039093C9
S1130D808B0380938A0390938D0380938C03DF916C
S1130D90CF911F910F91FF90EF90DF90CF90089526
S1130DA0462FBC0180E993E0D5DDE1ECF0E08081E1
S1130DB0806280830895462FBC018BEA94E0CADDEB
S1130DC0E9ECF0E08081806280830895462FBC01C5
S1130DD08BEC9EE0BFDDE1EDF0E0808180628083FA
S1130DE008951F920F920FB60F9211240BB60F9213
S1130DF02F933F934F935F936F937F938F939F931F
S1130E00AF93BF93EF93FF9380E993E066DD88236C
S1130E1031F080E993E06DDD8093C6000CC0E1EC15
S1130E20F0E080818F7D8083E0918E03F0918F03C9
S1130E30309709F01995FF91EF91BF91AF919F9170
S1130E408F917F916F915F914F913F912F910F906F
S1130E500BBE0F900FBE0F901F9018951F920F920C
S1130E600FB60F9211240BB60F922F933F934F930B
S1130E705F936F937F938F939F93AF93BF93EF93FE
S1130E80FF936091C6008AEC9DE047DDFF91EF91EE
S1130E90BF91AF919F918F917F916F915F914F918E
S1130EA03F912F910F900BBE0F900FBE0F901F908C
S1130EB018951F920F920FB60F9211240BB60F9232
S1130EC02F933F934F935F936F937F938F939F934E
S1130ED0AF93BF93EF93FF938BEA94E0FEDC8823F8
S1130EE031F08BEA94E005DD8093CE000CC0E9EC90
S1130EF0F0E080818F7D8083E0918803F091890305
S1130F00309709F01995FF91EF91BF91AF919F919F
S1130F108F917F916F915F914F913F912F910F909E
S1130F200BBE0F900FBE0F901F9018951F920F923B
S1130F300FB60F9211240BB60F922F933F934F933A
S1130F405F936F937F938F939F93AF93BF93EF932D
S1130F50FF936091CE0087EC99E0DFDCFF91EF9185
S1130F60BF91AF919F918F917F916F915F914F91BD
S1130F703F912F910F900BBE0F900FBE0F901F90BB
S1130F8018951F920F920FB60F9211240BB60F9261
S1130F902F933F934F935F936F937F938F939F937D
S1130FA0AF93BF93EF93FF938BEC9EE096DC882383
S1130FB031F08BEC9EE09DDC8093D6000CC0E1ED1B
S1130FC0F0E080818F7D8083E0918A03F0918B0330
S1130FD0309709F01995FF91EF91BF91AF919F91CF
S1130FE08F917F916F915F914F913F912F910F90CE
S1130FF00BBE0F900FBE0F901F9018951F920F926B
S11310000FB60F9211240BB60F922F933F934F9369
S11310105F936F937F938F939F93AF93BF93EF935C
S1131020FF936091D60086EC98E077DCFF91EF9116
S1131030BF91AF919F918F917F916F915F914F91EC
S11310403F912F910F900BBE0F900FBE0F901F90EA
S113105018951F920F920FB60F9211240BB60F9290
S11310602F933F934F935F936F937F938F939F93AC
S1131070AF93BF93EF93FF9388EC9AE02EDC882321
S113108031F088EC9AE035DC8093D6000CC0E1E3C3
S1131090F1E080818F7D8083E0918C03F0918D035A
S11310A0309709F01995FF91EF91BF91AF919F91FE
S11310B08F917F916F915F914F913F912F910F90FD
S11310C00BBE0F900FBE0F901F9018951F920F929A
S11310D00FB60F9211240BB60F922F933F934F9399
S11310E05F936F937F938F939F93AF93BF93EF938C
S11310F0FF93609136018DEC90E10FDCFF91EF914D
S1131100BF91AF919F918F917F916F915F914F911B
S11311103F912F910F900BBE0F900FBE0F901F9019
S11311201895CF93DF93CDB7DEB760970FB6F894D9
S1131130DEBF0FBECDBF90D095D041DCB6DDBADCAA
S113114022DA87E313DA823949F461E188ED92E027
S113115027DE6BE08AEE92E023DE10C080598230F5
S113116048F461E186EF92E01BDE6BE08AEE92E0E8
S113117017DE04C062E188E093E012DECE0101963E
S11311807C0182E0F3D9682F606282E0E4D983E0D5
S1131190EDD9682F606883E0DED9B70182E526DBEC
S11311A0813009F04BC0C70153DBF70101900020E7
S11311B0E9F73197BF016E197F09C701F1DD6AE0D4
S11311C08BE193E0EDDD8981813041F18B818230C7
S11311D099F086E293E075D2FC0101900020E9F7D2
S11311E03197AF01481B590B00E010E020E030E0DC
S11311F0BC018CE0E5D912C089E293E062D2FC0123
S113120001900020E9F73197AF01481B590B00E02A
S113121010E020E030E0BC018CE0D2D9C70118DB3B
S1131220F70101900020E9F73197BF016E197F099A
S1131230C701B6DD6DE08CE293E0B2DD3CD08111F4
S113124069D07ED08111EED00AD181117AD196D1A4
S113125081111AD225D095CF87EB84B980E1809390
S113126001010895A8EAB0E011961C921E92109212
S1131270A000E1EAF0E010821092A5001092A40010
S11312808CE790E011969C938E9380818860808394
S1131290808182608083089585B1805885B90895DE
S11312A0FBDF2FEF83ED90E3215080409040E1F786
S11312B000C0000008951F93CF93DF93D0E0C0E0F7
S11312C011E01EC08AEC9DE014DB8D3069F4E091DE
S11312D08503F0E0E455FA4F1082C0938503C09370
S11312E08403DADFD12F0CC090918503E92FF0E05D
S11312F0E455FA4F80839F5F90938503CDDFDC2F05
S11313008AEC9DE0EADA8111DDCF8D2FDF91CF9158
S11313101F91089560E18AE393E042DDECEAF5E091
S113132001900020E9F73197BF016C5A75408CEAAF
S113133095E036DD62E083E192E032DDADCF0895E1
S11313400F931F93CF93DF9300E0C0E0D1E012E04E
S11313504CC087EC99E0CDDA8F3F29F59091820358
S1131360992319F0913009F049C0E0918303F0E02A
S1131370E853F44F90819F3F09F03DC010938203DE
S11313802091830330E0F901E853F44F90819F3FAB
S113139039F4F901E953F44F90819F3FA1F507C057
S11313A0C093820316C090918203933091F4E0912C
S11313B08303F0E0E753F44F1082DF0111971C928E
S11313C032971082C0938303C093820365DF0D2F8D
S11313D00CC090918303E92FF0E0E753F44F80832E
S11313E09F5F9093830358DF0C2F87EC99E075DAA5
S11313F08111AFCF11C0C0938203D5CF90918203E6
S1131400923089F6BDCFE0918303F0E0E953F44FC5
S113141090819F3F29F6DDCF802FDF91CF911F91DF
S11314200F910895CF93DF9360E18BE493E0B8DCF0
S1131430C9ECDBE0FE0101900020E9F73197BF0120
S1131440695C7B40CE01ACDC62E083E192E0A8DC25
S1131450698188810E94E500DF91CF9108950F93FF
S11314601F93CF93DF9300E0C0E0D1E012E04CC0C3
S113147086EC98E03EDA8F3F29F59091800399231A
S113148019F0913009F049C0E0918103F0E0E35391
S1131490FE4E90819F3F09F03DC010938003209140
S11314A0810330E0F901E353FE4E90819F3F39F40C
S11314B0F901E453FE4E90819F3FA1F507C0C0930C
S11314C0800316C090918003933091F4E0918103DE
S11314D0F0E0E253FE4E1082DF0111971C92329726
S11314E01082C0938103C0938003D6DE0D2F0CC0FD
S11314F090918103E92FF0E0E253FE4E80839F5FD9
S113150090938103C9DE0C2F86EC98E0E6D9811113
S1131510AFCF11C0C0938003D5CF90918003923098
S113152089F6BDCFE0918103F0E0E453FE4E908153
S11315309F3F29F6DDCF802FDF91CF911F910F912F
S11315400895CF93DF9360E18CE593E029DCCEEC42
S1131550D1E1FE0101900020E9F73197BF016E5CF3
S11315607141CE011DDC62E083E192E019DC698106
S113157088810E94E500DF91CF9108950F931F9316
S1131580CF93DF9300E0C0E0D1E012E055C08DECD2
S113159090E1AFD98F3F71F590917E03911103C013
S11315A0D0937E0303C0913009F054C020917F038F
S11315B030E0F901E555F94F90819F3F09F042C0B1
S11315C010937E0303C0C0937E0314C020917F0355
S11315D030E0F901E555F94F90819F3F41F4F9015D
S11315E0E655F94F90819F3F09F03EC007C0C09374
S11315F07E0316C090917E03933091F4E0917F03B3
S1131600F0E0E455F94F1082DF0111971C923297F4
S11316101082C0937F03C0937E033EDE0D2F0CC067
S113162090917F03E92FF0E0E455F94F80839F5FA9
S113163090937F0331DE0C2F8DEC90E14ED9811114
S1131640A6CF1CC0F901E755F94F90819F3F09F0DF
S1131650BACF05C090917E03923061F6B7CF9091D6
S11316607E03923039F6C3CFE0917F03F0E0E65574
S1131670F94F90819F3F09F0BACFD2CF802FDF91ED
S1131680CF911F910F910895CF93DF9360E18DE681
S113169093E086DBCCEAD6E0FE0101900020E9F776
S11316A03197BF016C5A7640CE017ADB62E083E168
S11316B092E076DB698188810E94E500DF91CF9119
S11316C00895FC0188279927E89421912032E9F3B1
S11316D0293010F02E30C8F32B3239F02D3231F48A
S11316E0689403C015D0820F911D219120532A3094
S11316F0C8F31EF4909581959F4F0895BB274A30F7
S113170031F4992322F4BDE2909581959F4F09C04D
S11317107AE0979F902D879F802D910D1124089535
S1131720BB27FB015527AA27880F991FAA1FA417B7
S113173010F0A41B83955051B9F7A05DAA3308F0AB
S1131740A95DA193009779F7B111B1931192CB01DF
S113175000C0DC01FC01672F71917723E1F7329718
S113176004C07C916D9370836291AE17BF07C8F378
S10917700895F894FFCF78
S1131776426567696E6E20436F6D6D616E64313AC2
S1131786200D0A0D0A004C656D6F6E20536F64615F
S113179631006231004C656D6F6E20536F646132A7
S11317A6006230004C656D6F6E20536F64613300C8
S11317B674300037003830003235300042656769CE
S11317C66E6E20436F6D6D616E64323A200D0A0DA4
S11317D60A005775737374656E205369652C20640B
S11317E6617373206469657365725C724472696EB1
S11317F66B20696E20756E7465722065696E6572FC
S1131806204D696E7574655C72686572676573747C
S1131816656C6C7420776972643F5C724E696368A8
S1131826743F00743100390034007061676520002C
S11318362E7478743D0022002E76616C3D0070692A
S11318466320002C006A30004D494641524520521F
S1131856433532327632200D0A004465746563746A
S11318666564200D0A004D494641524520524335D0
S113187632327631200D0A004E6F2072656164653E
S11318867220666F756E64200D0A00203A566F72D8
S11318966865720D0A00313200313300203A204E59
S11318A6616368686572200D0A0050726F6365652E
S11318B664205541525420303A200050726F6365BB
S11318C66564205541525420313A200050726F63AA
S11318D6656564205541525420323A200050726F97
S11118E663656564205541525420333A200056
S9030000FC
