:1000000071C0000090C000008EC000008CC00000D5
:100010008AC0000088C0000086C0000084C00000C4
:1000200082C0000080C000007EC000007CC00000D4
:100030007AC0000078C0000076C0000074C00000E4
:1000400072C0000070C000006EC000006CC00000F4
:100050006AC0000068C0000066C0000064C0000004
:100060009BC50000CAC700008BC700005CC0000031
:100070005AC0000058C0000056C0000054C0000024
:1000800052C0000050C000004EC000004CC0000034
:100090000C946508DDC7000046C0000044C00000A5
:1000A00042C0000040C000003EC000003CC0000054
:1000B0003AC0000038C0000036C0000034C0000064
:1000C00032C0000030C000002EC000000C94CD08EB
:1000D0000C94900828C000000C9435090C94F80882
:1000E00022C0000011241FBECFEFD1E2DEBFCDBF82
:1000F00000E00CBF17E0A0E0B2E0EAE8FBE100E0BE
:100100000BBF02C007900D92A03AB107D9F729E1C1
:10011000A0EAB7E001C01D92A235B207E1F70E9444
:1001200060090C94C30D6CCF65E180E296E007D7BF
:1001300090D541E066E376E082E496E075D141E057
:1001400065E476E081E596E06FD141E064E576E034
:1001500080E696E069D121E043E656E065E676E088
:1001600088E696E02BD221E043E656E065E676E0AD
:100170008AE696E023D20E941C0AE0EAF0E0808141
:1001800080618083089565E18CE696E0D8D641E0F1
:1001900062E876E083ED96E047D1B7D586ED96E04C
:1001A0001BD12FEF87EA91E6215080409040E1F784
:1001B00000C0000088ED96E00FD10E941C0AE0EA22
:1001C000F0E080818F7E808308958F3F21F4613B32
:1001D00039F4AACF0895873019F4613009F4D3CFE8
:1001E0000895CF93DF93EC0137D0682FCE0144D030
:1001F000BC0188E399E0BCD0909339098093380919
:1002000003D0DF91CF910895CF93DF93C091380948
:10021000D09139092097E9F088819981FC010190FA
:100220000020E9F73197BF01681B790B88D662E09F
:100230008AED96E084D62FEF80E792E0215080404F
:100240009040E1F700C000000B80DC81C02D2097BA
:1002500019F7DF91CF910895E0913809F0913909AC
:10026000309741F080E08F5F0380F481E02D30977C
:10027000D1F7089580E00895DF92EF92FF920F93F7
:100280001F93CF93DF937C01D62E65E070E081E071
:1002900090E00E94290CEC01F70101900020E9F7A1
:1002A0008F010E191F0961E070E0C8010E94290C3E
:1002B00099838883DA821C821B820115110571F0F3
:1002C000D70120E030E08D91E881F981E20FF31F42
:1002D00080832F5F3F4F20173107A8F3CE01DF91B6
:1002E000CF911F910F91FF90EF90DF900895EF92C3
:1002F000FF921F93CF93DF93CDB7DEB7CA51D4409F
:100300000FB6F894DEBF0FBECDBF8AE194E0E6E001
:10031000F2E0DE01119601900D920197E1F7109243
:10032000390910923809CE0101967C0110E0612F45
:10033000C701A2DF2091380930913909FC013483CB
:10034000238390933909809338091F5FF2E3EF0EFE
:10035000F11C153161F7C65EDB4F0FB6F894DEBFB6
:100360000FBECDBFDF91CF911F91FF90EF90089509
:10037000FC0120813181FB0134832383FC017183E3
:100380006083CB010895CF93DF9300D0CDB7DEB764
:100390009FEF99839A839B83811105C063E0CE010F
:1003A0000196CDD50DC0813029F463E0CE010196D0
:1003B000D1D506C0823021F463E0CE010196D5D5B7
:1003C0008FE19EE40197F1F700C000000F900F90BD
:1003D0000F90DF91CF910895CF93DF93EC0165E00B
:1003E0008DED96E0B7D5FE0101900020E9F7319739
:1003F000BF016C1B7D0BCE01ADD581E0C4DF65E094
:100400008DED96E09CD5FE0101900020E9F7319733
:10041000BF016C1B7D0BCE0192D562E083E396E0B9
:100420008ED5DF91CF910895CF93DF93EB014111EA
:1004300022C0FC0101900020E9F73197BF01681B41
:10044000790B7DD565E083EE96E079D561E089EEA4
:1004500096E075D5FE0101900020E9F73197BF01C4
:100460006C1B7D0BCE016BD561E089EE96E067D504
:1004700080E089DF47C0413011F5FC010190002088
:10048000E9F73197BF01681B790B64D565E083EE0E
:1004900096E060D561E089EE96E05CD5FE010190C2
:1004A0000020E9F73197BF016C1B7D0BCE0152D5BF
:1004B00061E089EE96E04ED581E065DF23C04230F1
:1004C00009F5FC0101900020E9F73197BF01681B95
:1004D000790B4BD565E083EE96E047D561E089EE78
:1004E00096E043D5FE0101900020E9F73197BF0166
:1004F0006C1B7D0BCE0139D561E089EE96E035D5D8
:1005000082E041DFDF91CF910895CF93DF93EB013C
:1005100041111AC0FC0101900020E9F73197BF0199
:10052000681B790B0CD565E08BEE96E008D5FE01D3
:1005300001900020E9F73197BF016C1B7D0BCE01C4
:10054000FED480E020DF37C04130D1F4FC010190BF
:100550000020E9F73197BF01681B790BFBD465E0F8
:100560008BEE96E0F7D4FE0101900020E9F7319779
:10057000BF016C1B7D0BCE01EDD481E004DF1BC0FD
:100580004230C9F4FC0101900020E9F73197BF0126
:10059000681B790BEAD465E08BEE96E0E6D4FE01A9
:1005A00001900020E9F73197BF016C1B7D0BCE0154
:1005B000DCD482E0E8DEDF91CF910895EF92FF92E4
:1005C0000F931F93CF93DF937C018B01EA012111DD
:1005D0002DC064E081EF96E0B2D4F70101900020D5
:1005E000E9F73197BF016E197F09C701A8D461E00F
:1005F00086EF96E0A4D4F80101900020E9F7319746
:10060000BF01601B710BC8019AD461E086EF96E0D0
:1006100096D4FE0101900020E9F73197BF016C1BD1
:100620007D0BCE018CD480E0AEDE5DC0213069F55B
:1006300064E081EF96E08ED4F70101900020E9F7A5
:100640003197BF016E197F09C70184D461E086EF3D
:1006500096E080D4F80101900020E9F73197BF01BE
:10066000601B710BC80176D461E086EF96E072D40E
:10067000FE0101900020E9F73197BF016C1B7D0B53
:10068000CE0168D481E07FDE2EC0223061F564E0C7
:1006900081EF96E06AD4F70101900020E9F73197E5
:1006A000BF016E197F09C70160D461E086EF96E053
:1006B0005CD4F80101900020E9F73197BF01601B7D
:1006C000710BC80152D461E086EF96E04ED4FE0172
:1006D00001900020E9F73197BF016C1B7D0BCE0123
:1006E00044D482E050DEDF91CF911F910F91FF90B3
:1006F000EF900895CF93C62F2898880F8E7784D2D5
:100700008C2F82D2289ACF9108952898880F8E77BF
:1007100080687AD280E078D2289A08956FE081E0EC
:10072000E9CF0895FBDF6DE88AE2E4DF6EE38BE258
:10073000E1DF6EE18CE2DEDF60E08DE2DBDF60E4D2
:1007400085E1D8DF6DE381E1D5DF84E1DEDF982F3D
:10075000937021F4682F636084E1CCCF08953F92B9
:100760004F925F926F927F928F929F92AF92BF92C1
:10077000CF92DF92EF92FF920F931F93CF93DF936D
:10078000982EF62EE72E442E822E332E58018CE022
:10079000981609F4BAC0EEE09E1203C010E102E11F
:1007A00002C010E000E084E0B0DF682F6F7784E0E3
:1007B000A1DF8AE0AADF682F60688AE09BDF60E043
:1007C00081E098DF512C612C712C4114510461049B
:1007D000710419F414C010E307E7CF2DDE2DC12CEE
:1007E000D12C7601699189E085DFFFEFCF1ADF0A0E
:1007F000EF0AFF0AC414D504E604F70498F3692D40
:1008000081E078DF8CE0981206C08DE07EDF682FF3
:1008100060688DE06FDF84E078DFF82EC0E0D0E024
:10082000116009C084E071DFF82E2196CF3CE7E02B
:10083000DE0709F483C0812F8F21A1F387C00170E7
:10084000F02211F0C2E001C0C1E0FCE09F128AC0BA
:100850008AE05BDF482E8CE058DF282F2770A9F054
:10086000842D90E00197880F991F880F991F880F9A
:10087000991F820F911D092E000CAA0BBB0BF501CD
:1008800080839183A283B38311C0842D90E0880F6D
:10089000991F880F991F880F991F092E000CAA0B0A
:1008A000BB0BF50180839183A283B383442071F055
:1008B000842D813108F080E1482E512C612C712C5F
:1008C000411451046104710429F44CC0412C512C91
:1008D00032014394082D132DC12CD12C760189E0CF
:1008E00014DFF80181938F01FFEFCF1ADF0AEF0ABF
:1008F000FF0AC414D504E604F70488F333C06CE09F
:1009000081E0F8DE10E307E780CF84E0FEDE682FA9
:100910006F7784E0EFDE8AE0F8DE682F60688AE0B7
:10092000E9DE60E081E0E6DE512C612C712C41149F
:1009300051046104710409F04ECFE1CF8DE0E5DE92
:10094000682F6F778DE0D6DEC3E00CC08DE0DDDE72
:10095000682F6F778DE0CEDE86E0D7DE8B7109F4ED
:100960006ECFC3E08C2FDF91CF911F910F91FF903D
:10097000EF90DF90CF90BF90AF909F908F907F903F
:100980006F905F904F903F900895EF92FF920F937A
:100990001F93CF93DF9300D01F92CDB7DEB7182FF0
:1009A0007B0167E08DE0A6DEF70110838E010F5F0B
:1009B0001F4F970141E0B7018CE0D1DE813059F43F
:1009C00049815A816B817C814031510561057105F6
:1009D00019F083E001C083E00F900F900F900F900B
:1009E000DF91CF911F910F91FF90EF900895EF92BB
:1009F000FF920F931F93CF93DF9300D01F92CDB739
:100A0000DEB77C0160E08DE075DE83E9F70180836D
:100A100080E281838E010F5F1F4F970142E0B70193
:100A20008CE09DDE813071F4F701A7014C5F5F4FD0
:100A300090E0219192274E175F07D9F7F7012481A3
:100A4000921383E00F900F900F900F90DF91CF9152
:100A50001F910F91FF90EF900895FC011182108279
:100A60000895FC0190818181981720F0981B892FAF
:100A700080950895891B0895FC0120819181291793
:100A800018F0822F891B0895892F821B8095089565
:100A9000CF93DF93EC01F0DF882359F0898191E057
:100AA000980FFE01E80FF11D82819F3F09F490E04D
:100AB0009983DF91CF9108950F931F93CF93DF9385
:100AC000EC01162F0881CDDF8823F1F3111101C04D
:100AD0001FEF81E0800FFE01E00FF11D12838F3FB9
:100AE00009F480E0888381E0DF91CF911F910F911D
:100AF0000895FF920F931F93CF93DF934423D9F070
:100B0000C42FD72FF62E8C01ACDF8C17F0F315C055
:100B100021E0290F3191D801A90FB11D12963C9304
:100B20002F3F11F4982F01C0922F415088F7F80100
:100B3000908381E00AC080E008C0F80190814FEF07
:100B40004C0FEF2DFD2F80E0E3CFDF91CF911F9170
:100B50000F91FF90089500000000089581E58CBD7D
:100B60001DBC8CE495E179DF89E492E176DF78942D
:100B70008BEA95E090933B0980933A092D9A289A45
:100B80000895462F2D98BC018CE495E1B2DF8CE4EA
:100B900095E17EDF8EBD08951F920F920FB60F92E2
:100BA00011240BB60F922F933F934F935F936F9344
:100BB0007F938F939F93AF93BF93EF93FF938CE4B7
:100BC00095E15ADF882329F08CE495E161DF8EBD41
:100BD00008C0E0913A09F0913B09309709F0199566
:100BE0002D9AFF91EF91BF91AF919F918F917F913E
:100BF0006F915F914F913F912F910F900BBE0F908E
:100C00000FBE0F901F9018958EBD0DB407FEFDCF3F
:100C10008EB50895CF93DF9300D01F921F92CDB76A
:100C2000DEB7606869835A834B833C832D8385B12B
:100C30008823E9F380EA8A95F1F765E0CE01019611
:100C4000A0DF0F900F900F900F900F90DF91CF913A
:100C5000089523E030E0A9016BE180E090E0DADF65
:100C600020E030E0A90167E180E090E0D3DF2FE9E8
:100C70003FE040E050E068E180E090E0CBDF25E03D
:100C800035E040E050E069E180E090E0C3DF27E03C
:100C900030E040E050E06AE180E090E0BBDF20E03F
:100CA00031E040E058E16AE080E090E0B3DF20E12D
:100CB00030E0A90164E080E090E0ACDF20E030E0CB
:100CC00040E050E265E080E090E0A4DF20E030E02A
:100CD000A90166E080E090E09DDF2BE431E0A9010E
:100CE00067E080E090E096DF26E63CE540E051E0FA
:100CF00069E080E090E08EDF22EF3BE540E051E0EC
:100D000068E080E090E086CF08950F931F93CF9323
:100D1000DF93CDB7DEB72A970FB6F894DEBF0FBECC
:100D2000CDBF20E030E0A9016FE180E090E072DF0C
:100D30002CE330E040E050E060E280E090E06ADFE9
:100D400026EF3FEF4FEF5FEF61E280E090E062DF80
:100D500022E030E040E050E062E580E090E05ADFE1
:100D600020EA3FE040E050E064E280E090E052DFC3
:100D700028E030E040E050E063E680E090E04ADFC9
:100D80002CE330E040E050E061E280E090E042DFC0
:100D900000E010E04AE0BE016F5F7F4FC801B8D6A7
:100DA00041E0BE016F5F7F4F88EF96E0AEDB2FEF33
:100DB00080E792E0215080409040E1F700C00000C1
:100DC0000F5F1F4F0233110529F724EC3FEF4FEF60
:100DD0005FEF61E280E090E01DDF4AE0BE016F5FFF
:100DE0007F4FC80195D641E0BE016F5F7F4F88EF0E
:100DF00096E08BDB2FEF80E792E02150804090401F
:100E0000E1F700C000000F5F1F4F0436110529F7FE
:100E100020E030E0A90161E280E090E0FBDE20E02C
:100E200030E0A90164E280E090E0F4DE2A960FB69B
:100E3000F894DEBF0FBECDBFDF91CF911F910F9110
:100E40000895000000000895CF92DF92EF92FF9284
:100E50000F931F93CF93DF931092C50027E6209343
:100E6000C4000F2EF1ECCF2ED12CF02D98E9F60115
:100E7000908386E08093C2001092CD002093CC0036
:100E80000F2EF9ECEF2EF12CF02DF70190838093CB
:100E9000CA001092D5002093D40001ED10E0F801B3
:100EA00090838093D2001092350120933401C1E3E6
:100EB000D1E098838093320184E499E0CEDD8AE426
:100EC00093E1CBDD85E49AE0C8DD87E49FE0C5DDF2
:100ED0008BE494E1C2DD86E49EE0BFDD88E490E12E
:100EE000BCDD8DE496E1B9DDF60180818068808308
:100EF000F701808180688083F80180818068808329
:100F0000888180688883789481E297E09093430990
:100F10008093420990933D0980933C0990933F0947
:100F200080933E099093410980934009DF91CF91CE
:100F30001F910F91FF90EF90DF90CF900895462F73
:100F4000BC0184E499E0D5DDE1ECF0E080818062D1
:100F500080830895462FBC0185E49AE0CADDE9EC60
:100F6000F0E08081806280830895462FBC018BE48D
:100F700094E1BFDDE1EDF0E080818062808308953F
:100F80001F920F920FB60F9211240BB60F922F9350
:100F90003F934F935F936F937F938F939F93AF9301
:100FA000BF93EF93FF9384E499E066DD882331F0EB
:100FB00084E499E06DDD8093C6000CC0E1ECF0E0C4
:100FC00080818F7D8083E0914209F09143093097C1
:100FD00009F01995FF91EF91BF91AF919F918F917A
:100FE0007F916F915F914F913F912F910F900BBE29
:100FF0000F900FBE0F901F9018951F920F920FB673
:101000000F9211240BB60F922F933F934F935F9340
:101010006F937F938F939F93AF93BF93EF93FF93C0
:101020006091C6008AE493E147DDFF91EF91BF91A3
:10103000AF919F918F917F916F915F914F913F9170
:101040002F910F900BBE0F900FBE0F901F90189511
:101050001F920F920FB60F9211240BB60F922F937F
:101060003F934F935F936F937F938F939F93AF9330
:10107000BF93EF93FF9385E49AE0FEDC882331F081
:1010800085E49AE005DD8093CE000CC0E9ECF0E049
:1010900080818F7D8083E0913C09F0913D093097FC
:1010A00009F01995FF91EF91BF91AF919F918F91A9
:1010B0007F916F915F914F913F912F910F900BBE58
:1010C0000F900FBE0F901F9018951F920F920FB6A2
:1010D0000F9211240BB60F922F933F934F935F9370
:1010E0006F937F938F939F93AF93BF93EF93FF93F0
:1010F0006091CE0087E49FE0DFDCFF91EF91BF912C
:10110000AF919F918F917F916F915F914F913F919F
:101110002F910F900BBE0F900FBE0F901F90189540
:101120001F920F920FB60F9211240BB60F922F93AE
:101130003F934F935F936F937F938F939F93AF935F
:10114000BF93EF93FF938BE494E196DC882331F017
:101150008BE494E19DDC8093D6000CC0E1EDF0E0DF
:1011600080818F7D8083E0913E09F0913F09309727
:1011700009F01995FF91EF91BF91AF919F918F91D8
:101180007F916F915F914F913F912F910F900BBE87
:101190000F900FBE0F901F9018951F920F920FB6D1
:1011A0000F9211240BB60F922F933F934F935F939F
:1011B0006F937F938F939F93AF93BF93EF93FF931F
:1011C0006091D60086E49EE077DCFF91EF91BF91BD
:1011D000AF919F918F917F916F915F914F913F91CF
:1011E0002F910F900BBE0F900FBE0F901F90189570
:1011F0001F920F920FB60F9211240BB60F922F93DE
:101200003F934F935F936F937F938F939F93AF938E
:10121000BF93EF93FF9388E490E12EDC882331F0B5
:1012200088E490E135DC8093D6000CC0E1E3F1E086
:1012300080818F7D8083E0914009F0914109309752
:1012400009F01995FF91EF91BF91AF919F918F9107
:101250007F916F915F914F913F912F910F900BBEB6
:101260000F900FBE0F901F9018951F920F920FB600
:101270000F9211240BB60F922F933F934F935F93CE
:101280006F937F938F939F93AF93BF93EF93FF934E
:10129000609136018DE496E10FDCFF91EF91BF91F3
:1012A000AF919F918F917F916F915F914F913F91FE
:1012B0002F910F900BBE0F900FBE0F901F9018959F
:1012C000CF93DF93CDB7DEB760970FB6F894DEBF4C
:1012D0000FBECDBF91D096D041DCB6DDBADC22DAAC
:1012E00006D887E312DA823949F461E18BEF96E0A0
:1012F00026DE6BE08DE097E022DE10C08059823060
:1013000048F461E189E197E01ADE6BE08DE097E057
:1013100016DE04C062E18BE297E011DECE01019699
:101320007C0182E0F2D9682F606282E0E3D983E039
:10133000ECD9682F606883E0DDD9B70182E525DB51
:10134000813009F04BC0C70152DBF701019000204A
:10135000E9F73197BF016E197F09C701F0DD6AE037
:101360008EE397E0ECDD8981813041F18B81823021
:1013700099F089E497E0A8D3FC0101900020E9F7F7
:101380003197AF01481B590B00E010E020E030E03E
:10139000BC018CE0E4D912C08CE497E095D3FC0149
:1013A00001900020E9F73197AF01481B590B00E08D
:1013B00010E020E030E0BC018CE0D1D9C70117DBA0
:1013C000F70101900020E9F73197BF016E197F09FD
:1013D000C701B5DD6DE08FE497E0B1DD3CD0811150
:1013E00069D076D08111E6D002D1811172D18ED12F
:1013F000811112D225D095CF87EB84B980E18093FB
:1014000001010895A8EAB0E011961C921E92109274
:10141000A000E1EAF0E010821092A5001092A40072
:101420008CE790E011969C938E93808188608083F6
:10143000808182608083089585B1805885B9089540
:10144000FBDF2FEF83ED90E3215080409040E1F7E8
:1014500000C0000008951F93CF93DF93D0E0C0E059
:1014600011E01EC08AE493E113DB8D3069F4E09152
:10147000A707F0E0EA5BF44F1082C093A707C09380
:10148000A607DADFD12F0CC09091A707E92FF0E073
:10149000EA5BF44F80839F5F9093A707CDDFDC2F3B
:1014A0008AE493E1E9DA8111DDCF8D2FDF91CF91CD
:1014B0001F9108956FE08DE597E041DD62E083E3E1
:1014C00096E03DDDB9DF86E49BE00C94F1000895E1
:1014D0000F931F93CF93DF9300E0C0E0D1E012E0C1
:1014E0004CC087E49FE0D4DA8F3F29F59091A407A0
:1014F000992319F0913009F049C0E091A507F0E077
:10150000E85BFE4E90819F3F09F03DC01093A40719
:101510002091A50730E0F901E85BFE4E90819F3FE6
:1015200039F4F901E95BFE4E90819F3FA1F507C0B8
:10153000C093A40716C09091A407933091F4E09152
:10154000A507F0E0E75BFE4E1082DF0111971C92C9
:1015500032971082C093A507C093A4076DDF0D2FAB
:101560000CC09091A507E92FF0E0E75BFE4E808369
:101570009F5F9093A50760DF0C2F87E49FE07CDAE4
:101580008111AFCF11C0C093A407D5CF9091A4070C
:10159000923089F6BDCFE091A507F0E0E95BFE4E01
:1015A00090819F3F29F6DDCF802FDF91CF911F9152
:1015B0000F910895CF93DF9360E18DE697E0BFDC54
:1015C000C9E4D1E1FE0101900020E9F73197BF01A4
:1015D00069547141CE01B3DC62E083E396E0AFDC95
:1015E000698188810E94E500DF91CF9108950F9372
:1015F0001F93CF93DF9300E0C0E0D1E012E04CC036
:1016000086E49EE045DA8F3F29F59091A207992361
:1016100019F0913009F049C0E091A307F0E0E35BD5
:10162000F84E90819F3F09F03DC01093A207209192
:10163000A30730E0F901E35BF84E90819F3F39F456
:10164000F901E45BF84E90819F3FA1F507C0C0937C
:10165000A20716C09091A207933091F4E091A307DE
:10166000F0E0E25BF84E1082DF0111971C92329796
:101670001082C093A307C093A207DEDE0D2F0CC01B
:101680009091A307E92FF0E0E25BF84E80839F5F23
:101690009093A307D1DE0C2F86E49EE0EDD9811153
:1016A000AFCF11C0C093A207D5CF9091A2079230BF
:1016B00089F6BDCFE091A307F0E0E45BF84E90819E
:1016C0009F3F29F6DDCF802FDF91CF911F910F91A2
:1016D0000895CF93DF9360E18EE797E030DCCEE4AE
:1016E000D7E1FE0101900020E9F73197BF016E5468
:1016F0007741CE0124DC62E083E396E020DC69815F
:1017000088810E94E500DF91CF9108950F931F9388
:10171000CF93DF9300E0C0E0D1E012E055C08DE44C
:1017200096E1B6D98F3F71F59091A007911103C052
:10173000D093A00703C0913009F054C02091A107B5
:1017400030E0F901EB5BF34F90819F3F09F042C01D
:101750001093A00703C0C093A00714C02091A10755
:1017600030E0F901EB5BF34F90819F3F41F4F901C9
:10177000EC5BF34F90819F3F09F03EC007C0C093E0
:10178000A00716C09091A007933091F4E091A107B3
:10179000F0E0EA5BF34F1082DF0111971C92329761
:1017A0001082C093A107C093A00746DE0D2F0CC086
:1017B0009091A107E92FF0E0EA5BF34F80839F5FF0
:1017C0009093A10739DE0C2F8DE496E155D9811154
:1017D000A6CF1CC0F901ED5BF34F90819F3F09F04C
:1017E000BACF05C09091A007923061F6B7CF909123
:1017F000A007923039F6C3CFE091A107F0E0EC5B8F
:10180000F34F90819F3F09F0BACFD2CF802FDF9165
:10181000CF911F910F910895CF93DF9360E18FE8EF
:1018200097E08DDBC6E4DCE0FE0101900020E9F7E3
:101830003197BF0166547C40CE0181DB62E083E3D7
:1018400096E07DDB698188810E94E500DF91CF9180
:1018500008950F931F93CF93DF93869F8001879FF7
:10186000100D969F100D1124C8010DD0EC010097AA
:1018700021F0A80160E070E044D1CE01DF91CF916A
:101880001F910F9108950F931F93CF93DF93823091
:10189000910510F482E090E0E0915019F091511917
:1018A00020E030E0A0E0B0E0309719F140815181B4
:1018B0000281138148175907C8F08417950769F406
:1018C000109731F012960C93129713961C9327C021
:1018D000009350191093511922C02115310519F0A8
:1018E0004217530718F49A01BD01EF01DF01F80117
:1018F000DBCF21153105F9F0281B390B24303105D8
:1019000080F48A819B816115710521F0FB0193832D
:10191000828304C09093511980935019FE0132962E
:1019200044C0FE01E20FF31F8193919322503109CD
:10193000398328833AC020914E1930914F19232BB7
:1019400041F4209102023091030230934F19209309
:101950004E1920910002309101022115310541F408
:101960002DB73EB74091040250910502241B350B60
:10197000E0914E19F0914F19E217F307A0F42E1BD6
:101980003F0B2817390778F0AC014E5F5F4F2417E3
:10199000350748F04E0F5F1F50934F1940934E1973
:1019A0008193919302C0E0E0F0E0CF01DF91CF910D
:1019B0001F910F910895CF93DF93009709F481C091
:1019C000FC01329713821282A0915019B0915119E3
:1019D000109781F420813181820F931F20914E193D
:1019E00030914F192817390751F5F0934F19E093AB
:1019F0004E1967C0ED0120E030E0CE17DF0740F45C
:101A00004A815B819E0141155105F1F0EA01F5CF54
:101A1000D383C28340815181840F951FC817D90792
:101A200059F488819981840F951F02969183808350
:101A30008A819B81938382832115310529F4F09358
:101A40005119E09350193DC0E901FB83EA834991A4
:101A50005991C40FD51FEC17FD0761F48081918166
:101A6000840F951F0296E90199838883828193816F
:101A70009B838A83E0E0F0E012968D919C9113970E
:101A8000009719F0FD01DC01F7CF8D919C91119722
:101A90009D012E5F3F4F820F931F20914E19309171
:101AA0004F192817390769F4309729F41092511902
:101AB0001092501902C013821282B0934F19A09352
:101AC0004E19DF91CF910895FC0188279927E8945A
:101AD00021912032E9F3293010F02E30C8F32B3257
:101AE00039F02D3231F4689403C01CD0820F911D5F
:101AF000219120532A30C8F31EF4909581959F4F71
:101B00000895DC0101C06D9341505040E0F7089505
:101B1000BB274A3031F4992322F4BDE29095819598
:101B20009F4F09C07AE0979F902D879F802D910D40
:101B300011240895BB27FB015527AA27880F991F59
:101B4000AA1FA41710F0A41B83955051B9F7A05DEC
:101B5000AA3308F0A95DA193009779F7B111B19369
:101B60001192CB0100C0DC01FC01672F719177233A
:101B7000E1F7329704C07C916D9370836291AE1748
:0A1B8000BF07C8F30895F894FFCFE3
:101B8A00000052192000736576656E536576656E9E
:101B9A00000000000000000000000000000000003B
:101BAA00000000000000000000000000000000002B
:101BBA000000000000000000626C75654B616D69F1
:101BCA006B617A6500000000000000000000000060
:101BDA0000000000000000000000000000000000FB
:101BEA0000000000000000000000626C75654C6196
:101BFA00676F6F6E00000000000000000000000028
:101C0A0000000000000000000000000000000000CA
:101C1A000000000000000000000000006275636B15
:101C2A00436F636B7461696C73000000000000000D
:101C3A00000000000000000000000000000000009A
:101C4A0000000000000000000000000000006769BA
:101C5A006D6C6574000000000000000000000000C8
:101C6A00000000000000000000000000000000006A
:101C7A00000000000000000000000000000000005A
:101C8A0067696E53696E00000000000000000000E2
:101C9A00000000000000000000000000000000003A
:101CAA00000000000000000000000000000000002A
:101CBA0000006869676862616C6C000000000000DF
:101CCA00000000000000000000000000000000000A
:101CDA0000000000000000000000000000000000FA
:101CEA0000000000776869736B79436F6C610000CC
:101CFA0000000000000000000000000000000000DA
:101D0A0000000000000000000000000000000000C9
:101D1A000000000000006B616D696B617A6500006C
:101D2A0000000000000000000000000000000000A9
:101D3A000000000000000000000000000000000099
:101D4A0000000000000000006D617274696E694C49
:101D5A00656D6F6E44726F70000000000000000035
:101D6A000000000000000000000000000000000069
:101D7A00000000000000000000006D6F6E6B6579C6
:101D8A00476C616E64000000000000000000000063
:101D9A000000000000000000000000000000000039
:101DAA00000000000000000000000000736372657C
:101DBA007764726976657200000000000000000016
:101DCA000000000000000000000000000000000009
:101DDA00000000000000000000000000000073691D
:101DEA006C76657242756C6C6574000000000000C8
:101DFA0000000000000000000000000000000000D9
:101E0A0000000000000000000000000000000000C8
:101E1A0077617264206569676874000000000000D9
:101E2A0000000000000000000000000000000000A8
:101E3A000000000000000000000000000000000098
:101E4A00000077686974654C6164790000000000DD
:101E5A000000000000000000000000000000000078
:101E6A000000000000000000000000000000000068
:101E7A0000000000736576656E5570000000000072
:101E8A000000000000000000000000000000000048
:101E9A000000000000000000000000000000000038
:101EAA00000000000000636F6361436F6C61000013
:101EBA000000000000000000000000000000000018
:101ECA000000000000000000000000000000000008
:101EDA0000000000000000006F72616E67656E739B
:101EEA0061667400000000000000000000000000AD
:101EFA0000000000000000000000000000000000D8
:101F0A00000000000000000000007370657A69009C
:101F1A0000000000000000000000000000000000B7
:101F2A0000000000000000000000000000000000A7
:101F3A00000000000000000000000000726F7952EB
:101F4A006F67657273000000000000000000000067
:101F5A000000000000000000000000000000000077
:101F6A00000000000000000000000000000073688C
:101F7A0069726C657954656D706C650000000000CB
:101F8A000000000000000000000000000000000047
:101F9A000000000000000000000000000000000037
:101FAA00426567696E6E20436F6D6D616E64313A8A
:101FBA00200D0A0D0A004C656D6F6E20536F646127
:101FCA0031006231004C656D6F6E20536F6461326F
:101FDA00006230004C656D6F6E20536F6461330090
:101FEA007430003700383000323530004265676996
:101FFA006E6E20436F6D6D616E64323A200D0A0D6C
:10200A000A005775737374656E205369652C2064D2
:10201A00617373206469657365725C724472696E78
:10202A006B20696E20756E7465722065696E6572C3
:10203A00204D696E7574655C726865726765737444
:10204A00656C6C7420776972643F5C724E69636870
:10205A00743F00743100390034000A0D0070616762
:10206A006520002E7478743D0022002E76616C3D46
:10207A000070696320002C006A30004D49464152C5
:10208A00452052433532327632200D0A00446574B7
:10209A006563746564200D0A004D49464152452026
:1020AA0052433532327631200D0A004E6F20726566
:1020BA006164657220666F756E64200D0A00203AAD
:1020CA00566F726865720D0A003132003133002092
:1020DA003A204E616368686572200D0A0050726F7B
:1020EA0063656564205541525420303A0050726F3E
:1020FA0063656564205541525420313A200050727C
:10210A006F63656564205541525420323A2000506D
:10211A00726F63656564205541525420333A20003A
:00000001FF
