:1000000071C000008FC000008DC000008BC00000D8
:1000100089C0000087C0000085C0000083C00000C8
:1000200081C000007FC000007DC000007BC00000D8
:1000300079C0000077C0000075C0000073C00000E8
:1000400071C000006FC000006DC000006BC00000F8
:1000500069C0000067C0000065C0000063C0000008
:10006000D7C40000E1C60000A2C600005BC00000CB
:1000700059C0000057C0000055C0000053C0000028
:1000800051C000004FC000004DC000004BC0000038
:1000900033C70000F4C6000045C0000043C00000A4
:1000A00041C000003FC000003DC000003BC0000058
:1000B00039C0000037C0000035C0000033C0000068
:1000C00031C000002FC000002DC000007DC700001F
:1000D0003EC7000027C0000025C0000023C000006C
:1000E00021C0000011241FBECFEFD1E2DEBFCDBF83
:1000F00000E00CBF14E0A0E0B2E0E4ECFCE100E0C2
:100100000BBF02C007900D92A836B107D9F722E1C4
:10011000A8E6B4E001C01D92A035B207E1F787D789
:100120000C94600E6DCF0F931F93CF93DF93CDB7D9
:10013000DEB728970FB6F894DEBF0FBECDBF00978D
:10014000E1F18C012FEF81EE94E02150804090404E
:10015000E1F700C0000068E0CE010196C8D1883008
:1001600071F58981813769F58E818F3F61F58F81C6
:100170008F3F59F588858F3F51F52D818C8190E017
:10018000A0E0B0E0DC0199278827B22B2A81AC01DE
:10019000BD01422B2B8130E0922F8827092E000CC5
:1001A000AA0BBB0B842B952BA62BB72BF8018083B6
:1001B0009183A283B38381E00BC080E009C080E01B
:1001C00007C080E005C080E003C080E001C080E09F
:1001D00028960FB6F894DEBF0FBECDBFDF91CF914A
:1001E0001F910F910895CF93DF9300D01F92CDB749
:1001F000DEB719821A821B821C82CE01019668D357
:10020000CE01019665D3682FCE01019670D1898108
:10021000813061F48A818F3F59F48B818F3F51F493
:1002200081E09C819F3F39F080E005C080E003C001
:1002300080E001C080E00F900F900F900F90DF9151
:10024000CF91089561D18FEF44D18FEF42D18FEFDD
:1002500040C10895CF9360E875E280E090E038D126
:1002600086E693E0EFDF84E092E0ECDFBCDFC82FAE
:100270008CE092E0E7DFB7DFCC2331F091E0811131
:1002800001C090E0892F01C080E0CF910895BF9216
:10029000CF92DF92EF92FF920F931F93CF93DF9352
:1002A0006C010F2EF8E6EF2EF4E0FF2EF02D0F2E4E
:1002B000F5E6BF2EF02DCFE6D4E02AC08FE39CE90F
:1002C0000197F1F700C000000AD1853609F50BD17E
:1002D0008630F0F0F701B08209E614E000D1F801B1
:1002E00081938F01EC17FD07C9F7F701178284810D
:1002F0008F3F71F485818F3F59F486818F3F41F4A0
:10030000038110E020E030E042816181C601A6D087
:10031000EAD08111D3CFDF91CF911F910F91FF9040
:10032000EF90DF90CF90BF900895EF92FF920F93E0
:100330001F93CF93DF937C018B01C8ECD4E0FE01C7
:1003400001900020E9F73197AF01485C544060E02C
:1003500070E0CE010E94400BDE010D900020E9F715
:10036000119785E0E3E1F2E001900D928A95E1F7C3
:10037000B7016E5F7F4FCE010E94470BDE010D90EB
:100380000020E9F7119785E0E8E1F2E001900D9295
:100390008A95E1F7CE0156DFC801C5DEDF91CF9126
:1003A0001F910F91FF90EF900895CF92DF92EF92FF
:1003B000FF920F931F93CF93DF938C016A017B0110
:1003C000ECEBF4E001900020E9F73197AF014C5BD2
:1003D000544060E070E08CEB94E00E94400BC8EC6D
:1003E000D4E0FE0101900020E9F73197AF01485CAD
:1003F000544060E070E0CE010E94400B2AE030E003
:10040000B701A6018CEB94E037D2B8016E5F7F4F45
:10041000CE010E94470BDE010D900020E9F71197F5
:1004200086E0EDE1F2E001900D928A95E1F76CEB48
:1004300074E0CE010E94470BCE0104DFD4DEDF91D1
:10044000CF911F910F91FF90EF90DF90CF90089583
:10045000FC01778B668B518F408F08950F931F930C
:10046000009799F1FC01A081B181109771F132964A
:100470008C91861326C011968C911197841321C0FC
:10048000013011052105310561F45296ED91FC9181
:1004900053973097D1F054968D919C91559719951B
:1004A00014C0012B022B032B81F45696ED91FC9185
:1004B0005797309751F058968D919C91599719956F
:1004C00004C0A191B191109799F61F910F910895D1
:1004D0000895682F8AE49EE02CD281E0089586E496
:1004E00099E013C2089586E499E003C20895CF937A
:1004F000C62F86E499E0FDD1C81718F086E499E08C
:10050000F8D180E0CF9108950895CF93DF9300D084
:10051000CDB7DEB79FEF99839A839B83811105C086
:1005200063E0CE01019622D40DC0813029F463E04E
:10053000CE01019626D406C0823021F463E0CE01BC
:1005400001962AD48FE19EE40197F1F700C00000E4
:100550000F900F900F90DF91CF910895CF93DF937D
:10056000EC0165E086E792E017D4FE0101900020DF
:10057000E9F73197BF016C1B7D0BCE010DD482E0F2
:10058000C4DF65E086E792E0F1D3FE010190002030
:10059000E9F73197BF016C1B7D0BCE01E7D362E019
:1005A00084E693E0E3D3DF91CF910895CF93DF9377
:1005B000EB01411122C0FC0101900020E9F73197C5
:1005C000BF01681B790BD2D365E08CE792E0CED3F4
:1005D00061E082E892E0CAD3FE0101900020E9F7D1
:1005E0003197BF016C1B7D0BCE01C0D361E082E867
:1005F00092E0BCD380E089DF47C0413011F5FC01B7
:1006000001900020E9F73197BF01681B790BB9D33E
:1006100065E08CE792E0B5D361E082E892E0B1D387
:10062000FE0101900020E9F73197BF016C1B7D0BA3
:10063000CE01A7D361E082E892E0A3D381E065DF39
:1006400023C0423009F5FC0101900020E9F7319701
:10065000BF01681B790BA0D365E08CE792E09CD3C7
:1006600061E082E892E098D3FE0101900020E9F772
:100670003197BF016C1B7D0BCE018ED361E082E808
:1006800092E08AD382E041DFDF91CF910895CF934A
:10069000DF93EB0141111AC0FC0101900020E9F742
:1006A0003197BF01681B790B61D365E08DE192E062
:1006B0005DD3FE0101900020E9F73197BF016C1B6B
:1006C0007D0BCE0153D380E020DF37C04130D1F421
:1006D000FC0101900020E9F73197BF01681B790BFD
:1006E00050D365E08DE192E04CD3FE0101900020F3
:1006F000E9F73197BF016C1B7D0BCE0142D381E03E
:1007000004DF1BC04230C9F4FC0101900020E9F76E
:100710003197BF01681B790B3FD365E08DE192E013
:100720003BD3FE0101900020E9F73197BF016C1B1C
:100730007D0BCE0131D382E0E8DEDF91CF910895C9
:10074000EF92FF920F931F93CF93DF937C018B0166
:10075000EA0121112DC064E084E892E007D3F7019B
:1007600001900020E9F73197BF016E197F09C70199
:10077000FDD261E089E892E0F9D2F8010190002011
:10078000E9F73197BF01601B710BC801EFD261E03F
:1007900089E892E0EBD2FE0101900020E9F7319761
:1007A000BF016C1B7D0BCE01E1D280E0AEDE5DC0EF
:1007B000213069F564E084E892E0E3D2F70101902A
:1007C0000020E9F73197BF016E197F09C701D9D21F
:1007D00061E089E892E0D5D2F80101900020E9F7C4
:1007E0003197BF01601B710BC801CBD261E089E872
:1007F00092E0C7D2FE0101900020E9F73197BF01D6
:100800006C1B7D0BCE01BDD281E07FDE2EC022307D
:1008100061F564E084E892E0BFD2F7010190002026
:10082000E9F73197BF016E197F09C701B5D261E0C1
:1008300089E892E0B1D2F80101900020E9F7319700
:10084000BF01601B710BC801A7D261E089E892E08B
:10085000A3D2FE0101900020E9F73197BF016C1B84
:100860007D0BCE0199D282E050DEDF91CF911F91B6
:100870000F91FF90EF900895CF93DF932A303105C9
:1008800039F02031310551F028303105F1F403C041
:100890002EE832E005C021E932E002C02BE832E068
:1008A000EC017F936F935F934F933F932F93DF936D
:1008B0008F931BD78C0F9D1F2DB73EB7285F3F4FDF
:1008C0000FB6F8943EBF0FBE2DBFDF91CF910895B4
:1008D00082E00895FC01118210820895FC0190814C
:1008E0008181981720F0981B892F80950895891B86
:1008F0000895FC0120819181291718F0822F891B0E
:100900000895892F821B80950895CF93DF93EC0182
:10091000F0DF882359F0898191E0980FFE01E80FFC
:10092000F11D82819F3F09F490E09983DF91CF917F
:1009300008950F931F93CF93DF93EC01162F088137
:10094000CDDF8823F1F3111101C01FEF81E0800F8B
:10095000FE01E00FF11D12838F3F09F480E08883D0
:1009600081E0DF91CF911F910F910895FF920F9336
:100970001F93CF93DF934423D9F0C42FD72FF62EA4
:100980008C01ACDF8C17F0F315C021E0290F3191F9
:10099000D801A90FB11D12963C932F3F11F4982F47
:1009A00001C0922F415088F7F801908381E00AC07E
:1009B00080E008C0F80190814FEF4C0FEF2DFD2F24
:1009C00080E0E3CFDF91CF911F910F91FF900895C9
:1009D0000000000008958DED8CBD1DBC8BE49FE0F0
:1009E00079DF88E49CE076DF789488EE94E0909359
:1009F000090580930805289A0895462F2898BC0178
:100A00008BE49FE0B3DF8BE49FE07FDF8EBD089532
:100A10001F920F920FB60F9211240BB60F922F93C5
:100A20003F934F935F936F937F938F939F93AF9376
:100A3000BF93EF93FF938BE49FE05BDF882329F064
:100A40008BE49FE062DF8EBD08C0E0910805F09165
:100A50000905309709F01995289AFF91EF91BF91F8
:100A6000AF919F918F917F916F915F914F913F9146
:100A70002F910F900BBE0F900FBE0F901F901895E7
:100A8000CF93DF9300D01F921F92CDB7DEB760687F
:100A900069835A834B833C832D8385B18823E9F393
:100AA00080EA8A95F1F765E0CE010196A6DF0F9006
:100AB0000F900F900F900F90DF91CF91089523E04A
:100AC00030E0A9016BE180E090E0DADF20E030E087
:100AD000A90167E180E090E0D3DF2FE93FE040E04B
:100AE00050E068E180E090E0CBDF25E035E040E0D9
:100AF00050E069E180E090E0C3DF27E030E040E0D3
:100B000050E06AE180E090E0BBDF20E031E040E0CF
:100B100058E16AE080E090E0B3DF20E130E0A90135
:100B200064E080E090E0ACDF20E030E040E050E2C4
:100B300065E080E090E0A4DF20E030E0A90166E01D
:100B400080E090E09DDF2BE431E0A90167E080E0E8
:100B500090E096DF26E63CE540E051E069E080E089
:100B600090E08EDF22EF3BE540E051E068E080E07E
:100B700090E086CF08950F931F93CF93DF93CDB767
:100B8000DEB72A970FB6F894DEBF0FBECDBF20E0C8
:100B900030E0A9016FE180E090E072DF2CE330E00B
:100BA00040E050E060E280E090E06ADF26EF3FEF57
:100BB0004FEF5FEF61E280E090E062DF22E030E043
:100BC00040E050E062E580E090E05ADF20EA3FE05C
:100BD00040E050E064E280E090E052DF28E030E066
:100BE00040E050E063E680E090E04ADF2CE330E054
:100BF00040E050E061E280E090E042DF00E010E0A1
:100C00004AE0BE016F5F7F4FC8014CD541E0BE0195
:100C10006F5F7F4F84E992E03ADD2FEF80E792E04B
:100C2000215080409040E1F700C000000F5F1F4F4F
:100C30000233110529F724EC3FEF4FEF5FEF61E23C
:100C400080E090E01DDF4AE0BE016F5F7F4FC8018A
:100C500029D541E0BE016F5F7F4F84E992E017DD47
:100C60002FEF80E792E0215080409040E1F700C0F4
:100C700000000F5F1F4F0436110529F720E030E018
:100C8000A90161E280E090E0FBDE20E030E0A90114
:100C900064E280E090E0F4DE2A960FB6F894DEBFBE
:100CA0000FBECDBFDF91CF911F910F91089500002E
:100CB00000000895EF92FF920F931F93CF93DF935D
:100CC0001092C50027E62093C4000F2EF1ECEF2E02
:100CD000F12CF02D98E9F701908386E08093C20013
:100CE0001092CD002093CC0009EC10E0F801908325
:100CF0008093CA001092D5002093D400C1EDD0E0BB
:100D000098838093D20080E195E0E4DD89E49DE062
:100D1000E1DD8BE296E0DEDD87E49AE0DBDD8AE46C
:100D20009EE0D8DD86E499E0D5DDF701808180681A
:100D30008083F801808180688083888180688883CF
:100D4000789487E596E090930F0580930E05909335
:100D50000B0580930A0590930D0580930C05DF9198
:100D6000CF911F910F91FF90EF900895462FBC01F6
:100D700080E195E0FBDDE1ECF0E080818062808342
:100D80000895462FBC018BE296E0F0DDE9ECF0E03F
:100D90008081806280830895462FBC018AE49EE0B2
:100DA000E5DDE1EDF0E080818062808308951F92AF
:100DB0000F920FB60F9211240BB60F922F933F9301
:100DC0004F935F936F937F938F939F93AF93BF9353
:100DD000EF93FF9380E195E08CDD882331F080E193
:100DE00095E093DD8093C6000CC0E1ECF0E08081DB
:100DF0008F7D8083E0910E05F0910F05309709F00B
:100E00001995FF91EF91BF91AF919F918F917F9134
:100E10006F915F914F913F912F910F900BBE0F906B
:100E20000FBE0F901F9018951F920F920FB60F9242
:100E300011240BB60F922F933F934F935F936F93B1
:100E40007F938F939F93AF93BF93EF93FF936091A3
:100E5000C60089E49DE06DDDFF91EF91BF91AF91F8
:100E60009F918F917F916F915F914F913F912F91C2
:100E70000F900BBE0F900FBE0F901F9018951F92F2
:100E80000F920FB60F9211240BB60F922F933F9330
:100E90004F935F936F937F938F939F93AF93BF9382
:100EA000EF93FF938BE296E024DD882331F08BE211
:100EB00096E02BDD8093CE000CC0E9ECF0E0808161
:100EC0008F7D8083E0910A05F0910B05309709F042
:100ED0001995FF91EF91BF91AF919F918F917F9164
:100EE0006F915F914F913F912F910F900BBE0F909B
:100EF0000FBE0F901F9018951F920F920FB60F9272
:100F000011240BB60F922F933F934F935F936F93E0
:100F10007F938F939F93AF93BF93EF93FF936091D2
:100F2000CE0087E49AE005DDFF91EF91BF91AF918C
:100F30009F918F917F916F915F914F913F912F91F1
:100F40000F900BBE0F900FBE0F901F9018951F9221
:100F50000F920FB60F9211240BB60F922F933F935F
:100F60004F935F936F937F938F939F93AF93BF93B1
:100F7000EF93FF938AE49EE0BCDC882331F08AE49F
:100F80009EE0C3DC8093D6000CC0E1EDF0E08081F0
:100F90008F7D8083E0910C05F0910D05309709F06D
:100FA0001995FF91EF91BF91AF919F918F917F9193
:100FB0006F915F914F913F912F910F900BBE0F90CA
:100FC0000FBE0F901F9018951F920F920FB60F92A1
:100FD00011240BB60F922F933F934F935F936F9310
:100FE0007F938F939F93AF93BF93EF93FF93609102
:100FF000D60086E499E09DDCFF91EF91BF91AF911F
:101000009F918F917F916F915F914F913F912F9120
:101010000F900BBE0F900FBE0F901F90189585B1CB
:10102000805885B9089585B1805885B9089570D0E4
:1010300075D0D1DC3FDE43DDECE2F9E08FEF808359
:1010400081EB8183CEE2D9E0FE0101900020E9F737
:10105000AF014F52594060E070E0CE0111D382E6FB
:1010600091E399838883E1E1F6E0108282E0818355
:10107000E3E1F6E001900020E9F7AF01445156406A
:1010800060E070E083E196E0FBD288E0E7E9F2E01F
:10109000A3E1B6E001900D928A95E1F7DBD86CE40C
:1010A00072E181E196E041D940914C1250914D128C
:1010B00060914E1270914F124C5E5F4F6F4F7F4F99
:1010C00081E196E072D940E050E06FE078E08CE298
:1010D00099E0BED940E050E063E178E081E196E03C
:1010E000B7D980E092E0D3D82FEF80E792E021508B
:1010F00080409040E1F700C000002ED0811152D016
:1011000069D08111CDD08FD1882359F306D2E9CF90
:1011100087E984B980E1809301010895A8EAB0E0ED
:1011200011961C921E921092A000E1EAF0E010824B
:101130001092A5001092A4008CE790E011969C9369
:101140008E9380818860808380818260808308950F
:1011500085B1805885B9089589E49DE0CADB88236C
:10116000F9F089E49DE0D1DB8D3069F4E0917A04F7
:10117000F0E0E45DF84F108210927A041092780447
:10118000E7DF81E0089590917A04E92FF0E0E45DD3
:10119000F84F80839F5F90937A04DADF80E00895B0
:1011A00080E008956BE080EA92E0E0DDECE2F7E0B9
:1011B00001900020E9F73197BF016C5277408CE233
:1011C00097E0D4DD62E084E693E0D0DD109279040C
:1011D000BFCF089587E49AE08CDB882309F44DC0E3
:1011E00087E49AE092DB8F3F29F59091750499236B
:1011F00019F0913009F046C0E0917704F0E0E95B26
:10120000F44F90819F3FD9F592E09093750420911F
:10121000770430E0F901E95BF44F90819F3F39F4A6
:10122000F901EA5BF44F90819F3F89F507C0109266
:10123000750416C090917504933091F4E091770491
:10124000F0E0E85BF44F1082DF0111971C923297B7
:10125000108210927704109275047ADF81E008956D
:1012600090917704E92FF0E0E85BF44F80839F5F73
:10127000909377046DDF80E0089580E008951092E8
:101280007504D8CF909175049230A1F6C0CFE0914B
:101290007704F0E0EA5BF44F90819F3F41F6E0CFA6
:1012A000CF93DF936BE08CEA92E060DDC8E4DBE093
:1012B000FE0101900020E9F73197BF0168547B409F
:1012C000CE0154DD62E084E693E050DD10927604B6
:1012D00088818F3F09F04AC08091490B813B09F01A
:1012E0009FC062E188EB92E041DD65E18BEC92E02A
:1012F0003DDDE5DB62E084E693E038DD68E181EE28
:1013000092E034DD41E06AEF72E086E093E04ED98E
:1013100064E082E693E02ADD68E189E093E026DD7F
:1013200041E062E273E08EE293E040D941E061E3A4
:1013300073E08DE393E03AD964E082E693E016DD52
:1013400021E040E453E062E473E085E493E0F8D9FF
:1013500021E040E453E062E473E081E192E0F0D9FF
:10136000F7DEE0EAF0E08081806180838091480BC5
:10137000873009F055C08091490B813009F050C089
:101380006DE189E493E0F2DC6FE187E693E0EEDC67
:1013900041E067E873E088ED93E008D964E082E615
:1013A00093E0E4DC61E28BED93E0E0DCE4DB62E01F
:1013B00084E693E0DBDC68E18DEF93E0D7DC86E147
:1013C00094E0CCD862E084E693E0D0DC2FEF87EAAB
:1013D00091E6215080409040E1F700C0000068E1B4
:1013E00088E194E0C3DC81E394E0B8D862E084E66D
:1013F00093E0BCDC6EE083E394E0B8DCA9DE62E05D
:1014000084E693E0B3DC6FE082E494E0AFDCE0EAF2
:10141000F0E080818F7E808362E084E693E0A6DC4A
:10142000DF91CF91089586E499E063DA882309F487
:1014300060C086E499E069DA8F3F51F590917204BB
:10144000992319F0913009F059C0E0917404F0E04B
:10145000E55BFF4E90819F3F09F04DC092E0909375
:1014600072042091740430E0F901E55BFF4E908135
:101470009F3F59F4F901E65BFF4E90819F3F09F0D1
:1014800042C083E08093720407C01092720425C0AA
:1014900090917204933009F5ECE4F0E101900020A2
:1014A000E9F73197BF016C5470418CE490E15EDC48
:1014B00062E084E693E05ADCE0917404F0E0E45BDF
:1014C000FF4E1082DF0111971C923297108210920A
:1014D00074041092720481E0089590917404E92FCD
:1014E000F0E0E45BFF4E80839F5F9093740480E0A4
:1014F000089580E0089510927204CACF909172040A
:10150000923031F6AECFE0917404F0E0E65BFF4E2E
:1015100090819F3F09F0B9CFE0CF64E182E594E08C
:1015200025DC1092730480914C108F3F09F04AC063
:1015300080914D10813B09F045C062E188EB92E05B
:1015400015DC65E18BEC92E011DCB9DA62E084E64F
:1015500093E00CDC68E181EE92E008DC42E06AEFA7
:1015600072E086E093E022D864E082E693E0FEDB5E
:1015700068E189E093E0FADB42E062E273E08EE248
:1015800093E014D842E061E373E08DE393E00ED87A
:1015900064E082E693E0EADB22E040E453E062E4C8
:1015A00073E085E493E0CCD822E040E453E062E4C9
:1015B00073E081E192E0C4D8CBDDE0EAF0E0808125
:1015C000806180838091480B873009F058C08091FA
:1015D000490B813009F053C06DE189E493E0C6DB2B
:1015E0006FE187E693E0C2DB42E067E873E088EDF5
:1015F00093E00E94D60264E082E693E0B7DB61E20A
:101600008BED93E0B3DBB7DA62E084E693E0AEDB28
:1016100068E18DEF93E0AADB86E194E00E94AE02E0
:1016200062E084E693E0A2DB2FEF87EA91E62150A7
:1016300080409040E1F700C0000068E188E194E05C
:1016400095DB81E394E00E94AE0262E084E693E0E1
:101650008DDB6EE083E394E089DB7ADD62E084E693
:1016600093E084DB6FE082E494E080DBE0EAF0E08A
:1016700080818F7E808362E084E693E077CB08955B
:10168000DC0101C06D9341505040E0F70895FB012B
:10169000DC010D900020E9F7119701900D920020D8
:1016A000E1F70895BB274A3031F4992322F4BDE2D3
:1016B000909581959F4F01C0BB27FB015527AA2715
:1016C000880F991FAA1FA41710F0A41B83955051CF
:1016D000B9F7A05DAA3308F0A95DA193009779F747
:1016E000B111B1931192CB0141C20F931F93CF93CC
:1016F000DF93CDB7DEB72E970FB6F894DEBF0FBEDF
:10170000CDBF0E891F8986E08C831A8309838FEFF2
:101710009FE79E838D83AE01465E5F4F688D798D16
:10172000CE01019610D0EF81F885E00FF11F1082F5
:101730002E960FB6F894DEBF0FBECDBFDF91CF91CE
:101740001F910F9108952F923F924F925F926F9247
:101750007F928F929F92AF92BF92CF92DF92EF9241
:10176000FF920F931F93CF93DF93CDB7DEB72B97E5
:101770000FB6F894DEBF0FBECDBF6C017B018A01AE
:10178000FC0117821682838181FFBFC1CE010196C1
:101790003C01F6019381F70193FD859193FF8191BF
:1017A0007F01882309F4ADC1853239F493FD859119
:1017B00093FF81917F01853221F4B60190E0E6D15B
:1017C000E8CF912C212C312CFFE1F315D8F08B328E
:1017D00079F038F4803279F08332A1F4232D20613E
:1017E0001DC08D3261F0803369F4232D216016C055
:1017F000832D8260382EE32DE4603E2E2AC0F32D27
:10180000F8601DC037FC2DC020ED280F2A3040F0B5
:101810008E32B9F436FC75C1232D2064322E19C0E6
:1018200036FE06C08AE0989E200D1124922E11C02B
:10183000EAE02E9E200D1124222EF32DF0623F2E81
:1018400008C08C3621F4832D8068382E02C088367B
:1018500041F4F70193FD859193FF81917F018111FF
:10186000B3CF982F9F7D9554933028F40C5F1F4F72
:101870009FE399830DC0833631F0833771F0833550
:1018800009F055C020C0F801808189830E5F1F4F89
:1018900088248394912C530112C02801F2E04F0E4A
:1018A000511CF801A080B18036FE03C0692D70E0A4
:1018B00002C06FEF7FEFC5014ED14C018201F32DC5
:1018C000FF773F2E15C0280122E0420E511CF8017F
:1018D000A080B18036FE03C0692D70E002C06FEFBA
:1018E0007FEFC5012DD14C01F32DF0683F2E820111
:1018F00033FC19C0822D90E088169906A0F4B60139
:1019000080E290E043D12A94F5CFF50137FC859130
:1019100037FE81915F01B60190E038D121102A9401
:1019200021E0821A91088114910479F7E1C084368C
:1019300011F0893639F5F80137FE07C060817181F1
:10194000828193810C5F1F4F08C060817181072ED7
:10195000000C880B990B0E5F1F4FF32DFF763F2E67
:1019600097FF09C090958095709561957F4F8F4F37
:101970009F4FF0683F2E2AE030E0A30143D1882E2C
:10198000861844C0853731F4232D2F7EB22E2AE0ED
:1019900030E025C0932D997FB92E8F36C1F018F411
:1019A000883579F0AEC0803719F0883721F0A9C0AA
:1019B000E92FE061BE2EB4FE0DC0FB2DF460BF2EFA
:1019C00009C034FE0AC0292F2660B22E06C028E0C6
:1019D00030E005C020E130E002C020E132E0F80153
:1019E000B7FE07C060817181828193810C5F1F4FB8
:1019F00006C06081718180E090E00E5F1F4FA301FF
:101A000001D1882E8618FB2DFF773F2E36FE0DC0A4
:101A1000232D2E7FA22E891458F434FE0BC032FCE5
:101A200009C0832D8E7EA82E05C0B82CA32C03C020
:101A3000B82C01C0B92CA4FE0FC0FE01E80DF11DA9
:101A40008081803321F49A2D997EA92E09C0A2FEAF
:101A500006C0B394B39404C08A2D867809F0B39479
:101A6000A3FC10C0A0FE06C0B21480F4280C922C77
:101A70009B180DC0B21458F4B60180E290E086D0F5
:101A8000B394F8CFB21418F42B1802C0982C212C60
:101A9000A4FE0FC0B60180E390E078D0A2FE16C08D
:101AA000A1FC03C088E790E002C088E590E0B601A1
:101AB0000CC08A2D867851F0A1FE02C08BE201C0D5
:101AC00080E2A7FC8DE2B60190E060D0891430F48A
:101AD000B60180E390E05AD09A94F8CF8A94F3014B
:101AE000E80DF11D8081B60190E050D08110F6CF55
:101AF000222009F44ECEB60180E290E047D02A942D
:101B0000F7CFF6018681978102C08FEF9FEF2B966A
:101B10000FB6F894DEBF0FBECDBFDF91CF911F91FE
:101B20000F91FF90EF90DF90CF90BF90AF909F907C
:101B30008F907F906F905F904F903F902F9008957F
:101B4000FC010590615070400110D8F78095909588
:101B50008E0F9F1F0895FC0161507040019001108D
:101B6000D8F7809590958E0F9F1F0895DC01FC019A
:101B7000672F71917723E1F7329704C07C916D93C1
:101B800070836291AE17BF07C8F308950F931F9338
:101B9000CF93DF93FB01238121FD03C08FEF9FEFE4
:101BA0002CC022FF16C046815781248135814217FF
:101BB000530744F4A081B1819D012F5F3F4F3183D2
:101BC00020838C93268137812F5F3F4F3783268375
:101BD00014C08B01EC01FB010084F185E02D199507
:101BE000892BE1F6D80116968D919C911797019655
:101BF00017969C938E931697CE01DF91CF911F91EC
:101C00000F910895FA01AA27283051F1203181F16E
:101C1000E8946F936E7F6E5F7F4F8F4F9F4FAF4FF4
:101C2000B1E03ED0B4E03CD0670F781F891F9A1F07
:101C3000A11D680F791F8A1F911DA11D6A0F711DBB
:101C4000811D911DA11D20D009F468943F912AE0C7
:101C5000269F11243019305D3193DEF6CF010895AF
:101C6000462F4770405D4193B3E00FD0C9F7F6CFE0
:101C7000462F4F70405D4A3318F0495D31FD4052A8
:101C8000419302D0A9F7EACFB4E0A695979587953E
:101C900077956795BA95C9F700976105710508951D
:101CA0009B01AC010A2E06945795479537952795C9
:101CB000BA95C9F7620F731F841F951FA01D089561
:041CC000F894FFCFC6
:101CC4002C091106626B636D643D310070616765B8
:101CD40020300067657420002E76616C002E7661DA
:101CE4006C3D002E62636F002E62636F3D0072656F
:101CF4006620002E70636F002E70636F3D002E7798
:101D04006964002E7769643D002E686967002E6857
:101D140069673D002E6D617876616C002E6D617887
:101D240076616C3D002E6D696E76616C002E6D6976
:101D34006E76616C3D007061676520002E74787466
:101D44003D00220070696320002C00257800257571
:101D540000256F006A30004D79536C696465720028
:101D6400456D7066616E67656E303A00456D7066EC
:101D7400616E67656E313A00426567696E6E205424
:101D8400657374733A200D0A0D0A00496E6974690B
:101D9400616C69736965726520544D433A200D0A7C
:101DA400005365747A6520546578742044697370AF
:101DB4006C617920313A200D0A004C656D6F6E20FC
:101DC400536F646131006231005365747A65205445
:101DD40065787420446973706C617920323A200DFF
:101DE4000A004C656D6F6E20536F6461320062307F
:101DF400004C656D6F6E20536F6461330074300066
:101E0400370038300032353000426567696E6E2025
:101E140050726F6772616D6D61626C6175663A20B4
:101E24000D0A0D0A0D0A00556E74657268616C74B2
:101E3400756E67737465787420736368726569621C
:101E4400656E3A200D0A005775737374656E2053DE
:101E540069652C2064617373206469657365725CC1
:101E6400724472696E6B20696E20756E746572209F
:101E740065696E6572204D696E7574655C7268651E
:101E84007267657374656C6C7420776972643F5C07
:101E9400724E696368743F00743100544D43206985
:101EA4006D204F70656E6C6F6F70206C6175666528
:101EB4006E206C617373656E3A200D0A004175667D
:101EC4002053656974652039207765636873656C90
:101ED4006E3A200D0A003900417566205365697415
:101EE400652034207765636873656C6E3A200D0A4B
:101EF400003400546F67676C65204C45443A200DEC
:101F04000A00386B487A2D5369676E616C3A200D6C
:101F14000A0050726F636565642055415254203243
:081F24003A200D0A0D0A00002D
:00000001FF
