:1000000071C0000090C000008EC000008CC00000D5
:100010008AC0000088C0000086C0000084C00000C4
:1000200082C0000080C000007EC000007CC00000D4
:100030007AC0000078C0000076C0000074C00000E4
:1000400072C0000070C000006EC000006CC00000F4
:100050006AC0000068C0000066C0000064C0000004
:10006000FFC600000C94D2080C948F085CC00000FE
:100070005AC0000058C0000056C0000054C0000024
:1000800052C0000050C000004EC000004CC0000034
:100090000C943A090C94FD0846C0000044C00000CE
:1000A00042C0000040C000003EC000003CC0000054
:1000B0003AC0000038C0000036C0000034C0000064
:1000C00032C0000030C000002EC000000C94A20915
:1000D0000C94650928C000000C940A0A0C94CD0900
:1000E00022C0000011241FBECFEFD1E2DEBFCDBF82
:1000F00000E00CBF17E0A0E0B2E0EAE1FDE100E0C3
:100100000BBF02C007900D92A23BB107D9F727E1C0
:10011000A2EBB7E001C01D92AF3DB207E1F70E942C
:10012000350A0C948B0E6CCF85E396E0D0D7F5D6CC
:1001300041E06BE476E087E596E061D341E06AE573
:1001400076E086E696E05BD341E069E676E085E717
:1001500096E055D321E048E756E06AE776E08DE780
:1001600096E0ABD321E048E756E06AE776E08FE718
:1001700096E0A3D30E942D0BE0EAF0E0808180613D
:100180008083089581E896E0A2D741E067E976E0B0
:1001900088EE96E034D38BEE96E013D32FEF87EA08
:1001A00091E6215080409040E1F700C000008DEEC4
:1001B00096E007D30E942D0BE0EAF0E080818F7E6D
:1001C000808308958F3F21F4613B39F4ADCF0895CA
:1001D000873019F4613009F4D5CF089578D788E4D1
:1001E00096E075D7A29A81E090E09093C60780933D
:1001F000C5070895AF92BF92CF92DF92EF92FF9220
:100200000F931F93CF93DF937C01C62ED72EB42E6E
:10021000A22E68E070E081E090E00E941C0DEC01ED
:10022000F70101900020E9F731978F010E191F099E
:1002300061E070E0C80101960E941C0D99838883DB
:1002400061E070E08DE090E00E941C0D9D838C8346
:10025000AB82BA821F821E8201151105D1F0D7012F
:10026000A80180E090E02D91E881F981E80FF91F65
:100270002083019684179507B1F70BC02D91EC816F
:10028000FD81E80FF91F208301968C309105B1F7AD
:1002900011C00F5F1F4FF701E00FF11F8081288110
:1002A0003981F901E00FF11F8083AC2DBD2D80E075
:1002B00090E0E4CFEC81FD811586CE01DF91CF91F6
:1002C0001F910F91FF90EF90DF90CF90BF90AF9074
:1002D00008954F925F926F927F928F929F92AF920A
:1002E000BF92CF92DF92EF92FF920F931F93CF9323
:1002F000DF93CDB7DEB72C970FB6F894DEBF0FBEF5
:10030000CDBF5C014DB65EB60E94830EC82ED12CC7
:100310008DB79EB78C199D090FB6F8949EBF0FBE7E
:100320008DBFEDB7FEB731963F011C141D04E4F4F8
:100330007501FFEFEF1AFF0A830143018C0C9D1C2E
:10034000C7010E94830EF80181938F018FE19EE423
:100350000197F1F700C000009FEFE91AF90AE815CC
:10036000F90571F7F60102C0E0E0F0E0E60DF71DD7
:100370001082EFE1FEE43197F1F700C00000460182
:10038000FCE08F0E911CC814D9042CF586010F5F78
:100390001F4F0A0D1B1DEE24E394F12CEC0EFD1EE5
:1003A000EC0CFD1C640181E090E08C0F9D1FC80ED9
:1003B000D91EC8010E94830EF70181937F018FE14E
:1003C0009EE40197F1F700C000000F5F1F4FEC158E
:1003D000FD0579F701C04601E1E0F0E0EC0FFD1FFB
:1003E000E80DF91D1082EFE1FEE43197F1F700C04E
:1003F0000000C40102968A0D9B1D0E94830E182FD7
:10040000C40103968A0D9B1D0E94830EEFE1FEE45A
:100410003197F1F700C00000282F412FBE016F5F18
:100420007F4FC301E7DEF4E08F0E911CA80CB91CCE
:10043000B092C007A092BF070FB6F8945EBE0FBE81
:100440004DBE2C960FB6F894DEBF0FBECDBFDF9128
:10045000CF911F910F91FF90EF90DF90CF90BF90C1
:10046000AF909F908F907F906F905F904F90089586
:10047000CF93DF930DC0CE012CDF2091C3073091C5
:10048000C407FC01378326839093C4078093C30776
:10049000C091BF07D091C007CE010E94830E811189
:1004A000EACFDF91CF910895AF92BF92CF92DF92C2
:1004B000EF92FF921F93CF93DF93CDB7DEB7CA566B
:1004C000D5400FB6F894DEBF0FBECDBF1092C00767
:1004D0001092BF078AE194E0E6E0F2E0DE011196B7
:1004E00001900D920197E1F77E0125EEE21A2BEFC4
:1004F000F20A8BE391E0F7019C0111922150304008
:10050000E1F78BE4F701808379E1738781E2838BE4
:1005100052E2568B828F92E4968F91E195A391A738
:100520006CE367A797E091AB80AF9FE0C55ADB4FC4
:100530009883CB55D440C35ADB4F9883CD55D440D4
:1005400036E4C15ADB4F3883CF55D44088E2C759CF
:10055000DB4F8883C956D440C559DB4F9883CB56AF
:10056000D44025E0C459DB4F2883CC56D440C2592F
:10057000DB4F8883CE56D440C958DB4F3883C757EA
:10058000D4404EE1C158DB4F4883CF57D440CB57BE
:10059000DB4F3883C558D440C257DB4F4883CE5811
:1005A000D44083E2C956DB4F8883C759D440C45630
:1005B000DB4F8883CC59D440C256DB4F4883CE5999
:1005C000D440C955DB4F7883C75AD440C555DB4F5B
:1005D0005883CB5AD44059E2C355DB4F5883CD5A88
:1005E000D440CC54DB4F8883C45BD440C954DB4F28
:1005F0002883C75BD440C754DB4F6883C95BD440B2
:1006000051E4CD53DB4F5883C35CD440C553DB4F1B
:100610008883CB5CD4405AE0CC52DB4F5883C45D16
:10062000D440C952DB4F6883C75DD440C752DB4F0B
:100630004883C95DD440CF51DB4F9883C15ED4401D
:10064000CD51DB4F5883C35ED440CC51DB4F288360
:10065000C45ED440C851DB4F3883C85ED440CE500E
:10066000DB4F9883C25FD44092E3CB50DB4F98833B
:10067000C55FD440CA50DB4F8883C65FD44084E650
:10068000C450DB4F8883CC5FD440C45FDA4F88838B
:10069000CC50D540C35EDA4F8883CD51D540C75D7D
:1006A000DA4F9883C952D540C65DDA4F9883CA5253
:1006B000D5408FE5C75CDA4F8883C953D540C25C0B
:1006C000DA4F2883CE53D5408DE2C95BDA4F888359
:1006D000C754D540C75BDA4F8883C954D540C35B44
:1006E000DA4F5883CD54D54085E1E0E2F6E0DE01F3
:1006F000AA5ABA4F01900D928A95E1F71092C40759
:100700001092C3079E012A5A3A4F5901CE01019611
:100710006C0110E0F50121915F01412FB701C60185
:1007200069DD2091C3073091C407FC01378326831C
:100730009093C4078093C307F2E3CF0ED11C2FE040
:10074000E20EF11C1F5F153129F780E090E090DE8A
:10075000C659DA4F0FB6F894DEBF0FBECDBFDF919A
:10076000CF911F91FF90EF90DF90CF90BF90AF900F
:100770000895CF93DF9300D0CDB7DEB79FEF998375
:100780009A839B83811104C0CE010196A0D40DC031
:10079000813029F463E0CE010196ABD406C08230EB
:1007A00021F463E0CE010196AFD48FE19EE401977E
:1007B000F1F700C000000F900F900F90DF91CF91E4
:1007C0000895CF93DF93EC0165E08FEE96E091D42E
:1007D000FE0101900020E9F73197BF016C1B7D0BF2
:1007E000CE0187D481E0C5DF8FEE96E070D4CE01D4
:1007F0006ED488E496E06BD4DF91CF910895CF93C7
:10080000DF93EB0141110FC062D485EF96E05FD416
:100810008BEF96E05CD4CE015AD48BEF96E057D4A0
:1008200080E0A7DF47C0413011F5FC0101900020B6
:10083000E9F73197BF01681B790B5BD465E085EF61
:1008400096E057D461E08BEF96E053D4FE0101901F
:100850000020E9F73197BF016C1B7D0BCE0149D415
:1008600061E08BEF96E045D481E083DF23C0423026
:1008700009F5FC0101900020E9F73197BF01681BE1
:10088000790B42D465E085EF96E03ED461E08BEFD2
:1008900096E03AD4FE0101900020E9F73197BF01BC
:1008A0006C1B7D0BCE0130D461E08BEF96E02CD435
:1008B00082E05FDFDF91CF910895EF92FF920F9377
:1008C0001F93CF93DF937C018B01EA01211112C0AA
:1008D00083E097E0FCD3C701FAD388E097E0F7D331
:1008E000C801F5D388E097E0F2D3CE01F0D380E0E1
:1008F00040DF5DC0213069F564E083E097E0F9D323
:10090000F70101900020E9F73197BF016E197F09C7
:10091000C701EFD361E088E097E0EBD3F8010190E5
:100920000020E9F73197BF01601B710BC801E1D3CB
:1009300061E088E097E0DDD3FE0101900020E9F757
:100940003197BF016C1B7D0BCE01D3D381E011DF4A
:100950002EC0223061F564E083E097E0D5D3F70143
:1009600001900020E9F73197BF016E197F09C70197
:10097000CBD361E088E097E0C7D3F8010190002075
:10098000E9F73197BF01601B710BC801BDD361E06E
:1009900088E097E0B9D3FE0101900020E9F7319794
:1009A000BF016C1B7D0BCE01AFD382E0E2DEDF9195
:1009B000CF911F910F91FF90EF900895CF93C62F85
:1009C0004098880F8E7784D28C2F82D2409ACF9114
:1009D00008954098880F8E7780687AD280E078D228
:1009E000409A08956FE081E0E9CF0895FBDF6DE85C
:1009F0008AE2E4DF6EE38BE2E1DF6EE18CE2DEDFD0
:100A000060E08DE2DBDF60E485E1D8DF6DE381E16A
:100A1000D5DF84E1DEDF982F937021F4682F6360C7
:100A200084E1CCCF08953F924F925F926F927F9274
:100A30008F929F92AF92BF92CF92DF92EF92FF92EE
:100A40000F931F93CF93DF93982EF62EE72E442E0D
:100A5000822E332E58018CE0981609F4BAC0EEE0CD
:100A60009E1203C010E102E102C010E000E084E049
:100A7000B0DF682F6F7784E0A1DF8AE0AADF682FFC
:100A800060688AE09BDF60E081E098DF512C612C98
:100A9000712C411451046104710419F414C010E361
:100AA00007E7CF2DDE2DC12CD12C7601699189E08D
:100AB00085DFFFEFCF1ADF0AEF0AFF0AC414D5045F
:100AC000E604F70498F3692D81E078DF8CE0981252
:100AD00006C08DE07EDF682F60688DE06FDF84E008
:100AE00078DFF82EC0E0D0E0116009C084E071DF4B
:100AF000F82E2196CF3CE7E0DE0709F483C0812F72
:100B00008F21A1F387C00170F02211F0C2E001C073
:100B1000C1E0FCE09F128AC08AE05BDF482E8CE0D7
:100B200058DF282F2770A9F0842D90E00197880FB7
:100B3000991F880F991F880F991F820F911D092EE9
:100B4000000CAA0BBB0BF50180839183A283B383B6
:100B500011C0842D90E0880F991F880F991F880F6E
:100B6000991F092E000CAA0BBB0BF5018083918302
:100B7000A283B383442071F0842D813108F080E199
:100B8000482E512C612C712C4114510461047104C4
:100B900029F44CC0412C512C32014394082D132DC3
:100BA000C12CD12C760189E014DFF80181938F01EB
:100BB000FFEFCF1ADF0AEF0AFF0AC414D504E604D8
:100BC000F70488F333C06CE081E0F8DE10E307E758
:100BD00080CF84E0FEDE682F6F7784E0EFDE8AE06E
:100BE000F8DE682F60688AE0E9DE60E081E0E6DE3A
:100BF000512C612C712C411451046104710409F0D1
:100C00004ECFE1CF8DE0E5DE682F6F778DE0D6DE49
:100C1000C3E00CC08DE0DDDE682F6F778DE0CEDEA7
:100C200086E0D7DE8B7109F46ECFC3E08C2FDF91A5
:100C3000CF911F910F91FF90EF90DF90CF90BF90D9
:100C4000AF909F908F907F906F905F904F903F906C
:100C50000895EF92FF920F931F93CF93DF9300D0ED
:100C60001F92CDB7DEB7182F7B0167E08DE0A6DEBF
:100C7000F70110838E010F5F1F4F970141E0B7010D
:100C80008CE0D1DE813059F449815A816B817C81BD
:100C9000403151056105710519F083E001C083E021
:100CA0000F900F900F900F90DF91CF911F910F91A8
:100CB000FF90EF900895EF92FF920F931F93CF93C1
:100CC000DF9300D01F92CDB7DEB77C0160E08DE0EE
:100CD00075DE83E9F701808380E281838E010F5FF7
:100CE0001F4F970142E0B7018CE09DDE813071F427
:100CF000F701A7014C5F5F4F90E0219192274E17BB
:100D00005F07D9F7F7012481921383E00F900F90CA
:100D10000F900F90DF91CF911F910F91FF90EF9067
:100D20000895FC01118210820895FC019081818157
:100D3000981720F0981B892F80950895891B089596
:100D4000FC0120819181291718F0822F891B0895B9
:100D5000892F821B80950895CF93DF93EC01F0DFFC
:100D6000882359F0898191E0980FFE01E80FF11D69
:100D700082819F3F09F490E09983DF91CF9108959C
:100D80000F931F93CF93DF93EC01162F0881CDDFD4
:100D90008823F1F3111101C01FEF81E0800FFE01E4
:100DA000E00FF11D12838F3F09F480E0888381E01A
:100DB000DF91CF911F910F910895FF920F931F9391
:100DC000CF93DF934423D9F0C42FD72FF62E8C0175
:100DD000ACDF8C17F0F315C021E0290F3191D80159
:100DE000A90FB11D12963C932F3F11F4982F01C00B
:100DF000922F415088F7F801908381E00AC080E08B
:100E000008C0F80190814FEF4C0FEF2DFD2F80E0CF
:100E1000E3CFDF91CF911F910F91FF9008950000D4
:100E20000000089581E58CBD1DBC89ED93E179DF5B
:100E300086ED90E176DF78948FE097E09093C80795
:100E40008093C7072D9A289A0895462F2D98BC01A4
:100E500089ED93E1B2DF89ED93E17EDF8EBD0895E8
:100E60001F920F920FB60F9211240BB60F922F9371
:100E70003F934F935F936F937F938F939F93AF9322
:100E8000BF93EF93FF9389ED93E15ADF882329F015
:100E900089ED93E161DF8EBD08C0E091C707F09155
:100EA000C807309709F019952D9AFF91EF91BF91DE
:100EB000AF919F918F917F916F915F914F913F91F2
:100EC0002F910F900BBE0F900FBE0F901F90189593
:100ED0008EBD0DB407FEFDCF8EB50895CF93DF9381
:100EE00000D01F921F92CDB7DEB7606869835A8326
:100EF0004B833C832D8385B18823E9F380EA8A956F
:100F0000F1F765E0CE010196A0DF0F900F900F90F2
:100F10000F900F90DF91CF91089523E030E0A90169
:100F20006BE180E090E0DADF20E030E0A90167E1EA
:100F300080E090E0D3DF2FE93FE040E050E068E15F
:100F400080E090E0CBDF25E035E040E050E069E173
:100F500080E090E0C3DF27E030E040E050E06AE16D
:100F600080E090E0BBDF20E031E040E058E16AE063
:100F700080E090E0B3DF20E130E0A90164E080E0B0
:100F800090E0ACDF20E030E040E050E265E080E05F
:100F900090E0A4DF20E030E0A90166E080E090E08E
:100FA0009DDF2BE431E0A90167E080E090E096DF6F
:100FB00026E63CE540E051E069E080E090E08EDF2D
:100FC00022EF3BE540E051E068E080E090E086CF32
:100FD0000895000000000895CF92DF92EF92FF92F3
:100FE0000F931F93CF93DF931092C50027E62093B2
:100FF000C4000F2EF1ECCF2ED12CF02D98E9F60184
:10100000908386E08093C2001092CD002093CC00A4
:101010000F2EF9ECEF2EF12CF02DF7019083809339
:10102000CA001092D5002093D40001ED10E0F80121
:1010300090838093D2001092350120933401C1E354
:10104000D1E098838093320181ED97E06ADE87EDED
:1010500091E167DE82ED98E064DE84ED9DE061DE83
:1010600088ED92E15EDE83ED9CE05BDE85ED9EE047
:1010700058DE8AED94E155DEF60180818068808338
:10108000F701808180688083F80180818068808397
:10109000888180688883789489EE97E09093D00760
:1010A0008093CF079093CA078093C9079093CC078A
:1010B0008093CB079093CE078093CD07DF91CF919C
:1010C0001F910F91FF90EF90DF90CF900895FC015A
:1010D00001900020E9F73197AF01481B590BBC0183
:1010E00081ED97E06ADEE1ECF0E080818062808350
:1010F0000895462FBC0182ED98E05FDEE9ECF0E058
:101100008081806280830895462FBC0188ED92E142
:1011100054DEE1EDF0E080818062808308951F92CB
:101120000F920FB60F9211240BB60F922F933F938D
:101130004F935F936F937F938F939F93AF93BF93DF
:10114000EF93FF9381ED97E0FBDD882361F081ED64
:1011500097E002DE8093C6008FE99FE00197F1F7E8
:1011600000C000000CC0E1ECF0E080818F7D808346
:10117000E091CF07F091D007309709F01995FF91D2
:10118000EF91BF91AF919F918F917F916F915F91FF
:101190004F913F912F910F900BBE0F900FBE0F906C
:1011A0001F9018951F920F920FB60F9211240BB635
:1011B0000F922F933F934F935F936F937F938F93F0
:1011C0009F93AF93BF93EF93FF936091C60087ED1A
:1011D00091E1D6DDFF91EF91BF91AF919F918F91FA
:1011E0007F916F915F914F913F912F910F900BBE27
:1011F0000F900FBE0F901F9018951F920F920FB671
:101200000F9211240BB60F922F933F934F935F933E
:101210006F937F938F939F93AF93BF93EF93FF93BE
:1012200082ED98E08DDD882331F082ED98E094DD49
:101230008093CE000CC0E9ECF0E080818F7D80834C
:10124000E091C907F091CA07309709F01995FF910D
:10125000EF91BF91AF919F918F917F916F915F912E
:101260004F913F912F910F900BBE0F900FBE0F909B
:101270001F9018951F920F920FB60F9211240BB664
:101280000F922F933F934F935F936F937F938F931F
:101290009F93AF93BF93EF93FF936091CE0084ED44
:1012A0009DE06EDDFF91EF91BF91AF919F918F9186
:1012B0007F916F915F914F913F912F910F900BBE56
:1012C0000F900FBE0F901F9018951F920F920FB6A0
:1012D0000F9211240BB60F922F933F934F935F936E
:1012E0006F937F938F939F93AF93BF93EF93FF93EE
:1012F00088ED92E125DD882331F088ED92E12CDD47
:101300008093D6000CC0E1EDF0E080818F7D80837A
:10131000E091CB07F091CC07309709F01995FF9138
:10132000EF91BF91AF919F918F917F916F915F915D
:101330004F913F912F910F900BBE0F900FBE0F90CA
:101340001F9018951F920F920FB60F9211240BB693
:101350000F922F933F934F935F936F937F938F934E
:101360009F93AF93BF93EF93FF936091D60083ED6C
:101370009CE006DDFF91EF91BF91AF919F918F911E
:101380007F916F915F914F913F912F910F900BBE85
:101390000F900FBE0F901F9018951F920F920FB6CF
:1013A0000F9211240BB60F922F933F934F935F939D
:1013B0006F937F938F939F93AF93BF93EF93FF931D
:1013C00085ED9EE0BDDC882331F085ED9EE0C4DC38
:1013D0008093D6000CC0E1E3F1E080818F7D8083B3
:1013E000E091CD07F091CE07309709F01995FF9164
:1013F000EF91BF91AF919F918F917F916F915F918D
:101400004F913F912F910F900BBE0F900FBE0F90F9
:101410001F9018951F920F920FB60F9211240BB6C2
:101420000F922F933F934F935F936F937F938F937D
:101430009F93AF93BF93EF93FF93609136018AED33
:1014400094E19EDCFF91EF91BF91AF919F918F91BD
:101450007F916F915F914F913F912F910F900BBEB4
:101460000F900FBE0F901F901895CF93DF93CDB7BD
:10147000DEB760970FB6F894DEBF0FBECDBFC2D007
:10148000D2D0D0DCA9DD49DDB1DA0ED81092C60782
:101490001092C50787E39DDA823939F48AE097E034
:1014A00016DE8CE197E013DE0DC08059823038F4EF
:1014B00088E297E00CDE8CE197E009DE03C08AE366
:1014C00097E005DE0F2EF6E0EF2EFF24F394F02DCB
:1014D00033C0F701808180729091B60791112AC0C4
:1014E000882341F14091B2075091B3076091B4074E
:1014F0007091B5078A019B010F5F1F4F2F4F3F4F20
:101500000093B2071093B3072093B4073093B50745
:10151000433351056105710568F0A2981092B20736
:101520001092B3071092B4071092B5071092C60735
:101530001092C5078093B6078091C5079091C607A2
:10154000892B39F682E045DA682F606282E036DA6C
:1015500083E03FDA682F606883E030DABE016F5FB6
:101560007F4F82E576DB813009F03DC0CE010196E8
:10157000A2DBCE010196ABDD8DE497E0A8DD898189
:10158000813041F18B81823099F088E597E08FD3EB
:10159000FC0101900020E9F73197AF01481B590B7E
:1015A00000E010E020E030E0BC018CE03CDA12C04A
:1015B0008BE597E07CD3FC0101900020E9F731979F
:1015C000AF01481B590B00E010E020E030E0BC0107
:1015D0008CE029DACE0101966EDBCE01019677DD33
:1015E0008EE597E074DD41D081116ED08BD08111F2
:1015F000FBD00AD181117AD189D1882309F49CCFFB
:101600000BD29ACF86EB84B988E6809301018CEFE8
:1016100081B984E083BB8CE78093040181E087B9C2
:10162000109207010895A8EAB0E011961C921E924C
:101630001092A000E1EAF0E010821092A500109252
:10164000A4008CE790E011969C938E938081886033
:101650008083808182608083089585B1805885B9B8
:1016600091B388E7892781BB08951F93CF93DF93B8
:10167000D0E0C0E011E01EC087ED91E16DDB8D3060
:1016800069F4E091BE07F0E0ED52F64F1082C0938E
:10169000BE07C093BD07E1DFD12F0CC09091BE07FC
:1016A000E92FF0E0ED52F64F80839F5F9093BE07E5
:1016B000D4DFDC2F87ED91E143DB8111DDCF8D2F6E
:1016C000DF91CF911F910895CF93DF938CE697E040
:1016D000FEDC83ED99E00E94EE00A3EDB9E080E02E
:1016E00090E0ED0102C01D920196FE0101900020E4
:1016F000E9F73197E35DF9408E179F07A0F3DF917B
:10170000CF9108950F931F93CF93DF9300E0C0E034
:10171000D1E012E04CC084ED9DE01EDB8F3F29F547
:101720009091BB07992319F0913009F049C0E091DD
:10173000BC07F0E0EB52F04F90819F3F09F03DC0B5
:101740001093BB072091BC0730E0F901EB52F04F3A
:1017500090819F3F39F4F901EC52F04F90819F3F07
:10176000A1F507C0C093BB0716C09091BB0793308B
:1017700091F4E091BC07F0E0EA52F04F1082DF01F3
:1017800011971C9232971082C093BC07C093BB077D
:1017900064DF0D2F0CC09091BC07E92FF0E0EA52F6
:1017A000F04F80839F5F9093BC0757DF0C2F84ED31
:1017B0009DE0C6DA8111AFCF11C0C093BB07D5CF72
:1017C0009091BB07923089F6BDCFE091BC07F0E065
:1017D000EC52F04F90819F3F29F6DDCF802FDF91B3
:1017E000CF911F910F9108958FE797E070DC86ED00
:1017F0009FE06DDC88E496E06ADCE6EDFFE0618165
:1018000080810C94E20008950F931F93CF93DF9390
:1018100000E0C0E0D1E012E04CC083ED9CE09CDA37
:101820008F3F29F59091B907992319F0913009F06C
:1018300049C0E091BA07F0E0E652FA4E90819F3F2E
:1018400009F03DC01093B9072091BA0730E0F901C3
:10185000E652FA4E90819F3F39F4F901E752FA4E71
:1018600090819F3FA1F507C0C093B90716C0909122
:10187000B907933091F4E091BA07F0E0E552FA4EDF
:101880001082DF0111971C9232971082C093BA0721
:10189000C093B907E2DE0D2F0CC09091BA07E92F73
:1018A000F0E0E552FA4E80839F5F9093BA07D5DE51
:1018B0000C2F83ED9CE044DA8111AFCF11C0C093AF
:1018C000B907D5CF9091B907923089F6BDCFE09195
:1018D000BA07F0E0E752FA4E90819F3F29F6DDCF3C
:1018E000802FDF91CF911F910F91089580E997E0AC
:1018F000EEDB8BED95E1EBDB88E496E0E8DBEBEDEE
:10190000F5E1618180810C94E20008950F931F93AB
:10191000CF93DF9300E0C0E0D1E012E055C08AED44
:1019200094E11ADA8F3F71F59091B707911103C0D6
:10193000D093B70703C0913009F054C02091B80785
:1019400030E0F901EE52F54F90819F3F09F042C01F
:101950001093B70703C0C093B70714C02091B8070E
:1019600030E0F901EE52F54F90819F3F41F4F901CB
:10197000EF52F54F90819F3F09F03EC007C0C093E2
:10198000B70716C09091B707933091F4E091B8076C
:10199000F0E0ED52F54F1082DF0111971C92329763
:1019A0001082C093B807C093B70757DE0D2F0CC045
:1019B0009091B807E92FF0E0ED52F54F80839F5FDB
:1019C0009093B8074ADE0C2F8AED94E1B9D98111C2
:1019D000A6CF1CC0F901E053F54F90819F3F09F05D
:1019E000BACF05C09091B707923061F6B7CF90910A
:1019F000B707923039F6C3CFE091B807F0E0EF5265
:101A0000F54F90819F3F09F0BACFD2CF802FDF9161
:101A1000CF911F910F91089581EA97E058DB83EDF4
:101A20009AE055DB88E496E052DBE3EDFAE0618171
:101A300080810C94E20008950F931F93CF93DF935E
:101A4000869F8001879F100D969F100D1124C8015D
:101A50000DD0EC01009721F0A80160E070E044D1C6
:101A6000CE01DF91CF911F910F9108950F931F9396
:101A7000CF93DF938230910510F482E090E0E09103
:101A8000DD17F091DE1720E030E0A0E0B0E0309705
:101A900019F1408151810281138148175907C8F01B
:101AA0008417950769F4109731F012960C931297EA
:101AB00013961C9327C00093DD171093DE1722C0E6
:101AC0002115310519F04217530718F49A01BD0189
:101AD000EF01DF01F801DBCF21153105F9F0281BFB
:101AE000390B2430310580F48A819B8161157105A1
:101AF00021F0FB019383828304C09093DE178093CF
:101B0000DD17FE01329644C0FE01E20FF31F819300
:101B1000919322503109398328833AC02091DB17F1
:101B20003091DC17232B41F4209102023091030203
:101B30003093DC172093DB172091000230910102D3
:101B40002115310541F42DB73EB740910402509163
:101B50000502241B350BE091DB17F091DC17E2172F
:101B6000F307A0F42E1B3F0B2817390778F0AC01C0
:101B70004E5F5F4F2417350748F04E0F5F1F50939D
:101B8000DC174093DB178193919302C0E0E0F0E013
:101B9000CF01DF91CF911F910F910895CF93DF93E4
:101BA000009709F481C0FC01329713821282A09140
:101BB000DD17B091DE17109781F420813181820FFB
:101BC000931F2091DB173091DC172817390751F547
:101BD000F093DC17E093DB1767C0ED0120E030E005
:101BE000CE17DF0740F44A815B819E014115510504
:101BF000F1F0EA01F5CFD383C28340815181840F94
:101C0000951FC817D90759F488819981840F951FAA
:101C10000296918380838A819B819383828321159D
:101C2000310529F4F093DE17E093DD173DC0E9019B
:101C3000FB83EA8349915991C40FD51FEC17FD0727
:101C400061F480819181840F951F0296E901998347
:101C50008883828193819B838A83E0E0F0E01296FF
:101C60008D919C911397009719F0FD01DC01F7CF3E
:101C70008D919C9111979D012E5F3F4F820F931F75
:101C80002091DB173091DC172817390769F430975A
:101C900029F41092DE171092DD1702C0138212820F
:101CA000B093DC17A093DB17DF91CF910895FC016F
:101CB00088279927E89421912032E9F3293010F000
:101CC0002E30C8F32B3239F02D3231F4689403C032
:101CD00012D0820F911D219120532A30C8F31EF497
:101CE000909581959F4F0895DC0101C06D934150FF
:101CF0005040E0F708957AE0979F902D879F802DC0
:101D0000910D11240895F999FECF92BD81BDF89AE5
:0A1D1000992780B50895F894FFCFDD
:101D1A000000DF17200037202620370000000000CF
:101D2A0000000000000000000000000000000000A9
:101D3A000000000000000000000000000000000099
:101D4A000000000000000000426C7565204B616DC8
:101D5A00696B617A65000000000000000000000065
:101D6A000000000000000000000000000000000069
:101D7A0000000000000000000000426C7565204C65
:101D8A0061676F6F6E000000000000000000000035
:101D9A000000000000000000000000000000000039
:101DAA000000000000000000000000004275636BA4
:101DBA0020436F636B7461696C730000000000005C
:101DCA000000000000000000000000000000000009
:101DDA000000000000000000000000000000476949
:101DEA006D6C657400000000000000000000000037
:101DFA0000000000000000000000000000000000D9
:101E0A0000000000000000000000000000000000C8
:101E1A0047696E2053696E00000000000000000050
:101E2A0000000000000000000000000000000000A8
:101E3A000000000000000000000000000000000098
:101E4A0000004869676862616C6C0000000000006D
:101E5A000000000000000000000000000000000078
:101E6A000000000000000000000000000000000068
:101E7A0000000000576869736B7920436F6C61003A
:101E8A000000000000000000000000000000000048
:101E9A000000000000000000000000000000000038
:101EAA000000000000004B616D696B617A650000FB
:101EBA000000000000000000000000000000000018
:101ECA000000000000000000000000000000000008
:101EDA0000000000000000004D617274696E692004
:101EEA004C656D6F6E2044726F7000000000000038
:101EFA0000000000000000000000000000000000D8
:101F0A00000000000000000000004D6F6E6B657954
:101F1A0020476C616E6400000000000000000000B1
:101F2A0000000000000000000000000000000000A7
:101F3A00000000000000000000000000536372650A
:101F4A007764726976657200000000000000000084
:101F5A000000000000000000000000000000000077
:101F6A0000000000000000000000000000005369AB
:101F7A006C7665722042756C6C6574000000000016
:101F8A000000000000000000000000000000000047
:101F9A000000000000000000000000000000000037
:101FAA005761726420380000000000000000000041
:101FBA000000000000000000000000000000000017
:101FCA000000000000000000000000000000000007
:101FDA00000057686974654C61647900000000006C
:101FEA0000000000000000000000000000000000E7
:101FFA0000000000000000000000000000000000D7
:10200A0000000000372D557000000000000000009D
:10201A0000000000000000000000000000000000B6
:10202A0000000000000000000000000000000000A6
:10203A00000000000000436F636120436F6C610081
:10204A000000000000000000000000000000000086
:10205A000000000000000000000000000000000076
:10206A0000000000000000004F72616E67656E7329
:10207A00616674000000000000000000000000001B
:10208A000000000000000000000000000000000046
:10209A00000000000000000000005370657A69002B
:1020AA000000000000000000000000000000000026
:1020BA000000000000000000000000000000000016
:1020CA00000000000000000000000000526F7920AC
:1020DA00526F676572730000000000000000000084
:1020EA0000000000000000000000000000000000E6
:1020FA00000000000000000000000000000053681B
:10210A0069726C65792054656D706C650000000019
:10211A0000000000000000000000000000000000B5
:10212A0000000000000000000000000000000000A5
:10213A000101010101010101010101010101010086
:10214A000000000000426567696E6E20436F6D6D86
:10215A00616E64313A200D0A0D0A004C656D6F6E8E
:10216A0020536F646131006231004C656D6F6E20DF
:10217A00536F646132006230004C656D6F6E20539C
:10218A006F64613300743000370038300032353004
:10219A0000426567696E6E20436F6D6D616E6432D1
:1021AA003A200D0A0D0A005775737374656E205331
:1021BA0069652C2064617373206469657365725C58
:1021CA00724472696E6B20696E20756E7465722036
:1021DA0065696E6572204D696E7574655C726865B5
:1021EA007267657374656C6C7420776972643F5C9E
:1021FA00724E696368743F007431003900340070AC
:10220A0061676520002E7478743D0022002E766185
:10221A006C3D0070696320002C004D4946415245CF
:10222A002052433532327632200D0A0044657465F5
:10223A0063746564200D0A004D4946415245205297
:10224A00433532327631200D0A004E6F20726561B5
:10225A0064657220666F756E64200D0A00203A5616
:10226A006F726865720D0A00313200313300203A0C
:10227A00204E616368686572200D0A0050726F63B0
:10228A00656564205541525420303A200A0D0050A9
:10229A00726F63656564205541525420313A2000BB
:1022AA0050726F63656564205541525420323A205A
:1022BA000050726F63656564205541525420333A69
:0222CA002000F2
:00000001FF
