S01700004D696B726F636F6E74726F6C6C65722E73726563C7
S113000071C0000090C000008EC000008CC00000D1
S11300108AC0000088C0000086C0000084C00000C0
S113002082C0000080C000007EC000007CC00000D0
S11300307AC0000078C0000076C0000074C00000E0
S113004072C0000070C000006EC000006CC00000F0
S11300506AC0000068C0000066C0000064C0000000
S11300600C94FB080C94390B0C94F60A5CC0000049
S11300705AC0000058C0000056C0000054C0000020
S113008052C0000050C000004EC000004CC0000030
S11300900C94A10B0C94640B46C0000044C00000F7
S11300A042C0000040C000003EC000003CC0000050
S11300B03AC0000038C0000036C0000034C0000060
S11300C032C0000030C000002EC000000C94090CA7
S11300D00C94CC0B28C000000C94710C0C94340CC0
S11300E022C0000011241FBECFEFD1E2DEBFCDBF7E
S11300F000E00CBF17E0A0E0B2E0E8EFF1E200E0BE
S11301000BBF02C007900D92A03FB107D9F728E1B9
S1130110A0EFB7E001C01D92A631B207E1F70E943B
S11301209C0C0C94FA106CCF81E496E00E94CE0AE9
S11301300E94580941E067E576E083E696E0E2D460
S113014041E066E676E082E796E0DCD441E065E7EC
S113015076E081E896E0D6D421E044E856E066E80B
S113016076E089E896E074D521E044E856E066E854
S113017076E08BE896E06CD50E94450DE0EAF0E06D
S113018080818061808308958DE896E00E94CE0A84
S113019041E063EA76E084EF96E0B4D40E94B409C7
S11301A087EF96E091D42FEF87EA91E621508040C3
S11301B09040E1F700C0000089EF96E085D40E94EA
S11301C0450DE0EAF0E080818F7E808308958F3FC3
S11301D021F4613B39F4A8CF0895873019F46130D4
S11301E009F4D2CF0895EF92FF920F93CF93DF9348
S11301F0CDB7DEB72C970FB6F894DEBF0FBECDBFD8
S11302007C018CE0E6E0F2E0DE01119601900D92B3
S11302108A95E1F7C7010E94CE0A84E596E00E9420
S1130220CE0A01E021E0AE014F5F5F4FB70180913C
S1130230F8079091F90715D18091F8079091F90783
S1130240DDD1BC018CEF97E001D19093FD07809341
S1130250FC070CD02C960FB6F894DEBF0FBECDBFB2
S1130260DF91CF910F91FF90EF9008950F931F931B
S1130270CF93DF9300D000D0CDB7DEB70091FC0759
S11302801091FD0719821A821B821C821D821E8214
S11302900115110509F44BC08BEF96E00E94CE0ABC
S11302A0F801808191810E94CE0A8FE99FE0019735
S11302B0F1F700C00000F80182814AE0BE016F5FDF
S11302C07F4F90E00E94A91082E097E00E94CE0A3E
S11302D0CE0101960E94CE0A8CE097E00E94CE0ADD
S11302E0F801848195810E94CE0A88E197E00E94FA
S11302F0CE0AF80183814AE0BE016C5F7F4F90E033
S11303000E94A910CE0104960E94CE0A85E297E0CD
S11303100E94CE0A8FEC97E00197F1F700C000002D
S1130320F801068117810115110509F0B5CF26964C
S11303300FB6F894DEBF0FBECDBFDF91CF911F91F2
S11303400F9108958F929F92AF92BF92CF92DF92B6
S1130350EF92FF920F931F93CF93DF935C01962E3E
S11303607A01822E68E070E081E090E00E943B0F09
S1130370EC01F50101900020E9F731976F01CA18EB
S1130380DB08F70101900020E9F731978F010E197E
S11303901F0961E070E0C60101960E943B0F99833A
S11303A0888361E070E0C80101960E943B0F9D8341
S11303B08C838B829A821F821E82C114D10471F0B5
S11303C0D501960180E090E04D91E881F981E80F34
S11303D0F91F4083019682179307B1F78FEFC81A6C
S11303E0D80AF501EC0DFD1D808128813981F901C0
S11303F0EC0DFD1D80830115110571F0D701A801D5
S113040080E090E02D91EC81FD81E80FF91F2083BD
S1130410019648175907B1F70F5F1F4FF701E00F17
S1130420F11F80812C813D81F901E00FF11F808350
S1130430CE01DF91CF911F910F91FF90EF90DF904C
S1130440CF90BF90AF909F908F900895FC01208132
S11304503181FB0137832683FC0171836083CB01E7
S113046008952F923F924F925F926F927F928F9254
S11304709F92AF92BF92CF92DF92EF92FF920F932F
S11304801F93CF93DF93CDB7DEB72C970FB6F894B5
S1130490DEBF0FBECDBF5C017A01522E402E6DB679
S11304A07EB6FB0101900020E9F731978F01061B0E
S11304B0170B6801DD2416018DB79EB78C199D09B1
S11304C00FB6F8949EBF0FBE8DBFEDB7FEB7319641
S11304D04F01A601CF010E949A104CE050E0B701F1
S11304E0CE0101960E949A10602FC5010E94EC1063
S11304F01C141D04BCF4740185010F5F1F4F8C0C88
S11305009D1CF70161917F01C8010E94EC108FE1ED
S11305109EE40197F1F700C000000F5F1F4FE8143D
S1130520F90479F746019CE0890E911C28143904DA
S11305302CF5EE24E394F12CEC0EFD1EEC0CFD1CCA
S113054086010F5F1F4F0A0D1B1D640181E090E0BF
S11305508C0F9D1FC80ED91EF70161917F01C80140
S11305600E94EC108FE19EE40197F1F700C00000B7
S11305700F5F1F4FEC14FD0479F701C04601C4015D
S11305800296652D8A0D9B1D0E94EC10C4010396F2
S1130590642D8A0D9B1D0E94EC10EFE1FEE431975F
S11305A0F1F700C00000F4E08F0E911CA80CB91CF8
S11305B060E0C5010E94EC10B092F907A092F80720
S11305C00FB6F8947EBE0FBE6DBE2C960FB6F8948F
S11305D0DEBF0FBECDBFDF91CF911F910F91FF9072
S11305E0EF90DF90CF90BF90AF909F908F907F90CF
S11305F06F905F904F903F902F9008954F925F922D
S11306006F927F928F929F92AF92BF92CF92DF921E
S1130610EF92FF920F931F93CF93DF93CDB7DEB783
S11306202C970FB6F894DEBF0FBECDBF5C014DB65C
S11306305EB60E94E410C82ED12C8DB79EB78C19DB
S11306409D090FB6F8949EBF0FBE8DBFEDB7FEB7E0
S113065031963F011C141D04E4F47501FFEFEF1AF9
S1130660FF0A830143018C0C9D1CC7010E94E41006
S1130670F80181938F018FE19EE40197F1F700C0A7
S113068000009FEFE91AF90AE815F90571F7F60178
S113069002C0E0E0F0E0E60DF71D1082EFE1FEE4B9
S11306A03197F1F700C000004601FCE08F0E911C69
S11306B0C814D9042CF586010F5F1F4F0A0D1B1DAA
S11306C0EE24E394F12CEC0EFD1EEC0CFD1C6401F5
S11306D081E090E08C0F9D1FC80ED91EC8010E94B6
S11306E0E410F70181937F018FE19EE40197F1F714
S11306F000C000000F5F1F4FEC15FD0579F701C026
S11307004601E1E0F0E0EC0FFD1FE80DF91D108259
S1130710EFE1FEE43197F1F700C00000C401029656
S11307208A0D9B1D0E94E410182FC40103968A0DA4
S11307309B1D0E94E410EFE1FEE43197F1F700C045
S11307400000282FAE014F5F5F4F612FC301FADD18
S1130750F4E08F0E911CA80CB91CB092F907A0927A
S1130760F8070FB6F8945EBE0FBE4DBE2C960FB6BA
S1130770F894DEBF0FBECDBFDF91CF911F910F91D3
S1130780FF90EF90DF90CF90BF90AF909F908F90AD
S11307907F906F905F904F900895CF93DF930DC03B
S11307A0CE012CDF2091FC073091FD07FC0137833B
S11307B026839093FD078093FC07C091F807D0919E
S11307C0F907CE010E94E4108111EACFDF91CF91A5
S11307D00895AF92BF92CF92DF92EF92FF921F9350
S11307E0CF93DF93CDB7DEB7CB52D5400FB6F89495
S11307F0DEBF0FBECDBF1092F9071092F8078AE151
S113080094E0E2E1F2E0DE01119601900D9201978D
S1130810E1F77E0185EEE81A8BEFF80A8CEFF70119
S113082011928A95E9F78BE4F701808379E1738764
S113083081E2808B52E2538B878B92E4908F91E11B
S1130840978F93A36CE366A397E090A787A79FE095
S113085094AB96AB36E430AF88E287AFC45ADB4F33
S11308609883CC55D44025E0C35ADB4F2883CD551B
S1130870D440C15ADB4F8883CF55D440CB59DB4F8A
S11308803883C556D4404EE1C359DB4F4883CD5617
S1130890D440C059DB4F3883C057D440C758DB4FCE
S11308A04883C957D44083E2C158DB4F8883CF576C
S11308B0D440CC57DB4F8883C458D440CA57DB4F4D
S11308C04883C658D440C457DB4F7883CC58D440AF
S11308D0C057DB4F5883C059D44059E2CE56DB4F42
S11308E05883C259D440CA56DB4F8883C659D44072
S11308F0C756DB4F2883C959D440C556DB4F68839C
S1130900CB59D44051E4CE55DB4F5883C25AD4401E
S1130910C655DB4F8883CA5AD4405AE0C055DB4FD2
S11309205883C05BD440CD54DB4F6883C35BD44051
S1130930CB54DB4F4883C55BD440C654DB4F98830C
S1130940CA5BD440C454DB4F5883CC5BD440C354FB
S1130950DB4F2883CD5BD440CF53DB4F3883C15C5E
S1130960D440C853DB4F9883C85CD44092E3C5534A
S1130970DB4F9883CB5CD440C453DB4F8883CC5C7F
S1130980D44084E6C153DB4F8883CF5CD440C45247
S1130990DB4F8883CC5DD440C651DB4F8883CA5E6D
S11309A0D440CD50DB4F9883C35FD440CC50DB4F51
S11309B09883C45FD4408FE5C050DB4F8883C05018
S11309C0D540CB5FDA4F2883C550D5408DE2C55F53
S11309D0DA4F8883CB50D540C35FDA4F8883CD503C
S11309E0D540CF5EDA4F5883C151D54085E1ECE262
S11309F0F6E0DE01A95EBA4F01900D928A95E1F707
S1130A001092FD071092FC07CE01895E9A4F5C019B
S1130A10FE0131966F0110E0F50121915F01A701FC
S1130A20612FC6018FDC2091FC073091FD07FC018A
S1130A30378326839093FD078093FC071F5FF2E3BF
S1130A40CF0ED11C8CE0E80EF11C153129F780E0A3
S1130A5090E0A3DE0BDCC55DDA4F0FB6F894DEBF81
S1130A600FBECDBFDF91CF911F91FF90EF90DF902C
S1130A70CF90BF90AF900895CF93DF9300D0CDB7C0
S1130A80DEB79FEF99839A839B83811104C0CE01C3
S1130A90019684D50DC0813029F463E0CE0101961E
S1130AA08FD506C0823021F463E0CE01019693D540
S1130AB08FE19EE40197F1F700C000000F900F90C2
S1130AC00F90DF91CF910895CF93DF93EC0165E010
S1130AD089E297E075D5FE0101900020E9F731978E
S1130AE0BF016C1B7D0BCE016BD581E0C5DF89E2B4
S1130AF097E054D5CE0152D584E596E04FD5DF91E9
S1130B00CF910895CF93DF93EB0141110FC046D5E8
S1130B108FE297E043D585E397E040D5CE013ED5FB
S1130B2085E397E03BD580E0A7DF47C0413011F56E
S1130B30FC0101900020E9F73197BF01681B790B94
S1130B403FD565E08FE297E03BD561E085E397E030
S1130B5037D5FE0101900020E9F73197BF016C1BE6
S1130B607D0BCE012DD561E085E397E029D581E0A9
S1130B7083DF23C0423009F5FC0101900020E9F72E
S1130B803197BF01681B790B26D565E08FE297E0AA
S1130B9022D561E085E397E01ED5FE010190002097
S1130BA0E9F73197BF016C1B7D0BCE0114D561E0D1
S1130BB085E397E010D582E05FDFDF91CF91089560
S1130BC0CF93DF93EB01411109C0E8D487E397E0A9
S1130BD0E5D4CE01E3D480E04FDF37C04130D1F417
S1130BE0FC0101900020E9F73197BF01681B790BE4
S1130BF0E7D465E087E397E0E3D4FE0101900020A9
S1130C00E9F73197BF016C1B7D0BCE01D9D481E08C
S1130C1033DF1BC04230C9F4FC0101900020E9F726
S1130C203197BF01681B790BD6D465E087E397E061
S1130C30D2D4FE0101900020E9F73197BF016C1B6B
S1130C407D0BCE01C8D482E017DFDF91CF910895E8
S1130C50EF92FF920F931F93CF93DF937C018B014D
S1130C60EA01211112C08DE397E098D4C70196D40C
S1130C7082E497E093D4C80191D482E497E08ED4BF
S1130C80CE018CD480E0F8DE5DC0213069F564E0EB
S1130C908DE397E095D4F70101900020E9F73197AF
S1130CA0BF016E197F09C7018BD461E082E497E02C
S1130CB087D4F80101900020E9F73197BF01601B48
S1130CC0710BC8017DD461E082E497E079D4FE0120
S1130CD001900020E9F73197BF016C1B7D0BCE0119
S1130CE06FD481E0C9DE2EC0223061F564E08DE36B
S1130CF097E071D4F70101900020E9F73197BF0123
S1130D006E197F09C70167D461E082E497E063D478
S1130D10F80101900020E9F73197BF01601B710BC6
S1130D20C80159D461E082E497E055D4FE010190F2
S1130D300020E9F73197BF016C1B7D0BCE014BD42A
S1130D4082E09ADEDF91CF911F910F91FF90EF9097
S1130D500895CF93C62F2898880F8E7784D28C2F2E
S1130D6082D2289ACF9108952898880F8E77806828
S1130D707AD280E078D2289A08956FE081E0E9CFB2
S1130D800895FBDF6DE88AE2E4DF6EE38BE2E1DFE6
S1130D906EE18CE2DEDF60E08DE2DBDF60E485E1C2
S1130DA0D8DF6DE381E1D5DF84E1DEDF982F937036
S1130DB021F4682F636084E1CCCF08953F924F9271
S1130DC05F926F927F928F929F92AF92BF92CF92D7
S1130DD0DF92EF92FF920F931F93CF93DF93982E9E
S1130DE0F62EE72E442E822E332E58018CE09816D0
S1130DF009F4BAC0EEE09E1203C010E102E102C0A1
S1130E0010E000E084E0B0DF682F6F7784E0A1DFBA
S1130E108AE0AADF682F60688AE09BDF60E081E0F7
S1130E2098DF512C612C712C41145104610471041C
S1130E3019F414C010E307E7CF2DDE2DC12CD12CFB
S1130E407601699189E085DFFFEFCF1ADF0AEF0AA7
S1130E50FF0AC414D504E604F70498F3692D81E06D
S1130E6078DF8CE0981206C08DE07EDF682F606822
S1130E708DE06FDF84E078DFF82EC0E0D0E0116011
S1130E8009C084E071DFF82E2196CF3CE7E0DE074D
S1130E9009F483C0812F8F21A1F387C00170F02250
S1130EA011F0C2E001C0C1E0FCE09F128AC08AE0F8
S1130EB05BDF482E8CE058DF282F2770A9F0842DA3
S1130EC090E00197880F991F880F991F880F991F29
S1130ED0820F911D092E000CAA0BBB0BF501808318
S1130EE09183A283B38311C0842D90E0880F991F4E
S1130EF0880F991F880F991F092E000CAA0BBB0B92
S1130F00F50180839183A283B383442071F0842DFF
S1130F10813108F080E1482E512C612C712C411450
S1130F2051046104710429F44CC0412C512C320148
S1130F304394082D132DC12CD12C760189E014DFA4
S1130F40F80181938F01FFEFCF1ADF0AEF0AFF0A3E
S1130F50C414D504E604F70488F333C06CE081E0DC
S1130F60F8DE10E307E780CF84E0FEDE682F6F77BA
S1130F7084E0EFDE8AE0F8DE682F60688AE0E9DE6C
S1130F8060E081E0E6DE512C612C712C41145104A7
S1130F906104710409F04ECFE1CF8DE0E5DE682FE6
S1130FA06F778DE0D6DEC3E00CC08DE0DDDE682F08
S1130FB06F778DE0CEDE86E0D7DE8B7109F46ECFDD
S1130FC0C3E08C2FDF91CF911F910F91FF90EF9091
S1130FD0DF90CF90BF90AF909F908F907F906F9055
S1130FE05F904F903F900895EF92FF920F931F935D
S1130FF0CF93DF9300D01F92CDB7DEB7182F7B01BC
S113100067E08DE0A6DEF70110838E010F5F1F4FAE
S1131010970141E0B7018CE0D1DE813059F4498178
S11310205A816B817C81403151056105710519F04C
S113103083E001C083E00F900F900F900F90DF9139
S1131040CF911F910F91FF90EF900895EF92FF922F
S11310500F931F93CF93DF9300D01F92CDB7DEB7CA
S11310607C0160E08DE075DE83E9F701808380E236
S113107081838E010F5F1F4F970142E0B7018CE01F
S11310809DDE813071F4F701A7014C5F5F4F90E062
S1131090219192274E175F07D9F7F7012481921304
S11310A083E00F900F900F900F90DF91CF911F91DD
S11310B00F91FF90EF900895FC0111821082089522
S11310C0FC0190818181981720F0981B892F8095CD
S11310D00895891B0895FC0120819181291718F036
S11310E0822F891B0895892F821B80950895CF93A1
S11310F0DF93EC01F0DF882359F0898191E0980FA8
S1131100FE01E80FF11D82819F3F09F490E099836D
S1131110DF91CF9108950F931F93CF93DF93EC0149
S1131120162F0881CDDF8823F1F3111101C01FEFC1
S113113081E0800FFE01E00FF11D12838F3F09F45F
S113114080E0888381E0DF91CF911F910F91089512
S1131150FF920F931F93CF93DF934423D9F0C42FAF
S1131160D72FF62E8C01ACDF8C17F0F315C021E0DD
S1131170290F3191D801A90FB11D12963C932F3F2D
S113118011F4982F01C0922F415088F7F8019083F1
S113119081E00AC080E008C0F80190814FEF4C0F55
S11311A0EF2DFD2F80E0E3CFDF91CF911F910F91C1
S11311B0FF90089500000000089581E58CBD1DBCDA
S11311C080E194E179DF8DE091E176DF78948AED36
S11311D098E09093FF078093FE072D9A289A08952C
S11311E0462F2D98BC0180E194E1B2DF80E194E1C7
S11311F07EDF8EBD08951F920F920FB60F921124B9
S11312000BB60F922F933F934F935F936F937F93FC
S11312108F939F93AF93BF93EF93FF9380E194E1F8
S11312205ADF882329F080E194E161DF8EBD08C094
S1131230E091FE07F091FF07309709F019952D9A78
S1131240FF91EF91BF91AF919F918F917F916F919A
S11312505F914F913F912F910F900BBE0F900FBE56
S11312600F901F9018958EBD0DB407FEFDCF8EB55F
S11312700895CF93DF9300D01F921F92CDB7DEB7AE
S1131280606869835A834B833C832D8385B18823AB
S1131290E9F380EA8A95F1F765E0CE010196A0DFD3
S11312A00F900F900F900F900F90DF91CF910895B2
S11312B023E030E0A9016BE180E090E0DADF20E098
S11312C030E0A90167E180E090E0D3DF2FE93FE05F
S11312D040E050E068E180E090E0CBDF25E035E0DD
S11312E040E050E069E180E090E0C3DF27E030E0D7
S11312F040E050E06AE180E090E0BBDF20E031E0D4
S113130040E058E16AE080E090E0B3DF20E130E0C3
S1131310A90164E080E090E0ACDF20E030E040E050
S113132050E265E080E090E0A4DF20E030E0A90135
S113133066E080E090E09DDF2BE431E0A90167E006
S113134080E090E096DF26E63CE540E051E069E08D
S113135080E090E08EDF22EF3BE540E051E068E082
S113136080E090E086CF08950F931F93CF93DF938F
S1131370CDB7DEB72A970FB6F894DEBF0FBECDBF48
S113138020E030E0A9016FE180E090E072DF2CE31F
S113139030E040E050E060E280E090E06ADF26EF79
S11313A03FEF4FEF5FEF61E280E090E062DF22E029
S11313B030E040E050E062E580E090E05ADF20EA6F
S11313C03FE040E050E064E280E090E052DF28E05B
S11313D030E040E050E063E680E090E04ADF2CE358
S11313E030E040E050E061E280E090E042DF00E085
S11313F010E04AE0BE016F5F7F4FC801AAD641E00A
S1131400BE016F5F7F4F84E497E0DADB2FEF80E764
S113141092E0215080409040E1F700C000000F5F4F
S11314201F4F0233110529F724EC3FEF4FEF5FEF15
S113143061E280E090E01DDF4AE0BE016F5F7F4F14
S1131440C80187D641E0BE016F5F7F4F84E497E017
S1131450B7DB2FEF80E792E0215080409040E1F726
S113146000C000000F5F1F4F0436110529F720E06C
S113147030E0A90161E280E090E0FBDE20E030E0B2
S1131480A90164E280E090E0F4DE2A960FB6F894B5
S1131490DEBF0FBECDBFDF91CF911F910F91089595
S11314A0000000000895CF92DF92EF92FF920F9315
S11314B01F93CF93DF931092C50027E62093C400B7
S11314C00F2EF1ECCF2ED12CF02D98E9F60190835C
S11314D086E08093C2001092CD002093CC000F2EA2
S11314E0F9ECEF2EF12CF02DF70190838093CA00D4
S11314F01092D5002093D40001ED10E0F801908300
S11315008093D2001092350120933401C1E3D1E0DD
S113151098838093320188E098E0CEDD8EE092E1FA
S1131520CBDD89E099E0C8DD8BE09EE0C5DD8FE08E
S113153093E1C2DD8AE09DE0BFDD8CE09FE0BCDD8D
S113154081E195E1B9DDF601808180688083F7014E
S1131550808180688083F8018081806880838881AD
S113156080688883789480E59AE090930708809354
S113157006089093010880930008909303088093D1
S113158002089093050880930408DF91CF911F917E
S11315900F91FF90EF90DF90CF900895FC010190A0
S11315A00020E9F73197AF01481B590BBC0188E0D3
S11315B098E0CEDDE1ECF0E08081806280830895E4
S11315C0462FBC0189E099E0C3DDE9ECF0E08081BD
S11315D0806280830895462FBC018FE093E1B8DDDB
S11315E0E1EDF0E080818062808308951F920F9284
S11315F00FB60F9211240BB60F922F933F934F9374
S11316005F936F937F938F939F93AF93BF93EF9366
S1131610FF9388E098E05FDD882361F088E098E03C
S113162066DD8093C6008FE99FE00197F1F700C063
S113163000000CC0E1ECF0E080818F7D8083E091BC
S11316400608F0910708309709F01995FF91EF917A
S1131650BF91AF919F918F917F916F915F914F91C6
S11316603F912F910F900BBE0F900FBE0F901F90C4
S113167018951F920F920FB60F9211240BB60F926A
S11316802F933F934F935F936F937F938F939F9386
S1131690AF93BF93EF93FF936091C6008EE092E106
S11316A03ADDFF91EF91BF91AF919F918F917F911F
S11316B06F915F914F913F912F910F900BBE0F90BF
S11316C00FBE0F901F9018951F920F920FB60F9296
S11316D011240BB60F922F933F934F935F936F9305
S11316E07F938F939F93AF93BF93EF93FF9389E07F
S11316F099E0F1DC882331F089E099E0F8DC80930B
S1131700CE000CC0E9ECF0E080818F7D8083E09115
S11317100008F0910108309709F01995FF91EF91B5
S1131720BF91AF919F918F917F916F915F914F91F5
S11317303F912F910F900BBE0F900FBE0F901F90F3
S113174018951F920F920FB60F9211240BB60F9299
S11317502F933F934F935F936F937F938F939F93B5
S1131760AF93BF93EF93FF936091CE008BE09EE025
S1131770D2DCFF91EF91BF91AF919F918F917F91B7
S11317806F915F914F913F912F910F900BBE0F90EE
S11317900FBE0F901F9018951F920F920FB60F92C5
S11317A011240BB60F922F933F934F935F936F9334
S11317B07F938F939F93AF93BF93EF93FF938FE0A8
S11317C093E189DC882331F08FE093E190DC80930E
S11317D0D6000CC0E1EDF0E080818F7D8083E09144
S11317E00208F0910308309709F01995FF91EF91E1
S11317F0BF91AF919F918F917F916F915F914F9125
S11318003F912F910F900BBE0F900FBE0F901F9022
S113181018951F920F920FB60F9211240BB60F92C8
S11318202F933F934F935F936F937F938F939F93E4
S1131830AF93BF93EF93FF936091D6008AE09DE04E
S11318406ADCFF91EF91BF91AF919F918F917F914E
S11318506F915F914F913F912F910F900BBE0F901D
S11318600FBE0F901F9018951F920F920FB60F92F4
S113187011240BB60F922F933F934F935F936F9363
S11318807F938F939F93AF93BF93EF93FF938CE0DA
S11318909FE021DC882331F08CE09FE028DC8093FA
S11318A0D6000CC0E1E3F1E080818F7D8083E0917C
S11318B00408F0910508309709F01995FF91EF910C
S11318C0BF91AF919F918F917F916F915F914F9154
S11318D03F912F910F900BBE0F900FBE0F901F9052
S11318E018951F920F920FB60F9211240BB60F92F8
S11318F02F933F934F935F936F937F938F939F9314
S1131900AF93BF93EF93FF936091360181E195E12B
S113191002DCFF91EF91BF91AF919F918F917F91E5
S11319206F915F914F913F912F910F900BBE0F904C
S11319300FBE0F901F901895CF93DF93CDB7DEB7EE
S113194060970FB6F894DEBF0FBECDBF7ED083D0B4
S113195034DCA9DDADDC15DA0E94E90387E304DA9F
S1131960823939F487E497E019DE89E597E016DED9
S11319700DC08059823038F485E697E00FDE89E5A2
S113198097E00CDE03C087E797E008DE82E0ECD93D
S1131990682F606282E0DDD983E0E6D9682F606851
S11319A083E0D7D9BE016F5F7F4F82E51DDB8130B5
S11319B009F03DC0CE01019649DBCE010196EEDD72
S11319C08AE897E0EBDD8981813041F18B818230B7
S11319D099F085E997E08AD3FC0101900020E9F7AA
S11319E03197AF01481B590B00E010E020E030E0D4
S11319F0BC018CE0E3D912C088E997E077D3FC01FD
S1131A0001900020E9F73197AF01481B590B00E022
S1131A1010E020E030E0BC018CE0D0D9CE0101968A
S1131A2015DBCE010196BADD8BE997E0B7DD3CD03A
S1131A30811169D086D08111F6D005D1811175D17B
S1131A4084D1811108D225D0A1CF87EB84B980E15C
S1131A50809301010895A8EAB0E011961C921E92A9
S1131A601092A000E1EAF0E010821092A50010921A
S1131A70A4008CE790E011969C938E9380818860FB
S1131A808083808182608083089585B1805885B980
S1131A900895FBDF2FEF83ED90E3215080409040C9
S1131AA0E1F700C0000008951F93CF93DF93D0E0C7
S1131AB0C0E011E01EC08EE092E119DB8D3069F4C4
S1131AC0E091F707F0E0E65FF54F1082C093F70767
S1131AD0C093F607DADFD12F0CC09091F707E92FF6
S1131AE0F0E0E65FF54F80839F5F9093F707CDDFCB
S1131AF0DC2F8EE092E1EFDA8111DDCF8D2FDF91C3
S1131B00CF911F910895CF93DF9389EA97E046DD43
S1131B108AE09AE00E94F300AAE0BAE080E090E054
S1131B20ED0102C01D920196FE0101900020E9F72B
S1131B303197EA50FA408E179F07A0F3DF91CF91B7
S1131B4008950F931F93CF93DF9300E0C0E0D1E09B
S1131B5012E04CC08BE09EE0CADA8F3F29F59091E9
S1131B60F407992319F0913009F049C0E091F50781
S1131B70F0E0E45FFF4E90819F3F09F03DC0109379
S1131B80F4072091F50730E0F901E45FFF4E9081FE
S1131B909F3F39F4F901E55FFF4E90819F3FA1F526
S1131BA007C0C093F40716C09091F407933091F4E2
S1131BB0E091F507F0E0E35FFF4E1082DF0111973B
S1131BC01C9232971082C093F507C093F4075DDF2F
S1131BD00D2F0CC09091F507E92FF0E0E35FFF4E65
S1131BE080839F5F9093F50750DF0C2F8BE09EE07E
S1131BF072DA8111AFCF11C0C093F407D5CF9091A1
S1131C00F407923089F6BDCFE091F507F0E0E55F87
S1131C10FF4E90819F3F29F6DDCF802FDF91CF913A
S1131C201F910F9108958CEB97E0B8DC8DE090E163
S1131C30B5DC84E596E0B2DCEDE0F0E16181808121
S1131C400C94E70008950F931F93CF93DF9300E064
S1131C50C0E0D1E012E04CC08AE09DE048DA8F3F5A
S1131C6029F59091F207992319F0913009F049C0B0
S1131C70E091F307F0E0EF5EF94E90819F3F09F0A9
S1131C803DC01093F2072091F30730E0F901EF5EB5
S1131C90F94E90819F3F39F4F901E05FF94E90814C
S1131CA09F3FA1F507C0C093F20716C09091F207B9
S1131CB0933091F4E091F307F0E0EE5EF94E108278
S1131CC0DF0111971C9232971082C093F307C093DF
S1131CD0F207DBDE0D2F0CC09091F307E92FF0E043
S1131CE0EE5EF94E80839F5F9093F307CEDE0C2F58
S1131CF08AE09DE0F0D98111AFCF11C0C093F20703
S1131D00D5CF9091F207923089F6BDCFE091F307D9
S1131D10F0E0E05FF94E90819F3F29F6DDCF802F00
S1131D20DF91CF911F910F9108958DEC97E036DCF0
S1131D3082E196E133DC84E596E030DCE2E1F6E131
S1131D40618180810C94E70008950F931F93CF93D2
S1131D50DF9300E0C0E0D1E012E055C081E195E1FD
S1131D60C6D98F3F71F59091F007911103C0D093BC
S1131D70F00703C0913009F054C02091F10730E01E
S1131D80F901E75FF44F90819F3F09F042C010933F
S1131D90F00703C0C093F00714C02091F10730E0AE
S1131DA0F901E75FF44F90819F3F41F4F901E85F47
S1131DB0F44F90819F3F09F03EC007C0C093F007E5
S1131DC016C09091F007933091F4E091F107F0E0A0
S1131DD0E65FF44F1082DF0111971C923297108254
S1131DE0C093F107C093F00750DE0D2F0CC0909103
S1131DF0F107E92FF0E0E65FF44F80839F5F909353
S1131E00F10743DE0C2F81E195E165D98111A6CF5D
S1131E101CC0F901E95FF44F90819F3F09F0BACFEC
S1131E2005C09091F007923061F6B7CF9091F0071A
S1131E30923039F6C3CFE091F107F0E0E85FF44F58
S1131E4090819F3F09F0BACFD2CF802FDF91CF91FD
S1131E501F910F9108958EED97E0A0DB8AE09BE03F
S1131E609DDB84E596E09ADBEAE0FBE0618180811A
S1131E700C94E70008950F931F93CF93DF93869FED
S1131E808001879F100D969F100D1124C8010DD05D
S1131E90EC01009721F0A80160E070E044D1CE018C
S1131EA0DF91CF911F910F9108950F931F93CF93BB
S1131EB0DF938230910510F482E090E0E0911418F1
S1131EC0F091151820E030E0A0E0B0E0309719F16F
S1131ED0408151810281138148175907C8F0841742
S1131EE0950769F4109731F012960C931297139694
S1131EF01C9327C0009314181093151822C02115A1
S1131F00310519F04217530718F49A01BD01EF0186
S1131F10DF01F801DBCF21153105F9F0281B390B5E
S1131F202430310580F48A819B816115710521F08B
S1131F30FB019383828304C0909315188093141833
S1131F40FE01329644C0FE01E20FF31F8193919388
S1131F5022503109398328833AC0209112183091D4
S1131F601318232B41F42091020230910302309381
S1131F7013182093121820910002309101022115A8
S1131F80310541F42DB73EB740910402509105024A
S1131F90241B350BE0911218F0911318E217F30784
S1131FA0A0F42E1B3F0B2817390778F0AC014E5FC5
S1131FB05F4F2417350748F04E0F5F1F50931318D7
S1131FC0409312188193919302C0E0E0F0E0CF01B6
S1131FD0DF91CF911F910F910895CF93DF930097D5
S1131FE009F481C0FC01329713821282A091141863
S1131FF0B0911518109781F420813181820F931FBD
S113200020911218309113182817390751F5F093BD
S11320101318E093121867C0ED0120E030E0CE17EA
S1132020DF0740F44A815B819E0141155105F1F0BF
S1132030EA01F5CFD383C28340815181840F951F78
S1132040C817D90759F488819981840F951F02967E
S1132050918380838A819B819383828321153105B7
S113206029F4F0931518E09314183DC0E901FB839B
S1132070EA8349915991C40FD51FEC17FD0761F408
S113208080819181840F951F0296E9019983888349
S1132090828193819B838A83E0E0F0E012968D91A4
S11320A09C911397009719F0FD01DC01F7CF8D91F6
S11320B09C9111979D012E5F3F4F820F931F20919A
S11320C01218309113182817390769F4309729F436
S11320D0109215181092141802C013821282B09331
S11320E01318A0931218DF91CF910895FC0188274B
S11320F09927E89421912032E9F3293010F02E3009
S1132100C8F32B3239F02D3231F4689403C02BD04C
S1132110820F911D219120532A30C8F31EF490950B
S113212081959F4F0895DC0101C06D93415050404B
S1132130E0F70895FB01DC014150504048F0019064
S11321400D920020C9F701C01D9241505040E0F7A4
S11321500895BB274A3031F4992322F4BDE29095C7
S113216081959F4F09C07AE0979F902D879F802D7E
S1132170910D11240895BB27FB015527AA27880F29
S1132180991FAA1FA41710F0A41B83955051B9F7E7
S1132190A05DAA3308F0A95DA193009779F7B11166
S11321A0B1931192CB0100C0DC01FC01672F719146
S11321B07723E1F7329704C07C916D937083629129
S11321C0AE17BF07C8F30895F999FECF92BD81BD3C
S11321D0F89A992780B50895262FF999FECF1FBA4A
S11321E092BD81BD20BD0FB6F894FA9AF99A0FBE3C
S10B21F001960895F894FFCF55
S11321F80000161820000102030405060708090058
S113220801023720262037000000000000000000EB
S113221800000000000000000000000000000000B2
S113222800000000000000000000000000000000A2
S113223800000000426C7565204B616D696B617A22
S1132248650000000000000000000000000000001D
S11322580000000000000000000000000000000072
S1132268000000000000426C7565204C61676F6FC8
S11322786E000000000000000000000000000000E4
S11322880000000000000000000000000000000042
S113229800000000000000004275636B20436F6378
S11322A86B7461696C73000000000000000000009A
S11322B80000000000000000000000000000000012
S11322C80000000000000000000047696D6C6574A0
S11322D800000000000000000000000000000000F2
S11322E800000000000000000000000000000000E2
S11322F800000000000000000000000047696E2094
S113230853696E0000000000000000000000000097
S113231800000000000000000000000000000000B1
S113232800000000000000000000000000004869F0
S1132338676862616C6C0000000000000000000027
S11323480000000000000000000000000000000081
S11323580000000000000000000000000000000071
S1132368576869736B7920436F6C61000000000043
S11323780000000000000000000000000000000051
S11323880000000000000000000000000000000041
S113239800004B616D696B617A6500000000000004
S11323A80000000000000000000000000000000021
S11323B80000000000000000000000000000000011
S11323C8000000004D617274696E69204C656D6F80
S11323D86E2044726F7000000000000000000000CE
S11323E800000000000000000000000000000000E1
S11323F80000000000004D6F6E6B657920476C612A
S11324086E640000000000000000000000000000EE
S113241800000000000000000000000000000000B0
S1132428000000000000000053637265776472695D
S11324387665720000000000000000000000000043
S11324480000000000000000000000000000000080
S11324580000000000000000000053696C766572FB
S11324682042756C6C6574000000000000000000D8
S11324780000000000000000000000000000000050
S113248800000000000000000000000057617264B2
S113249820380000000000000000000000000000D8
S11324A80000000000000000000000000000000020
S11324B80000000000000000000000000000576851
S11324C86974654C61647900000000000000000034
S11324D800000000000000000000000000000000F0
S11324E800000000000000000000000000000000E0
S11324F8372D5570000000000000000000000000A7
S113250800000000000000000000000000000000BF
S113251800000000000000000000000000000000AF
S11325280000436F636120436F6C6100000000008A
S1132538000000000000000000000000000000008F
S1132548000000000000000000000000000000007F
S1132558000000004F72616E67656E7361667400F7
S1132568000000000000000000000000000000005F
S1132578000000000000000000000000000000004F
S11325880000000000005370657A69000000000034
S1132598000000000000000000000000000000002F
S11325A8000000000000000000000000000000001F
S11325B80000000000000000526F7920526F676528
S11325C8727300000000000000000000000000001A
S11325D800000000000000000000000000000000EF
S11325E800000000000000000000536869726C6578
S11325F8792054656D706C650000000000000000CF
S113260800000000000000000000000000000000BE
S113261800000000000000000000000001010101AA
S11326280101010101010101010101000000000093
S113263800426567696E6E20436F6D6D616E64312B
S11326483A200D0A0D0A004C656D6F6E20536F64B5
S11326586131006231004C656D6F6E20536F6461A7
S113266832006230004C656D6F6E20536F646133C5
S11326780074300037003830003235300042656766
S1132688696E6E20436F6D6D616E64323A200D0A77
S11326980D0A005775737374656E205369652C2091
S11326A864617373206469657365725C72447269EA
S11326B86E6B20696E20756E7465722065696E652F
S11326C872204D696E7574655C72686572676573AE
S11326D874656C6C7420776972643F5C724E6963CC
S11326E868743F00743100390034004E616D653AF6
S11326F820003A2057657274203D20002C204D6537
S11327086E67656E203D20002C20416C6B6F686FEE
S11327186C203D20002E0A0D007061676520002E94
S11327287478743D0022002E76616C3D00706963F4
S113273820002C006A30004D49464152452052433E
S11327483532327632200D0A004465746563746547
S113275864200D0A004D4946415245205243353202
S1132768327631200D0A004E6F20726561646572FD
S113277820666F756E64200D0A00203A566F7268E1
S113278865720D0A00313200313300203A204E615F
S11327986368686572200D0A0050726F636565642A
S11327A8205541525420303A200A0D0050726F636C
S11327B8656564205541525420313A200050726FA7
S11327C863656564205541525420323A20005072A2
S11327D86F63656564205541525420333A200000E4
S9030000FC
