:1000000030C100004FC100004DC100004BC10000D5
:1000100049C1000047C1000045C1000043C10000C4
:1000200041C100003FC100003DC100003BC10000D4
:1000300039C100000C94E24D35C1000033C100000D
:1000400031C100000C9487360C9492362BC100000D
:1000500029C100000C94BF3725C1000023C1000056
:1000600021C100000C9433511DC100001BC10000D0
:1000700019C1000017C1000015C1000013C1000024
:100080000C949D360C94A8360DC100000BC10000E5
:100090000C945F5107C1000005C1000003C10000BE
:1000A00001C10000FFC000000C94B3360C94BE36B2
:1000B000F9C00000F7C00000F5C000000C94C9367C
:1000C0000C94D436EFC00000EDC000000C94CA516F
:1000D0000C948B51E7C000000C9435520C94F651EF
:1000E000E1C00000A002A202A402A602A802AA0285
:1000F000AC02AE02B402BA02C002C602D702D902F2
:10010000DB02DD02DF02E102E302E502EB02F102C3
:10011000F702FD020E031103150319031D0321034A
:10012000250329032D033103350338037A1B8E1B66
:10013000C51BD01B071C511C551C991CC21CCF1C75
:10014000DC1CE91CF61C031D101D2B1D661DDE1D8D
:10015000221E9C1EA01EA41EAE1EB41EFC1E1F1F2F
:10016000231F271F2B1F2F1F331F371F521F8D1FAA
:10017000A21FBC1FD41F0F209120952099209D20E5
:10018000A120B9200720572170218921A221BB215C
:10019000D421ED2106221F22382251226A228322F5
:1001A0009C22B522CE22E7220023192332234B239F
:1001B00064237D239623AF23C8231F25E123EB234C
:1001C0000A24162466276E2776277E2786278E2701
:1001D00096279E27A627AE27B627BE27C627C9275C
:1001E000DC27EF27FF270F281F282F283F28572815
:1001F0009F28A528AA281E2B4B2B772BA32BCF2B70
:10020000FB2B272C192D0B2E2F2E332E372E3B2E6A
:100210003F2E432E472E5B2E6F2EB32EB62EBA2EB8
:10022000722F362F452F542F632F912F952F992FF3
:100230009D2FA12FEC2FA52FA92FAD2FB12FB52FBB
:10024000B92FBD2FEC2FEC2FC12FC52FC92FCD2FCC
:10025000D12FD52FD82FDB2FDE2FE12FE42FE72F43
:10026000EA2F11241FBECFEFD1E2DEBFCDBF00E0E9
:100270000CBF19E0A0E0B2E0E8E7F0EB00E00BBF54
:1002800002C007900D92A23FB107D9F727E1A2EF74
:10029000B9E001C01D92A236B207E1F70E94775281
:1002A0000C943A58ADCE2F923F924F925F926F923C
:1002B0007F928F929F92AF92BF92CF92DF92EF92F6
:1002C000FF920F931F93CF93DF93CDB7DEB769975C
:1002D0000FB6F894DEBF0FBECDBFE0915713F0917B
:1002E0005813A080B180E82EF12C1E141F045CF47A
:1002F00080E090E0D5011D96AD90BC901E970196D0
:100300008E159F05B9F720916A0A30916B0AF901A1
:10031000858496848091AD0F9091AE0FDC011D967F
:100320006D907C901E970091230A1091240AF80189
:1003300043845484A091B60FB091B70F1B962D90B3
:100340003C901C9794878387FC01168705871C9631
:100350003C932E931B97F901B687A58768EB74E051
:1003600086E392E00E94ED3CFE0131968FE0DF01D2
:100370001D928A95E9F7F80180E09681890F05843E
:10038000F685E02D0E171F07C1F7F50196819C59E0
:10039000D92ED81A87E0E9E3F2E0DE011196019048
:1003A0000D928A95E1F7FFEFEF1AFF0A4AE0BE01CE
:1003B000605F7F4FC7010E94F757BE01605F7F4FAC
:1003C000CE0101960E94B5576CE575E1CE0101960C
:1003D0000E943B3D9DEC899FC12C11248C2D86955C
:1003E0008695C82ECC0CCC0CC80EDC1438F460E416
:1003F00072E086E392E00E94ED3CCD2CD50116968A
:10040000CC92D12C5E01B0E1AB0EB11C4AE0B5013B
:10041000C6010E94F757F50101900020E9F73197D6
:1004200085E290E091838083F8010584F685E02DD4
:100430000E171F07D1F786E0E4E5F2E0DE01119622
:1004400001900D928A95E1F74AE0BE016B5E7F4F05
:10045000C7010E94F757BE016B5E7F4FCE01019628
:100460000E94B557BE01605F7F4FCE0101960E948A
:10047000ED3C4AE0BE01605F7F4FC6010E94F75726
:1004800087E0E9E3F2E0DE01119601900D928A9592
:10049000E1F74AE0BE016B5E7F4FC7010E94F7574C
:1004A000BE016B5E7F4FCE0101960E94B557BE0123
:1004B000605F7F4FCE0101960E94053DEFE3FFE1B3
:1004C0003197F1F700C00000E0916A0AF0916B0AE1
:1004D00096868586E091AD0FF091AE0F76866586A3
:1004E000E091230AF091240A54864386E091B60FE6
:1004F000F091B70F3486238669960FB6F894DEBF65
:100500000FBECDBFDF91CF911F910F91FF90EF9064
:10051000DF90CF90BF90AF909F908F907F906F9023
:100520005F904F903F902F90089590E08C30910510
:1005300090F5FC018827EE58FF4F8F4F0C945655CD
:10054000129A0895139A0895149A0895159A089581
:10055000169A0895179A0895A29A0895E5E0F1E091
:100560008081806480830895E5E0F1E0808180628D
:1005700080830895E5E0F1E08081806180830895C3
:10058000E5E0F1E08081886080830895E5E0F1E0B6
:10059000808184608083089590E08C30910590F58F
:1005A000FC018827E258FF4F8F4F0C945655129844
:1005B0000895139808951498089515980895169815
:1005C000089517980895A2980895E5E0F1E08081D4
:1005D0008F7B80830895E5E0F1E080818F7D8083CB
:1005E0000895E5E0F1E080818F7E80830895E5E065
:1005F000F1E08081877F80830895E5E0F1E08081EC
:100600008B7F8083089590E08C309105A0F5FC01EC
:100610008827E657FF4F8F4F0C9456558FB180783F
:10062000089580910601817008958091060182707D
:100630000895809106018470089580910601887064
:10064000089580910601807108958091060180725D
:100650000895809106018074089580910601807844
:100660000895809103018078089580B18170089584
:1006700080B18270089580E008952F923F924F924A
:100680005F926F927F928F929F92AF92BF92CF9222
:10069000DF92EF92FF920F931F93CF93DF93CDB72B
:1006A000DEB7CC54D1090FB6F894DEBF0FBECDBF74
:1006B00028968FAF289729969FAF299727967FAFC7
:1006C0006EAF279785E1FE013196DF01982F1D92CD
:1006D0009A95E9F77596DF01982F1D929A95E9F79B
:1006E0007596DF011D928A95E9F7759685E0DF0121
:1006F0001D928A95E9F720916A0A30916B0AF901F7
:100700000584F685E02D2B96FFAFEEAF2B97E0909A
:10071000AD0FF090AE0FD7011D960D90BC91A02D9E
:100720002D96BFAFAEAF2D978090230A9090240AEC
:10073000F40123843484A091B60FB091B70F1B96B7
:100740006D907C901C97F486E386F70196868586EB
:100750001C963C932E931B97F901B687A587289684
:100760000FAD289729961FAD2997A12CB12C6E01AA
:10077000F0E4CF0ED11C0F2EF5E24F2E512CF02DB0
:100780008FEFA81AB80A4AE0B601C5010E94F757D0
:1007900027966EAD7FAD2797CE0101960E94C9576F
:1007A000B601CE0101960E94B55787E0E9E3F2E079
:1007B000DE01569601900D928A95E1F7B601CE01C1
:1007C00046960E94B55786E0E4E5F2E0DE019B968E
:1007D00001900D928A95E1F7B601CE018B960E94A9
:1007E000B557CE0101960E942D3ECE0146960E943D
:1007F0002D3ECE018B960E942D3E8016910651F41F
:100800008091640A811105C091E09093850E840166
:1008100001C08401D80112968C91811110C0E0169C
:10082000F10609F4B5C0F80105851685D8011296C0
:100830008C91811104C0E016F106A9F7A9C0E01659
:10084000F106B9F59091640A911137C0B1E0B09307
:10085000640A813009F5F70160817181CE0101964A
:100860000E94ED3CD70116968C914AE0B60190E0CB
:100870000E94F757B601CE0146960E94053DF6014B
:1008800001900020E9F7319751824082B601CE01F4
:100890008B960E94ED3C3EC0CE0101960E94F43D35
:1008A000CE0146960E94F43DCE018B960E94F43D07
:1008B00031C08091640A882369F0CE0101960E94BC
:1008C000F43DCE0146960E94F43DCE018B960E94E7
:1008D000F43D20C0F80160817181CE0101960E9433
:1008E000ED3CD80116968C914AE0B60190E00E944A
:1008F000F757B601CE0146960E94053DF6010190DC
:100900000020E9F7319751824082B601CE018B96E3
:100910000E94ED3CF80105851685F4E0AF16B104A0
:1009200021F48091640A882361F18FE39CE90197A7
:10093000F1F700C0000094E0A916B10409F020CF3F
:10094000E0916A0AF0916B0A2B96AEADBFAD2B9782
:10095000B687A587E091AD0FF091AE0F2D968EADC5
:100960009FAD2D9796878587E091230AF091240A01
:1009700034862386E091B60FF091B70F74866386B4
:100980000FC028960FAF289729961FAF299708C048
:100990008091640A811191CF91E09093640A7CCF99
:1009A00028968FAD289729969FAD2997C45BDF4F76
:1009B0000FB6F894DEBF0FBECDBFDF91CF911F9170
:1009C0000F91FF90EF90DF90CF90BF90AF909F90EE
:1009D0008F907F906F905F904F903F902F900895F1
:1009E0000F931F93CF93DF9300D01F92CDB7DEB745
:1009F0008C01E0910613F09107138681803228F074
:100A00008AE592E00E942D3E04C08AE592E00E94B1
:100A1000F43DF8016081718183E692E00E94ED3C33
:100A2000F80186814AE0BE016F5F7F4F90E00E942F
:100A3000F757AE014F5F5F4F60E772E083E792E0E8
:100A40000E94153D8091140A813059F018F08230CF
:100A500079F014C067E772E083E892E00E94ED3C11
:100A60000DC061E972E083E892E00E94ED3C06C0AF
:100A70006DE972E083E892E00E94ED3C0F900F90E8
:100A80000F900F90DF91CF911F910F9108952F92AA
:100A90003F924F925F926F927F928F929F92AF920E
:100AA000BF92CF92DF92EF92FF920F931F93CF935B
:100AB000DF93CDB7DEB7E4970FB6F894DEBF0FBE75
:100AC000CDBF69AB7AAB8BAB9CAB5A018091230A4B
:100AD0009091240A9093740B8093730B10927E0E66
:100AE0000F2EF4E16F2EF02D4A012DE3820E911CA2
:100AF00077247394E091730BF091740B8081918152
:100B00000E94F4508FE298E00E94F450E0910613A6
:100B1000F0910713A091730BB091740B15968C9103
:100B20000480F581E02DE80FF11D6082A091730B28
:100B3000B091740BE0910613F091071315968C9108
:100B400015970480F581E02DE80FF11D8081882341
:100B500009F40CC180910013811108C18D919C9101
:100B60000E94F4508FE298E00E94F450E091730BE1
:100B7000F091740B148280E00E947050F401C080E8
:100B8000D180E280F38028EE33E040E050E00E9424
:100B90003A55CA01B9010E949B53A70196010E94D0
:100BA0009D5265017B018C0120E030E04AEF54E466
:100BB000CA01B9010E94CA4BF5018081882369F0FE
:100BC000C5010E94B53C8FE99FE00197F1F700C095
:100BD0000000F50180818111F3CF20E030E0A90110
:100BE0006BE680E090E00E948B4F80E3E6E0F2E06D
:100BF000DE01119601900D928A95E1F78091750BB7
:100C00009091760BE0910613F09107130480F58123
:100C1000E02DE80FF91F1081880F991F880F991F89
:100C2000E1E0F0E0EC0FFD1FE80FF91F608171813A
:100C30008281938129A93AA94BA95CA90E940955EF
:100C40009B01AC01A12FB0E00E946D5524E630E07D
:100C500040E050E00E94185519012A01E091730B01
:100C6000F091740B8581CFDCE091730BF091740BE4
:100C700085815BDC072D01C0082F1091F809F12E4A
:100C8000F724111168C009F468C08091F4099091AB
:100C9000F509A091F609B091F709AC01BD014F5FCC
:100CA0005F4F6F4F7F4F4093F4095093F509609366
:100CB000F6097093F709281639064A065B06D0F440
:100CC000E091730BF091740B858166DC1092F4094E
:100CD0001092F5091092F6091092F7098FE99FE03A
:100CE0000197F1F700C000000E94993B882309F4A6
:100CF00068C06DC0EFE9FFE03197F1F700C0000078
:100D00000E94993B882359F10E94223C8091001354
:100D1000813039F5812F40DC1F5F1C30D9F78EE020
:100D20000E94CE3CFFEF27EA81E6F1502040804050
:100D3000E1F700C00000809106139091071350DE88
:100D40001092F4091092F5091092F6091092F70921
:100D5000F092F8090BC0802F05C0802F03C0802FB0
:100D600001C0802FF092F809011186CFE091730B3A
:100D7000F091740B858596859093740B8093730B1B
:100D80002091230A3091240A8217930709F0B2CEEA
:100D90001092001380917E0E813001F58DE00E944B
:100DA000CE3C62EA72E08AEB92E00E94ED3C9FEF5B
:100DB000E7EAF1E69150E040F040E1F700C00000C2
:100DC0000DC0F092F809D2CFF092F809CFCF0E946F
:100DD000223C809100138130B9F79CCFE4960FB686
:100DE000F894DEBF0FBECDBFDF91CF911F910F9161
:100DF000FF90EF90DF90CF90BF90AF909F908F903B
:100E00007F906F905F904F903F902F900895CF927A
:100E1000DF92EF92FF926B017C0185E00E94CE3C55
:100E200062EC72E08BEE92E00E94ED3C2FEF83EDDE
:100E300090E3215080409040E1F700C000004091D5
:100E4000510A5091520AC701B60121DE86E00E9484
:100E5000CE3C2FEF87EA91E6215080409040E1F7A9
:100E600000C0000081E00E94CE3C8091061390916A
:100E70000713B6DDFF90EF90DF90CF9008952F928B
:100E80003F924F925F926F927F928F929F92AF921A
:100E9000BF92CF92DF92EF92FF920F931F93CF9367
:100EA000DF93CDB7DEB7CE50D2400FB6F894DEBF99
:100EB0000FBECDBF40916A0A50916B0ADA011D96B0
:100EC0004D905C901E978091AD0F9091AE0FFC01FC
:100ED0000584F685E02DC55FDD4FF983E883CB50AF
:100EE000D2408090230A9090240AD4011B962D9022
:100EF0003C901C97A091B60FB091B70F1B96ED9147
:100F0000FC911C97C35FDD4FF983E883CD50D2403D
:100F1000F40194878387FC01968685861C965C93F2
:100F20004E931B97FA01B687A587FE0131968AE09A
:100F3000DF011D928A95E9F73A9680E092E0DF01A1
:100F40009C011D9221503040E1F784017F010F2E5A
:100F5000F4E1CF2ED12CF02D0F2EFDE2AF2EB12CCF
:100F6000F02D0F2EF8E26F2E712CF02DD801169671
:100F70008C911697882309F443C06D917C91C70129
:100F80000E94B55780E090E008C0F7010190002072
:100F9000E9F73197B182A0820196F801A081B18171
:100FA000FD0101900020E9F73197EA1BFB0B960148
:100FB0002E1B3F0B8217930740F3F701019000208F
:100FC000E9F7319771826082D80116968C914AE0D8
:100FD000BE016F5F7F4F90E00E94F757BE016F5FC9
:100FE0007F4FC7010E94B557D7010D900020E9F748
:100FF000119785E0E6EFF2E001900D928A95E1F716
:10100000F801058516858016910609F0AFCFBE015F
:10101000655F7F4F8BEF92E00E94ED3CE0916A0AA2
:10102000F0916B0A56864586E091230AF091240AD6
:1010300034862386E091B60FF091B70FC35FDD4F82
:1010400028813981CD50D24034872387E091AD0F7C
:10105000F091AE0FC55FDD4F88819981CB50D240B2
:1010600096878587C25FDD4F0FB6F894DEBF0FBE4F
:10107000CDBFDF91CF911F910F91FF90EF90DF9047
:10108000CF90BF90AF909F908F907F906F905F9028
:101090004F903F902F9008952F923F924F925F92E2
:1010A0006F927F928F929F92AF92BF92CF92DF9278
:1010B000EF92FF920F931F93CF93DF93CDB7DEB7DD
:1010C000E8970FB6F894DEBF0FBECDBF60916A0AF5
:1010D00070916B0ADB011D968D909C901E9720915C
:1010E000AD0F3091AE0FF9010584F685E02DF8AF14
:1010F000EFABC090230AD090240AD6011B966D90C6
:101100007C901C97A091B60FB091B70F1B964D9095
:101110005C901C97F60134872387F901D686C58633
:101120001C967C936E931B97FB01B687A5874AE0BC
:101130008E010F5F1F4FB80190E00E94F757D80152
:101140000D900020E9F7119785E0E8ECF5E00190BB
:101150000D928A95E1F7B80180E00E94CF448AE3BE
:101160009DE09CAB8BAB8AE090E09EAB8DABBE016B
:101170006D5C7F4F8EE79CE00E94AB577C01892B12
:1011800009F4A4C05E01F3E3AF0EB11C68E073E0A4
:10119000C7010E94C057892B79F4B50180E090E027
:1011A0000E94AB577C01E0910613F0910713BC013C
:1011B000808191810E94C9576DE073E0C7010E9450
:1011C000C057892BD9F5B50180E090E00E94AB575C
:1011D0007C01F60116820584F685E02DCE16DF0629
:1011E000C9F7D7018C918B3349F12A2C3B2C86010E
:1011F000F80160817181C7010E94C057892B69F491
:10120000622D732D80E090E00E94AB577C010E941C
:101210008E57D80116968C938601F80105851685A0
:10122000C016D10629F7622D732D80E090E00E9450
:10123000AB577C01DC018C918B33C9F664E173E020
:10124000C7010E94C057892B71F4B50180E090E07E
:101250000E94AB577C0100910613109107130E9466
:101260008E57F80182836CE173E0C7010E94C0577A
:10127000892B79F4B50180E090E00E94AB577C01A6
:1012800000910613109107130E948E57D8011396F0
:101290008C9369E273E0C7010E94C057892B69F4FF
:1012A000B50180E090E00E94AB57009106131091C9
:1012B00007130E948E57F8018683B50180E090E005
:1012C0000E94AB577C01892B09F060CFE0916A0A3C
:1012D000F0916B0A96868586E091230AF091240AA4
:1012E00074866386E091B60FF091B70F54864386FB
:1012F000E091AD0FF091AE0F4FA958AD56874587DD
:10130000E8960FB6F894DEBF0FBECDBFDF91CF9148
:101310001F910F91FF90EF90DF90CF90BF90AF9013
:101320009F908F907F906F905F904F903F902F9005
:101330000895CF93DF93E091530AF091540A0190FE
:10134000F081E02D882339F090E00380F481E02DD6
:101350009F5F8913FACFF093580AE093570A808170
:101360009BDE1092850E1092640AC091230AD091E0
:10137000240A10925E0A10925D0A1092780B109265
:10138000770BCE010E94D035BC018DE59AE00E941A
:10139000DF3590935E0A80935D0A90935813809393
:1013A000571389E00E94CE3C6EE273E0CE0165D90E
:1013B0009093090A8093080A0E94D035BC018DE5FC
:1013C0009AE00E94DF3590935E0A80935D0ADF9178
:1013D000CF910895E091530AF091540A0190F08161
:1013E000E02D882339F090E00380F481E02D9F5FA9
:1013F0008913FACF808150DEE0910613F091071334
:10140000808191810E94F4508FE298E00E94F45014
:101410001092850E1092640A0895EF92FF920F9336
:101420001F93CF93DF93CDB7DEB7C550D2400FB631
:10143000F894DEBF0FBECDBFE091020AF091030A1F
:10144000F093580AE093570A2091CA1290E0820F55
:10145000911D1816190674F420E030E00380F48121
:10146000E02D2F5F3F4F28173907C1F7F093580A37
:10147000E093570AE091570AF091580A80810CDEF8
:101480008E010F5F1F4F80E092E0F8019C011192E6
:1014900021503040E1F7D8010D900020E9F7119775
:1014A00080E1E4E3F3E001900D928A95E1F77E019B
:1014B0003FEFE31A3DEFF30A85E0F70111928A95B9
:1014C000E9F7E091710BF091720B828190E04AE0B4
:1014D000B70101960E94F757B701C8010E94B5579E
:1014E000F80101900020E9F731978AE390E09183B9
:1014F0008083E0910613F091071360817181C80128
:101500000E94B557C8010E942051C8010E94F450A2
:10151000E0910613F091071360817181E091710BE6
:10152000F091720B808191810E94C95789E10E94DC
:10153000CE3C88E0E4E4F3E0D80101900D928A9576
:10154000E1F7E091710BF091720B82814AE0B701F3
:1015500090E00E94F757B701C8010E94B557D80123
:101560000D900020E9F7119788E0ECE4F3E001909A
:101570000D928A95E1F7E091710BF091720B608109
:101580007181C8010E94B557D8010D900020E9F77C
:10159000119780E1E4E5F3E001900D928A95E1F77F
:1015A000B80184E693E00E94ED3CFFEF27EA31E6C4
:1015B000F15020403040E1F700C0000081E00E947F
:1015C000CE3C80910613909107130ADACB5FDD4F72
:1015D0000FB6F894DEBF0FBECDBFDF91CF911F9144
:1015E0000F91FF90EF9008955F926F927F928F928C
:1015F0009F92AF92BF92CF92DF92EF92FF920F93A2
:101600001F93CF93DF93CDB7DEB7E7970FB6F8946C
:10161000DEBF0FBECDBF682E792E4B01A090020A0F
:10162000B090030AC0905B0AD0905C0AFE0131962C
:1016300082E3DF011D928A95E9F7F29685E0DF01EA
:101640001D928A95E9F7062D192FE12CF12C5524CE
:101650005394A016B10631F48091640A811102C03E
:101660005092850EBFEFEB1AFB0A4AE0BE016D5C9B
:101670007F4FC7010E94F757B401CE0101960E9427
:10168000C957BE016D5C7F4FCE0101960E94B557D0
:10169000CE0101960E94BB3DC016D106A1F48091F7
:1016A000640A811114C05092640AF8018081F4DC4C
:1016B000E0910613F091071360817181CE010196CC
:1016C0000E94ED3C22C08091640A882389F068EB77
:1016D00074E0CE0101960E94ED3C8FE39CE90197F6
:1016E000F1F700C00000CE0101960E94823D0DC0BE
:1016F000D8018C91D1DCE0910613F0910713608141
:101700007181CE0101960E94ED3CF80103811481A4
:10171000F6E0EF16F10429F48091640A813051F467
:1017200007C08FE39CE90197F1F700C0000091CF5B
:10173000062D172DC801E7960FB6F894DEBF0FBE31
:10174000CDBFDF91CF911F910F91FF90EF90DF9070
:10175000CF90BF90AF909F908F907F906F905F9051
:101760000895CF93DF93CDB7DEB7E2970FB6F89425
:10177000DEBF0FBECDBFE091570AF091580A01803D
:10178000F281E02DF093580AE093570ABE016F5F93
:101790007F4F82E3DB011D928A95E9F780814AE061
:1017A00090E00E94F757E091570AF091580A808123
:1017B00073DCE2960FB6F894DEBF0FBECDBFDF91AB
:1017C000CF910895CF93DF93CDB7DEB7E2970FB6F1
:1017D000F894DEBF0FBECDBFE091570AF091580AD2
:1017E0000380F481E02DF093580AE093570ABE017C
:1017F0006F5F7F4F82E3DB011D928A95E9F780815D
:101800004AE090E00E94F757E091570AF091580A99
:10181000808142DCE2960FB6F894DEBF0FBECDBFEA
:10182000DF91CF9108951092C0111092760B109213
:10183000750B0E94184A8093C111882309F456C081
:101840002091750B3091760B2F5F3F4F3093760BC5
:101850002093750B2A30310560F351C081E993E084
:101860000E94F4508091C111823021F489EA93E002
:101870000E94F4508FE00E94CE3C67EC73E084E657
:1018800093E00E94ED3CFFCF85E194E00E94F4508C
:101890000EC081E494E00E94F45009C08FE594E00A
:1018A0000E94F45004C08BE894E00E94F4508FE949
:1018B0009FE00197F1F700C0000081E080930113E1
:1018C0000E9410408093C1118823E9F08FE00E94AC
:1018D000CE3C67EC73E084E693E00E94ED3C86EA40
:1018E00094E00E94F4501092011308958091C01169
:1018F000823079F2833091F28130A9F6C5CF813000
:1019000009F0B0CFABCF08952F923F924F925F92E4
:101910006F927F928F929F92AF92BF92CF92DF92FF
:10192000EF92FF920F931F93CF93DF93CDB7DEB764
:10193000CE51D2400FB6F894DEBF0FBECDBFC45E0D
:10194000DD4F8883CC51D240C35EDD4F4883CD51FB
:10195000D240C25EDD4F2883CE51D24040916A0A08
:1019600050916B0ADA011D966D907C901E978091C4
:10197000AD0F9091AE0FFC0145845684E090230A90
:10198000F090240AD7011B962D903C901C97A091B3
:10199000B60FB091B70F1B96ED91FC911C97C65EE8
:1019A000DD4FF983E883CA51D240F70194878387DA
:1019B000FC01F686E5861C965C934E931B97FA0114
:1019C000B687A5878E010F5F1F4F80E092E0D80198
:1019D000FC011D923197E9F7D8010D900020E9F73D
:1019E000119786E0E9EBF4E001900D928A95E1F71A
:1019F000C8010E94B557D8010D900020E9F7119752
:101A00008AE0EFEBF4E001900D928A95E1F7FE0198
:101A1000EF5FFD4F85E0DF011D928A95E9F78701B1
:101A2000F2506F010F2EFAE38F2E912CF02D0F2E16
:101A3000FDE0AF2EB12CF02DD80116968C911697A3
:101A4000882369F18D919C910E94F450F801608186
:101A50007181C6010E94B557F60101900020E9F797
:101A6000319791828082D80116968C914AE0BE010E
:101A70006F5F7D4F90E00E94F757BE016F5F7D4F13
:101A8000C6010E94B557F60101900020E9F7319791
:101A9000B182A082CE018F5F9D4F0E94F450F80169
:101AA00005851685E016F10639F68E010F5F1F4F8A
:101AB000F80101900020E9F731978BE39DE09183D5
:101AC00080831282D8010D900020E9F7119789E0F8
:101AD000E2E4F7E001900D928A95E1F74AE0BE0159
:101AE0006F5F7D4FC35EDD4FF881CD51D2408F2FA8
:101AF00090E00E94F757BE016F5F7D4FC8010E94C2
:101B0000B557F80101900020E9F731970F2EFDE05D
:101B1000EF2EF12CF02DF182E082D8010D90002003
:101B2000E9F711978EE0ECE4F7E001900D928A95C9
:101B3000E1F74AE0BE016F5F7D4FC25EDD4F288155
:101B4000CE51D240822F90E00E94F757BE016F5FC6
:101B50007D4FC8010E94B557F80101900020E9F7B8
:101B60003197F182E082D8010D900020E9F71197BA
:101B700086E0E9ECF4E001900D928A95E1F7E091BE
:101B80000613F09107138681803271F04AE0BE019E
:101B90006B5E7D4F90E00E94F757BE016B5E7D4FFC
:101BA000C8010E94B5570BC0FE013196019000207C
:101BB000E9F7319783E392E3918380831282CE0128
:101BC00001967C01FC0101900020E9F731978EE736
:101BD00090E0918380838E010A5F1D4F8FE0D801D2
:101BE0001D928A95E9F74AE0B801C45EDD4FB881DD
:101BF000CC51D2408B2F90E00E94F757D8010D9026
:101C00000020E9F7119785E0E8ECF5E001900D92EE
:101C10008A95E1F7B701C8010E94AA45E0916A0AD6
:101C2000F0916B0A76866586E091AD0FF091AE0F6C
:101C300056864586E091230AF091240A348623864D
:101C4000E091B60FF091B70FC65EDD4F2881398164
:101C5000CA51D24034872387C25EDD4F0FB6F89455
:101C6000DEBF0FBECDBFDF91CF911F910F91FF90CF
:101C7000EF90DF90CF90BF90AF909F908F907F902C
:101C80006F905F904F903F902F9008950F931F9308
:101C9000CF93DF93CDB7DEB764970FB6F894DEBF6E
:101CA0000FBECDBF8E010F5F1F4F94E1F80111925F
:101CB0009A95E9F74AE0B80190E00E94F757D801F9
:101CC0000D900020E9F7119785E0E8ECF5E0019030
:101CD0000D928A95E1F7C8010E949E4564960FB661
:101CE000F894DEBF0FBECDBFDF91CF911F910F9152
:101CF0000895EF92FF920F931F93CF93DF93CDB789
:101D0000DEB7A1970FB6F894DEBF0FBECDBF8E0130
:101D10000F5F1F4F95E1F80111929A95E9F77E0147
:101D2000F6E1EF0EF11C95E0F70111929A95E9F7B3
:101D30002AE530E03A8329834AE0B70190E00E9427
:101D4000F757B701C8010E94B557D8010D90002080
:101D5000E9F7119785E0E8ECF5E001900D928A959E
:101D6000E1F7B80180E00E94CF4487E0EFECF4E0B7
:101D7000DE015B9601900D928A95E1F7BE01655EEA
:101D80007F4F8EE79CE00E94AB578C01892B09F4B2
:101D900050C068E073E0C8010E94C057892B89F4E5
:101DA000BE01655E7F4F80E090E00E94AB578C01E2
:101DB000E091210AF091220ABC01808191810E9468
:101DC000C95764E173E0C8010E94C057892B81F4B0
:101DD000BE01655E7F4F80E090E00E94AB578C01B2
:101DE000E090210AF090220A0E948E57F701828328
:101DF0006CE173E0C8010E94C057892B79F4BE01E1
:101E0000655E7F4F80E090E00E94AB570091210A11
:101E10001091220A0E948E57F8018383BE01655EED
:101E20007F4F80E090E00E94AB578C01892B09F036
:101E3000B0CFA1960FB6F894DEBF0FBECDBFDF9135
:101E4000CF911F910F91FF90EF9008952F923F92A5
:101E50004F925F926F927F928F929F92AF92BF92BA
:101E6000CF92DF92EF92FF920F931F93CF93DF9366
:101E7000CDB7DEB7C956D1090FB6F894DEBF0FBE95
:101E8000CDBF282E392E3B01FE01319685E0DF01C2
:101E90001D928A95E9F78091B10F811111C086EDED
:101EA00094E00E942D3E8091B10F811109C0A09055
:101EB000930FB090940F80908D0F90908E0F08C06C
:101EC000A090C812B090C9128090060A9090070A9C
:101ED00082E3FE013696DF01982F1D929A95E9F76D
:101EE000F296DF011D928A95E9F71092850E109205
:101EF000640AE22CF32CC12CD12C8F014E2E512ED2
:101F0000AE14BF0439F48091640A811103C0B1E0BA
:101F1000B093850EF7018081ECDEFFEFCF1ADF0A68
:101F20004AE0BE016F5F7F4FC6010E94F757B301C1
:101F3000CE0106960E94C957BE016F5F7F4FCE014A
:101F400006960E94B557CE0106960E94BB3D8E14A0
:101F50009F0441F58091640A811128C081E080933B
:101F6000640AE091210AF091220A93818091B10FD5
:101F7000981307C060817181CE0106960E94ED3CE6
:101F800030C068EB74E0CE0106960E94ED3CAFE3F2
:101F9000BCE91197F1F700C00000CE0106960E943F
:101FA000823D1FC08091640A882389F068EB74E049
:101FB000CE0106960E94ED3CEFE3FCE93197F1F784
:101FC00000C00000CE0106960E94823D0AC0E0914A
:101FD000210AF091220A60817181CE0106960E9449
:101FE000ED3C8091B10F811144C0E091210AF09144
:101FF000220A60817181E091730BF091740B8081F2
:1020000091810E94C057892BD1F4BE016A5F7F4F36
:10201000842D952D0E94C957D8010D900020E9F715
:1020200011978AE0E9EDF4E001900D928A95E1F7CD
:10203000842D952D0E940A510E94B83C77C0BE01A4
:102040006A5F7F4F842D952D0E94C957D8010D904E
:102050000020E9F7119787E0E3EEF4E001900D929C
:102060008A95E1F7842D952D0E940A510E94B83C73
:102070005DC08091B60F9091B70F9093C31180937C
:10208000C211E091210AF091220A60817181E091F0
:10209000C211F091C311808191810E94C057892B98
:1020A000D1F4BE016A5F7F4F842D952D0E94C957E0
:1020B000D8010D900020E9F711978AE0E9EDF4E0EE
:1020C00001900D928A95E1F7842D952D0E940A5179
:1020D0000E94B83C2BC0BE016A5F7F4F842D952DB6
:1020E0000E94C957D8010D900020E9F7119787E0A9
:1020F000E3EEF4E001900D928A95E1F7842D952DA1
:102100000E940A510E94B83CE091C211F091C311A3
:10211000858596859093C3118093C2112091B60F47
:102120003091B70F8217930709F0ABCFD701139601
:10213000ED90FC901497B6E0CB16D10421F4809179
:10214000640A882361F0EFE3FCE93197F1F700C0FE
:102150000000F6E0CF16D10409F0D2CE02C02E2C3A
:102160003F2C822D932DC759DF4F0FB6F894DEBF59
:102170000FBECDBFDF91CF911F910F91FF90EF90D8
:10218000DF90CF90BF90AF909F908F907F906F9097
:102190005F904F903F902F900895CF92DF92EF92F3
:1021A000FF920F931F93CF93DF93CDB7DEB7EC97DA
:1021B0000FB6F894DEBF0FBECDBF8091230A909179
:1021C000240A9093740B8093730B00E010E00F2EA1
:1021D000F2E6CF2ED12CF02DCE0101967C01DA82D1
:1021E000C9824AE0BE016D5C7F4FC8010E94F7576B
:1021F000BE016D5C7F4FC7010E94B557E091730B24
:10220000F091740B8281813089F018F08230D9F01E
:1022100026C0D7010D900020E9F7119787E0E3EE83
:10222000F4E001900D928A95E1F719C0D7010D9065
:102230000020E9F711978AE0E9EDF4E001900D92B2
:102240008A95E1F70CC0D7010D900020E9F71197AE
:102250008BE0EAEEF4E001900D928A95E1F7C70178
:102260000E940A510E94B83CE091730BF091740BEC
:10227000858596859093740B8093730B0F5F1F4F2A
:102280000C30110509F0ABCFEC960FB6F894DEBF19
:102290000FBECDBFDF91CF911F910F91FF90EF90B7
:1022A000DF90CF900895E091230AF091240AF093F3
:1022B000740BE093730B90E01816190674F420E089
:1022C00030E00584F685E02D2F5F3F4F2817390752
:1022D000C1F7F093740BE093730B0895AF92BF9224
:1022E000CF92DF92EF92FF920F931F93CF93DF93E2
:1022F000CDB7DEB7C550D2400FB6F894DEBF0FBEE3
:10230000CDBFFE01319680E092E0DF019C011D927D
:1023100021503040E1F78091020A9091030A909396
:10232000580A8093570AFC0100E00F5F0380F48194
:10233000E02D8E179F07C9F7CE0101967C01DC01C5
:102340000D900020E9F7119780E1E5EFF4E00190AE
:102350000D928A95E1F76E019FEFC91A9DEFD90A98
:1023600085E0D6011D928A95E9F710E04AE0B601B2
:10237000C8010E94F757B601C7010E94B557F7017F
:1023800001900020E9F731978AE390E09183808300
:10239000E091020AF091030AF093580AE093570A79
:1023A00080810E944C08E0910613F0910713608130
:1023B0007181C7010E94B557E091570AF091580A00
:1023C000838194819093580A8093570A0150110990
:1023D000101611068CF5E12CF12CFE0131966F01DF
:1023E0000F2EFCE2AF2EB12CF02DF6010190002053
:1023F000E9F73197B182A082E091570AF091580A2B
:1024000080810E944C08E0910613F09107136081CF
:102410007181C6010E94B557E091570AF091580AA0
:10242000838194819093580A8093570AFFEFEF1AA3
:10243000FF0AE016F106CCF28E010F5F1F4FF80184
:1024400001900020E9F731978AE390E0918380833F
:10245000C8010E94F450C8010E942051CB5FDD4F9B
:102460000FB6F894DEBF0FBECDBFDF91CF911F91A5
:102470000F91FF90EF90DF90CF90BF90AF900895B5
:102480009F92AF92BF92CF92DF92EF92FF920F9303
:102490001F93CF93DF93CDB7DEB7CA50D4400FB6AA
:1024A000F894DEBF0FBECDBF80E092E0FE01319612
:1024B000DF019C011D9221503040E1F7DE01AF5F4A
:1024C000BD4FFD019C01119221503040E1F79E016A
:1024D0002F5F3B4F8AE0F90111928A95E9F78091CD
:1024E000230A9091240A9093740B8093730B89E0D4
:1024F000E5E0F5E001900D928A95E1F7AA24A39416
:10250000B12C345079010F2EFCE2CF2ED12CF02DBE
:10251000912CE091730BF091740B00811181B80143
:102520008EE095E00E94C057892BA9F031E0A312FC
:1025300006C0B801C7010E94B557A92C0BC0F7010E
:1025400001900020E9F73197D182C082B801C7011C
:102550000E94B557B394E091730BF091740B85858D
:1025600096859093740B8093730B2091230A30917E
:10257000240A8217930769F64AE0BE016F5F7B4F1A
:102580008B2D90E00E94F7578E010F5F1D4FBE010B
:102590006F5F7B4FC8010E94B557F8010190002082
:1025A000E9F731978AE390E091838083BE016F5F02
:1025B0007F4FC8010E94B557C8010E942051C80131
:1025C0000E94F450C65FDB4F0FB6F894DEBF0FBE1B
:1025D000CDBFDF91CF911F910F91FF90EF90DF90D2
:1025E000CF90BF90AF909F9008950F931F93CF937C
:1025F000DF93CDB7DEB7C450D1400FB6F894DEBF3D
:102600000FBECDBF0E94293C8823E1F38E010F5FEE
:102610001F4F80E091E0F8019C0111922150304061
:10262000E1F78CE29AE3CF5FDE4F99838883C15054
:10263000D1408DE090E0CD5FDE4F99838883C35019
:10264000D1406EE576E1C8010E94C957BE016F5FB7
:102650007E4FC8010E94AB578C0185E295E00E9435
:10266000F450C8010E94F450E091020AF091030A6C
:10267000F093580AE093570A80810E944C0812C0D8
:10268000E091570AF091580A0380F481E02DF0930D
:10269000580AE093570A80810E944C0881E395E034
:1026A0000E94F450E0910613F0910713B801808165
:1026B00091810E94C057892B19F784E00E94CE3C7B
:1026C000CC5FDE4F0FB6F894DEBF0FBECDBFDF91FB
:1026D000CF911F910F9108952F923F924F925F9249
:1026E0006F927F928F929F92AF92BF92CF92DF9222
:1026F000EF92FF920F931F93CF93DF93CDB7DEB787
:10270000C154D2400FB6F894DEBF0FBECDBF0E94B9
:10271000293C8823E1F38EE596E10E94F45080E0A5
:1027200091E09E012F5F3F4F7901D901FC011D927D
:102730003197E9F78E010F5F1E4FD801FC011D9202
:102740003197E9F78CE29AE3CF5FDD4F9983888375
:10275000C150D2408DE090E0CD5FDD4F99838883FA
:10276000C350D2406EE576E1C9010E94C957BE014F
:102770006F5F7D4FC7010E94AB577C0188E395E0F6
:102780000E94F450C7010E94F450D8010D9000201F
:10279000E9F7119786E0E9EBF4E001900D928A9554
:1027A000E1F7B701C8010E94B557D8010D9000208C
:1027B000E9F711978AE0EFEBF4E001900D928A952A
:1027C000E1F7FE01EB5FFD4F84E1DF011D928A9589
:1027D000E9F7749685E1DF011D928A95E9F7C12C2E
:1027E000D12C312C48010F2EFAE36F2E712CF02DD5
:1027F0000F2EFDE04F2E512CF02D2224239480E447
:1028000095E00E94F450EFEFCE1ADE0A4AE0BE01D6
:102810006B5F7D4FC6010E94F757CE018B5F9D4FC6
:102820000E94F4508CE698E00E94F450BE016F5F65
:102830007D4F80E090E00E94AB578C010E94F450E5
:10284000B801CE01875E9D4F0E94C95787E495E08D
:102850000E94F4504AE0BE016B5F7D4FC6010E94AA
:10286000F757CE018B5F9D4F0E94F4508CE698E0A5
:102870000E94F450BE016F5F7D4F80E090E00E94A7
:10288000AB575C010E948E57181619060CF045C014
:102890008091230A9091240A9093740B8093730B78
:1028A0000F2EFCE0EF2EF12CF02D0091730B109108
:1028B000740BBE01675E7D4FD8018D919C910E9483
:1028C000C057892B29F4F8018381813009F4322C17
:1028D000D8011D968D919C911E979093740B8093B7
:1028E000730BB1E0EB1AF10801F7BE01675E7D4F93
:1028F000C4010E94B557F40101900020E9F7319717
:1029000071826082B501C4010E94B557F401019043
:102910000020E9F7319751824082C5010E94F450AE
:10292000EFEFF3EC29E0E150F0402040E1F700C088
:1029300000003CE0C316D10409F061CF8E010F5FA7
:102940001E4FF80101900020E9F731978BE39DE0DD
:10295000918380831282D8010D900020E9F71197AE
:1029600089E0E2E4F7E001900D928A95E1F74AE010
:10297000BE016B5F7D4F832D90E00E94F757BE0133
:102980006B5F7D4FC8010E94B557D8010D900020A4
:10299000E9F7119789E0EEE4F5E001900D928A9550
:1029A000E1F7F80101900020E9F731978EE790E018
:1029B00091838083C8010E94F4507E0182EDE81A61
:1029C0008DEFF80A84E1D7011D928A95E9F7E0912D
:1029D0005B0AF0915C0A808190E04AE0BE016B5F87
:1029E0007D4F01960E94F757BE016B5F7D4FC70177
:1029F0000E94C957D7010D900020E9F7119785E093
:102A0000E8ECF5E001900D928A95E1F7B801C70175
:102A10000E94AA45C7010E94F450E091100AF0916B
:102A2000110A80818F5F0E945131BC018BE59AE0D1
:102A30000E94693190935C0A80935B0ACF5BDD4F03
:102A40000FB6F894DEBF0FBECDBFDF91CF911F91BF
:102A50000F91FF90EF90DF90CF90BF90AF909F903D
:102A60008F907F906F905F904F903F902F90089540
:102A700010925C0A10925B0A1092030A1092020AEA
:102A8000089589E10E94CE3C67E575E084E693E015
:102A90000E94ED3CEDDF8091550A9091560A90938B
:102AA000680A8093670AE091670AF091680A80815A
:102AB0000E94ED2F882381F0E091670AF091680A67
:102AC00080810E945131BC018BE59AE00E946931FE
:102AD00090935C0A80935B0AE091670AF091680A20
:102AE000838194819093680A8093670A2091550AA4
:102AF0003091560A82179307B1F6E091020AF091DD
:102B0000030AF093580AE093570A80810E944C0808
:102B100081E00E94CE3C80910613909107130C94A3
:102B2000F0040895CF92DF92EF92FF920F931F93DC
:102B3000CF93DF93CDB7DEB7CA51D2400FB6F8942A
:102B4000DEBF0FBECDBF89E10E94CE3C6AEA75E0D0
:102B500084E693E00E94ED3C2FEF37EA81E62150B6
:102B600030408040E1F700C000001A8219821092C4
:102B70007A0B1092790BFE01339680E092E0DF0130
:102B80009C011D9221503040E1F7F12C0F2D10E0F7
:102B90008091790B90917A0B800F911F0E9432588F
:102BA000A3E0B0E0AC0FBD1F0A0F1B1FF80180832C
:102BB0008983CE0101960E94F450F394D8018C9140
:102BC0008E3721F78E010D5F1D4F84E1F8011192C0
:102BD0008A95E9F786E0E7ECF5E0D80101900D92DF
:102BE0008A95E1F7C8010E949E4586E0E7ECF5E092
:102BF000D80101900D928A95E1F7BE016D5F7F4F7C
:102C0000C8010E94AA458CE29DE0C95EDD4F998310
:102C10008883C751D2408AE090E0C75EDD4F998338
:102C20008883C951D2408091230A9091240A9093BD
:102C3000740B8093730BD12CCC24C394DD2041F012
:102C4000BE01695E7D4F80E090E00E94AB5708C0F6
:102C5000BE01695E7D4FCE0103960E94AB57DC2C0E
:102C6000E091730BF091740BBC01808191810E9403
:102C7000C957E091730BF091740B808191810E9490
:102C8000F450BE01695E7D4F80E090E00E94AB573A
:102C90008C010E94F450E090730BF090740BC8010B
:102CA0000E948E57D70112968C93BE01695E7D4FAC
:102CB00080E090E00E94AB570091730B1091740B71
:102CC0000E948E57F8018383BE01695E7D4F80E0CC
:102CD00090E00E94AB570091730B1091740B0E940F
:102CE0008E57D80114968C9314971D968D919C91B4
:102CF0001E979093740B8093730B2091230A30914D
:102D0000240A8217930709F099CFBBDE81E00E9465
:102D1000CE3CE091020AF091030AF093580AE09346
:102D2000570A80810E944C088091061390910713E6
:102D30000E94F004C65EDD4F0FB6F894DEBF0FBEF2
:102D4000CDBFDF91CF911F910F91FF90EF90DF905A
:102D5000CF900895AF92BF92CF92DF92EF92FF9201
:102D60000F931F93CF93DF93CDB7DEB72A970FB69C
:102D7000F894DEBF0FBECDBF8C01FE0131968AE014
:102D8000DF011D928A95E9F78091230A9091240A28
:102D90009093740B8093730BE12CF12C0F2EFCE2BB
:102DA000CF2ED12CF02D0F2EFDE0AF2EB12CF02D1B
:102DB000E114F10451F0E091730BF091740B608118
:102DC0007181C8010E94B55709C0E091730BF09161
:102DD000740B60817181C8010E94C957F80101908C
:102DE0000020E9F73197D182C082E091730BF09116
:102DF000740B82814AE0BE016F5F7F4F90E00E94BA
:102E0000F757BE016F5F7F4FC8010E94B557F801A9
:102E100001900020E9F73197D182C082E091730BD5
:102E2000F091740B83814AE0BE016F5F7F4F90E0A9
:102E30000E94F757BE016F5F7F4FC8010E94B557D0
:102E4000F80101900020E9F73197D182C082E0912A
:102E5000730BF091740B84814AE0BE016F5F7F4F6A
:102E600090E00E94F757BE016F5F7F4FC8010E943C
:102E7000B557F80101900020E9F73197B182A0829F
:102E8000E091730BF091740B858596859093740B8C
:102E90008093730BBFEFEB1AFB0A8CE0E816F1048A
:102EA00009F086CFF80101900020E9F731978BE314
:102EB0009DE09183808312828091B60F9091B70F2D
:102EC0009093C3118093C2110F2EFCE0CF2ED12C12
:102ED000F02D0F2EFCE2EF2EF12CF02D0F2EFDE049
:102EE000AF2EB12CF02DE091C211F091C311608191
:102EF0007181C8010E94B557F80101900020E9F7DF
:102F00003197F182E082E091C211F091C311828188
:102F10004AE0BE016F5F7F4F90E00E94F757BE010D
:102F20006F5F7F4FC8010E94B557F80101900020E4
:102F3000E9F73197F182E082E091C211F091C3117B
:102F400083814AE0BE016F5F7F4F90E00E94F75798
:102F5000BE016F5F7F4FC8010E94B557F801019015
:102F60000020E9F73197F182E082E091C211F091FF
:102F7000C31184814AE0BE016F5F7F4F90E00E94E1
:102F8000F757BE016F5F7F4FC8010E94B557209170
:102F9000C2113091C3118091AD0F9091AE0F2817DF
:102FA000390741F0F80101900020E9F73197B1822B
:102FB000A0820CC0D8010D900020E9F7119785E0A0
:102FC000EDECF5E001900D928A95E1F7E091C211E8
:102FD000F091C311858596859093C3118093C2119A
:102FE000A1E0CA1AD10809F07ECFC8010E94F450AE
:102FF0002A960FB6F894DEBF0FBECDBFDF91CF91FA
:103000001F910F91FF90EF90DF90CF90BF90AF9006
:103010000895FF920F931F93CF93DF93CDB7DEB741
:10302000CF55D2400FB6F894DEBF0FBECDBF182FDC
:10303000062FFE01319682E3DF011D928A95E9F7A2
:10304000F29685E0DF011D928A95E9F71630C1F40A
:10305000E091730BF091740BA081B18188E0EEE0F8
:10306000F5E001900D928A95E1F7E091730BF091F4
:10307000740B13821482628383E10E94CE3C2AC0C7
:10308000173011F5E091210AF091220A60817181D7
:10309000E091730BF091740B808191810E94C9576C
:1030A000E091730BF091740BA091210AB091220A68
:1030B00012968C911297838313968C91848302834A
:1030C00083E10E94CE3C49C0183021F483E10E9484
:1030D000CE3C43C0163008F040C083E10E94CE3C95
:1030E000E091190AF0911A0A0190F081E02DF09315
:1030F000500AE0934F0A112359F080E00380F481D5
:10310000E02D8F5F1813FACFF093500AE0934F0A27
:10311000E0914F0AF091500A80810E94790EE0916F
:10312000210AF091220A60817181E091730BF09184
:10313000740B808191810E94C957E091730BF091CB
:10314000740B0283A091210AB091220A12968C91ED
:103150001297838313968C9184838EE492E79A83EB
:1031600089838EE290E09C838B83E091730BF091D6
:10317000740B858190E04AE0BE016D5C7F4F019643
:103180000E94F757BE016D5C7F4F8E010F5F1F4F8E
:10319000C8010E94B557F80101900020E9F7319766
:1031A00080E29DE39183808380E290E09383828339
:1031B000E091730BF091740B60817181C8010E94E2
:1031C000B557B80182ED95E00E94ED3C0E94CD100C
:1031D0001092850E1092640A0F2EF4E1FF2EF02D4E
:1031E000CE01C896FC012F2D11922A95E9F726E011
:1031F000E7ECF5E0DC0101900D922A95E1F70E94E1
:103200009E45055B1F4F80E092E0D801FC011D92B6
:103210003197E9F7C8019EDDCE01845B9D4FDC014B
:103220001D92FA94E9F726E0E7ECF5E0DC01019065
:103230000D922A95E1F7B8010E94AA45C15ADD4FC7
:103240000FB6F894DEBF0FBECDBFDF91CF911F91B7
:103250000F91FF9008958F929F92BF92CF92DF922D
:10326000EF92FF920F931F93CF93DF93CDB7DEB70B
:10327000CF55D2400FB6F894DEBF0FBECDBFD82ECB
:10328000162FFE01319685E0DF011D928A95E9F740
:10329000359682E3DF011D928A95E9F7B6E0DB12ED
:1032A00015C0E091C211F091C311A081B18188E0F5
:1032B000EEE0F5E001900D928A95E1F7E091C21100
:1032C000F091C31113821482628377C1E7E0DE12AA
:1032D0001FC0E091210AF091220A60817181E09182
:1032E000C211F091C311808191810E94C957E09170
:1032F000C211F091C311A091210AB091220A129635
:103300008C911297838313968C918483128355C179
:10331000F5E0FD1520F428E0D21619F14EC1E09138
:10332000190AF0911A0A0190F081E02DF093010A38
:10333000E093000ADD2059F090E00380F481E02D55
:103340009F5FD912FACFF093010AE093000AE0914F
:10335000000AF091010A80810E94790E38E0D312B0
:1033600007C0E091060AF091070A80810E94790E59
:103370008091B60F9091B70F9093C3118093C211B3
:10338000CC24C3948E010A5F1F4FED2CF12C8FEFDC
:10339000E81AF80AB12CE091C211F091C3119281A0
:1033A000913009F063C080809180E091210AF09112
:1033B000220A60817181C4010E94C057892B09F0E3
:1033C00055C0B401C8010E94C957D8010D90002012
:1033D000E9F711978BE0EDEDF5E001900D928A95FC
:1033E000E1F7B80188EE95E00E94ED3CB80182ED6E
:1033F00095E00E94ED3CE091C211F091C311A081D3
:10340000B18188E0EEE0F5E001900D928A95E1F758
:10341000E091C211F091C3111282138214824AE02A
:10342000BE016F5F7F4FC7010E94F7578DE0E5EF48
:10343000F5E0D80101900D928A95E1F7BE016F5F2A
:103440007F4FC8010E94B557D8010D900020E9F7C1
:10345000119787E0E3EEF4E001900D928A95E1F791
:10346000C8010E940A510E94B83CCB2CE091C211C5
:10347000F091C311258536853093C3112093C21175
:103480004091B60F5091B70F2417350709F083CF3D
:10349000A1E0CA1292C0E091C211F091C3118281E1
:1034A00081116EC0A091210AB091220A6D917C9188
:1034B000808191810E94C957E091C211F091C3119E
:1034C00081E08283A091210AB091220A12968C9108
:1034D0001297838313968C918483608171818E010E
:1034E0000A5F1F4FC8010E94C957D8010D900020E4
:1034F000E9F711978EE0E2E0F6E001900D928A95EF
:10350000E1F7B80188EE95E00E94ED3CB80182ED4C
:1035100095E00E94ED3C8D2D90E04AE0BE016F5F8A
:103520007F4F01960E94F7578DE0E5EFF5E0D80157
:1035300001900D928A95E1F7BE016F5F7F4FC80140
:103540000E94B557D8010D900020E9F711978AE045
:10355000E9EDF4E001900D928A95E1F7C8010E942F
:103560000A510E94B83C2091C2113091C311809140
:10357000B60F9091B70F28173907F9F4C12C0EC078
:10358000858596859093C3118093C2112091B60FC3
:103590003091B70F8217930709F07DCFB1E0CB12BE
:1035A0000CC060E176E088EE95E00E94ED3C60E1C1
:1035B00076E082ED95E00E94ED3C0F2EF4E1FF2EC7
:1035C000F02DCE01C896FC012F2D11922A95E9F716
:1035D00026E0E7ECF5E0DC0101900D922A95E1F799
:1035E0000E949E458E01045B1F4F80E092E0D8014F
:1035F000FC011D923197E9F7C801ACDBCE01845B79
:103600009D4FDC011D92FA94E9F726E0E7ECF5E026
:10361000DC0101900D922A95E1F7B8010E94AA45BC
:10362000C15ADD4F0FB6F894DEBF0FBECDBFDF919C
:10363000CF911F910F91FF90EF90DF90CF90BF90AF
:103640009F908F900895CF93DF938091B10F811158
:1036500005C0C091930FD091940F04C0C091C812BF
:10366000D091C91210920F0A10920E0A1092B30F45
:103670001092B20F88810E94790ECE010E94963579
:10368000BC018EE09AE00E94A53590930F0A8093CA
:103690000E0A90931A0A8093190ADC01ED91FC91AD
:1036A00080810E94790E84E10E94CE3C65EF75E036
:1036B000CE010E94260F90933A0A8093390A0E9405
:1036C0009635BC018EE09AE00E94A53590930F0AD2
:1036D00080930E0ADF91CF91089590E0FC0132971C
:1036E000E830F10508F028C18827EA56FF4F8F4FD0
:1036F0000C94565582E00E94CE3CE0910613F09166
:1037000007136081718183E692E00E94ED3C809115
:103710000613909107130C943F0708958091140AA3
:10372000813039F018F08230B9F028C00E94B10B16
:1037300025C00E94B10BE0910613F091071382811E
:1037400081111CC00E94B10BE0910613F091071388
:1037500082818823B9F312C00E94B10BE091061355
:10376000F09107138281813049F40E94B10BE091FE
:103770000613F091071382818130B9F3809106130B
:10378000909107130C94F004089584E00E94CE3CBD
:10379000E091570AF091580A80810C944C080895E2
:1037A0008091140A813039F018F08230B9F028C0C5
:1037B0000E94E20B25C00E94E20BE0910613F091FB
:1037C0000713828181111CC00E94E20BE091061355
:1037D000F091071382818823B9F312C00E94E20B93
:1037E000E0910613F09107138281813049F40E9421
:1037F000E20BE0910613F091071382818130B9F357
:1038000080910613909107130C94F0040895809111
:10381000570A9091580A9093260A8093250A80911E
:10382000020A9091030A9093580A8093570A1092C3
:103830001C0A10921B0A1092400A10923F0A0E9422
:103840004732BC018BE19AE00E94563290931C0AE9
:1038500080931B0A9093540A8093530ADC01ED91E4
:10386000FC9180810E944C0883E00E94CE3CE09154
:10387000530AF091540A63E773E0808191810E94BA
:10388000F40A9093B00F8093AF0F0E944732BC01AF
:103890008BE19AE00E94563290931C0A80931B0A97
:1038A000089587E00C94CE3C0895E091020AF091CF
:1038B000030AF093580AE093570A80810E944C084B
:1038C0008091140A8130C1F018F0823049F12AC089
:1038D00081E08093140AE0910613F091071382812E
:1038E000811120C00E94E20BE0910613F0910713B2
:1038F00082818823B9F316C082E08093140AE09194
:103900000613F09107138281813061F40E94E20B6B
:10391000E0910613F091071382818130B9F302C060
:103920001092140A80910613909107130C94F004DE
:10393000089582E10C94CE3C0895813019F08230D4
:1039400059F0089581E00E94CE3C80910613909139
:1039500007130C94F00408958091061390910713B7
:103960000C94F0040895CF93DF9390E0FC0131971D
:10397000E930F10508F0DEC08827E256FF4F8F4F8F
:103980000C94565580E00E94EA0981E00E94CE3CEA
:1039900080910613909107130E94F004CBC081E040
:1039A0000E94EA0981E00E94CE3C8091061390912A
:1039B00007130E94F004BEC082E00E94EA0981E081
:1039C0000E94CE3C80910613909107130E94F00450
:1039D000B1C083E00E94EA0981E00E94CE3C809160
:1039E0000613909107130E94F004A4C084E00E9483
:1039F000EA0981E00E94CE3C809106139091071362
:103A00000E94F00497C085E00E94EA0981E00E94CC
:103A1000CE3C80910613909107130E94F0048AC057
:103A20008091850E811186C083E00E94CE3C109269
:103A3000640AE091530AF091540A0280F381E02D68
:103A4000F093540AE093530A63E773E08081918115
:103A50000E94F40A6FC08091640A81116BC01092B9
:103A6000850E83E00E94CE3CE091530AF091540A07
:103A70000480F581E02DF093540AE093530A63E744
:103A800073E0808191810E94F40A9093B00F80933B
:103A9000AF0FE091530AF091540AA081B181E091F7
:103AA0001B0AF0911C0A0190F081E02D3C912081CD
:103AB000321340C00E944732BC018BE19AE00E9461
:103AC000563290931C0A80931B0A34C01092850EC4
:103AD0001092640A80913F0A9091400A9093540A90
:103AE0008093530AC091530AD091540ACE010E9488
:103AF00005578C819D819093540A8093530A20919D
:103B00003F0A3091400A8217930761F7E091250A36
:103B1000F091260AF093580AE093570A80810E9498
:103B20004C0881E00E94CE3C8091061390910713CF
:103B30000E94F004DF91CF910895823059F08330D4
:103B400081F08130A1F463E070E080E090E00C94BB
:103B50000707089565E070E080E090E00C940707A7
:103B6000089580910613909107130C94F004089522
:103B7000813011F48093001308958F929F92AF9239
:103B8000BF92CF92DF92EF92FF920F931F93CF934A
:103B9000DF93CDB7DEB769970FB6F894DEBF0FBEDF
:103BA000CDBF90E0FC013197E830F10508F027C166
:103BB0008827E955FF4F8F4F0C9456558091570A2F
:103BC0009091580A9093260A8093250A8091020AC0
:103BD0009091030A9093580A8093570A10921C0AF6
:103BE00010921B0A1092400A10923F0A0E9447321C
:103BF000BC018BE19AE00E94563290931C0A80939C
:103C00001B0A9093540A8093530A88E00E94CE3C8A
:103C1000E091530AF091540A63E773E08081918147
:103C20000E94F40A9093B00F8093AF0F0E94473226
:103C3000BC018BE19AE00E94563290931C0A80935B
:103C40001B0ADDC080E10E94CE3C40916A0A50917F
:103C50006B0AFA01C584D6842091AD0F3091AE0F66
:103C6000F901E584F684A091230AB091240A1B96F9
:103C70000D911C911C978091B60F9091B70FFC018C
:103C8000638574851C963C932E931B97F901B68728
:103C9000A587FC0154874387FA0196878587FD0134
:103CA00016820584F685E02DAE17BF07C9F7FA0125
:103CB000D686C586F901F686E5861C961C930E937A
:103CC0001B97FC0174876387CE01019624E1FC01F8
:103CD00011922A95E9F726E433E73A8329831B8278
:103CE000DC010D900020E9F711972AE0E9EDF4E0FE
:103CF00001900D922A95E1F70E940A510E94B83C6A
:103D000081E080935F0A10928C0FE6E9FFE001905A
:103D10000020E9F73197CF0186599F40992718165F
:103D200019060CF06CC0E6E9FFE08A56904F11923C
:103D30008E179F07E1F763C08AE00E94CE3C5FC008
:103D40008DE00E94CE3C5BC081E00E94CE3C809121
:103D50000613909107130E94F00451C083E10E9462
:103D6000CE3C0E94CD104BC087E10E94CE3C00E0CB
:103D700010E00F2EFAE0BF2EF02D9E012F5F3F4F77
:103D800069010F2EF5E0AF2EF02D7E0135E1E30E37
:103D9000F11CF6012B2D11922A95E9F7F7012A2D36
:103DA00011922A95E9F785E0EEE1F6E0D60101905F
:103DB0000D928A95E1F748013FEF831A930A4B2D44
:103DC000B701C4010E94F757B701C6010E94B55759
:103DD0008091CA12F801E80FF11DCF014B2DB701F8
:103DE00001960E94F757B701C6010E94ED3C84017D
:103DF0000630110571F603C08AE10E94CE3C699637
:103E00000FB6F894DEBF0FBECDBFDF91CF911F91EB
:103E10000F91FF90EF90DF90CF90BF90AF909F9069
:103E20008F90089590E0FC013197EA30F10508F099
:103E30008BC08827E155FF4F8F4F0C94565580E07B
:103E40000C949909089581E00C949909089582E0F1
:103E50000C949909089583E00C949909089584E0DD
:103E60000C949909089585E00C949909089580911E
:103E7000850E811169C088E00E94CE3C1092640AD0
:103E8000E091530AF091540A0280F381E02DF093FF
:103E9000540AE093530A63E773E0808191810C94A4
:103EA000F40A08958091640A81114EC01092850E23
:103EB00088E00E94CE3CE091530AF091540A0480BD
:103EC000F581E02DF093540AE093530A63E773E021
:103ED000808191810E94F40A9093B00F8093AF0F7C
:103EE000E091530AF091540AA081B181E0911B0A3C
:103EF000F0911C0A0190F081E02D3C912081321359
:103F000023C00E944732BC018BE19AE00E945632E6
:103F100090931C0A80931B0A0895E091250AF09162
:103F2000260AF093580AE093570A80810E944C08B1
:103F30001092850E1092640A1092CA1287E00C94B7
:103F4000CE3C08950C9492150895AF92BF92CF92F3
:103F5000DF92EF92FF920F931F93CF93DF9390E046
:103F6000FC013197EA30F10508F003C18827E754D6
:103F7000FF4F8F4F0C9456558091850E8111F9C0DB
:103F80001092640AE0915713F09158130480F58160
:103F9000E02DF0935813E09357136EE273E08081A5
:103FA00091810E943D03E5C08091640A8111E1C0C6
:103FB0001092850EE0915713F09158130280F3810F
:103FC000E02DF0935813E09357136EE273E0808175
:103FD00091810E943D039093090A8093080A4091C1
:103FE00057135091581320915D0A30915E0A421781
:103FF000530709F0BEC00E94D035BC018DE59AE0A0
:104000000E94DF3590935E0A80935D0AB2C01092E1
:10401000850E1092640A81E00E94CE3CAAC0E09115
:104020006A0AF0916B0AC584D6842091AD0F309155
:10403000AE0FD9011D96ED90FC901E97A091230A1A
:10404000B091240A1B960D911C911C978091B60F7C
:104050009091B70FEC01AB84BC841C963C932E93DB
:104060001B97E901BE87AD87EC01FC87EB8796873C
:104070008587FD0180E09681890F0584F685E02D16
:10408000AE17BF07C1F7843669F51092850E1092FE
:10409000640A89E10E94CE3C63E276E084E693E024
:1040A0000E94ED3CE091570AF091580A80810E94ED
:1040B000460EE0910613F091071360817181A09183
:1040C000570AB091580A238142818C910E94840C36
:1040D00081E00E94CE3C80910613909107130E94CC
:1040E000F00406C067E376E086E392E00E94ED3CD0
:1040F000E0916A0AF0916B0AD686C586E091AD0F11
:10410000F091AE0FF686E586E091230AF091240A3D
:1041100014870387E091B60FF091B70FB486A3869A
:1041200028C080E00E94530124C081E00E94530116
:1041300020C082E00E9453011CC083E00E94530112
:1041400018C01092850E1092640A81E00E94CE3C45
:10415000E091250AF091260AF093580AE093570A55
:1041600080810E944C0880910613909107130E9451
:10417000F004DF91CF911F910F91FF90EF90DF90AE
:10418000CF90BF90AF900895813019F0823029F020
:10419000089587E00C94CE3C08958BE00C94CE3CBF
:1041A00008951F93CF93DF93813019F0823029F067
:1041B0003AC087E00E94CE3C36C08CE00E94CE3CE4
:1041C00010E080910013811112C0812F0E9495028E
:1041D000C0EDD7E00E94993B81110E94223C8FE9FB
:1041E0009FE00197F1F700C00000219799F7812F18
:1041F0000E94CC021F5F1C3021F71092001381E057
:104200000E94CE3CE091020AF091030AF093580A12
:10421000E093570A80810E944C0880910613909188
:1042200007130E94F004DF91CF911F910895813010
:1042300031F487E00E94CE3C81E080930013089522
:10424000813019F487E00C94CE3C08954F925F9230
:104250006F927F928F929F92AF92BF92CF92DF9296
:10426000EF92FF920F931F93CF93DF93CDB7DEB7FB
:10427000E2970FB6F894DEBF0FBECDBFE82F9E01C8
:104280002F5F3F4F82E3D9011D928A95E9F780E3C2
:1042900089838E2F90E0FC013197EF31F10508F012
:1042A00006C48827ED53FF4F8F4F0C9456558091CD
:1042B0005F0A813041F4E0918C0FF0E0EA56F04F54
:1042C00081E4808307C0E0918C0FF0E0EA56F04F64
:1042D00081E6808380918C0F8F5F80938C0FE7C382
:1042E00080915F0A813041F4E0918C0FF0E0EA5652
:1042F000F04F82E4808307C0E0918C0FF0E0EA5633
:10430000F04F82E6808380918C0F8F5F80938C0FBB
:10431000CEC380915F0A813041F4E0918C0FF0E0D0
:10432000EA56F04F83E4808307C0E0918C0FF0E001
:10433000EA56F04F83E6808380918C0F8F5F8093E5
:104340008C0FB5C380915F0A813041F4E0918C0FEE
:10435000F0E0EA56F04F84E4808307C0E0918C0FD0
:10436000F0E0EA56F04F84E6808380918C0F8F5FF7
:1043700080938C0F9CC380915F0A813041F4E0915F
:104380008C0FF0E0EA56F04F85E4808307C0E0919F
:104390008C0FF0E0EA56F04F85E6808380918C0F19
:1043A0008F5F80938C0F83C380915F0A813041F4CB
:1043B000E0918C0FF0E0EA56F04F86E4808307C06E
:1043C000E0918C0FF0E0EA56F04F86E68083809112
:1043D0008C0F8F5F80938C0F6AC380915F0A81304E
:1043E00041F4E0918C0FF0E0EA56F04F87E48083CF
:1043F00007C0E0918C0FF0E0EA56F04F87E680832B
:1044000080918C0F8F5F80938C0F51C380915F0AD6
:10441000813041F4E0918C0FF0E0EA56F04F88E4EF
:10442000808307C0E0918C0FF0E0EA56F04F88E6F9
:10443000808380918C0F8F5F80938C0F38C3809125
:104440005F0A813041F4E0918C0FF0E0EA56F04FC2
:1044500089E4808307C0E0918C0FF0E0EA56F04FCA
:1044600089E6808380918C0F8F5F80938C0F1FC3B0
:1044700080915F0A813041F4E0918C0FF0E0EA56C0
:10448000F04F8AE4808307C0E0918C0FF0E0EA5699
:10449000F04F8AE6808380918C0F8F5F80938C0F22
:1044A00006C380915F0A813041F4E0918C0FF0E007
:1044B000EA56F04F8BE4808307C0E0918C0FF0E068
:1044C000EA56F04F8BE6808380918C0F8F5F80934C
:1044D0008C0FEDC280915F0A813041F4E0918C0F26
:1044E000F0E0EA56F04F8CE4808307C0E0918C0F37
:1044F000F0E0EA56F04F8CE6808380918C0F8F5F5E
:1045000080938C0FD4C280915F0A813041F4E09196
:104510008C0FF0E0EA56F04F8DE4808307C0E09105
:104520008C0FF0E0EA56F04F8DE6808380918C0F7F
:104530008F5F80938C0FBBC280915F0A813041F402
:10454000E0918C0FF0E0EA56F04F8EE4808307C0D4
:10455000E0918C0FF0E0EA56F04F8EE68083809178
:104560008C0F8F5F80938C0FA2C280915F0A813085
:1045700041F4E0918C0FF0E0EA56F04F8FE4808335
:1045800007C0E0918C0FF0E0EA56F04F8FE6808391
:1045900080918C0F8F5F80938C0F89C280915F0A0E
:1045A000813041F4E0918C0FF0E0EA56F04F80E565
:1045B000808307C0E0918C0FF0E0EA56F04F80E76F
:1045C000808380918C0F8F5F80938C0F70C280915D
:1045D0005F0A813041F4E0918C0FF0E0EA56F04F31
:1045E00081E5808307C0E0918C0FF0E0EA56F04F40
:1045F00081E7808380918C0F8F5F80938C0F57C2EF
:1046000080915F0A813041F4E0918C0FF0E0EA562E
:10461000F04F82E5808307C0E0918C0FF0E0EA560E
:10462000F04F82E7808380918C0F8F5F80938C0F97
:104630003EC280915F0A813041F4E0918C0FF0E03E
:10464000EA56F04F83E5808307C0E0918C0FF0E0DD
:10465000EA56F04F83E7808380918C0F8F5F8093C1
:104660008C0F25C280915F0A813041F4E0918C0F5C
:10467000F0E0EA56F04F84E5808307C0E0918C0FAC
:10468000F0E0EA56F04F84E7808380918C0F8F5FD3
:1046900080938C0F0CC280915F0A813041F4E091CD
:1046A0008C0FF0E0EA56F04F85E5808307C0E0917B
:1046B0008C0FF0E0EA56F04F85E7808380918C0FF5
:1046C0008F5F80938C0FF3C180915F0A813041F43A
:1046D000E0918C0FF0E0EA56F04F86E5808307C04A
:1046E000E0918C0FF0E0EA56F04F86E780838091EE
:1046F0008C0F8F5F80938C0FDAC180915F0A8130BD
:1047000041F4E0918C0FF0E0EA56F04F87E58083AA
:1047100007C0E0918C0FF0E0EA56F04F87E7808306
:1047200080918C0F8F5F80938C0FC1C180915F0A45
:10473000813041F4E0918C0FF0E0EA56F04F88E5CB
:10474000808307C0E0918C0FF0E0EA56F04F88E7D5
:10475000808380918C0F8F5F80938C0FA8C1809194
:104760005F0A813041F4E0918C0FF0E0EA56F04F9F
:1047700089E5808307C0E0918C0FF0E0EA56F04FA6
:1047800089E7808380918C0F8F5F80938C0F8FC11E
:1047900080915F0A813041F4E0918C0FF0E0EA569D
:1047A000F04F8AE5808307C0E0918C0FF0E0EA5675
:1047B000F04F8AE7808380918C0F8F5F80938C0FFE
:1047C00076C1E0918C0FE150E0938C0FF0E0EA5657
:1047D000F04F10826CC1E091250AF091260AF09307
:1047E000580AE093570A80810E944C0810928C0F5F
:1047F000E6E9FFE08AEA9FE01192E817F907E1F79E
:1048000081E00E94CE3C80910613909107130E9494
:10481000F0044DC180918C0FE82FF0E0EA56F04F84
:1048200090E290838F5F80938C0F41C18091960FAF
:10483000811107C063E576E08AE796E00E94ED3CCF
:1048400083C066E876E08AE796E00E94ED3CE0915E
:104850008D0FF0918E0F83809480E091060AF09185
:10486000070AA380B480E090930FF090940FD701D3
:104870001196CD90DC901297A091C812B091C912F8
:1048800011966D907C901297D7011296FC93EE933F
:104890001197E091060AF091070A8091930F909189
:1048A000940F94838383E091C812F091C912809190
:1048B0008D0F90918E0F92838183E0918D0FF091F7
:1048C0008E0F8091C8129091C912948383838701BF
:1048D000512C44244394F80180810E94790EE09188
:1048E000210AF091220A66E97FE0808191810E948D
:1048F000C057892B39F466EA76E08CEB96E00E948B
:10490000ED3C542CD80113960D911C911497E01690
:10491000F10609F7E0918D0FF0918E0F948283825A
:10492000E091060AF091070AB482A382E091930F06
:10493000F091940FD282C182E091C812F091C91215
:10494000728261825110B3C08091570A9091580AC7
:104950009093260A8093250A20916A0A30916B0A67
:10496000F901C584D684A091AD0FB091AE0F1D960C
:104970004D915C911E970091230A1091240AF80131
:10498000E384F4848091B60F9091B70FFC016385A6
:104990007485F801B487A3871E961C930E931D9708
:1049A000FC0134872387F90196878587F8011682F1
:1049B0000584F685E02D0E171F07C9F7F901D68685
:1049C000C586F801F486E386FC01748763871E962A
:1049D0005C934E931D971092850E1092640A10926C
:1049E0005E0A10925D0A1092780B1092770BC80144
:1049F0000E94D035BC018DE59AE00E94DF3590938E
:104A00005E0A80935D0A909358138093571381E157
:104A10000E94CE3C6EE273E0C8010E943D03909379
:104A2000090A8093080A0E94D035BC018DE59AE0FE
:104A30000E94DF3590935E0A80935D0A38C08091B2
:104A40005F0A8130D1F410925F0A86E493E79A837B
:104A500089831B82CE010196DC010D900020E9F7CD
:104A6000119727E0E3EEF4E001900D922A95E1F72B
:104A70000E940A510E94B83C1AC081E080935F0AEC
:104A800086E493E79A8389831B82CE010196DC0139
:104A90000D900020E9F711972AE0E9EDF4E001908C
:104AA0000D922A95E1F70E940A510E94B83C66E9EE
:104AB0007FE08AEC96E00E94ED3C80918C0F833180
:104AC00018F083E180938C0FE2960FB6F894DEBF66
:104AD0000FBECDBFDF91CF911F910F91FF90EF904F
:104AE000DF90CF90BF90AF909F908F907F906F900E
:104AF0005F904F9008953F924F925F926F927F9296
:104B00008F929F92AF92BF92CF92DF92EF92FF92DD
:104B10000F931F93CF93DF93CDB7DEB72F970FB6C9
:104B2000F894DEBF0FBECDBF40916A0A50916B0A68
:104B3000DA011D968D909C901E972091AD0F3091BB
:104B4000AE0FF901A584B6840091230A1091240ABE
:104B5000D8011B96CD90DC901C97A091B60FB09118
:104B6000B70F1B966D907C901C97F80134872387B4
:104B7000F901168705871C965C934E931B97FA01E3
:104B8000B687A587813019F08230C9F0F1C0E09175
:104B9000250AF091260AF093580AE093570A80817B
:104BA0000E944C08000081E00E94CE3C80910613D8
:104BB000909107130E94F0041092CA12D9C0F80114
:104BC00034872387F901168705871C965C934E93DB
:104BD0001B97FA01B687A587F80180E09681890FB7
:104BE0000584F685E02D0E171F07C1F7843609F0FE
:104BF000A1C089E10E94CE3C63E276E084E693E0C6
:104C00000E94ED3CE0910613F091071366E97FE006
:104C1000808191810E94C957A0910613B09107131A
:104C200080E216968C931697F801412C512C91E056
:104C30008681882341F08381813009F4592E848153
:104C4000813009F4492E0584F685E02D0E171F07E3
:104C500079F712965C92EE24E394F12C0F2EFFE08C
:104C60003F2EF02D8E010F5F1F4FD801E32D1D92B7
:104C7000EA95E9F74AE0B801C7010E94F757D80161
:104C80000D900020E9F7119785E0E8ECF5E0019040
:104C90000D928A95E1F7B80181E00E94CF448130FE
:104CA00069F1242D452D66E97FE08E2D0E94840C4C
:104CB0008E2D0E9451318C01BC018BE59AE00E943F
:104CC000693190935C0A80935B0AB80180E19AE0B5
:104CD0000E9469319093110A8093100AE0915B0A57
:104CE000F0915C0AF093580AE093570A9093680A8F
:104CF0008093670A80810E944C0808C0FFEFEF1A7A
:104D0000FF0A85E6E816F10409F0AFCF81E00E94C2
:104D1000CE3C80910613909107130E94F0041092EC
:104D20008C0FE6E9FFE08AEA9FE01192E817F907A5
:104D3000E1F706C067E376E086E392E00E94ED3C8F
:104D4000E0916A0AF0916B0A96868586E091AD0F34
:104D5000F091AE0FB686A586E091230AF091240A61
:104D6000D486C386E091B60FF091B70F7486638640
:104D70002F960FB6F894DEBF0FBECDBFDF91CF9157
:104D80001F910F91FF90EF90DF90CF90BF90AF9069
:104D90009F908F907F906F905F904F903F9008957D
:104DA0000F931F93CF93DF93CDB7DEB764970FB602
:104DB000F894DEBF0FBECDBF813021F0823009F400
:104DC00064C06CC0E091570AF091580A8091020AC1
:104DD0009091030AE817F90739F48381948190933D
:104DE000030A8093020A0DC080915B0A90915C0ACD
:104DF000E817F90731F48181928190935C0A8093DE
:104E00005B0AA381B4818181928112969C938E93D7
:104E10001197E091570AF091580AA181B2818381DC
:104E2000948114969C938E93139780814AE08E010F
:104E30000F5F1F4FB80190E00E94F757D8010D9007
:104E40000020E9F7119785E0E8ECF5E001900D927C
:104E50008A95E1F7C8010E949E45E091570AF091BA
:104E6000580A0180F281E02DF093580AE093570A26
:104E700080810E944C0881E00E94CE3C8091061304
:104E8000909107130E94F00409C081E00E94CE3C7B
:104E900080910613909107130E94F00464960FB658
:104EA000F894DEBF0FBECDBFDF91CF911F910F9160
:104EB000089590E0FC013197EE30F10508F06EC0E6
:104EC0008827EE51FF4F8F4F0C9456551092B10F1B
:104ED00080E00E9453110C94231B08951092B10F8F
:104EE00081E00E9453110C94231B08951092B10F7E
:104EF00082E00E9453110C94231B08951092B10F6D
:104F000083E00E9453110C94231B08951092B10F5B
:104F100084E00E9453110C94231B08951092B10F4A
:104F200085E00E9453110C94231B08951092B10F39
:104F300086E00E9453110C94231B08951092B10F28
:104F400087E00E9453110C94231B08951092B10F17
:104F500088E00E9453110C94231B08951092B10F06
:104F600089E00E9453110C94231B08951092B10FF5
:104F70008AE00E9453110C94231B08951092B10FE4
:104F80008BE00E9453110C94231B08950C9441153F
:104F9000089581E08093B10F0C94231B089590E055
:104FA000FC013197EB30F10508F0DDC08827E051B6
:104FB000FF4F8F4F0C9456558091B10F811103C054
:104FC00061E00E9409188091B10F813009F0CBC0D7
:104FD0001092640A61E080E00C942B19089580918E
:104FE000B10F811105C061E081E00C9409180895AA
:104FF0001092640A61E081E00C942B19089580916D
:10500000B10F811105C061E082E00C940918089588
:105010001092640A61E082E00C942B19089580914B
:10502000B10F811105C061E083E00C940918089567
:105030001092640A61E083E00C942B19089580912A
:10504000B10F811105C061E084E00C940918089546
:105050001092640A61E084E00C942B190895809109
:10506000B10F811105C061E085E00C940918089525
:105070001092640A61E085E00C942B1908958091E8
:10508000850E811170C01092640AE091190AF091A6
:105090001A0A0480F581E02DF0931A0AE093190AA8
:1050A00065EF75E0808191810C94260F08958091C1
:1050B000640A811158C01092850EE091190AF0918E
:1050C0001A0A0280F381E02DF0931A0AE093190A7C
:1050D0000190F081E02D80810E94790EE091210AFB
:1050E000F091220A808191810E94F4508FE298E031
:1050F0000E94F450E091190AF0911A0A65EF75E0E8
:10510000808191810E94260F90933A0A8093390AF8
:105110004091190A50911A0A20910E0A30910F0AF3
:105120004217530701F50E949635BC018EE09AE0C4
:105130000E94A53590930F0A80930E0A089585E189
:105140000E94CE3C1092CA12089560E086E00C9452
:10515000091808951092850E1092640A83E10E9446
:10516000CE3C0C94CD1008956F927F928F929F92B7
:10517000AF92BF92CF92DF92EF92FF920F931F9365
:10518000CF93DF93813009F093C08091960F811106
:1051900007C064ED76E08CEB96E00E94ED3C7BC0AE
:1051A0006AEF76E08CEB96E00E94ED3CE0918D0F8B
:1051B000F0918E0FA380B480E091060AF091070A67
:1051C000C380D480C091930FD091940FE980FA806E
:1051D000A091C812B091C91211960D911C9112970D
:1051E000FA83E983E091060AF091070A8091930F10
:1051F0009091940F94838383E091C812F091C91227
:1052000080918D0F90918E0F92838183E0918D0F0D
:10521000F0918E0F8091C8129091C912948383836C
:105220004E01712C66246394F40180810E94790EF2
:10523000E091210AF091220A66E97FE08081918164
:105240000E94C057892B39F466EA76E08CEB96E031
:105250000E94ED3C762CF40183809480C815D9051A
:1052600019F7E0918D0FF0918E0FB482A382E09137
:10527000060AF091070AD482C382E091930FF0915D
:10528000940FF282E182E091C812F091C912128368
:10529000018371100DC08BE10E94CE3CE091210A88
:1052A000F091220A66E97FE0808191810E94C957CE
:1052B000DF91CF911F910F91FF90EF90DF90CF90F2
:1052C000BF90AF909F908F907F906F900895BF9206
:1052D000CF92DF92EF92FF920F931F93CF93DF93C2
:1052E000CDB7DEB7C654D1090FB6F894DEBF0FBEF6
:1052F000CDBFFE0131969FE0DF011D929A95E9F73F
:105300003F9692E3DF011D929A95E9F7F29695E0B8
:10531000DF011D929A95E9F7813008F441C1182FF9
:10532000833020F0833009F42DC13AC189E10E9415
:10533000CE3C68E177E084E693E00E94ED3C1130DA
:1053400039F4E091210AF091220A81E0828307C0BA
:10535000123029F4E091210AF091220A12828E0182
:10536000005F1F4F86E0E9EBF4E0D80101900D9259
:105370008A95E1F7E090210AF090220AF701608116
:105380007181C8010E94B557D8010D900020E9F73E
:1053900011978AE0E1E4F7E001900D928A95E1F738
:1053A000D70112968C914AE0BE016E5B7F4F90E070
:1053B0000E94F757BE016E5B7F4FC8010E94B55730
:1053C000D8010D900020E9F711978FE0EBE4F7E0AA
:1053D00001900D928A95E1F7E091210AF091220A5D
:1053E00083814AE0BE016E5B7F4F90E00E94F757D9
:1053F000BE016E5B7F4FC8010E94B557F801019056
:105400000020E9F731978EE790E091838083BB24F9
:10541000B3940F2EFAE5CF2ED12CF02D0F50110999
:10542000DA82C982EB2C0B2C000CFF084AE0BE018B
:105430006E5B7F4FC7010E94F757BE016E5B7F4FC7
:10544000C8010E94B557D8010D900020E9F71197C7
:1054500085E0E8ECF5E001900D928A95E1F7B8015E
:1054600081E00E94CF44813009F44CC08AE590E08D
:105470009A8389834AE0BE016E5B7F4FC7010E9419
:10548000F757BE016E5B7F4F8E010F5F1F4FC80144
:105490000E94B557D8010D900020E9F7119785E0DB
:1054A000E8ECF5E001900D928A95E1F7BE01605FAE
:1054B0007F4FC8010E94AA458B2D0E9483338C0127
:1054C0008B2D0E94790EE091210AF091220A8381AE
:1054D00081110CC0A80163E97FE08DE89FE00E9484
:1054E0008F3390938E0F80938D0F50C0A80168EC7E
:1054F00072E186E09AE00E948F339093070A8093CE
:10550000060A44C0B3948CCFA82FB0E0AA56B04F7F
:105510001C928F5FE817C0F710928C0F8091B10F2B
:10552000811111C0E091210AF091220A8381811139
:1055300005C061E087E00E94091832C061E088E0A0
:105540000E9409182DC0E091210AF091220A83815E
:10555000813071F483E10E94CE3C6AE577E082ED10
:1055600095E00E94ED3C61E088E00E942B1918C094
:1055700083E10E94CE3C68E677E082ED95E00E94F0
:10558000ED3C0EC08BE10E94CE3C0AC0E6E9FFE094
:1055900001900020E9F73197E659FF4080E0B4CF51
:1055A000CA5BDF4F0FB6F894DEBF0FBECDBFDF91F1
:1055B000CF911F910F91FF90EF90DF90CF90BF9010
:1055C0000895823071F08330A9F08130E1F486E1F2
:1055D0000E94CE3CE091210AF091220A81E083836F
:1055E000089586E10E94CE3CE091210AF091220AC2
:1055F0001382089585E10E94CE3C66E97FE08AEC43
:1056000096E00C94ED3C0895FF920F931F93CF9377
:10561000DF93CDB7DEB7AD970FB6F894DEBF0FBE00
:10562000CDBF90E0FC013197E930F10508F0FEC2F2
:105630008827E550FF4F8F4F0C945655E0917C0C16
:10564000F0917D0CF093720BE093710B2091CA12D4
:1056500030E0121613066CF480E090E00680F781CB
:10566000E02D019682179307C9F7F093720BE09330
:10567000710B88E10E94CE3C1092CA121092850EE6
:105680001092640A63E773E08091020A9091030A22
:105690000E94F40ACBC2E0917C0CF0917D0CF09357
:1056A000720BE093710B2091CA1230E02F5F3F4FD5
:1056B00080E090E00680F781E02D01968217930745
:1056C000CCF3F093720BE093710B88E10E94CE3C17
:1056D0001092CA121092850E1092640A63E773E06A
:1056E0008091020A9091030A0E94F40A9FC2E091FD
:1056F0007C0CF0917D0CF093720BE093710B209178
:10570000CA1230E02E5F3F4F80E090E00680F781C4
:10571000E02D019682179307CCF3F093720BE09380
:10572000710B88E10E94CE3C1092CA121092850E35
:105730001092640A63E773E08091020A9091030A71
:105740000E94F40A73C2E0917C0CF0917D0CF093FE
:10575000720BE093710B2091CA1230E02D5F3F4F26
:1057600080E090E00680F781E02D01968217930794
:10577000CCF3F093720BE093710B88E10E94CE3C66
:105780001092CA121092850E1092640A63E773E0B9
:105790008091020A9091030A0E94F40A47C2E091A4
:1057A0007C0CF0917D0CF093720BE093710B2091C7
:1057B000CA1230E02C5F3F4F80E090E00680F78116
:1057C000E02D019682179307CCF3F093720BE093D0
:1057D000710B88E10E94CE3C1092CA121092850E85
:1057E0001092640A63E773E08091020A9091030AC1
:1057F0000E94F40A1BC2E0917C0CF0917D0CF093A6
:10580000720BE093710B2091CA1230E02B5F3F4F77
:1058100080E090E00680F781E02D019682179307E3
:10582000CCF3F093720BE093710B88E10E94CE3CB5
:105830001092CA121092850E1092640A63E773E008
:105840008091020A9091030A0E94F40AEFC18091AC
:10585000850E8111EBC11092640A2091CA12265064
:105860002093CA12E0917C0CF0917D0CF093720BA6
:10587000E093710B30E0121613066CF480E090E0B8
:105880000680F781E02D019682179307CCF3F09301
:10589000720BE093710BFE01319685E1DF011D92E1
:1058A0008A95E9F71AA61BA61CA61DA68E010A5EFC
:1058B0001F4F84E1F80111928A95E9F7D8010D9004
:1058C0000020E9F7119785E0EEE1F6E001900D92F6
:1058D0008A95E1F78091750B9091760B4AE0BE01B5
:1058E000665D7F4F01960E94F757BE01665D7F4F50
:1058F000C8010E94B557C8010E94BB3D00E010E0FE
:10590000FF24F3940F5F1F4F4AE0BE01665D7F4F97
:10591000C8010E94F75785E0EEE1F6E0DE0111963E
:1059200001900D928A95E1F7BE01665D7F4FCE0131
:1059300001960E94B557E091710BF091720B809126
:10594000170A9091180AE817F907B1F48091640AD0
:10595000811116C0F092640A82814AE0BE01665D40
:105960007F4F90E00E94F757BE01665D7F4FCE01EA
:1059700001960E94ED3C3BC08091640A882341F16E
:1059800068EB74E0CE0101960E94ED3C8FE39CE948
:105990000197F1F700C0000085E0EEE1F6E0DE01DE
:1059A000569601900D928A95E1F74AE0BE01665D38
:1059B0007F4FC8010E94F757BE01665D7F4FCE0141
:1059C00046960E94B557CE0146960E94823D0FC072
:1059D00082814AE0BE01665D7F4F90E00E94F757EA
:1059E000BE01665D7F4FCE0101960E94ED3CE091C5
:1059F000710BF091720B80917C0C90917D0CE817EB
:105A0000F90731F48091640A811102C0F092850E89
:105A1000868197819093720B8093710BAFE3BCE901
:105A20001197F1F700C000000630110509F06ACFA8
:105A3000FDC08091640A8111F9C01092850E2091F9
:105A4000CA122A5F2093CA12E0917C0CF0917D0C5F
:105A5000F093720BE093710B30E0121613066CF4A6
:105A600080E090E00680F781E02D01968217930791
:105A7000CCF3F093720BE093710BFE01319685E14C
:105A8000DF011D928A95E9F71AA61BA61CA61DA682
:105A90008E010A5E1F4F84E1F80111928A95E9F7A1
:105AA000D8010D900020E9F7119785E0EEE1F6E0CE
:105AB00001900D928A95E1F78091750B9091760B8C
:105AC0004AE0BE01665D7F4F01960E94F757BE0116
:105AD000665D7F4FC8010E94B557C8010E94BB3D5B
