S01700004D696B726F636F6E74726F6C6C65722E73726563C7
S113000071C1000090C100008EC100008CC10000CD
S11300108AC1000088C1000086C1000084C10000BC
S113002082C1000080C100007EC100007CC10000CC
S11300307AC100000C941B5376C1000074C1000007
S113004072C100000C9433380C943E386CC100002B
S11300506AC100000C946B3966C1000064C10000E1
S113006062C100000C94055A5EC100005CC100002E
S11300705AC1000058C1000056C1000054C100001C
S11300800C9449380C9454384EC100004CC1000003
S11300900C94315A48C1000046C1000044C100001C
S11300A042C1000040C100000C945F380C946A38CF
S11300B03AC1000038C1000036C100000C94753804
S11300C00C94803830C100002EC100000C945D5A9D
S11300D02AC1000028C1000026C1000024C100007C
S11300E022C100003A093C093E0940094209440979
S11300F0460948094E0954095A09600971097309E6
S11301007509770979097B097D097F0985098B09B7
S113011091099709D209D509D909DD09E109E50948
S1130120E909ED09F109F509F909FC092324372442
S11301306E247924B024C624CA240E2538254C25DF
S11301406025742588259C25B025B425B825F1257E
S113015007260D26112615261F2625266D268F26F1
S1130160932697269B269F26A326A726AB26AF2653
S1130170C526D526D826E326E526E926ED26F1264A
S1130180F5261227DB2644275D2776278F27A82705
S1130190C127DA27F3270C2825283E28572870285A
S11301A08928A228BB28D428ED2806291F29382904
S11301B051296A2983299C29B529B32ACE29D8290A
S11301C0F729032A5D2C682C732C7E2C892C942C03
S11301D09F2CAA2CB52CC02CCB2CD62CE12CE42C97
S11301E0FA2C0D2D1D2D2D2D3D2D4D2D5D2D612D0B
S11301F0652D692D6E2DF92F1A303A305A307A3028
S11302009A30BA30AC319E32C132C532C932CD32A5
S1130210D132D532D932DD32E13208330B330F33E8
S1130220C7338B339A33A933B833FD3301340534E0
S113023009340C3455340F34133417341B341F343D
S113024023342734553455342B342F343334373452
S11302503A343D3440344334463449344D345034D4
S1130260533407634236B79BD8A71A39685618AE79
S1130270BAAB558C1D3CB7CC5763BD6DEDFD753ED7
S1130280F6177231BF000000803F08000000BE92E4
S11302902449123EABAAAA2ABECDCCCC4C3E0000C7
S11302A00080BEABAAAAAA3E00000000BF00000066
S11302B0803F0000000000084178D3BB4387D1137E
S11302C03D190E3CC3BD4282AD2B3E68EC8276BE26
S11302D0D98FE1A93E4C80EFFFBE01C4FF7F3F00F0
S11302E00000000011241FBECFEFD1E2DEBFCDBF5E
S11302F000E00CBF1DE0A0E0B2E0E6EAF2EC00E0B2
S11303000BBF02C007900D92A037B107D9F725E1C2
S1130310A0E7BDE001C01D92A235B207E1F70E943B
S11303209F5A0C9451616CCE109253131092FE0E8E
S11303301092FD0E0E94ED4E80935413882309F40D
S113034056C02091FD0E3091FE0E2F5F3F4F30932B
S1130350FE0E2093FD0E2A30310560F351C087E074
S113036092E00E94C35980915413823021F48FE1AA
S113037092E00E94C3598FE00E94D2416DE372E083
S11303808BE892E00E94F141FFCF85E992E00E9460
S1130390C3590EC081EC92E00E94C35909C08FED8D
S11303A092E00E94C35904C08BE093E00E94C359B9
S11303B08FE99FE00197F1F700C0000081E080938E
S11303C06F130E94E244809354138823E9F08FE072
S11303D00E94D2416DE372E08BE892E00E94F14109
S11303E086E293E00E94C35910926F13089580919E
S11303F05313823079F2833091F28130A9F6C5CF5C
S1130400813009F0B0CFABCF0895CF93DF93E09163
S11304107413F09175138585968590935613809384
S113042055134091EB0D5091EC0DDA011D968D9111
S11304309C911E979093DC0D8093DB0D8091C713E4
S11304409091C813EC012B853C853093DE0D2093ED
S1130450DD0DA091CA13B091CB131B962D913C9145
S11304601C973093501320934F13F093840DE09313
S1130470830DB0936513A09364135C874B87EA01E3
S11304809E878D871C96FC93EE931B97B687A58752
S1130490DF91CF910895E0917413F09175138091D9
S11304A055139091561396878587E091EB0DF09143
S11304B0EC0D8091DB0D9091DC0D96878587E091A2
S11304C0C713F091C8138091DD0D9091DE0D9487D0
S11304D08387E091CA13F091CB1380914F139091CD
S11304E05013948783870895882361F0813009F03D
S11304F057C0E0914D13F0914E1380819181029782
S113050054F424C0E0916913F0916A1380819181BD
S1130510029724F53EC022E633E14EE553E1BF01E4
S113052081E090E00E943A3D42E653E16EE573E1DA
S113053080914D1390914E130E940D3EE0914D1306
S1130540F0914E138081918102972CF742E653E19A
S11305506EE573E1CF010C940D3E08952CEB3DE064
S11305604BE653E1BF0181E090E00E943A3D4CEB41
S11305705DE06BE673E18091691390916A130E94C8
S11305800D3EE0916913F0916A1380819181029785
S11305902CF74CEB5DE06BE673E1CF010C940D3E60
S11305A0089560911D1270911E12FB01808191814A
S11305B002978CF021E132E148EB5DE081E090E0CC
S11305C00E94E93E60911D1270911E12FB01808110
S11305D0918102977CF70895823079F0833021F07D
S11305E0813009F084C013C0E0914212F0914312AB
S11305F0808191810297B4F550C0E0918F0DF09104
S1130600900D8081918102970CF04FC069C0E091F8
S11306102312F0912412808191810297DCF022EA66
S11306203DE04FEF5EE0BF0181E090E00E94903A30
S113063042EA5DE06FEF7EE08091231290912412F4
S11306400E94653BE0912312F091241280819181F4
S113065002972CF742EA5DE06FEF7EE0CF010C9445
S1130660653B089520EC3DE049E553E1BF0181E09D
S113067090E00E94903A40EC5DE069E573E180917E
S11306804212909143120E94653BE0914212F09114
S113069043128081918102972CF740EC5DE069E57B
S11306A073E1CF010C94653B08952CE032E14BE1FA
S11306B052E1BF0181E090E00E94903A4CE052E1A7
S11306C06BE172E180918F0D9091900D0E94653BDA
S11306D0E0918F0DF091900D8081918102972CF71C
S11306E04CE052E16BE172E1CF010C94653B08955B
S11306F0E0917413F091751390E01816190654F4F0
S113070020E030E00384F485E02D2F5F3F4F28176D
S11307103907C1F7F093F80EE093F70E08955F924E
S11307206F927F928F929F92AF92BF92CF92DF92FD
S1130730EF92FF920F931F93CF93DF93CDB7DEB762
S1130740C454D1090FB6F894DEBF0FBECDBF882EB6
S1130750992E6B0185E1FE013196DF01982F1D92E0
S11307609A95E9F77596DF01982F1D929A95E9F706
S11307707596DF011D928A95E9F7759685E0DF018C
S11307801D928A95E9F741DE8092B60D9092B70DDD
S1130790E12CF12C8E01005C1F4F772473940F2EF3
S11307A0F5E2AF2EB12CF02DBFEFEB1AFB0A4AE0B5
S11307B0B801C7010E940E61B601CE0101960E94E4
S11307C0E060B801CE0101960E94CC6087E0E9E3C5
S11307D0F3E0DE01569601900D928A95E1F7B80197
S11307E0CE0146960E94CC6086E0E0E4F3E0DE01B0
S11307F09B9601900D928A95E1F7B801CE018B96F4
S11308000E94CC60CE0101960E943143CE014696EF
S11308100E943143CE018B960E943143E091B60D84
S1130820F091B70D8091830D9091840DE817F9072D
S113083031F48091E80D811102C070921612828108
S113084081111BC02091641330916513E217F307E3
S113085009F4A6C00384F485E02D8281882329F05D
S1130860F093B70DE093B60D08C0E217F30791F7C4
S11308703093B70D2093B60D93C02091641330913B
S113088065132E173F07B9F59091E80D911137C004
S11308907092E80D813011F560817181CE0101966D
S11308A00E94F141E091B60DF091B70D86814AE0C6
S11308B0B80190E00E940E61B801CE0146960E94F4
S11308C00942F80101900020E9F73197B182A08232
S11308D0B801CE018B960E94F1413FC0CE01019632
S11308E00E94F842CE0146960E94F842CE018B96B1
S11308F00E94F84232C08091E80D882369F0CE014D
S113090001960E94F842CE0146960E94F842CE011A
S11309108B960E94F84221C060817181CE010196BC
S11309200E94F141E091B60DF091B70D86814AE045
S1130930B80190E00E940E61B801CE0146960E9473
S11309400942F80101900020E9F73197B182A082B1
S1130950B801CE018B960E94F141E091B60DF09161
S1130960B70D538464845092B60D6092B70D84E041
S1130970E816F10431F48091E80D811102C08BDD99
S113098016C0AFE3BCE91197F1F700C00000B4E072
S1130990EB16F10409F008CF7EDD582C692C07C052
S11309A08091E80D8111ABCF7092E80D97CF852D22
S11309B0962DCC5BDF4F0FB6F894DEBF0FBECDBFD4
S11309C0DF91CF911F910F91FF90EF90DF90CF9027
S11309D0BF90AF909F908F907F906F905F9008959D
S11309E08091E80D811129C010921612E091A00D9A
S11309F0F091A10D0280F381E02DF093A10DE0931D
S1130A00A00D66E473E08081918189DE909379136F
S1130A10809378134091A00D5091A10D2091111253
S1130A20309112124217530741F421E132E148EBAD
S1130A305DE06DE172E10C949D3E08958091161283
S1130A40811112C01092E80DE091A00DF091A10D5A
S1130A500480F581E02DF093A10DE093A00D66E4F0
S1130A6073E0808191815BCE0895FF920F931F9371
S1130A70CF93DF93F82EEB0140911D1250911E127B
S1130A80609174137091751301E112E128EB3DE05C
S1130A9081E00E94753FA80168EB7DE080911D1202
S1130AA090911E120E94BC3F8091B80D9091B90D97
S1130AB09093A10D8093A00D8F2D0E94D241BE0171
S1130AC080917413909175132ADE90937913809317
S1130AD07813980148EB5DE06DE172E10E949D3E60
S1130AE0A80168EB7DE080911D1290911E120E9476
S1130AF0BC3FDF91CF911F910F91FF900895AF926A
S1130B00BF92CF92DF92EF92FF920F931F93CF93F6
S1130B10DF93CDB7DEB72A970FB6F894DEBF0FBECA
S1130B20CDBF8C01FE0131968AE0DF011D928A95CA
S1130B30E9F7E0907413F09075130F2EFCE2CF2EBA
S1130B40D12CF02D0F2EFDE0AF2EB12CF02DF7019E
S1130B5060817181C8010E94CC60F801019000207D
S1130B60E9F73197D182C082D70112968C914AE07D
S1130B70BE016F5F7F4F90E00E940E61BE016F5F08
S1130B807F4FC8010E94CC60F80101900020E9F772
S1130B903197D182C082F70183814AE0BE016F5F41
S1130BA07F4F90E00E940E61BE016F5F7F4FC801CE
S1130BB00E94CC60F80101900020E9F73197D182BE
S1130BC0C082D70114968C914AE0BE016F5F7F4FBB
S1130BD090E00E940E61BE016F5F7F4FC8010E94CA
S1130BE0CC60F80101900020E9F73197B182A0822E
S1130BF0F701E384F4848091741390917513E816DB
S1130C00F90609F0A4CFF80101900020E9F7319723
S1130C108BE39DE0918380831282E090EB0DF09052
S1130C20EC0D0F2EFCE2CF2ED12CF02D0F2EFDE07B
S1130C30AF2EB12CF02DD7016D917C91C8010E948B
S1130C40CC60F80101900020E9F73197D182C0828D
S1130C50F70182814AE0BE016F5F7F4F90E00E94FE
S1130C600E61BE016F5F7F4FC8010E94CC60F80126
S1130C7001900020E9F73197D182C082D701139601
S1130C808C914AE0BE016F5F7F4F90E00E940E613D
S1130C90BE016F5F7F4FC8010E94CC60F8010190D4
S1130CA00020E9F73197D182C082F70184814AE0BC
S1130CB0BE016F5F7F4F90E00E940E61BE016F5FC7
S1130CC07F4FC8010E94CC608091CA139091CB13CE
S1130CD0E816F90641F0F80101900020E9F7319790
S1130CE0B182A0820CC0D8010D900020E9F71197C1
S1130CF085E0ECE4F3E001900D928A95E1F7D701E9
S1130D001B96ED90FC901C978091EB0D9091EC0D4F
S1130D10E816F90609F08FCFC8010E94C3592A9634
S1130D200FB6F894DEBF0FBECDBFDF91CF911F91F8
S1130D300F91FF90EF90DF90CF90BF90AF90089508
S1130D405F926F927F928F929F92AF92BF92CF9257
S1130D50DF92EF92FF920F931F93CF93DF93CDB760
S1130D60DEB76B970FB6F894DEBF0FBECDBF4AE077
S1130D708E010F5F1F4FB80190E00E940E61D801F1
S1130D800D900020E9F7119785E0ECECF4E0019078
S1130D900D928A95E1F7B80180E00E94A14987E0AD
S1130DA0E8E5F3E0DE01559601900D928A95E1F7AE
S1130DB0BE016B5E7F4F8CE090E10E94C2600097A1
S1130DC009F474C0882483945E0125E1A20EB11C49
S1130DD0712C55245394972C61E573E00E94D760DD
S1130DE0892B09F05AC0B50180E090E00E94C260EE
S1130DF07C01FC0180818B3309F046C04EC0E09138
S1130E00F70EF091F80E60817181C7010E94D760DE
S1130E10892B59F0E0915713F09158136081718137
S1130E20C7010E94D760892B41F46C2D7D2D80E091
S1130E3090E00E94C2607C01092D1150D1F1E09133
S1130E40F70EF091F80E838594859093F80E8093B5
S1130E50F70EE0915713F09158138385948590937E
S1130E605813809357130111CACF6C2D7D2D80E048
S1130E7090E00E94C2607C01FC0180818B3369F0A8
S1130E806A94611007C009C00F2EFDE06F2EF02D8B
S1130E90CA2CDB2C1DE0052DB2CFB50180E090E01B
S1130EA00E94C260009709F097CF19C088248394E8
S1130EB016C0E091F70EF091F80E83859485909317
S1130EC0F80E8093F70EE0915713F0915813838531
S1130ED094859093581380935713872CC6CF882DED
S1130EE06B960FB6F894DEBF0FBECDBFDF91CF91E6
S1130EF01F910F91FF90EF90DF90CF90BF90AF9034
S1130F009F908F907F906F905F9008952F923F9263
S1130F104F925F926F927F928F929F92AF92BF9205
S1130F20CF92DF92EF92FF920F931F93CF93DF93B1
S1130F30CDB7DEB7CF59D1090FB6F894DEBF0FBED7
S1130F40CDBFC356DF4F8883CD59D040862F0F2E97
S1130F50F4E3FF2EF02D9E012F5F3F4FC256DF4F6B
S1130F6039832883CE59D040D901EF2D1D92EA95BB
S1130F70E9F703EF11E020E030E009831A832B83C3
S1130F803C830F2EF0EF8F2E99249394A12CB12C37
S1130F90F02D8D829E82AF82B88609871A872B87AF
S1130FA03C870D871E872F87388B098B1A8B2B8BD9
S1130FB03C8B8D8A9E8AAF8AB88E44EF51E060E004
S1130FC070E0498F5A8F6B8F7C8F4D8F5E8F6F8F40
S1130FD078A389A29AA2ABA2BCA20DA31EA32FA39D
S1130FE038A70F2EF6EF8F2E99249394A12CB12CB1
S1130FF0F02D89A69AA6ABA6BCA605EF11E020E0C9
S113100030E00DA71EA72FA738AB1E01F5E32F0E66
S1131010311CD101EF2D1D92EA95E9F70DAB1EAB02
S11310202FAB38AF49AF5AAF6BAF7CAF21960CAF43
S11310301DAF2EAF3FAF219725964CAF5DAF6EAF7E
S11310407FAF259729968CAE9DAEAEAEBFAE2997E5
S11310502D964CAF5DAF6EAF7FAF2D9761964CAFC1
S11310605DAF6EAF7FAF619765968CAE9DAEAEAE51
S1131070BFAE659742EF51E060E070E069964CAF17
S11310805DAF6EAF7FAF69976D960CAF1DAF2EAF9E
S11310903FAF6D9747EF51E060E070E0A1964CAF31
S11310A05DAF6EAF7FAFA1974AEF51E060E070E0B3
S11310B0A5964CAF5DAF6EAF7FAFA597DE01A75984
S11310C0BF4FFD011192FA94E9F70F2EFDEDCF2EDB
S11310D0DD24D394E12CF12CF02DCD92DD92ED9210
S11310E0FC9213970AED11E020E030E014960D9382
S11310F01D932D933C9317970F2EF3EE8F2E992467
S11311009394A12CB12CF02D18968D929D92AD92B2
S1131110BC921B974FED51E060E070E01C964D933C
S11311205D936D937C931F970F2EF6EE4F2E5524EF
S11311305394612C712CF02D50964D925D926D92CA
S11311407C92539754960D931D932D933C935797EC
S113115058964D935D936D937C935B975C968D92BB
S11311609D92AD92BC925F9790960D931D932D9393
S11311703C93939702ED11E020E030E094960D93B8
S11311801D932D933C9397979896CD92DD92ED9273
S1131190FC929B979C964D935D936D937C939F9744
S11311A09D01C356DF4F4881CD59D040592FBE0110
S11311B06F5F7F4FF1018D01005D1F4F813081F022
S11311C018F08230C9F022C0D901CD90DD90ED90A5
S11311D0FC90DA01CD92DD92ED92FC92139716C049
S11311E0DB01CD90DD90ED90FC90DA01CD92DD92A3
S11311F0ED92FC9213970AC0C080D180E280F38004
S1131200DA01CD92DD92ED92FC9213972C5F3F4F61
S11312104C5F5F4F6C5F7F4F34962017310771F638
S1131220C356DF4F8881CD59D040C156DF4F0FB62A
S1131230F894DEBF0FBECDBFDF91CF911F910F9108
S1131240FF90EF90DF90CF90BF90AF909F908F90E2
S11312507F906F905F904F903F902F90089590E013
S11312608C30910590F5FC018827EE58FF4F8F4F85
S11312700C94355F129A0895139A0895149A089558
S1131280159A0895169A0895179A0895A29A08959A
S1131290E5E0F1E08081806480830895E5E0F1E099
S11312A08081806280830895E5E0F1E0808180613F
S11312B080830895E5E0F1E080818860808308956B
S11312C0E5E0F1E0808184608083089590E08C30D3
S11312D0910590F5FC018827E258FF4F8F4F0C943D
S11312E0355F1298089513980895149808951598E1
S11312F008951698089517980895A2980895E5E01A
S1131300F1E080818F7B80830895E5E0F1E08081C6
S11313108F7D80830895E5E0F1E080818F7E808376
S11313200895E5E0F1E08081877F80830895E5E01A
S1131330F1E080818B7F80830895CF9380916E1339
S1131340813059F4E091D90DF091DA0D1082C0E0AA
S11313508C2FBCDFCF5FCC30D9F7CF910895CF93DA
S1131360DF93EC010AC0CE010E945F510E947440D9
S1131370882319F00E94FD40E0DF8881813021F448
S113138080916E13882379F3DF91CF91089590E0D3
S11313908C309105A0F5FC018827E657FF4F8F4F4D
S11313A00C94355F8FB18078089580910601817027
S11313B008958091060182700895809106018470D9
S11313C008958091060188700895809106018071C6
S11313D008958091060180720895809106018074B9
S11313E008958091060180780895809103018078A2
S11313F0089580B18170089580B18270089580E06D
S11314000895CF92DF92EF92FF920F931F93CF93A1
S1131410DF93CDB7DEB769970FB6F894DEBF0FBE82
S1131420CDBFE091A00DF091A10D00811181E82EB6
S1131430F12C1E141F0464F420E030E0D8011B9644
S11314400D911C911C972F5F3F4F2E153F05B1F74F
S11314500E94050268E373E08EEA93E00E94F14182
S1131460FE0131968FE0DF011D928A95E9F74091E4
S1131470830D5091840D5093B70D4093B60DFA012E
S113148090E02681920F0384F485E02D4E175F07C8
S1131490C1F7F80186818C59D82ED91A87E0E9E37F
S11314A0F3E0DE01119601900D928A95E1F7FFEFCA
S11314B0EF1AFF0A4AE0BE01605F7F4FC7010E9436
S11314C00E61BE01605F7F4FCE0101960E94CC6029
S11314D06CE474E1CE0101960E943F429DEC899F29
S11314E0812D112486958695982F990F990F890F30
S11314F0D81638F461EB73E08EEA93E00E94F14170
S11315008D2DD80116968C93082F10E06E01B0E152
S1131510CB0ED11C4AE0B601C8010E940E61F6014F
S113152001900020E9F7319785E290E09183808370
S113153086E0E0E4F3E0DE01119601900D928A95D5
S1131540E1F74AE0BE016B5E7F4FC7010E940E6166
S1131550BE016B5E7F4FCE0101960E94CC60B60146
S1131560CE0101960E94F1414AE0B601C8010E94F1
S11315700E6187E0E9E3F3E0DE01119601900D923C
S11315808A95E1F74AE0BE016B5E7F4FC7010E9476
S11315900E61BE016B5E7F4FCE0101960E94CC604E
S11315A0B601CE0101960E940942EFE3FFE13197B3
S11315B0F1F700C000000E944B0269960FB6F89440
S11315C0DEBF0FBECDBFDF91CF911F910F91FF9072
S11315D0EF90DF90CF900895CF93DF93CDB7DEB730
S11315E064970FB6F894DEBF0FBECDBF0E9405020C
S11315F08091830D9091840D9093B70D8093B60DD7
S1131600FC0116820384F485E02D8E179F07C9F729
S11316100E944B02CE01019624E1FC0111922A950D
S1131620E9F726E433E73A8329831B82DC010D9032
S11316300020E9F711972AE0E5ECF3E001900D9220
S11316402A95E1F70E94D9590E94BC4181E0809318
S1131650E10D10922012EAE2F2E101900020E9F794
S11316603197CF018A52924199271816190644F4EA
S1131670EAE2F2E1865D9D4E1192E817F907E1F77F
S113168064960FB6F894DEBF0FBECDBFDF91CF9145
S113169008950F931F93CF93DF9300D01F92CDB77C
S11316A0DEB78C01E0917613F09177138481803258
S11316B028F08FEC93E00E94314304C08FEC93E058
S11316C00E94F842F8016081718188ED93E00E94E4
S11316D0F141F80184814AE0BE016F5F7F4F90E0E1
S11316E00E940E61AE014F5F5F4F65EE73E088EEBE
S11316F093E00E9419428091930D813059F018F0C3
S1131700823079F014C06CEE73E088EF93E00E94AD
S1131710F1410DC066E074E088EF93E00E94F1416E
S113172006C062E174E088EF93E00E94F1410F90FB
S11317300F900F900F90DF91CF911F910F9108950B
S11317402F923F924F925F926F927F928F929F92CD
S1131750AF92BF92CF92DF92EF92FF920F931F93BB
S1131760CF93DF93CDB7DEB7CF50D2400FB6F89406
S1131770DEBF0FBECDBF0E940502FE01319680E0A0
S113178092E0DF019C011D9221503040E1F7FE5FA1
S11317908AE0DF011D928A95E9F78091830D90918B
S11317A0840D9093B70D8093B60DB1E0C15FDD4F0A
S11317B0B883CF50D2409E012F5F3F4F79010F2E47
S11317C0F4E6AF2EFCE6BF2EF02D0F2EFDE2CF2E59
S11317D0D12CF02D0F2EFCE58F2EF2E79F2EF02D4D
S11317E00F2EFAE02F2E312CF02DE091B60DF09152
S11317F0B70D0681002309F412C1C15FDD4F3881A2
S1131800CF50D240313009F051C010E0C801880FE8
S1131810991F800F911FB1010E94005F072E000CD9
S1131820880B990B0E94DA5B0E94285B20E030E071
S113183040E85FE30E94C45A20E030E040E251E413
S11318400E943F5B2DEC3CEC4CEC5DE30E94C45ADF
S1131850C55FDD4F688379838A839B83CB50D240F5
S1131860C801880F991F880F991F800F911FB1011C
S11318700E94005F072E000C880B990B0E94DA5B14
S11318800E94285B20E030E040E85FE30E94C45AF5
S113189020E030E040E251E40E943F5B2B013C0138
S11318A0C15FDD4F1882CF50D24039C010E0C8016B
S11318B0880F991F800F911FB1010E94005F072EAE
S11318C0000C880B990B0E94DA5B0E947D5D20E07E
S11318D030E040E251E40E943F5BC55FDD4F688326
S11318E079838A839B83CB50D240C801880F991F88
S11318F0880F991F800F911FB1010E94005F072E6E
S1131900000C880B990B0E94DA5B0E947D5D20E03D
S113191030E040E251E40E943F5B2B013C0120E0B7
S113192030E040E85FE3C55FDD4F688179818A81FB
S11319309B81CB50D2400E943B5B88234CF4F7013F
S113194001900020E9F7319780E390E09183808350
S113195021E030E0AE014F5F5D4FC55FDD4F688130
S113196079818A819B81CB50D2400E94A253BE01CF
S11319706F5F7D4FC7010E94CC60D7010D9000209E
S1131980E9F7119786E0E7E1F4E001900D928A957A
S1131990E1F720E030E040E85FE3C301B2010E94D8
S11319A03B5B88234CF4F70101900020E9F7319761
S11319B0A0E3B0E0B183A08321E030E0AE014F5F4B
S11319C05D4FC301B2010E94A253BE016F5F7D4F00
S11319D0C7010E94CC60F70101900020E9F731971C
S11319E0B182A082128285E090E0F701019000208C
S11319F0E9F73197D182C0820197B9F7E091B60D2A
S1131A00F091B70D60817181C7010E94CC60F7012C
S1131A1001900020E9F73197918280821282E0914F
S1131A20B60DF091B70D858596859093B70D80938B
S1131A30B60D2091830D3091840D8217930709F020
S1131A40D4CEBE016F5F7F4F8DE194E00E94F141DF
S1131A500E944B02C15FDD4F0FB6F894DEBF0FBE8C
S1131A60CDBFDF91CF911F910F91FF90EF90DF9049
S1131A70CF90BF90AF909F908F907F906F905F902A
S1131A804F903F902F900895AF92BF92CF92DF92E4
S1131A90EF92FF920F931F93CF93DF93CDB7DEB7EF
S1131AA0EC970FB6F894DEBF0FBECDBFE090741371
S1131AB0F090751300E010E00F2EF2E6AF2EB12C7B
S1131AC0F02DCE0101966C01BA82A9824AE0BE01D2
S1131AD06D5C7F4FC8010E940E61BE016D5C7F4F3B
S1131AE0C6010E94CC60F7018281813089F018F030
S1131AF08230D9F026C0D6010D900020E9F7119765
S1131B0087E0EAE2F4E001900D928A95E1F719C0CA
S1131B10D6010D900020E9F711978AE0E5ECF3E097
S1131B2001900D928A95E1F70CC0D6010D9000202A
S1131B30E9F711978BE0E1E3F4E001900D928A95C7
S1131B40E1F7C6010E94D9590E94BC41F701E38420
S1131B50F4840F5F1F4F0C30110509F0B5CFEC96DC
S1131B600FB6F894DEBF0FBECDBFDF91CF911F91AA
S1131B700F91FF90EF90DF90CF90BF90AF900895BA
S1131B802F923F924F925F926F927F928F929F9289
S1131B90AF92BF92CF92DF92EF92FF920F931F9377
S1131BA0CF93DF93CDB7DEB7E8970FB6F894DEBFD7
S1131BB00FBECDBFC0907413D0907513F601858409
S1131BC09684A091EB0DB091EC0D1D962D913C9156
S1131BD01E9738AF2FAB2091C7133091C813F9016A
S1131BE0638474844091CA135091CB13FA014384E3
S1131BF05484F901B487A3871E963C932E931D97B2
S1131C00FA01D486C386F601568745874AE08E01D9
S1131C100F5F1F4FB80190E00E940E61D8010D9034
S1131C200020E9F7119785E0ECECF4E001900D92C7
S1131C308A95E1F7B80180E00E94A1498AE39DE01A
S1131C409CAB8BAB8AE090E09EAB8DABBE016D5C30
S1131C507F4F8CE090E10E94C2607C01892B09F4E3
S1131C60A2C05E01F3E3AF0EB11C6CE374E0C701E4
S1131C700E94D760892B79F4B50180E090E00E943E
S1131C80C2607C01E0917613F0917713BC018081EE
S1131C9091810E94E06061E573E0C7010E94D76012
S1131CA0892BD1F5B50180E090E00E94C2607C01EF
S1131CB0F60116820384F485E02DCE16DF06C9F7FB
S1131CC0F70180818B3341F12A2C3B2C8601F801EA
S1131CD060817181C7010E94D760892B61F4622DF4
S1131CE0732D80E090E00E94C2607C010E94A56098
S1131CF0F80186838601F80103851485C016D10690
S1131D0031F7622D732D80E090E00E94C2607C0167
S1131D10FC0180818B33D1F661E474E0C7010E9439
S1131D20D760892B71F4B50180E090E00E94C26015
S1131D307C0100917613109177130E94A560F8013D
S1131D40828369E474E0C7010E94D760892B71F42F
S1131D50B50180E090E00E94C2607C01009176139E
S1131D60109177130E94A560F801838366E574E0FF
S1131D70C7010E94D760892B69F4B50180E090E027
S1131D800E94C26000917613109177130E94A5609F
S1131D90F8018483B50180E090E00E94C2607C0178
S1131DA0892B09F062CFE0917413F0917513968634
S1131DB08586E091C713F091C81374866386E09119
S1131DC0CA13F091CB1354864386E091EB0DF09146
S1131DD0EC0D2FA938AD36872587E8960FB6F89411
S1131DE0DEBF0FBECDBFDF91CF911F910F91FF904A
S1131DF0EF90DF90CF90BF90AF909F908F907F90A7
S1131E006F905F904F903F902F900895E0915B13F7
S1131E10F0915C130190F081E02D882339F090E07B
S1131E200180F281E02D9F5F8913FACFF093611353
S1131E30E09360138081A4CE08955F926F927F92A5
S1131E408F929F92AF92BF92CF92DF92EF92FF92C6
S1131E500F931F93CF93DF93CDB7DEB7E7970FB6FA
S1131E60F894DEBF0FBECDBF682E792E4B01A09033
S1131E70A20DB090A30DC090FF0ED090000FFE01F4
S1131E80319682E3DF011D928A95E9F7F29685E0A7
S1131E90DF011D928A95E9F7062D192FE12CF12C0B
S1131EA055245394C016D10631F48091E80D811164
S1131EB002C050921612BFEFEB1AFB0A4AE0BE01B1
S1131EC06D5C7F4FC7010E940E61B401CE01019683
S1131ED00E94E060BE016D5C7F4FCE0101960E94BE
S1131EE0CC60CE0101960E94BF42A016B106A1F4B7
S1131EF08091E80D811114C05092E80DF8018081A1
S1131F003FDEE0917613F091771360817181CE0109
S1131F1001960E94F14122C08091E80D882389F046
S1131F2068E373E0CE0101960E94F1418FE39CE9DE
S1131F300197F1F700C00000CE0101960E9486428D
S1131F400DC0D8018C911CDEE0917613F0917713CB
S1131F5060817181CE0101960E94F141F8010181F5
S1131F601281F6E0EF16F10421F48091E80D81303E
S1131F7061F08FE39CE90197F1F700C0000096E05F
S1131F80E916F10409F08ECF02C0062D172DC80101
S1131F90E7960FB6F894DEBF0FBECDBFDF91CF91A9
S1131FA01F910F91FF90EF90DF90CF90BF90AF9073
S1131FB09F908F907F906F905F900895FF920F9302
S1131FC01F93CF93DF93F82EEB0140914D13509163
S1131FD04E13609160137091611302E613E12EE5D4
S1131FE033E181E00E94C63DA8016EE573E1809172
S1131FF04D1390914E130E940D3E80916213909167
S1132000631390935C1380935B138F2D0E94D241D2
S1132010E0915B13F0915C13BE01808191810DDF2F
S113202090937C0D80937B0D98014EE553E16DE414
S113203073E10E94EE3CA8016EE573E180914D13BB
S113204090914E130E940D3EDF91CF911F910F91FD
S1132050FF9008958F929F92AF92BF92CF92DF929A
S1132060EF92FF920F931F93CF93DF93CDB7DEB719
S11320702F970FB6F894DEBF0FBECDBF89E10E9443
S1132080D2416BE574E08BE892E00E94F14181E07B
S11320900E94EC02EE24E394F12C882483940F2E06
S11320A0FFE0BF2EF02DCE0101966C01912CF601BC
S11320B08B2D11928A95E9F74AE0B601C7010E9477
S11320C00E61D6010D900020E9F7119785E0ECEC44
S11320D0F4E001900D928A95E1F7B60181E00E9447
S11320E0A149813001F58E2D0E94A0068823D9F0E4
S11320F091E089120EC0409123125091241202EAF9
S11321001DE02FEF3EE06E2D81E00E94213B892CE3
S11321100AC022EA3DE04FEF5EE063E272E18E2DF9
S11321209F2D0E94403AEFEFEE1AFE0AF9E2EF16F5
S1132130F10409F0BCCFE091FF0EF091000FF09391
S11321406113E093601380811BDD81E00E94D24122
S113215080917613909177139CDA2F960FB6F894AA
S1132160DEBF0FBECDBFDF91CF911F910F91FF90C6
S1132170EF90DF90CF90BF90AF909F908F90089595
S1132180CF92DF92EF92FF920F931F93CF93DF933F
S1132190CDB7DEB7CA51D2400FB6F894DEBF0FBE3A
S11321A0CDBF89E10E94D2416EEA74E08BE892E0EF
S11321B00E94F1411A8219821092040F1092030FA7
S11321C0FE01339680E092E0DF019C011D922150D4
S11321D03040E1F78F01E12CF12C8091030F9091B5
S11321E0040F8E0D9F1D0E9449616801D8018D93D3
S11321F08D018983CE0101960E94C359BFEFEB1A6A
S1132200FB0AF60180818E3741F78E010D5F1D4F69
S113221084E1D8011D928A95E9F786E0EBECF4E0BD
S1132220D80101900D928A95E1F7C8010E94704A85
S113223086E0EBECF4E0D80101900D928A95E1F789
S1132240BE016D5F7F4FC8010E947C4A8CE29DE015
S1132250C95EDD4F99838883C751D2408AE090E0FC
S1132260C75EDD4F99838883C951D24000917413AE
S113227010917513F12CEE24E394FF2049F0BE0174
S1132280695E7D4F80E090E00E94C260BC0109C09D
S1132290BE01695E7D4FCE0103960E94C260BC01FF
S11322A0FE2CF801808191810E94E060BE01695E8C
S11322B07D4F80E090E00E94C2600E94A560D8013A
S11322C012968C93BE01695E7D4F80E090E00E947F
S11322D0C2600E94A560F8018383BE01695E7D4FE0
S11322E080E090E00E94C2600E94A560D80114962C
S11322F08C9314971B960D911C911C978091C71376
S11323009091C8130817190709F0B7CFBE01695E89
S11323107D4F80E090E00E94C2600091EB0D10912F
S1132320EC0DBE01695E7D4F80E090E00E94C260CA
S1132330BC01F801808191810E94E060BE01695E68
S11323407D4F80E090E00E94C2607C010E94C359EE
S1132350C7010E94A560D80112968C93BE01695EE4
S11323607D4F80E090E00E94C2600E94A560F80169
S11323708383BE01695E7D4F80E090E00E94C2606D
S11323800E94A560D80114968C9314971B960D9106
S11323901C911C978091CA139091CB1308171907AD
S11323A009F0BFCF57DE81E00E94D241E091FF0ED9
S11323B0F091000FF0936113E09360138081E0DBF0
S11323C0809176139091771364D9C65EDD4F0FB672
S11323D0F894DEBF0FBECDBFDF91CF911F910F9157
S11323E0FF90EF90DF90CF9008952F923F924F92FD
S11323F05F926F927F928F929F92AF92BF92CF9291
S1132400DF92EF92FF920F931F93CF93DF93CDB799
S1132410DEB7CC54D1400FB6F894DEBF0FBECDBFAB
S1132420262EC55BDE4F7883CB54D140CF5BDE4F85
S11324308883C154D140CE5BDE4F9883C254D140CF
S1132440C55CDE4F59834883CB53D140FA01EF5B1F
S1132450FF4F608171818281938134972081318122
S1132460428153810E94CE5CCD5BDE4F68837983C9
S11324708A839B83C354D140CE01019620E3FC019F
S113248011922A95E9F7622D0E94860723E030E035
S113249040E050E063E680E090E00E94525563E043
S11324A080E00E942E5640E050E0BA0180E00E9495
S11324B05A5680917413909175139093B70D80932D
S11324C0B60D10926E13C55CDE4F28813981CB5353
S11324D0D140235C3F4FC95BDE4F39832883C75407
S11324E0D140C55CDE4F88819981CB53D1408B5B51
S11324F09F4FC75BDE4F99838883C954D1403324EF
S11325003394C45BDE4F1882CC54D140E091B60DB5
S1132510F091B70D8681882309F4FEC080E00E9403
S1132520D157C35CDE4F688379838A839B83CD5301
S1132530D140C95BDE4FE881F981C754D140808026
S11325409180A280B380C75BDE4FE881F981C954D2
S1132550D1404080518062807380E091B60DF0914B
S1132560B70D658170E080E090E00E94DA5BA50120
S113257094010E94CE5CA30192010E94CE5C9B0157
S1132580AC01CD5BDE4F688179818A819B81C35424
S1132590D1400E94C35A5B016C01C35CDE4F688169
S11325A079818A819B81CD53D1400E94DA5B20E0FE
S11325B030E04AE754E40E943F5BC55CDE4F88800C
S11325C09980CB53D1407B018C0120E030E048EC72
S11325D052E4CA01B9010E949B50C55CDE4F888158
S11325E09981CB53D1400E94AF0980916E13811120
S11325F093C0E091B60DF091B70D1581A1E0B0E064
S1132600AC0FBD1F24E0129FA00DB11D11246D91CC
S11326107D918D919C91222DC55BDE4F3881CB54E9
S1132620D140CF5BDE4F4881C154D140CE5BDE4FF9
S11326305881C254D1400E94F15E9B01AC01A68135
S1132640B0E00E944C5F24E630E040E050E00E949D
S1132650135F69017A01812F0E94C709E091B60DC9
S1132660F091B70D85810E942F09032D8091760D7D
S1132670182F132581114CC009F44AC08091720DA2
S11326809091730DA091740DB091750DAC01BD01C5
S11326904F5F5F4F6F4F7F4F4093720D5093730D99
S11326A06093740D7093750DC816D906EA06FB067F
S11326B0D8F4E091B60DF091B70D85810E946609BA
S11326C01092720D1092730D1092740D1092750D7C
S11326D08FE99FE00197F1F700C000000E94744069
S11326E0882309F44EC10BC0EFE9FFE03197F1F7FD
S11326F000C000000E947440882351F005C0C45BF0
S1132700DE4F0881CC54D1400E94FD400E949D09B7
S11327101093760D0111AACFE091B60DF091B70D8B
S1132720838594859093B70D8093B60D209174138F
S1132730309175138217930729F080916E138823C3
S113274009F4E4CE80E00E94D1570E94DA5B20E0D5
S113275030E04AE754E40E943F5B20916E1321303D
S113276009F048C010926E138EE00E94D24180E0BE
S11327700E94D1570E94DA5BC55CDE4F8880998045
S1132780CB53D140A12CB12C65017B018C0120E0FD
S113279030E048EC52E4CA01B9010E949B50C55C88
S11327A0DE4F88819981CB53D1400E94AF0921E04B
S11327B030E040E050E063E680E090E00E94525553
S11327C020E030E0A90164E680E090E00E945255E8
S11327D0E091FF0EF091000F8081D2D981E00E9438
S11327E0D24180917613909177130E94490B1092F5
S11327F06E13CAC0C55CDE4F88809980CB53D1402C
S1132800A12CB12C65017B018C0120E030E048EC67
S113281052E4CA01B9010E949B50C55CDE4F888115
S11328209981CB53D1400E94AF09DE01D19680E05B
S113283091E0FD019C01119221503040E1F78EE1BD
S1132840E1EDF4E001900D928A95E1F78091EB0DB2
S11328509091EC0D9093B70D8093B60D40E06E010E
S113286031E3C30ED11C0AE310E25E018FECA81A17
S11328708EEFB80A0F2EFAE08F2EF02D9924939440
S1132880C55BDE4F3880CB54D140E090B60DF0905C
S1132890B70DF7018681882309F44BC060817181EB
S11328A0C6010E94CC60F60101900020E9F731973F
S11328B0118300831282F701668170E080E090E06A
S11328C00E94D85B2B013C01622D732DCF5BDE4F40
S11328D08881C154D140CE5BDE4F9881C254D1402F
S11328E00E94D85B9B01AC01C301B2010E94CE5C83
S11328F020E030E048EC52E40E943F5BF501282DD3
S113290011922A95E9F721E030E0A5010E94A25333
S1132910B501C6010E94CC60D6010D900020E9F7F4
S1132920119785E0EFEEF4E001900D928A95E1F7BE
S1132930492DE091B60DF091B70D83859485909360
S1132940B70D8093B60D2091EB0D3091EC0D8217ED
S1132950930709F09ACF4130B9F48DE00E94D24137
S1132960BE016F5C7F4F84EF94E00E94F1413FEF22
S113297083E294EF315080409040E1F700C00000C2
S113298003C01093760DC8CEC45BDE4F0FB6F89427
S1132990DEBF0FBECDBFDF91CF911F910F91FF908E
S11329A0EF90DF90CF90BF90AF909F908F907F90EB
S11329B06F905F904F903F902F900895CF93C82FC2
S11329C085E00E94D2416CEF74E085E295E00E94BC
S11329D0F1412FEF83ED90E3215080409040E1F7E7
S11329E000C000004091D90D5091DA0D6C2F70E0B9
S11329F080E090E0FADC86E00E94D2412FEF87EA83
S1132A0091E6215080409040E1F700C0000081E051
S1132A100E94D24180917613909177130E94490BC2
S1132A20CF9108950F931F93CF93DF93CDB7DEB764
S1132A3065970FB6F894DEBF0FBECDBFFE01319689
S1132A4095E1DF011D929A95E9F7E0915B13F0910E
S1132A505C130190F081E02D882339F090E001802F
S1132A60F281E02D9F5F8913FACFF0936113E09315
S1132A706013808185D8109216121092E80D66E4D6
S1132A8073E089E00E943505E0917613F0917713A5
S1132A90608171818E010F5F1F4FC8010E94E06049
S1132AA0D8010D900020E9F711978AE0E0E3F5E002
S1132AB001900D928A95E1F7B8018AE395E00E94AE
S1132AC0F14165960FB6F894DEBF0FBECDBFDF911E
S1132AD0CF911F910F9108950F931F93CF93DF937D
S1132AE0CDB7DEB7C558D1090FB6F894DEBF0FBE17
S1132AF0CDBFFE01319695E0DF011D929A95E9F76D
S1132B00359690E8DF011D929A95E9F7E0915B1301
S1132B10F0915C1320813181309361132093601311
S1132B20882371F090E0E0916013F09161132181AA
S1132B30328130936113209360139F5F8913F3CF25
S1132B40E0916013F091611380811AD88E010A5FBD
S1132B501F4FD8010D900020E9F7119780E1E4E4BC
S1132B60F5E001900D928A95E1F7E091F50EF09170
S1132B70F60E828190E04AE0BE016F5F7F4F0196BE
S1132B800E940E61BE016F5F7F4FC8010E94CC603E
S1132B90F80101900020E9F731978AE390E09183EE
S1132BA08083E0917613F091771360817181C8017D
S1132BB00E94CC60C8010E94EF59C8010E94C35909
S1132BC0E0917613F091771360817181E091F50EB5
S1132BD0F091F60E808191810E94E06089E10E946B
S1132BE0D24188E0E4E5F5E0D80101900D928A95A0
S1132BF0E1F7E091F50EF091F60E82814AE0BE0114
S1132C006F5F7F4F90E00E940E61BE016F5F7F4F48
S1132C10C8010E94CC60D8010D900020E9F71197FB
S1132C2088E0ECE5F5E001900D928A95E1F7E091FA
S1132C30F50EF091F60E60817181C8010E94CC609E
S1132C40D8010D900020E9F7119780E1E4E6F5E062
S1132C5001900D928A95E1F7B8018BE892E00E9409
S1132C60F141BFEF27EA81E6B15020408040E1F70F
S1132C7000C0000081E00E94D241809176139091BF
S1132C8077130E94490B81E00E947402CB57DF4FF7
S1132C900FB6F894DEBF0FBECDBFDF91CF911F9169
S1132CA00F910895CF93DF93CDB7DEB7E2970FB6B8
S1132CB0F894DEBF0FBECDBFE0916013F0916113B5
S1132CC00180F281E02DF0936113E0936013BE0163
S1132CD06F5F7F4F82E3DB011D928A95E9F7808164
S1132CE04AE090E00E940E61E0916013F09161135C
S1132CF080810E94C00DE2960FB6F894DEBF0FBE2D
S1132D00CDBFDF91CF910895CF93DF93CDB7DEB7D9
S1132D10E2970FB6F894DEBF0FBECDBFE09160130B
S1132D20F09161130380F481E02DF0936113E0933B
S1132D306013BE016F5F7F4F82E3DB011D928A95B2
S1132D40E9F780814AE090E00E940E61E09160130F
S1132D50F091611380810E94C00DE2960FB6F89441
S1132D60DEBF0FBECDBFDF91CF910895EF92FF92EA
S1132D700F931F93CF93DF93CDB7DEB7A1970FB611
S1132D80F894DEBF0FBECDBF8E010F5F1F4F95E1DC
S1132D90F80111929A95E9F77E01F6E1EF0EF11C24
S1132DA095E0F70111929A95E9F72AE530E03A8324
S1132DB029834AE0B70190E00E940E61B701C8017F
S1132DC00E94CC60D8010D900020E9F7119785E0AE
S1132DD0ECECF4E001900D928A95E1F7B80180E003
S1132DE00E94A14987E0E8E5F3E0DE015B960190EB
S1132DF00D928A95E1F7BE01655E7F4F8CE090E10C
S1132E000E94C2608C01892B09F450C06CE374E009
S1132E10C8010E94D760892B89F4BE01655E7F4F8B
S1132E2080E090E00E94C2608C01E0919E0DF091E0
S1132E309F0DBC01808191810E94E06061E474E097
S1132E40C8010E94D760892B81F4BE01655E7F4F63
S1132E5080E090E00E94C2608C01E0909E0DF090B2
S1132E609F0D0E94A560F701828369E474E0C801A4
S1132E700E94D760892B79F4BE01655E7F4F80E0A4
S1132E8090E00E94C26000919E0D10919F0D0E94DF
S1132E90A560F8018383BE01655E7F4F80E090E00A
S1132EA00E94C2608C01892B09F0B0CFA1960FB6A5
S1132EB0F894DEBF0FBECDBFDF91CF911F910F916C
S1132EC0FF90EF9008952F923F924F925F926F92EE
S1132ED07F928F929F92AF92BF92CF92DF92EF92A6
S1132EE0FF920F931F93CF93DF93CDB7DEB7C956ED
S1132EF0D1090FB6F894DEBF0FBECDBF282E392EF0
S1132F003B01FE01319685E0DF011D928A95E9F7C8
S1132F1080914112811111C084E795E00E943143F0
S1132F2080914112811109C0A090C00DB090C10DD3
S1132F308090591390905A1308C0A0900C12B0902E
S1132F400D1280901B1290901C1282E3FE013696A3
S1132F50DF01982F1D929A95E9F7F296DF011D92F1
S1132F608A95E9F7E22CF32CC12CD12C8F014E2E3B
S1132F70512E8E149F0439F48091E80D811103C001
S1132F80B1E0B0931612F7018081F0DEFFEFCF1AA3
S1132F90DF0A4AE0BE016F5F7F4FC6010E940E61E7
S1132FA0B301CE0106960E94E060BE016F5F7F4FC1
S1132FB0CE0106960E94CC60CE0106960E94BF42C6
S1132FC0AE14BF0441F58091E80D811128C081E061
S1132FD08093E80DE0919E0DF0919F0D9381809177
S1132FE04112981307C060817181CE0106960E9438
S1132FF0F14130C068E373E0CE0106960E94F141CE
S1133000AFE3BCE91197F1F700C00000CE010696CA
S11330100E9486421FC08091E80D882389F068E3EE
S113302073E0CE0106960E94F141EFE3FCE931978B
S1133030F1F700C00000CE0106960E9486420AC045
S1133040E0919E0DF0919F0D60817181CE010696F5
S11330500E94F14180914112811144C0E0919E0D82
S1133060F0919F0D60817181E091F70EF091F80E5F
S1133070808191810E94D760892BD1F4BE016A5F5F
S11330807F4F842D952D0E94E060D8010D90002083
S1133090E9F711978AE0E5ECF3E001900D928A9547
S11330A0E1F7842D952D0E94D9590E94BC4177C027
S11330B0BE016A5F7F4F842D952D0E94E060D80188
S11330C00D900020E9F7119787E0EAE2F4E001901F
S11330D00D928A95E1F7842D952D0E94D9590E946D
S11330E0BC415DC08091EB0D9091EC0D9093581311
S11330F080935713E0919E0DF0919F0D6081718133
S1133100E0915713F0915813808191810E94D76008
S1133110892BD1F4BE016A5F7F4F842D952D0E94C7
S1133120E060D8010D900020E9F711978AE0E5EC02
S1133130F3E001900D928A95E1F7842D952D0E947C
S1133140D9590E94BC412BC0BE016A5F7F4F842DB8
S1133150952D0E94E060D8010D900020E9F71197A9
S113316087E0EAE2F4E001900D928A95E1F7842D7C
S1133170952D0E94D9590E94BC41E0915713F091BA
S113318058138385948590935813809357132091F3
S1133190EB0D3091EC0D8217930709F0ABCFD701FB
S11331A01196ED90FC901297B6E0CB16D10421F461
S11331B08091E80D882361F0EFE3FCE93197F1F7A2
S11331C000C00000F6E0CF16D10409F0D2CE02C050
S11331D02E2C3F2C822D932DC759DF4F0FB6F89418
S11331E0DEBF0FBECDBFDF91CF911F910F91FF9036
S11331F0EF90DF90CF90BF90AF909F908F907F9093
S11332006F905F904F903F902F9008959091E80DAC
S113321091116CC0109216128823B9F1813009F013
S113322065C0E0915B13F0915C130280F381E02DA3
S1133230F0935C13E0935B1367E775E08081918101
S11332400E941D0F90937C0D80937B0D40915B1326
S113325050915C132091621330916313421753070A
S113326009F044C022E633E14EE553E16DE473E135
S11332700E94EE3C42E653E16EE573E180914D130A
S113328090914E130C940D3E0895E091D00DF09161
S1133290D10D0280F381E02DF093D10DE093D00D98
S11332A060E875E0808191810EDE90937C0D8093BF
S11332B07B0D4091D00D5091D10D2091BC0D3091DA
S11332C0BD0D4217530791F42CEB3DE04BE653E15F
S11332D069E673E10E94EE3C4CEB5DE06BE673E162
S11332E08091691390916A130C940D3E0895909106
S11332F01612911128C01092E80D8823A1F0813094
S113330011F5E0915B13F0915C130480F581E02DDD
S1133310F0935C13E0935B1367E775E08081918120
S11333200C941D0F0895E091D00DF091D10D0480FF
S1133330F581E02DF093D10DE093D00D60E875E0B8
S113334080819181C0CD0895FF920F931F93CF93F5
S1133350DF93F82EEB0180914112811109C0809115
S1133360591390915A139093BF0D8093BE0D08C0CA
S113337080911B1290911C129093BF0D8093BE0DEF
S11333804091691350916A136091BE0D7091BF0D05
S11333900CEB1DE02BE633E181E00E94C63DA80161
S11333A06BE673E18091691390916A130E940D3E5C
S11333B080916B1390916C139093D10D8093D00DE9
S11333C08F2D0E94D241E091D00DF091D10DBE011C
S11333D08081918178DD9093BF0D8093BE0D98011B
S11333E04BE653E169E673E10E94EE3CA8016BE60B
S11333F073E18091691390916A130E940D3EDF91ED
S1133400CF911F910F91FF900895FF920F931F93F7
S1133410CF93DF93CDB7DEB7CF55D2400FB6F89434
S1133420DEBF0FBECDBF182F062FFE01319682E3FB
S1133430DF011D928A95E9F7F29685E0DF011D927E
S11334408A95E9F71630C1F4E091F70EF091F80E81
S1133450A081B18188E0EDE8F5E001900D928A95B4
S1133460E1F7E091F70EF091F80E13821482628373
S113347083E10E94D2416AC0173009F05BC0E09139
S11334809E0DF0919F0D60817181E091F70EF09196
S1133490F80E808191810E94E060E091F70EF09136
S11334A0F80EA0919E0DB0919F0D12968C911297DB
S11334B0838313968C918483028383E10E94D24197
S11334C08EE492E79A8389838EE290E09C838B83D7
S11334D0E091F70EF091F80E858190E04AE0BE018C
S11334E06D5C7F4F01960E940E61BE016D5C7F4F43
S11334F08E010F5F1F4FC8010E94CC60F80101903C
S11335000020E9F7319780E29DE39183808380E294
S113351090E093838283E091F70EF091F80E60813E
S11335207181C8010E94CC60B80185E995E00E94D0
S1133530F14187C0183051F483E10E94D24160EA1E
S113354075E085E995E00E94F1417BC0163008F0F2
S113355078C083E10E94D241E091D00DF091D10D69
S11335600190F081E02D112339F080E00180F28197
S1133570E02D8F5F1813FACFF093D80DE093D70D99
S11335808081F4DBE0919E0DF0919F0D808191810B
S11335900E94C3598CEA93E00E94C359E0919E0DA6
S11335A0F0919F0D60817181E091F70EF091F80E1A
S11335B0808191810E94E060E091F70EF091F80E15
S11335C00283A0919E0DB0919F0D12968C9112973B
S11335D0838313968C9184838EE492E79A83898300
S11335E08EE290E09C838B83858190E04AE0BE016B
S11335F06D5C7F4F01960E940E61BE016D5C7F4F32
S11336008E010F5F1F4FC8010E94CC60F80101902A
S11336100020E9F7319780E29DE39183808380E283
S113362090E093838283E091F70EF091F80E60812D
S11336307181C8010E94CC60B80185E995E00E94BF
S1133640F1410E94440D83E00E94EC0200001092BC
S113365016121092E80D0F2EF4E1FF2EF02DCE017C
S1133660C896FC012F2D11922A95E9F726E0EBEC80
S1133670F4E0DC0101900D922A95E1F70E94704A72
S11336808E01045B1F4F80E092E0D801FC011D9283
S11336903197E9F7C8010E947F05CE01845B9D4FF5
S11336A0DC011D92FA94E9F726E0EBECF4E0DC018E
S11336B001900D922A95E1F7B8010E947C4AC15A03
S11336C0DD4F0FB6F894DEBF0FBECDBFDF91CF91B3
S11336D01F910F91FF900895AF92BF92DF92EF92E6
S11336E0FF920F931F93CF93DF93CDB7DEB7CF55E0
S11336F0D2400FB6F894DEBF0FBECDBFD82E162F22
S1133700FE01319685E0DF011D928A95E9F7359631
S113371082E3DF011D928A95E9F7B6E0DB1215C05A
S1133720E0915713F0915813A081B18188E0EDE83E
S1133730F5E001900D928A95E1F7E0915713F0912D
S1133740581313821482628351C1E7E0DE121FC052
S1133750E0919E0DF0919F0D60817181E09157136E
S1133760F0915813808191810E94E060E091571399
S1133770F0915813A0919E0DB0919F0D12968C91CB
S11337801297838313968C91848312832FC1F5E05F
S1133790FD1520F428E0D216D1F028C1E091D00D17
S11337A0F091D10D0190F081E02DDD2039F090E011
S11337B00180F281E02D9F5FD912FACFF093800D42
S11337C0E0937F0D8081D2DA38E0D31206C0E09115
S11337D00C12F0910D128081C9DA0091EB0D109159
S11337E0EC0DD80112969C911297913009F040C1CA
S11337F0AD90BC90E0919E0DF0919F0D6081718120
S1133800C5010E94D760892B09F025C17E01B6E06D
S1133810EB0EF11CB501C7010E94E060D7010D90C9
S11338200020E9F711978BE0E8EBF5E001900D92A9
S11338308A95E1F7B70183EC95E00E94F141B70165
S113384085E995E00E94F141F801A081B18188E009
S1133850EDE8F5E001900D928A95E1F7D801129612
S11338601C92129713961C92139714961C928D2DEA
S113387090E04AE0BE016F5F7F4F01960E940E61A7
S11338808DE0E0E8F5E0D70101900D928A95E1F72B
S1133890BE016F5F7F4FC7010E94CC60D7010D90BE
S11338A00020E9F7119787E0EAE2F4E001900D9235
S11338B08A95E1F7C7010E94D9590E94BC41E09062
S11338C0EB0DF090EC0DF801838594858E159F0522
S11338D009F08CC020E0213009F088C0D70112968D
S11338E08C911297811169C0E0919E0DF0919F0D0A
S11338F0608171818D919C910E94E06081E0F7016B
S11339008283E0919E0DF0919F0D8281D7011396E1
S11339108C931397838114968C9314976D917C9157
S11339208E010A5F1F4FC8010E94E060D8010D900C
S11339300020E9F711978EE0E0EDF5E001900D929B
S11339408A95E1F7B80183EC95E00E94F141B80152
S113395085E995E00E94F1418D2D90E04AE0BE0199
S11339606F5F7F4F01960E940E618DE0E0E8F5E005
S1133970D80101900D928A95E1F7BE016F5F7F4FE8
S1133980C8010E94CC60D8010D900020E9F711977E
S11339908AE0E5ECF3E001900D928A95E1F7C80125
S11339A00E94D9590E94BC418091EB0D9091EC0D7D
S11339B0E816F906D9F420E00BC0F701E384F48497
S11339C08091EB0D9091EC0DE816F90609F086CF85
S11339D0213061F46EED75E083EC95E00E94F141D5
S11339E06EED75E085E995E00E94F1410F2EF4E15A
S11339F0FF2EF02DCE01C896DC01EF2D1D92EA9525
S1133A00E9F726E0EBECF4E0DC0101900D922A9555
S1133A10E1F70E94704A8E01045B1F4F80E092E040
S1133A20D801FC011D923197E9F7C8010E947F0576
S1133A30CE01845B9D4FDC011D92FA94E9F726E0E8
S1133A40EBECF4E0DC0101900D922A95E1F7B8016A
S1133A500E947C4A1CC0F80103851485E090EB0D9C
S1133A60F090EC0D0E151F0509F0BBCE21E033CF0D
S1133A70D8011B960D911C911C97E090EB0DF090D2
S1133A80EC0D0E151F0509F0ACCE21E024CFC15A70
S1133A90DD4F0FB6F894DEBF0FBECDBFDF91CF91DF
S1133AA01F910F91FF90EF90DF90BF90AF9008951A
S1133AB07F928F929F92AF92BF92CF92DF92EF92BA
S1133AC0FF920F931F93CF93DF93CDB7DEB7C95106
S1133AD0D2400FB6F894DEBF0FBECDBF982E7B0147
S1133AE0742E822E0E9405028E010F5F1F4F80E00C
S1133AF092E0D801FC011D923197E9F7D8010D90AD
S1133B000020E9F7119786E0ECEEF5E001900D92C4
S1133B108A95E1F7B701C8010E94CC60D8010D90E5
S1133B200020E9F711978AE0E2EFF5E001900D92A9
S1133B308A95E1F7FE01EF5FFD4F85E0DF011D92FD
S1133B408A95E9F780916413909165139093B70D6A
S1133B508093B60D0F2EFAE3CF2ED12CF02D0F2E1D
S1133B60FDE0EF2EF12CF02DE091B60DF091B70DA4
S1133B708681882389F1808191810E94C359A09014
S1133B80B60DB090B70DF50160817181C8010E9436
S1133B90CC60F80101900020E9F73197D182C0820E
S1133BA0D50116968C914AE0BE016F5F7D4F90E07F
S1133BB00E940E61BE016F5F7D4FC8010E94CC6000
S1133BC0F80101900020E9F73197F182E082CE01FB
S1133BD08F5F9D4F0E94C359E091B60DF091B70DD0
S1133BE0858596859093B70D8093B60D20916413C7
S1133BF0309165138217930709F0B6CF8E010F5FDA
S1133C001F4FF80101900020E9F731978BE39DE005
S1133C10918380831282D8010D900020E9F71197D7
S1133C2089E0EFE9F7E001900D928A95E1F74AE027
S1133C30BE016F5F7D4F872D90E00E940E61BE0133
S1133C406F5F7D4FC8010E94CC60F8010190002095
S1133C50E9F731970F2EFDE0EF2EF12CF02DF182D4
S1133C60E082D8010D900020E9F711978EE0E4E995
S1133C70F6E001900D928A95E1F74AE0BE016F5F8C
S1133C807D4F882D90E00E940E61BE016F5F7D4FD5
S1133C90C8010E94CC60F80101900020E9F7319737
S1133CA0F182E082D8010D900020E9F7119786E0B7
S1133CB0ECEFF5E001900D928A95E1F7E09176132F
S1133CC0F09177138481803271F04AE0BE016B5E1B
S1133CD07D4F90E00E940E61BE016B5E7D4FC80176
S1133CE00E94CC600BC0FE01319601900020E9F7E0
S1133CF0319783E392E3918380831282FE013196AC
S1133D007F0101900020E9F731978EE790E09183DD
S1133D1080838E010A5F1D4F8FE0D8011D928A9522
S1133D20E9F74AE0B801892D90E00E940E61D801BC
S1133D300D900020E9F7119785E0ECECF4E0019098
S1133D400D928A95E1F7B701C8010E947C4A0E944E
S1133D504B02C75EDD4F0FB6F894DEBF0FBECDBF7A
S1133D60DF91CF911F910F91FF90EF90DF90CF9053
S1133D70BF90AF909F908F907F9008959F92AF9245
S1133D80BF92CF92DF92EF92FF920F931F93CF9344
S1133D90DF93CDB7DEB72F970FB6F894DEBF0FBE13
S1133DA0CDBF0E9405022091830D3091840D309384
S1133DB0B70D2093B60DF90180E09681890F038435
S1133DC0F485E02D2E173F07C1F7843609F0A1C012
S1133DD089E10E94D24162E076E08BE892E00E94A1
S1133DE0F141E0917613F09177136AE272E18081F8
S1133DF091810E94E060A0917613B091771380E2E4
S1133E0014968C9314972091830D3091840D3093E4
S1133E10B70D2093B60DF901A12CB12C91E0868148
S1133E20882341F08381813009F4B92E8481813063
S1133E3009F4A92E0384F485E02D2E173F0779F7A2
S1133E401296BC920E944B0201E010E00F2EFFE09C
S1133E509F2EF02DCE0101967C01F701292D1192A0
S1133E602A95E9F74AE0B701C8010E940E61D7011B
S1133E700D900020E9F7119785E0ECECF4E0019057
S1133E800D928A95E1F7B70181E00E94A149813042
S1133E90C9F02A2D4B2D6AE272E1802F09DE22EA55
S1133EA03DE04FEF5EE063E272E1802F912F0E94CC
S1133EB0403A8091A20D9091A30D90936113809349
S1133EC0601306C00F5F1F4F0832110531F628C07A
S1133ED0E0916013F091611380810E94C00D81E034
S1133EE00E94D24180917613909177130E94490BDE
S1133EF0109216121092E80D0E94D1021092201214
S1133F00EAE2F2E18EE392E11192E817F907E1F7B0
S1133F101FC066E176E08EEA93E00E94F14118C08A
S1133F2062E376E08BE892E00E94F1418FEF93E246
S1133F30E4EF81509040E040E1F700C00000809140
S1133F40FF0E9091000F9093611380936013C0CF84
S1133F502F960FB6F894DEBF0FBECDBFDF91CF9181
S1133F601F910F91FF90EF90DF90CF90BF90AF9093
S1133F709F9008950F931F93CF93DF93CDB7DEB730
S1133F8064970FB6F894DEBF0FBECDBF8E010F5FEE
S1133F901F4F94E1F80111929A95E9F74AE0B801AC
S1133FA090E00E940E61D8010D900020E9F711976E
S1133FB085E0ECECF4E001900D928A95E1F7C801FC
S1133FC00E94704A64960FB6F894DEBF0FBECDBF50
S1133FD0DF91CF911F910F910895CF930E94050215
S1133FE02091830D3091840D3093B70D2093B60D3D
S1133FF0F901C0E08681C80F0584F685E02D2E17EF
S11340003F07C1F70E944B02C43681F51092161285
S11340101092E80D89E10E94D24162E076E08BE8DB
S113402092E00E94F141E0916013F091611380816C
S1134030A1DFE0917613F091771360817181A091F3
S11340406013B0916113238142818C9131DD81E051
S11340500E94D24180917613909177130E94490B6C
S113406081E00E9474020E94D10206C066E176E0FB
S11340708EEA93E00E94F141CF910895AF92BF92EE
S1134080CF92DF92EF92FF920F931F93CF93DF9320
S1134090CDB7DEB7C550D2400FB6F894DEBF0FBE21
S11340A0CDBFFE01319680E092E0DF019C011D92BC
S11340B021503040E1F78091A20D9091A30D90938F
S11340C0611380936013FC0100E00F5F0380F481AF
S11340D0E02D8E179F07C9F7CE0101967C01DC0104
S11340E00D900020E9F7119780E1EFE5F6E00190EB
S11340F00D928A95E1F76E019FEFC91A9DEFD90AD7
S113410085E0D6011D928A95E9F710E04AE0B601F0
S1134110C8010E940E61B601C7010E94CC60F7017C
S113412001900020E9F731978AE390E0918380833E
S1134130E091A20DF091A30DF0936113E09360134D
S113414080810E94C00DE0917613F0917713608115
S11341507181C7010E94CC60E0916013F0916113FA
S113416083819481909361138093601301501109AA
S1134170101611068CF5E12CF12CFE0131966F011D
S11341800F2EFCE2AF2EB12CF02DF6010190002091
S1134190E9F73197B182A082E0916013F091611345
S11341A080810E94C00DE0917613F09177136081B5
S11341B07181C6010E94CC60E0916013F09161139B
S11341C0838194819093611380936013FFEFEF1ABE
S11341D0FF0AE016F106CCF28E010F5F1F4FF801C3
S11341E001900020E9F731978AE390E0918380837E
S11341F0C8010E94C359C8010E94EF59CB5FDD4F2B
S11342000FB6F894DEBF0FBECDBFDF91CF911F91E3
S11342100F91FF90EF90DF90CF90BF90AF900895F3
S1134220BF92CF92DF92EF92FF920F931F93CF939F
S1134230DF93CDB7DEB7CA50D4400FB6F894DEBFD3
S11342400FBECDBF80E092E0FE013196DF019C01FC
S11342501D9221503040E1F78E010F5F1D4FD801B0
S1134260FC011D923197E9F7FE01EF5FFB4F8AE0F5
S1134270DF011D928A95E9F70E940502809174136B
S1134280909175139093B70D8093B60D89E0EFE686
S1134290F6E0D80101900D928A95E1F7CC24C394FD
S11342A0D12C12500F2EFCE2EF2EF12CF02DB12C5C
S11342B0E091B60DF091B70D82818130B9F4B1E08F
S11342C0CB1207C060817181C8010E94CC60CB2CE5
S11342D00CC0D8010D900020E9F71197ED92FC92E3
S11342E060817181C8010E94CC60D394E091B60DC5
S11342F0F091B70D838594859093B70D8093B60D97
S113430020917413309175138217930789F60E94D4
S11343104B024AE0BE016F5F7B4F8D2D90E00E94FF
S11343200E618E010F5F1D4FBE016F5F7B4FC80191
S11343300E94CC60F80101900020E9F731978AE3EC
S113434090E091838083BE016F5F7F4FC8010E941C
S1134350CC60C8010E94EF59C8010E94C359C65FCE
S1134360DB4F0FB6F894DEBF0FBECDBFDF91CF9108
S11343701F910F91FF90EF90DF90CF90BF90089521
S11343800F931F93CF93DF93CDB7DEB7C450D140C3
S11343900FB6F894DEBF0FBECDBF0E944D418823F7
S11343A0E1F38E010F5F1F4F80E091E0F8019C0163
S11343B0119221503040E1F78CE29AE3CF5FDE4F57
S11343C099838883C150D1408DE090E0CD5FDE4F6A
S11343D099838883C350D1406EEC74E1C8010E9474
S11343E0E060BE016F5F7E4FC8010E94C2608C0115
S11343F088E796E00E94C359C8010E94C359E0911E
S1134400A20DF091A30DF0936113E09360138081EA
S11344100E94C00D12C0E0916013F09161130380FB
S1134420F481E02DF0936113E093601380810E9486
S1134430C00D84E896E00E94C359E0917613F09190
S11344407713B801808191810E94D760892B19F775
S113445084E00E94D241CC5FDE4F0FB6F894DEBFF9
S11344600FBECDBFDF91CF911F910F9108952F9271
S11344703F924F925F926F927F928F929F92AF92F0
S1134480BF92CF92DF92EF92FF920F931F93CF933D
S1134490DF93CDB7DEB7CC53D2400FB6F894DEBF6E
S11344A00FBECDBF809160139091611390937C0DEA
S11344B080937B0D0E944D418823E1F38EEC94E1BF
S11344C00E94C35980E091E09E012F5F3F4F790124
S11344D0D901FC011D923197E9F78E010F5F1E4F40
S11344E0D801FC011D923197E9F78CE29AE3CF5F82
S11344F0DD4F99838883C150D2408DE090E0CD5F39
S1134500DD4F99838883C350D240FE01EB5FFD4F9A
S113451084E1DF011D928A95E9F7749685E1DF0154
S11345201D928A95E9F76EEC74E1C9010E94E0607E
S1134530BE016F5F7D4FC7010E94C2606C018BE8B2
S113454096E00E94C359C6010E94C359D8010D9038
S11345500020E9F7119786E0ECEEF5E001900D926A
S11345608A95E1F7B601C8010E94CC60D8010D908C
S11345700020E9F711978AE0E2EFF5E001900D924F
S11345808A95E1F70E9405020F2EFBE05F2EF02DC5
S1134590312C212C58010F2EFAE38F2E912CF02D63
S11345A00F2EFDE06F2E712CF02D44244394B601A0
S11345B0CE01875E9D4F0E94E060BE016F5F7D4F1C
S11345C080E090E00E94C2606C010E94A560181611
S11345D019060CF045C0E090830DF090840DF09224
S11345E0B70DE092B60D0091B60D1091B70DBE0156
S11345F0675E7D4FF801808191810E94D760892B8D
S113460059F4D80113968C91813009F4242CF801C3
S11346108481813009F4342CD8011B968D919C91AE
S11346201C979093B70D8093B60DE816F906D9F64A
S1134630BE01675E7D4FC5010E94CC60F50101900B
S11346400020E9F7319791828082B601C5010E946A
S1134650CC60F50101900020E9F731977182608206
S11346605A945110A4CF0E944B028E010F5F1E4F2B
S1134670F80101900020E9F731978BE39DE09183E5
S113468080831282D8010D900020E9F7119789E008
S1134690EFE9F7E001900D928A95E1F74AE0BE0157
S11346A06B5F7D4F822D90E00E940E61BE016B5FB7
S11346B07D4FC8010E94CC60D8010D900020E9F71D
S11346C011978FE0E3E9F6E001900D928A95E1F706
S11346D04AE0BE016B5F7D4F832D90E00E940E6126
S11346E0BE016B5F7D4FC8010E94CC60D8010D9064
S11346F00020E9F7119789E0E2EAF6E001900D92D3
S11347008A95E1F7F80101900020E9F731978EE7E7
S113471090E091838083C8010E94C35901E010E0B6
S11347207E01B2EDEB1ABDEFFB0A0F2EFFE0AF2EB8
S1134730F02DB02EF7012A2D11922A95E9F7D12EEA
S11347404AE0B701C8010E940E61D7010D90002014
S1134750E9F7119785E0ECECF4E001900D928A956D
S1134760E1F7B70181E00E94A149813059F18E013E
S1134770025D1D4F4AE0B8018B2D9D2D0E940E61F4
S1134780D8010D900020E9F7119785E0ECECF4E0F6
S113479001900D928A95E1F7BE016F5F7E4FC801CB
S11347A00E947C4A8B2D0E94A006882389F022EA6D
S11347B03DE04FEF5EE063E272E18B2D9D2D0E94A0
S11347C0403A06C00F5F1F4F0832110509F0B1CF00
S11347D0E0917B0DF0917C0DF0936113E0936013F5
S11347E080810E94C00D81E00E94D24180917613A5
S11347F0909177130E94490BC45CDD4F0FB6F89477
S1134800DEBF0FBECDBFDF91CF911F910F91FF90FF
S1134810EF90DF90CF90BF90AF909F908F907F905C
S11348206F905F904F903F902F90089590E0FC011F
S11348303297E830F10508F0F4C08827EA56FF4FB4
S11348408F4F0C94355F82E00E94D241E091761341
S1134850F09177136081718188ED93E00E94F141BA
S113486080917613909177130C94A00B0895809106
S1134870930D813039F018F08230B9F028C00E94CD
S1134880841625C00E948416E0917613F091771364
S1134890828181111CC00E948416E0917613F091EC
S11348A0771382818823B9F312C00E948416E091A1
S11348B07613F09177138281813049F40E94841633
S11348C0E0917613F091771382818130B9F380916E
S11348D07613909177130C94490B089584E00E9409
S11348E0D241E0916013F091611380810C94C00D6A
S11348F008958091930D813039F018F08230B9F029
S113490028C00E94521625C00E945216E0917613C8
S1134910F0917713828181111CC00E945216E0919C
S11349207613F091771382818823B9F312C00E9421
S11349305216E0917613F09177138281813049F415
S11349400E945216E0917613F091771382818130A0
S1134950B9F380917613909177130C94490B0895D1
S113496080916013909161139093091080930810C3
S11349708091FF0E9091000F9093611380936013C8
S113498067E775E083E00C94DE0F089587E00C94EC
S1134990D2410895E091FF0EF091000FF09361135E
S11349A0E093601380810E94C00D8091930D81304B
S11349B0C1F018F0823049F12AC081E08093930D50
S11349C0E0917613F09177138281811120C00E94C7
S11349D05216E0917613F091771382818823B9F30C
S11349E016C082E08093930DE0917613F0917713D3
S11349F08281813061F40E945216E0917613F09125
S1134A00771382818130B9F302C01092930D8091A3
S1134A107613909177130C94490B089582E10C94CA
S1134A20D2410895813019F0823059F0089581E01F
S1134A300E94D24180917613909177130C94490B84
S1134A40089581E00E94D24180917613909177136A
S1134A500C94490B089590E0FC013197E930F1057D
S1134A6008F09DC08827E256FF4F8F4F0C94355FA6
S1134A7080E00E94060F81E00E94D241809176136B
S1134A80909177130E94490B109216121092E80D20
S1134A9081E00C947402089581E00E94060F81E085
S1134AA00E94D24180917613909177130E94490B12
S1134AB0109216121092E80D81E00C94740208957D
S1134AC082E00E94060F81E00E94D2418091761319
S1134AD0909177130E94490B109216121092E80DD0
S1134AE081E00C947402089583E00E94060F81E033
S1134AF00E94D24180917613909177130E94490BC2
S1134B00109216121092E80D81E00C94740208952C
S1134B1084E00E94060F81E00E94D24180917613C6
S1134B20909177130E94490B109216121092E80D7F
S1134B3081E00C947402089585E00E94060F81E0E0
S1134B400E94D24180917613909177130E94490B71
S1134B50109216121092E80D81E00C9474020895DC
S1134B6081E00C947719089581E00C940619089556
S1134B70109216121092E80DE0910810F0910910AD
S1134B8080810E94C00D81E00E94D2418091761301
S1134B90909177130E94490B81E00C94740208955C
S1134BA08F929F92AF92BF92CF92DF92EF92FF9239
S1134BB00F931F93CF93DF93CDB7DEB72F970FB625
S1134BC0F894DEBF0FBECDBF90E0FC013197E83012
S1134BD0F10508F085C08827E955FF4F8F4F0C94E5
S1134BE0355F8091601390916113909309108093C5
S1134BF008108091FF0E9091000F909361138093A1
S1134C00601367E775E088E00E94DE0F69C080E109
S1134C100E94D2410E94EC0A63C08AE00E94D24101
S1134C205FC08DE00E94D2415BC081E00E94D2410E
S1134C3080917613909177130E94490B51C083E1C0
S1134C400E94D2410E94440D4BC087E10E94D24190
S1134C5000E010E00F2EFAE0BF2EF02D9E012F5F32
S1134C603F4F69010F2EF5E0AF2EF02D7E013BE0A2
S1134C70E30EF11CF6012B2D11922A95E9F7F701A9
S1134C802A2D11922A95E9F785E0EBEAF6E0D601A0
S1134C9001900D928A95E1F748013FEF831A930A38
S1134CA04B2DB701C4010E940E61B701C6010E94D9
S1134CB0CC6080916613F801E80FF11DCF014B2DF4
S1134CC0B70101960E940E61B701C6010E94F1412D
S1134CD084010630110571F603C08AE10E94D241B5
S1134CE02F960FB6F894DEBF0FBECDBFDF91CF91E4
S1134CF01F910F91FF90EF90DF90CF90BF90AF90F6
S1134D009F908F90089590E0FC013197EA30F1056F
S1134D10F0F58827E155FF4F8F4F0C94355F80E005
S1134D200C941215089581E00C941215089582E0F4
S1134D300C941215089583E00C941215089584E0E0
S1134D400C941215089585E00C941215089581E0D1
S1134D500C947719089581E00C9406190895E09154
S1134D600810F0910910F0936113E09360138081AF
S1134D700E94C00D109216121092E80D87E00E9456
S1134D80D24181E00C94740208950C94C0100895EB
S1134D9090E0FC013197EA30F10508F043C0882720
S1134DA0E754FF4F8F4F0C94355F0C941E05089504
S1134DB00C94F0040895109216121092E80D81E0FC
S1134DC00C94D241089509C9089580E00C94010A15
S1134DD0089581E00C94010A089582E00C94010A7C
S1134DE0089583E00C94010A089581E00E94D24161
S1134DF0E0910810F0910910F0936113E0936013AF
S1134E0080810E94C00D80917613909177130E9447
S1134E10490B109216121092E80D81E00E94740260
S1134E200C94D10208954F925F926F927F928F9269
S1134E309F92AF92BF92CF92DF92EF92FF920F9325
S1134E401F93CF93DF93CDB7DEB7E2970FB6F894F5
S1134E50DEBF0FBECDBFE82F9E012F5F3F4F82E321
S1134E60D9011D928A95E9F780E389838E2F90E01A
S1134E70FC013197EF31F10508F0ADC38827ED53FC
S1134E80FF4F8F4F0C94355F8091E10D813041F4D9
S1134E90E0912012F0E0E65DFD4E81E4808307C0DE
S1134EA0E0912012F0E0E65DFD4E81E68083809182
S1134EB020128F5F809320128EC38091E10D813088
S1134EC041F4E0912012F0E0E65DFD4E82E480833F
S1134ED007C0E0912012F0E0E65DFD4E82E680839B
S1134EE0809120128F5F8093201275C38091E10D11
S1134EF0813041F4E0912012F0E0E65DFD4E83E460
S1134F00808307C0E0912012F0E0E65DFD4E83E669
S1134F108083809120128F5F809320125CC38091E4
S1134F20E10D813041F4E0912012F0E0E65DFD4EA8
S1134F3084E4808307C0E0912012F0E0E65DFD4E3A
S1134F4084E68083809120128F5F8093201243C374
S1134F508091E10D813041F4E0912012F0E0E65DB2
S1134F60FD4E85E4808307C0E0912012F0E0E65D09
S1134F70FD4E85E68083809120128F5F80932012FE
S1134F802AC38091E10D813041F4E0912012F0E0D8
S1134F90E65DFD4E86E4808307C0E0912012F0E0D8
S1134FA0E65DFD4E86E68083809120128F5F8093BC
S1134FB0201211C38091E10D813041F4E09120125F
S1134FC0F0E0E65DFD4E87E4808307C0E0912012A7
S1134FD0F0E0E65DFD4E87E68083809120128F5FCE
S1134FE080932012F8C28091E10D813041F4E09168
S1134FF02012F0E0E65DFD4E88E4808307C0E09176
S11350002012F0E0E65DFD4E88E680838091201258
S11350108F5F80932012DFC28091E10D813041F4D3
S1135020E0912012F0E0E65DFD4E89E4808307C044
S1135030E0912012F0E0E65DFD4E89E680838091E8
S113504020128F5F80932012C6C28091E10D8130BF
S113505041F4E0912012F0E0E65DFD4E8AE48083A5
S113506007C0E0912012F0E0E65DFD4E8AE6808301
S1135070809120128F5F80932012ADC28091E10D48
S1135080813041F4E0912012F0E0E65DFD4E8BE4C6
S1135090808307C0E0912012F0E0E65DFD4E8BE6D0
S11350A08083809120128F5F8093201294C280911C
S11350B0E10D813041F4E0912012F0E0E65DFD4E17
S11350C08CE4808307C0E0912012F0E0E65DFD4EA1
S11350D08CE68083809120128F5F809320127BC2A4
S11350E08091E10D813041F4E0912012F0E0E65D21
S11350F0FD4E8DE4808307C0E0912012F0E0E65D70
S1135100FD4E8DE68083809120128F5F8093201264
S113511062C28091E10D813041F4E0912012F0E00F
S1135120E65DFD4E8EE4808307C0E0912012F0E03E
S1135130E65DFD4E8EE68083809120128F5F809322
S1135140201249C28091E10D813041F4E091201296
S1135150F0E0E65DFD4E8FE4808307C0E09120120D
S1135160F0E0E65DFD4E8FE68083809120128F5F34
S11351708093201230C28091E10D813041F4E0919E
S11351802012F0E0E65DFD4E80E5808307C0E091EB
S11351902012F0E0E65DFD4E80E7808380912012CE
S11351A08F5F8093201217C28091E10D813041F40A
S11351B0E0912012F0E0E65DFD4E81E5808307C0BA
S11351C0E0912012F0E0E65DFD4E81E7808380915E
S11351D020128F5F80932012FEC18091E10D8130F7
S11351E041F4E0912012F0E0E65DFD4E82E580831B
S11351F007C0E0912012F0E0E65DFD4E82E7808377
S1135200809120128F5F80932012E5C18091E10D7F
S1135210813041F4E0912012F0E0E65DFD4E83E53B
S1135220808307C0E0912012F0E0E65DFD4E83E745
S11352308083809120128F5F80932012CCC1809153
S1135240E10D813041F4E0912012F0E0E65DFD4E85
S113525084E5808307C0E0912012F0E0E65DFD4E16
S113526084E78083809120128F5F80932012B3C1E2
S11352708091E10D813041F4E0912012F0E0E65D8F
S1135280FD4E85E5808307C0E0912012F0E0E65DE5
S1135290FD4E85E78083809120128F5F80932012DA
S11352A09AC18091E10D813041F4E0912012F0E047
S11352B0E65DFD4E86E5808307C0E0912012F0E0B4
S11352C0E65DFD4E86E78083809120128F5F809398
S11352D0201281C18091E10D813041F4E0912012CE
S11352E0F0E0E65DFD4E87E5808307C0E091201283
S11352F0F0E0E65DFD4E87E78083809120128F5FAA
S11353008093201268C18091E10D813041F4E091D5
S11353102012F0E0E65DFD4E88E5808307C0E09151
S11353202012F0E0E65DFD4E88E780838091201234
S11353308F5F809320124FC18091E10D813041F441
S1135340E0912012F0E0E65DFD4E89E5808307C020
S1135350E0912012F0E0E65DFD4E89E780838091C4
S113536020128F5F8093201236C18091E10D81302D
S113537041F4E0912012F0E0E65DFD4E8AE5808381
S113538007C0E0912012F0E0E65DFD4E8AE78083DD
S1135390809120128F5F809320121DC1E091201212
S11353A0E150E0932012F0E0E65DFD4E108213C15F
S11353B0E0910810F0910910F0936113E0936013E9
S11353C080810E94C00D10922012EAE2F2E18EE385
S11353D092E11192E817F907E1F781E00E94D241C6
S11353E080917613909177130E94490BF4C08091B9
S11353F02012E82FF0E0E65DFD4E90E290838F5F8F
S113540080932012E8C080912A12811107C060EBBA
S113541076E087ED96E00E94F1417FC063EE76E08E
S113542087ED96E00E94F141E0905913F0905A13F1
S1135430F70183809480A0911B12B0911C121396E3
S1135440AD90BC9014972091C00D3091C10DF9011D
S1135450C180D28080910C1290910D12FC01618068
S11354607280F901B283A183E0911B12F0911C12A6
S11354708091C00D9091C10D94838383E0910C12AF
S1135480F0910D128091591390915A139283818354
S1135490E0915913F0915A1380910C1290910D12CE
S11354A0948383838701512C44244394D8018C91A1
S11354B00E94B616E0919E0DF0919F0D6AE272E192
S11354C0808191810E94D760892B39F463E077E071
S11354D089E197E00E94F141542CF8010181128185
S11354E0E016F10619F7E0915913F0915A139482DA
S11354F08382E0911B12F0911C12B482A382E0918A
S1135500C00DF091C10DD282C182E0910C12F091D4
S11355100D127282618251105EC08091601390916D
S1135520611390930910809308100E9405028091E2
S1135530830D9091840D9093B70D8093B60DFC016B
S113554016820384F485E02D8E179F07C9F70E9405
S11355504B02109216121092E80D66E473E081E19A
S11355600E94350538C08091E10D8130D1F410924C
S1135570E10D86E493E79A8389831B82CE01019629
S1135580DC010D900020E9F7119727E0EAE2F4E04E
S113559001900D922A95E1F70E94D9590E94BC41CD
S11355A01AC081E08093E10D86E493E79A838983AE
S11355B01B82CE010196DC010D900020E9F71197C2
S11355C02AE0E5ECF3E001900D922A95E1F70E94C0
S11355D0D9590E94BC416AE272E187E297E00E94D5
S11355E0F14180912012833118F083E180932012DD
S11355F0E2960FB6F894DEBF0FBECDBFDF91CF9118
S11356001F910F91FF90EF90DF90CF90BF90AF90DC
S11356109F908F907F906F905F904F90089581300E
S113562019F08230E1F00895E0910810F09109102A
S1135630F0936113E093601380810E94C00D81E0B8
S11356400E94D24180917613909177130E94490B66
S1135650109216121092E80D0C94D10208950C9435
S1135660BE1E08950F931F93CF93DF93CDB7DEB77C
S113567064970FB6F894DEBF0FBECDBF813021F022
S1135680823009F472C07AC0E0916013F091611322
S1135690A381B4818181928112969C938E931197F8
S11356A0E0916013F0916113A181B28183819481AF
S11356B014969C938E93139780814AE08E010F5F1A
S11356C01F4FB80190E00E940E61D8010D90002098
S11356D0E9F7119785E0ECECF4E001900D928A95DE
S11356E0E1F7C8010E94704AE0916013F0916113E0
S11356F08091A20D9091A30DE817F90759F48381C5
S113570094819093A30D8093A20D90936113809341
S113571060131AC08091FF0E9091000FE817F907EB
S113572069F4818192819093000F8093FF0E8181AF
S11357309281909361138093601306C08381948156
S11357409093611380936013E0916013F09161135F
S113575080810E94C00D81E00E94D2418091761325
S1135760909177130E94490B09C081E00E94D241B5
S113577080917613909177130E94490B64960FB62B
S1135780F894DEBF0FBECDBFDF91CF911F910F9173
S11357900895813019F0823029F0089587E00C943F
S11357A0D24108958BE00C94D24108951F93CF9376
S11357B0DF93813019F0823029F03AC087E00E94EB
S11357C0D24136C08CE00E94D24110E080916E1329
S11357D0811112C0812F0E942F09C0EDD7E00E94D1
S11357E0744081110E94FD408FE99FE00197F1F719
S11357F000C00000219799F7812F0E9466091F5F5E
S11358001C3021F710926E1381E00E94D241E09186
S1135810A20DF091A30DF0936113E09360138081C6
S11358200E94C00D80917613909177130E94490BCA
S1135830DF91CF911F910895813031F487E00E9468
S1135840D24181E080936E130895813019F487E08A
S11358500C94D2410895813031F480917613909163
S113586077130C94490B0895813011F480936E13CF
S11358700895823039F0833049F0813081F40C94FA
S1135880DE14089582E00C94DE14089581E00E94F1
S1135890D24180917613909177130C94490B08951B
S11358A090E0FC013197EE30F10508F095C08827AF
S11358B0EE51FF4F8F4F0C94355F1092411280E0F0
S11358C00E94780360E875E084E10C94A4190895BB
S11358D01092411281E00E94780360E875E084E14F
S11358E00C94A41908951092411282E00E94780346
S11358F060E875E084E10C94A419089510924112B3
S113590083E00E94780360E875E084E10C94A419B4
S113591008951092411284E00E94780360E875E0D3
S113592084E10C94A41908951092411285E00E9418
S1135930780360E875E084E10C94A419089510924A
S1135940411286E00E94780360E875E084E10C94DB
S1135950A41908951092411287E00E94780360E828
S113596075E084E10C94A41908951092411288E022
S11359700E94780360E875E084E10C94A41908950A
S11359801092411289E00E94780360E875E084E196
S11359900C94A4190895109241128AE00E9478038D
S11359A060E875E084E10C94A41908951092411202
S11359B08BE00E94780360E875E084E10C94A419FC
S11359C008950C942A10089581E08093411260E8B0
S11359D075E084E10C94A419089590E0FC013197DA
S11359E0EB30F10508F08DC08827E051FF4F8F4F51
S11359F00C94355F80914112811103C061E00E94D3
S1135A00051A80914112813009F07BC01092E80D93
S1135A1061E080E00C946C1B089580914112811127
S1135A2005C061E081E00C94051A08951092E80D18
S1135A3061E081E00C946C1B089580914112811106
S1135A4005C061E082E00C94051A08951092E80DF7
S1135A5061E082E00C946C1B0895809141128111E5
S1135A6005C061E083E00C94051A08951092E80DD6
S1135A7061E083E00C946C1B0895809141128111C4
S1135A8005C061E084E00C94051A08951092E80DB5
S1135A9061E084E00C946C1B0895809141128111A3
S1135AA005C061E085E00C94051A08951092E80D94
S1135AB061E085E00C946C1B089580E00C947719E8
S1135AC0089580E00C940619089585E10C94D24160
S1135AD0089560E086E00C94051A08951092161259
S1135AE01092E80D83E10E94D2410E94440D8091FE
S1135AF04112811103C00C947402089580E00C9447
S1135B00740208956F927F928F929F92AF92BF9288
S1135B10CF92DF92EF92FF920F931F93CF93DF9375
S1135B20813009F093C080912A12811107C061E38A
S1135B3077E089E197E00E94F1417BC067E577E077
S1135B4089E197E00E94F141E0915913F0915A13D1
S1135B50A380B480E0911B12F0911C12C380D48006
S1135B60C091C00DD091C10DE980FA80A0910C12B2
S1135B70B0910D1211960D911C911297FA83E9833D
S1135B80E0911B12F0911C128091C00D9091C10DF7
S1135B9094838383E0910C12F0910D128091591338
S1135BA090915A1392838183E0915913F0915A137F
S1135BB080910C1290910D12948383834E01712C69
S1135BC066246394F40180810E94B616E0919E0DD0
S1135BD0F0919F0D6AE272E1808191810E94D76009
S1135BE0892B39F463E077E089E197E00E94F14181
S1135BF0762CF40183809480C815D90519F7E091B7
S1135C005913F0915A13B482A382E0911B12F091BC
S1135C101C12D482C382E091C00DF091C10DF282B6
S1135C20E182E0910C12F0910D1212830183711044
S1135C300DC08BE10E94D241E0919E0DF0919F0D29
S1135C406AE272E1808191810E94E060DF91CF91EC
S1135C501F910F91FF90EF90DF90CF90BF90AF9086
S1135C609F908F907F906F900895BF92CF92DF9214
S1135C70EF92FF920F931F93CF93DF93CDB7DEB7CD
S1135C80C654D1090FB6F894DEBF0FBECDBFFE01D6
S1135C9031969FE0DF011D929A95E9F73F9692E3D2
S1135CA0DF011D929A95E9F7F29695E0DF011D92C6
S1135CB09A95E9F7813008F44EC1182F833020F00B
S1135CC0833009F43AC147C189E10E94D24165E7B2
S1135CD077E08BE892E00E94F141113039F4E091D1
S1135CE09E0DF0919F0D81E0828307C0123029F44C
