:1000000019C1000038C1000036C1000034C1000031
:1000100032C1000030C100002EC100002CC1000020
:100020002AC1000028C1000026C1000024C1000030
:1000300022C1000020C100001EC100001CC1000040
:100040001AC1000018C1000016C1000014C1000050
:1000500012C1000010C100000EC100000CC1000060
:100060000AC100000C946A2D0C942B2D04C10000D1
:1000700002C1000000C10000FEC00000FCC0000082
:10008000FAC00000F8C00000F6C00000F4C0000094
:100090000C94962DF0C00000EEC00000ECC00000F3
:1000A000EAC00000E8C00000E6C00000E4C00000B4
:1000B000E2C00000E0C00000DEC00000DCC00000C4
:1000C000DAC00000D8C00000D6C000000C94012E99
:1000D0000C94C22DD0C000000C946C2E0C942D2ECC
:1000E000CAC000002402260228022A022C022E0284
:1000F0003002320238023E0244024A025B025D02D2
:100100005F02610263026502670269026F027502A3
:100110007B0281029202950299029D02A102A50230
:10012000A902AD02B102B502B902BC02AE0EC20E06
:10013000F40EFF0E310F3A0F3E0F800FA40FAE0FDB
:10014000B80FC20FCC0FD60FE00FEA0FF40F041058
:1001500041104B1069106D10711078107D108E10C9
:10016000921096109A109E10A210A610AA10AE100F
:10017000BE10DB10EB10FB100311231127112B1104
:100180002F11A211BB11D411ED1106121F1238123A
:1001900051126A1283129C12B512CE12E71200138A
:1001A000191332134B1364137D139613AF13C81333
:1001B000E113FA13131472142C1436144E1456143B
:1001C000F115FE150B161816251632163F164C168D
:1001D0005916661672167E168A169C16A116A61653
:1001E000AB16B016B516BA16CA16DA16DF16E4162E
:1001F00034183D1846184F18581861186A187A189C
:100200008A18DA18DE18E218E618EA182319EE1828
:10021000F218F618FA18FD180019031923192319F2
:10022000061909190C190F191219151918191B1982
:100230001E19211911241FBECFEFD1E2DEBFCDBFA1
:1002400000E00CBF16E0A0E0B2E0E2EFF1E600E073
:100250000BBF02C007900D92A23BB107D9F724E172
:10026000A2EBB6E001C01D92A635B207E1F70E94ED
:10027000AE2E0C94F730C4CECF93DF93EC0186E31F
:1002800092E00E94022DCE010E94022D80E595E0B1
:100290000E94022DDF91CF910895CF92DF92EF92CD
:1002A000FF920F931F93CF93DF93CDB7DEB769977C
:1002B0000FB6F894DEBF0FBECDBFFE0131969FE0B2
:1002C000DF011D929A95E9F7082F10E08091431005
:1002D000B801680F711DA0914B10B0914C1020E037
:1002E00030E090E06217730741F01396ED91FC91B6
:1002F0001497E20FF31F4081940F2F5F3F4F2C3074
:10030000310581F784E6F82EF91A87E0E5E4F2E09A
:10031000DE01119601900D928A95E1F76801BFEF19
:10032000CB1ADB0A4AE0BE01605F7F4FC6010E9424
:10033000BC30BE01605F7F4FCE0101960E948330CA
:1003400060E572E1CE0101960E94CD1E9F2D8F15B2
:1003500008F4982FE0914B10F0914C10209143102D
:100360000380F481E02D0E0F1F1FF801E20FF11D35
:100370009083092F10E07E0180E1E80EF11C4AE035
:10038000B701C8010E94BC30F70101900020E9F7D5
:10039000319785E290E09183808386E0ECE4F2E09F
:1003A000DE01119601900D928A95E1F74AE0BE01B7
:1003B0006B5E7F4FC6010E94BC30BE016B5E7F4FFB
:1003C000CE0101960E948330B701CE0101960E94B2
:1003D0007F1E4AE0B701C8010E94BC3087E0E5E417
:1003E000F2E0DE01119601900D928A95E1F74AE064
:1003F000BE016B5E7F4FC6010E94BC30BE016B5ECA
:100400007F4FCE0101960E948330B701CE01019645
:100410000E94971E69960FB6F894DEBF0FBECDBF3F
:10042000DF91CF911F910F91FF90EF90DF90CF90D0
:10043000089590E08C30910590F5FC018827EE58E6
:10044000FF4F8F4F0C94002F129A0895139A08951E
:10045000149A0895159A0895169A0895179A08956A
:10046000A29A0895E5E0F1E0808180648083089598
:10047000E5E0F1E08081806280830895E5E0F1E0CD
:100480008081806180830895E5E0F1E0808188606B
:1004900080830895E5E0F1E08081846080830895A1
:1004A00090E08C30910590F5FC018827E258FF4FD1
:1004B0008F4F0C94002F1298089513980895149854
:1004C0000895159808951698089517980895A29874
:1004D0000895E5E0F1E080818F7B80830895E5E079
:1004E000F1E080818F7D80830895E5E0F1E08081F7
:1004F0008F7E80830895E5E0F1E08081877F8083AF
:100500000895E5E0F1E080818B7F8083089590E09D
:100510008C309105A0F5FC018827E657FF4F8F4FDF
:100520000C94002F8FB1807808958091060181701E
:10053000089580910601827008958091060184706B
:100540000895809106018870089580910601807158
:10055000089580910601807208958091060180744B
:100560000895809106018078089580910301807834
:10057000089580B18170089580B18270089580E0FF
:1005800008959F92AF92BF92CF92DF92EF92FF9227
:100590000F931F93CF93DF93CDB7DEB7C454D10928
:1005A0000FB6F894DEBF0FBECDBF6C0185E1FE0132
:1005B0003196DF01982F1D929A95E9F77596DF0124
:1005C000982F1D929A95E9F77596DF011D928A95ED
:1005D000E9F7759685E0DF011D928A95E9F7E091CC
:1005E000180DF091190DF093CA07E093C9072091F7
:1005F000431030E0121613060CF0D0C080E090E0FB
:100600000780F085E02D019682179307C9F7F093D4
:10061000CA07E093C907C2C0BFEFEB1AFB0A4AE062
:10062000B801C7010E94BC30B601CE0101960E94FC
:100630008E30B801CE0101960E94833087E0E5E458
:10064000F2E0DE01569601900D928A95E1F7B8012D
:10065000CE0146960E94833086E0ECE4F2E0DE01B3
:100660009B9601900D928A95E1F7B801CE018B9689
:100670000E948330E091C907F091CA078091C407B6
:100680009091C507E817F90799F58091FC0781114A
:1006900033C09092FC0760817181CE0101960E9467
:1006A0007F1EE0914B10F0914C10A091C907B091C2
:1006B000CA0714968C910380F481E02DE80FF11D98
:1006C00080814AE0B80190E00E94BC30B801CE01C0
:1006D00046960E94971EF80101900020E9F7319795
:1006E000B182A082B801CE018B960E947F1E3DC0D0
:1006F0008091FC07882369F062E575E0CE010196E0
:100700000E947F1E6EE173E0CE0146960E94971E06
:100710002CC060817181CE0101960E947F1EE09104
:100720004B10F0914C10A091C907B091CA071496D4
:100730008C910380F481E02DE80FF11D80814AE067
:10074000B80190E00E94BC30B801CE0146960E94EC
:10075000971EF80101900020E9F73197B182A0823D
:10076000B801CE018B960E947F1EE091C907F091DF
:10077000CA078091180D9091190DE817F90711F427
:1007800090920C0C878190859093CA078093C9073B
:1007900084E0E816F10409F03FCF0DC0E12CF12C04
:1007A0008E01005C1F4F0F2EF5E2AF2EB12CF02D05
:1007B0009924939431CFCC5BDF4F0FB6F894DEBF12
:1007C0000FBECDBFDF91CF911F910F91FF90EF90A2
:1007D000DF90CF90BF90AF909F9008950F931F939D
:1007E000CF93DF9300D01F92CDB7DEB78C0181E0AD
:1007F0000E94601EF8016081718182E592E00E9492
:100800007F1EF80185814AE0BE016F5F7F4F90E057
:100810000E94BC30AE014F5F5F4F6FE572E082E631
:1008200092E00E94A71E8091C807813059F018F00D
:10083000823079F014C066E672E082E792E00E94AE
:100840007F1E0DC060E872E082E792E00E947F1E8A
:1008500006C06CE872E082E792E00E947F1E0F9073
:100860000F900F900F90DF91CF911F910F910895EE
:100870004F925F926F927F929F92AF92BF92CF9270
:10088000DF92EF92FF920F931F93CF93DF93CDB739
:10089000DEB7E4970FB6F894DEBF0FBECDBF69ABED
:1008A0007AAB8BAB9CABCE0101965C01E12CF12CB9
:1008B000CC24C394E0914B10F0914C100380F48150
:1008C000E02DEE0DFF1D1081112309F4A3C08091CE
:1008D000451081119FC080E3E6E0F2E0DE01119651
:1008E00001900D928A95E1F7F50160817181828115
:1008F000938129A93AA94BA95CA90E94CF2E9B01FB
:10090000AC01A12FB0E00E94172F24E630E040E0B8
:1009100050E00E94DE2E29013A019E2C8E2DF7DD3B
:100920008E2D87DD0C2D01C0082F1091B806D12E19
:10093000DC24111164C009F464C08091B406909164
:10094000B506A091B606B091B706AC01BD014F5FE8
:100950005F4F6F4F7F4F4093B4065093B50660933F
:10096000B6067093B706481659066A067B06B0F4B9
:10097000892D96DD1092B4061092B5061092B60637
:100980001092B7068FE39FE10197F1F700C00000D6
:100990000E94261D882309F44BC050C0EFE3FFE1FD
:1009A0003197F1F700C000000E94261D882359F1FD
:1009B0000E94AF1D80914510813039F5812F70DD87
:1009C0001F5F1C30D9F78EE00E94601EFFEF27EA00
:1009D00081E6F15020408040E1F700C000008091A6
:1009E0004B1090914C10FADE1092B4061092B5069E
:1009F0001092B6061092B706D092B8060BC0802FA0
:100A000005C0802F03C0802F01C0802FD092B80670
:100A100001118ACF9FEFE91AF90AE4E0AE0EB11C8A
:100A2000FCE0EF16F10409F045CF109245100DC01F
:100A3000D092B806EFCFD092B806ECCF0E94AF1D8F
:100A4000809145108130B9F7B9CFE4960FB6F8948C
:100A5000DEBF0FBECDBFDF91CF911F910F91FF90F1
:100A6000EF90DF90CF90BF90AF909F907F906F906E
:100A70005F904F900895CF92DF92EF92FF926B01BB
:100A80007C0185E00E94601E61E972E08AEB92E0E1
:100A90000E947F1E2FEF83ED90E321508040904015
:100AA000E1F700C00000C701B601E2DE86E00E9467
:100AB000601E2FEF87EA91E6215080409040E1F7D9
:100AC00000C0000081E00E94601E80914B10909158
:100AD0004C1084DEFF90EF90DF90CF9008952F921E
:100AE0003F924F925F926F927F928F929F92AF92BE
:100AF000BF92CF92DF92EF92FF920F931F93CF930B
:100B0000DF93CDB7DEB7CA50D2400FB6F894DEBF40
:100B10000FBECDBFFE0131968AE0DF011D928A959E
:100B2000E9F73A9680E092E0DF019C011D922150A6
:100B30003040E1F78091180D9091190D9093CA07FC
:100B40008093C90700E010E07F010F2EF4E1AF2E83
:100B5000B12CF02D0F2EFDE28F2E912CF02D0F2EAB
:100B6000F8E22F2E312CF02D60904B1070904C102D
:100B70002801D3011396ED91FC911497E00FF11F1A
:100B80008081882309F44EC0C090C907D090CA075D
:100B9000F60160817181C7010E94833080E090E09E
:100BA00008C0F70101900020E9F731979182808217
:100BB0000196F601A081B181FD0101900020E9F7C5
:100BC0003197EA1BFB0B95012E1B3F0B82179307F6
:100BD00040F3F70101900020E9F73197318220823C
:100BE000D30113968D919C911497FC01E40DF51D92
:100BF00080814AE0BE016F5F7F4F90E00E94BC3071
:100C0000BE016F5F7F4FC7010E948330D7010D90F7
:100C10000020E9F7119785E0E5ECF2E001900D92F4
:100C20008A95E1F7E091C907F091CA07878190851D
:100C30009093CA078093C9070F5F1F4F0C301105AF
:100C400009F092CFBE01655F7F4F8AEC92E00E946F
:100C50007F1EC65FDD4F0FB6F894DEBF0FBECDBF5F
:100C6000DF91CF911F910F91FF90EF90DF90CF9088
:100C7000BF90AF909F908F907F906F905F904F90BC
:100C80003F902F900895DC019C91FB018081981387
:100C90000BC0992391F01196319602C0992379F0F7
:100CA0009D9181919817D1F391110BC091E0811121
:100CB00001C090E0892F8195089580E0089580E03B
:100CC00008958FEF0895DFDF91E0811190E0892F83
:100CD0000895AF92BF92CF92DF92EF92FF920F935F
:100CE0001F93CF93DF93CDB7DEB7E9970FB6F89494
:100CF000DEBF0FBECDBF4AE08E010F5F1F4FB801B0
:100D000090E00E94BC30D8010D900020E9F71197C7
:100D100085E0E4E9F4E001900D928A95E1F7B801ED
:100D200080E00E94292687E0E0EFF2E0DE01D39622
:100D300001900D928A95E1F7BE016D5C7F4F87E0CF
:100D40009AE00E9479308C01892B09F4CFC07E0192
:100D500083E3E80EF11C67ED72E0C801B4DF88237D
:100D600079F0B70180E090E00E9479308C01E09149
:100D70004B10F0914C10BC01808191810E948E300B
:100D80006CED72E0C8019FDF882309F47FC0B701D2
:100D900080E090E00E9479308C018091180D909154
:100DA000190D9093CA078093C907E0914B10F091F9
:100DB0004C10A091C907B091CA0714968C9103807A
:100DC000F481E02DE80FF11D1082E091C907F09148
:100DD000CA07878190859093CA078093C90720919D
:100DE000180D3091190D82179307F9F6F8018081DB
:100DF0008B3309F44BC0CE2CDF2C8091180D9091D1
:100E0000190D9093CA078093C907E091C907F09123
:100E1000CA0760817181C80136DF81111AC06C2D4B
:100E20007D2D80E090E00E9479308C01E0914B10A4
:100E3000F0914C10A091C907B091CA0714968C91FB
:100E4000A380B480A80EB11CC8010E945C30F501DB
:100E50008083E091C907F091CA07878190859093BC
:100E6000CA078093C9072091180D3091190D821778
:100E7000930759F66C2D7D2D80E090E00E9479302B
:100E80008C01FC0180818B3309F0B7CF63EE72E0F7
:100E9000C80119DF882371F0B70180E090E00E945B
:100EA00079308C01C0904B10D0904C100E945C3077
:100EB000F60182836BEE72E0C80105DF882369F0DA
:100EC000B70180E090E00E94793000914B101091C2
:100ED0004C100E945C30F8018583B70180E090E0FF
:100EE0000E9479308C01892B09F035CFE9960FB635
:100EF000F894DEBF0FBECDBFDF91CF911F910F9150
:100F0000FF90EF90DF90CF90BF90AF900895E09169
:100F1000C207F091C307F093F407E093F307209121
:100F2000431090E0820F911D1816190674F420E00A
:100F300030E00380F481E02D2F5F3F4F2817390701
:100F4000C1F7F093F407E093F307E091F307F09112
:100F5000F4078081BEDEE0914B10F0914C1080814F
:100F600091810E94022D8CEC95E00E94022D10923E
:100F70000C0C1092FC07109243100895C8DF89E012
:100F80000E94601E87EF92E0FCDA109243100895F1
:100F9000AF92BF92CF92DF92EF92FF920F931F9387
:100FA000CF93DF93CDB7DEB7AD970FB6F894DEBF22
:100FB0000FBECDBF7C01E091C207F091C307F09353
:100FC000F407E093F3072091431030E01216130664
:100FD0006CF480E090E00380F481E02D01968217AC
:100FE0009307C9F7F093F407E093F307FE013196F6
:100FF00085E1DF011D928A95E9F71E8A1F8A188E06
:10100000198E00E010E00F2EF4E1BF2EF02D6E01DE
:10101000BAE1CB0ED11CAA24A3940F5F1F4F4AE064
:10102000BE016A5E7F4FC8010E94BC30B701CE018D
:1010300001960E948E30BE016A5E7F4FCE010196FE
:101040000E948330E091F307F091F4078091F50757
:101050009091F607E817F90799F48091FC07811140
:1010600013C0A092FC07808134DEE0914B10F09118
:101070004C1060817181CE0101960E947F1E40C09C
:101080008091FC07882381F162E575E0CE0101962D
:101090000E947F1EEFE3FCE93197F1F700C00000EA
:1010A000D601EB2D1D92EA95E9F7B701C6010E9422
:1010B00083304AE0BE016A5E7F4FC8010E94BC30A7
:1010C000BE016A5E7F4FC6010E948330C6010E9446
:1010D000181FE091F307F091F407818192819093BA
:1010E000F4078093F3070CC08081F3DDE0914B108F
:1010F000F0914C1060817181CE0101960E947F1E9B
:10110000E091F307F091F4078091C2079091C30733
:10111000E817F90731F48091FC07811102C0A09211
:101120000C0C838194819093F4078093F3078FE9EB
:101130009FE00197F1F700C000000830110509F0A9
:101140006CCFAD960FB6F894DEBF0FBECDBFDF916A
:10115000CF911F910F91FF90EF90DF90CF90BF90B4
:10116000AF900895E091F307F091F4070180F281C8
:10117000E02DF093F407E093F3078081AACD089562
:10118000E091F307F091F4070380F481E02DF093F0
:10119000F407E093F30780819CCD089510923F0FF0
:1011A00010920309109202090E944F2B8093400F66
:1011B000882309F452C020910209309103092F5F5E
:1011C0003F4F30930309209302092A30310560F321
:1011D0004DC080E293E00E94022D8091400F82304A
:1011E00021F488E393E00E94022D8FE00E94601EAC
:1011F00066E573E088EA93E00E947F1E13C082EBED
:1012000093E00E94022D0EC08EED93E00E94022D0D
:1012100009C08CEF93E00E94022D04C088E294E0A4
:101220000E94022D80E58CBD8DB581608DBD8FE95A
:101230009FE00197F1F700C0000081E08093461025
:101240000E9481218093400F8823A1F083E494E0E1
:101250000E94022D10924610089580913F0F823017
:1012600099F28330B1F28130C9F6C9CF813009F0EB
:10127000B4CFAFCF08956F927F928F929F92AF922B
:10128000BF92CF92DF92EF92FF920F931F93CF9373
:10129000DF93CDB7DEB7C959D1090FB6F894DEBFD9
:1012A0000FBECDBF782E642E8E010F5F1F4F80E8DA
:1012B000D8011D928A95E9F7D8010D900020E9F731
:1012C000119786E0E6E5F4E001900D928A95E1F74A
:1012D000C8010E948330D8010D900020E9F71197D2
:1012E0008AE0ECE5F4E001900D928A95E1F7FE01C9
:1012F000EF57FF4F85E0DF011D928A95E9F7809156
:10130000180D9091190D9093CA078093C907680131
:101310000F2EFAE38F2E912CF02D0F2EFDE0AF2E25
:10132000B12CF02DE0904B10F0904C100091C907BB
:101330001091CA07D80114968C91D7011396ED919C
:10134000FC911497E80FF11D8081882361F1F80169
:1013500060817181C6010E948330F60101900020F6
:10136000E9F7319791828082D80114968C91D70148
:101370001396ED91FC911497E80FF11D80814AE0DE
:10138000BE016F577F4F90E00E94BC30BE016F5787
:101390007F4FC6010E948330F60101900020E9F7DB
:1013A0003197B182A082E091C907F091CA07878185
:1013B00090859093CA078093C9072091180D3091AA
:1013C000190D8217930709F0ADCF8E010F5F1F4FE4
:1013D000F80101900020E9F731978BE39DE09183BC
:1013E00080831282D8010D900020E9F7119789E0DF
:1013F000E9EBF4E001900D928A95E1F74AE0BE0135
:101400006F577F4F862D90E00E94BC30BE016F5712
:101410007F4FC8010E948330F80101900020E9F756
:1014200031978DE090E091838083D8010D9000206A
:10143000E9F7119786E0E6E6F4E001900D928A95CF
:10144000E1F7E0914B10F0914C108581883171F0FB
:101450004AE0BE016B567F4F90E00E94BC30BE0157
:101460006B567F4FC8010E9483300BC0FE0131963E
:1014700001900020E9F7319782E394E39183808320
:101480001282FE0131967F0101900020E9F7319729
:101490008EE790E0918380838E010A571F4F8FE083
:1014A000D8011D928A95E9F74AE0B801872D90E0AE
:1014B0000E94BC30D8010D900020E9F7119785E01B
:1014C000E4E9F4E001900D928A95E1F7B701C801D3
:1014D0000E940327C756DF4F0FB6F894DEBF0FBE3A
:1014E000CDBFDF91CF911F910F91FF90EF90DF90D3
:1014F000CF90BF90AF909F908F907F906F90089506
:101500000F931F93CF93DF93CDB7DEB764970FB6DA
:10151000F894DEBF0FBECDBF8E010F5F1F4F94E169
:10152000F80111929A95E9F74AE0B80190E00E941B
:10153000BC30D8010D900020E9F7119785E0E4E96F
:10154000F4E001900D928A95E1F7C8010E94F72618
:1015500064960FB6F894DEBF0FBECDBFDF91CF917A
:101560001F910F910895EF92FF920F931F93CF93C6
:10157000DF93CDB7DEB7A1970FB6F894DEBF0FBEED
:10158000CDBF8E010F5F1F4F95E1F80111929A9523
:10159000E9F77E01F6E1EF0EF11C95E0F7011192FB
:1015A0009A95E9F72AE530E03A8329834AE0B701C2
:1015B00090E00E94BC30B701C8010E948330D8017E
:1015C0000D900020E9F7119785E0E4E9F4E001903F
:1015D0000D928A95E1F7B80180E00E94292687E004
:1015E000E0EFF2E0DE015B9601900D928A95E1F763
:1015F000BE01655E7F4F87E09AE00E9479308C01E2
:10160000892BB1F167ED72E0C8015DDB882389F0B9
:10161000BE01655E7F4F80E090E00E9479308C01D2
:10162000E091D107F091D207BC01808191810E94A5
:101630008E3063EE72E0C80146DB882379F0BE018C
:10164000655E7F4F80E090E00E9479300091D10785
:101650001091D2070E945C30F8018283BE01655E62
:101660007F4F80E090E00E9479308C01892B51F609
:10167000A1960FB6F894DEBF0FBECDBFDF91CF911C
:101680001F910F91FF90EF900895BF92CF92DF923C
:10169000EF92FF920F931F93CF93DF93CDB7DEB7F7
:1016A000C956D1090FB6F894DEBF0FBECDBF7C017D
:1016B00084E10E94601EE091D307F091D407F0937B
:1016C000350DE093340D2091431030E012161306CF
:1016D0006CF480E090E00380F481E02D01968217A5
:1016E0009307C9F7F093350DE093340D82E3FE01C3
:1016F0003196DF01982F1D929A95E9F7F29695E0C1
:10170000DF011D929A95E9F73596DF011D928A95C2
:10171000E9F700E010E0BB24B3946F010F5F1F4FA7
:101720004AE0BE016D5C7F4FC8010E94BC30B7012A
:10173000CE0101960E948E30BE016D5C7F4FCE01BE
:1017400001960E948330E091340DF091350D809127
:10175000BF069091C006E817F90799F48091FC073D
:10176000811113C0B092FC078081FDDEE091D107AA
:10177000F091D20760817181CE0101960E947F1E97
:1017800021C08091FC07882389F062E575E0CE01D5
:1017900001960E947F1E8FE39CE90197F1F700C03C
:1017A0000000CE0101960E94181F0CC08081DBDE74
:1017B000E091D107F091D20760817181CE0101964D
:1017C0000E947F1E2091340D3091350D8091D307FA
:1017D0009091D4072817390731F48091FC078111C3
:1017E00002C0B0920C0CE091D107F091D207608159
:1017F0007181E091C907F091CA078081918143DA34
:10180000811117C0BE016F5F7F4FC6010E948E30ED
:10181000D6010D900020E9F711978AE0ECE6F4E09C
:1018200001900D928A95E1F7C6010E94152D0E9444
:101830004A1EE091340DF091350D8381948190938F
:10184000350D8093340DAFE9BFE01197F1F700C07B
:1018500000000630110509F061CFC759DF4F0FB600
:10186000F894DEBF0FBECDBFDF91CF911F910F91D6
:10187000FF90EF90DF90CF90BF900895CF92DF92CE
:10188000EF92FF920F931F93CF93DF93CDB7DEB705
:10189000EC970FB6F894DEBF0FBECDBF8091180D48
:1018A0009091190D9093CA078093C90700E010E04A
:1018B0000F2EF2E6CF2ED12CF02DCE0101967C0119
:1018C000DA82C9824AE0BE016D5C7F4FC8010E9486
:1018D000BC30BE016D5C7F4FC7010E948330E09138
:1018E000C907F091CA078281813089F018F08230EF
:1018F000D9F026C0D7010D900020E9F7119787E0B5
:10190000E6E7F4E001900D928A95E1F719C0D7015E
:101910000D900020E9F711978AE0ECE6F4E00190E1
:101920000D928A95E1F70CC0D7010D900020E9F7E0
:1019300011978BE0EDE7F4E001900D928A95E1F7C5
:10194000C7010E94152D0E944A1EE091C907F0911F
:10195000CA07878190859093CA078093C9070F5F54
:101960001F4F0C30110509F0ABCFEC960FB6F89471
:10197000DEBF0FBECDBFDF91CF911F910F91FF90C2
:10198000EF90DF90CF900895E091180DF091190D30
:10199000F093CA07E093C90790E01816190674F48B
:1019A00020E030E00780F085E02D2F5F3F4F2817C3
:1019B0003907C1F7F093CA07E093C90708958F92DA
:1019C0009F92AF92BF92CF92DF92EF92FF920F93CE
:1019D0001F93CF93DF93CDB7DEB7C956D2400FB672
:1019E000F894DEBF0FBECDBF162F863090F1E09188
:1019F000C907F091CA07A081B181FD0101900020C3
:101A0000E9F731979F012A1B3B0B33272F5F3F4F8D
:101A100080E090E0E091C907F091CA070190F08161
:101A2000E02DE80FF91F108201968217930794F3B7
:101A30006FC12D91E091C907F091CA070190F08123
:101A4000E02DE80FF91F208301968830910589F772
:101A50004FC0E091D307F091D407F093350DE09398
:101A6000340D2091431090E0820F911D1816190635
:101A700074F420E030E00380F481E02D2F5F3F4FCD
:101A800028173907C1F7F093350DE093340DE09135
:101A9000340DF091350D808166DDE091D107F09134
:101AA000D207A081B181FD0101900020E9F73197B3
:101AB000AF014A1B5B0B55274F5F5F4F80E090E003
:101AC000E091D107F091D2070190F081E02DE80F6D
:101AD000F91F2081E091C907F091CA070190F081B8
:101AE000E02DE80FF91F208301968417950744F332
:101AF000E091C907F091CA07128383E10E94601E3A
:101B00008E010F5F1F4F82E3D8011D928A95E9F77E
:101B10007E01B3E3EB0EF11C85E0F70111928A958B
:101B2000E9F78EE492E79A8389838EE290E09C83C2
:101B30008B83E091C907F091CA07848190E04AE065
:101B4000B70101960E94BC30B701C8010E948330E2
:101B5000F80101900020E9F7319780E29DE391833D
:101B6000808380E290E093838283E091C907F091C3
:101B7000CA0760817181C8010E948330B80188E87A
:101B800094E00E947F1E7ADE10920C0C1092FC07EB
:101B900010924310CE01C89624E1DC011D922A95D3
:101BA000E9F726E0E3E9F4E0DC0101900D922A95E3
:101BB000E1F70E94F726FE01E45BFF4F80E092E030
:101BC000DF019C011D9221503040E1F78091180DFA
:101BD0009091190D9093CA078093C907E12CF12CBD
:101BE0008F010F2EFCE2CF2ED12CF02D0F2EFEE711
:101BF0008F2E912CF02D0F2EFDE0AF2EB12CF02D5D
:101C0000E114F10451F0E091C907F091CA07608135
:101C10007181C8010E94833009C0E091C907F09129
:101C2000CA0760817181C8010E948E30F80101905D
:101C30000020E9F73197D182C082E091C907F09185
:101C4000CA0782814AE0BE01645B7D4F90E00E943A
:101C5000BC30BE01645B7D4FC8010E948330F80137
:101C600001900020E9F73197D182C082E091C90745
:101C7000F091CA0783814AE0BE01645B7D4F90E02A
:101C80000E94BC30BE01645B7D4FC8010E9483305E
:101C9000A091C907B091CA078091C4079091C50768
:101CA000A817B90741F0F80101900020E9F7319732
:101CB000B182A08207C0F80101900020E9F73197B6
:101CC0009182808217968D919C9118979093CA0764
:101CD0008093C9073FEFE31AF30A8CE0E816F1049A
:101CE00009F08ECFCE018A5A9D4F24E1DC011D926E
:101CF0002A95E9F726E0E3E9F4E0DC0101900D9292
:101D00002A95E1F7BE01645B7F4F0E94032705C05F
:101D1000A9E9B4E080E090E08CCEC759DD4F0FB662
:101D2000F894DEBF0FBECDBFDF91CF911F910F9111
:101D3000FF90EF90DF90CF90BF90AF909F908F90EB
:101D4000089590E0FC013297E830F10508F0DBC01F
:101D50008827EA56FF4F8F4F0C94002F82E00E9495
:101D6000601EE0914B10F0914C106081718182E512
:101D700092E00E947F1E80914B1090914C100C9429
:101D80006F0508958091C807813031F018F08230D6
:101D9000A1F023C0E7D921C0E5D9E0914B10F09123
:101DA0004C108281811119C0DDD9E0914B10F09166
:101DB0004C1082818823C1F310C0D4D9E0914B101C
:101DC000F0914C108281813041F4CCD9E0914B10DC
:101DD000F0914C1082818130C1F380914B10909131
:101DE0004C100C94EE03089584E00E94601EE09174
:101DF000F307F091F40780810C94690608958091AF
:101E0000C807813031F018F08230A1F023C0B8D972
:101E100021C0B6D9E0914B10F0914C108281811114
:101E200019C0AED9E0914B10F0914C1082818823FB
:101E3000C1F310C0A5D9E0914B10F0914C108281F4
:101E4000813041F49DD9E0914B10F0914C1082818A
:101E50008130C1F380914B1090914C100C94EE03A3
:101E6000089583E00E94601E1092431082E093E088
:101E70008FC8089587E00C94601E0895E091C20712
:101E8000F091C307F093F407E093F30780810E9479
:101E900069068091C8078130B9F018F0823039F1B5
:101EA00028C081E08093C807E0914B10F0914C105E
:101EB000828181111EC064D9E0914B10F0914C10C9
:101EC00082818823C1F315C082E08093C807E09126
:101ED0004B10F0914C108281813059F451D9E0912E
:101EE0004B10F0914C1082818130C1F302C01092EE
:101EF000C80780914B1090914C100C94EE030895FC
:101F000082E10C94601E0895813019F0823041F016
:101F1000089580914B1090914C100C94EE0308950D
:101F200080914B1090914C100C94EE03089590E02A
:101F3000FC013197EA30F10508F075C08827E256B8
:101F4000FF4F8F4F0C94002F80E00E9487078091F5
:101F50004B1090914C100C94EE03089581E00E9478
:101F6000870780914B1090914C100C94EE030895CC
:101F700082E00E94870780914B1090914C100C9446
:101F8000EE03089583E00E94870780914B109091A3
:101F90004C100C94EE03089584E00E948707809112
:101FA0004B1090914C100C94EE03089585E00E9424
:101FB000870780914B1090914C100C94EE0308957C
:101FC00086E00E94870780914B1090914C100C94F2
:101FD000EE03089587E00E94870780914B1090914F
:101FE0004C100C94EE0308951092FC0780910C0C99
:101FF000811119C08091431088508093431082E072
:1020000093E00C94C807089510920C0C8091FC0783
:10201000811109C080914310885F8093431082E052
:1020200093E00C94C8070895823059F0833081F012
:102030008130A1F463E070E080E090E00C943B0517
:10204000089565E070E080E090E00C943B05089511
:1020500080914B1090914C100C94EE0308958130B8
:1020600011F480934510089590E0FC013197E7301A
:10207000F10508F045C08827E855FF4F8F4F0C94B5
:10208000002F88E00E94601E1092431082E093E0CF
:102090000C94C807089580E10E94601E81E080933F
:1020A000F7071092130DEBE1FDE001900020E9F736
:1020B0003197CF018B519D4099271816190604F5C9
:1020C000EBE1FDE0855E924F1192E817F907E1F729
:1020D00008958AE00C94601E08958DE00C94601EB3
:1020E000089580914B1090914C100C94EE0308953C
:1020F00083E10E94601EC2CB089587E10C94601EAC
:10210000089590E0FC013197EA30F10508F045C0F0
:102110008827E155FF4F8F4F0C94002F80E00C94DF
:10212000BE07089581E00C94BE07089582E00C94E8
:10213000BE07089583E00C94BE07089584E00C94D4
:10214000BE07089585E00C94BE07089586E00C94C0
:10215000BE07089587E00C94BE0708951092FC070F
:1021600080910C0C811119C080914310885080938C
:10217000431082E093E00C94C807089510920C0C71
:102180008091FC07811109C080914310885F809382
:10219000431082E093E00C94C807089590E0FC019E
:1021A0003197E830F10508F05DC08827E754FF4F0C
:1021B0008F4F0C94002F1092FC0780910C0C811112
:1021C00051C08091431084508093431087EF92E078
:1021D0000C94C102089510920C0C8091FC0781119F
:1021E00041C0809143108C5F8093431087EF92E051
:1021F0000C94C102089510920C0C1092FC0781E01F
:102200000C94601E089510920C0C1092FC07109212
:102210004310E091F307F091F407808171D9E091C8
:102220004B10F0914C1060817181A091F307B09137
:10223000F40742818C911FD880914B1090914C10E3
:102240000C94EE03089580E00C944D01089581E014
:102250000C944D01089582E00C944D01089583E0A3
:102260000C944D010895813019F0823029F00895C1
:1022700087E00C94601E08958BE00C94601E089516
:102280001F93CF93DF93813019F0823029F03AC049
:1022900087E00E94601E36C08CE00E94601E10E045
:1022A00080914510811112C0812F0E941902C0ED4A
:1022B000D7E00E94261D81110E94AF1D8FE99FE08B
:1022C0000197F1F700C00000219799F7812F0E9434
:1022D00050021F5F1C3021F71092451081E00E94D0
:1022E000601EE091C207F091C307F093F407E093FA
:1022F000F30780810E94690680914B1090914C10E9
:102300000E94EE03DF91CF911F910895813031F447
:1023100087E00E94601E81E080934510089581301F
:1023200019F487E00C94601E089590E0FC01319749
:10233000EF31F10508F0E0C28827EF53FF4F8F4FD0
:102340000C94002F8091F707813041F4E091130D38
:10235000F0E0E55EF24F81E4808307C0E091130D69
:10236000F0E0E55EF24F81E680838091130D8F5F90
:102370008093130DC1C28091F707813041F4E09141
:10238000130DF0E0E55EF24F82E4808307C0E09138
:10239000130DF0E0E55EF24F82E680838091130D2D
:1023A0008F5F8093130DA8C28091F707813041F4AD
:1023B000E091130DF0E0E55EF24F83E4808307C007
:1023C000E091130DF0E0E55EF24F83E480838091AD
:1023D000130D8F5F8093130D8FC28091F7078130AB
:1023E00041F4E091130DF0E0E55EF24F84E4808368
:1023F00007C0E091130DF0E0E55EF24F84E68083C4
:102400008091130D8F5F8093130D76C28091F70733
:10241000813041F4E091130DF0E0E55EF24F85E488
:10242000808307C0E091130DF0E0E55EF24F85E692
:1024300080838091130D8F5F8093130D5DC2809117
:10244000F707813041F4E091130DF0E0E55EF24FC3
:1024500086E4808307C0E091130DF0E0E55EF24F63
:1024600086E680838091130D8F5F8093130D44C2A5
:102470008091F707813041F4E091130DF0E0E55EC3
:10248000F24F87E4808307C0E091130DF0E0E55E32
:10249000F24F87E680838091130D8F5F8093130D39
:1024A0002BC28091F707813041F4E091130DF0E0E9
:1024B000E55EF24F88E4808307C0E091130DF0E001
:1024C000E55EF24F88E680838091130D8F5F8093E5
:1024D000130D12C28091F707813041F4E091130D82
:1024E000F0E0E55EF24F89E4808307C0E091130DD0
:1024F000F0E0E55EF24F89E680838091130D8F5FF7
:102500008093130DF9C18091F707813041F4E09178
:10251000130DF0E0E55EF24F8AE4808307C0E0919E
:10252000130DF0E0E55EF24F8AE680838091130D93
:102530008F5F8093130DE0C18091F707813041F4E4
:10254000E091130DF0E0E55EF24F8BE4808307C06D
:10255000E091130DF0E0E55EF24F8BE68083809111
:10256000130D8F5F8093130DC7C18091F7078130E2
:1025700041F4E091130DF0E0E55EF24F8CE48083CE
:1025800007C0E091130DF0E0E55EF24F8CE680832A
:102590008091130D8F5F8093130DAEC18091F7076B
:1025A000813041F4E091130DF0E0E55EF24F8DE4EF
:1025B000808307C0E091130DF0E0E55EF24F8DE6F9
:1025C00080838091130D8F5F8093130D95C180914F
:1025D000F707813041F4E091130DF0E0E55EF24F32
:1025E0008EE4808307C0E091130DF0E0E55EF24FCA
:1025F0008EE680838091130D8F5F8093130D7CC1D5
:102600008091F707813041F4E091130DF0E0E55E31
:10261000F24F8FE4808307C0E091130DF0E0E55E98
:10262000F24F8FE680838091130D8F5F8093130D9F
:1026300063C18091F707813041F4E091130DF0E020
:10264000E55EF24F80E5808307C0E091130DF0E076
:10265000E55EF24F80E780838091130D8F5F80935A
:10266000130D4AC18091F707813041F4E091130DB9
:10267000F0E0E55EF24F81E5808307C0E091130D45
:10268000F0E0E55EF24F81E780838091130D8F5F6C
:102690008093130D31C18091F707813041F4E091AF
:1026A000130DF0E0E55EF24F82E5808307C0E09114
:1026B000130DF0E0E55EF24F82E780838091130D09
:1026C0008F5F8093130D18C18091F707813041F41B
:1026D000E091130DF0E0E55EF24F83E5808307C0E3
:1026E000E091130DF0E0E55EF24F83E78083809187
:1026F000130D8F5F8093130DFFC08091F70781301A
:1027000041F4E091130DF0E0E55EF24F84E5808343
:1027100007C0E091130DF0E0E55EF24F84E780839F
:102720008091130D8F5F8093130DE6C08091F707A2
:10273000813041F4E091130DF0E0E55EF24F85E564
:10274000808307C0E091130DF0E0E55EF24F85E76E
:1027500080838091130D8F5F8093130DCDC0809186
:10276000F707813041F4E091130DF0E0E55EF24FA0
:1027700086E5808307C0E091130DF0E0E55EF24F3F
:1027800086E780838091130D8F5F8093130DB4C013
:102790008091F707813041F4E091130DF0E0E55EA0
:1027A000F24F87E5808307C0E091130DF0E0E55E0E
:1027B000F24F87E780838091130D8F5F8093130D15
:1027C0009BC08091F707813041F4E091130DF0E058
:1027D000E55EF24F88E5808307C0E091130DF0E0DD
:1027E000E55EF24F88E780838091130D8F5F8093C1
:1027F000130D82C08091F707813041F4E091130DF1
:10280000F0E0E55EF24F89E5808307C0E091130DAB
:10281000F0E0E55EF24F89E780838091130D8F5FD2
:102820008093130D69C08091F707813041F4E091E6
:10283000130DF0E0E55EF24F8AE5808307C0E0917A
:10284000130DF0E0E55EF24F8AE780838091130D6F
:102850008F5F8093130D50C0E091130DE150E09312
:10286000130DF0E0E55EF24F108246C0E091C20722
:10287000F091C30780810E9469061092130DEBE16D
:10288000FDE08FE29DE01192E817F907E1F78091F2
:102890004B1090914C100E94EE032EC0E091130D4E
:1028A000F0E0E55EF24F80E2808326C081E10E9485
:1028B000601E80E090E0E0914B10F0914C1003809E
:1028C000F481E02DE80FF91F108201968C309105FC
:1028D00091F71092130D1092431087EF92E00E942F
:1028E000C1020AC08091F707813019F41092F707EE
:1028F00003C081E08093F7076BE17DE081EA94E01B
:102900000E947F1E8091130D833118F083E1809324
:10291000130D0895DF92EF92FF920F931F93CF93C1
:10292000DF93CDB7DEB72F970FB6F894DEBF0FBE9B
:10293000CDBF813019F0823051F09BC080914B1097
:1029400090914C100E94EE031092431092C0E091BF
:102950004B10F0914C106BE17DE0808191810E94E1
:102960008E3060914B1070914C1088E1FB01858393
:102970002091180D3091190D3093CA072093C90783
:102980004381548110E001E0E091C907F091CA074A
:102990008481DA01A80FB11D8C91882321F08381F5
:1029A000813009F4102F878190859093CA07809316
:1029B000C9072817390741F7FB011283EE24E39476
:1029C000F12C0F2EFFE0DF2EF02D8E010F5F1F4F39
:1029D000F8018D2D11928A95E9F74AE0B801C701F7
:1029E0000E94BC30D8010D900020E9F7119785E0D6
:1029F000E4E9F4E001900D928A95E1F7B80181E0F5
:102A00000E9429268130C9F041E06BE17DE08E2DE6
:102A10000E943B098E2D55D5BC0185EF97E05DD511
:102A20009093F6078093F5079093F4078093F3074C
:102A3000FC0180810E94690607C0FFEFEF1AFF0AC0
:102A400085E6E816F10421F681E00E94601E80917F
:102A50004B1090914C100E94EE031092130D1092A7
:102A60004310EBE1FDE08FE29DE01192E817F907DA
:102A7000E1F72F960FB6F894DEBF0FBECDBFDF9102
:102A8000CF911F910F91FF90EF90DF9008950F93DA
:102A90001F93CF93DF93CDB7DEB764970FB6F8944B
:102AA000DEBF0FBECDBF813021F0823009F478C087
:102AB00080C0E091F307F091F4078091C2079091F4
:102AC000C307E817F907C9F4A381B481B093C3071A
:102AD000A093C2078181928112969C938E93119745
:102AE000E091F307F091F407A181B2818381948191
:102AF00014969C938E93139722C08091F507909122
:102B0000F607E817F90739F4818192819093F60767
:102B10008093F50714C0A381B481818192811296BC
:102B20009C938E931197E091F307F091F407A181A4
:102B3000B2818381948114969C938E931397E09134
:102B4000F307F091F40780814AE08E010F5F1F4F79
:102B5000B80190E00E94BC30D8010D900020E9F748
:102B6000119785E0E4E9F4E001900D928A95E1F790
:102B7000C8010E94F726E091F307F091F407018065
:102B8000F281E02DF093F407E093F30780810E9437
:102B9000690680914B1090914C100E94EE0309C081
:102BA00081E00E94601E80914B1090914C100E9419
:102BB000EE0364960FB6F894DEBF0FBECDBFDF9173
:102BC000CF911F910F91089590E0FC013197ED3066
:102BD000F10508F0A3C08827E052FF4F8F4F0C94F7
:102BE000002F84E10E94601E1092431080E00E943A
:102BF000C40C8BEA94E00C94450B089584E10E9488
:102C0000601E1092431081E00E94C40C8BEA94E095
:102C10000C94450B089584E10E94601E10924310AD
:102C200082E00E94C40C8BEA94E00C94450B08955A
:102C300084E10E94601E1092431083E00E94C40C45
:102C40008BEA94E00C94450B089584E10E94601E89
:102C50001092431084E00E94C40C8BEA94E00C9420
:102C6000450B089584E10E94601E1092431085E098
:102C70000E94C40C8BEA94E00C94450B089584E107
:102C80000E94601E1092431086E00E94C40C8BEAE2
:102C900094E00C94450B089584E10E94601E10920C
:102CA000431087E00E94C40C8BEA94E00C94450B1F
:102CB000089584E10E94601E1092431088E00E94F3
:102CC000C40C8BEA94E00C94450B089584E1F8D78A
:102CD0001092431089E00E94C40C8BEA94E00C949B
:102CE000450B089584E1ECD7109243108AE00E94CE
:102CF000C40C8BEA94E00C94450B089584E1E0D772
:102D0000109243108BE00E94C40C8BEA94E00C9468
:102D1000450B089587E0D4D710924310089590E0B2
:102D2000FC013197EB30F10508F054C08827E351DE
:102D3000FF4F8F4F0C94002F61E080E00C94DF0C6C
:102D4000089561E081E00C94DF0C089561E082E079
:102D50000C94DF0C089561E083E00C94DF0C08957F
:102D600061E084E00C94DF0C089561E085E00C9450
:102D7000DF0C08951092FC0780910C0C81112AC081
:102D8000809143108650809343108BEA94E00C941A
:102D9000450B089510920C0C8091FC0781111AC00C
:102DA000809143108A5F809343108BEA94E00C94E7
:102DB000450B089585E184D710924310089560E093
:102DC00086E00C94DF0C08951092431083E178D7CD
:102DD0000C943E0C0895813019F586E171D7EBE132
:102DE000FDE001900020E9F731979F012B513D4014
:102DF00033272F5F3F4FABE1BDE080E090E04D9186
:102E0000E0914B10F0914C100190F081E02DE80F13
:102E1000F91F40830196821793078CF31092130DCC
:102E20000895BF92CF92DF92EF92FF920F931F937C
:102E3000CF93DF93CDB7DEB7C654D1090FB6F89460
:102E4000DEBF0FBECDBFFE0131969FE0DF011D92B8
:102E50009A95E9F73F9692E3DF011D929A95E9F77B
:102E6000F29695E0DF011D929A95E9F7813008F41A
:102E7000DDC0182F833020F0833009F4D5C0D6C0D0
:102E80007E01B0E1EB0EF11C86E0E6E5F4E0D7014F
:102E900001900D928A95E1F7E0914B10F0914C1062
:102EA00060817181C7010E948330D7010D9000209D
:102EB000E9F711978AE0E8EBF4E001900D928A952A
:102EC000E1F7113049F44AE0BE016E5B7F4F81E0CB
:102ED00090E00E94BC300AC0123041F44AE0BE01CA
:102EE0006E5B7F4F80E090E00E94BC308E01005FFF
:102EF0001F4FBE016E5B7F4FC8010E948330F801F7
:102F000001900020E9F731978EE790E0918380836C
:102F1000BB24B3940F2EFAE5CF2ED12CF02D0F50F9
:102F20001109DA82C982EB2CF12C4AE0BE016E5BFA
:102F30007F4FC7010E94BC30BE016E5B7F4FC8014E
:102F40000E948330D8010D900020E9F7119785E0A9
:102F5000E4E9F4E001900D928A95E1F7B80181E08F
:102F60000E942926813009F44EC08B2DD4D3BC0198
:102F70008FEB96E0DCD39093C0068093BF068AE582
:102F800090E09A8389834AE0BE016E5B7F4FC70160
:102F90000E94BC30BE016E5B7F4F8E010F5F1F4FE2
:102FA000C8010E948330D8010D900020E9F71197E5
:102FB00085E0E4E9F4E001900D928A95E1F7C8011B
:102FC0000E94022D8CEC95E00E94022DBE01605FF4
:102FD0007F4FC8010E940327109243101092FC07F4
:102FE00010920C0C8BEA94E00E94450BEBE1FDE0A3
:102FF00001900020E9F73197EB51FD40FF27319612
:1030000080E090E002C0B3948CCFA0914B10B091BF
:103010004C100D90BC91A02DA80FB91F1C920196C9
:103020008E179F0794F302C085E14AD6CA5BDF4F33
:103030000FB6F894DEBF0FBECDBFDF91CF911F91C9
:103040000F91FF90EF90DF90CF90BF90089590E0A8
:10305000FC013197E930F10508F060C08827E8509D
:10306000FF4F8F4F0C94002F88E12AD61092431007
:1030700082E093E00C94C807089588E121D610926D
:10308000431082E093E00C94C807089588E118D6B5
:103090001092431082E093E00C94C807089588E1F1
:1030A0000FD61092431082E093E00C94C807089565
:1030B00088E106D61092431082E093E00C94C80792
:1030C000089588E1FDD51092431082E093E00C94BE
:1030D000C80708951092FC0780910C0C81111EC046
:1030E0008091431088508093431082E093E00C94C9
:1030F000C807089510920C0C8091FC0781110EC036
:1031000080914310885F8093431082E093E00C9499
:10311000C807089581E0D4D51092431008958A30ED
:1031200028F4883068F4813021F008958A30C1F0A5
:10313000089580914B1090914C100C94EE030895DB
:103140001092FC0780910C0C811119C080914310E2
:1031500088508093431082E093E00C94C807089550
:1031600010920C0C8091FC07811109C080914310D2
:10317000885F8093431082E093E00C94C807089521
:10318000813031F480914B1090914C100C94EE03EF
:103190000895082E000C990BAA0BBB0BFC0131976C
:1031A000E931F10508F04FC08827EF5FFE4F8F4FE0
:1031B0000C94002F862F0C94A10E0895862F0C944A
:1031C000840F0895862F0C94970F0895862F0C94E2
:1031D00014100895862F0C942F100895862F0C94A8
:1031E00034100895862F0C9481100895862F0C9426
:1031F000CE100895862F37C80895862F41C80895A8
:10320000862F84C80895862F8AC80895862F8DC872
:103210000895862F7FCB0895862F39CC0895862F69
:10322000D3CC0895862F7BCD0895862FD4CD0895D5
:10323000862FF7CD0895862F0ACF0895862F6FCF5A
:103240000895862F9DCF0895AF92BF92CF92DF92BF
:10325000EF92FF920F931F93CF93DF93CDB7DEB71B
:103260006B970FB6F894DEBF0FBECDBF4AE08E015C
:103270000F5F1F4FB80190E00E94BC30D8010D9045
:103280000020E9F7119785E0E4E9F4E001900D9260
:103290008A95E1F7B80180E00E94292687E0E0EFF7
:1032A000F2E0DE01559601900D928A95E1F7BE019C
:1032B0006B5E7F4F87E09AE00E947930009709F4B7
:1032C00067C0AA24A394BB24B394D12C6CED72E004
:1032D0000E946306882309F450C0BE016B5E7F4FD5
:1032E00080E090E00E9479307C01FC0180818B338A
:1032F00009F443C00F2EFDE0CF2EF02D8091180D64
:103300009091190D9093CA078093C9071DE00B2D6A
:1033100001C0082FE091C907F091CA07608171814F
:10332000C7010E94430681110AC0BE016B5E7F4F38
:1033300080E090E00E947930113069F138C0802F30
:10334000115049F1E091C907F091CA0727813085F2
:103350003093CA072093C9070111DBCFBE016B5E12
:103360007F4F80E090E00E9479307C01FC018081F9
:103370008B3319F0CA94C110C1CFBE016B5E7F4F71
:1033800080E090E00E947930009709F09FCF1AC04A
:10339000AA24A39417C0E091C907F091CA078781B6
:1033A00090859093CA078093C907AD2CD7CFE09141
:1033B000C907F091CA07878190859093CA078093C7
:1033C000C907CCCF8A2D6B960FB6F894DEBF0FBE1F
:1033D000CDBFDF91CF911F910F91FF90EF90DF90C4
:1033E000CF90BF90AF900895AF92BF92CF92DF92EF
:1033F000EF92FF920F931F93CF93DF937C01C62E22
:10340000D72EA42EB22E66E070E081E090E00E94FC
:10341000212FEC01F70101900020E9F731978F018E
:103420000E191F0961E070E0C80101960E94212F6A
:103430009983888361E070E08DE090E00E94212F05
:103440009C838B83AA82BD8201151105D1F0D7011F
:10345000A80180E090E02D91E881F981E80FF91F43
:103460002083019684179507B1F70BC02D91EB814E
:10347000FC81E80FF91F208301968C309105B1F78C
:1034800011C00F5F1F4FF701E00FF11F80812881EE
:103490003981F901E00FF11F8083AC2DBD2D80E053
:1034A00090E0E4CFEB81FC811586CE01DF91CF91D6
:1034B0001F910F91FF90EF90DF90CF90BF90AF9052
:1034C0000895CF93C82F65E070E081E090E00E94FE
:1034D000212FFC01C083CF910895CF93DF93DC01AE
:1034E000FB018D919C9111979283818314821382A9
:1034F000CD91DC911197209729F47093C3076093C5
:10350000C20708C07C836B838091C2079091C30778
:1035100094838383ED93FC93A091C207B091C3077A
:103520001296FC93EE931197CF01DF91CF910895FE
:10353000DF92EF92FF920F931F93CF93DF93CDB75C
:10354000DEB72F970FB6F894DEBF0FBECDBF109237
:10355000C8071092F6071092F50700E010E00F2E52
:10356000FFE0DF2EF02DCE0101967C01F7018D2DBD
:1035700011928A95E9F74AE0B701C8010E94BC3070
:10358000D7010D900020E9F7119785E0E4E9F4E018
:1035900001900D928A95E1F7B70181E00E942926FA
:1035A000813071F4802F50DE882351F0802F89DF25
:1035B000BC0185EF97E091DF9093F6078093F507C4
:1035C0000F5F1F4F0536110589F620E040E060E0EF
:1035D00070E082EC94E008DF90934C1080934B10E5
:1035E000E091C207F091C307F093F407E093F3076B
:1035F00080810E9469062F960FB6F894DEBF0FBE39
:10360000CDBFDF91CF911F910F91FF90EF90DF9091
:103610000895CF93DF9363E070E081E090E00E9433
:10362000212FEC0161E070E085E190E00E94212F04
:10363000998388831A8280E090E0E881F981E80F1D
:10364000F91F1082019685319105B9F7CE01DF91FE
:10365000CF910895DF92EF92FF920F931F93CF9334
:10366000DF93082F192FD62EF42EE22E69E070E09A
:1036700081E090E00E94212FEC0161E070E085E1A3
:1036800090E00E94212F99838883DA82EC82FB826A
:1036900018861F821E821D82A02FB12F80E090E02D
:1036A0002D91E881F981E80FF91F2083019685317A
:1036B0009105B1F7CE01DF91CF911F910F91FF904E
:1036C000EF90DF900895CF93DF93DC01FA018D91A5
:1036D0009C9111979683858310861782CD91DC91FA
:1036E0001197209721F4EB015983488307C058872D
:1036F0004F83EB018881998190878783ED93FC93B9
:10370000EB01A881B9811696FC93EE931597CF0132
:10371000DF91CF910895CF93C82F65E070E081E0ED
:1037200090E00E94212FFC01C083CF910895CF9398
:10373000DF93DC01FB018D919C9111979283818332
:1037400014821382CD91DC911197209729F4709304
:10375000D4076093D30708C07C836B838091D30721
:103760009091D40794838383ED93FC93A091D30726
:10377000B091D4071296FC93EE931197CF01DF918D
:10378000CF910895CF92DF92EF92FF920F931F9304
:10379000CF93DF93CDB7DEB7C754D1090FB6F894F6
:1037A000DEBF0FBECDBF1092050910920409109222
:1037B000C0061092BF061092D4071092D307FE01E4
:1037C000319685E1DF011D928A95E9F7759685E0CE
:1037D000DF011D928A95E9F700E010E00F2EFAE56F
:1037E000CF2ED12CF02D75977F01DA82C9824AE065
:1037F000BE016A5E7F4FC8010E94BC30BE016A5E96
:103800007F4FC7010E948330D7010D900020E9F758
:10381000119785E0E4E9F4E001900D928A95E1F7D3
:10382000B70181E00E942926813051F4802F73DF97
:10383000BC018FEB96E07BDF9093C0068093BF06C0
:103840000F5F1F4F0536110581F6E3DE9093D20717
:103850008093D1078091D3079091D4079093350D31
:103860008093340D1092C5071092C4071092190D61
:103870001092180D8CE29DE09C8F8B8F8AE090E077
:103880009E8F8D8F8E01015E1F4F85E1D8011D92A5
:103890008A95E9F7BE016C5C7F4F84E1FB011192D0
:1038A0008A95E9F786E0E3E9F4E0DB0101900D9207
:1038B0008A95E1F780E00E942926BE01655E7F4F70
:1038C00087E09AE00E947930BC01C8010E948E30E6
:1038D000BE01655E7F4F80E090E00E9479300E94DB
:1038E0005C30D82EBE01655E7F4F80E090E00E9484
:1038F00079307C010E945C3020E0482F6D2DC8019A
:10390000A9DEAC0168E17DE084EC97E0DCDE909319
:10391000C5078093C407EF28C1F1EE24E394BE01EC
:10392000655E7F4F80E090E00E947930BC01CE015F
:103930004F960E948E30BE01655E7F4F80E090E022
:103940000E9479300E945C30F82EBE01655E7F4F88
:1039500080E090E00E9479308C010E945C309F8D65
:10396000992389F02E2D482F6F2DCE014F9672DEB0
:10397000AC0168E17DE084EC97E0A5DE9093C5079B
:103980008093C407E394012B51F68091180D909118
:10399000190D9093CA078093C907C95BDF4F0FB613
:1039A000F894DEBF0FBECDBFDF91CF911F910F9175
:1039B000FF90EF90DF90CF90089588E780BB87E875
:1039C00084B988E6809301018CEF81B984E283BBDE
:1039D0008CE78093040181E087B91092070193B1CD
:1039E00085B1892B85B908951F93CF93DF93D0E0DC
:1039F000C0E011E01CC086E39DE0F4D28D3061F49C
:103A0000E091BE06F0E0E05BFF4E1082C093BE0680
:103A1000C093BD06D12F0BC09091BE06E92FF0E0F8
:103A2000E05BFF4E80839F5F9093BE06DC2F86E3B2
:103A30009DE0CCD28111DFCF8D2FDF91CF911F91EF
:103A4000089580E590E10C943C010895DF92EF9297
:103A5000FF920F931F93CF93DF93D12C10E001E0DF
:103A6000C0E5D2E1FF24FA946894EE24E1F861C045
:103A700086E099E0B7D28F3F79F59881913779F157
:103A80009091BB06911103C00093BB0647C09130D3
:103A900071F4E091BC06F0E0E15BFD4E90819F3F48
:103AA00019F4E092BB063AC01093BB0637C09230BF
:103AB00001F52091BC0630E0F901E15BFD4E9081FB
:103AC0009F3F39F4F901E25BFD4E90819F3FB9F5CC
:103AD00014C01093BB0622C09881913751F4FE01A7
:103AE00001900020E9F73197E055F241349708F052
:103AF000F8829091BB06933089F4E091BC06F0E027
:103B0000E05BFD4E1082DF0111971C92329710820C
:103B10001093BC061093BB06D02E0BC09091BC0630
:103B2000E92FF0E0E05BFD4E80839F5F9093BC0641
:103B3000D12E86E099E04AD281119ACF07C0F901CF
:103B4000E25BFD4E90819F3F21F6E8CF8D2DDF9106
:103B5000CF911F910F91FF90EF90DF90089587ED27
:103B600094E00E94022D80E592E10E94022D8CECEF
:103B700095E00E94022DE0E5F2E16181808109CBB0
:103B800008950F931F93CF93DF9300E0C0E0D1E03F
:103B900012E049C08DEF97E025D28F3F21F590913B
:103BA000B906992319F0913009F046C0E091BA06A0
:103BB000F0E0EF5AFC4E90819F3FD9F51093B90683
:103BC0002091BA0630E0F901EF5AFC4E90819F3FF8
:103BD00039F4F901E05BFC4E90819F3F91F507C0FD
:103BE000C093B90615C09091B906933089F4E0915D
:103BF000BA06F0E0EE5AFC4E1082DF0111971C92DB
:103C000032971082C093BA06C093B9060D2F0BC02D
:103C10009091BA06E92FF0E0EE5AFC4E80839F5F48
:103C20009093BA060C2F8DEF97E0D0D18111B2CFCF
:103C300011C0C093B906D7CF9091B906923099F6CA
:103C4000BFCFE091BA06F0E0E05BFC4E90819F3F71
:103C500039F6DECF802FDF91CF911F910F9108951C
:103C600088EE94E00E94022D82E593E10E94022DED
:103C700080E595E00E94022D61E084E08ACA089503
:103C8000B3DE8111DEDEE2DE811169DF7ADF8111D0
:103C9000E7CF0895CF93DF9300D01F92CDB7DEB763
:103CA0008FEF89838A838B831C82CE0101960E94C9
:103CB000152D0F900F900F900F90DF91CF910895D9
:103CC000CF93DF9300D0CDB7DEB719821A821B8263
:103CD00090E04AE0BE016F5F7F4F01970E94BC30C9
:103CE00089EF94E00E94152DCE0101960E94152DBA
:103CF000D1DF0F900F900F90DF91CF910895CF9368
:103D0000DF93EB010E94152D8FEF94E00E94152D9B
:103D100085E095E00E94152DCE010E94152D85E0CD
:103D200095E00E94152DB6DFDF91CF910895CF93D6
:103D3000DF93EB010E94152D87E095E00E94152D81
:103D4000CE010E94152DA6DFDF91CF910895EF924D
:103D5000FF920F931F93CF93DF937C018B01EA01B6
:103D60008DE095E00E94152DC7010E94152D82E17E
:103D700095E00E94152DC8010E94152D82E195E065
:103D80000E94152DCE010E94152D84DFDF91CF9169
:103D90001F910F91FF90EF9008950F931F93CF9372
:103DA000DF93CDB7DEB764970FB6F894DEBF0FBED2
:103DB000CDBFBC018E010F5F1F4F84E1F80111924E
:103DC0008A95E9F7D8010D900020E9F7119795E061
:103DD000E4E1F5E001900D929A95E1F7C8010E94A7
:103DE0008330D8010D900020E9F7119785E0E9E1D3
:103DF000F5E001900D928A95E1F7C8010E94152D1A
:103E0000C8010E94022D46DF21DE8823E9F3A7DEE8
:103E1000809151128F3F09F480E064960FB6F894B8
:103E2000DEBF0FBECDBFDF91CF911F910F910895DF
:103E30000F931F93CF93DF93CDB7DEB764970FB681
:103E4000F894DEBF0FBECDBFBC018E010F5F1F4FC8
:103E500084E1F80111928A95E9F795E0EEE1F5E049
:103E6000D80101900D929A95E1F7C8010E94833024
:103E7000F80101900020E9F731978CE290E39183FB
:103E800080831282C8010E94152D04DF64960FB64C
:103E9000F894DEBF0FBECDBFDF91CF911F910F9180
:103EA0000895CF93DF93C82FD62F82E00E944E2C27
:103EB0008C2F880F8E770E94412C8D2F0E94412CD1
:103EC00082E00E94622CDF91CF9108951F93CF93DF
:103ED000DF9300D01F921F92CDB7DEB7182F82E07C
:103EE0000E944E2C812F880F8E7780680E94412C73
:103EF00080E00E94412C182F82E00E94622C4AE050
:103F0000BE016F5F7F4F812F90E00E94BC30CE01D9
:103F100001960E94022D8CEC95E00E94022D812FCB
:103F20000F900F900F900F900F90DF91CF911F91F6
:103F300008956FE081E0B5CF0895FBDF6DE88AE278
:103F4000B0DF6EE38BE2ADDF6EE18CE2AADF60E012
:103F50008DE2A7DF60E485E1A4DF6DE381E1A1DF0D
:103F600084E1B4DF982F937021F4682F636084E1BB
:103F700098DF87E3ABDF823949F483E295E00E9462
:103F8000022D85E395E00C94022D0895805982302E
:103F900048F481E495E00E94022D85E395E00C94BD
:103FA000022D089583E595E00C94022D0895FC01FF
:103FB000118210820895FC0190818181981720F070
:103FC000981B892F80950895891B0895FC012081F5
:103FD0009181291718F0822F891B0895892F821B40
:103FE00080950895CF93DF93EC01F0DF882359F09B
:103FF000898191E0980FFE01E80FF11D82819F3FBA
:1040000009F490E09983DF91CF9108950F931F9366
:10401000CF93DF93EC01162F0881CDDF8823F1F3D6
:10402000111101C01FEF81E0800FFE01E00FF11DB3
:1040300012838F3F09F480E0888381E0DF91CF9184
:104040001F910F910895FF920F931F93CF93DF93CA
:104050004423D9F0C42FD72FF62E8C01ACDF8C1758
:10406000F0F315C021E0290F3191D801A90FB11D3E
:1040700012963C932F3F11F4982F01C0922F41507C
:1040800088F7F801908381E00AC080E008C0F80159
:1040900090814FEF4C0FEF2DFD2F80E0E3CFDF91AC
:1040A000CF911F910F91FF900895CF92DF92EF92E1
:1040B000FF92A091080CB091090CC090E207D0903B
:1040C000E307E090E407F090E5079B01AC01225084
:1040D0003109410951090E94172F6C0D7D1D8E1D5C
:1040E0009F1DFF90EF90DF90CF9008954F925F92C9
:1040F0006F927F928F929F92AF92BF92CF92DF92F8
:10410000EF92FF920F931F93CF93DF93D42F280149
:1041100039014091300D5091310D4B015C01880CFB
:10412000991CAA1CBB1C880C991CAA1CBB1C2091A6
:10413000EC073091ED07C0900D0CD0900E0CE09084
:104140000F0CF090100CC40ED51EE11CF11C40E0C9
:1041500050E0C501B4010E94DE2EC20ED31EE41E43
:10416000F51E2091EC073091ED0740E050E0C501CD
:10417000B4010E94DE2E4B015C01CAE0C701B6010A
:104180000E94D82B882311F0C150C1F7F401E95FD8
:10419000F54FD11108C080819181A281B381BC010A
:1041A000CD019F700BC04082518262827382C70131
:1041B000B6010E94002C60E070E0CB01DF91CF914E
:1041C0001F910F91FF90EF90DF90CF90BF90AF9035
:1041D0009F908F907F906F905F904F900895CF92B7
:1041E000DF92EF92FF92CF93DF93D82FC62F690112
:1041F0007A0180910D0C90910E0CA0910F0CB09152
:10420000100CBC01CD016F5F7F4F8F4F9F4F0E94FD
:10421000D82B8091070A9091080AA091090AB091C1
:104220000A0A82359245A146B14409F058C08091EE
:10423000EB0B9091EC0BA091ED0BB091EE0B823754
:104240009247A144B14609F04EC08091030C909171
:10425000040CA091050CB091060C0097A545BA4A34
:1042600009F045C0C11114C0D13049F46091EF0B81
:104270007091F00B8091F10B9091F20B3BC060912B
:10428000F30B7091F40B8091F50B9091F60B32C00B
:10429000D13049F4C092EF0BD092F00BE092F10BC9
:1042A000F092F20B08C0C092F30BD092F40BE092A4
:1042B000F50BF092F60B80910D0C90910E0CA091E5
:1042C0000F0CB091100CBC01CD016F5F7F4F8F4F71
:1042D0009F4F0E94002C6FEF7FEFCB010BC06FEF61
:1042E0007FEFCB0107C06FEF7FEFCB0103C06FEF14
:1042F0007FEFCB01DF91CF91FF90EF90DF90CF90D8
:104300000895EF92FF920F931F93CF93DF93109234
:104310000D0C10920E0C10920F0C1092100C60E00D
:1043200070E0CB010E94D82B8091070A8D7F893ED7
:1043300001F18091050C9091060C85359A4A09F09F
:1043400096C06091CD0B7091CE0B8091CF0B909168
:10435000D00B60930D0C70930E0C80930F0C909308
:10436000100C0E94D82B8091070A8D7F893E09F09E
:1043700080C0E7E0FAE0838594859093ED07809311
:10438000EC07858590E09093090C8093080CC68516
:10439000D785D093310DC093300D84A595A5A6A5E2
:1043A000B7A58093F8079093F907A093FA07B09305
:1043B000FB070091300D1091310DA08924A135A18A
:1043C00046A157A1B0E00E94172FAB01BC01848D1C
:1043D000958DA68DB78D800F911FA11DB11D840FE6
:1043E000951FA61FB71F8093E2079093E307A09342
:1043F000E407B093E5072091080C3091090C80A1E7
:1044000091A1A2A1B3A18C1B9D0BA109B1097C01B3
:104410008D01E41AF50A060B170BC801B70140E03D
:1044200050E00E94DE2E2093EE073093EF0740937A
:10443000F0075093F10720E030E0A90160E081E04F
:10444000CEDE0091EE071091EF072091F00730913A
:10445000F107061717072807390720F410924410B0
:1044600080E008C081E08093441080E003C081E0D8
:1044700001C081E0DF91CF911F910F91FF90EF90EC
:104480000895CF93DF93CDB7DEB72B970FB6F8948F
:10449000DEBF0FBECDBFBC01DC018C918E3261F15D
:1044A000FB01319691E081918E3221F09F5F9C302B
:1044B000D1F706C0993020F4911108C0292F1EC0F1
:1044C00085E895E00E94022D81E062C0FB019E011B
:1044D0002F5F3F4F4FEF490F50E04F5F5F4F460F49
:1044E000571F8191D9018D939D014E175F07C9F721
:1044F000983078F4292F02C090E020E080E2E1E0DB
:10450000F0E0EC0FFD1FE20FF11D80832F5F2830DC
:10451000B0F321E0290F98E0FB01E20FF11D80814B
:10452000811103C09B3050F015C02F5FE1E0F0E037
:10453000EC0FFD1FE90FF11D80830CC020E2E1E0CC
:10454000F0E0EC0FFD1FE90FF11D20839F5F9B3012
:10455000B1F703C09F5F9B30F8F29E012F5F3F4F82
:10456000AE01445F5F4FF90180819FE9980F9A3156
:1045700010F48052808331964E175F07A9F7FB0134
:10458000D9018D919D018193A417B507C9F780E0EA
:104590002B960FB6F894DEBF0FBECDBFDF91CF9143
:1045A00008954F925F926F927F928F929F92AF92F7
:1045B000BF92CF92DF92EF92FF92CF93DF936B0186
:1045C0007C0120E8C2228091EE079091EF07A09134
:1045D000F007B091F107C816D906EA06FB0608F005
:1045E00070C046015701880C991CAA1CBB1C880C82
:1045F000991CAA1CBB1CC7E0DAE04091300D509119
:10460000310D8091EC079091ED0740900D0C50908A
:104610000E0C60900F0C7090100C440E551E611C17
:10462000711C9C0140E050E0C501B4010E94DE2EE7
:10463000C301B201620F731F841F951F0E94D82B04
:1046400088819981AA81BB81BF70892B8A2B8B2B92
:1046500099F021E0E22FF0E0EE0FFF1FEE0FFF1FB9
:10466000E95FF54F80819181A281B381BF70892B71
:104670008A2B8B2B49F401C020E0C701B601620FE1
:10468000711D811D911D20C02F5F22F780E8C80E8B
:10469000D11CE11CF11C8091EE079091EF07A091D5
:1046A000F007B091F10722E0920EA11CB11CC816D0
:1046B000D906EA06FB0608F4A0CF60E070E0CB0163
:1046C00003C060E070E0CB01DF91CF91FF90EF90ED
:1046D000DF90CF90BF90AF909F908F907F906F9022
:1046E0005F904F9008958F929F92AF92BF92DF920A
:1046F000EF92FF920F931F93CF93DF93CDB7DEB767
:1047000064970FB6F894DEBF0FBECDBFD82ECB0195
:10471000BA0124E1E8E9F5E0DE01119601900D927D
:104720002A95E1F71CE00CE20F2EFAE08F2E912C77
:10473000A12CB12CF02D153011F0193029F4FE0107
:10474000E10FF11D008311507E01E10EF11CA50166
:1047500094010E94DE2E6063F7016083622F732F45
:10476000842F952F611571058105910511F0115068
:1047700011F7F1E0DF1202C08BE48E87CE010196C3
:104780000E94A02E64960FB6F894DEBF0FBECDBF78
:10479000DF91CF911F910F91FF90EF90DF90BF902D
:1047A000AF909F908F900895CF92DF92EF92FF92FB
:1047B000CF936A017B0191E0D922EE24FF24CD281A
:1047C000CE28CF2851F4032E39E07695679557957A
:1047D00047953A95D1F7302D0DC0032E39E07695E7
:1047E0006795579547953A95D1F7302D4F5F5F4FB5
:1047F0006F4F7F4F6A017B0197E0C922DD24EE24D1
:10480000FF24CD28CE28CF2859F46A017B01689473
:1048100012F8F694E794D794C7941694D1F70FC082
:10482000689412F876956795579547951694D1F741
:104830006A017B019FEFC91AD90AE90AF90A909126
:1048400044109923C9F0C82F20E030E0A90160E0AE
:1048500081E0C5DCC11107C0A7019601260F371FF3
:10486000481F591F06C09B01AC012C193D094E0978
:104870005F0961E081E0B3DCCF91FF90EF90DF90C2
:10488000CF9008952F923F924F925F926F927F92B6
:104890008F929F92AF92BF92CF92DF92EF92FF9250
:1048A0000F931F93CF93DF93CDB7DEB72C970FB63F
:1048B000F894DEBF0FBECDBF8E831B018091F80739
:1048C0009091F907A091FA07B091FB078F83988721
:1048D000A987BA879E81915099830F2EF2EDCF2E32
:1048E000F5E0DF2EF02D6F81788589859A85DDDBF7
:1048F0004B015C018091080C9091090C892B09F403
:104900006BC1412C512C3201D501C401840D951D80
:10491000A61DB71D8A839B83AC83BD83BC01CD01DB
:1049200047D78091EC079091ED07892B09F443C19B
:10493000A7E0BAE08C91882351F08D01E12CF12C95
:1049400012C0005E1F4FF801808181110CC08E8162
:104950008150823008F05FC187ED95E00E94022D02
:1049600080E090E05DC1853E09F41AC1D8011B9634
:104970008C918F3009F414C1B981B23008F0C7C0EE
:10498000F8019081D1018C9198130AC1D801119638
:10499000F101319681E02D919191291304C08F5F2F
:1049A0008B30C9F703C08B3009F0FAC0BE81B1303B
:1049B00009F041C08A819B81AC81BD818093471001
:1049C00090934810A0934910B0934A10C701A0E0FB
:1049D000B0E08093CD079093CE07A093CF07B0931C
:1049E000D007D80154968D919C915597A0E0B0E0E6
:1049F000DC0199278827F801428D538D60E070E033
:104A0000842B952BA62BB72B80933A0F90933B0FBB
:104A1000A0933C0FB0933D0F848D958DA68DB78DDF
:104A20008093E8079093E907A093EA07B093EB0718
:104A3000802F912FF5C08DE00E94982E8AE00E9471
:104A4000982E8CED95E0DED78DE00E94982E8AE0BE
:104A50000E94982E8DE00E94982E8AE00E94982E47
:104A6000D8015496CD90DC905597E12CF12CD601CD
:104A700099278827F801C28CD38CE12CF12CC82A05
:104A8000D92AEA2AFB2A85EE80836A817B818C8180
:104A90009D81B6D6D8015C964D915D916D917C91CA
:104AA0005F9780E081DE20E030E0A90160E082E0F5
:104AB00096DBC616D706E806F90628F4A701960184
:104AC00061E082E08CDB00E010E0980140E0C7018B
:104AD000B6010CDBA62EB72E8A83998300E010E086
:104AE000980141E0C701B60101DBCA2CDB2CEA804A
:104AF000F980B7EFCB16BFEFDB06EB06BFE0FB0696
:104B000010F387EE95E07ED780E090E089C08DE0DD
:104B10000E94982E8AE00E94982EE1E01B86EC8786
:104B200006C02B852F5F2B873C853F5F3C878B859D
:104B3000883059F480E20E94982EF8019B85E90F95
:104B4000F11D80810E94982EECCFF801AB85EA0F11
:104B5000F11D80810E94982EBC85BB3010F385EF3B
:104B600095E050D7F8018385803191F08830A9F025
:104B700089EF95E047D785EF95E044D7D8015C965B
:104B80004D915D916D917C915F9780E0ACDD08C0A7
:104B9000EEECF5E08E2F9F2F02C08C2D9D2D32D78D
:104BA000F0E2EF0EF11C8091EC079091ED07E81612
:104BB000F90608F4C6CE2FEF421A520A620A720AA8
:104BC0008091080C9091090CA0E0B0E048165906BD
:104BD0006A067B0608F498CE00E010E0980140E0F9
:104BE0006F81788589859A8581DA6F83788789874F
:104BF0009A87673F3FEF730783073FE0930770F49F
:104C0000672B682B692B09F06ECE8EEF95E0FAD6F4
:104C100080E090E005C080E090E002C080E090E09D
:104C20002C960FB6F894DEBF0FBECDBFDF91CF91AB
:104C30001F910F91FF90EF90DF90CF90BF90AF90BA
:104C40009F908F907F906F905F904F903F902F90AC
:104C500008954F925F926F927F928F929F92AF9240
:104C6000BF92CF92DF92EF92FF920F931F93CF9359
:104C7000DF93CDB7DEB729970FB6F894DEBF0FBE2E
:104C8000CDBF89837B01CB01FCDB811190C0B701D3
:104C900081E0F8DDFC01892B09F48BC0098101302A
:104CA00009F489C04489558960E070E0BA0155274C
:104CB0004427828D938DA0E0B0E08A019B01082BF0
:104CC000192B2A2B3B2B0D831E832F833887448C73
:104CD000558C668C778C00000000C12CD12C76019D
:104CE000530142011FEF811A910AA10AB10A6D8195
:104CF0007E818F819885D9D969837A838B839C83C0
:104D00008091080C9091090C892BD1F11986698149
:104D10007A818B819C810985600F711D811D911D98
:104D200047D5C414D504E604F70408F046C0B7011B
:104D3000A6014F5F5D4F6F4F7F4F12E0C10ED11C38
:104D4000E11CF11C02C06C017D018C149D04AE04B9
:104D5000BF04A9F1D701C6010196A11DB11D4817D5
:104D600059076A077B0779F709850F5F09878091E3
:104D7000080C9091090C202F30E02817390738F2E1
:104D800000E010E0980140E06D817E818F81988580
:104D9000ADD96D837E838F839887672B682B692BB2
:104DA00009F0A5CF8EEF95E02DD680E009C082E016
:104DB00007C080E005C081E003C080E001C080E062
:104DC00029960FB6F894DEBF0FBECDBFDF91CF910D
:104DD0001F910F91FF90EF90DF90CF90BF90AF9019
:104DE0009F908F907F906F905F904F900895CF939A
:104DF000DF93EC0146DB811103C0BE0182E042DD9E
:104E0000DF91CF9108952F923F924F925F926F92D0
:104E10007F928F929F92AF92BF92CF92DF92EF924A
:104E2000FF920F931F93CF93DF93CDB7DEB76797B2
:104E30000FB6F894DEBF0FBECDBF98878F835B019E
:104E4000BC0181E006DF813009F04EC087E196E0C9
:104E5000D9D540903A0F50903B0F60903C0F709026
:104E60003D0FC12CD12C760100E010E0980140E00C
:104E7000C301B2013BD96F3F2FEF720782072FE0CA
:104E8000920741F03FEFC31AD30AE30AF30A2B015A
:104E90003C01EACF2091080C3091090CA091EC075D
:104EA000B091ED07E091EC07F091ED07B1D79B01D0
:104EB000AC01C701B60173D70091E8071091E9076B
:104EC0002091EA073091EB0768017901C61AD70AE9
:104ED000E80AF90AC701B6019F0140E050E06ED729
:104EE000298721E0298B48C0823009F465C38DE011
:104EF0001FD78AE01DD781E496E084D520E030E01A
:104F0000A90160E082E06BD90091EE071091EF07F4
:104F10002091F0073091F107061717072807390786
:104F200040F46091F8077091F9078091FA07909129
:104F3000FB0737DB2B013C016115710581059105EC
:104F400041F48DE0F5D68AE0F3D682E596E05AD5B5
:104F500033C30FEF1FEF2FEF3FE041E0C7D87B8A4D
:104F60006A8A5D8A4C8A1092E8071092E9071092CB
:104F7000EA071092EB07198A8989212CD984CD2C54
:104F8000D12CE12CF12CCD86DE86EF86F88A312CEF
:104F900021E02B83BA82A982882379F1C301B2016F
:104FA00084D8CD84DE84EF84F888C60ED71EE81E30
:104FB000F91EC092FE08D092FF08E0920009F0921C
:104FC00001096091FE087091FF088091000990919D
:104FD0000109EED32091EC073091ED0740E050E05D
:104FE0006091E8077091E9078091EA079091EB07DB
:104FF000E5D67F8B6E8B09850EC0C301B20155D8F3
:105000006093FE087093FF08809300099093010954
:105010001F8A1E8A00E08DE08BD68AE089D684E65E
:1050200096E0F0D4812C912C5401FF24F3942F109E
:1050300021C08AE07DD6EE89FF89E95FF54F8AE0DD
:1050400080838091E8079091E907A091EA07B091E9
:10505000EB070196A11DB11D8093E8079093E90726
:10506000A093EA07B093EB072E893F892F5F3F4F4C
:105070003F8B2E8BE981FA81E80DF91D10811830E4
:1050800029F5CE88DF88C114D10409F474C288E000
:105090004FD680E24DD688E04BD69601215031099B
:1050A0003F8B2E8B8091E8079091E907A091EA074A
:1050B000B091EB070197A109B1098093E80790939C
:1050C000E907A093EA07B093EB0755C2812F30D6CA
:1050D000EE88FF883FEFE31AF30AEE89FF89E95F64
:1050E000F54F10838091E8079091E907A091EA07B6
:1050F000B091EB070196A11DB11D8093E807909335
:10510000E907A093EA07B093EB071D3059F5E114C6
:1051100042E0F40669F18AE00BD68E899F890296F7
:105120009F8B8E8BF701E95FF54F8AE0808380913A
:10513000E8079091E907A091EA07B091EB07019683
:10514000A11DB11D8093E8079093E907A093EA079A
:10515000B093EB07CE88DF88C11422E0D20608F4B2
:1051600010C208C0E11432E0F30670F1232C03C032
:105170002B8001C0232C6091FE087091FF08809164
:105180000009909101093CD30F5F8091080C909128
:10519000090C202F30E02817390711F18091FE0803
:1051A0009091FF08A0910009B09101090196A11DFD
:1051B000B11D8093FE089093FF08A0930009B0935F
:1051C00001091F8A1E8A03C0FF8AEE8A232C4FEF33
:1051D000841A940AA40AB40A1E3709F026CF04C020
:1051E0001E3709F03FC0D4C1CE88DF888091E80720
:1051F0009091E907A091EA07B091EB070197A10907
:10520000B1098093E8079093E907A093EA07B09368
:10521000EB079601215031093A8329832115324049
:1052200068F4E981FA81E95FF54F108289819A81FA
:1052300001969A8389838115924099F76091FE08BF
:105240007091FF088091000990910109D9D2A301C2
:10525000920161E082E00E94EF20C988CC2009F42D
:1052600065C026C0C301B2019CD96B017C016115E8
:1052700071058105910541F48DE05AD58AE058D534
:1052800082E596E0BFD398C18B019C0141E0C30148
:10529000B2010E9476200FEF1FEF2FEF3FE041E0B9
:1052A000C701B6010E94762080E02601370174CE46
:1052B00060914710709148108091491090914A1068
:1052C00077D2E091CD07F091CE07E95FF54F80915D
:1052D000E8079091E907A091EA07B091EB07448DA8
:1052E000558D668D778D6C017D01C41AD50AE60A4D
:1052F000F70A848F958FA68FB78F609147107091B2
:1053000048108091491090914A107AD2B701A601B5
:1053100081E04ADA8DE00CD58AE00AD58EE796E086
:1053200071D38DE005D58AE003D546C1C090F8075A
:10533000D090F907E090FA07F090FB07CB82DC826F
:10534000ED82FE8219822F813885255F3F4F689458
:10535000662465F80F2EF4E82F2EF6E93F2EF02D87
:105360000F2EF7E34F2EFAE35F2EF02DEA88FB882D
:10537000CC88DD883E872D876B817C818D819E81E5
:105380000E94552069877A878B879C878091080CBB
:105390009091090C892B09F49FC0712C89849A84FF
:1053A000AB84BC84870C911CA11CB11CC501B40149
:1053B000FFD18091EC079091ED07892B09F481C012
:1053C0005981511107C087E09AE000E010E006C063
:1053D000809604C0E7E0FAE01082EEC0FC01208174
:1053E000222319F0253E09F062C0EF81F885DC0127
:1053F00021912D934D855E854E175F07C9F7DC011E
:105400001B966C921B971C961C921C971D961C92C7
:105410001D971F963C922E921E9751965C924E922B
:10542000509753965C924E92529757963C922E927A
:10543000569759965C924E9258975596FC92EE92DA
:1054400054975B96DC92CE925A974091E807509120
:10545000E9076091EA077091EB07FC01448F558FD3
:10546000668F778FC501B401CBD18DE061D48AE01E
:105470005FD48DE05DD48AE05BD48EE896E0C2D242
:105480004091E8075091E9076091EA077091EB07B6
:1054900081E08AD9005E1F4F8091EC079091ED0763
:1054A0000817190708F469C0F1E0F9830AC0005E23
:1054B0001F4F2091EC073091ED070217130708F4F6
:1054C00087CF73948091080C9091090C272D30E0C0
:1054D0002817390708F462CF00E010E0980140E097
:1054E0006B817C818D819E810E947620673F5FEF7A
:1054F000750785075FE0950768F16F3F7F4F8F4F16
:105500009F4021F56B817C818D819E814AD8862EBA
:10551000972EA82EB92E062F172F282F392F41E0AE
:105520006B817C818D819E810E9476200FEF1FEF21
:105530002FEF3FE041E0682D792D8A2D9B2D0E94B1
:1055400076208B829C82AD82BE8208C08DE996E077
:1055500059D232C06B837C838D839E832B813C81A7
:105560004D815E81232B242B252B09F005CF8EEF57
:1055700095E048D221C0232C58CDF801E95FF54FC2
:105580002BCF3FEF831A930AA30AB30A232C4DCDE6
:105590008091E8079091E907A091EA07B091EB07A5
:1055A0000197A109B1098093E8079093E907A093B7
:1055B000EA07B093EB0742CE67960FB6F894DEBFCA
:1055C0000FBECDBFDF91CF911F910F91FF90EF9054
:1055D000DF90CF90BF90AF909F908F907F906F9013
:1055E0005F904F903F902F900895CF92DF92EF926F
:1055F000FF921F93CF93DF93182F6A017B01809155
:10560000120D811115C08FEE810F823040F088EEAF
:10561000810F823020F080EE810F823048F40B2E13
:10562000B9E0CC0CDD1CEE1CFF1CBA95D1F7B02DF7
:10563000A598812F806425D18F2D23D18E2D21D146
:105640008D2D1FD18C2D1DD1183019F487E819D15B
:1056500006C085E916D103C0C15011F415C0C0E0E1
:1056600016D1D82F8F3FC1F381110EC01A3361F4C8
:105670000ED186FF04C081E08093120D02C010920B
:10568000120D05D104D103D102D1A59A8D2FDF913E
:10569000CF911F91FF90EF90DF90CF9008950F93DF
:1056A0001F93CF93DF931AE08FEFEBD01150E1F708
:1056B000A59840E050E0BA0180E097DFC0E2D0E07A
:1056C00008C040E050E0BA0180E08FDF219709F484
:1056D0005FC08130B1F7A59A8FEFD3D08FEFD1D0D3
:1056E0004AEA51E060E070E088E07FDFCEEFD0E092
:1056F0000EC04AEA51E060E070E088E076DF219772
:1057000031F4000081E080933F0F01E003C081305D
:1057100081F702E040E050E0BA0187E366DF40E055
:1057200050E060E070E489E260DFCEEFD0E010C0CE
:1057300040E050E0BA0187E358DF40E050E060E02D
:1057400070E489E252DF219719F4000012E02AC0C8
:105750008111EECF1092120D023021F51BC040E0F6
:1057600050E0BA018AE341DF219721F40000109252
:105770003F0F02C08111F3CF8091120D813021F4CF
:1057800082E080933F0F0EC083E080933F0F0AC0FA
:1057900011E008C040E050E0BA018AE326DFCEEF16
:1057A000D0E0E8CF812FDF91CF911F910F91089525
:1057B000CF93DF93AB01BC0181E117DF81111DC0E5
:1057C000A598C0E0D0E005C0219719F4A59A81E022
:1057D00014C05DD08E3FC1F7C0E0D0E058D0FE01CC
:1057E000E95FF54F80832196C11582E0D807B1F7B4
:1057F0004ED04DD04CD0A59A80E0DF91CF91089546
:10580000CF93DF93AB01BC0188E1EFDE811136C09D
:10581000A5988EEF36D0C0E0D0E0FE01E95FF54FED
:1058200080812FD02196C11522E0D207B1F78FEFEA
:1058300028D08FEF26D02BD0982F9F71953039F03C
:10584000A59A1CC0219629F4A59A81E017C0C0E052
:10585000D0E01DD08823B1F3A59A8FEF12D0A59880
:1058600008C0CE010196219619F4A59A81E006C0E0
:10587000EC010DD08823A9F3A59A80E0DF91CF91A8
:1058800008958EBD0DB407FEFDCF8EB508958FEF40
:105890008EBD0DB407FEFDCF8EB50895813041F069
:1058A00028F0823059F0833059F0089528980895EF
:1058B000E2E0F1E080818F7B808308954098089535
:1058C000A5980895813041F028F0823059F0833056
:1058D00059F00895289A0895E2E0F1E0808180640B
:1058E00080830895409A0895A59A089583E58CBD14
:1058F0001DBC80E0E7DF81E0E5DF82E0E3CF0895D3
:10590000000000000895CF92DF92EF92FF920F9374
:105910001F93CF93DF931092C50027E62093C40016
:105920000F2EF1ECCF2ED12CF02D98E1F6019083C3
:1059300086E08093C2001092CD002093CC000F2E01
:10594000F9ECEF2EF12CF02DF70190838093CA0033
:105950001092D5002093D40001ED10E0F80190835F
:105960008093D2001092350120933401C1E3D1E03D
:1059700098838093320181EC96E00E94D71F86E3E2
:105980009DE00E94D71F86E099E00E94D71F87E321
:105990009EE00E94D71F8DEF97E00E94D71F81E104
:1059A0009CE00E94D71F81E49FE00E94D71FF60170
:1059B000808180688083F701808180688083F8011E
:1059C000808180688083888180688883789480E87B
:1059D0009CE290934E1080934D109093E707809334
:1059E000E60790930B0C80930A0C9093330D8093F1
:1059F000320DDF91CF911F910F91FF90EF90DF90CB
:105A0000CF900895FC0101900020E9F73197AF0194
:105A1000481B590BBC0181EC96E00E942320E1EC6D
:105A2000F0E08081806280830895CF93DF93FC0152
:105A30002081222369F0DC011196E8ECF0E0CEEC45
:105A4000D0E0908195FFFDCF28832D912111F9CFD2
:105A5000DF91CF9108951F920F920FB60F921124EC
:105A60000BB60F922F933F934F935F936F937F9358
:105A70008F939F93AF93BF93EF93FF9381EC96E047
:105A80000E94E61F882339F081EC96E00E94F21F05
:105A90008093C6000CC0E1ECF0E080818F7D8083B4
:105AA000E0914D10F0914E10309709F01995FF914B
:105AB000EF91BF91AF919F918F917F916F915F9186
:105AC0004F913F912F910F900BBE0F900FBE0F90F3
:105AD0001F9018951F920F920FB60F9211240BB6BC
