:1000000017C1000036C1000034C1000032C1000039
:1000100030C100002EC100002CC100002AC1000028
:1000200028C1000026C1000024C1000022C1000038
:1000300020C100001EC100001CC100001AC1000048
:1000400018C1000016C1000014C1000012C1000058
:1000500010C100000EC100000CC100000AC1000068
:1000600008C100000C9420270C94E12602C1000076
:1000700000C10000FEC00000FCC00000FAC000008B
:10008000F8C00000F6C00000F4C00000F2C000009C
:100090000C948B270C944C27ECC00000EAC00000A5
:1000A000E8C00000E6C00000E4C00000E2C00000BC
:1000B000E0C00000DEC00000DCC00000DAC00000CC
:1000C000D8C00000D6C00000D4C000000C94F627B1
:1000D0000C94B727CEC000000C9461280C94222801
:1000E000C8C0000013021502170219021B021D02EC
:1000F0001F02210227022D02330239024A024C025A
:100100004E02500252025402560258025E0264022B
:100110006A0270028102840288028C0290029402B8
:1001200098029C02A002A402A802AB02A90BBC0B7D
:10013000EE0BF80B2A0C330C370C780C9C0CA50C2E
:10014000AE0CB70CC00CC90CD20CDB0CE40CF30CDD
:10015000730D7C0D9A0D9E0DA20DA90DAD0DC10D57
:10016000C40DC70DCA0DCD0DD00DD30DD60DD90DB3
:10017000E80D040E140E240E2C0E4F0E530E570EC7
:100180005B0ECD0EE60EFF0E180F310F4A0F630FF8
:100190007C0F950FAE0FC70FE00FF90F12102B1049
:1001A00044105D1076108F10A810C110DA10F310F3
:1001B0000C1125113E119E11571161117B118311F4
:1001C000BC12C512CE12D712E012E912F212FB12C3
:1001D00004130D1316131F13281338133F1346135C
:1001E0004D1354135B136213721382138513CB13D5
:1001F000D413DD13E613EF13F813011411142114B3
:100200007114751478147B147E14B0148114841442
:1002100087148A148D1490149314B014B014961487
:1002200099149C149F14A214A514A814AB14AE1412
:1002300011241FBECFEFD1E2DEBFCDBF00E00CBF67
:1002400017E0A0E0B2E0E0EEF5E500E00BBF02C091
:1002500007900D92A83AB107D9F726E1A8EAB7E0CE
:1002600001C01D92A634B207E1F70E94A3280C94A6
:10027000EE2AC6CE0E94B8268CE496E00C94B826EE
:100280000895CF92DF92EF92FF920F931F93CF9337
:10029000DF93CDB7DEB769970FB6F894DEBF0FBE18
:1002A000CDBFF82EFE0131968FE0DF011D928A95B9
:1002B000E9F70F2D10E080912B12A801480F511D76
:1002C00041505109A0913312B091341280E090E076
:1002D00020E04817590741F01496ED91FC911597CD
:1002E000E80FF91F3081230F01968C30910589F7B3
:1002F00084E6E82EE21A87E0E6E2F3E0DE011196FA
:1003000001900D928A95E1F74AE0BE01605F7F4F50
:10031000C8010E94B32ABE01605F7F4FCE010196E3
:100320000E947A2A60E474E1CE0101960E94A71827
:100330008E1508F4E82EE0913312F091341280917A
:100340002B120480F581E02DE80FF11DEF0DF11D5A
:10035000E082F12C6E01B0E1CB0ED11C4AE0B60177
:10036000C7010E94B32AF60101900020E9F73197F6
:1003700085E290E09183808386E0EDE2F3E0DE01A8
:10038000119601900D928A95E1F74AE0BE016B5EED
:100390007F4FC8010E94B32ABE016B5E7F4FCE0122
:1003A00001960E947A2AB601CE0101960E94591840
:1003B0004AE0B601C7010E94B32A87E0E6E2F3E013
:1003C000DE01119601900D928A95E1F74AE0BE0197
:1003D0006B5E7F4FC8010E94B32ABE016B5E7F4FE8
:1003E000CE0101960E947A2AB601CE0101960E94A2
:1003F000711869960FB6F894DEBF0FBECDBFDF91BE
:10040000CF911F910F91FF90EF90DF90CF900895C3
:1004100090E08C30910590F5FC018827EE58FF4F55
:100420008F4F0C94F728129A0895139A0895149AEE
:100430000895159A0895169A0895179A0895A29AFC
:100440000895E5E0F1E08081806480830895E5E02F
:10045000F1E08081806280830895E5E0F1E08081B1
:10046000806180830895E5E0F1E080818860808389
:100470000895E5E0F1E0808184608083089590E054
:100480008C30910590F5FC018827E258FF4F8F4F83
:100490000C94F728129808951398089514980895C5
:1004A000159808951698089517980895A298089594
:1004B000E5E0F1E080818F7B80830895E5E0F1E065
:1004C00080818F7D80830895E5E0F1E080818F7EDB
:1004D00080830895E5E0F1E08081877F808308953F
:1004E000E5E0F1E080818B7F8083089590E08C309F
:1004F0009105A0F5FC018827E657FF4F8F4F0C941C
:10050000F7288FB180780895809106018170089551
:10051000809106018270089580910601847008958B
:100520008091060188700895809106018071089578
:10053000809106018072089580910601807408956B
:100540008091060180780895809103018078089554
:1005500080B18170089580B18270089580E008951F
:100560007F928F929F92AF92BF92CF92DF92EF9243
:10057000FF920F931F93CF93DF93CDB7DEB7C45491
:10058000D1090FB6F894DEBF0FBECDBF5C018091DC
:10059000E5099091E609909336128093351295E122
:1005A000FE013196DF01292F1D922A95E9F77596F4
:1005B000DF01292F1D922A95E9F77596DF011D921B
:1005C0009A95E9F7759685E0DF011D928A95E9F71E
:1005D000C0902B120C2D10E0C801049608171907C3
:1005E0000CF0D7C06801C8017F010F2EF5E28F2EF5
:1005F000912CF02D772473949801281B390BC90195
:100600004AE0B70101960E94B32AB501CE010196D6
:100610000E94852AB701CE0101960E947A2A87E0BE
:10062000E6E2F3E0DE01569601900D928A95E1F73D
:10063000B701CE0146960E947A2A86E0EDE2F3E009
:10064000DE019B9601900D928A95E1F7B701CE01EC
:100650008B960E947A2AE0913512F091361203802F
:10066000F481E02D828190E080179107C1F7F0932B
:100670003612E0933512A091E509B091E609129681
:100680008C9190E08017910769F58091EB098111B9
:100690002DC07092EB0960817181CE0101960E949C
:1006A0005918E0913312F09134120480F581E02D55
:1006B000EC0DFD1D80814AE0B70190E00E94B32A55
:1006C000B701CE0146960E947118F70101900020F3
:1006D000E9F7319791828082B701CE018B960E9413
:1006E000591837C08091EB09882369F06EE476E0F1
:1006F000CE0101960E94591867E074E0CE0146963B
:100700000E94711826C060817181CE0101960E94FD
:100710005918E0913312F09134120480F581E02DE4
:10072000EC0DFD1D80814AE0B70190E00E94B32AE4
:10073000B701CE0146960E947118F7010190002082
:10074000E9F7319791828082B701CE018B960E94A2
:100750005918E0912912F0912A12828190E08017B5
:10076000910711F47092F80D8FE39CE90197F1F76E
:1007700000C000000F5F1F4F80912B1290E0AFEF81
:10078000CA1ADA0A9C012C5F3F4F021713070CF4B8
:1007900033CFCC5BDF4F0FB6F894DEBF0FBECDBFBB
:1007A000DF91CF911F910F91FF90EF90DF90CF904D
:1007B000BF90AF909F908F907F9008950F931F935D
:1007C000CF93DF9300D01F92CDB7DEB78C0181E0CD
:1007D0000E943A18F8016081718183E393E00E94DE
:1007E0005918F80186814AE0BE016F5F7F4F90E0A3
:1007F0000E94B32AAE014F5F5F4F60E473E083E471
:1008000093E00E9481188091BB09813059F018F063
:10081000823079F014C067E473E083E593E00E94CE
:1008200059180DC061E673E083E593E00E94591802
:1008300006C06DE673E083E593E00E9459180F90BF
:100840000F900F900F90DF91CF911F910F9108950E
:100850002F923F924F925F926F927F928F929F92D0
:10086000AF92BF92CF92DF92EF92FF920F931F93BE
:10087000CF93DF93CDB7DEB7CC54D1090FB6F89440
:10088000DEBF0FBECDBF2B966CAF7DAF8EAF9FAFDF
:100890002B97CE0101966C0100E010E00F2EF5E0E1
:1008A0008F2EF02DFE01FB962796FFAFEEAF279718
:1008B00026969FAC26972796AFAC2797212CE091E0
:1008C0003312F09134120480F581E02DE00FF11F16
:1008D0008081882309F40FC180912D1281110BC1F1
:1008E0004AE0BE01605C7F4F808191810E94B32A03
:1008F000CE01805C9F4F0E94B8268CEB95E00E9451
:10090000B82680E3E6E0F2E0DE01119601900D9258
:100910008A95E1F7F60140805180628073804AE059
:10092000BE016F5C7F4FC2010E94B32ACE01C19607
:100930000E94B8268CEB95E00E94B826E091331215
:10094000F091341284819581FC01E00FF11FB08099
:10095000A30192012B966CAD7DAD8EAD9FAD2B9713
:100960000E94C6289B01AC01AB2DB0E00E940E296D
:1009700024E630E040E050E00E94D528E22EF32E3D
:10098000422E532E642E752E4AE0BE016F5C7F4FBF
:100990008B2D90E00E94B32ACE01C1960E94B8260A
:1009A0008CEB95E00E94B8264AE0BE016F5C7F4F59
:1009B00029968EAD9FAD29970E94B32ACE01C1968C
:1009C0000E94B8268CEB95E00E94B8264AE0BE0152
:1009D0006F5C7F4F8E2D9F2D0E94B32ACE01C19652
:1009E0000E94B8268CEB95E00E94B826302E802F0E
:1009F0007DDD802F0DDDBB24B3942D961FAF0EAF90
:100A00002D97832D73DDE82E1091AE0711116BC069
:100A1000882309F468C08091AA079091AB07A09140
:100A2000AC07B091AD07AC01BD014F5F5F4F6F4F99
:100A30007F4F4093AA075093AB076093AC07709326
:100A4000AD07481659066A067B0658F4832D17DD54
:100A50001092AA071092AB071092AC071092AD0744
:100A6000B22C2796EEADFFAD2797282D11922A952F
:100A7000E9F74AE0692D7A2DEAEAF7E08081918171
:100A80000E94B32A892D9A2D0E94B8268CEB95E0FE
:100A90000E94B8260E940017882329F10E94891716
:100AA00080912D128130F9F4812FE9DC1F5F1C3019
:100AB000D9F78EE00E943A18FFEF27EA81E6F1505D
:100AC00020408040E1F700C00000809133129091F7
:100AD000341274DE1092AA071092AB071092AC0782
:100AE0001092AD07B22CE092AE07B1108ACF2D96CE
:100AF0000EAD1FAD2D970F5F1F4F94E0C90ED11C97
:100B00000C30110509F0DBCE10922D12C45BDF4FC3
:100B10000FB6F894DEBF0FBECDBFDF91CF911F910E
:100B20000F91FF90EF90DF90CF90BF90AF909F908C
:100B30008F907F906F905F904F903F902F9008958F
:100B4000CF92DF92EF92FF926B017C0185E00E94D1
:100B50003A1862E773E083EA93E00E9459182FEF96
:100B600083ED90E3215080409040E1F700C0000009
:100B7000C701B6016DDE86E00E943A182FEF87EAC2
:100B800091E6215080409040E1F700C0000081E0F4
:100B90000E943A1880913312909134120FDEFF9028
:100BA000EF90DF90CF9008952F923F924F925F92F7
:100BB0006F927F928F929F92AF92BF92CF92DF926D
:100BC000EF92FF920F931F93CF93DF93CDB7DEB7D2
:100BD000C450D2400FB6F894DEBF0FBECDBF2C017B
:100BE0000091E5091091E609FE01319680E092E05E
:100BF000DF019C011D9221503040E1F7CF5FDD4FB6
:100C0000188219821A821B82C150D240E12CF12C29
:100C10006F010F2EF4E1AF2EB12CF02D0F2EFDE25F
:100C20008F2E912CF02D0F2EF8E22F2E312CF02D3F
:100C3000D80113960D911C911497F801828190E0D0
:100C40008E159F05A9F7D20114966D907C9015978B
:100C50006E0C7F1CF3018081882309F44BC0D801FE
:100C60006D917C91C6010E947A2A80E090E008C0D4
:100C7000F60101900020E9F7319791828082019678
:100C8000F801A081B181FD0101900020E9F73197C1
:100C9000EA1BFB0B95012E1B3F0B8217930740F3BA
:100CA000F60101900020E9F7319731822082D301CB
:100CB0008C914AE0BE016F5F7D4F90E00E94B32AA5
:100CC000BE016F5F7D4FC6010E947A2AF601019036
:100CD0000020E9F7319725E239E23183208312823F
:100CE000F60101900020E9F731978CE592E79183B6
:100CF00080831282D80113960D911C911497BFEF37
:100D0000EB1AFB0AECE0EE16F10409F091CFBE01FC
:100D10006F5F7F4F8EEA93E00E945918CC5FDD4FE2
:100D20000FB6F894DEBF0FBECDBFDF91CF911F91FC
:100D30000F91FF90EF90DF90CF90BF90AF909F907A
:100D40008F907F906F905F904F903F902F9008957D
:100D5000DC019C91FB01808198130BC0992391F0D9
:100D60001196319602C0992379F09D91819198173F
:100D7000D1F391110BC091E0811101C090E0892F56
:100D80008195089580E0089580E008958FEF08959B
:100D9000DFDF91E0811190E0892F0895EF92FF92BB
:100DA0000F931F93CF93DF93CDB7DEB76B970FB63B
:100DB000F894DEBF0FBECDBF4AE08E010F5F1F4F1C
:100DC000B80190E00E94B32AD8010D900020E9F705
:100DD000119785E0EBEBF3E001900D928A95E1F736
:100DE000B80180E00E94C81F87E0E9EDF3E0DE0172
:100DF000559601900D928A95E1F7BE016B5E7F4F8B
:100E000084EF9BE00E94702A8C01892B09F47EC03C
:100E100060EC73E0C801BCDF882309F470C0BE0138
:100E20006B5E7F4F80E090E00E94702A8C01E09121
:100E30003312F0913412BC01808191810E94852A85
:100E400065EC73E0C801A4DF882311F100E010E035
:100E5000BE016B5E7F4F80E090E00E94702AE091BF
:100E60003312F0913412E480F580E00EF11E0E94FE
:100E7000532AF70180830F5F1F4F0C30110541F794
:100E8000BE016B5E7F4F80E090E00E94702A8C0173
:100E90006CEC73E0C8017CDF882381F0BE016B5EDF
:100EA0007F4F80E090E00E94702A8C01E090331226
:100EB000F09034120E94532AF701838364ED73E0AB
:100EC000C80166DF882379F0BE016B5E7F4F80E04A
:100ED00090E00E94702A00913312109134120E9407
:100EE000532AF8018683BE016B5E7F4F80E090E05D
:100EF0000E94702A8C01892B09F08ACF07C065EC0B
:100F000073E0C80145DF8111A1CFC2CF6B960FB648
:100F1000F894DEBF0FBECDBFDF91CF911F910F912F
:100F2000FF90EF900895E091B608F091B708F09324
:100F3000E109E093E00920912B1290E0820F911DCE
:100F40001816190674F420E030E00380F481E02DD7
:100F50002F5F3F4F28173907C1F7F093E109E0935E
:100F6000E009E091E009F091E109808117DF10923A
:100F7000F80D1092EB0910922B120895D4DF89E03E
:100F80000E943A188091E5099091E60990933612F3
:100F90008093351280EE93E0E3CA08958F929F927A
:100FA000AF92BF92CF92DF92EF92FF920F931F9377
:100FB000CF93DF93CDB7DEB7AD970FB6F894DEBF12
:100FC0000FBECDBF5C01E091B608F091B708F09379
:100FD000E109E093E00920912B1230E0121613068C
:100FE0006CF480E090E00380F481E02D019682179C
:100FF0009307C9F7F093E109E093E009FE01319608
:1010000085E1DF011D928A95E9F71E8A1F8A188EF5
:10101000198E00E010E00F2EF4E19F2EF02D6E01EE
:10102000BAE1CB0ED11C882483947801EFEFEE1A3D
:10103000FE0A4AE0BE016A5E7F4FC7010E94B32AE2
:10104000B501CE0101960E94852ABE016A5E7F4FDE
:10105000CE0101960E947A2A80912B129801280FC6
:10106000311D2F5F3F4FE091E209F091E30980814C
:1010700090E028173907B9F48091EB09811117C066
:101080008092EB09E091E009F091E109808186DE30
:10109000E0913312F091341260817181CE0101969A
:1010A0000E9459183AC08091EB09882331F16EE40F
:1010B00076E0CE0101960E9459188FE39CE90197D2
:1010C000F1F700C00000D601E92D1D92EA95E9F77D
:1010D000B501C6010E947A2A4AE0BE016A5E7F4FCE
:1010E000C7010E94B32ABE016A5E7F4FC6010E94FB
:1010F0007A2AC6010E94F51810C0E091E009F0912B
:10110000E10980814BDEE0913312F091341260816D
:101110007181CE0101960E94591880912B12080FFF
:10112000111D0F5F1F4FE091B608F091B708808145
:1011300090E00817190711F48092F80DE091E0098A
:10114000F091E109838194819093E1098093E00912
:101150008FE99FE00197F1F700C000008701083098
:10116000110509F062CFAD960FB6F894DEBF0FBE41
:10117000CDBFDF91CF911F910F91FF90EF90DF9046
:10118000CF90BF90AF909F908F900895E091E0092D
:10119000F091E1090180F281E02DF093E109E09303
:1011A000E0098081FBCD0895E091E009F091E1092B
:1011B0000380F481E02DF093E109E093E009808160
:1011C000EDCD0895109225111092F20A1092F10AB5
:1011D0000E94FE2480932611882309F464C0209184
:1011E000F10A3091F20A2F5F3F4F3093F20A2093B9
:1011F000F10A2A30310560F35FC089E094E00E9473
:10120000B82680912611823021F481E294E00E9478
:10121000B8268FE00E943A186FE374E081E994E009
:101220000E94591813C08BE994E00E94B8260EC0A2
:1012300087EC94E00E94B82609C085EE94E00E94F5
:10124000B82604C081E195E00E94B82680E58CBDF7
:101250008DB581608DBD8FE99FE00197F1F700C0EA
:10126000000081E080932E120E94201B80932611A3
:10127000882361F08DE00E948D288AE00E948D28ED
:101280008CE295E00E94B82610922E128DE00E940A
:101290008D288AE00E948D288DE00E948D288AE0AA
:1012A0000C948D28089580912511823009F28330A5
:1012B00021F2813039F6B7CF813009F0A2CF9DCF2E
:1012C000AF92BF92CF92DF92EF92FF920F931F9354
:1012D000CF93DF93CDB7DEB7C959D1090FB6F894D4
:1012E000DEBF0FBECDBFB82EA42E8E010F5F1F4FE5
:1012F00080E8F80111928A95E9F7D8010D90002055
:10130000E9F7119786E0EFE3F5E001900D928A95F9
:10131000E1F7C8010E947A2AD8010D900020E9F770
:1013200011978AE0E5E4F5E001900D928A95E1F7E6
:101330007E01F1E8EF0EF11C85E0F70111928A952C
:10134000E9F7E0913312F09134120480F581E02D39
:1013500080814AE0B70190E00E94B32AB701C8013A
:101360000E947A2A01E010E0CE0101967C010F2E46
:10137000FCE2CF2ED12CF02DF70101900020E9F7EF
:101380003197D182C082E0913312F09134120480FF
:10139000F581E02DE00FF11F80814AE0BE016F571B
:1013A0007F4F90E00E94B32ABE016F577F4FC70165
:1013B0000E947A2A0F5F1F4F0C301105E9F68E014B
:1013C0000F5F1F4FF80101900020E9F731978DE77B
:1013D0009DE0918380831282D8010D900020E9F76F
:1013E000119789E0EFE4F5E001900D928A95E1F71D
:1013F0004AE0BE016F577F4F8A2D90E00E94B32ACA
:10140000BE016F577F4FC8010E947A2AF8010190F0
:101410000020E9F731978DE090E091838083D80137
:101420000D900020E9F7119786E0E8E5F5E00190DE
:101430000D928A95E1F7E0913312F0913412868192
:10144000883171F04AE0BE016B567F4F90E00E94F8
:10145000B32ABE016B567F4FC8010E947A2A0BC087
:10146000FE01319601900020E9F7319782E394E381
:10147000918380831282FE0131967F0101900020CA
:10148000E9F731978EE790E0918380838E010A57C8
:101490001F4F8FE0F80111928A95E9F74AE0B801F1
:1014A0008B2D90E00E94B32AD8010D900020E9F71F
:1014B000119785E0EBEBF3E001900D928A95E1F74F
:1014C000B701C8010E94B220C756DF4F0FB6F8948B
:1014D000DEBF0FBECDBFDF91CF911F910F91FF9067
:1014E000EF90DF90CF90BF90AF9008950F931F9330
:1014F000CF93DF93CDB7DEB764970FB6F894DEBF16
:101500000FBECDBF8E010F5F1F4F94E1F801119206
:101510009A95E9F74AE0B80190E00E94B32AD80111
:101520000D900020E9F7119785E0EBEBF3E00190D7
:101530000D928A95E1F7C8010E94A62064960FB625
:10154000F894DEBF0FBECDBFDF91CF911F910F91F9
:1015500008958F929F92AF92BF92CF92DF92EF92B7
:10156000FF920F931F93CF93DF93CDB7DEB7AD9765
:101570000FB6F894DEBF0FBECDBF6C01E09129120B
:10158000F0912A12F0933612E093351220912B122B
:1015900030E0121613066CF480E090E00580F681CE
:1015A000E02D019682179307C9F7F0933612E09366
:1015B0003512FE01319685E1DF011D928A95E9F72A
:1015C0001E8A1F8A188E198E00E010E00F2EF4E19B
:1015D0009F2EF02D5E01BAE1AB0EB11C88248394DE
:1015E0007801EFEFEE1AFE0A4AE0BE016A5E7F4F15
:1015F000C7010E94B32AB601CE0101960E94852A36
:10160000BE016A5E7F4FCE0101960E947A2A8091C8
:101610002B129801280F311DE091E509F091E609A0
:10162000828190E02817390789F48091EB098111B4
:1016300011C08092EB09E0913512F0913612608171
:101640007181CE0101960E94591834C08091EB0936
:10165000882331F16EE476E0CE0101960E9459189C
:101660008FE39CE90197F1F700C00000D501E92D57
:101670001D92EA95E9F7B601C5010E947A2A4AE06F
:10168000BE016A5E7F4FC7010E94B32ABE016A5E37
:101690007F4FC5010E947A2AC5010E94F5180AC031
:1016A000E0913512F091361260817181CE01019680
:1016B0000E94591880912B12080F111DE0912912D8
:1016C000F0912A12828190E00817190711F4809294
:1016D000F80DE0913512F091361285819681909344
:1016E0003612809335128FE99FE00197F1F700C021
:1016F000000087010630110509F072CFAD960FB6D4
:10170000F894DEBF0FBECDBFDF91CF911F910F9137
:10171000FF90EF90DF90CF90BF90AF909F908F9011
:10172000089581E00E943A1880913312909134120A
:1017300045D810922411089590E0FC013297E830CA
:10174000F10508F0D8C08827EA56FF4F8F4F0C9458
:10175000F72882E00E943A18E0913312F091341297
:101760006081718183E393E00E9459188091331264
:101770009091341219CA08958091BB09813031F0DB
:1017800018F08230A1F023C001DD21C0FFDCE09120
:101790003312F09134128381811119C0F7DCE0918A
:1017A0003312F091341283818823C1F310C0EEDC30
:1017B000E0913312F09134128381813041F4E6DC00
:1017C000E0913312F091341283818130C1F3809122
:1017D0003312909134120C94DE03089584E00E9439
:1017E0003A18E091E009F091E1098081D7CA0895A3
:1017F0008091BB09813031F018F08230A1F023C014
:10180000D3DC21C0D1DCE0913312F091341283811A
:10181000811119C0C9DCE0913312F0913412838137
:101820008823C1F310C0C0DCE0913312F091341270
:101830008381813041F4B8DCE0913312F0913412AD
:1018400083818130C1F380913312909134120C94D2
:10185000DE03089583E00E943A1810922B128BEE5B
:1018600093E09CCB089587E00C943A180895E0919A
:10187000B608F091B708F093E109E093E0098081A0
:101880008DDA8091BB098130B9F018F0823039F1DE
:1018900028C081E08093BB09E0913312F0913412AB
:1018A000838181111EC080DCE0913312F0913412EB
:1018B00083818823C1F315C082E08093BB09E09146
:1018C0003312F09134128381813059F46DDCE09150
:1018D0003312F091341283818130C1F302C010922F
:1018E000BB0980913312909134120C94DE03089559
:1018F00082E10C943A180895813019F0823041F059
:10190000089580913312909134120C94DE0308955F
:1019100080913312909134120C94DE03089590E07C
:10192000FC013197EA30F10508F06BC08827E256D8
:10193000FF4F8F4F0C94F72880E0F5DA8091331237
:10194000909134120C94DE03089581E0ECDA8091DA
:101950003312909134120C94DE03089582E0E3DA9E
:1019600080913312909134120C94DE03089583E039
:10197000DADA80913312909134120C94DE030895D8
:1019800084E0D1DA80913312909134120C94DE030A
:10199000089585E0C8DA80913312909134120C9446
:1019A000DE03089586E0BFDA8091331290913412FD
:1019B0000C94DE03089587E0B6DA8091331290919B
:1019C00034120C94DE0308951092EB098091F80D07
:1019D000811117C080912B12885080932B128BEEAF
:1019E00093E0DCCA08951092F80D8091EB09811103
:1019F00008C080912B12885F80932B128BEE93E0AE
:101A0000CDCA0895823071F1833009F453C081301A
:101A100009F056C080E090E0E0913312F09134126A
:101A20000480F581E02DE80FF91F108201968C30BB
:101A3000910591F7E0913312F091341280912411C5
:101A40000480F581E02DE80FF11D84E6808363E0DA
:101A500070E080E090E074D8809124118F5F8093D3
:101A60002411089580E090E0E0913312F091341257
:101A70000480F581E02DE80FF91F108201968C306B
:101A8000910591F7E0913312F09134128091241175
:101A90000480F581E02DE80FF11D84E6808365E088
:101AA00070E080E090E04CD8809124118F5F8093AB
:101AB0002411089580913312909134120C94DE0316
:101AC0000895813011F480932D12089590E0FC0167
:101AD0003197E730F10508F046C08827E855FF4FF9
:101AE0008F4F0C94F72888E00E943A1810922B121E
:101AF0008BEE93E053CA089580E10E943A1881E08A
:101B00008093E4091092FF0EE5E0FFE001900020D1
:101B1000E9F73197CF0185509F409927181619068C
:101B200014F5E5E0FFE08B5F904F1192E817F9079D
:101B3000E1F708958AE00C943A1808958DE00C942A
:101B40003A18089580913312909134120C94DE0368
:101B5000089583E10C943A18089586E10E943A189A
:101B60008BEE93E01BCA089590E0FC013197EA30B8
:101B7000F10508F03BC08827E155FF4F8F4F0C94CB
:101B8000F72880E0FBC9089581E0F8C9089582E054
:101B9000F5C9089583E0F2C9089584E0EFC9089576
:101BA00085E0ECC9089586E0E9C9089587E0E6C9B3
:101BB00008951092EB098091F80D811117C0809162
:101BC0002B12885080932B128BEE93E0E7C9089577
:101BD0001092F80D8091EB09811108C080912B12B1
:101BE000885F80932B128BEE93E0D8C9089590E024
:101BF000FC013197E830F10508F060C08827E75410
:101C0000FF4F8F4F0C94F7281092EB098091F80D3D
:101C1000811154C080912B12845080932B1280EE3E
:101C200093E00C94B00208951092F80D8091EB09A6
:101C3000811144C080912B128C5F80932B1280EE17
:101C400093E00C94B00208951092F80D1092EB09F5
:101C500081E00C943A1808951092F80D1092EB0957
:101C600010922B12E091E009F091E10980813EDCB5
:101C7000E0913312F091341260817181E091E009BA
:101C8000F091E10941E080811BDB81E00E943A187C
:101C900080913312909134120C94DE03089580E009
:101CA0000C944101089581E00C944101089582E073
:101CB0000C944101089583E00C9441010895813012
:101CC00019F0823029F0089587E00C943A180895AD
:101CD0008BE00C943A1808951F93CF93DF938130D3
:101CE00019F0823029F039C087E00E943A1835C0D7
:101CF0008CE00E943A1810E080912D12811112C0E0
:101D0000812F0E940802C0EDD7E00E9400178111C8
:101D10000E9489178FE99FE00197F1F700C000004A
:101D2000219799F7812F0E943F021F5F1C3021F7F6
:101D300010922D1281E00E943A18E091B608F091BD
:101D4000B708F093E109E093E009808127D88091FA
:101D50003312909134120E94DE03DF91CF911F91D4
:101D60000895813031F487E00E943A1881E0809331
:101D70002D120895813019F487E00C943A180895D3
:101D800090E0FC013197EF31F10508F0E1C28827BE
:101D9000EF53FF4F8F4F0C94F7288091E409813067
:101DA00041F4E091FF0EF0E0EB5FF04F81E48083BF
:101DB00007C0E091FF0EF0E0EB5FF04F81E680831B
:101DC0008091FF0E8F5F8093FF0EC2C28091E40965
:101DD000813041F4E091FF0EF0E0EB5FF04F82E4E0
:101DE000808307C0E091FF0EF0E0EB5FF04F82E6EA
:101DF00080838091FF0E8F5F8093FF0EA9C2809138
:101E0000E409813041F4E091FF0EF0E0EB5FF04F28
:101E100083E4808307C0E091FF0EF0E0EB5FF04FBA
:101E200083E480838091FF0E8F5F8093FF0E90C2CA
:101E30008091E409813041F4E091FF0EF0E0EB5F26
:101E4000F04F84E4808307C0E091FF0EF0E0EB5F89
:101E5000F04F84E680838091FF0E8F5F8093FF0EAA
:101E600077C28091E409813041F4E091FF0EF0E007
:101E7000EB5FF04F85E4808307C0E091FF0EF0E058
:101E8000EB5FF04F85E680838091FF0E8F5F80933C
:101E9000FF0E5EC28091E409813041F4E091FF0EB3
:101EA000F0E0EB5FF04F86E4808307C0E091FF0E27
:101EB000F0E0EB5FF04F86E680838091FF0E8F5F4E
:101EC0008093FF0E45C28091E409813041F4E09196
:101ED000FF0EF0E0EB5FF04F87E4808307C0E091F6
:101EE000FF0EF0E0EB5FF04F87E680838091FF0EFE
:101EF0008F5F8093FF0E2CC28091E409813041F402
:101F0000E091FF0EF0E0EB5FF04F88E4808307C0C4
:101F1000E091FF0EF0E0EB5FF04F88E68083809168
:101F2000FF0E8F5F8093FF0E13C28091E409813012
:101F300041F4E091FF0EF0E0EB5FF04F89E4808325
:101F400007C0E091FF0EF0E0EB5FF04F89E6808381
:101F50008091FF0E8F5F8093FF0EFAC18091E4099C
:101F6000813041F4E091FF0EF0E0EB5FF04F8AE446
:101F7000808307C0E091FF0EF0E0EB5FF04F8AE650
:101F800080838091FF0E8F5F8093FF0EE1C180916F
:101F9000E409813041F4E091FF0EF0E0EB5FF04F97
:101FA0008BE4808307C0E091FF0EF0E0EB5FF04F21
:101FB0008BE680838091FF0E8F5F8093FF0EC8C1F8
:101FC0008091E409813041F4E091FF0EF0E0EB5F95
:101FD000F04F8CE4808307C0E091FF0EF0E0EB5FF0
:101FE000F04F8CE680838091FF0E8F5F8093FF0E11
:101FF000AFC18091E409813041F4E091FF0EF0E03F
:10200000EB5FF04F8DE4808307C0E091FF0EF0E0BE
:10201000EB5FF04F8DE680838091FF0E8F5F8093A2
:10202000FF0E96C18091E409813041F4E091FF0EEA
:10203000F0E0EB5FF04F8EE4808307C0E091FF0E8D
:10204000F0E0EB5FF04F8EE680838091FF0E8F5FB4
:102050008093FF0E7DC18091E409813041F4E091CD
:10206000FF0EF0E0EB5FF04F8FE4808307C0E0915C
:10207000FF0EF0E0EB5FF04F8FE680838091FF0E64
:102080008F5F8093FF0E64C18091E409813041F439
:10209000E091FF0EF0E0EB5FF04F80E5808307C03A
:1020A000E091FF0EF0E0EB5FF04F80E780838091DE
:1020B000FF0E8F5F8093FF0E4BC18091E40981304A
:1020C00041F4E091FF0EF0E0EB5FF04F81E580839B
:1020D00007C0E091FF0EF0E0EB5FF04F81E78083F7
:1020E0008091FF0E8F5F8093FF0E32C18091E409D3
:1020F000813041F4E091FF0EF0E0EB5FF04F82E5BC
:10210000808307C0E091FF0EF0E0EB5FF04F82E7C5
:1021100080838091FF0E8F5F8093FF0E19C18091A5
:10212000E409813041F4E091FF0EF0E0EB5FF04F05
:1021300083E5808307C0E091FF0EF0E0EB5FF04F96
:1021400083E780838091FF0E8F5F8093FF0E00C135
:102150008091E409813041F4E091FF0EF0E0EB5F03
:10216000F04F84E5808307C0E091FF0EF0E0EB5F65
:10217000F04F84E780838091FF0E8F5F8093FF0E86
:10218000E7C08091E409813041F4E091FF0EF0E076
:10219000EB5FF04F85E5808307C0E091FF0EF0E034
:1021A000EB5FF04F85E780838091FF0E8F5F809318
:1021B000FF0ECEC08091E409813041F4E091FF0E22
:1021C000F0E0EB5FF04F86E5808307C0E091FF0E03
:1021D000F0E0EB5FF04F86E780838091FF0E8F5F2A
:1021E0008093FF0EB5C08091E409813041F4E09105
:1021F000FF0EF0E0EB5FF04F87E5808307C0E091D2
:10220000FF0EF0E0EB5FF04F87E780838091FF0ED9
:102210008F5F8093FF0E9CC08091E409813041F470
:10222000E091FF0EF0E0EB5FF04F88E5808307C0A0
:10223000E091FF0EF0E0EB5FF04F88E78083809144
:10224000FF0E8F5F8093FF0E83C08091E409813081
:1022500041F4E091FF0EF0E0EB5FF04F89E5808301
:1022600007C0E091FF0EF0E0EB5FF04F89E780835D
:102270008091FF0E8F5F8093FF0E6AC08091E4090A
:10228000813041F4E091FF0EF0E0EB5FF04F8AE522
:10229000808307C0E091FF0EF0E0EB5FF04F8AE72C
:1022A00080838091FF0E8F5F8093FF0E51C0E0917D
:1022B000FF0EE150E093FF0EF0E0EB5FF04F108275
:1022C00047C0E091B608F091B70880810E94CE0621
:1022D0001092FF0EE5E0FFE089E19FE01192E81720
:1022E000F907E1F781E0C6D680913312909134125C
:1022F0000E94DE032DC0E091FF0EF0E0EB5FF04F97
:1023000080E2808325C081E1B5D680E090E0E09155
:102310003312F09134120480F581E02DE80FF91F9B
:10232000108201968C30910591F710922B1280EE5D
:1023300093E00E94B0021092FF0E0AC08091E4095F
:10234000813019F41092E40903C081E08093E4091C
:1023500065E07FE08EE595E0ACD68091FF0E83319D
:1023600018F083E18093FF0E0895BF92CF92DF9221
:10237000EF92FF920F931F93CF93DF93CDB7DEB70A
:102380002F970FB6F894DEBF0FBECDBF843009F093
:102390006CC0E0913312F091341265E07FE08081EF
:1023A00091810E94852AE0913312F091341288E1E4
:1023B000868301E010E0DD24D3940F2EFFE0CF2EC2
:1023C000F02DCE0101967C01B12CDD20A9F1F701A1
:1023D0008C2D11928A95E9F74AE0B701C8010E9455
:1023E000B32AD7010D900020E9F7119785E0EBEBB8
:1023F000F3E001900D928A95E1F7B70181E00E9428
:10240000C81F8130C9F041E065E07FE0802F0E9465
:102410006009802F42D3BC0182EE99E04AD39093A9
:10242000E3098093E2099093E1098093E009FC01BC
:1024300080810E94CE06DB2C0F5F1F4F05361105F1
:1024400021F681E017D680913312909134120E94C8
:10245000DE031092FF0E10922B12E5E0FFE089E1FF
:102460009FE01192E817F907E1F72F960FB6F8945D
:10247000DEBF0FBECDBFDF91CF911F910F91FF90B7
:10248000EF90DF90CF90BF9008950F931F93CF935D
:10249000DF93CDB7DEB764970FB6F894DEBF0FBEFB
:1024A000CDBF813021F0823009F446C04DC0E091AB
:1024B000E009F091E109A381B481818192811296B2
:1024C0009C938E931197E091E009F091E109A1812D
:1024D000B2818381948114969C938E93139780810B
:1024E0004AE08E010F5F1F4FB80190E00E94B32AAF
:1024F000D8010D900020E9F7119785E0EBEBF3E0B0
:1025000001900D928A95E1F7C8010E94A620E09102
:10251000E009F091E1090180F281E02DF093E109F9
:10252000E093E00980810E94CE0680913312909161
:1025300034120E94DE0308C081E09CD580913312E2
:10254000909134120E94DE0364960FB6F894DEBFB9
:102550000FBECDBFDF91CF911F910F91089590E0F5
:10256000FC013197ED30F10508F074C08827E05286
:10257000FF4F8F4F0C94F72884E17CD510922B12DB
:1025800088E695E00C94A90A089584E173D5109229
:102590002B1288E695E00C94A90A089584E16AD587
:1025A00010922B1288E695E00C94A90A089584E114
:1025B00061D510922B1288E695E00C94A90A089533
:1025C00084E158D510922B1288E695E00C94A90A64
:1025D000089584E14FD510922B1288E695E00C9473
:1025E000A90A089584E146D510922B1288E695E059
:1025F0000C94A90A089584E13DD510922B1288E627
:1026000095E00C94A90A089584E134D510922B1218
:1026100088E695E00C94A90A089584E12BD51092E0
:102620002B1288E695E00C94A90A089584E122D53E
:1026300010922B1288E695E00C94A90A089584E183
:1026400019D510922B1288E695E00C94A90A0895EA
:1026500081E010C5089590E0FC013197EA30F10562
:1026600008F059C08827E351FF4F8F4F0C94F7288B
:1026700080913312909134120C94DE03089580916E
:102680003312909134120C94DE030895809133122A
:10269000909134120C94DE0308958091331290913E
:1026A00034120C94DE030895809133129091341209
:1026B0000C94DE03089580913312909134120C949F
:1026C000DE0308951092EB098091F80D811123C06B
:1026D00080912B12865080932B1288E695E00C9403
:1026E000A90A08951092F80D8091EB09811113C089
:1026F00080912B128A5F80932B1288E695E00C94D0
:10270000A90A089585E1B6C4089580913312909185
:1027100034120C94DE0308958F3179F584E1AAD444
:10272000E091E509F091E60962816F5F85E795E048
:1027300061D2BC0185EE99E09AD29093E60980932C
:10274000E509A5E0BFE080E090E02C91E091E5098B
:10275000F091E6090190F081E02DE80FF91F208348
:102760001D9201968531910581F710922B1288E612
:1027700095E00E94A90A1092FF0E089590E0FC01D6
:102780003197E930F10508F060C08827E950FF4F24
:102790008F4F0C94F72887E16DD410922B128BEE9B
:1027A00093E00C94CE07089587E164D410922B1225
:1027B0008BEE93E00C94CE07089587E15BD41092E2
:1027C0002B128BEE93E00C94CE07089587E152D440
:1027D00010922B128BEE93E00C94CE07089587E1B4
:1027E00049D410922B128BEE93E00C94CE070895EF
:1027F00087E140D410922B128BEE93E00C94CE071D
:1028000008951092EB098091F80D81111EC08091FE
:102810002B12885080932B128BEE93E00C94CE07F2
:1028200008951092F80D8091EB0981110EC08091EE
:102830002B12885F80932B128BEE93E00C94CE07C3
:10284000089581E017D410922B1208958A3028F44D
:10285000883068F4813021F008958A30C1F00895FD
:1028600080913312909134120C94DE0308951092EB
:10287000EB098091F80D811119C080912B128850BD
:1028800080932B128BEE93E00C94CE070895109258
:10289000F80D8091EB09811109C080912B12885F9E
:1028A00080932B128BEE93E00C94CE070895813029
:1028B00031F480913312909134120C94DE03089518
:1028C000082E000C990BAA0BBB0BFC013197E831C9
:1028D000F10508F045C08827E050FF4F8F4F0C945A
:1028E000F728862F0C949C0B0895862F05C8089511
:1028F000862F15C80895862F85C80895862FE1C8AC
:102900000895862FE3C80895862F2EC90895862F2F
:102910006EC90895862FD3C90895862FDDC90895FD
:10292000862F1FCA0895862F25CA0895862F28CA84
:102930000895862F1ACD0895862FA7CD0895862F46
:102940000ECE0895862F87CE0895862FE5CE089562
:10295000862F14CF0895862F79CF0895862FA7CF7D
:1029600008959F92AF92BF92CF92DF92EF92FF9223
:102970000F931F93CF93DF937C01B62E172FA42EB6
:10298000922E6BE070E081E090E00E941829EC014B
:10299000F70101900020E9F731976F01CE18DF08A9
:1029A00061E070E0C60101960E941829998388832E
:1029B00061E070E08DE090E00E9418299D838C8397
:1029C0009B82AA820E83C114D104D1F0D701A60143
:1029D00080E090E02D91E881F981E80FF91F2083D4
:1029E000019684179507B1F70BC02D91EC81FD81FD
:1029F000E80FF91F208301968C309105B1F712C0C2
:102A00008FEFC81AD80AF701EC0DFD1D80812881CF
:102A10003981F901EC0DFD1D8083AB2DB12F80E0D4
:102A200090E0E3CFEC81FD811586CE01DF91CF915F
:102A30001F910F91FF90EF90DF90CF90BF90AF90DC
:102A40009F900895CF93DF93DC01FB018D919C91C2
:102A500011979087878312861186CD91DC9111970B
:102A6000209729F47093BD096093BC0908C07A8748
:102A700069878091BC099091BD0992878187ED9308
:102A8000FC93A091BC09B091BD091896FC93EE93FC
:102A90001797CF01DF91CF910895CF93C82F65E0AD
:102AA00070E081E090E00E941829FC01C083CF9182
:102AB0000895CF93DF93DC01FB018D919C911197D9
:102AC0009283818314821382CD91DC911197209798
:102AD00029F47093B7086093B60808C07C836B83B1
:102AE0008091B6089091B70894838383ED93FC930B
:102AF000A091B608B091B7081296FC93EE93119787
:102B0000CF01DF91CF910895DF92EF92FF920F9363
:102B10001F93CF93DF93CDB7DEB72F970FB6F894FF
:102B2000DEBF0FBECDBF1092BB091092B908109244
:102B3000B8081092E3091092E20901E010E00F2EAC
:102B4000FFE0DF2EF02DCE0101967C01F7018D2DE7
:102B500011928A95E9F74AE0B701C8010E94B32AA9
:102B6000D7010D900020E9F7119785E0EBEBF3E03A
:102B700001900D928A95E1F7B70181E00E94C81F8C
:102B8000813051F4802F89DFBC0182EE99E091DF22
:102B90009093E3098093E2090F5F1F4F05361105FB
:102BA000A9F600E020E040E060E070E08EEB95E008
:102BB000D8DEBC0188EB98E045DF90933412809317
:102BC0003312E091B608F091B708F093E109E09371
:102BD000E00980810E94CE062F960FB6F894DEBFE2
:102BE0000FBECDBFDF91CF911F910F91FF90EF905E
:102BF000DF900895DF92EF92FF920F931F93CF9390
:102C0000DF937C01D62E67E070E081E090E00E94C7
:102C10001829EC01F70101900020E9F78F010E1946
:102C20001F0961E070E0C8010E9418299983888318
:102C3000DA821E821D821C821B820115110571F031
:102C4000D70120E030E08D91E881F981E20FF31F98
:102C500080832F5F3F4F20173107A8F3CE01DF910C
:102C6000CF911F910F91FF90EF90DF900895CF9338
:102C7000DF93DC01FB018D919C91119794838383F9
:102C800016821582CD91DC911197209729F47093CB
:102C90002A126093291208C07E836D8380912912C5
:102CA00090912A1296838583ED93FC93A09129122B
:102CB000B0912A121496FC93EE931397CF01DF91F3
:102CC000CF910895EF92FF921F93CF93DF93CDB7EB
:102CD000DEB7C05FD1090FB6F894DEBF0FBECDBF1F
:102CE0001092C3091092C20980EFE6E3F2E0DE0120
:102CF000119601900D928A95E1F71092E6091092D3
:102D0000E509CE0101967C0110E0612FC70172DF59
:102D1000BC0185EE99E0ABDF9093E6098093E5096D
:102D200024E1E20EF11C1F5F1C3079F790933612FC
:102D300080933512C051DF4F0FB6F894DEBF0FBE3F
:102D4000CDBFDF91CF911F91FF90EF90089588E75D
:102D500080BB87E884B988E6809301018CEF81B954
:102D600084E283BB8CE78093040181E087B91092F1
:102D7000070193B185B1892B85B9089591B388E78F
:102D8000892781BB0895FADF2FEF83ED90E321506F
:102D900080409040E1F700C0000008951F93CF935A
:102DA000DF93D0E0C0E011E01CC08CE19FE0B9D21D
:102DB0008D3061F4E091B407F0E0E05CFD4E1082EC
:102DC000C093B407C093B307D12F0BC09091B40741
:102DD000E92FF0E0E05CFD4E80839F5F9093B407A5
:102DE000DC2F8CE19FE091D28111DFCF8D2FDF911D
:102DF000CF911F91089580E492E10C943A010895D7
:102E0000DF92EF92FF920F931F93CF93DF93D12C1A
:102E100010E001E0C0E4D4E1FF24FA946894EE24C9
:102E2000E1F861C083EF9AE07CD28F3F79F5988119
:102E3000913779F19091B107911103C00093B107D7
:102E400047C0913071F4E091B207F0E0E15CFB4ED5
:102E500090819F3F19F4E092B1073AC01093B107F7
:102E600037C0923001F52091B20730E0F901E15C02
:102E7000FB4E90819F3F39F4F901E25CFB4E90815B
:102E80009F3FB9F514C01093B10722C098819137C4
:102E900051F4FE0101900020E9F73197E054F4412C
:102EA000349708F0F8829091B107933089F4E0915B
:102EB000B207F0E0E05CFB4E1082DF0111971C923C
:102EC000329710821093B2071093B107D02E0BC027
:102ED0009091B207E92FF0E0E05CFB4E80839F5FAA
:102EE0009093B207D12E83EF9AE00FD281119ACF3F
:102EF00007C0F901E25CFB4E90819F3F21F6E8CFCD
:102F00008D2DDF91CF911F910F91FF90EF90DF906A
:102F1000089583ED95E00E94B82680E494E10E9434
:102F2000B8268CEB95E00E94B826E0E4F4E16181DC
:102F30008081C6CC08950F931F93CF93DF9300E059
:102F4000C0E0D1E012E049C08CEE99E0EAD18F3FB9
:102F500021F59091AF07992319F0913009F046C0FF
:102F6000E091B007F0E0EF5BFA4E90819F3FD9F51A
:102F70001093AF072091B00730E0F901EF5BFA4EF4
:102F800090819F3F39F4F901E05CFA4E90819F3FB8
:102F900091F507C0C093AF0715C09091AF0793306C
:102FA00089F4E091B007F0E0EE5BFA4E1082DF01A9
:102FB00011971C9232971082C093B007C093AF074D
:102FC0000D2F0BC09091B007E92FF0E0EE5BFA4EA9
:102FD00080839F5F9093B0070C2F8CEE99E095D182
:102FE0008111B2CF11C0C093AF07D7CF9091AF0777
:102FF000923099F6BFCFE091B007F0E0E05CFA4E76
:1030000090819F3F39F6DECF802FDF91CF911F91C6
:103010000F91089584EE95E00E94B82682E495E130
:103020000E94B8268CE496E00E94B82661E084E015
:1030300047CC0895B3DE8111DEDEE2DE811169DF67
:103040007ADF8111E7CF0895CF93DF9300D01F92ED
:10305000CDB7DEB78FEF89838A838B831C82CE0145
:1030600001960E94CB260F900F900F900F90DF914A
:10307000CF910895CF93DF9300D0CDB7DEB71982FB
:103080001A821B8290E04AE0BE016F5F7F4F01977A
:103090000E94B32A85EF95E00E94CB26CE010196CF
:1030A0000E94CB26D1DF0F900F900F90DF91CF9130
:1030B0000895CF93DF93EB010E94CB268BEF95E031
:1030C0000E94CB2681E096E00E94CB26CE010E9492
:1030D000CB2681E096E00E94CB26B6DFDF91CF9130
:1030E0000895CF93DF93EB010E94CB2683E096E017
:1030F0000E94CB26CE010E94CB26A6DFDF91CF9186
:103100000895EF92FF920F931F93CF93DF937C016B
:103110008B01EA0189E096E00E94CB26C7010E945C
:10312000CB268EE096E00E94CB26C8010E94CB26DB
:103130008EE096E00E94CB26CE010E94CB2684DF53
:10314000DF91CF911F910F91FF90EF900895EF9233
:10315000FF920F931F93CF93DF93CDB7DEB76497A2
:103160000FB6F894DEBF0FBECDBF9C017B018E0170
:103170000F5F1F4F84E1F80111928A95E9F7D8019A
:103180000D900020E9F7119795E0E0E1F6E001905D
:103190000D929A95E1F7B901C8010E947A2AD801E7
:1031A0000D900020E9F7119785E0E5E1F6E0019048
:1031B0000D928A95E1F7C8010E94CB2645DF20DEFB
:1031C0008823E9F3A6DEF70181818F3F09F480E0CF
:1031D00064960FB6F894DEBF0FBECDBFDF91CF91DE
:1031E0001F910F91FF90EF9008950F931F93CF932E
:1031F000DF93CDB7DEB764970FB6F894DEBF0FBE8E
:10320000CDBFBC018E010F5F1F4F84E1F801119209
:103210008A95E9F795E0EAE1F6E0D80101900D9290
:103220009A95E1F7C8010E947A2AF80101900020DE
:10323000E9F731978CE290E3918380831282C80191
:103240000E94CB2601DF64960FB6F894DEBF0FBE56
:10325000CDBFDF91CF911F910F910895CF93DF9351
:10326000C82FD62F82E00E9406268C2F880F8E77DB
:103270000E94F9258D2F0E94F92582E00E941A26CE
:10328000DF91CF9108951F93CF93DF9300D01F92CA
:103290001F92CDB7DEB7182F82E00E940626812F3D
:1032A000880F8E7780680E94F92580E00E94F925BA
:1032B000182F82E00E941A264AE0BE016F5F7F4FFE
:1032C000812F90E00E94B32ACE0101960E94B82679
:1032D0008CEB95E00E94B826812F0F900F900F90F5
:1032E0000F900F90DF91CF911F910895FC011182F3
:1032F00010820895FC0190818181981720F0981B1D
:10330000892F80950895891B0895FC012081918162
:10331000291718F0822F891B0895892F821B809509
:103320000895CF93DF93EC01F0DF882359F0898172
:1033300091E0980FFE01E80FF11D82819F3F09F493
:1033400090E09983DF91CF9108950F931F93CF93CE
:10335000DF93EC01162F0881CDDF8823F1F31111E3
:1033600001C01FEF81E0800FFE01E00FF11D12830D
:103370008F3F09F480E0888381E0DF91CF911F9136
:103380000F910895FF920F931F93CF93DF934423E0
:10339000D9F0C42FD72FF62E8C01ACDF8C17F0F3A9
:1033A00015C021E0290F3191D801A90FB11D129646
:1033B0003C932F3F11F4982F01C0922F415088F772
:1033C000F801908381E00AC080E008C0F801908194
:1033D0004FEF4C0FEF2DFD2F80E0E3CFDF91CF912A
:1033E0001F910F91FF900895CF92DF92EF92FF927D
:1033F000A091F50DB091F60DC090D109D090D209F1
:10340000E090D309F090D4099B01AC01225031091E
:10341000410951090E940E296C0D7D1D8E1D9F1DB5
:10342000FF90EF90DF90CF9008954F925F926F9250
:103430007F928F929F92AF92BF92CF92DF92EF9244
:10344000FF920F931F93CF93DF93D42F280139015D
:1034500040911A0F50911B0F4B015C01880C991C75
:10346000AA1CBB1C880C991CAA1CBB1C2091D90946
:103470003091DA09C090F90DD090FA0DE090FB0D73
:10348000F090FC0DC40ED51EE11CF11C40E050E094
:10349000C501B4010E94D528C20ED31EE41EF51E3C
:1034A0002091D9093091DA0940E050E0C501B4011A
:1034B0000E94D5284B015C01CAE0C701B6010E94F9
:1034C0009025882311F0C150C1F7F401EC50F44F5E
:1034D000D11108C080819181A281B381BC01CD014D
:1034E0009F700BC04082518262827382C701B60115
:1034F0000E94B82560E070E0CB01DF91CF911F9171
:103500000F91FF90EF90DF90CF90BF90AF909F9082
:103510008F907F906F905F904F900895CF92DF9241
:10352000EF92FF92CF93DF93D82FC62F69017A01D4
:103530008091F90D9091FA0DA091FB0DB091FC0DC9
:10354000BC01CD016F5F7F4F8F4F9F4F0E94902531
:103550008091F40B9091F50BA091F60BB091F70BC5
:1035600082359245A146B14409F058C08091D80DEA
:103570009091D90DA091DA0DB091DB0D8237924771
:10358000A144B14609F04EC08091F00D9091F10D2B
:10359000A091F20DB091F30D0097A545BA4A09F03C
:1035A00045C0C11114C0D13049F46091DC0D709157
:1035B000DD0D8091DE0D9091DF0D3BC06091E00D3F
:1035C0007091E10D8091E20D9091E30D32C0D13008
:1035D00049F4C092DC0DD092DD0DE092DE0DF09248
:1035E000DF0D08C0C092E00DD092E10DE092E20D37
:1035F000F092E30D8091F90D9091FA0DA091FB0DE1
:10360000B091FC0DBC01CD016F5F7F4F8F4F9F4F7D
:103610000E94B8256FEF7FEFCB010BC06FEF7FEFFC
:10362000CB0107C06FEF7FEFCB0103C06FEF7FEFE0
:10363000CB01DF91CF91FF90EF90DF90CF90089575
:10364000EF92FF920F931F93CF93DF931092F90D98
:103650001092FA0D1092FB0D1092FC0D60E070E0DC
:10366000CB010E9490258091F40B8D7F893E01F162
:103670008091F20D9091F30D85359A4A09F096C02C
:103680006091BA0D7091BB0D8091BC0D9091BD0DF4
:103690006093F90D7093FA0D8093FB0D9093FC0DE0
:1036A0000E9490258091F40B8D7F893E09F080C0A7
:1036B000E4EFFBE0838594859093DA098093D90940
:1036C000858590E09093F60D8093F50DC685D7859E
:1036D000D0931B0FC0931A0F84A595A5A6A5B7A5D7
:1036E0008093E7099093E809A093E909B093EA0968
:1036F00000911A0F10911B0FA08924A135A146A19A
:1037000057A1B0E00E940E29AB01BC01848D958DBC
:10371000A68DB78D800F911FA11DB11D840F951F20
:10372000A61FB71F8093D1099093D209A093D30904
:10373000B093D4092091F50D3091F60D80A191A19F
:10374000A2A1B3A18C1B9D0BA109B1097C018D0124
:10375000E41AF50A060B170BC801B70140E050E068
:103760000E94D5282093DB093093DC094093DD09C2
:103770005093DE0920E030E0A90160E081E0CEDE78
:103780000091DB091091DC092091DD093091DE09FF
:10379000061717072807390720F410922C1280E02B
:1037A00008C081E080932C1280E003C081E001C05A
:1037B00081E0DF91CF911F910F91FF90EF900895DD
:1037C000CF93DF93CDB7DEB72B970FB6F894DEBF5C
:1037D0000FBECDBFBC01DC018C918E3261F1FB01CB
:1037E000319691E081918E3221F09F5F9C30D1F72C
:1037F00006C0993020F4911108C0292F1EC08EE711
:1038000096E00E94B82681E062C0FB019E012F5F16
:103810003F4F4FEF490F50E04F5F5F4F460F571F2D
:103820008191D9018D939D014E175F07C9F798309B
:1038300078F4292F02C090E020E080E2E1E0F0E09F
:10384000EC0FFD1FE20FF11D80832F5F2830B0F3D6
:1038500021E0290F98E0FB01E20FF11D8081811129
:1038600003C09B3050F015C02F5FE1E0F0E0EC0F9B
:10387000FD1FE90FF11D80830CC020E2E1E0F0E0C4
:10388000EC0FFD1FE90FF11D20839F5F9B30B1F707
:1038900003C09F5F9B30F8F29E012F5F3F4FAE0148
:1038A000445F5F4FF90180819FE9980F9A3110F4CE
:1038B0008052808331964E175F07A9F7FB01D9012B
:1038C0008D919D018193A417B507C9F780E02B96D0
:1038D0000FB6F894DEBF0FBECDBFDF91CF91089534
:1038E0004F925F926F927F928F929F92AF92BF9210
:1038F000CF92DF92EF92FF92CF93DF936B017C0127
:1039000020E8C2228091DB099091DC09A091DD09B9
:10391000B091DE09C816D906EA06FB0608F070C0A9
:1039200046015701880C991CAA1CBB1C880C991CC9
:10393000AA1CBB1CC4EFDBE040911A0F50911B0F77
:103940008091D9099091DA094090F90D5090FA0DC3
:103950006090FB0D7090FC0D440E551E611C711C97
:103960009C0140E050E0C501B4010E94D528C3018C
:10397000B201620F731F841F951F0E9490258881DA
:103980009981AA81BB81BF70892B8A2B8B2B99F0DF
:1039900021E0E22FF0E0EE0FFF1FEE0FFF1FEC50D3
:1039A000F44F80819181A281B381BF70892B8A2BD2
:1039B0008B2B49F401C020E0C701B601620F711DD5
:1039C000811D911D20C02F5F22F780E8C80ED11CF9
:1039D000E11CF11C8091DB099091DC09A091DD09CB
:1039E000B091DE0922E0920EA11CB11CC816D906C6
:1039F000EA06FB0608F4A0CF60E070E0CB0103C04C
:103A000060E070E0CB01DF91CF91FF90EF90DF900D
:103A1000CF90BF90AF909F908F907F906F905F906E
:103A20004F9008958F929F92AF92BF92DF92EF9244
:103A3000FF920F931F93CF93DF93CDB7DEB76497B9
:103A40000FB6F894DEBF0FBECDBFD82ECB01BA01A2
:103A500024E1E1E9F6E0DE01119601900D922A954C
:103A6000E1F71CE00CE20F2EFAE08F2E912CA12C36
:103A7000B12CF02D153011F0193029F4FE01E10FB1
:103A8000F11D008311507E01E10EF11CA50194018E
:103A90000E94D5286063F7016083622F732F842F03
:103AA000952F611571058105910511F0115011F7E0
:103AB000F1E0DF1202C08BE48E87CE0101960E94F6
:103AC000952864960FB6F894DEBF0FBECDBFDF9188
:103AD000CF911F910F91FF90EF90DF90BF90AF902B
:103AE0009F908F900895CF92DF92EF92FF92CF93A5
:103AF0006A017B0191E0D922EE24FF24CD28CE2853
:103B0000CF2851F4032E39E0769567955795479560
:103B10003A95D1F7302D0DC0032E39E07695679593
:103B2000579547953A95D1F7302D4F5F5F4F6F4FBF
:103B30007F4F6A017B0197E0C922DD24EE24FF2438
:103B4000CD28CE28CF2859F46A017B01689412F859
:103B5000F694E794D794C7941694D1F70FC068945D
:103B600012F876956795579547951694D1F76A019F
:103B70007B019FEFC91AD90AE90AF90A90912C1220
:103B80009923C9F0C82F20E030E0A90160E081E06E
:103B9000C5DCC11107C0A7019601260F371F481FBA
:103BA000591F06C09B01AC012C193D094E095F0944
:103BB00061E081E0B3DCCF91FF90EF90DF90CF9098
:103BC00008952F923F924F925F926F927F928F92C1
:103BD0009F92AF92BF92CF92DF92EF92FF920F939C
:103BE0001F93CF93DF93CDB7DEB72C970FB6F89422
:103BF000DEBF0FBECDBF8E831B018091E709909180
:103C0000E809A091E909B091EA098F839887A9870B
:103C1000BA879E81915099830F2EF7ECCF2EF6E054
:103C2000DF2EF02D6F81788589859A85DDDB4B014C
:103C30005C018091F50D9091F60D892B09F46BC113
:103C4000412C512C3201D501C401840D951DA61DB6
:103C5000B71D8A839B83AC83BD83BC01CD0160D734
:103C60008091D9099091DA09892B09F443C1A4EF15
:103C7000BBE08C91882351F08D01E12CF12C12C016
:103C8000005E1F4FF801808181110CC08E81815030
:103C9000823008F05FC18CEC96E00E94B82680E08C
:103CA00090E05DC1853E09F41AC1D8011B968C9144
:103CB0008F3009F414C1B981B23008F0C7C0F801DF
:103CC0009081D1018C9198130AC1D8011196F1010C
:103CD000319681E02D919191291304C08F5F8B3033
:103CE000C9F703C08B3009F0FAC0BE81B13009F0CA
:103CF00041C08A819B81AC81BD8180932F129093BA
:103D00003012A0933112B0933212C701A0E0B0E09C
:103D10008093BE099093BF09A093C009B093C109D5
:103D2000D80154968D919C915597A0E0B0E0DC01AC
:103D300099278827F801428D538D60E070E0842B2D
:103D4000952BA62BB72B8093201190932111A09334
:103D50002211B0932311848D958DA68DB78D8093FC
:103D6000D5099093D609A093D709B093D809802F8D
:103D7000912FF5C08DE00E948D288AE00E948D2849
:103D800081ED96E0F5D78DE00E948D288AE00E94B3
:103D90008D288DE00E948D288AE00E948D28D80110
:103DA0005496CD90DC905597E12CF12CD6019927B3
:103DB0008827F801C28CD38CE12CF12CC82AD92A8F
:103DC000EA2AFB2A85EE80836A817B818C819D8132
:103DD000CFD6D8015C964D915D916D917C915F97A6
:103DE00080E081DE20E030E0A90160E082E096DB47
:103DF000C616D706E806F90628F4A701960161E081
:103E000082E08CDB00E010E0980140E0C701B601E1
:103E10000CDBA62EB72E8A83998300E010E0980170
:103E200041E0C701B60101DBCA2CDB2CEA80F98036
:103E3000B7EFCB16BFEFDB06EB06BFE0FB0610F3D8
:103E40008CED96E095D780E090E089C08DE00E94EF
:103E50008D288AE00E948D28E1E01B86EC8706C051
:103E60002B852F5F2B873C853F5F3C878B85883078
:103E700059F480E20E948D28F8019B85E90FF11D1D
:103E800080810E948D28ECCFF801AB85EA0FF11DEF
:103E900080810E948D28BC85BB3010F38AEE96E0AD
:103EA00067D7F8018385803191F08830A9F08EEED4
:103EB00096E05ED78AEE96E05BD7D8015C964D918E
:103EC0005D916D917C915F9780E0ACDD08C0E3EC83
:103ED000F6E08E2F9F2F02C08C2D9D2D49D7F0E24A
:103EE000EF0EF11C8091D9099091DA09E816F906D4
:103EF00008F4C6CE2FEF421A520A620A720A809163
:103F0000F50D9091F60DA0E0B0E0481659066A064E
:103F10007B0608F498CE00E010E0980140E06F8145
:103F2000788589859A8581DA6F83788789879A87EA
:103F3000673F3FEF730783073FE0930770F4672BFA
:103F4000682B692B09F06ECE83EF96E011D780E0E5
:103F500090E005C080E090E002C080E090E02C9608
:103F60000FB6F894DEBF0FBECDBFDF91CF911F918A
:103F70000F91FF90EF90DF90CF90BF90AF909F9008
:103F80008F907F906F905F904F903F902F9008950B
:103F90004F925F926F927F928F929F92AF92BF9259
:103FA000CF92DF92EF92FF920F931F93CF93DF9305
:103FB000CDB7DEB729970FB6F894DEBF0FBECDBFE1
:103FC00089837B01CB01FCDB8111A0C0B70181E0BB
:103FD000F8DD009709F49CC00981013009F49AC00A
:103FE000DC0154964D915C91559760E070E0BA0108
:103FF000552744275A96CD90DC905B97E12CF12C05
:104000008A019B010C291D292E293F290D831E831E
:104010002F8338875C964D905D906D907C905F9774
:104020008DE00E948D288AE00E948D288DE00E94FC
:104030008D288AE00E948D28C12CD12C7601530155
:1040400042011FEF811A910AA10AB10A6D817E8196
:104050008F819885C9D969837A838B839C8380916A
:10406000F50D9091F60D892BD1F1198669817A8130
:104070008B819C810985600F711D811D911D50D51B
:10408000C414D504E604F70408F046C0B701A6013D
:104090004F5F5D4F6F4F7F4F12E0C10ED11CE11C8F
:1040A000F11C02C06C017D018C149D04AE04BF04A0
:1040B000A9F1D701C6010196A11DB11D48175907E5
:1040C0006A077B0779F709850F5F09878091F50DEE
:1040D0009091F60D202F30E02817390738F200E0D4
:1040E00010E0980140E06D817E818F8198859DD997
:1040F0006D837E838F839887672B682B692B09F0EC
:10410000A5CF83EF96E034D680E009C082E007C0F7
:1041100080E005C081E003C080E001C080E0299616
:104120000FB6F894DEBF0FBECDBFDF91CF911F91C8
:104130000F91FF90EF90DF90CF90BF90AF909F9046
:104140008F907F906F905F904F900895CF93DF9303
:10415000EC0136DB811103C0BE0182E032DDDF916C
:10416000CF9108952F923F924F925F926F927F92DC
:104170008F929F92AF92BF92CF92DF92EF92FF9277
:104180000F931F93CF93DF93CDB7DEB767970FB62B
:10419000F894DEBF0FBECDBF98878F835B01BC0153
:1041A00081E0F6DE813009F04EC08CE097E0E0D58A
:1041B0004090201150902111609022117090231195
:1041C000C12CD12C760100E010E0980140E0C30141
:1041D000B2012BD96F3F2FEF720782072FE09207B2
:1041E00041F03FEFC31AD30AE30AF30A2B013C0163
:1041F000EACF2091F50D3091F60DA091D909B0913B
:10420000DA09E091D909F091DA09F9D79B01AC01FB
:10421000C701B601BBD70091D5091091D6092091ED
:10422000D7093091D80968017901C61AD70AE80A76
:10423000F90AC701B6019F0140E050E0B6D72987CF
:1042400021E0298B48C0823009F465C38DE065D731
:104250008AE063D786E397E08BD520E030E0A901C0
:1042600060E082E05BD90091DB091091DC092091CC
:10427000DD093091DE09061717072807390740F4D2
:104280006091E7097091E8098091E9099091EA0944
:1042900027DB2B013C01611571058105910541F476
:1042A0008DE03BD78AE039D787E497E061D533C307
:1042B0000FEF1FEF2FEF3FE041E0B7D87B8A6A8A0C
:1042C0005D8A4C8A1092D5091092D6091092D709AE
:1042D0001092D809198A8989212CD984CD2CD12C06
:1042E000E12CF12CCD86DE86EF86F88A312C21E098
:1042F0002B83BA82A982882379F1C301B20174D8D1
:10430000CD84DE84EF84F888C60ED71EE81EF91E21
:10431000C092ED0AD092EE0AE092EF0AF092F00A13
:104320006091ED0A7091EE0A8091EF0A9091F00A87
:10433000F7D32091D9093091DA0940E050E060913B
:10434000D5097091D6098091D7099091D8092DD7B8
:104350007F8B6E8B09850EC0C301B20145D8609377
:10436000ED0A7093EE0A8093EF0A9093F00A1F8A89
:104370001E8A00E08DE0D1D68AE0CFD689E597E0AD
:10438000F7D4812C912C5401FF24F3942F1021C0D9
:104390008AE0C3D6EE89FF89EC50F44F8AE080832F
:1043A0008091D5099091D609A091D709B091D809EB
:1043B0000196A11DB11D8093D5099093D609A093B4
:1043C000D709B093D8092E893F892F5F3F4F3F8B84
:1043D0002E8BE981FA81E80DF91D1081183029F53D
:1043E000CE88DF88C114D10409F474C288E095D660
:1043F00080E293D688E091D69601215031093F8B17
:104400002E8B8091D5099091D609A091D709B091B2
:10441000D8090197A109B1098093D5099093D609CC
:10442000A093D709B093D80955C2812F76D6EE88CC
:10443000FF883FEFE31AF30AEE89FF89EC50F44F4F
:1044400010838091D5099091D609A091D709B09198
:10445000D8090196A11DB11D8093D5099093D60965
:10446000A093D709B093D8091D3059F5E11442E063
:10447000F40669F18AE051D68E899F8902969F8B56
:104480008E8BF701EC50F44F8AE080838091D50940
:104490009091D609A091D709B091D8090196A11D94
:1044A000B11D8093D5099093D609A093D709B093F5
:1044B000D809CE88DF88C11422E0D20608F410C2E1
:1044C00008C0E11432E0F30670F1232C03C02B8006
:1044D00001C0232C6091ED0A7091EE0A8091EF0AE1
:1044E0009091F00A45D30F5F8091F50D9091F60DF4
:1044F000202F30E02817390711F18091ED0A9091B3
:10450000EE0AA091EF0AB091F00A0196A11DB11D2B
:104510008093ED0A9093EE0AA093EF0AB093F00A0D
:104520001F8A1E8A03C0FF8AEE8A232C4FEF841A4B
:10453000940AA40AB40A1E3709F026CF04C01E3715
:1045400009F03FC0D4C1CE88DF888091D509909111
:10455000D609A091D709B091D8090197A109B1094D
:104560008093D5099093D609A093D709B093D80921
:104570009601215031093A8329832115324068F48C
:10458000E981FA81EC50F44F108289819A81019679
:104590009A8389838115924099F76091ED0A709111
:1045A000EE0A8091EF0A9091F00AE2D2A301920103
:1045B00061E082E00E948E1AC988CC2009F465C0AF
:1045C00026C0C301B2018CD96B017C016115710554
:1045D0008105910541F48DE0A0D58AE09ED587E460
:1045E00097E0C6D398C18B019C0141E0C301B201A1
:1045F0000E94151A0FEF1FEF2FEF3FE041E0C701B8
:10460000B6010E94151A80E02601370174CE609130
:104610002F1270913012809131129091321280D20B
:10462000E091BE09F091BF09EC50F44F8091D5099B
:104630009091D609A091D709B091D809448D558D94
:10464000668D778D6C017D01C41AD50AE60AF70ADA
:10465000848F958FA68FB78F60912F127091301233
:10466000809131129091321283D2B701A60181E07C
:104670003ADA8DE052D58AE050D583E797E078D3D7
:104680008DE04BD58AE049D546C1C090E709D0906E
:10469000E809E090E909F090EA09CB82DC82ED823A
:1046A000FE8219822F813885255F3F4F68946624EA
:1046B00065F80F2EF4E82F2EF6E93F2EF02D0F2E81
:1046C000F7E34F2EFAE35F2EF02DEA88FB88CC88C3
:1046D000DD883E872D876B817C818D819E810E9444
:1046E000F41969877A878B879C878091F50D909163
:1046F000F60D892B09F49FC0712C89849A84AB84B0
:10470000BC84870C911CA11CB11CC501B40108D24A
:104710008091D9099091DA09892B09F481C05981D6
:10472000511107C084EF9BE000E010E006C08096C6
:1047300004C0E4EFFBE01082EEC0FC0120812223E4
:1047400019F0253E09F062C0EF81F885DC01219166
:104750002D934D855E854E175F07C9F7DC011B96CB
:104760006C921B971C961C921C971D961C921D9771
:104770001F963C922E921E9751965C924E925097A5
:1047800053965C924E92529757963C922E92569721
:1047900059965C924E9258975596FC92EE92549789
:1047A0005B96DC92CE925A974091D5095091D609EA
:1047B0006091D7097091D809FC01448F558F668F9D
:1047C000778FC501B401D4D18DE0A7D48AE0A5D4F8
:1047D0008DE0A3D48AE0A1D483E897E0C9D24091C8
:1047E000D5095091D6096091D7097091D80981E017
:1047F0007AD9005E1F4F8091D9099091DA09081784
:10480000190708F469C0F1E0F9830AC0005E1F4F80
:104810002091D9093091DA090217130708F487CFDC
:1048200073948091F50D9091F60D272D30E02817A7
:10483000390708F462CF00E010E0980140E06B8196
:104840007C818D819E810E94151A673F5FEF7507FD
:1048500085075FE0950768F16F3F7F4F8F4F9F405F
:1048600021F56B817C818D819E813AD8862E972E91
:10487000A82EB92E062F172F282F392F41E06B8134
:104880007C818D819E810E94151A0FEF1FEF2FEF03
:104890003FE041E0682D792D8A2D9B2D0E94151A4D
:1048A0008B829C82AD82BE8208C082E997E060D292
:1048B00032C06B837C838D839E832B813C814D81B1
:1048C0005E81232B242B252B09F005CF83EF96E067
:1048D0004FD221C0232C58CDF801EC50F44F2BCFF0
:1048E0003FEF831A930AA30AB30A232C4DCD80917C
:1048F000D5099091D609A091D709B091D80901970F
:10490000A109B1098093D5099093D609A093D7093D
:10491000B093D80942CE67960FB6F894DEBF0FBEAB
:10492000CDBFDF91CF911F910F91FF90EF90DF905E
:10493000CF90BF90AF909F908F907F906F905F903F
:104940004F903F902F900895CF92DF92EF92FF9279
:104950001F93CF93DF93182F6A017B018091FE0E86
:10496000811115C08FEE810F823040F088EE810FEB
:10497000823020F080EE810F823048F40B2EB9E0B7
:10498000CC0CDD1CEE1CFF1CBA95D1F7B02DA59800
:10499000812F80642ED18F2D2CD18E2D2AD18D2D5B
:1049A00028D18C2D26D1183019F487E822D106C0E1
:1049B00085E91FD103C0C15011F415C0C0E01FD15B
:1049C000D82F8F3FC1F381110EC01A3361F417D174
:1049D00086FF04C081E08093FE0E02C01092FE0E9E
:1049E0000ED10DD10CD10BD1A59A8D2FDF91CF9186
:1049F0001F91FF90EF90DF90CF9008950F931F933A
:104A0000CF93DF931AE08FEFF4D01150E1F7A59820
:104A100040E050E0BA0180E097DFC0E2D0E008C09B
:104A200040E050E0BA0180E08FDF219709F468C0D0
:104A30008130B1F7A59A8FEFDCD08FEFDAD04AEA58
:104A400051E060E070E088E07FDFCEEFD0E011C0A1
:104A50004AEA51E060E070E088E076DF219749F4AF
:104A60008DE05BD38AE059D381E08093251101E08A
:104A700003C0813069F702E040E050E0BA0187E30B
:104A800063DF40E050E060E070E489E25DDFCEEF9C
:104A9000D0E013C040E050E0BA0187E355DF40E0CA
:104AA00050E060E070E489E24FDF219731F48DE05F
:104AB00034D38AE032D312E02DC08111EBCF1092B3
:104AC000FE0E023039F51EC040E050E0BA018AE324
:104AD0003BDF219739F48DE020D38AE01ED310927A
:104AE000251102C08111F0CF8091FE0E813021F49A
:104AF00082E0809325110EC083E0809325110AC0C7
:104B000011E008C040E050E0BA018AE31DDFCEEFBB
:104B1000D0E0E8CF812FDF91CF911F910F910895C1
:104B2000CF93DF93AB01BC0181E10EDF81111DC08A
:104B3000A598C0E0D0E005C0219719F4A59A81E0BE
:104B400014C05DD08E3FC1F7C0E0D0E058D0FE0168
:104B5000EC50F44F80832196C11582E0D807B1F75D
:104B60004ED04DD04CD0A59A80E0DF91CF910895E2
:104B7000CF93DF93AB01BC0188E1E6DE811136C043
:104B8000A5988EEF36D0C0E0D0E0FE01EC50F44F97
:104B900080812FD02196C11522E0D207B1F78FEF87
:104BA00028D08FEF26D02BD0982F9F71953039F0D9
:104BB000A59A1CC0219629F4A59A81E017C0C0E0EF
:104BC000D0E01DD08823B1F3A59A8FEF12D0A5981D
:104BD00008C0CE010196219619F4A59A81E006C07D
:104BE000EC010DD08823A9F3A59A80E0DF91CF9145
:104BF00008958EBD0DB407FEFDCF8EB508958FEFDD
:104C00008EBD0DB407FEFDCF8EB50895813041F005
:104C100028F0823059F0833059F00895289808958B
:104C2000E2E0F1E080818F7B8083089540980895D1
:104C3000A5980895813041F028F0823059F08330F2
:104C400059F00895289A0895E2E0F1E080818064A7
:104C500080830895409A0895A59A089583E58CBDB0
:104C60001DBC80E0E7DF81E0E5DF82E0E3CF08956F
:104C7000000000000895CF92DF92EF92FF920F9311
:104C80001F93CF93DF931092C50027E62093C400B3
:104C9000C1ECD0E088E1888398E9988386E080932E
:104CA000C2001092CD002093CC000F2EF9ECCF2E35
:104CB000D12CF02DF60190838093CA001092D5007C
:104CC0002093D4000F2EF1EDEF2EF12CF02DF701F3
:104CD00090838093D200109235012093340101E338
:104CE00011E0F80190838093320185EB97E00E94F8
:104CF00076198CE19FE00E9476198AEB98E00E9479
:104D0000761983EF9AE00E9476198DE190E10E9476
:104D100076198CEE99E00E947619888180688883E4
:104D2000F601808180688083F701808180688083BC
:104D3000F801808180688083789488E396E290937C
:104D40003F1280933E1290933912809338129093C1
:104D50003B1280933A1290933D1280933C12DF9164
:104D6000CF911F910F91FF90EF90DF90CF9008951A
:104D7000FC0101900020E9F73197AF01481B590B66
:104D8000BC0185EB97E00E94C219E1ECF0E0808164
:104D9000806280830895CF93DF93FC0120812223DA
:104DA00069F0DC011196E8ECF0E0CEECD0E0908107
:104DB00095FFFDCF28832D912111F9CFDF91CF9160
:104DC00008951F920F920FB60F9211240BB60F92F7
:104DD0002F933F934F935F936F937F938F939F9303
:104DE000AF93BF93EF93FF9385EB97E00E948519F4
:104DF000882339F085EB97E00E9491198093C600D3
:104E00000CC0E1ECF0E080818F7D8083E0913E1268
:104E1000F0913F12309709F01995FF91EF91BF91F2
:104E2000AF919F918F917F916F915F914F913F9142
:104E30002F910F900BBE0F900FBE0F901F901895E3
:104E40001F920F920FB60F9211240BB60F922F9351
:104E50003F934F935F936F937F938F939F93AF9302
:104E6000BF93EF93FF936091C6008CE19FE00E9497
:104E7000A519FF91EF91BF91AF919F918F917F9174
:104E80006F915F914F913F912F910F900BBE0F90BB
:104E90000FBE0F901F9018951F920F920FB60F9292
:104EA00011240BB60F922F933F934F935F936F9301
:104EB0007F938F939F93AF93BF93EF93FF938AEB6F
:104EC00098E00E948519882339F08AEB98E00E94C7
:104ED00091198093CE000CC0E9ECF0E080818F7DC9
:104EE0008083E0913812F0913912309709F01995CA
:104EF000FF91EF91BF91AF919F918F917F916F91B2
:104F00005F914F913F912F910F900BBE0F900FBE6D
:104F10000F901F9018951F920F920FB60F921124A9
:104F20000BB60F922F933F934F935F936F937F93A3
:104F30008F939F93AF93BF93EF93FF936091CE00B6
:104F400083EF9AE00E94A519FF91EF91BF91AF9175
:104F50009F918F917F916F915F914F913F912F9191
:104F60000F900BBE0F900FBE0F901F9018951F92C1
:104F70000F920FB60F9211240BB60F922F933F93FF
:104F80004F935F936F937F938F939F93AF93BF9351
:104F9000EF93FF938DE190E10E948519882339F00A
:104FA0008DE190E10E9491198093D6000CC0E1ED53
:104FB000F0E080818F7D8083E0913A12F0913B1286
:104FC000309709F01995FF91EF91BF91AF919F91A3
:104FD0008F917F916F915F914F913F912F910F90A2
:104FE0000BBE0F900FBE0F901F9018951F920F923F
:104FF0000FB60F9211240BB60F922F933F934F933E
:105000005F936F937F938F939F93AF93BF93EF9330
:10501000FF936091D6008CEE99E00E94A519FF9154
:10502000EF91BF91AF919F918F917F916F915F9120
:105030004F913F912F910F900BBE0F900FBE0F908D
:105040001F9018951F920F920FB60F9211240BB656
:105050000F922F933F934F935F936F937F938F9311
:105060009F93AF93BF93EF93FF938DEF9DE00E94CB
:105070008519882339F08DEF9DE00E949119809366
:1050800036010CC0E1E3F1E080818F7D8083E09107
:105090003C12F0913D12309709F01995FF91EF9174
:1050A000BF91AF919F918F917F916F915F914F9140
:1050B0003F912F910F900BBE0F900FBE0F901F903E
:1050C00018951F920F920FB60F9211240BB60F92E4
:1050D0002F933F934F935F936F937F938F939F9300
:1050E000AF93BF93EF93FF936091360187E291E115
:1050F0000E94A519FF91EF91BF91AF919F918F9160
:105100007F916F915F914F913F912F910F900BBEC7
:105110000F900FBE0F901F901895E0ECF0E090817B
:1051200095FFFDCF8093C6000895CF93DF93EC01E8
:105130008881882329F02196F0DF89918111FCCFA5
:10514000DF91CF910895E2E0F1E08081877F808355
:1051500081E08093E4090E94A71680DD8CDD0E9427
:10516000E20883E30E94431963E083E30E942E195F
:1051700083E30E9443190E9462160E9484150E94D4
:10518000910B0E941A180E94C316FBCFDB018F936C
:105190009F9344D0BF91AF91A29F800D911DA39F7B
:1051A000900DB29F900D11240895A1E21A2EAA1B12
:1051B000BB1BFD010DC0AA1FBB1FEE1FFF1FA217C7
:1051C000B307E407F50720F0A21BB30BE40BF50BC4
:1051D000661F771F881F991F1A9469F7609570954D
:1051E000809590959B01AC01BD01CF010895EE0F14
:1051F000FF1F881F8BBF0790F691E02D1994A29F87
:10520000B001B39FC001A39F700D811D1124911D9A
:10521000B29F700D811D1124911D0895F0DFA59F8F
:10522000900DB49F900DA49F800D911D11240895A1
:105230000F931F93CF93DF93869F8001879F100D5D
:10524000969F100D1124C8010DD0EC01009721F09C
:10525000A80160E070E047D1CE01DF91CF911F91AE
:105260000F9108950F931F93CF93DF938230910591
:1052700010F482E090E0E0914416F091451620E0B1
:1052800030E0A0E0B0E0309719F140815181028117
:10529000138148175907C8F08417950769F41097C8
:1052A00031F012960C93129713961C9327C000931B
:1052B00044161093451622C02115310519F04217E6
:1052C000530718F49A01BD01EF01DF01F801DBCFAC
:1052D00021153105F9F0281B390B2430310580F4F4
:1052E0008A819B816115710521F0FB019383828383
:1052F00004C09093451680934416FE01329644C034
:10530000FE01E20FF31F81939193225031093983FB
:1053100028833AC02091421630914316232B41F442
:1053200020910202309103023093431620934216DB
:1053300020910002309101022115310541F42DB771
:105340003EB74091040250910502241B350BE091B9
:105350004216F0914316E217F307A0F42E1B3F0B01
:105360002817390778F0AC014E5F5F4F24173507D7
:1053700048F04E0F5F1F509343164093421681939F
:10538000919302C0E0E0F0E0CF01DF91CF911F9157
:105390000F910895CF93DF93009709F481C0FC012A
:1053A000329713821282A0914416B091451610973D
:1053B00081F420813181820F931F20914216309118
:1053C00043162817390751F5F0934316E093421618
:1053D00067C0ED0120E030E0CE17DF0740F44A81DE
:1053E0005B819E0141155105F1F0EA01F5CFD383B0
:1053F000C28340815181840F951FC817D90759F482
:1054000088819981840F951F0296918380838A8178
:105410009B81938382832115310529F4F0934516EE
:10542000E09344163DC0E901FB83EA834991599119
:10543000C40FD51FEC17FD0761F480819181840FA3
:10544000951F0296E90199838883828193819B83CA
:105450008A83E0E0F0E012968D919C91139700977B
:1054600019F0FD01DC01F7CF8D919C9111979D0101
:105470002E5F3F4F820F931F2091421630914316AB
:105480002817390769F4309729F4109245161092BD
:10549000441602C013821282B0934316A0934216A0
:1054A000DF91CF910895FC0188279927E8942191F5
:1054B0002032E9F3293010F02E30C8F32B3239F0C6
:1054C0002D3231F4689403C058D0820F911D219180
:1054D00020532A30C8F31EF4909581959F4F08956C
:1054E00048EA57E019C0DC0101C06D9341505040BB
:1054F000E0F70895FB01DC010D900020E9F711971A
:1055000001900D920020E1F70895FB01DC0101906C
:105510000D920020E1F70895FA01A191B081009762
:1055200019F41097E1F0CD01DC01CD010D900020C0
:1055300011F4C00113C0FB012191222319F02015A1
:10554000D9F7F3CFFB012191201519F41E92119682
:1055500006C02223C1F70D900020A1F7D001FA0167
:10556000A193B0830895BB274A3031F4992322F4E4
:10557000BDE2909581959F4F09C07AE0979F902D4D
:10558000879F802D910D11240895BB27FB0155277E
:10559000AA27880F991FAA1FA41710F0A41B839590
:1055A0005051B9F7A05DAA3308F0A95DA193009707
:1055B00079F7B111B1931192CB0100C0DC01FC016C
:1055C000672F71917723E1F7329704C07C916D9337
:1055D00070836291AE17BF07C8F30895F894FFCFA8
:1055E000000046162000F5010000F4010000F5015E
:1055F0000000F4010000F6010000F4010000F401D5
:105600000000F6010000F2010000F5010000F701C2
:105610000000FA0100003755700000000000000093
:1056200000000000000000000000436F63612D4394
:105630006F6C61000000000000000000000047697E
:105640006E6765722D416C6500000000000000006F
:1056500000004F72616E67656E73616674000000D2
:105660000000000000004C696D657474656E736124
:10567000667400000000000000005A6974726F6ECA
:10568000656E7361667400000000000000004772E0
:10569000656E6164696E656E736972757000000095
:1056A0000000426C7565204375726163616F000094
:1056B00000000000000047696E00000000000000CC
:1056C00000000000000000000000547269706C656A
:1056D00020536563000000000000000000005768D0
:1056E00069736B79000000000000000000000000FA
:1056F0000000576F646B61000000000000000000B4
:10570000000000000000736C69646572006D656ED6
:10571000676500636F636B7461696C6E616D6500D2
:1057200038300032333500416C6B6F686F6C6973D1
:10573000636800616C6B6F686F6C6A616E65696E3F
:1057400000416C6B6F686F6C6672656900416C6CD0
:105750006500446F2073746F68742064656E6E20FA
:10576000697267656E6420652054657874207A7567
:105770006D2047657472E46E6B2C205363687775F7
:105780006C2E007A7566616C6C73747874007A752F
:10579000746174656E6C69737465002E747874003E
:1057A0004E616D65004D656E67656E00416C6B6F97
:1057B000686F6C0042696C64003A2C7B7D0D0A00B6
:1057C0007A75746174006265617262636F636B7491
:1057D00061696C00747377206265617262636F63E4
:1057E0006B7461696C382C300053442063617264BF
:1057F000206E6F742064657465637465642E2E0D6D
:10580000004361726420496E697469616C697A61F0
:1058100074696F6E206661696C65642E2E0D00469A
:1058200065686C6572206665737467657374656C12
:105830006C74215C724B65696E652053442D4B611D
:1058400072746520766F7268616E64656E2E5C722C
:1058500042697474652065696E66FC67656E2075C3
:105860006E645C726E6575207374617274656E2E01
:10587000006665686C6572747874005374616E6458
:10588000617264204361706163697479204361725D
:1058900064202856657220312E782920446574656D
:1058A00063746564210D0048696768204361706115
:1058B000636974792043617264204465746563741C
:1058C0006564210D005374616E64617264204361EC
:1058D000706163697479204361726420285665722F
:1058E00020322E7829204465746563746564210D27
:1058F00000556E6B6E6F776E205344204361726467
:10590000204465746563746564210D004641543319
:1059100032206E6F7420666F756E64210D0A004E22
:10592000616D653A000D4D656E67656E3A7B0041AD
:105930006C6B6F686F6C3A0042696C643A006E651C
:105940007565726E616D6500666C75657373696708
:105950006B6569740031323334353637383930315C
:10596000323334353637383939303132004E616DA3
:10597000653A20003A2057657274203D20002C20A3
:105980004D656E67656E203D20002C20002C204167
:105990006C6B6F686F6C203D20002E0A0D00313259
:1059A00033343536373839303132333435363738A9
:1059B00039300050726F6365656420554152542040
:1059C000313A200050726F6365656420554152542E
:1059D00020323A20007061676520002E7478743D93
:1059E0000022002E76616C3D0070696320002C005F
:1059F00067657420002E76616C0074737720004D0B
:105A000049464152452052433532327632200D0A02
:105A1000004465746563746564200D0A004D494651
:105A20004152452052433532327631200D0A004E24
:105A30006F2072656164657220666F756E64200DFB
:105A40000A00203A566F726865720D0A0031330001
:105A5000203A204E616368686572200D0A00496E25
:105A600076616C69642066696C654E616D652E2E89
:105A70000020202020202020202020202020204224
:105A80007974657300546F74616C204D656D6F722D
:105A9000793A20002046726565204D656D6F7279F8
:105AA0003A200044495200524F4F54004E2F460DA9
:105AB0000044656C6574696E672E2E0046696C65DE
:105AC0002064656C657465642100202020004649CF
:105AD0004C45004572726F7220696E206765747460
