:1000000030C100004FC100004DC100004BC10000D5
:1000100049C1000047C1000045C1000043C10000C4
:1000200041C100003FC100003DC100003BC10000D4
:1000300039C100000C94544E35C1000033C100009A
:1000400031C100000C94D9360C94E4362BC1000069
:1000500029C100000C94113825C1000023C1000003
:1000600021C100000C94A5511DC100001BC100005E
:1000700019C1000017C1000015C1000013C1000024
:100080000C94EF360C94FA360DC100000BC1000041
:100090000C94D15107C1000005C1000003C100004C
:1000A00001C10000FFC000000C9405370C9410370C
:1000B000F9C00000F7C00000F5C000000C941B3729
:1000C0000C942637EFC00000EDC000000C943C52A9
:1000D0000C94FD51E7C000000C94A7520C94685298
:1000E000E1C00000000302030403060308030A033F
:1000F0000C030E0314031A032003260337033903EA
:100100003B033D033F034103430345034B035103BB
:1001100057035D036E037103750379037D03810348
:10012000850389038D03910395039803AE1CC21CBC
:10013000F91C041D3B1D851D891DCD1DF61D031ECB
:10014000101E1D1E2A1E371E441E5F1E9A1E121FE1
:100150005A1FD41FD81FDC1FE61FEC1F3420572066
:100160005B205F20632067206B206F208A20C520E2
:10017000DA20F4200C214721C921CD21D121D5211C
:10018000D921F3213F218922A222BB22D422ED22B0
:1001900006231F23382351236A2383239C23B5235B
:1001A000CE23E7230024192432244B2464247D2405
:1001B0009624AF24C824E124FA24CF2513251D2535
:1001C0003C254825292834283F284A2855286028D6
:1001D0006B28762881288C289728A228AD28B0285B
:1001E000C428D728E728F7280729172927294129CC
:1001F00075297B298029632B902BBC2BE82B142C91
:10020000402C6C2C5E2D502E742E782E7C2E802E41
:10021000842E882E8C2EA02EB42EF82EFB2EFF2E90
:10022000B72F7B2F8A2F992FA82FD82FDC2FE02FC5
:10023000E42FE82F3D30EC2FF02FF42FF82FFC2F78
:10024000003004303D303D3008300C301030143078
:1002500017301A301D30203023302630293030300E
:10026000373011241FBECFEFD1E2DEBFCDBF00E09B
:100270000CBF19E0A0E0B2E0ECE5F1EB00E00BBF51
:1002800002C007900D92AA3EB107D9F727E1AAEE66
:10029000B9E001C01D92AA35B207E1F70E94E95208
:1002A0000C94AC58ADCE2F923F924F925F926F92CA
:1002B0007F928F929F92AF92BF92CF92DF92EF92F6
:1002C000FF920F931F93CF93DF93CDB7DEB76E9757
:1002D0000FB6F894DEBF0FBECDBFE0914F13F09183
:1002E0005013E080F180C82ED12C1C141D045CF446
:1002F00080E090E0D7011D96ED90FC901E9701964E
:100300008C159D05B9F72091620A3091630AF901B5
:10031000858496848091A50F9091A60FDC011D968F
:100320006D907C901E9700911B0A10911C0AF80199
:1003300043845484A091AE0FB091AF0F1B962D90C3
:100340003C901C9794878387FC01168705871C9631
:100350003C932E931B97F901B687A58765E075E05E
:1003600086E392E00E944B3DFE0131968FE0DF0173
:100370001D928A95E9F7799685E0DF011D928A95AD
:10038000E9F7F801A12C8681A80E0584F685E02DF9
:100390000E171F07C1F74AE0BE01665E7F4F8A2D28
:1003A00090E00E94695889E392E00E946651CE0174
:1003B0004A960E94665186E198E00E946651F701D4
:1003C00086818C59B82EBA184AE0BE01665E7F4F0E
:1003D0008B2D90E00E94695888E492E00E9466515B
:1003E000CE014A960E94665186E198E00E946651CD
:1003F00087E0E3E5F2E0DE01119601900D928A9527
:10040000E1F7FFEFCF1ADF0A4AE0BE01605F7F4FDE
:10041000C6010E946958BE01605F7F4FCE01019600
:100420000E94275864E575E1CE0101960E94993D2E
:100430009DEC899FA12C11248A2D86958695A82E46
:10044000AA0CAA0CA80EBA1438F46AE572E086E386
:1004500092E00E944B3DAB2CD7011696AC92B12C8A
:100460004AE0BE01665E7F4FC5010E94695886E87A
:1004700095E00E946651F701808191810E9466514A
:100480008EE692E00E946651CE014A960E94665125
:1004900086E198E00E9466517E01F0E1EF0EF11CCA
:1004A0004AE0B701C5010E946958F7010190002098
:1004B000E9F7319785E290E091838083F80180E04D
:1004C0009681890F0584F685E02D0E171F07C1F769
:1004D0004AE0BE01665E7F4F90E00E94695885E762
:1004E00092E00E946651CE014A960E94665186E1D2
:1004F00098E00E94665186E0E4E8F2E0DE011196A1
:1005000001900D928A95E1F74AE0BE016B5E7F4F44
:10051000C6010E946958BE016B5E7F4FCE010196F5
:100520000E942758BE01605F7F4FCE0101960E9456
:100530004B3D4AE0BE01605F7F4FC5010E94695894
:1005400087E0E3E5F2E0DE01119601900D928A95D5
:10055000E1F74AE0BE016B5E7F4FC6010E94695819
:10056000BE016B5E7F4FCE0101960E942758BE01EF
:10057000605F7F4FCE0101960E94633D8FE39FE154
:100580000197F1F700C00000E091620AF091630A60
:1005900096868586E091A50FF091A60F76866586F2
:1005A000E0911B0AF0911C0A54864386E091AE0F3D
:1005B000F091AF0F348623866E960FB6F894DEBFA7
:1005C0000FBECDBFDF91CF911F910F91FF90EF90A4
:1005D000DF90CF90BF90AF909F908F907F906F9063
:1005E0005F904F903F902F90089590E08C30910550
:1005F00090F5FC018827EE58FF4F8F4F0C94C8559B
:10060000129A0895139A0895149A0895159A0895C0
:10061000169A0895179A0895A29A0895E5E0F1E0D0
:100620008081806480830895E5E0F1E080818062CC
:1006300080830895E5E0F1E0808180618083089502
:10064000E5E0F1E08081886080830895E5E0F1E0F5
:10065000808184608083089590E08C30910590F5CE
:10066000FC018827E258FF4F8F4F0C94C855129811
:100670000895139808951498089515980895169854
:10068000089517980895A2980895E5E0F1E0808113
:100690008F7B80830895E5E0F1E080818F7D80830A
:1006A0000895E5E0F1E080818F7E80830895E5E0A4
:1006B000F1E08081877F80830895E5E0F1E080812B
:1006C0008B7F8083089590E08C309105A0F5FC012C
:1006D0008827E657FF4F8F4F0C94C8558FB180780D
:1006E00008958091060181700895809106018270BD
:1006F00008958091060184700895809106018870A4
:10070000089580910601807108958091060180729C
:100710000895809106018074089580910601807883
:100720000895809103018078089580B181700895C3
:1007300080B18270089580E008952F923F924F9289
:100740005F926F927F928F929F92AF92BF92CF9261
:10075000DF92EF92FF920F931F93CF93DF93CDB76A
:10076000DEB7CC54D1090FB6F894DEBF0FBECDBFB3
:1007700029969FAF8EAF299727967FAF6EAF2797A9
:1007800085E1FE013196DF01982F1D929A95E9F7D8
:100790007596DF01982F1D929A95E9F77596DF01FE
:1007A0001D928A95E9F7759685E0DF011D928A957D
:1007B000E9F72091620A3091630AF9010584F68510
:1007C000E02D2B96FFAFEEAF2B97E090A50FF090AA
:1007D000A60FD7011D960D90BC91A02D2D96BFAFF1
:1007E000AEAF2D9780901B0A90901C0AF4014384B1
:1007F0005484A091AE0FB091AF0F1B966D907C907A
:100800001C97F486E386F701968685861C963C93B2
:100810002E931B97F901B687A58729960EAD1FADBC
:100820002997A12CB12C6E01F0E4CF0ED11C0F2E14
:10083000F5E22F2E312CF02DD8018D919C910E9444
:10084000665186E198E00E9466510000BFEFAB1A46
:10085000BB0A4AE0B601C5010E94695827966EADF1
:100860007FAD2797CE0101960E943B58B601CE017D
:1008700001960E94275887E0E3E5F2E0DE015696F4
:1008800001900D928A95E1F7B601CE0146960E943D
:10089000275886E0E4E8F2E0DE019B9601900D9295
:1008A0008A95E1F7B601CE018B960E942758CE01BA
:1008B00001960E949F3ECE0146960E949F3ECE0129
:1008C0008B960E949F3E8016910651F480915C0A9F
:1008D000811105C0E1E0E0937D0E840101C0840137
:1008E000D80112968C91811110C0E016F10609F41E
:1008F000BFC0F80105851685D80112968C9181112B
:1009000004C0E016F106A9F7B3C0E016F106B9F588
:1009100090915C0A911137C0B1E0B0935C0A8130CC
:1009200009F5F70160817181CE0101960E944B3D6E
:10093000D70116968C914AE0B60190E00E94695862
:10094000B601CE0146960E94633DF601019000205B
:10095000E9F7319731822082B601CE018B960E9451
:100960004B3D3EC0CE0101960E94663ECE014696AA
:100970000E94663ECE018B960E94663E31C08091F9
:100980005C0A882369F0CE0101960E94663ECE0182
:1009900046960E94663ECE018B960E94663E20C01F
:1009A000F80160817181CE0101960E944B3DD80112
:1009B00016968C914AE0B60190E00E946958B60103
:1009C000CE0146960E94633DF60101900020E9F7B2
:1009D000319731822082B601CE018B960E944B3D29
:1009E000F80105851685F4E0AF16B10421F4809175
:1009F0005C0A8823C1F18FE39CE90197F1F700C0FD
:100A0000000094E0A916B10409F016CFE091620A43
:100A1000F091630A2B96AEADBFAD2B97B687A58735
:100A2000E091A50FF091A60F2D968EAD9FAD2D975D
:100A300096878587E0911B0AF0911C0A54864386AD
:100A4000E091AE0FF091AF0F748663862996AEAD3C
:100A5000BFAD29978D919C910E94665186E198E0E7
:100A60000E9466510DC029961FAF0EAF299708C08E
:100A700080915C0A811187CFB1E0B0935C0A72CF9C
:100A800029968EAD9FAD2997C45BDF4F0FB6F894C2
:100A9000DEBF0FBECDBFDF91CF911F910F91FF90B1
:100AA000EF90DF90CF90BF90AF909F908F907F900E
:100AB0006F905F904F903F902F9008950F931F93EA
:100AC000CF93DF9300D01F92CDB7DEB78C01E091BA
:100AD000FE12F091FF128681803228F08AE892E0BF
:100AE0000E949F3E04C08AE892E00E94663EF801A0
:100AF0006081718183E992E00E944B3DF80186811B
:100B00004AE0BE016F5F7F4F90E00E946958AE01DE
:100B10004F5F5F4F60EA72E083EA92E00E94733DAC
:100B200080910C0A813059F018F0823079F014C0AD
:100B300067EA72E083EB92E00E944B3D0DC061ECEE
:100B400072E083EB92E00E944B3D06C06DEC72E0D8
:100B500083EB92E00E944B3D0F900F900F900F900F
:100B6000DF91CF911F910F9108952F923F924F9255
:100B70005F926F927F928F929F92AF92BF92CF922D
:100B8000DF92EF92FF920F931F93CF93DF93CDB736
:100B9000DEB7E4970FB6F894DEBF0FBECDBF69ABEA
:100BA0007AAB8BAB9CAB5A0180911B0A90911C0ACB
:100BB00090936C0B80936B0B1092760E0F2EF4E1DA
:100BC0006F2EF02D4A012DE3820E911C7724739431
:100BD000E0916B0BF0916C0B808191810E946651CA
:100BE00086E198E00E946651E091FE12F091FF12BA
:100BF000A0916B0BB0916C0B15968C910480F581D4
:100C0000E02DE80FF11D6082A0916B0BB0916C0B91
:100C1000E091FE12F091FF1215968C9115970480C9
:100C2000F581E02DE80FF11D8081882309F40CC1C6
:100C30008091F812811108C18D919C910E9466519A
:100C400086E198E00E946651E0916B0BF0916C0B8D
:100C5000148280E00E94E250F401C080D180E280E2
:100C6000F38028EE33E040E050E00E94AC55CA012A
:100C7000B9010E940D54A70196010E940F5365010E
:100C80007B018C0120E030E04AEF54E4CA01B90155
:100C90000E943C4CF5018081882369F0C5010E94C7
:100CA000133D8FE99FE00197F1F700C00000F501C7
:100CB00080818111F3CF20E030E0A9016BE680E074
:100CC00090E00E94FD4F80E3E6E0F2E0DE01119645
:100CD00001900D928A95E1F780916D0B90916E0BCA
:100CE000E091FE12F091FF120480F581E02DE80FF3
:100CF000F91F1081880F991F880F991FE1E0F0E01C
:100D0000EC0FFD1FE80FF91F6081718182819381D3
:100D100029A93AA94BA95CA90E947B559B01AC016A
:100D2000A12FB0E00E94DF5524E630E040E050E023
:100D30000E948A5519012A01E0916B0BF0916C0B0E
:100D40008581C1DCE0916B0BF0916C0B85814DDCF2
:100D5000072D01C0082F1091F009F12EF724111171
:100D600068C009F468C08091EC099091ED09A091E8
:100D7000EE09B091EF09AC01BD014F5F5F4F6F4FBE
:100D80007F4F4093EC095093ED096093EE09709307
:100D9000EF09281639064A065B06D0F4E0916B0B82
:100DA000F0916C0B858158DC1092EC091092ED09E2
:100DB0001092EE091092EF098FE99FE00197F1F789
:100DC00000C000000E94EB3B882309F468C06DC09E
:100DD000EFE9FFE03197F1F700C000000E94EB3B24
:100DE000882359F10E94743C8091F812813039F5C2
:100DF000812F32DC1F5F1C30D9F78EE00E942C3D22
:100E0000FFEF27EA81E6F15020408040E1F700C083
:100E100000008091FE129091FF1250DE1092EC09BA
:100E20001092ED091092EE091092EF09F092F0097C
:100E30000BC0802F05C0802F03C0802F01C0802FE2
:100E4000F092F009011186CFE0916B0BF0916C0BE1
:100E50008585968590936C0B80936B0B20911B0A74
:100E600030911C0A8217930709F0B2CE1092F81243
:100E70008091760E813001F58DE00E942C3D62ED6F
:100E800072E08AEE92E00E944B3D9FEFE7EAF1E6C6
:100E90009150E040F040E1F700C000000DC0F0923A
:100EA000F009D2CFF092F009CFCF0E94743C80912C
:100EB000F8128130B9F79CCFE4960FB6F894DEBFF4
:100EC0000FBECDBFDF91CF911F910F91FF90EF909B
:100ED000DF90CF90BF90AF909F908F907F906F905A
:100EE0005F904F903F902F900895CF92DF92EF92B6
:100EF000FF926B017C0185E00E942C3D62EF72E065
:100F00008BE193E00E944B3D2FEF83ED90E3215066
:100F100080409040E1F700C000004091490A5091A4
:100F20004A0AC701B60121DE86E00E942C3D2FEF60
:100F300087EA91E6215080409040E1F700C0000030
:100F400081E00E942C3D8091FE129091FF12B6DD4F
:100F5000FF90EF90DF90CF9008952F923F924F92A5
:100F60005F926F927F928F929F92AF92BF92CF9239
:100F7000DF92EF92FF920F931F93CF93DF93CDB742
:100F8000DEB7CE50D2400FB6F894DEBF0FBECDBF55
:100F90004091620A5091630ADA011D964D905C906F
:100FA0001E978091A50F9091A60FFC010584F685F0
:100FB000E02DC55FDD4FF983E883CB50D2408090B0
:100FC0001B0A90901C0AD4011B962D903C901C97F4
:100FD000A091AE0FB091AF0F1B96ED91FC911C97B5
:100FE000C35FDD4FF983E883CD50D240F40194878D
:100FF0008387FC01968685861C965C934E931B978F
:10100000FA01B687A587FE0131968AE0DF011D92BD
:101010008A95E9F73A9680E092E0DF019C011D9203
:1010200021503040E1F784017F010F2EF4E1CF2EF3
:10103000D12CF02D0F2EFDE2AF2EB12CF02D0F2E66
:10104000F8E26F2E712CF02DD80116968C91169720
:10105000882309F443C06D917C91C7010E942758F1
:1010600080E090E008C0F70101900020E9F7319797
:10107000B182A0820196F801A081B181FD010190A9
:101080000020E9F73197EA1BFB0B96012E1B3F0B63
:101090008217930740F3F70101900020E9F7319799
:1010A00071826082D80116968C914AE0BE016F5F12
:1010B0007F4F90E00E946958BE016F5F7F4FC7016C
:1010C0000E942758D7010D900020E9F7119785E07D
:1010D000E6E2F3E001900D928A95E1F7F8010585CB
:1010E00016858016910609F0AFCFBE01655F7F4F70
:1010F0008BE293E00E944B3DE091620AF091630A1B
:1011000056864586E0911B0AF0911C0A3486238698
:10111000E091AE0FF091AF0FC35FDD4F28813981B1
:10112000CD50D24034872387E091A50FF091A60FD0
:10113000C55FDD4F88819981CB50D24094878387EA
:10114000C25FDD4F0FB6F894DEBF0FBECDBFDF919B
:10115000CF911F910F91FF90EF90DF90CF90BF90B4
:10116000AF909F908F907F906F905F904F903F9047
:101170002F9008952F923F925F926F927F928F925D
:101180009F92AF92BF92CF92DF92EF92FF920F9316
:101190001F93CF93DF93CDB7DEB7C354D1090FB6FA
:1011A000F894DEBF0FBECDBF6091620A7091630AF2
:1011B000DB011D960D90BC91A02DBDAFACAF209171
:1011C000A50F3091A60FF9010584F685E02DFFAF3C
:1011D000EEAFC0901B0AD0901C0AD6011B960D9052
:1011E000BC91A02D2296BFAFAEAF2297A091AE0FBB
:1011F000B091AF0F1B96ED91FC911C972496FFAF19
:10120000EEAF2497F60134872387F901D686C58689
:101210001C967C936E931B97FB01B687A5874AE0CB
:101220008E010F5F1F4FB80190E00E946958D801EE
:101230000D900020E9F7119785E0E5E1F6E00190D7
:101240000D928A95E1F7B80180E00E9441458AE35A
:101250009DE09CAB8BAB8AE090E09EAB8DABBE017A
:101260006D5C7F4F86E79CE00E941D587C01892BB6
:1012700009F410C11E01F3E32F0E311C0F2EF5E00F
:101280007F2EF02D5E0127E3A20EB11C8A2C9B2C31
:1012900068E373E0C7010E943258892B79F4B101E9
:1012A00080E090E00E941D587C01E091FE12F091D8
:1012B000FF12BC01808191810E943B586DE373E075
:1012C000C7010E943258892B09F09BC0B10180E010
:1012D00090E00E941D587C018601E091FE12F09181
:1012E000FF12D80115968C9115970480F581E02D99
:1012F000E80FF11D108216961C9216971D960D91FF
:101300001C911E97F501272D11922A95E9F7E0917E
:10131000FE12F091FF12D80115968C910480F58190
:10132000E02DE80FF11D80814AE0682D792D90E0D5
:101330000E94695884E493E00E946651882D992D9B
:101340000E94665186E198E00E946651F80186810C
:101350004AE0682D792D90E00E9469588EE493E070
:101360000E946651882D992D0E94665186E198E071
:101370000E946651C016D10609F0AFCF89E593E00F
:101380000E946651D7018C918B33D9F1522C632C7A
:101390008601F80160817181C7010E943258892B52
:1013A000E9F4652D762D80E090E00E941D587C01C7
:1013B0000E940058D80116968C931697E091FE1261
:1013C000F091FF1215968C9104811581080F111D63
:1013D000C7010E940058F80180838601D8011D963C
:1013E0000D911C911E97C016D10699F6652D762D8C
:1013F00080E090E00E941D587C01FC0180818B33CD
:1014000039F66DE573E0C7010E943258892B79F4F3
:10141000B10180E090E00E941D587C010091FE1215
:101420001091FF120E940058D80112968C9365E625
:1014300073E0C7010E943258892B71F4B10180E03A
:1014400090E00E941D587C010091FE121091FF1245
:101450000E940058F801838362E773E0C7010E948D
:101460003258892B71F4B10180E090E00E941D5840
:101470000091FE121091FF120E940058D80116969A
:101480008C93B10180E090E00E941D587C01892B73
:1014900009F0FECEE091620AF091630A2CAD3DADF9
:1014A00036872587E0911B0AF0911C0A22964EADE3
:1014B0005FAD229754874387E091AE0FF091AF0F55
:1014C00024968EAD9FAD249794878387E091A50FD6
:1014D000F091A60FAEADBFADB487A387CD5BDF4F54
:1014E0000FB6F894DEBF0FBECDBFDF91CF911F9135
:1014F0000F91FF90EF90DF90CF90BF90AF909F90B3
:101500008F907F906F905F903F902F900895CF9332
:10151000DF93E0914B0AF0914C0A0190F081E02DAD
:10152000882339F090E00380F481E02D9F5F8913D8
:10153000FACFF093500AE0934F0A80811BDEE091CE
:10154000FE12F091FF12808191810E94665186E126
:1015500098E00E94665110927D0E10925C0AC09134
:101560001B0AD0911C0A1092560A1092550A10922A
:10157000700B10926F0BCE010E942236BC0185E5E4
:101580009AE00E9431369093560A8093550ADC0106
:10159000ED91FC91808191810E94665186E198E0F5
:1015A0000E9466518091550A9091560A909350136B
:1015B00080934F1389E00E942C3D67E773E0CE01D2
:1015C000BCD89093010A8093000A0E942236BC0185
:1015D00085E59AE00E9431369093560A8093550A29
:1015E000DF91CF910895E0914B0AF0914C0A019060
:1015F000F081E02D882339F090E00380F481E02D24
:101600009F5F8913FACF8081B5DDE091FE12F091E2
:10161000FF12808191810E94665186E198E00E94CC
:10162000665110927D0E10925C0A0895EF92FF921F
:101630000F931F93CF93DF93CDB7DEB7C550D24042
:101640000FB6F894DEBF0FBECDBFE091FA09F0915E
:10165000FB09F093500AE0934F0A2091C21290E0E8
:10166000820F911D1816190674F420E030E00380F3
:10167000F481E02D2F5F3F4F28173907C1F7F09312
:10168000500AE0934F0AE0914F0AF091500A80818E
:1016900071DD8E010F5F1F4F80E092E0F8019C0129
:1016A000119221503040E1F7D8010D900020E9F768
:1016B000119780E1EDE7F3E001900D928A95E1F753
:1016C0007E013FEFE31A3DEFF30A85E0F701119247
:1016D0008A95E9F7E091690BF0916A0B828190E0BD
:1016E0004AE0B70101960E946958B701C8010E94FB
:1016F0002758F80101900020E9F731978AE390E03C
:1017000091838083E091FE12F091FF1260817181DC
:10171000C8010E942758C8010E949251C8010E9426
:101720006651E091FE12F091FF1260817181E091AB
:10173000690BF0916A0B808191810E943B5889E18D
:101740000E942C3D88E0EDE8F3E0D80101900D9275
:101750008A95E1F7E091690BF0916A0B82814AE08A
:10176000B70190E00E946958B701C8010E9427584C
:10177000D8010D900020E9F7119788E0E5E9F3E042
:1017800001900D928A95E1F7E091690BF0916A0B57
:1017900060817181C8010E942758D8010D900020F6
:1017A000E9F7119780E1EDE9F3E001900D928A9558
:1017B000E1F7B8018DEA93E00E944B3DFFEF27EA85
:1017C00031E6F15020403040E1F700C0000081E0F8
:1017D0000E942C3D8091FE129091FF126FD9CB5F39
:1017E000DD4F0FB6F894DEBF0FBECDBFDF91CF91B6
:1017F0001F910F91FF90EF9008955F926F927F92EB
:101800008F929F92AF92BF92CF92DF92EF92FF9210
:101810000F931F93CF93DF93CDB7DEB7E7970FB644
:10182000F894DEBF0FBECDBF682E792E4B01A0907D
:10183000FA09B090FB09C090530AD090540AFE01F7
:10184000319682E3DF011D928A95E9F7F29685E0F1
:10185000DF011D928A95E9F7062D192FE12CF12C55
:1018600055245394A016B10631F480915C0A81117D
:1018700002C050927D0EF80180817CDCE091FE1266
:10188000F091FF12808191810E94665186E198E07B
:101890000E946651FFEFEF1AFF0A4AE0BE016D5C3D
:1018A0007F4FC7010E946958B401CE0101960E9482
:1018B0003B58BE016D5C7F4FCE0101960E942758B8
:1018C000CE0101960E942D3EC016D10689F480916A
:1018D0005C0A811111C050925C0AE091FE12F091F5
:1018E000FF1260817181CE0101960E944B3D1FC0A5
:1018F00080915C0A882389F065E075E0CE0101964D
:101900000E944B3D8FE39CE90197F1F700C0000076
:10191000CE0101960E94F43D0AC0E091FE12F091C2
:10192000FF1260817181CE0101960E944B3DD8016A
:1019300013960D911C911497B6E0EB16F10429F45F
:1019400080915C0A813051F407C0EFE3FCE93197E4
:10195000F1F700C0000086CF062D172DC801E796CD
:101960000FB6F894DEBF0FBECDBFDF91CF911F91B0
:101970000F91FF90EF90DF90CF90BF90AF909F902E
:101980008F907F906F905F900895CF93DF93CDB746
:10199000DEB7E2970FB6F894DEBF0FBECDBFE09181
:1019A0004F0AF091500A0180F281E02DF093500A25
:1019B000E0934F0ABE016F5F7F4F82E3DB011D9210
:1019C0008A95E9F780814AE090E00E946958E091A9
:1019D0004F0AF091500A8081CDDBE2960FB6F89461
:1019E000DEBF0FBECDBFDF91CF910895CF93DF93C0
:1019F000CDB7DEB7E2970FB6F894DEBF0FBECDBF0E
:101A0000E0914F0AF091500A0380F481E02DF093A9
:101A1000500AE0934F0ABE016F5F7F4F82E3DB0104
:101A20001D928A95E9F780814AE090E00E9469580A
:101A3000E0914F0AF091500A80819CDBE2960FB64C
:101A4000F894DEBF0FBECDBFDF91CF910895109205
:101A5000B81110926E0B10926D0B0E948A4A8093FF
:101A6000B911882309F44DC020916D0B30916E0B94
:101A70002F5F3F4F30936E0B20936D0B2A30310553
:101A800060F348C08AED93E00E9466518091B911DD
:101A9000823021F482EF93E00E9466518FE00E9431
:101AA0002C3D60E174E08DEA93E00E944B3D13C051
:101AB00082E694E00E9466510EC08EE894E00E9497
:101AC000665109C08CEA94E00E94665104C088ED1A
:101AD00094E00E9466518FE99FE00197F1F700C002
:101AE000000081E08093F9120E9482408093B91136
:101AF0008823A1F083EF94E00E9466511092F912BE
:101B000008958091B8118230C1F28330D9F28130CA
:101B1000F1F6CECF813009F0B9CFB4CF08952F922E
:101B20003F924F925F926F927F928F929F92AF926D
:101B3000BF92CF92DF92EF92FF920F931F93CF93BA
:101B4000DF93CDB7DEB7CE51D2400FB6F894DEBFEB
:101B50000FBECDBFC45EDD4F8883CC51D240C35E83
:101B6000DD4F4883CD51D240C25EDD4F2883CE5138
:101B7000D2404091620A5091630ADA011D966D903D
:101B80007C901E978091A50F9091A60FFC01458433
:101B90005684E0901B0AF0901C0AD7011B962D90EA
:101BA0003C901C97A091AE0FB091AF0F1B96ED919A
:101BB000FC911C97C65EDD4FF983E883CA51D24081
:101BC000F70194878387FC01F686E5861C965C9373
:101BD0004E931B97FA01B687A5878E010F5F1F4FA3
:101BE00080E092E0D801FC011D923197E9F7D8011D
:101BF0000D900020E9F7119786E0E6E0F5E001900E
:101C00000D928A95E1F7C8010E942758D8010D90DE
:101C10000020E9F711978AE0ECE0F5E001900D92E1
:101C20008A95E1F7FE01EF5FFD4F85E0DF011D9230
:101C30008A95E9F78701F2506F010F2EFAE38F2E94
:101C4000912CF02D0F2EFDE0AF2EB12CF02DD801F0
:101C500016968C911697882369F18D919C910E941C
:101C60006651F80160817181C6010E942758F60112
:101C700001900020E9F7319791828082D801169671
:101C80008C914AE0BE016F5F7D4F90E00E946958E1
:101C9000BE016F5F7D4FC6010E942758F60101907B
:101CA0000020E9F73197B182A082CE018F5F9D4F6E
:101CB0000E946651F80105851685E016F10639F691
:101CC0008E010F5F1F4FF80101900020E9F7319757
:101CD0008BE39DE0918380831282D8010D900020D8
:101CE000E9F7119789E0E7E4F7E001900D928A9512
:101CF000E1F74AE0BE016F5F7D4FC35EDD4FF881C3
:101D0000CD51D2408F2F90E00E946958BE016F5F85
:101D10007D4FC8010E942758F80101900020E9F783
:101D200031970F2EFDE0EF2EF12CF02DF182E082A5
:101D3000D8010D900020E9F711978EE0E1E5F7E07A
:101D400001900D928A95E1F74AE0BE016F5F7D4FE9
:101D5000C25EDD4F2881CE51D240822F90E00E949A
:101D60006958BE016F5F7D4FC8010E942758F80176
:101D700001900020E9F73197F182E082D8010D90BF
:101D80000020E9F7119786E0E6E1F5E001900D9279
:101D90008A95E1F7E091FE12F091FF128681803280
:101DA00071F04AE0BE016B5E7D4F90E00E94695881
:101DB000BE016B5E7D4FC8010E9427580BC0FE011B
:101DC000319601900020E9F7319783E392E3918304
:101DD00080831282CE0101967C01FC0101900020DB
:101DE000E9F731978EE790E0918380838E010A5F57
:101DF0001D4F8FE0D8011D928A95E9F74AE0B8019E
:101E0000C45EDD4FB881CC51D2408B2F90E00E9450
:101E10006958D8010D900020E9F7119785E0E5E1B8
:101E2000F6E001900D928A95E1F7B701C8010E9492
:101E30001C46E091620AF091630A76866586E0911D
:101E4000A50FF091A60F56864586E0911B0AF091EA
:101E50001C0A34862386E091AE0FF091AF0FC65E68
:101E6000DD4F28813981CA51D24034872387C25E31
:101E7000DD4F0FB6F894DEBF0FBECDBFDF91CF911F
:101E80001F910F91FF90EF90DF90CF90BF90AF9098
:101E90009F908F907F906F905F904F903F902F908A
:101EA00008950F931F93CF93DF93CDB7DEB7649759
:101EB0000FB6F894DEBF0FBECDBF8E010F5F1F4F70
:101EC00094E1F80111929A95E9F74AE0B80190E09F
:101ED0000E946958D8010D900020E9F7119785E01C
:101EE000E5E1F6E001900D928A95E1F7C8010E94C4
:101EF000104664960FB6F894DEBF0FBECDBFDF91DB
:101F0000CF911F910F910895EF92FF920F931F931E
:101F1000CF93DF93CDB7DEB7A1970FB6F894DEBFAE
:101F20000FBECDBF8E010F5F1F4F95E1F8011192DB
:101F30009A95E9F77E01F6E1EF0EF11C95E0F701C5
:101F400011929A95E9F72AE530E03A8329834AE02D
:101F5000B70190E00E946958B701C8010E94275854
:101F6000D8010D900020E9F7119785E0E5E1F6E052
:101F700001900D928A95E1F7B80180E00E944145F9
:101F800087E0ECE1F5E0DE015B9601900D928A9529
:101F9000E1F7BE01655E7F4F86E79CE00E941D5819
:101FA0008C01892B09F450C068E373E0C8010E94DA
:101FB0003258892B89F4BE01655E7F4F80E090E046
:101FC0000E941D588C01E091190AF0911A0ABC0177
:101FD000808191810E943B586DE573E0C8010E94A9
:101FE0003258892B81F4BE01655E7F4F80E090E01E
:101FF0000E941D588C01E090190AF0901A0A0E9464
:102000000058F701828365E673E0C8010E943258E8
:10201000892B79F4BE01655E7F4F80E090E00E94DD
:102020001D580091190A10911A0A0E940058F801CF
:102030008383BE01655E7F4F80E090E00E941D5863
:102040008C01892B09F0B0CFA1960FB6F894DEBFB2
:102050000FBECDBFDF91CF911F910F91FF90EF90F9
:1020600008952F923F924F925F926F927F928F923C
:102070009F92AF92BF92CF92DF92EF92FF920F9317
:102080001F93CF93DF93CDB7DEB7CF56D1090FB6ED
:10209000F894DEBF0FBECDBFAF966FAFAF97E0969F
:1020A0007FAFE097AC965FAF4EAFAC978093A90F30
:1020B000811115C083E295E00E949F3E8091A90F97
:1020C00081110DC080918B0F90918C0FAE969FAFB8
:1020D0008EAFAE97A090850FB090860F0CC0A091E8
:1020E000C012B091C112AE96BFAFAEAFAE97A09086
:1020F000FE09B090FF0982E3FE013196DF01982FBF
:102100001D929A95E9F7F29695E0DF011D929A9556
:10211000E9F73596DF011D928A95E9F7AF960FAD85
:10212000AF97E0961FADE097612C712C1F01AE9622
:10213000EEADFFADAE97E017F10739F480915C0A80
:10214000811103C0F1E0F0937D0ED8018C91DCDEAB
:10215000E091190AF0911A0A808191810E946651DA
:1021600086E198E00E946651E091190AF0911A0AFE
:1021700093818091A90F981799F0A016B10609F4E0
:102180002DC1F80103811481D8018C91BDDEE0914D
:10219000190AF0911A0A93818091A90F9813EDCF33
:1021A000BFEF6B1A7B0A4AE0BE016D5C7F4FC30133
:1021B0000E946958AC966EAD7FADAC97CE0101968A
:1021C0000E943B58BE016D5C7F4FCE0101960E947C
:1021D0002758CE0101960E942D3EA016B10641F56A
:1021E00080915C0A811128C0E1E0E0935C0AE091F3
:1021F000190AF0911A0A93818091A90F981307C0C8
:1022000060817181CE0101960E944B3D30C065E036
:1022100075E0CE0101960E944B3D8FE39CE901974A
:10222000F1F700C00000CE0101960E94F43D1FC0EE
:1022300080915C0A882389F065E075E0CE01019603
:102240000E944B3DAFE3BCE91197F1F700C00000DD
:10225000CE0101960E94F43D0AC0E091190AF09166
:102260001A0A60817181CE0101960E944B3D0000E7
:102270008091A90F811140C0E091190AF0911A0ACA
:1022800060817181E0916B0BF0916C0B8081918189
:102290000E943258892BC1F4BE016F5F7F4FC1018C
:1022A0000E943B58D1010D900020E9F711978AE078
:1022B000E6E2F5E001900D928A95E1F7C1010E94F6
:1022C0007C510E94163D69C0BE016F5F7F4FC10106
:1022D0000E943B58D1010D900020E9F7119787E04B
:1022E000E0E3F5E001900D928A95E1F7C1010E94CB
:1022F0007C510E94163D51C08090AE0F9090AF0F60
:102300009092BB118092BA114090190A50901A0A0B
:10231000E090BA11F090BB11F701C080D180B601F6
:10232000D2018D919C910E943258892B59F5C6019A
:102330000E94665186E198E00E946651E091190A78
:10234000F0911A0A808191810E94665186E198E09D
:102350000E946651BE016F5F7F4FC1010E943B58D2
:10236000D1010D900020E9F711978AE0E6E2F5E04F
:1023700001900D928A95E1F7C1010E947C510E9463
:10238000163D0BC0F701858596859093BB11809310
:10239000BA118816990609F0BBCFD80113960D9192
:1023A0001C9114970000B6E06B16710421F4809123
:1023B0005C0A882361F0EFE3FCE93197F1F700C094
:1023C0000000F6E06F16710409F0B1CE28C0AF9698
:1023D0000FAFAF97E0961FAFE09721C0D8018C9167
:1023E00093DDBFEF6B1A7B0A4AE0BE016D5C7F4F45
:1023F000C3010E946958AC966EAD7FADAC97CE011B
:1024000001960E943B58BE016D5C7F4FCE01019644
:102410000E942758CE0101960E942D3EE1CEAF9634
:102420008FADAF97E0969FADE097C159DF4F0FB6E4
:10243000F894DEBF0FBECDBFDF91CF911F910F91FA
:10244000FF90EF90DF90CF90BF90AF909F908F90D4
:102450007F906F905F904F903F902F900895CF9214
:10246000DF92EF92FF920F931F93CF93DF93CDB73D
:10247000DEB7EC970FB6F894DEBF0FBECDBF8091EC
:102480001B0A90911C0A90936C0B80936B0B00E0DD
:1024900010E00F2EF2E6CF2ED12CF02DCE010196BA
:1024A0007C01DA82C9824AE0BE016D5C7F4FC801BF
:1024B0000E946958BE016D5C7F4FC7010E9427587A
:1024C000E0916B0BF0916C0B8281813089F018F0F8
:1024D0008230D9F026C0D7010D900020E9F711977E
:1024E00087E0E0E3F5E001900D928A95E1F719C0ED
:1024F000D7010D900020E9F711978AE0E6E2F5E0B8
:1025000001900D928A95E1F70CC0D7010D90002043
:10251000E9F711978BE0E7E3F5E001900D928A95DA
:10252000E1F7C7010E947C510E94163DE0916B0BC0
:10253000F0916C0B8585968590936C0B80936B0B5B
:102540000F5F1F4F0C30110509F0ABCFEC960FB6A3
:10255000F894DEBF0FBECDBFDF91CF911F910F91D9
:10256000FF90EF90DF90CF900895A0911B0AB0915B
:102570001C0AB0936C0BA0936B0BE091AE0FF09123
:10258000AF0FF093BB11E093BA1190E01816190643
:10259000B4F420E030E01D960D90BC91A02D058490
:1025A000F685E02D2F5F3F4F28173907A1F7B0932D
:1025B0006C0BA0936B0BF093BB11E093BA110895D1
:1025C000AF92BF92CF92DF92EF92FF920F931F9341
:1025D000CF93DF93CDB7DEB7C550D2400FB6F89496
:1025E000DEBF0FBECDBFFE01319680E092E0DF017D
:1025F0009C011D9221503040E1F78091FA099091A1
:10260000FB099093500A80934F0AFC0100E00F5F92
:102610000380F481E02D8E179F07C9F7CE01019644
:102620007C01DC010D900020E9F7119780E1E2E4E4
:10263000F5E001900D928A95E1F76E019FEFC91ABE
:102640009DEFD90A85E0D6011D928A95E9F710E041
:102650004AE0B601C8010E946958B601C7010E944C
:102660002758F70101900020E9F731978AE390E0BD
:1026700091838083E091FA09F091FB09F093500A6D
:10268000E0934F0A80810E94BA08E091FE12F09117
:10269000FF1260817181C7010E942758E0914F0AA3
:1026A000F091500A838194819093500A80934F0A4D
:1026B00001501109101611068CF5E12CF12CFE01C8
:1026C00031966F010F2EFCE2AF2EB12CF02DF601EA
:1026D00001900020E9F73197B182A082E0914F0A82
:1026E000F091500A80810E94BA08E091FE12F091A8
:1026F000FF1260817181C6010E942758E0914F0A44
:10270000F091500A838194819093500A80934F0AEC
:10271000FFEFEF1AFF0AE016F106CCF28E010F5F11
:102720001F4FF80101900020E9F731978AE390E00C
:1027300091838083C8010E946651C8010E94925112
:10274000CB5FDD4F0FB6F894DEBF0FBECDBFDF917C
:10275000CF911F910F91FF90EF90DF90CF90BF909E
:10276000AF9008959F92AF92BF92CF92DF92EF9277
:10277000FF920F931F93CF93DF93CDB7DEB7CA506D
:10278000D4400FB6F894DEBF0FBECDBF80E092E01C
:10279000FE013196DF019C011D9221503040E1F78E
:1027A000DE01AF5FBD4FFD019C0111922150304011
:1027B000E1F79E012F5F3B4F8AE0F90111928A9564
:1027C000E9F780911B0A90911C0A90936C0B8093FF
:1027D0006B0B89E0E2E5F5E001900D928A95E1F757
:1027E000AA24A394B12C345079010F2EFCE2CF2EF1
:1027F000D12CF02D912CE0916B0BF0916C0B0081A2
:102800001181B8018BE595E00E943258892BA9F01F
:1028100031E0A31206C0B801C7010E942758A92CB5
:102820000BC0F70101900020E9F73197D182C082F7
:10283000B801C7010E942758B394E0916B0BF09147
:102840006C0B8585968590936C0B80936B0B209118
:102850001B0A30911C0A8217930769F64AE0BE01F1
:102860006F5F7B4F8B2D90E00E9469588E010F5F48
:102870001D4FBE016F5F7B4FC8010E942758F801B2
:1028800001900020E9F731978AE390E091838083FB
:10289000BE016F5F7F4FC8010E942758C8010E9488
:1028A0009251C8010E946651C65FDB4F0FB6F89483
:1028B000DEBF0FBECDBFDF91CF911F910F91FF9073
:1028C000EF90DF90CF90BF90AF909F9008950F93BF
:1028D0001F93CF93DF93CDB7DEB7C450D1400FB66F
:1028E000F894DEBF0FBECDBF0E94873C8823E1F382
:1028F0008E010F5F1F4F80E091E0F8019C01119263
:1029000021503040E1F78CE29AE3CF5FDE4F9983AC
:102910008883C150D1408DE090E0CD5FDE4F998338
:102920008883C350D14066E576E1C8010E943B58D8
:10293000BE016F5F7E4FC8010E941D588C0182E767
:1029400095E00E946651C8010E946651E091FA0923
:10295000F091FB09F093500AE0934F0A80810E94A6
:10296000BA0812C0E0914F0AF091500A0380F48136
:10297000E02DF093500AE0934F0A80810E94BA083C
:102980008EE795E00E946651E091FE12F091FF12F1
:10299000B801808191810E943258892B19F784E017
:1029A0000E942C3DCC5FDE4F0FB6F894DEBF0FBE09
:1029B000CDBFDF91CF911F910F9108952F923F923C
:1029C0004F925F926F927F928F929F92AF92BF923F
:1029D000CF92DF92EF92FF920F931F93CF93DF93EB
:1029E000CDB7DEB7C154D2400FB6F894DEBF0FBEEC
:1029F000CDBF0E94873C8823E1F386E596E10E94E3
:102A0000665180E091E09E012F5F3F4F7901D9012F
:102A1000FC011D923197E9F78E010F5F1E4FD8011F
:102A2000FC011D923197E9F78CE29AE3CF5FDD4F0D
:102A300099838883C150D2408DE090E0CD5FDD4F17
:102A400099838883C350D24066E576E1C9010E942C
:102A50003B58BE016F5F7D4FC7010E941D587C012E
:102A600085E895E00E946651C7010E946651D80131
:102A70000D900020E9F7119786E0E6E0F5E001907F
:102A80000D928A95E1F7B701C8010E942758D80135
:102A90000D900020E9F711978AE0ECE0F5E0019055
:102AA0000D928A95E1F7FE01EB5FFD4F84E1DF01B6
:102AB0001D928A95E9F7749685E1DF011D928A954A
:102AC000E9F7C12CD12C312C48010F2EFAE36F2EDF
:102AD000712CF02D0F2EFDE04F2E512CF02D2224C5
:102AE00023948DE895E00E946651EFEFCE1ADE0A3E
:102AF0004AE0BE016B5F7D4FC6010E946958CE015E
:102B00008B5F9D4F0E94665183E598E00E9466515D
:102B1000BE016F5F7D4F80E090E00E941D588C01E8
:102B20000E946651B801CE01875E9D4F0E943B58BE
:102B300084E995E00E9466514AE0BE016B5F7D4FDB
:102B4000C6010E946958CE018B5F9D4F0E9466515D
:102B500083E598E00E946651BE016F5F7D4F80E083
:102B600090E00E941D585C010E940058181619063A
:102B70000CF045C080911B0A90911C0A90936C0B3D
:102B800080936B0B0F2EFCE0EF2EF12CF02D0091BB
:102B90006B0B10916C0BBE01675E7D4FD8018D9160
:102BA0009C910E943258892B29F4F801838181304D
:102BB00009F4322CD8011D968D919C911E9790930B
:102BC0006C0B80936B0BB1E0EB1AF10801F7BE01BF
:102BD000675E7D4FC4010E942758F40101900020D8
:102BE000E9F7319771826082B501C4010E942758CC
:102BF000F40101900020E9F7319751824082C5012C
:102C00000E946651EFEFF3EC29E0E150F0402040E4
:102C1000E1F700C000003CE0C316D10409F061CF29
:102C20008E010F5F1E4FF80101900020E9F73197E8
:102C30008BE39DE0918380831282D8010D90002068
:102C4000E9F7119789E0E7E4F7E001900D928A95A2
:102C5000E1F74AE0BE016B5F7D4F832D90E00E945B
:102C60006958BE016B5F7D4FC8010E942758D8018B
:102C70000D900020E9F7119789E0EBE9F5E001906C
:102C80000D928A95E1F7F80101900020E9F731975C
:102C90008EE790E091838083C8010E9466517E0197
:102CA00082EDE81A8DEFF80A84E1D7011D928A952A
:102CB000E9F7E091530AF091540A808190E04AE0EC
:102CC000BE016B5F7D4F01960E946958BE016B5F2C
:102CD0007D4FC7010E943B58D7010D900020E9F7B6
:102CE000119785E0E5E1F6E001900D928A95E1F714
:102CF000B801C7010E941C46C7010E946651E091BD
:102D0000080AF091090A80818F5F0E94A331BC01FB
:102D100083E59AE00E94BB319093540A8093530A52
:102D2000CF5BDD4F0FB6F894DEBF0FBECDBFDF9196
:102D3000CF911F910F91FF90EF90DF90CF90BF90B8
:102D4000AF909F908F907F906F905F904F903F904B
:102D50002F9008951092540A1092530A1092FB0972
:102D60001092FA09089589E10E942C3D64EA75E009
:102D70008DEA93E00E944B3DEDDF80914D0A9091EA
:102D80004E0A9093600A80935F0AE0915F0AF09187
:102D9000600A80810E943F30882381F0E0915F0AC1
:102DA000F091600A80810E94A331BC0183E59AE022
:102DB0000E94BB319093540A8093530AE0915F0ABA
:102DC000F091600A838194819093600A80935F0AF6
:102DD00020914D0A30914E0A82179307B1F6E09187
:102DE000FA09F091FB09F093500AE0934F0A8081B1
:102DF0000E94BA0881E00C942C3D0895CF92DF9296
:102E0000EF92FF920F931F93CF93DF93CDB7DEB76F
:102E1000CA51D2400FB6F894DEBF0FBECDBF89E1D4
:102E20000E942C3D67EF75E08DEA93E00E944B3DD8
:102E30002FEF37EA81E6215030408040E1F700C0B3
:102E400000001A8219821092720B1092710BFE010F
:102E5000339680E092E0DF019C011D9221503040CA
:102E6000E1F7F12C0F2D10E08091710B9091720B16
:102E7000800F911F0E94A458A3E0B0E0AC0FBD1FCB
:102E80000A0F1B1FF80180838983CE0101960E94DF
:102E90006651F394D8018C918E3721F78E010D5F26
:102EA0001D4F84E1F80111928A95E9F786E0E4E18B
:102EB000F6E0D80101900D928A95E1F7C8010E94D1
:102EC000104686E0E4E1F6E0D80101900D928A9583
:102ED000E1F7BE016D5F7F4FC8010E941C468CE286
:102EE0009DE0C95EDD4F99838883C751D2408AE057
:102EF00090E0C75EDD4F99838883C951D2408091AD
:102F00001B0A90911C0A90936C0B80936B0BD12C35
:102F1000CC24C394DD2041F0BE01695E7D4F80E08A
:102F200090E00E941D5808C0BE01695E7D4FCE0131
:102F300003960E941D58DC2CE0916B0BF0916C0BFA
:102F4000BC01808191810E943B58E0916B0BF09114
:102F50006C0B808191810E946651BE01695E7D4F3C
:102F600080E090E00E941D588C010E946651E09024
:102F70006B0BF0906C0BC8010E940058D7011296A1
:102F80008C93BE01695E7D4F80E090E00E941D58E9
:102F900000916B0B10916C0B0E940058F801838319
:102FA000BE01695E7D4F80E090E00E941D58009157
:102FB0006B0B10916C0B0E940058D80114968C93E7
:102FC00014971D968D919C911E9790936C0B8093F6
:102FD0006B0B20911B0A30911C0A8217930709F092
:102FE00099CFC1DE81E00E942C3DE091FA09F09179
:102FF000FB09F093500AE0934F0A80810E94BA08BF
:103000008091FE129091FF120E945E05C65EDD4F18
:103010000FB6F894DEBF0FBECDBFDF91CF911F91E9
:103020000F91FF90EF90DF90CF900895AF92BF92F5
:10303000CF92DF92EF92FF920F931F93CF93DF9384
:10304000CDB7DEB72A970FB6F894DEBF0FBECDBF5F
:103050008C01FE0131968AE0DF011D928A95E9F725
:1030600080911B0A90911C0A90936C0B80936B0BC0
:10307000E12CF12C0F2EFCE2CF2ED12CF02D0F2EB7
:10308000FDE0AF2EB12CF02DE114F10451F0E091F0
:103090006B0BF0916C0B60817181C8010E94275805
:1030A00009C0E0916B0BF0916C0B60817181C801DC
:1030B0000E943B58F80101900020E9F73197D18236
:1030C000C082E0916B0BF0916C0B82814AE0BE01F3
:1030D0006F5F7F4F90E00E946958BE016F5F7F4F26
:1030E000C8010E942758F80101900020E9F73197A4
:1030F000D182C082E0916B0BF0916C0B83814AE02E
:10310000BE016F5F7F4F90E00E946958BE016F5F04
:103110007F4FC8010E942758F80101900020E9F76D
:103120003197D182C082E0916B0BF0916C0B84815E
:103130004AE0BE016F5F7F4F90E00E946958BE0178
:103140006F5F7F4FC8010E942758F801019000204F
:10315000E9F73197B182A082E0916B0BF0916C0B93
:103160008585968590936C0B80936B0BBFEFEB1A64
:10317000FB0A8CE0E816F10409F086CFF801019013
:103180000020E9F731978BE39DE0918380831282E1
:103190008091AE0F9091AF0F9093BB118093BA11B5
:1031A0000F2EFCE0CF2ED12CF02D0F2EFCE2EF2EB7
:1031B000F12CF02D0F2EFDE0AF2EB12CF02DE09173
:1031C000BA11F091BB1160817181C8010E9427582A
:1031D000F80101900020E9F73197F182E082E09157
:1031E000BA11F091BB1182814AE0BE016F5F7F4F3F
:1031F00090E00E946958BE016F5F7F4FC8010E9436
:103200002758F80101900020E9F73197F182E08218
:10321000E091BA11F091BB1183814AE0BE016F5F6A
:103220007F4F90E00E946958BE016F5F7F4FC801D9
:103230000E942758F80101900020E9F73197F182A8
:10324000E082E091BA11F091BB1184814AE0BE01A5
:103250006F5F7F4F90E00E946958BE016F5F7F4FA4
:10326000C8010E9427582091BA113091BB1180915A
:10327000A50F9091A60F2817390741F0F80101908A
:103280000020E9F73197B182A0820CC0D8010D90DF
:103290000020E9F7119785E0EAE1F6E001900D9250
:1032A0008A95E1F7E091BA11F091BB118585968579
:1032B0009093BB118093BA11A1E0CA1AD10809F00A
:1032C0007ECFC8010E9466512A960FB6F894DEBFE1
:1032D0000FBECDBFDF91CF911F910F91FF90EF9067
:1032E000DF90CF90BF90AF900895FF920F931F9300
:1032F000CF93DF93CDB7DEB7CF55D2400FB6F8945A
:10330000DEBF0FBECDBF182F062FFE01319682E320
:10331000DF011D928A95E9F7F29685E0DF011D92A3
:103320008A95E9F71630C1F4E0916B0BF0916C0BC4
:10333000A081B18188E0EBE5F5E001900D928A95DE
:10334000E1F7E0916B0BF0916C0B138214826283B6
:1033500083E10E942C3D2AC0173011F5E091190A33
:10336000F0911A0A60817181E0916B0BF0916C0B06
:10337000808191810E943B58E0916B0BF0916C0B26
:10338000A091190AB0911A0A12968C911297838310
:1033900013968C918483028383E10E942C3D49C063
:1033A000183021F483E10E942C3D43C0163008F010
:1033B00040C083E10E942C3DE091110AF091120A75
:1033C0000190F081E02DF093480AE093470A112321
:1033D00059F080E00380F481E02D8F5F1813FACF5D
:1033E000F093480AE093470AE091470AF091480AAF
:1033F00080810E94840FE091190AF0911A0A60817D
:103400007181E0916B0BF0916C0B808191810E9436
:103410003B58E0916B0BF0916C0B0283A091190A61
:10342000B0911A0A12968C911297838313968C91FD
:1034300084838EE492E79A8389838EE290E09C8372
:103440008B83E0916B0BF0916C0B858190E04AE0EF
:10345000BE016D5C7F4F01960E946958BE016D5C94
:103460007F4F8E010F5F1F4FC8010E942758F80140
:1034700001900020E9F7319780E29DE391838083FA
:1034800080E290E093838283E0916B0BF0916C0B70
:1034900060817181C8010E942758B8018FE196E0D0
:1034A0000E944B3D0E942F1210927D0E10925C0ADA
:1034B0000F2EF4E1FF2EF02DCE01C896FC012F2D2A
:1034C00011922A95E9F726E0E4E1F6E0DC010190AB
:1034D0000D922A95E1F70E941046055B1F4F80E090
:1034E00092E0D801FC011D923197E9F7C8019EDDF9
:1034F000CE01845B9D4FDC011D92FA94E9F726E032
:10350000E4E1F6E0DC0101900D922A95E1F7B801C3
:103510000E941C46C15ADD4F0FB6F894DEBF0FBEA5
:10352000CDBFDF91CF911F910F91FF900895CF9262
:10353000DF92FF920F931F93CF93DF93CDB7DEB748
:10354000CF55D2400FB6F894DEBF0FBECDBFF82ED8
:10355000162F26E0821315C0E091BA11F091BB112D
:10356000A081B18188E0EBE5F5E001900D928A95AC
:10357000E1F7E091BA11F091BB11138214826283DA
:1035800051C137E083131FC0E091190AF0911A0A64
:1035900060817181E091BA11F091BB1180819181BC
:1035A0000E943B58E091BA11F091BB11A091190A09
:1035B000B0911A0A12968C911297838313968C916C
:1035C000848312832FC185E08F1508F42BC1E0910D
:1035D000110AF091120A0190F081E02DF093F9099F
:1035E000E093F809FF2059F090E00380F481E02D8A
:1035F0009F5FF912FACFF093F909E093F809E0918F
:10360000F809F091F90980810E94840F8091AE0F32
:103610009091AF0F9093BB118093BA110091BA11A2
:103620001091BB11F8019281913009F067C0C08000
:10363000D180E091190AF0911A0A60817181C60166
:103640000E943258892B09F059C088E0EBE5F5E07B
:10365000D60101900D928A95E1F7E091BA11F091AF
:10366000BB111282138214826AE276E081E396E053
:103670000E944B3D6E01F5EACF1AFDEFDF0A85E0AF
:10368000F60111928A95E9F78E01075D1D4F82E3DD
:10369000F80111928A95E9F78F2D90E04AE0B60182
:1036A00001960E9469588DE0EEE3F6E0D8010190A2
:1036B0000D928A95E1F7B601C8010E942758D801FA
:1036C0000D900020E9F7119787E0E0E3F5E0019025
:1036D0000D928A95E1F7C8010E947C510E94163D27
:1036E0002091BA113091BB118091AE0F9091AF0F24
:1036F0002817390709F096C040E010C0F801858509
:1037000096859093BB118093BA112091AE0F3091A2
:10371000AF0F2817390709F081CF41E0413009F098
:1037200081C0E091BA11F091BB118281811164C016
:10373000A091190AB0911A0A6D917C9180819181B2
:103740000E943B58E091BA11F091BB1181E0828355
:10375000A091190AB0911A0A12968C91129783833C
:1037600013968C9184836BE476E081E396E00E946B
:103770004B3D6E01F5EACF1AFDEFDF0A85E0F60159
:1037800011928A95E9F78E01075D1D4F82E3F801DA
:1037900011928A95E9F78F2D90E04AE0B6010196E3
:1037A0000E9469588DE0EEE3F6E0D80101900D9299
:1037B0008A95E1F7B601C8010E942758D8010D90FB
:1037C0000020E9F711978AE0E6E2F5E001900D921A
:1037D0008A95E1F7C8010E947C510E94163D209114
:1037E000BA113091BB118091AE0F9091AF0F281795
:1037F0003907C1F440E00EC0858596859093BB11D2
:103800008093BA112091AE0F3091AF0F82179307BA
:1038100009F087CF413031F462E576E081E396E04C
:103820000E944B3D0F2EF4E1FF2EF02DCE010196AC
:10383000FC012F2D11922A95E9F726E0E4E1F6E04C
:10384000DC0101900D922A95E1F70E9410468E014D
:103850000B5E1F4F80E092E0F8019C011192215015
:103860003040E1F7C801E2DBCE018B5E9D4FFC01E9
:103870001192FA94E9F726E0E4E1F6E0DC01019028
:103880000D922A95E1F7B8010E941C46C15ADD4FFE
:103890000FB6F894DEBF0FBECDBFDF91CF911F9161
:1038A0000F91FF90DF90CF900895CF93DF93809397
:1038B000A90F811105C0C0918B0FD0918C0F04C04E
:1038C000C091C012D091C1121092070A1092060A3C
:1038D0001092AB0F1092AA0F88810E94840FCE0124
:1038E0000E94E835BC0186E09AE00E94F73590938B
:1038F000070A8093060A9093120A8093110ADC014A
:10390000ED91FC9180810E94840F84E10E942C3D06
:103910004EE356E0BE018091A90F0E9431109093B2
:10392000320A8093310A0E94E835BC0186E09AE0B1
:103930000E94F7359093070A8093060ADF91CF9192
:10394000089590E0FC013297E830F10508F028C1B5
:103950008827EA56FF4F8F4F0C94C85582E00E948B
:103960002C3DE091FE12F091FF126081718183E99C
:1039700092E00E944B3D8091FE129091FF120C94B8
:10398000AD07089580910C0A813039F018F082302B
:10399000B9F028C00E94C50C25C00E94C50CE0915A
:1039A000FE12F091FF12828181111CC00E94C50C91
:1039B000E091FE12F091FF1282818823B9F312C0C8
:1039C0000E94C50CE091FE12F091FF1282818130BD
:1039D00049F40E94C50CE091FE12F091FF12828121
:1039E0008130B9F38091FE129091FF120C945E0524
:1039F000089584E00E942C3DE0914F0AF091500A16
:103A000080810C94BA08089580910C0A813039F0B5
:103A100018F08230B9F028C00E94F60C25C00E9430
:103A2000F60CE091FE12F091FF12828181111CC010
:103A30000E94F60CE091FE12F091FF128281882321
:103A4000B9F312C00E94F60CE091FE12F091FF1241
:103A50008281813049F40E94F60CE091FE12F091CF
:103A6000FF1282818130B9F38091FE129091FF1292
:103A70000C945E05089580914F0A9091500A90939E
:103A80001E0A80931D0A8091FA099091FB09909378
:103A9000500A80934F0A1092140A1092130A10923F
:103AA000380A1092370A0E949932BC0183E19AE0E9
:103AB0000E94A8329093140A8093130A90934C0AA0
:103AC00080934B0ADC01ED91FC9180810E94BA0841
:103AD00083E00E942C3DE0914B0AF0914C0A6CEB84
:103AE00073E0808191810E94FD0B9093A80F8093D9
:103AF000A70F0E949932BC0183E19AE00E94A8328C
:103B00009093140A8093130A089587E00C942C3D37
:103B10000895E091FA09F091FB09F093500AE093BF
:103B20004F0A80810E94BA0880910C0A8130C1F04E
:103B300018F0823049F12AC081E080930C0AE091AC
:103B4000FE12F091FF128281811120C00E94F60CBA
:103B5000E091FE12F091FF1282818823B9F316C022
:103B600082E080930C0AE091FE12F091FF128281B4
:103B7000813061F40E94F60CE091FE12F091FF1288
:103B800082818130B9F302C010920C0A8091FE123A
:103B90009091FF120C945E05089582E10C942C3DE7
:103BA0000895813019F0823059F0089581E00E9423
:103BB0002C3D8091FE129091FF120C945E050895A9
:103BC0008091FE129091FF120C945E050895CF93A0
:103BD000DF9390E0FC013197E930F10508F0DEC099
:103BE0008827E256FF4F8F4F0C94C85580E00E9403
:103BF000F30A81E00E942C3D8091FE129091FF1209
:103C00000E945E05CBC081E00E94F30A81E00E9421
:103C10002C3D8091FE129091FF120E945E05BEC065
:103C200082E00E94F30A81E00E942C3D8091FE1206
:103C30009091FF120E945E05B1C083E00E94F30ADA
:103C400081E00E942C3D8091FE129091FF120E9413
:103C50005E05A4C084E00E94F30A81E00E942C3D2E
:103C60008091FE129091FF120E945E0597C085E040
:103C70000E94F30A81E00E942C3D8091FE129091F7
:103C8000FF120E945E058AC080917D0E811186C060
:103C900083E00E942C3D10925C0AE0914B0AF09167
:103CA0004C0A0280F381E02DF0934C0AE0934B0A1A
:103CB0006CEB73E0808191810E94FD0B6FC080915D
:103CC0005C0A81116BC010927D0E83E00E942C3D36
:103CD000E0914B0AF0914C0A0480F581E02DF093BD
:103CE0004C0AE0934B0A6CEB73E0808191810E9457
:103CF000FD0B9093A80F8093A70FE0914B0AF091D2
:103D00004C0AA081B181E091130AF091140A01904C
:103D1000F081E02D3C912081321340C00E94993205
:103D2000BC0183E19AE00E94A8329093140A809328
:103D3000130A34C010927D0E10925C0A8091370AEB
:103D40009091380A90934C0A80934B0AC0914B0A89
:103D5000D0914C0ACE010E9477578C819D8190931F
:103D60004C0A80934B0A2091370A3091380A821707
:103D7000930761F7E0911D0AF0911E0AF093500A33
:103D8000E0934F0A80810E94BA0881E00E942C3D96
:103D90008091FE129091FF120E945E05DF91CF91FB
:103DA0000895823059F0833081F08130A1F463E0CE
:103DB00070E080E090E00C947507089565E070E095
:103DC00080E090E00C94750708958091FE12909128
:103DD000FF120C945E050895813011F48093F8125F
:103DE00008958F929F92AF92BF92CF92DF92EF92FF
:103DF000FF920F931F93CF93DF93CDB7DEB76997F1
:103E00000FB6F894DEBF0FBECDBF90E0FC01319736
:103E1000E830F10508F02BC18827E955FF4F8F4F97
:103E20000C94C85580914F0A9091500A90931E0AA5
:103E300080931D0A8091FA099091FB099093500A92
:103E400080934F0A1092140A1092130A1092380AA3
:103E50001092370A0E949932BC0183E19AE00E94D5
:103E6000A8329093140A8093130A8091370A909194
:103E7000380A90934C0A80934B0A88E00E942C3DAC
:103E8000E0914B0AF0914C0A6CEB73E080819181D8
:103E90000E94FD0B9093A80F8093A70F0E94993268
:103EA000BC0183E19AE00E94A8329093140A8093A7
:103EB000130ADDC080E10E942C3D4091620A5091BE
:103EC000630AFA01C584D6842091A50F3091A60F0C
:103ED000F901E584F684A0911B0AB0911C0A1B9697
:103EE0000D911C911C978091AE0F9091AF0FFC012A
:103EF000638574851C963C932E931B97F901B687B6
:103F0000A587FC0154874387FA0196878587FD01C1
:103F100016820584F685E02DAE17BF07C9F7FA01B2
:103F2000D686C586F901F686E5861C961C930E9307
:103F30001B97FC0174876387CE01019624E1FC0185
:103F400011922A95E9F726E433E73A8329831B8205
:103F5000DC010D900020E9F711972AE0E6E2F5E098
:103F600001900D922A95E1F70E947C510E94163D26
:103F700081E08093570A1092840FEEE8FFE00190F1
:103F80000020E9F73197CF018E589F4099271816E6
:103F900019060CF06CC0EEE8FFE08257904F1192CA
:103FA0008E179F07E1F763C08AE00E942C3D5FC037
:103FB0008DE00E942C3D5BC081E00E942C3D8091F1
:103FC000FE129091FF120E945E0551C083E10E9493
:103FD0002C3D0E942F124BC087E10E942C3D00E037
:103FE00010E00F2EFAE0BF2EF02D9E012F5F3F4F05
:103FF00069010F2EF5E0AF2EF02D7E0135E1E30EC5
:10400000F11CF6012B2D11922A95E9F7F7012A2DC3
:1040100011922A95E9F785E0E0E6F6E0D6010190F5
:104020000D928A95E1F748013FEF831A930A4B2DD1
:10403000B701C4010E946958B701C6010E94275800
:104040008091C212F801E80FF11DCF014B2DB7018D
:1040500001960E946958B701C6010E944B3D840138
:104060000630110571F603C08AE10E942C3D699665
:104070000FB6F894DEBF0FBECDBFDF91CF911F9179
:104080000F91FF90EF90DF90CF90BF90AF909F90F7
:104090008F90089590E0FC013197EA30F10508F027
:1040A0008BC08827E155FF4F8F4F0C94C85580E097
:1040B0000C94870A089581E00C94870A089582E0A1
:1040C0000C94870A089583E00C94870A089584E08D
:1040D0000C94870A089585E00C94870A08958091CE
:1040E0007D0E811169C088E00E942C3D10925C0A0F
:1040F000E0914B0AF0914C0A0280F381E02DF0939D
:104100004C0AE0934B0A6CEB73E0808191810C9434
:10411000FD0B089580915C0A81114EC010927D0EB6
:1041200088E00E942C3DE0914B0AF0914C0A0480FB
:10413000F581E02DF0934C0AE0934B0A6CEB73E0B1
:10414000808191810E94FD0B9093A80F8093A70F0F
:10415000E0914B0AF0914C0AA081B181E091130AE1
:10416000F091140A0190F081E02D3C9120813213EE
:1041700023C00E949932BC0183E19AE00E94A832D8
:104180009093140A8093130A0895E0911D0AF09108
:104190001E0AF093500AE0934F0A80810E94BA08E9
:1041A00010927D0E10925C0A1092C21287E00C945D
:1041B0002C3D08950C94FE160895AF92BF92CF92B5
:1041C000DF92EF92FF920F931F93CF93DF9390E0D4
:1041D000FC013197EA30F10508F005C18827E75462
:1041E000FF4F8F4F0C94C85580917D0E8111FBC0FD
:1041F00010925C0AE0914F13F09150130480F58106
:10420000E02DF0935013E0934F1367E773E0808144
:1042100091810E949D03E7C080915C0A8111E3C0F7
:1042200010927D0EE0914F13F09150130280F381B4
:10423000E02DF0935013E0934F1367E773E0808114
:1042400091810E949D039093010A8093000A4091FE
:104250004F13509150132091550A3091560A42172E
:10426000530709F0C0C00E942236BC0185E59AE0E0
:104270000E9431369093560A8093550AB4C010922A
:104280007D0E10925C0A81E00E942C3DACC0E09152
:10429000620AF091630AC584D6842091A50F3091FB
:1042A000A60FD9011D96ED90FC901E97A0911B0AB8
:1042B000B0911C0A1B960D911C911C978091AE0F1A
:1042C0009091AF0FEC01AB84BC841C963C932E9371
:1042D0001B97E901BE87AD87EC01FC87EB879687CA
:1042E0008587FD0180E09681890F0584F685E02DA4
:1042F000AE17BF07C1F7843669F510927D0E109294
:104300005C0A89E10E942C3D65E676E08DEA93E047
:104310000E944B3DE0914F0AF091500A80810E942B
:10432000510FE091FE12F091FF1260817181A09116
:104330004F0AB091500A238142818C910E948F0DC7
:1043400081E00E942C3D8091FE129091FF120E940C
:104350005E0506C069E776E086E392E00E944B3D89
:10436000E091620AF091630AD686C586E091A50FB6
:10437000F091A60FF686E586E0911B0AF0911C0AE3
:1043800014870387E091AE0FF091AF0FB486A38638
:104390002AC080E00E94530126C081E00E945301A0
:1043A00022C082E00E9453011EC083E00E9453019C
:1043B0001AC010927D0E10925C0A1092C21281E017
:1043C0000E942C3DE0911D0AF0911E0AF093500AC4
:1043D000E0934F0A80810E94BA088091FE1290916A
:1043E000FF120E945E05DF91CF911F910F91FF9008
:1043F000EF90DF90CF90BF90AF900895813019F08B
:10440000823029F0089587E00C942C3D08958BE0CC
:104410000C942C3D08951F93CF93DF93813019F0B6
:10442000823029F03AC087E00E942C3D36C08CE0F3
:104430000E942C3D10E08091F812811112C0812F52
:104440000E94F502C0EDD7E00E94EB3B81110E9473
:10445000743C8FE99FE00197F1F700C000002197BD
:1044600099F7812F0E942C031F5F1C3021F71092B7
:10447000F81281E00E942C3DE091FA09F091FB09CD
:10448000F093500AE0934F0A80810E94BA0880910D
:10449000FE129091FF120E945E05DF91CF911F9155
:1044A0000895813031F487E00E942C3D81E08093B3
:1044B000F8120895813019F487E00C942C3D08958A
:1044C000CF92DF92EF92FF920F931F93CF93DF93E0
:1044D000CDB7DEB7E2970FB6F894DEBF0FBECDBF03
:1044E000E82F9E012F5F3F4F82E3D9011D928A95ED
:1044F000E9F780E389838E2F90E0FC013197EF315B
:10450000F10508F084C38827ED53FF4F8F4F0C94BB
:10451000C8558091570A813041F4E091840FF0E052
:10452000E257F04F81E4808307C0E091840FF0E010
:10453000E257F04F81E680838091840F8F5F8093F4
:10454000840F65C38091570A813041F4E091840F54
:10455000F0E0E257F04F82E4808307C0E091840FDF
:10456000F0E0E257F04F82E680838091840F8F5F06
:104570008093840F4CC38091570A813041F4E091BD
:10458000840FF0E0E257F04F83E4808307C0E091AE
:10459000840FF0E0E257F04F83E680838091840F30
:1045A0008F5F8093840F33C38091570A813041F429
:1045B000E091840FF0E0E257F04F84E4808307C07D
:1045C000E091840FF0E0E257F04F84E68083809121
:1045D000840F8F5F8093840F1AC38091570A8130B4
:1045E00041F4E091840FF0E0E257F04F85E48083DE
:1045F00007C0E091840FF0E0E257F04F85E680833A
:104600008091840F8F5F8093840F01C38091570A3C
:10461000813041F4E091840FF0E0E257F04F86E4FE
:10462000808307C0E091840FF0E0E257F04F86E608
:1046300080838091840F8F5F8093840FE8C2809184
:10464000570A813041F4E091840FF0E0E257F04FD7
:1046500087E4808307C0E091840FF0E0E257F04FD9
:1046600087E680838091840F8F5F8093840FCFC211
:104670008091570A813041F4E091840FF0E0E257D5
:10468000F04F88E4808307C0E091840FF0E0E257A8
:10469000F04F88E680838091840F8F5F8093840F32
:1046A000B6C28091570A813041F4E091840FF0E066
:1046B000E257F04F89E4808307C0E091840FF0E077
:1046C000E257F04F89E680838091840F8F5F80935B
:1046D000840F9DC28091570A813041F4E091840F8C
:1046E000F0E0E257F04F8AE4808307C0E091840F46
:1046F000F0E0E257F04F8AE680838091840F8F5F6D
:104700008093840F84C28091570A813041F4E091F4
:10471000840FF0E0E257F04F8BE4808307C0E09114
:10472000840FF0E0E257F04F8BE680838091840F96
:104730008F5F8093840F6BC28091570A813041F460
:10474000E091840FF0E0E257F04F8CE4808307C0E3
:10475000E091840FF0E0E257F04F8CE68083809187
:10476000840F8F5F8093840F52C28091570A8130EB
:1047700041F4E091840FF0E0E257F04F8DE4808344
:1047800007C0E091840FF0E0E257F04F8DE68083A0
:104790008091840F8F5F8093840F39C28091570A74
:1047A000813041F4E091840FF0E0E257F04F8EE465
:1047B000808307C0E091840FF0E0E257F04F8EE66F
:1047C00080838091840F8F5F8093840F20C28091BB
:1047D000570A813041F4E091840FF0E0E257F04F46
:1047E0008FE4808307C0E091840FF0E0E257F04F40
:1047F0008FE680838091840F8F5F8093840F07C240
:104800008091570A813041F4E091840FF0E0E25743
:10481000F04F80E5808307C0E091840FF0E0E2571D
:10482000F04F80E780838091840F8F5F8093840FA7
:10483000EEC18091570A813041F4E091840FF0E09D
:10484000E257F04F81E5808307C0E091840FF0E0EC
:10485000E257F04F81E780838091840F8F5F8093D0
:10486000840FD5C18091570A813041F4E091840FC3
:10487000F0E0E257F04F82E5808307C0E091840FBB
:10488000F0E0E257F04F82E780838091840F8F5FE2
:104890008093840FBCC18091570A813041F4E0912C
:1048A000840FF0E0E257F04F83E5808307C0E0918A
:1048B000840FF0E0E257F04F83E780838091840F0C
:1048C0008F5F8093840FA3C18091570A813041F498
:1048D000E091840FF0E0E257F04F84E5808307C059
:1048E000E091840FF0E0E257F04F84E780838091FD
:1048F000840F8F5F8093840F8AC18091570A813023
:1049000041F4E091840FF0E0E257F04F85E58083B9
:1049100007C0E091840FF0E0E257F04F85E7808315
:104920008091840F8F5F8093840F71C18091570AAB
:10493000813041F4E091840FF0E0E257F04F86E5DA
:10494000808307C0E091840FF0E0E257F04F86E7E4
:1049500080838091840F8F5F8093840F58C18091F2
:10496000570A813041F4E091840FF0E0E257F04FB4
:1049700087E5808307C0E091840FF0E0E257F04FB5
:1049800087E780838091840F8F5F8093840F3FC17E
:104990008091570A813041F4E091840FF0E0E257B2
:1049A000F04F88E5808307C0E091840FF0E0E25784
:1049B000F04F88E780838091840F8F5F8093840F0E
:1049C00026C18091570A813041F4E091840FF0E0D4
:1049D000E257F04F89E5808307C0E091840FF0E053
:1049E000E257F04F89E780838091840F8F5F809337
:1049F000840F0DC18091570A813041F4E091840FFA
:104A0000F0E0E257F04F8AE5808307C0E091840F21
:104A1000F0E0E257F04F8AE780838091840F8F5F48
:104A20008093840FF4C0E091840FE150E093840FF1
:104A3000F0E0E257F04F1082EAC0E0911D0AF091D9
:104A40001E0AF093500AE0934F0A80810E94BA0830
:104A50001092840FEEE8FFE082EA9FE01192E817DF
:104A6000F907E1F781E00E942C3D8091FE129091C0
:104A7000FF120E945E05CBC08091840FE82FF0E00A
:104A8000E257F04F90E290838F5F8093840FBFC016
:104A900080918E0F811107C065E976E08CEB96E07E
:104AA0000E944B3DB4C080914F0A9091500A909360
:104AB0001E0A80931D0A2091620A3091630AF9014F
:104AC000C584D6848091A50F9091A60FDC011D9618
:104AD000ED90FC901E9700911B0A10911C0AF801A2
:104AE00063857485A091AE0FB091AF0F1B964D9169
:104AF0005C911C9794878387FC01168705871C9619
:104B00003C932E931B97F901B687A587F80116826F
:104B10000584F685E02D0E171F07C9F7F901D68623
:104B2000C586FC01F686E586F801748763871C96C6
:104B30005C934E931B9710927D0E10925C0A10921C
:104B4000560A1092550A1092700B10926F0BC80102
:104B50000E942236BC0185E59AE00E94313690938E
:104B6000560A8093550A9093501380934F1381E116
:104B70000E942C3D67E773E0C8010E949D0390935B
:104B8000010A8093000A0E942236BC0185E59AE062
:104B90000E9431369093560A8093550A38C080910E
:104BA000570A8130D1F41092570A86E493E79A832A
:104BB00089831B82CE010196DC010D900020E9F76C
:104BC000119727E0E0E3F5E001900D922A95E1F7D7
:104BD0000E947C510E94163D1AC081E08093570AC2
:104BE00086E493E79A8389831B82CE010196DC01D8
:104BF0000D900020E9F711972AE0E6E2F5E0019038
:104C00000D922A95E1F70E947C510E94163D6EE8B4
:104C10007FE088EC96E00E944B3D8091840F8331C9
:104C200018F083E18093840FE2960FB6F894DEBF0C
:104C30000FBECDBFDF91CF911F910F91FF90EF90ED
:104C4000DF90CF9008952F923F924F925F926F9294
:104C50007F928F929F92AF92BF92CF92DF92EF920C
:104C6000FF920F931F93CF93DF93CDB7DEB72F97AC
:104C70000FB6F894DEBF0FBECDBF4091620A5091CF
:104C8000630ADA011D968D909C901E972091A50FC6
:104C90003091A60FF901A584B684C0901B0AD0906C
:104CA0001C0AD6011B966D907C901C97A091AE0FAC
:104CB000B091AF0F1B964D905C901C97F601348716
:104CC0002387F901D686C5861C965C934E931B9765
:104CD000FA01B687A587813019F08230C9F00AC180
:104CE000E0911D0AF0911E0AF093500AE0934F0ADA
:104CF00080810E94BA08000081E00E942C3D8091D2
:104D0000FE129091FF120E945E051092C212F2C034
:104D1000F60134872387F901D686C5861C965C93F5
:104D20004E931B97FA01B687A5878601312C0F2E6B
:104D3000F5E02F2EF02DCE0101967C01D8011696BC
:104D40008C91380EF701822D11928A95E9F74AE08D
:104D5000B701832D90E00E946958C7010E946651F7
:104D6000D8011D960D911C911E97C016D10631F7E2
:104D7000B4E63B12A1C089E10E942C3D65E676E0D5
:104D80008DEA93E00E944B3DE091FE12F091FF12FC
:104D90006EE87FE0808191810E943B58A091FE12D5
:104DA000B091FF1280E216968C931697F601212C93
:104DB000312C91E08681882341F08381813009F490
:104DC000392E8481813009F4292E0584F685E02D61
:104DD000CE16DF0679F712963C92EE24E394F12C7E
:104DE0000F2EFFE0DF2EF02D8E010F5F1F4FF80119
:104DF0008D2D11928A95E9F74AE0B801C7010E940A
:104E00006958D8010D900020E9F7119785E0E5E198
:104E1000F6E001900D928A95E1F7B80181E00E94D9
:104E20004145813069F1222D432D6EE87FE08E2DC2
:104E30000E948F0D8E2D0E94A3318C01BC0183E551
:104E40009AE00E94BB319093540A8093530AB801B0
:104E500088E09AE00E94BB319093090A8093080A87
:104E6000E091530AF091540AF093500AE0934F0AEC
:104E70009093600A80935F0A80810E94BA0808C0FC
:104E80009FEFE91AF90AA5E6EA16F10409F0AFCF97
:104E900081E00E942C3D8091FE129091FF120E94B1
:104EA0005E051092840FEEE8FFE082EA9FE0119227
:104EB000E817F907E1F706C069E776E086E392E0D4
:104EC0000E944B3DE091620AF091630A96868586C6
:104ED000E091A50FF091A60FB686A586E0911B0A7A
:104EE000F0911C0A74866386E091AE0FF091AF0FCB
:104EF000548643862F960FB6F894DEBF0FBECDBF03
:104F0000DF91CF911F910F91FF90EF90DF90CF90A5
:104F1000BF90AF909F908F907F906F905F904F90D9
:104F20003F902F9008950F931F93CF93DF93CDB7AA
:104F3000DEB764970FB6F894DEBF0FBECDBF8130E9
:104F400021F0823009F464C06CC0E0914F0AF09106
:104F5000500A8091FA099091FB09E817F90739F492
:104F6000838194819093FB098093FA090DC080910D
:104F7000530A9091540AE817F90731F4818192811C
:104F80009093540A8093530AA381B48181819281C2
:104F900012969C938E931197E0914F0AF091500ACC
:104FA000A181B2818381948114969C938E931397EF
:104FB00080814AE08E010F5F1F4FB80190E00E9490
:104FC0006958D8010D900020E9F7119785E0E5E1D7
:104FD000F6E001900D928A95E1F7C8010E94104613
:104FE000E0914F0AF091500A0180F281E02DF09398
:104FF000500AE0934F0A80810E94BA0881E00E9423
:105000002C3D8091FE129091FF120E945E0509C016
:1050100081E00E942C3D8091FE129091FF120E942F
:105020005E0564960FB6F894DEBF0FBECDBFDF916C
:10503000CF911F910F91089590E0FC013197EE30D0
:10504000F10508F093C08827EE51FF4F8F4F0C9465
:10505000C8551092A90F80E00E94B51260E08091BF
:10506000A90F0C94551C08951092A90F81E00E947D
:10507000B51261E08091A90F0C94551C089510920F
:10508000A90F82E00E94B51262E08091A90F0C94F2
:10509000551C08951092A90F83E00E94B51263E099
:1050A0008091A90F0C94551C08951092A90F84E0CB
:1050B0000E94B51264E08091A90F0C94551C0895CC
:1050C0001092A90F85E00E94B51265E08091A90FAA
:1050D0000C94551C08951092A90F86E00E94B512F9
:1050E00066E08091A90F0C94551C08951092A90FA9
:1050F00087E00E94B51267E08091A90F0C94551CBF
:1051000008951092A90F88E00E94B51268E080917E
:10511000A90F0C94551C08951092A90F89E00E94C4
:10512000B51269E08091A90F0C94551C0895109256
:10513000A90F8AE00E94B5126AE08091A90F0C9431
:10514000551C08951092A90F8BE00E94B5126BE0D8
:105150008091A90F0C94551C08950C94B3160895D2
:1051600081E08093A90F60E00C94551C089590E0B5
:10517000FC013197EB30F10508F0CBC08827E051F6
:10518000FF4F8F4F0C94C8558091A90F811103C018
:1051900061E00E9475198091A90F813009F0B9C0B2
:1051A00010925C0A61E080E00C94971A0895809157
:1051B000A90F811105C061E081E00C947519089573
:1051C00010925C0A61E081E00C94971A0895809136
:1051D000A90F811105C061E082E00C947519089552
:1051E00010925C0A61E082E00C94971A0895809115
:1051F000A90F811105C061E083E00C947519089531
:1052000010925C0A61E083E00C94971A08958091F3
:10521000A90F811105C061E084E00C94751908950F
:1052200010925C0A61E084E00C94971A08958091D2
:10523000A90F811105C061E085E00C9475190895EE
:1052400010925C0A61E085E00C94971A08958091B1
:105250007D0E81115EC010925C0AE091110AF091FE
:10526000120A0480F581E02DF093120AE093110AEE
:10527000608171814EE356E08091A90F0C9431104A
:10528000089580915C0A811144C010927D0EE091D6
:10529000110AF091120A0280F381E02DF093120AB4
:1052A000E093110A608171814EE356E08091A90F6D
:1052B0000E9431109093320A8093310A4091110A72
:1052C0005091120A2091060A3091070A421753079B
:1052D00001F50E94E835BC0186E09AE00E94F735AE
:1052E0009093070A8093060A089585E10E942C3D59
:1052F0001092C212089560E086E00C94751908952A
:1053000010927D0E10925C0A83E10E942C3D0C9459
:105310002F120895813041F580918E0F811107C0C1
:1053200062ED76E088EF96E00C944B3D08958BE1BA
:105330000E942C3DE091190AF0911A0A6EE87FE074
:10534000808191810E943B5886E097E00E946651DF
:10535000E091190AF0911A0A808191810E946651A8
:1053600086E198E00C9466510895BF92CF92DF9247
:10537000EF92FF920F931F93CF93DF93CDB7DEB7DA
:10538000C654D1090FB6F894DEBF0FBECDBFFE01E3
:1053900031969FE0DF011D929A95E9F73F9692E3DF
:1053A000DF011D929A95E9F7F29695E0DF011D92D3
:1053B0009A95E9F7813008F438C1182F833020F02E
:1053C000833009F421C131C189E10E942C3D6DE196
:1053D00077E08DEA93E00E944B3D113039F4E09183
:1053E000190AF0911A0A81E0828307C0123029F469
:1053F000E091190AF0911A0A12828E01005F1F4F84
:1054000086E0E6E0F5E0D80101900D928A95E1F79B
:10541000E090190AF0901A0AF70160817181C801C1
:105420000E942758D8010D900020E9F711978AE0D3
:10543000E6E4F7E001900D928A95E1F7D701129624
:105440008C914AE0BE016E5B7F4F90E00E946958EC
:10545000BE016E5B7F4FC8010E942758D8010D9096
:105460000020E9F711978FE0E0E5F7E001900D9259
:105470008A95E1F7E091190AF0911A0A83814AE0CE
:10548000BE016E5B7F4F90E00E946958BE016E5B6B
:105490007F4FC8010E942758F80101900020E9F7CA
:1054A00031978EE790E091838083BB24B3940F2ED5
:1054B000FAE5CF2ED12CF02D0F501109DA82C982D6
:1054C000EB2C0B2C000CFF084AE0BE016E5B7F4FFB
:1054D000C7010E946958BE016E5B7F4FC8010E94E0
:1054E0002758D8010D900020E9F7119785E0E5E1F4
:1054F000F6E001900D928A95E1F7B80181E00E94F3
:105500004145813009F44CC08AE590E09A83898353
:105510004AE0BE016E5B7F4FC7010E946958BE0121
:105520006E5B7F4F8E010F5F1F4FC8010E9427588F
:10553000D8010D900020E9F7119785E0E5E1F6E04C
:1055400001900D928A95E1F7BE01605F7F4FC8011F
:105550000E941C468B2D0E94D5338C018B2D0E94FE
:10556000840FE091190AF0911A0A838181110CC00D
:10557000A8016BE87FE085E89FE00E94E13390930B
:10558000860F8093850F44C0A80160EC72E18EEF16
:1055900099E00E94E1339093FF098093FE0938C09F
:1055A000B3948CCF1092840F8091A90F811111C0F8
:1055B000E091190AF0911A0A8381811105C061E016
:1055C00087E00E94751931C061E088E00E9475197A
:1055D0002CC0E091190AF0911A0A8381813029F5D3
:1055E00084E10E942C3DE091AA0FF091AB0FF09363
:1055F000120AE093110A608171814EE356E08091B6
:10560000A90F0E94311011C08BE10E942C3D0DC0EA
:10561000EEE8FFE001900020E9F73197EE58FF40F7
:10562000E111C0CF10928E0FBDCFCA5BDF4F0FB616
:10563000F894DEBF0FBECDBFDF91CF911F910F91C8
:10564000FF90EF90DF90CF90BF900895823071F07F
:105650008330A9F08130E1F486E10E942C3DE09195
:10566000190AF0911A0A81E08383089586E10E9465
:105670002C3DE091190AF0911A0A1382089585E1F0
:105680000E942C3D6EE87FE088EC96E00C944B3D48
:105690000895FF920F931F93CF93DF93CDB7DEB79B
:1056A000AD970FB6F894DEBF0FBECDBF90E0FC0102
:1056B0003197E930F10508F0FEC28827E550FF4F29
:1056C0008F4F0C94C855E091740CF091750CF093C9
:1056D0006A0BE093690B2091C21230E01216130698
:1056E0006CF480E090E00680F781E02D019682174F
:1056F0009307C9F7F0936A0BE093690B88E10E9466
:105700002C3D1092C21210927D0E10925C0A6CEB2E
:1057100073E08091FA099091FB090E94FD0BCBC2C6
:10572000E091740CF091750CF0936A0BE093690BA7
:105730002091C21230E02F5F3F4F80E090E0068062
:10574000F781E02D019682179307CCF3F0936A0B53
:10575000E093690B88E10E942C3D1092C2121092D6
:105760007D0E10925C0A6CEB73E08091FA099091C7
:10577000FB090E94FD0B9FC2E091740CF091750C27
:10578000F0936A0BE093690B2091C21230E02E5F18
:105790003F4F80E090E00680F781E02D0196821770
:1057A0009307CCF3F0936A0BE093690B88E10E94B6
:1057B0002C3D1092C21210927D0E10925C0A6CEB7E
:1057C00073E08091FA099091FB090E94FD0B73C26E
:1057D000E091740CF091750CF0936A0BE093690BF7
:1057E0002091C21230E02D5F3F4F80E090E00680B4
:1057F000F781E02D019682179307CCF3F0936A0BA3
:10580000E093690B88E10E942C3D1092C212109225
:105810007D0E10925C0A6CEB73E08091FA09909116
:10582000FB090E94FD0B47C2E091740CF091750CCE
:10583000F0936A0BE093690B2091C21230E02C5F69
:105840003F4F80E090E00680F781E02D01968217BF
:105850009307CCF3F0936A0BE093690B88E10E9405
:105860002C3D1092C21210927D0E10925C0A6CEBCD
:1058700073E08091FA099091FB090E94FD0B1BC215
:10588000E091740CF091750CF0936A0BE093690B46
:105890002091C21230E02B5F3F4F80E090E0068005
:1058A000F781E02D019682179307CCF3F0936A0BF2
:1058B000E093690B88E10E942C3D1092C212109275
:1058C0007D0E10925C0A6CEB73E08091FA09909166
:1058D000FB090E94FD0BEFC180917D0E8111EBC190
:1058E00010925C0A2091C21226502093C212E091BD
:1058F000740CF091750CF0936A0BE093690B30E037
:10590000121613066CF480E090E00680F781E02D1B
:10591000019682179307CCF3F0936A0BE093690B1F
:10592000FE01319685E1DF011D928A95E9F71AA6FD
:105930001BA61CA61DA68E010A5E1F4F84E1F8015E
:1059400011928A95E9F7D8010D900020E9F7119797
:1059500085E0E0E6F6E001900D928A95E1F780910E
:105960006D0B90916E0B4AE0BE01665D7F4F019614
:105970000E946958BE01665D7F4FC8010E9427588A
:10598000C8010E942D3E00E010E0FF24F3940F5F59
:105990001F4F4AE0BE01665D7F4FC8010E946958F3
:1059A00085E0E0E6F6E0DE01119601900D928A9521
:1059B000E1F7BE01665D7F4FCE0101960E94275838
:1059C000E091690BF0916A0B80910F0A9091100A97
:1059D000E817F907B1F480915C0A811116C0F092C2
:1059E0005C0A82814AE0BE01665D7F4F90E00E94C2
:1059F0006958BE01665D7F4FCE0101960E944B3D06
:105A00003BC080915C0A882341F165E075E0CE01DE
:105A100001960E944B3D8FE39CE90197F1F700C08E
:105A2000000085E0E0E6F6E0DE01569601900D927A
:105A30008A95E1F74AE0BE01665D7F4FC8010E948A
:105A40006958BE01665D7F4FCE0146960E94275879
:105A5000CE0146960E94F43D0FC082814AE0BE010D
:105A6000665D7F4F90E00E946958BE01665D7F4F82
:105A7000CE0101960E944B3DE091690BF0916A0BBB
:105A80008091740C9091750CE817F90731F48091AE
:105A90005C0A811102C0F0927D0E868197819093FD
:105AA0006A0B8093690BAFE3BCE91197F1F700C073
:105AB00000000630110509F06ACFFDC080915C0A34
:105AC0008111F9C010927D0E2091C2122A5F20939D
:105AD000C212E091740CF091750CF0936A0BE09394
