:1000000030C100004FC100004DC100004BC10000D5
:1000100049C1000047C1000045C1000043C10000C4
:1000200041C100003FC100003DC100003BC10000D4
:1000300039C100000C94554535C1000033C10000A2
:1000400031C100000C94D92D0C94E42D2BC100007B
:1000500029C100000C94112F25C1000023C100000C
:1000600021C100000C94E8480C94A9481BC1000071
:1000700019C1000017C1000015C1000013C1000024
:100080000C94EF2D0C94FA2D0DC100000BC1000053
:100090000C94144907C1000005C1000003C1000011
:1000A00001C10000FFC000000C94052E0C94102E1E
:1000B000F9C00000F7C00000F5C000000C941B2E32
:1000C0000C94262EEFC00000EDC000000C947F4978
:1000D0000C944049E7C000000C94EA490C94AB49E9
:1000E000E1C000004402460248024A024C024E02AD
:1000F0005002520258025E0264026A027B027D02D2
:100100007F02810283028502870289028F029502A3
:100110009B02A102B202B502B902BD02C102C50230
:10012000C902CD02D102D502D902DC029516A91668
:10013000E016EB1622176A176E17B217DB17E817CF
:10014000F51702180F181C18291844187F18F718EB
:100150001A19551959195D1967196D19B519D81951
:10016000DC19E019E419E819EC19F019181A381A11
:10017000421A511A611A791AC11AC51AC91ACD1A26
:10018000D11AEB1A711A711B8A1BA31BBC1BD51B3E
:10019000EE1B071C201C391C521C6B1C841C9D1C54
:1001A000B61CCF1CE81C011D1A1D331D4C1D651DFE
:1001B0007E1D971DB01DC91DE21D531EFB1D051E92
:1001C000201E2C1E28206C207D208E209F20B020F9
:1001D000C120D220E320F4200521162127212A2145
:1001E00045214A214F21542159215E2163217B2140
:1001F000AD21B321B82150237D23A923D523012488
:100200002D2459244B253D266126652669266D2619
:100210007126752679268D26A126E526E826EC2668
:10022000A4276827772786279527C527C927CD279D
:10023000D127D5272A28D927DD27E127E527E92750
:10024000ED27F1272A282A28F527F927FD27012855
:10025000042807280A280D281028132816281D28E6
:10026000242811241FBECFEFD1E2DEBFCDBF00E0B6
:100270000CBF19E0A0E0B2E0E2EEFFE900E00BBF46
:1002800002C007900D92A635B107D9F727E1A6E580
:10029000B9E001C01D92AE3AB207E1F70E942C4AC4
:1002A0000C94EF4FADCECF92DF92EF92FF920F936F
:1002B0001F93CF93DF93CDB7DEB769970FB6F8944E
:1002C000DEBF0FBECDBFE82E6CEB74E086E392E09C
:1002D0000E944B34FE0131968FE0DF011D928A951A
:1002E000E9F7F12C80911A13B701680F711DA091E5
:1002F0005613B091571320E030E090E06217730777
:1003000041F01496ED91FC911597E20FF31F408197
:10031000940F2F5F3F4F2C30310581F714E6191BE6
:1003200087E0E9E3F2E0DE01119601900D928A95F3
:10033000E1F76701BFEFCB1ADB0A4AE0BE01605F5D
:100340007F4FC6010E94AC4FBE01605F7F4FCE0160
:1003500001960E946A4F68EA75E1CE0101960E94FB
:1003600099340DEC809F012D1124802F8695869560
:10037000082F000F000F080F101738F460E472E028
:1003800086E392E00E944B34012FE0915613F091E6
:10039000571380911A130480F581E02DEE0EFF1E95
:1003A000F701E80FF11D008310E07E0180E1E80E07
:1003B000F11C4AE0B701C8010E94AC4FF70101905F
:1003C0000020E9F7319785E290E09183808386E011
:1003D000E4E5F2E0DE01119601900D928A95E1F7D5
:1003E0004AE0BE016B5E7F4FC6010E94AC4FBE016A
:1003F0006B5E7F4FCE0101960E946A4FB701CE011E
:1004000001960E944B344AE0B701C8010E94AC4FEC
:1004100087E0E9E3F2E0DE01119601900D928A9502
:10042000E1F74AE0BE016B5E7F4FC6010E94AC4F10
:10043000BE016B5E7F4FCE0101960E946A4FB701ED
:10044000CE0101960E946334AFE3BFE11197F1F74B
:1004500000C0000069960FB6F894DEBF0FBECDBF96
:10046000DF91CF911F910F91FF90EF90DF90CF9090
:10047000089590E08C30910590F5FC018827EE58A6
:10048000FF4F8F4F0C940B4D129A0895139A0895B5
:10049000149A0895159A0895169A0895179A08952A
:1004A000A29A0895E5E0F1E0808180648083089558
:1004B000E5E0F1E08081806280830895E5E0F1E08D
:1004C0008081806180830895E5E0F1E0808188602B
:1004D00080830895E5E0F1E0808184608083089561
:1004E00090E08C30910590F5FC018827E258FF4F91
:1004F0008F4F0C940B4D12980895139808951498EB
:100500000895159808951698089517980895A29833
:100510000895E5E0F1E080818F7B80830895E5E038
:10052000F1E080818F7D80830895E5E0F1E08081B6
:100530008F7E80830895E5E0F1E08081877F80836E
:100540000895E5E0F1E080818B7F8083089590E05D
:100550008C309105A0F5FC018827E657FF4F8F4F9F
:100560000C940B4D8FB180780895809106018170B5
:10057000089580910601827008958091060184702B
:100580000895809106018870089580910601807118
:10059000089580910601807208958091060180740B
:1005A00008958091060180780895809103018078F4
:1005B000089580B18170089580B18270089580E0BF
:1005C00008959F92AF92BF92CF92DF92EF92FF92E7
:1005D0000F931F93CF93DF93CDB7DEB7C454D109E8
:1005E0000FB6F894DEBF0FBECDBF6C0185E1FE01F2
:1005F0003196DF01982F1D929A95E9F77596DF01E4
:10060000982F1D929A95E9F77596DF011D928A95AC
:10061000E9F7759685E0DF011D928A95E9F7E0918B
:10062000EC0FF091ED0FF093790AE093780A2091A6
:100630001A1330E0121613060CF0D0C080E090E0E0
:100640000484F585E02D019682179307C9F7F0938E
:10065000790AE093780AC2C0BFEFEB1AFB0A4AE0BE
:10066000B801C7010E94AC4FB601CE0101960E94AD
:100670007E4FB801CE0101960E946A4F87E0E9E300
:10068000F2E0DE01569601900D928A95E1F7B801ED
:10069000CE0146960E946A4F86E0E4E5F2E0DE0174
:1006A0009B9601900D928A95E1F7B801CE018B9649
:1006B0000E946A4FE091780AF091790A8091690A64
:1006C00090916A0AE817F90799F58091C50A811196
:1006D00033C09092C50A60817181CE0101960E945B
:1006E0004B34E0915613F0915713A091780AB091D2
:1006F000790A15968C910480F581E02DE80FF11DA3
:1007000080814AE0B80190E00E94AC4FB801CE0170
:1007100046960E946334F80101900020E9F7319772
:10072000B182A082B801CE018B960E944B343DC0AD
:100730008091C50A882369F06CEB74E0CE010196C4
:100740000E944B346FE873E0CE0146960E946334FA
:100750002CC060817181CE0101960E944B34E091E2
:100760005613F0915713A091780AB091790A159613
:100770008C910480F581E02DE80FF11D80814AE025
:10078000B80190E00E94AC4FB801CE0146960E949D
:100790006334F80101900020E9F73197B182A0821B
:1007A000B801CE018B960E944B34E091780AF0910B
:1007B000790A8091EC0F9091ED0FE817F90711F489
:1007C0009092E00E848595859093790A8093780ABB
:1007D00084E0E816F10409F03FCF0DC0E12CF12CC4
:1007E0008E01005C1F4F0F2EF5E2AF2EB12CF02DC5
:1007F0009924939431CFCC5BDF4F0FB6F894DEBFD2
:100800000FBECDBFDF91CF911F910F91FF90EF9061
:10081000DF90CF90BF90AF909F9008950F931F935C
:10082000CF93DF9300D01F92CDB7DEB78C01E0915C
:100830005613F09157138681803228F08AE592E0B2
:100840000E949F3504C08AE592E00E946635F80157
:100850006081718183E692E00E944B34F8018681C9
:100860004AE0BE016F5F7F4F90E00E94AC4FAE0147
:100870004F5F5F4F60E772E083E792E00E9473345E
:100880008091770A813059F018F0823079F014C0E5
:1008900067E772E083E892E00E944B340DC061E9A3
:1008A00072E083E892E00E944B3406C06DE972E08A
:1008B00083E892E00E944B340F900F900F900F90BE
:1008C000DF91CF911F910F9108952F923F924F92F8
:1008D0005F926F927F928F929F92AF92BF92CF92D0
:1008E000DF92EF92FF920F931F93CF93DF93CDB7D9
:1008F000DEB7E4970FB6F894DEBF0FBECDBF69AB8D
:100900007AAB8BAB9CAB5A018091EC0F9091ED0FC1
:100910009093790A8093780A1092D90E0F2EF4E101
:100920006F2EF02D4A012DE3820E911C77247394D3
:10093000E091780AF091790A808191810E946D4856
:1009400082E897E00E946D48E0915613F0915713AA
:10095000A091780AB091790A15968C910480F5815E
:10096000E02DE80FF11D6082A091780AB091790A1C
:10097000E0915613F091571315968C9115970480BA
:10098000F581E02DE80FF11D8081882309F40CC169
:1009900080915013811108C18D919C910E946D48E6
:1009A00082E897E00E946D48E091780AF091790A18
:1009B000148280E00E94E547F401C080D180E2808B
:1009C000F38028EE33E040E050E00E94EF4CCA0193
:1009D000B9010E94504BA70196010E94524A65013D
:1009E0007B018C0120E030E04AEF54E4CA01B901F8
:1009F0000E943C43F5018081882369F0C5010E9473
:100A000013348FE99FE00197F1F700C00000F50172
:100A100080818111F3CF20E030E0A9016BE680E016
:100A200090E00E94FE4680E3E6E0F2E0DE011196EF
:100A300001900D928A95E1F78091D20B9091D30BA2
:100A4000E0915613F09157130480F581E02DE80FE3
:100A5000F91F1081880F991F880F991FE1E0F0E0BE
:100A6000EC0FFD1FE80FF91F608171818281938176
:100A700029A93AA94BA95CA90E94BE4C9B01AC01D3
:100A8000A12FB0E00E94224D24E630E040E050E08B
:100A90000E94CD4C19012A01E091780AF091790A5F
:100AA000858155DDE091780AF091790A8581E1DC54
:100AB000072D01C0082F10915C09F12EF7241111A8
:100AC00068C009F468C08091580990915909A091B3
:100AD0005A09B0915B09AC01BD014F5F5F4F6F4F89
:100AE0007F4F409358095093590960935A09709366
:100AF0005B09281639064A065B06D0F4E091780AAD
:100B0000F091790A8581ECDC10925809109259090C
:100B100010925A0910925B098FE99FE00197F1F753
:100B200000C000000E94EB32882309F468C06DC049
:100B3000EFE9FFE03197F1F700C000000E94EB32CF
:100B4000882359F10E94743380915013813039F514
:100B5000812FC6DC1F5F1C30D9F78EE00E942C3439
:100B6000FFEF27EA81E6F15020408040E1F700C026
:100B70000000809156139091571350DE109258093F
:100B80001092590910925A0910925B09F0925C096F
:100B90000BC0802F05C0802F03C0802F01C0802F85
:100BA000F0925C09011186CFE091780AF091790A00
:100BB000848595859093790A8093780A2091EC0F2B
:100BC0003091ED0F8217930709F0B2CE10925013B7
:100BD0008091D90E813001F58DE00E942C3462EABB
:100BE00072E08AEB92E00E944B349FEFE7EAF1E675
:100BF0009150E040F040E1F700C000000DC0F092DD
:100C00005C09D2CFF0925C09CFCF0E9474338091FF
:100C100050138130B9F79CCFE4960FB6F894DEBF3D
:100C20000FBECDBFDF91CF911F910F91FF90EF903D
:100C3000DF90CF90BF90AF909F908F907F906F90FC
:100C40005F904F903F902F900895CF92DF92EF9258
:100C5000FF926B017C0185E00E942C3462EC72E013
:100C60008BEE92E00E944B342FEF83ED90E3215006
:100C700080409040E1F700C000004091B40A5091DC
:100C8000B50AC701B60121DE86E00E942C342FEFA1
:100C900087EA91E6215080409040E1F700C00000D3
:100CA00081E00E942C348091561390915713B6DD49
:100CB000FF90EF90DF90CF9008952F923F924F9248
:100CC0005F926F927F928F929F92AF92BF92CF92DC
:100CD000DF92EF92FF920F931F93CF93DF93CDB7E5
:100CE000DEB7CA50D2400FB6F894DEBF0FBECDBFFC
:100CF000FE0131968AE0DF011D928A95E9F73A9666
:100D000080E092E0DF019C011D9221503040E1F72C
:100D10008091EC0F9091ED0F9093790A8093780A6F
:100D200000E010E07F010F2EF4E1AF2EB12CF02D8A
:100D30000F2EFDE28F2E912CF02D0F2EF8E22F2E8C
:100D4000312CF02D60905613709057132801D30169
:100D50001496ED91FC911597E00FF11F8081882387
:100D600009F44EC0C090780AD090790AF6016081EB
:100D70007181C7010E946A4F80E090E008C0F701CE
:100D800001900020E9F73197918280820196F60167
:100D9000A081B181FD0101900020E9F73197EA1BA4
:100DA000FB0B95012E1B3F0B8217930740F3F701B6
:100DB00001900020E9F7319731822082D301149607
:100DC0008D919C911597FC01E40DF51D80814AE001
:100DD000BE016F5F7F4F90E00E94AC4FBE016F5F1E
:100DE0007F4FC7010E946A4FD7010D900020E9F79D
:100DF000119785E0E6EFF2E001900D928A95E1F718
:100E0000E091780AF091790A848595859093790A22
:100E10008093780A0F5F1F4F0C30110509F092CFB5
:100E2000BE01655F7F4F8BEF92E00E944B34C65F3F
:100E3000DD4F0FB6F894DEBF0FBECDBFDF91CF916F
:100E40001F910F91FF90EF90DF90CF90BF90AF90E8
:100E50009F908F907F906F905F904F903F902F90DA
:100E60000895AF92BF92CF92DF92EF92FF920F93CD
:100E70001F93CF93DF93CDB7DEB7E6970FB6F89405
:100E8000DEBF0FBECDBF4AE08E010F5F1F4FB8011E
:100E900090E00E94AC4FD8010D900020E9F7119727
:100EA00085E0E7EDF5E001900D928A95E1F7B80154
:100EB00080E00E94413C8AE39DE09CAB8BAB8AE0E2
:100EC00090E09EAB8DABBE016D5C7F4F89ED9CE0E9
:100ED0000E94604F8C01892B09F4F1C07E0183E3ED
:100EE000E80EF11C68E073E0C8010E94754F892B81
:100EF00079F4B70180E090E00E94604F8C01E091AE
:100F00005613F0915713BC01808191810E947E4F4E
:100F10006DE073E0C8010E94754F892B09F088C00D
:100F2000B70180E090E00E94604F8C018091EC0F4F
:100F30009091ED0F9093790A8093780AE09156137F
:100F4000F0915713A091780AB091790A15968C9177
:100F50000480F581E02DE80FF11D1082E091780A00
:100F6000F091790A848595859093790A8093780A1F
:100F70002091EC0F3091ED0F82179307F9F6F801ED
:100F800080818B3309F454C0CE2CDF2C8091EC0F80
:100F90009091ED0F9093790A8093780AE091780A06
:100FA000F091790A60817181C8010E94754F892B87
:100FB00011F56C2D7D2D80E090E00E94604F8C013A
:100FC000E0915613F0915713A091780AB091790AE5
:100FD00015968C91A480B580A80EB11CC8010E9402
:100FE000434FF50180838091EC0F9091ED0F90932A
:100FF000790A8093780AE091780AF091790A8485D9
:1010000095859093790A8093780A2091EC0F30911E
:10101000ED0F8217930711F66C2D7D2D80E090E087
:101020000E94604F8C01FC0180818B3309F0AECFB0
:1010300064E173E0C8010E94754F892B71F4B70118
:1010400080E090E00E94604F8C01C0905613D090D9
:1010500057130E94434FF60182836CE173E0C8018D
:101060000E94754F892B71F4B70180E090E00E94D7
:10107000604F8C01C0905613D09057130E94434F7D
:10108000F601838369E273E0C8010E94754F892BE2
:1010900069F4B70180E090E00E94604F0091561320
:1010A000109157130E94434FF8018683B70180E0E7
:1010B00090E00E94604F8C01892B09F013CFE696D7
:1010C0000FB6F894DEBF0FBECDBFDF91CF911F9159
:1010D0000F91FF90EF90DF90CF90BF90AF90089569
:1010E000E091B60AF091B70A0190F081E02DF093FB
:1010F000BB0AE093BA0A90E01816190674F420E0CF
:1011000030E00380F481E02D2F5F3F4F281739072F
:10111000C1F7F093BB0AE093BA0AE091BA0AF091E2
:10112000BB0A80819EDEE0915613F09157138081B7
:1011300091810E946D4882E897E00E946D4810926C
:10114000E00E1092C50A10921A130895C9DF89E0C3
:101150000E942C348EE293E034DA10921A13089530
:10116000EF92FF920F931F93CF93DF93CDB7DEB72C
:10117000C550D2400FB6F894DEBF0FBECDBFE09190
:10118000670AF091680AF093BB0AE093BA0A2091CB
:101190001A1390E0820F911D1816190674F420E0BE
:1011A00030E00380F481E02D2F5F3F4F281739078F
:1011B000C1F7F093BB0AE093BA0AE091BA0AF09142
:1011C000BB0A80814EDE8E010F5F1F4F80E092E0F0
:1011D000F8019C01119221503040E1F7D8010D90A7
:1011E0000020E9F7119780E1E4E3F3E001900D922C
:1011F0008A95E1F77E013FEFE31A3DEFF30A85E0C0
:10120000F70111928A95E9F7E091D00BF091D10B9B
:10121000828190E04AE0B70101960E94AC4FB7018D
:10122000C8010E946A4FF80101900020E9F7319748
:101230008AE390E091838083E0915613F0915713F5
:1012400060817181C8010E946A4FC8010E9496485E
:10125000C8010E946D48E0915613F09157136081C8
:101260007181E091D00BF091D10B808191810E942E
:101270007E4F89E10E942C3488E0E4E4F3E0D80159
:1012800001900D928A95E1F7E091D00BF091D10B8E
:1012900082814AE0B70190E00E94AC4FB701C801DB
:1012A0000E946A4FD8010D900020E9F7119788E05D
:1012B000ECE4F3E001900D928A95E1F7E091D00B18
:1012C000F091D10B60817181C8010E946A4FD801F1
:1012D0000D900020E9F7119780E1E4E5F3E001903B
:1012E0000D928A95E1F7B80184E693E00E944B34B1
:1012F000FFEF27EA31E6F15020403040E1F700C02F
:10130000000081E00E942C34809156139091571375
:1013100085DACB5FDD4F0FB6F894DEBF0FBECDBFD1
:10132000DF91CF911F910F91FF90EF900895AF92B1
:10133000BF92CF92DF92EF92FF920F931F93CF93C2
:10134000DF93CDB7DEB7AD970FB6F894DEBF0FBE13
:10135000CDBF5C017B01C090BE0AD090BF0AFE01E8
:10136000319685E1DF011D928A95E9F71E8A1F8A71
:10137000188E198E8E01065E1F4F84E1F8011192BE
:101380008A95E9F7C8010E946A4F8091D20B90912B
:10139000D30B4AE0BE016A5E7F4F01960E94AC4FBC
:1013A000BE016A5E7F4FC8010E946A4FC8010E9459
:1013B0002D35B092BB0AA092BA0A00E010E0BB241F
:1013C000B3940F5F1F4F4AE0BE016A5E7F4FC801B2
:1013D0000E94AC4FB701CE0101960E947E4FBE0124
:1013E0006A5E7F4FCE0101960E946A4FE091BA0A71
:1013F000F091BB0A8091BE0A9091BF0AE817F907E5
:1014000099F48091C50A811113C0B092C50A8081F8
:1014100028DDE0915613F091571360817181CE0160
:1014200001960E944B3434C08091C50A882321F173
:101430006CEB74E0CE0101960E944B348FE39CE983
:101440000197F1F700C00000B701CE014A960E9453
:101450007E4F4AE0BE016A5E7F4FC8010E94AC4FDA
:10146000BE016A5E7F4FCE014A960E946A4FCE014E
:101470004A960E94F4340CC08081F3DCE09156134C
:10148000F091571360817181CE0101960E944B3417
:10149000E091BA0AF091BB0A8091670A9091680ABC
:1014A000E817F90731F48091C50A81111CC0B09288
:1014B000E00E938184819093BA0A8093BB0A063030
:1014C000110531F42091C50A211102C0C92ED82E70
:1014D000AFE3BCE91197F1F700C000000630110539
:1014E00009F06FCF07C0838194819093BB0A8093EA
:1014F000BA0AEECF8C2D9D2DAD960FB6F894DEBFB7
:101500000FBECDBFDF91CF911F910F91FF90EF9054
:10151000DF90CF90BF90AF900895CF93DF93CDB77A
:10152000DEB7E2970FB6F894DEBF0FBECDBFE091F5
:10153000BA0AF091BB0A0180F281E02DF093BB0A58
:10154000E093BA0ABE016F5F7F4F82E3DB011D9219
:101550008A95E9F780814AE090E00E94AC4FE091E3
:10156000BA0AF091BB0A80817CDCE2960FB6F8944F
:10157000DEBF0FBECDBFDF91CF910895CF93DF9334
:10158000CDB7DEB7E2970FB6F894DEBF0FBECDBF82
:10159000E091BA0AF091BB0A0380F481E02DF09348
:1015A000BB0AE093BA0ABE016F5F7F4F82E3DB01A3
:1015B0001D928A95E9F780814AE090E00E94AC4F45
:1015C000E091BA0AF091BB0A80814BDCE2960FB63B
:1015D000F894DEBF0FBECDBFDF91CF91089510927A
:1015E00016121092D30B1092D20B0E948A41809354
:1015F0001712882309F44DC02091D20B3091D30BE0
:101600002F5F3F4F3093D30B2093D20B2A303105FD
:1016100060F348C081E993E00E946D488091171201
:10162000823021F489EA93E00E946D488FE00E94A5
:101630002C3467EC73E084E693E00E944B3413C0D3
:1016400089E194E00E946D480EC085E494E00E9418
:101650006D4809C083E694E00E946D4804C08FE89D
:1016600094E00E946D488FE99FE00197F1F700C078
:10167000000081E0809351130E94823780931712FB
:101680008823A1F08AEA94E00E946D4810925113D9
:101690000895809116128230C1F28330D9F28130E0
:1016A000F1F6CECF813009F0B9CFB4CF08955F9273
:1016B0006F927F928F929F92AF92BF92CF92DF9262
:1016C000EF92FF920F931F93CF93DF93CDB7DEB7C7
:1016D000C959D1090FB6F894DEBF0FBECDBF782E21
:1016E000542E622E8E010F5F1F4F80E8D8011D928D
:1016F0008A95E9F7D8010D900020E9F7119786E067
:10170000EDEBF4E001900D928A95E1F7C8010E949B
:101710006A4FD8010D900020E9F711978AE0E3ECB9
:10172000F4E001900D928A95E1F7FE01EF57FF4F2B
:1017300085E0DF011D928A95E9F78091EC0F909189
:10174000ED0F9093790A8093780A68010F2EFAE3DF
:101750008F2E912CF02D0F2EFDE0AF2EB12CF02D01
:10176000E0905613F09057130091780A1091790A7F
:10177000D80115968C91D7011496ED91FC9115978F
:10178000E80FF11D8081882361F1F801608171818A
:10179000C6010E946A4FF60101900020E9F73197D7
:1017A00091828082D80115968C91D7011496ED9183
:1017B000FC911597E80FF11D80814AE0BE016F573B
:1017C0007F4F90E00E94AC4FBE016F577F4FC60124
:1017D0000E946A4FF60101900020E9F73197B1822B
:1017E000A082E091780AF091790A8485958590939A
:1017F000790A8093780A2091EC0F3091ED0F8217CF
:10180000930709F0ADCF8E010F5F1F4FF8010190D4
:101810000020E9F731978BE39DE09183808312826A
:10182000D8010D900020E9F7119789E0E4ECF6E08B
:1018300001900D928A95E1F74AE0BE016F577F4F04
:10184000852D90E00E94AC4FBE016F577F4FC801BD
:101850000E946A4FF80101900020E9F731970F2E9E
:10186000FDE0EF2EF12CF02DF182E082D8010D90F9
:101870000020E9F711978EE0EDECF4E001900D9275
:101880008A95E1F74AE0BE016F577F4F862D90E0C1
:101890000E94AC4FBE016F577F4FC8010E946A4F34
:1018A000F80101900020E9F73197F182E082D80138
:1018B0000D900020E9F7119786E0EBEDF4E0019040
:1018C0000D928A95E1F7E0915613F09157138681B6
:1018D000883171F04AE0BE016B567F4F90E00E9464
:1018E000AC4FBE016B567F4FC8010E946A4F0BC0C0
:1018F000FE01319601900020E9F7319782E394E3ED
:10190000918380831282FE0131967F010190002035
:10191000E9F731978EE790E0918380838E010A5733
:101920001F4F8FE0D8011D928A95E9F74AE0B80170
:10193000872D90E00E94AC4FD8010D900020E9F770
:10194000119785E0E7EDF5E001900D928A95E1F7BA
:10195000B701C8010E941C3DC756DF4F0FB6F8946F
:10196000DEBF0FBECDBFDF91CF911F910F91FF90D2
:10197000EF90DF90CF90BF90AF909F908F907F902F
:101980006F905F9008950F931F93CF93DF93CDB720
:10199000DEB764970FB6F894DEBF0FBECDBF8E01E1
:1019A0000F5F1F4F94E1F80111929A95E9F74AE011
:1019B000B80190E00E94AC4FD8010D900020E9F7EB
:1019C000119785E0E7EDF5E001900D928A95E1F73A
:1019D000C8010E94103D64960FB6F894DEBF0FBE9A
:1019E000CDBFDF91CF911F910F910895EF92FF929C
:1019F0000F931F93CF93DF93CDB7DEB7A1970FB6A9
:101A0000F894DEBF0FBECDBF8E010F5F1F4F95E173
:101A1000F80111929A95E9F77E01F6E1EF0EF11CBB
:101A200095E0F70111929A95E9F72AE530E03A83BB
:101A300029834AE0B70190E00E94AC4FB701C8018A
:101A40000E946A4FD8010D900020E9F7119785E0B8
:101A5000E7EDF5E001900D928A95E1F7B80180E09D
:101A60000E94413C87E0E1EEF4E0DE015B960190EC
:101A70000D928A95E1F7BE01655E7F4F89ED9CE08E
:101A80000E94604F8C01892BC1F168E073E0C801AE
:101A90000E94754F892B89F4BE01655E7F4F80E0FF
:101AA00090E00E94604F8C01E091860AF091870AD5
:101AB000BC01808191810E947E4F64E173E0C80186
:101AC0000E94754F892B79F4BE01655E7F4F80E0DF
:101AD00090E00E94604F0091860A1091870A0E9450
:101AE000434FF8018283BE01655E7F4F80E090E046
:101AF0000E94604F8C01892B41F6A1960FB6F89495
:101B0000DEBF0FBECDBFDF91CF911F910F91FF9030
:101B1000EF9008959F92AF92BF92CF92DF92EF9293
:101B2000FF920F931F93CF93DF93CDB7DEB7C956C4
:101B3000D1090FB6F894DEBF0FBECDBF8C017B017B
:101B4000A0906409B090650984E10E942C3482E37E
:101B5000FE013196DF01982F1D929A95E9F7F296D2
:101B600095E0DF011D929A95E9F73596DF011D9208
:101B70008A95E9F710930D1000930C1000E010E027
:101B8000992493946F010F5F1F4F4AE0BE016D5C73
:101B90007F4FC8010E94AC4FB701CE0101960E9451
:101BA0007E4FBE016D5C7F4FCE0101960E946A4F51
:101BB000E0910C10F0910D108091640990916509ED
:101BC000E817F90799F48091C50A811113C0909222
:101BD000C50A80810BDFE091860AF091870A608157
:101BE0007181CE0101960E944B3421C08091C50ABB
:101BF000882389F06CEB74E0CE0101960E944B348F
:101C00008FE39CE90197F1F700C00000CE01019637
:101C10000E94F4340CC08081E9DEE091860AF091E4
:101C2000870A60817181CE0101960E944B34209118
:101C30000C1030910D1080918A0A90918B0A281710
:101C4000390731F48091C50A811102C09092E00EEB
:101C5000E091860AF091870A60817181E091780AAB
:101C6000F091790A808191810E94754F892BB9F496
:101C7000BE016F5F7F4FC6010E947E4FD6010D905F
:101C80000020E9F711978AE0E8EEF4E001900D9268
:101C90008A95E1F7C6010E9480480E941634E091BF
:101CA0000C10F0910D109381848190930C1080930F
:101CB0000D100630110531F42091C50A211102C022
:101CC000A92EB82EAFE3BCE91197F1F700C00000D0
:101CD0000630110509F057CF8A2D9B2DC759DF4FCC
:101CE0000FB6F894DEBF0FBECDBFDF91CF911F912D
:101CF0000F91FF90EF90DF90CF90BF90AF909F90AB
:101D00000895CF92DF92EF92FF920F931F93CF939C
:101D1000DF93CDB7DEB7EC970FB6F894DEBF0FBEFA
:101D2000CDBF8091EC0F9091ED0F9093790A809345
:101D3000780A00E010E00F2EF2E6CF2ED12CF02D25
:101D4000CE0101967C01DA82C9824AE0BE016D5C57
:101D50007F4FC8010E94AC4FBE016D5C7F4FC70131
:101D60000E946A4FE091780AF091790A828181306D
:101D700089F018F08230D9F026C0D7010D900020EC
:101D8000E9F7119787E0E2EFF4E001900D928A9570
:101D9000E1F719C0D7010D900020E9F711978AE00B
:101DA000E8EEF4E001900D928A95E1F70CC0D701BE
:101DB0000D900020E9F711978BE0E9EFF4E0019036
:101DC0000D928A95E1F7C7010E9480480E9416345F
:101DD000E091780AF091790A848595859093790A43
:101DE0008093780A0F5F1F4F0C30110509F0ABCFBD
:101DF000EC960FB6F894DEBF0FBECDBFDF91CF914A
:101E00001F910F91FF90EF90DF90CF900895E09198
:101E1000EC0FF091ED0FF093790AE093780A90E0DF
:101E20001816190674F420E030E00484F585E02DDE
:101E30002F5F3F4F28173907C1F7F093790AE093D6
:101E4000780A0895AF92BF92CF92DF92EF92FF92FD
:101E50000F931F93CF93DF93CDB7DEB7C550D2401A
:101E60000FB6F894DEBF0FBECDBFFE01319680E005
:101E700092E0DF019C011D9221503040E1F78091FA
:101E8000670A9091680A9093BB0A8093BA0AFC0192
:101E900000E00F5F0380F481E02D8E179F07C9F7E4
:101EA000CE0101967C01DC010D900020E9F711972D
:101EB00080E1E4E0F5E001900D928A95E1F76E0192
:101EC0009FEFC91A9DEFD90A85E0D6011D928A9528
:101ED000E9F710E04AE0B601C8010E94AC4FB60134
:101EE000C7010E946A4FF70101900020E9F731977E
:101EF0008AE390E091838083E091670AF091680A19
:101F0000F093BB0AE093BA0A80810E943107E09106
:101F10005613F091571360817181C7010E946A4F77
:101F2000E091BA0AF091BB0A838194819093BB0A35
:101F30008093BA0A01501109101611068CF5E12C94
:101F4000F12CFE0131966F010F2EFCE2AF2EB12C69
:101F5000F02DF60101900020E9F73197B182A082BF
:101F6000E091BA0AF091BB0A80810E943107E091AA
:101F70005613F091571360817181C6010E946A4F18
:101F8000E091BA0AF091BB0A838194819093BB0AD5
:101F90008093BA0AFFEFEF1AFF0AE016F106CCF2BF
:101FA0008E010F5F1F4FF80101900020E9F7319774
:101FB0008AE390E091838083C8010E946D48C80144
:101FC0000E949648CB5FDD4F0FB6F894DEBF0FBE80
:101FD000CDBFDF91CF911F910F91FF90EF90DF90D8
:101FE000CF90BF90AF9008959F92AF92BF92CF9243
:101FF000DF92EF92FF920F931F93CF93DF93CDB7B2
:10200000DEB7CA50D4400FB6F894DEBF0FBECDBFC6
:1020100080E092E0FE013196DF019C011D9221508B
:102020003040E1F7DE01AF5FBD4FFD019C01119231
:1020300021503040E1F79E012F5F3B4F8AE0F901CC
:1020400011928A95E9F78091EC0F9091ED0F9093A2
:10205000790A8093780A89E0E4E1F5E001900D9235
:102060008A95E1F7AA24A394B12C345079010F2E5C
:10207000FCE2CF2ED12CF02D912CE091780AF0913A
:10208000790A00811181B8018DE195E00E94754FB8
:10209000892BA9F031E0A31206C0B801C7010E9444
:1020A0006A4FA92C0BC0F70101900020E9F7319786
:1020B000D182C082B801C7010E946A4FB394E091F7
:1020C000780AF091790A848595859093790A8093AE
:1020D000780A2091EC0F3091ED0F8217930769F683
:1020E0004AE0BE016F5F7B4F8B2D90E00E94AC4FAA
:1020F0008E010F5F1D4FBE016F5F7B4FC8010E94B5
:102100006A4FF80101900020E9F731978AE390E0E7
:1021100091838083BE016F5F7F4FC8010E946A4F29
:10212000C8010E949648C8010E946D48C65FDB4FF7
:102130000FB6F894DEBF0FBECDBFDF91CF911F91D8
:102140000F91FF90EF90DF90CF90BF90AF909F9056
:1021500008950F931F93CF93DF93CDB7DEB7C4508D
:10216000D1400FB6F894DEBF0FBECDBF0E948733BB
:102170008823E1F38E010F5F1F4F80E091E0F801AB
:102180009C01119221503040E1F78CE29AE3CF5F3D
:10219000DE4F99838883C150D1408DE090E0CD5FC0
:1021A000DE4F99838883C350D1406AEA76E1C80143
:1021B0000E947E4FBE016F5F7E4FC8010E94604F3C
:1021C0008C0184E395E00E946D48C8010E946D482F
:1021D000E091670AF091680AF093BB0AE093BA0AAB
:1021E00080810E94310712C0E091BA0AF091BB0AC7
:1021F0000380F481E02DF093BB0AE093BA0A80815A
:102200000E94310780E495E00E946D48E0915613EA
:10221000F0915713B801808191810E94754F892BED
:1022200019F784E00E942C34CC5FDE4F0FB6F8948F
:10223000DEBF0FBECDBFDF91CF911F910F910895EB
:102240002F923F924F925F926F927F928F929F92C6
:10225000AF92BF92CF92DF92EF92FF920F931F93B4
:10226000CF93DF93CDB7DEB7C154D2400FB6F89409
:10227000DEBF0FBECDBF0E9487338823E1F38AEA19
:1022800096E10E946D4880E091E09E012F5F3F4FF4
:102290007901D901FC011D923197E9F78E010F5F99
:1022A0001E4FD801FC011D923197E9F78CE29AE3A9
:1022B000CF5FDD4F99838883C150D2408DE090E09D
:1022C000CD5FDD4F99838883C350D2406AEA76E1BF
:1022D000C9010E947E4FBE016F5F7D4FC7010E9402
:1022E000604F7C0187E495E00E946D48C7010E9421
:1022F0006D48D8010D900020E9F7119786E0EDEBCD
:10230000F4E001900D928A95E1F7B701C8010E94AF
:102310006A4FD8010D900020E9F711978AE0E3ECAD
:10232000F4E001900D928A95E1F7FE01EB5FFD4F1D
:1023300084E1DF011D928A95E9F7749685E1DF015A
:102340001D928A95E9F7C12CD12C312C48010F2E12
:10235000FAE36F2E712CF02D0F2EFDE04F2E512C35
:10236000F02D222423948FE495E00E946D48EFEF36
:10237000CE1ADE0A4AE0BE016B5F7D4FC6010E94A5
:10238000AC4FCE018B5F9D4F0E946D488FEB97E065
:102390000E946D48BE016F5F7D4F80E090E00E941B
:1023A000604F8C010E946D48B801CE01875E9D4F41
:1023B0000E947E4F86E595E00E946D484AE0BE018E
:1023C0006B5F7D4FC6010E94AC4FCE018B5F9D4F6E
:1023D0000E946D488FEB97E00E946D48BE016F5FD1
:1023E0007D4F80E090E00E94604F5C010E94434F6F
:1023F000181619060CF045C08091EC0F9091ED0F66
:102400009093790A8093780A0F2EFCE0EF2EF12C3E
:10241000F02D0091780A1091790ABE01675E7D4F18
:10242000D8018D919C910E94754F892B29F4F80158
:102430008381813009F4322CD8011C968D919C91B6
:102440001D979093790A8093780AB1E0EB1AF1080E
:1024500001F7BE01675E7D4FC4010E946A4FF4011F
:1024600001900020E9F7319771826082B501C401C3
:102470000E946A4FF40101900020E9F731975182E0
:102480004082C5010E946D48EFEFF3EC29E0E15076
:10249000F0402040E1F700C000003CE0C316D1044A
:1024A00009F061CF8E010F5F1E4FF80101900020EF
:1024B000E9F731978BE39DE0918380831282D80105
:1024C0000D900020E9F7119789E0E4ECF6E0019027
:1024D0000D928A95E1F74AE0BE016B5F7D4F832D37
:1024E00090E00E94AC4FBE016B5F7D4FC8010E941F
:1024F0006A4FD8010D900020E9F7119789E0EDE5CA
:10250000F5E001900D928A95E1F7F8010190002025
:10251000E9F731978EE790E091838083C8010E94AC
:102520006D487E0182EDE81A8DEFF80A84E1D7014B
:102530001D928A95E9F7E091BE0AF091BF0A808169
:1025400090E04AE0BE016B5F7D4F01960E94AC4F68
:10255000BE016B5F7D4FC7010E947E4FD7010D907A
:102560000020E9F7119785E0E7EDF5E001900D9285
:102570008A95E1F7B801C7010E941C3DC7010E947E
:102580006D48E091730AF091740A80818F5F0E9418
:102590006D29BC018EEB9AE00E9485299093BF0AB9
:1025A0008093BE0ACF5BDD4F0FB6F894DEBF0FBE3F
:1025B000CDBFDF91CF911F910F91FF90EF90DF90F2
:1025C000CF90BF90AF909F908F907F906F905F90D3
:1025D0004F903F902F9008951092BF0A1092BE0A1C
:1025E0001092680A1092670A089589E10E942C34BB
:1025F00066E675E084E693E00E944B34EDDF80915F
:10260000B80A9091B90A9093C90A8093C80AE091D8
:10261000C80AF091C90A80810E942C28882381F081
:10262000E091C80AF091C90A80810E946D29BC011D
:102630008EEB9AE00E9485299093BF0A8093BE0A90
:10264000E091C80AF091C90A838194819093C90AE4
:102650008093C80A2091B80A3091B90A821793076B
:10266000B1F6E091670AF091680AF093BB0AE09333
:10267000BA0A80810E94310787E00C942C340895B7
:10268000CF92DF92EF92FF920F931F93CF93DF933E
:10269000CDB7DEB7CA51D2400FB6F894DEBF0FBE39
:1026A000CDBF89E10E942C3469EB75E084E693E0AC
:1026B0000E944B342FEF37EA81E6215030408040B2
:1026C000E1F700C000001A8219821092D50B109217
:1026D000D40BFE01339680E092E0DF019C011D9255
:1026E00021503040E1F7F12C0F2D10E08091D40BF8
:1026F0009091D50B800F911F0E94E74FA3E0B0E0AF
:10270000AC0FBD1F0A0F1B1FF80180838983CE0108
:1027100001960E946D48F394D8018C918E3721F771
:102720008E010D5F1D4F84E1F80111928A95E9F742
:1027300086E0E6EDF5E0D80101900D928A95E1F78B
:10274000C8010E94103D86E0E6EDF5E0D801019059
:102750000D928A95E1F7BE016D5F7F4FC8010E941F
:102760001C3D8CE29DE0C95EDD4F99838883C75193
:10277000D2408AE090E0C75EDD4F99838883C951DB
:10278000D2408091EC0F9091ED0F9093790A809355
:10279000780AD12CCC24C394DD2041F0BE01695EBF
:1027A0007D4F80E090E00E94604F08C0BE01695EEE
:1027B0007D4FCE0103960E94604FDC2CE091780A99
:1027C000F091790ABC01808191810E947E4FE09155
:1027D000780AF091790A808191810E946D48BE014A
:1027E000695E7D4F80E090E00E94604F8C010E9406
:1027F0006D48E090780AF090790AC8010E94434F32
:10280000D70112968C93BE01695E7D4F80E090E007
:102810000E94604F0091780A1091790A0E94434FFC
:10282000F8018383BE01695E7D4F80E090E00E94E5
:10283000604F0091780A1091790A0E94434FD801A5
:1028400014968C9314971C968D919C911D97909340
:10285000790A8093780A2091EC0F3091ED0F82175E
:10286000930709F099CFC1DE81E00E942C34E091FA
:10287000670AF091680AF093BB0AE093BA0A808174
:102880000E94310780915613909157130E940E04B5
:10289000C65EDD4F0FB6F894DEBF0FBECDBFDF9131
:1028A000CF911F910F91FF90EF90DF90CF900895FF
:1028B0008F929F92AF92BF92CF92DF92EF92FF9250
:1028C0000F931F93CF93DF93CDB7DEB72A970FB641
:1028D000F894DEBF0FBECDBF8C018091EC0F9091BC
:1028E000ED0F9093790A8093780AFE0131968AE081
:1028F000DF011D928A95E9F7E12CF12C0F2EFCE205
:10290000CF2ED12CF02D0F2EFEE78F2E912CF02DF7
:102910000F2EFDE0AF2EB12CF02DE114F10451F09B
:10292000E091780AF091790A60817181C8010E9472
:102930006A4F09C0E091780AF091790A608171814B
:10294000C8010E947E4FF80101900020E9F73197FD
:10295000D182C082E091780AF091790A82814AE0BE
:10296000BE016F5F7F4F90E00E94AC4FBE016F5F72
:102970007F4FC8010E946A4FF80101900020E9F7DB
:102980003197D182C082E091780AF091790A8381EF
:102990004AE0BE016F5F7F4F90E00E94AC4FBE01E6
:1029A0006F5F7F4FC8010E946A4FF80101900020BD
:1029B000E9F73197D182C082E091780AF091790AE3
:1029C00084814AE0BE016F5F7F4F90E00E94AC4F70
:1029D000BE016F5F7F4FC8010E946A4F2091780A45
:1029E0003091790A8091690A90916A0A281739070B
:1029F00041F0F80101900020E9F73197B182A082FF
:102A000007C0F80101900020E9F731979182808298
:102A1000E091780AF091790A848595859093790AF6
:102A20008093780ABFEFEB1AFB0A8CE0E816F104FA
:102A300009F073CF2A960FB6F894DEBF0FBECDBF54
:102A4000DF91CF911F910F91FF90EF90DF90CF908A
:102A5000BF90AF909F908F900895EF92FF920F9349
:102A60001F93CF93DF93CDB7DEB7CF55D2400FB6CC
:102A7000F894DEBF0FBECDBF162F863091F5E091E2
:102A8000780AF091790AA081B181FD0101900020BE
:102A9000E9F731979F012A1B3B0B33272F5F3F4FED
:102AA00080E090E0E091780AF091790A0190F0815D
:102AB000E02DE80FF91F108201968217930794F317
:102AC00014C12D91E091780AF091790A0190F0817A
:102AD000E02DE80FF91F208301968830910589F7D2
:102AE0007EC0873061F5E091860AF091870AA08167
:102AF000B181FD0101900020E9F73197AF014A1B38
:102B00005B0B55274F5F5F4F80E090E0E091860AB6
:102B1000F091870A0190F081E02DE80FF91F2081E4
:102B2000E091780AF091790A0190F081E02DE80FA8
:102B3000F91F208301968417950744F350C0E09154
:102B40008A0AF0918B0AF0930D10E0930C102091FB
:102B50001A1390E0820F911D1816190674F420E0E4
:102B600030E00380F481E02D2F5F3F4F28173907B5
:102B7000C1F7F0930D10E0930C10E0910C10F09160
:102B80000D1080810E94F60CE091860AF091870A70
:102B9000A081B181FD0101900020E9F73197AF01DB
:102BA0004A1B5B0B55274F5F5F4F80E090E0E09141
:102BB000860AF091870A0190F081E02DE80FF91F55
:102BC0002081E091780AF091790A0190F081E02D5E
:102BD000E80FF91F208301968417950744F3E091CD
:102BE000780AF091790A128383E10E942C348E01D5
:102BF0000F5F1F4F82E3F80111928A95E9F77E017A
:102C0000F3E3EF0EF11C85E0F70111928A95E9F7E5
:102C10008EE492E79A8389838EE290E09C838B8393
:102C2000E091780AF091790A858190E04AE0B70155
:102C300001960E94AC4FB701C8010E946A4FF8018B
:102C400001900020E9F7319780E29DE39183808332
:102C500080E290E093838283E091780AF091790A90
:102C600060817181C8010E946A4FB8018CED95E0C6
:102C70000E944B3446D81092E00E1092C50A109272
:102C80001A130F2EF4E1FF2EF02DCE01C896FC0191
:102C90002F2D11922A95E9F726E0E6EDF5E0DC010B
:102CA00001900D922A95E1F70E94103D055B1F4FA0
:102CB00080E092E0F8019C01119221503040E1F750
:102CC000C801F6DDCE01845B9D4FFC011192FA94A0
:102CD000E9F726E0E6EDF5E0DC0101900D922A959A
:102CE000E1F7B8010E941C3D05C0ADE1B5E080E010
:102CF00090E0E7CEC15ADD4F0FB6F894DEBF0FBEAD
:102D0000CDBFDF91CF911F910F91FF90EF9008956C
:102D100090E0FC013297E830F10508F026C18827E1
:102D2000EA56FF4F8F4F0C940B4D82E00E942C34DB
:102D3000E0915613F09157136081718183E692E020
:102D40000E944B3480915613909157130C945D065A
:102D500008958091770A813039F018F08230B9F007
:102D600028C00E948D0A25C00E948D0AE09156134A
:102D7000F0915713828181111CC00E948D0AE0914D
:102D80005613F091571382818823B9F312C00E9421
:102D90008D0AE0915613F09157138281813049F4E6
:102DA0000E948D0AE0915613F09157138281813071
:102DB000B9F380915613909157130C940E04089513
:102DC00084E00E942C34E091BA0AF091BB0A808121
:102DD0000C94310708958091770A813039F018F00A
:102DE0008230B9F028C00E94BE0A25C00E94BE0AE7
:102DF000E0915613F0915713828181111CC00E94FB
:102E0000BE0AE0915613F091571382818823B9F3DB
:102E100012C00E94BE0AE0915613F09157138281AE
:102E2000813049F40E94BE0AE0915613F091571385
:102E300082818130B9F380915613909157130C948D
:102E40000E0408958091BA0A9091BB0A9093890A62
:102E50008093880A8091670A9091680A9093BB0AD0
:102E60008093BA0A1092810A1092800A1092A50AE1
:102E70001092A40A0E94632ABC0180E89AE00E9492
:102E8000722A9093810A8093800A8091A40A90917B
:102E9000A50A9093B70A8093B60A83E00E942C3467
:102EA000E091B60AF091B70A63E773E080819181FF
:102EB0000E94970990930710809306100E94632A3E
:102EC000BC0180E89AE00E94722A9093810A809364
:102ED000800A089587E00C942C340895E091670AE5
:102EE000F091680AF093BB0AE093BA0A80810E94CD
:102EF00031078091770A8130C1F018F0823049F1B2
:102F00002AC081E08093770AE0915613F09157131D
:102F10008281811120C00E94BE0AE0915613F09177
:102F2000571382818823B9F316C082E08093770A11
:102F3000E0915613F09157138281813061F40E9421
:102F4000BE0AE0915613F091571382818130B9F394
:102F500002C01092770A80915613909157130C94E7
:102F60000E04089582E10C942C340895813019F0F8
:102F7000823059F0089581E00E942C3480915613DC
:102F8000909157130C940E040895809156139091CC
:102F900057130C940E040895CF93DF9390E0FC0137
:102FA0003197E930F10508F0DEC08827E256FF4F7F
:102FB0008F4F0C940B4D80E00E94700881E00E94BE
:102FC0002C3480915613909157130E940E04CBC05D
:102FD00081E00E94700881E00E942C348091561399
:102FE000909157130E940E04BEC082E00E947008A8
:102FF00081E00E942C3480915613909157130E94C7
:103000000E04B1C083E00E94700881E00E942C345D
:1030100080915613909157130E940E04A4C084E02F
:103020000E94700881E00E942C3480915613909188
:1030300057130E940E0497C085E00E94700881E03B
:103040000E942C3480915613909157130E940E04C5
:103050008AC08091E00E811186C083E00E942C34EA
:103060001092C50AE091B60AF091B70A0280F38186
:10307000E02DF093B70AE093B60A63E773E080812E
:1030800091810E9497096FC08091C50A81116BC020
:103090001092E00E83E00E942C34E091B60AF09189
:1030A000B70A0480F581E02DF093B70AE093B60AE1
:1030B00063E773E0808191810E94970990930710E4
:1030C00080930610E091B60AF091B70AA081B18111
:1030D000E091800AF091810A0190F081E02D3C910D
:1030E0002081321340C00E94632ABC0180E89AE02C
:1030F0000E94722A9093810A8093800A34C01092B1
:10310000E00E1092C50A8091A40A9091A50A9093AE
:10311000B70A8093B60AC091B60AD091B70ACE0119
:103120000E94BA4E8C819D819093B70A8093B60A13
:103130002091A40A3091A50A8217930761F7E091C4
:10314000880AF091890AF093BB0AE093BA0A808159
:103150000E94310781E00E942C3480915613909197
:1031600057130E940E04DF91CF910895823059F0D9
:10317000833081F08130A1F463E070E080E090E082
:103180000C942506089565E070E080E090E00C94D2
:103190002506089580915613909157130C940E04B0
:1031A0000895813011F48093501308958F929F9267
:1031B000AF92BF92CF92DF92EF92FF920F931F9345
:1031C000CF93DF93CDB7DEB769970FB6F894DEBF24
:1031D0000FBECDBF90E0FC013197E830F10508F05B
:1031E000C7C08827E955FF4F8F4F0C940B4D809136
:1031F000670A9091680A9093BB0A8093BA0A0E946A
:10320000632ABC0180E89AE00E94722A9093B70A70
:103210008093B60A88E00E942C3410921A13E09131
:10322000B60AF091B70A63E773E0808191810E944A
:1032300097099EC080E10E942C34CE01019624E1C2
:10324000FC0111922A95E9F726E433E73A832983B2
:103250001B82DC010D900020E9F711972AE0E8EECF
:10326000F4E001900D922A95E1F70E9480480E94B7
:10327000163481E08093C00A1092E70FEFEEFFE072
:1032800001900020E9F73197CF018F5E9F40992789
:10329000181619060CF06CC0EFEEFFE08151904F4C
:1032A00011928E179F07E1F763C08AE00E942C34C9
:1032B0005FC08DE00E942C345BC081E00E942C3402
:1032C00080915613909157130E940E0451C083E1D0
:1032D0000E942C340E94810E4BC087E10E942C3446
:1032E00000E010E00F2EFAE0BF2EF02D9E012F5FC0
:1032F0003F4F69010F2EF5E0AF2EF02D7E0135E135
:10330000E30EF11CF6012B2D11922A95E9F7F70136
:103310002A2D11922A95E9F785E0E7EEF5E0D6012E
:1033200001900D928A95E1F748013FEF831A930AC5
:103330004B2DB701C4010E94AC4FB701C6010E94DA
:103340006A4F80911A13F801E80FF11DCF014B2D40
:10335000B70101960E94AC4FB701C6010E944B34E1
:1033600084010630110571F603C08AE10E942C34F5
:1033700069960FB6F894DEBF0FBECDBFDF91CF9137
:103380001F910F91FF90EF90DF90CF90BF90AF9083
:103390009F908F90089590E0FC013197EA30F105FD
:1033A00008F071C08827E155FF4F8F4F0C940B4DEB
:1033B00080E00C94A608089581E00C94A608089576
:1033C00082E00C94A608089583E00C94A608089562
:1033D00084E00C94A608089585E00C94A60808954E
:1033E0008091E00E81114FC01092C50A80911A138E
:1033F000815080931A13E091B60AF091B70A0280C7
:10340000F381E02DF093B70AE093B60A84819581A9
:103410000E94BA4E83E00E942C34E091B60AF091EB
:10342000B70A63E773E0808191810C94970908954E
:103430001092E00E8091C50A811125C080911A1367
:103440008F5F80931A1383E00E942C34E091B60AB8
:10345000F091B70A0480F581E02DF093B70AE0936C
:10346000B60A63E773E0808191810C94970908950F
:103470001092E00E1092C50A10921A1387E00C9475
:103480002C340895FDC8089590E0FC013197EA308E
:10349000F10508F0A0C08827E754FF4F8F4F0C9428
:1034A0000B4D1092C50A8091E00E811194C080915D
:1034B0001A13845080931A138EE293E00C94E10265
:1034C00008951092E00E8091C50A811184C0809108
:1034D0001A138C5F80931A138EE293E00C94E1022E
:1034E00008951092E00E1092C50A81E00C942C34DD
:1034F0000895E0915613F09157130480F581E02D63
:103500009F01245F3F4F80E09191890FE217F307FD
:10351000D9F7843679F51092E00E1092C50A109210
:103520001A1389E10E942C346CEE75E084E693E076
:103530000E944B34E091BA0AF091BB0A80810E944C
:10354000C30CE0915613F091571360817181A091E3
:10355000BA0AB091BB0A238142818C910E94570B19
:1035600081E00E942C3480915613909157130C9453
:103570000E04089560E076E086E392E00C944B340C
:10358000089580E00C945301089581E00C94530158
:10359000089582E00C945301089583E00C94530144
:1035A00008951092E00E1092C50A10921A1381E04D
:1035B0000E942C34E091670AF091680AF093BB0AEC
:1035C000E093BA0A80810E9431078091561390914E
:1035D00057130C940E040895813019F0823029F0AD
:1035E000089587E00C942C3408958BE00C942C34CF
:1035F00008951F93CF93DF93813019F0823029F023
:103600003AC087E00E942C3436C08CE00E942C34F3
:1036100010E080915013811112C0812F0E94390255
:10362000C0EDD7E00E94EB3281110E9474338FE924
:103630009FE00197F1F700C00000219799F7812FD3
:103640000E9470021F5F1C3021F71092501381E01E
:103650000E942C34E091670AF091680AF093BB0A4B
:10366000E093BA0A80810E943107809156139091AD
:1036700057130E940E04DF91CF911F91089581305E
:1036800031F487E00E942C3481E080935013089538
:10369000813019F487E00C942C340895CF93DF9394
:1036A000CDB7DEB7E2970FB6F894DEBF0FBECDBF41
:1036B000E82F9E012F5F3F4F82E3D9011D928A952B
:1036C000E9F780E389838E2F90E0FC013197EF3199
:1036D000F10508F020C38827ED53FF4F8F4F0C945E
:1036E0000B4D8091C00A813041F4E091E70FF0E08A
:1036F000E151F04F81E4808307C0E091E70FF0E0F3
:10370000E151F04F81E680838091E70F8F5F8093D6
:10371000E70F01C38091C00A813041F4E091E70FC7
:10372000F0E0E151F04F82E4808307C0E091E70FC1
:10373000F0E0E151F04F82E680838091E70F8F5FE8
:103740008093E70FE8C28091C00A813041F4E09194
:10375000E70FF0E0E151F04F83E4808307C0E09190
:10376000E70FF0E0E151F04F83E680838091E70FAF
:103770008F5F8093E70FCFC28091C00A813041F400
:10378000E091E70FF0E0E151F04F84E4808307C05F
:10379000E091E70FF0E0E151F04F84E68083809103
:1037A000E70F8F5F8093E70FB6C28091C00A813028
:1037B00041F4E091E70FF0E0E151F04F85E48083C0
:1037C00007C0E091E70FF0E0E151F04F85E680831C
:1037D0008091E70F8F5F8093E70F9DC28091C00AB1
:1037E000813041F4E091E70FF0E0E151F04F86E4E1
:1037F000808307C0E091E70FF0E0E151F04F86E6EB
:1038000080838091E70F8F5F8093E70F84C2809160
:10381000C00A813041F4E091E70FF0E0E151F04F50
:1038200087E4808307C0E091E70FF0E0E151F04FBB
:1038300087E680838091E70F8F5F8093E70F6BC2ED
:103840008091C00A813041F4E091E70FF0E0E1514E
:10385000F04F88E4808307C0E091E70FF0E0E1518A
:10386000F04F88E680838091E70F8F5F8093E70FAA
:1038700052C28091C00A813041F4E091E70FF0E03C
:10388000E151F04F89E4808307C0E091E70FF0E059
:10389000E151F04F89E680838091E70F8F5F80933D
:1038A000E70F39C28091C00A813041F4E091E70FFF
:1038B000F0E0E151F04F8AE4808307C0E091E70F28
:1038C000F0E0E151F04F8AE680838091E70F8F5F4F
:1038D0008093E70F20C28091C00A813041F4E091CB
:1038E000E70FF0E0E151F04F8BE4808307C0E091F7
:1038F000E70FF0E0E151F04F8BE680838091E70F16
:103900008F5F8093E70F07C28091C00A813041F436
:10391000E091E70FF0E0E151F04F8CE4808307C0C5
:10392000E091E70FF0E0E151F04F8CE68083809169
:10393000E70F8F5F8093E70FEEC18091C00A81305F
:1039400041F4E091E70FF0E0E151F04F8DE4808326
:1039500007C0E091E70FF0E0E151F04F8DE6808382
:103960008091E70F8F5F8093E70FD5C18091C00AE8
:10397000813041F4E091E70FF0E0E151F04F8EE447
:10398000808307C0E091E70FF0E0E151F04F8EE651
:1039900080838091E70F8F5F8093E70FBCC1809198
:1039A000C00A813041F4E091E70FF0E0E151F04FBF
:1039B0008FE4808307C0E091E70FF0E0E151F04F22
:1039C0008FE680838091E70F8F5F8093E70FA3C11D
:1039D0008091C00A813041F4E091E70FF0E0E151BD
:1039E000F04F80E5808307C0E091E70FF0E0E15100
:1039F000F04F80E780838091E70F8F5F8093E70F20
:103A00008AC18091C00A813041F4E091E70FF0E073
:103A1000E151F04F81E5808307C0E091E70FF0E0CE
:103A2000E151F04F81E780838091E70F8F5F8093B2
:103A3000E70F71C18091C00A813041F4E091E70F36
:103A4000F0E0E151F04F82E5808307C0E091E70F9D
:103A5000F0E0E151F04F82E780838091E70F8F5FC4
:103A60008093E70F58C18091C00A813041F4E09102
:103A7000E70FF0E0E151F04F83E5808307C0E0916C
:103A8000E70FF0E0E151F04F83E780838091E70F8B
:103A90008F5F8093E70F3FC18091C00A813041F46E
:103AA000E091E70FF0E0E151F04F84E5808307C03B
:103AB000E091E70FF0E0E151F04F84E780838091DF
:103AC000E70F8F5F8093E70F26C18091C00A813096
:103AD00041F4E091E70FF0E0E151F04F85E580839C
:103AE00007C0E091E70FF0E0E151F04F85E78083F8
:103AF0008091E70F8F5F8093E70F0DC18091C00A1F
:103B0000813041F4E091E70FF0E0E151F04F86E5BC
:103B1000808307C0E091E70FF0E0E151F04F86E7C6
:103B200080838091E70F8F5F8093E70FF4C08091CF
:103B3000C00A813041F4E091E70FF0E0E151F04F2D
:103B400087E5808307C0E091E70FF0E0E151F04F97
:103B500087E780838091E70F8F5F8093E70FDBC05B
:103B60008091C00A813041F4E091E70FF0E0E1512B
:103B7000F04F88E5808307C0E091E70FF0E0E15166
:103B8000F04F88E780838091E70F8F5F8093E70F86
:103B9000C2C08091C00A813041F4E091E70FF0E0AB
:103BA000E151F04F89E5808307C0E091E70FF0E035
:103BB000E151F04F89E780838091E70F8F5F809319
:103BC000E70FA9C08091C00A813041F4E091E70F6E
:103BD000F0E0E151F04F8AE5808307C0E091E70F04
:103BE000F0E0E151F04F8AE780838091E70F8F5F2B
:103BF0008093E70F90C0E091E70FE150E093E70F6B
:103C0000F0E0E151F04F108286C0E091670AF09138
:103C1000680A80810E9431071092E70FEFEEFFE003
:103C200083E090E111928E179F07E1F781E00E94F7
:103C30002C3480915613909157130E940E046BC040
:103C40008091E70FE82FF0E0E151F04F90E2908390
:103C50008F5F8093E70F5FC08091EF0F811107C0E6
:103C60006CE176E083E496E00E944B3454C081E13D
:103C70000E942C3480E090E0E0915613F0915713AD
:103C80000480F581E02DE80FF91F108201968C3039
:103C9000910591F71092E70F10921A138EE293E0BC
:103CA0000E94E10238C08091C00A8130D1F41092A4
:103CB000C00A86E493E79A8389831B82CE0101962A
:103CC000DC010D900020E9F7119727E0E2EFF4E026
:103CD00001900D922A95E1F70E9480480E941634C7
:103CE0001AC081E08093C00A86E493E79A838983AF
:103CF0001B82CE010196DC010D900020E9F711979F
:103D00002AE0E8EEF4E001900D922A95E1F70E9496
:103D100080480E9416346FEE7FE08FE496E00E94A8
:103D20004B348091E70F833118F083E18093E70FE4
:103D3000E2960FB6F894DEBF0FBECDBFDF91CF91F4
:103D40000895BF92CF92DF92EF92FF920F931F934D
:103D5000CF93DF93CDB7DEB72F970FB6F894DEBFC2
:103D60000FBECDBF813019F0823069F0C9C081E04B
:103D70000E942C3480915613909157130E940E0488
:103D800010921A13BDC0E0915613F091571304809E
:103D9000F581E02D9F01245F3F4F80E09191890FD5
:103DA000E217F307D9F7843609F0A4C089E10E942D
:103DB0002C346CEE75E084E693E00E944B34E09185
:103DC0005613F09157136FEE7FE0808191810E942E
:103DD0007E4F609156137091571380E2FB018683EA
:103DE0002091EC0F3091ED0F3093790A2093780AEF
:103DF00044815581C12CD12C11E0E091780AF091D9
:103E0000790A8581DA01A80FB11D8C91882341F0D0
:103E10008381813009F4D12E8481813009F4C12E4F
:103E2000848595859093790A8093780A28173907B5
:103E300021F7FB01D282EE24E394F12C0F2EFFE058
:103E4000BF2EF02D8E010F5F1F4FF8018B2D1192A9
:103E50008A95E9F74AE0B801C7010E94AC4FD80142
:103E60000D900020E9F7119785E0E7EDF5E001906E
:103E70000D928A95E1F7B80181E00E94413C8130C2
:103E8000E1F02C2D4D2D6FEE7FE08E2D0E94570B13
:103E90008E2D0E946D29BC018EEB9AE00E9485292F
:103EA0009093BF0A8093BE0A9093BB0A8093BA0A8C
:103EB000FC0180810E94310707C0FFEFEF1AFF0A63
:103EC00085E6E816F10409F681E00E942C34809121
:103ED0005613909157130E940E041092E70F109200
:103EE0001A13EFEEFFE083E090E111928E179F0727
:103EF000E1F706C060E076E086E392E00E944B3492
:103F00002F960FB6F894DEBF0FBECDBFDF91CF91D5
:103F10001F910F91FF90EF90DF90CF90BF90089589
:103F20000F931F93CF93DF93CDB7DEB764970FB690
:103F3000F894DEBF0FBECDBF813021F0823009F48E
:103F400064C06CC0E091BA0AF091BB0A8091670A24
:103F50009091680AE817F90739F483819481909366
:103F6000680A8093670A0DC08091BE0A9091BF0ACB
:103F7000E817F90731F4818192819093BF0A809309
:103F8000BE0AA381B4818181928112969C938E9303
:103F90001197E091BA0AF091BB0AA181B2818381A5
:103FA000948114969C938E93139780814AE08E019E
:103FB0000F5F1F4FB80190E00E94AC4FD8010D90E9
:103FC0000020E9F7119785E0E7EDF5E001900D920B
:103FD0008A95E1F7C8010E94103DE091BA0AF0917C
:103FE000BB0A0180F281E02DF093BB0AE093BA0A8C
:103FF00080810E94310781E00E942C348091561309
:10400000909157130E940E0409C081E00E942C3445
:1040100080915613909157130E940E0464960FB628
:10402000F894DEBF0FBECDBFDF91CF911F910F91EE
:10403000089510921A1390E0FC013197EE30F105CB
:1040400008F015C18827EE51FF4F8F4F0C940B4D90
:1040500080918A0A90918B0A90930D1080930C1096
:104060001092720A1092710A1092091010920810A0
:104070000E94222DBC0181E79AE00E94312D90938D
:10408000720A8093710A80910810909109109093A0
:104090007F0A80937E0A83E00E942C34E0917E0A9E
:1040A000F0917F0A69E576E0808191810E948A0D16
:1040B00090939F0A80939E0A80910C1090910D100E
:1040C0000E94222DBC0181E79AE00E94312D90933D
:1040D000720A8093710A089584E10E942C3481E071
:1040E0000E94070FE0917E0AF0917F0A69E576E071
:1040F000808191810C948A0D089584E10E942C3472
:1041000082E00E94070FE0917E0AF0917F0A69E544
:1041100076E0808191810C948A0D089584E10E945B
:104120002C3483E00E94070FE0917E0AF0917F0A11
:1041300069E576E0808191810C948A0D089584E18F
:104140000E942C3484E00E94070FE0917E0AF091D7
:104150007F0A69E576E0808191810C948A0D08954B
:1041600084E10E942C3485E00E94070FE0917E0AD2
:10417000F0917F0A69E576E0808191810C948A0D47
:10418000089584E10E942C3486E00E94070FE0919C
:104190007E0AF0917F0A69E576E0808191810C9436
:1041A0008A0D089584E10E942C3487E00E94070F55
:1041B000E0917E0AF0917F0A69E576E08081918145
:1041C0000C948A0D089584E10E942C3488E00E94AA
:1041D000070FE0917E0AF0917F0A69E576E0808121
:1041E00091810C948A0D089584E10E942C3489E019
:1041F0000E94070FE0917E0AF0917F0A69E576E060
:10420000808191810C948A0D089584E10E942C3460
:104210008AE00E94070FE0917E0AF0917F0A69E52B
:1042200076E0808191810C948A0D089584E10E944A
:104230002C348BE00E94070FE0917E0AF0917F0AF8
:1042400069E576E0808191810C948A0D08950C9443
:10425000F512089584E10E942C34E0917E0AF091D9
:104260007F0A69E576E0808191810C948A0D08953A
:1042700090E0FC013197EB30F10508F084C088270D
:10428000E051FF4F8F4F0C940B4D61E080E00C9498
:104290002D15089561E081E00C942D15089561E0DD
:1042A00082E00C942D15089561E083E00C942D15A7
:1042B000089561E084E00C942D15089561E085E097
:1042C0000C942D1508951092C50A8091E00E81116D
:1042D0005AC0E0917E0AF0917F0A0480F581E02DBA
:1042E000F0937F0AE0937E0A69E576E08081918110
:1042F0000C948A0D08958091C50A811144C01092D2
:10430000E00EE0917E0AF0917F0A0280F381E02DB9
:10431000F0937F0AE0937E0A69E576E080819181DF
:104320000E948A0D90939F0A80939E0A40917E0A74
:1043300050917F0A2091710A3091720A42175307F7
:1043400011F50E94222DBC0181E79AE00E94312DD7
:104350009093720A8093710A089585E10E942C342B
:1043600010921A13089560E086E00C942D150895BC
:1043700010921A131092E00E1092C50A83E10E9467
:104380002C340C94810E0895813069F58091EF0FE3
:10439000811107C066E676E08CE896E00C944B3419
:1043A00008958BE10E942C34EFEEFFE00190002095
:1043B000E9F731979F012F5E3F4033272F5F3F4F33
:1043C000AFEEBFE080E090E04D91E091860AF09181
:1043D000870A0190F081E02DE80FF91F40830196D4
:1043E000821793078CF30895BF92CF92DF92EF92DA
:1043F000FF920F931F93CF93DF93CDB7DEB7C654D1
:10440000D1090FB6F894DEBF0FBECDBFFE013196C5
:104410009FE0DF011D929A95E9F73F9692E3DF0155
:104420001D929A95E9F7F29695E0DF011D929A9513
:10443000E9F7813008F4E6C0182F833020F083308C
:1044400009F4DDC0DFC089E10E942C346AE976E01E
:1044500084E693E00E944B347E01B0E1EB0EF11C48
:1044600086E0EDEBF4E0D70101900D928A95E1F73B
:10447000E091860AF091870A60817181C7010E94EC
:104480006A4FD7010D900020E9F711978AE0E3EC1D
:10449000F6E001900D928A95E1F7113049F44AE077
:1044A000BE016E5B7F4F81E090E00E94AC4F0AC07E
:1044B000123041F44AE0BE016E5B7F4F80E090E035
:1044C0000E94AC4F8E01005F1F4FBE016E5B7F4F9D
:1044D000C8010E946A4FF80101900020E9F7319766
:1044E0008EE790E091838083BB24B3940F2EFAE58E
:1044F000CF2ED12CF02D0F501109DA82C982EB2C6E
:10450000F12C4AE0BE016E5B7F4FC7010E94AC4FA9
:10451000BE016E5B7F4FC8010E946A4FD8010D90AB
:104520000020E9F7119785E0E7EDF5E001900D92A5
:104530008A95E1F7B80181E00E94413C813009F49D
:1045400051C08B2D0E949F2BBC0184E699E00E94F4
:10455000AB2B90936509809364098AE590E09A8378
:1045600089834AE0BE016E5B7F4FC7010E94AC4F5A
:10457000BE016E5B7F4F8E010F5F1F4FC8010E940F
:104580006A4FD8010D900020E9F7119785E0E7ED1B
:10459000F5E001900D928A95E1F7BE01605F7F4FD3
:1045A000C8010E941C3D10921A131092C50A109265
:1045B000E00EE091780AF091790A6FEE7FE0808159
:1045C00091810E947E4FEFEEFFE001900020E9F71D
:1045D0003197CF018F5E9F409927EFEEFFE080512A
:1045E000904F02C0B39489CF1192E817F907E1F711
:1045F0001092E70F61E087E00E942D1503C08BE168
:104600000E942C34CA5BDF4F0FB6F894DEBF0FBE9A
:10461000CDBFDF91CF911F910F91FF90EF90DF9071
:10462000CF90BF900895823071F08330A9F081302F
:10463000E1F486E10E942C34E091860AF091870A29
:1046400081E08383089586E10E942C34E091860AFC
:10465000F091870A1382089585E10E942C346FEE51
:104660007FE08FE496E00C944B340895FF920F9313
:104670001F93CF93DF93CDB7DEB7AD970FB6F89406
:10468000DEBF0FBECDBF90E0FC013197E930F105F0
:1046900008F0FEC28827E550FF4F8F4F0C940B4D5A
:1046A000E091D70CF091D80CF093D10BE093D00BA4
:1046B00020911A1330E0121613066CF480E090E09B
:1046C0000680F781E02D019682179307C9F7F093D2
:1046D000D10BE093D00B88E10E942C3410921A1376
:1046E0001092E00E1092C50A63E773E08091670AAA
:1046F0009091680A0E949709CBC2E091D70CF09183
:10470000D80CF093D10BE093D00B20911A1330E02A
:104710002F5F3F4F80E090E00680F781E02D01960B
:1047200082179307CCF3F093D10BE093D00B88E181
:104730000E942C3410921A131092E00E1092C50AA7
:1047400063E773E08091670A9091680A0E94970975
:104750009FC2E091D70CF091D80CF093D10BE0936D
:10476000D00B20911A1330E02E5F3F4F80E090E095
:104770000680F781E02D019682179307CCF3F09322
:10478000D10BE093D00B88E10E942C3410921A13C5
:104790001092E00E1092C50A63E773E08091670AF9
:1047A0009091680A0E94970973C2E091D70CF0912A
:1047B000D80CF093D10BE093D00B20911A1330E07A
:1047C0002D5F3F4F80E090E00680F781E02D01965D
:1047D00082179307CCF3F093D10BE093D00B88E1D1
:1047E0000E942C3410921A131092E00E1092C50AF7
:1047F00063E773E08091670A9091680A0E949709C5
:1048000047C2E091D70CF091D80CF093D10BE09314
:10481000D00B20911A1330E02C5F3F4F80E090E0E6
:104820000680F781E02D019682179307CCF3F09371
:10483000D10BE093D00B88E10E942C3410921A1314
:104840001092E00E1092C50A63E773E08091670A48
:104850009091680A0E9497091BC2E091D70CF091D1
:10486000D80CF093D10BE093D00B20911A1330E0C9
:104870002B5F3F4F80E090E00680F781E02D0196AE
:1048800082179307CCF3F093D10BE093D00B88E120
:104890000E942C3410921A131092E00E1092C50A46
:1048A00063E773E08091670A9091680A0E94970914
:1048B000EFC11092C50A8091E00E8111E9C12091EB
:1048C0001A13265020931A13E091D70CF091D80CAC
:1048D000F093D10BE093D00B30E0121613066CF47A
:1048E00080E090E00680F781E02D01968217930723
:1048F000CCF3F093D10BE093D00BFE01319685E120
:10490000DF011D928A95E9F71AA61BA61CA61DA613
:104910008E010A5E1F4F84E1F80111928A95E9F732
:10492000D8010D900020E9F7119785E0E7EEF5E05A
:1049300001900D928A95E1F78091D20B9091D30B63
:104940004AE0BE01665D7F4F01960E94AC4FBE01FA
:10495000665D7F4FC8010E946A4FC8010E942D35D5
:1049600000E010E0FF24F3940F5F1F4F4AE0BE0108
:10497000665D7F4FC8010E94AC4F85E0E7EEF5E031
:10498000DE01119601900D928A95E1F7BE01665DF8
:104990007F4FCE0101960E946A4FE091D00BF091BB
:1049A000D10B80917C0A90917D0AE817F907B1F448
:1049B0008091C50A811116C0F092C50A82814AE031
:1049C000BE01665D7F4F90E00E94AC4FBE01665D08
:1049D0007F4FCE0101960E944B343BC08091C50AA7
:1049E000882341F16CEB74E0CE0101960E944B34B8
:1049F0008FE39CE90197F1F700C0000085E0E7EE46
:104A0000F5E0DE01569601900D928A95E1F74AE0B5
:104A1000BE01665D7F4FC8010E94AC4FBE01665D5E
:104A20007F4FCE0146960E946A4FCE0146960E9465
:104A3000F4340FC082814AE0BE01665D7F4F90E092
:104A40000E94AC4FBE01665D7F4FCE0101960E9471
:104A50004B34E091D00BF091D10B8091D70C909119
:104A6000D80CE817F90731F48091C50A811102C00A
:104A7000F092E00E868197819093D10B8093D00BBA
:104A8000AFE3BCE91197F1F700C000000630110553
:104A900009F06ACFFDC01092E00E8091C50A811125
:104AA000F7C020911A132A5F20931A13E091D70CB4
:104AB000F091D80CF093D10BE093D00B30E01216AC
:104AC00013066CF480E090E00680F781E02D0196FB
:104AD00082179307CCF3F093D10BE093D00BFE0138
:104AE000319685E1DF011D928A95E9F71AA61BA68A
:104AF0001CA61DA68E010A5E1F4F84E1F8011192CB
:104B00008A95E9F7D8010D900020E9F7119785E023
:104B1000E7EEF5E001900D928A95E1F78091D20BD6
:104B20009091D30B4AE0BE01665D7F4F01960E94D3
:104B3000AC4FBE01665D7F4FC8010E946A4FC8013D
:104B40000E942D3500E010E0FF24F3940F5F1F4F0B
:104B50004AE0BE01665D7F4FC8010E94AC4F85E010
:104B6000E7EEF5E0DE01119601900D928A95E1F7EE
:104B7000BE01665D7F4FCE0101960E946A4FE091B3
:104B8000D00BF091D10B80917C0A90917D0AE817AF
:104B9000F907B1F48091C50A811116C0F092C50AD7
:104BA00082814AE0BE01665D7F4F90E00E94AC4F7B
:104BB000BE01665D7F4FCE0101960E944B343BC023
:104BC0008091C50A882341F16CEB74E0CE01019617
:104BD0000E944B348FE39CE90197F1F700C000007D
:104BE00085E0E7EEF5E0DE01569601900D928A959C
:104BF000E1F74AE0BE01665D7F4FC8010E94AC4FFD
:104C0000BE01665D7F4FCE0146960E946A4FCE017F
:104C100046960E94F4340FC082814AE0BE01665D70
:104C20007F4F90E00E94AC4FBE01665D7F4FCE018A
:104C300001960E944B34E091D00BF091D10B809102
:104C4000D70C9091D80CE817F90731F48091C50A78
:104C5000811102C0F092E00E868197819093D10B72
:104C60008093D00BAFE3BCE91197F1F700C00000CF
:104C70000630110509F06ACF0BC081E00E942C3488
:104C800080915613909157130E940E0410921A139C
:104C9000AD960FB6F894DEBF0FBECDBFDF91CF91BA
:104CA0001F910F91FF90089590E0FC013197E9303A
:104CB000F10508F04FC08827EC5FFE4F8F4F0C9432
:104CC0000B4D80E00C94B008089581E00C94B0087E
:104CD000089582E00C94B008089583E00C94B00825
:104CE000089584E00C94B008089585E00C94B00811
:104CF00008951092C50A8091E00E81112BC0809119
:104D00001A13815080931A1363E773E080911B1389
:104D100090911C130C94970908951092E00E8091C5
:104D2000C50A811117C080911A138F5F80931A13DF
:104D300063E773E08091A6139091A7130C949709F1
:104D400008951092E00E1092C50A10921A1387E18E
:104D50000C942C340895813031F480915613909145
:104D600057130C940E040895823061F018F48130CA
:104D700031F00895833049F0843051F008950C9457
:104D8000201108950C94220F08950C94F40F0895A7
:104D90000C94A91008950F931F93CF93DF93CDB771
:104DA000DEB764970FB6F894DEBF0FBECDBF00002C
:104DB00090E0FC013197E830F10508F0C8C0882781
:104DC000E35FFE4F8F4F0C940B4D1092CA0ABFC089
:104DD00081E08093CA0ABBC082E08093CA0A8E0138
:104DE0000F5F1F4F84E1F80111928A95E9F7409116
:104DF0009A0050919B009A01A3E9B4E20E94134DDE
:104E0000481B590B56954795840F951F4AE0B801EA
:104E100096958795969587950E94AC4FB8018DEC35
:104E200096E00E9463344091AA005091AB009A0131
:104E3000A3E9B4E20E94134D481B590B56954795C0
:104E4000840F951F4AE0B8019695879596958795AA
:104E50000E94AC4FB80185ED96E00E94633440910A
:104E60002A0150912B019A01A3E9B4E20E94134D4B
:104E7000481B590B56954795840F951F4AE0B8017A
:104E800096958795969587950E94AC4FB8018DEDC4
:104E900096E00E94633440918A0050918B009A0101
:104EA000A3E9B4E20E94134D481B590B5695479550
:104EB000840F951F4AE0B80196958795969587953A
:104EC0000E94AC4FB80185EE96E00E9463343FC06B
:104ED00068EA75E18DEC96E00E949934F7E08F9FC7
:104EE000C001112490939B0080939A0030C068EA1F
:104EF00075E185ED96E00E94993427E0829FC0011C
:104F000011249093AB008093AA0021C068EA75E158
:104F10008DED96E00E949934E7E08E9FC001112448
:104F200090932B0180932A0112C068EA75E185EE07
:104F300096E00E949934F7E08F9FC001112490936E
:104F40008B0080938A0003C087E00E942C34649613
:104F50000FB6F894DEBF0FBECDBFDF91CF911F918A
:104F60000F910895CF93082E000C990BAA0BBB0B41
:104F7000FC013197EC31F10508F06CC0C62F882791
:104F8000EB5EFE4F8F4F0C940B4D862F0E948816C0
:104F900061C0862F0E94B6175DC0862F0E94CC1775
:104FA00059C0862F0E94B61855C0862F0E94D1186E
:104FB00051C0862F0E94D6184DC0862F0E94CB1953
:104FC00049C0862F0E94441A45C0862F0E94EC1AC1
:104FD00041C0862F0E94F91A3DC0862F0E943F1BB8
:104FE00039C0862F0E94481B35C0862F0E944E1B59
:104FF00031C0862F0E94A11E2DC0862F0E94901FB7
:1050000029C0862F16D826C0862F32D923C0862FD6
:10501000BBD920C0862FE8D91DC0862F27DB1AC038
:10502000862F42DE17C0862F96DE14C08DEE96E0E6
:105030000E946D488C2F98DE0DC08DEE96E00E9488
:105040006D488C2FA8DE06C08DEE96E00E946D485C
:105050008C2FE9DACF910895AF92BF92CF92DF9271
:10506000EF92FF920F931F93CF93DF93CDB7DEB7ED
:105070006B970FB6F894DEBF0FBECDBF4AE08E012E
:105080000F5F1F4FB80190E00E94AC4FD8010D9008
:105090000020E9F7119785E0E7EDF5E001900D922A
:1050A0008A95E1F7B80180E00E94413C87E0E1EE9B
:1050B000F4E0DE01559601900D928A95E1F7BE016C
:1050C0006B5E7F4F89ED9CE00E94604F009709F472
:1050D00067C0AA24A394BB24B394D12C6DE073E0E1
:1050E0000E94754F892B09F050C0BE016B5E7F4F47
:1050F00080E090E00E94604F7C01FC0180818B3356
:1051000009F443C00F2EFDE0CF2EF02D8091EC0F5F
:105110009091ED0F9093790A8093780A1DE00B2D02
:1051200001C0082FE091780AF091790A60817181BD
:10513000C7010E94754F892B51F4BE016B5E7F4FF2
:1051400080E090E00E94604F113069F138C0802FFC
:10515000115049F1E091780AF091790A248535855A
:105160003093790A2093780A0111DBCFBE016B5E80
:105170007F4F80E090E00E94604F7C01FC018081C5
:105180008B3319F0CA94C110C1CFBE016B5E7F4F43
:1051900080E090E00E94604F009709F09FCF1AC016
:1051A000AA24A39417C0E091780AF091790A848523
:1051B00095859093790A8093780AAD2CD7CFE091AA
:1051C000780AF091790A848595859093790A80937D
:1051D000780ACCCF8A2D6B960FB6F894DEBF0FBE3F
:1051E000CDBFDF91CF911F910F91FF90EF90DF9096
:1051F000CF90BF90AF9008959F92AF92BF92CF9201
:10520000DF92EF92FF920F931F93CF93DF937C0176
:10521000B62E172F942EA22E67E070E081E090E06A
:105220000E94084EEC01F70101900020E9F7319748
:105230006F01CE18DF0861E070E0C60101960E94A0
:10524000084E9983888361E070E08DE090E00E94D1
:10525000084E9D838C839A82AB820E83C114D10445
:10526000D1F0D701A60180E090E02D91E881F9818D
:10527000E80FF91F2083019684179507B1F70BC03B
:105280002D91EC81FD81E80FF91F208301968C3070
:105290009105B1F712C08FEFC81AD80AF701EC0DCB
:1052A000FD1D808128813981F901EC0DFD1D808370
:1052B000AB2DB12F80E090E0E3CFEC81FD8115862E
:1052C000CE01DF91CF911F910F91FF90EF90DF9072
:1052D000CF90BF90AF909F900895CF93C82F65E077
:1052E00070E081E090E00E94084EFC01C083CF9105
:1052F0000895CF93C82F65E070E081E090E00E94B0
:10530000084EFC01C083CF910895CF93DF93DC0159
:10531000FB018D919C91119792838183148213825A
:10532000CD91DC911197209729F47093680A6093CE
:10533000670A08C07C836B838091670A9091680A32
:1053400094838383ED93FC93A091670AB091680ADC
:105350001296FC93EE931197CF01DF91CF910895B0
:10536000CF93DF93DC01FB018D919C911197928388
:10537000818314821382CD91DC911197209729F4B7
:105380007093B90A6093B80A08C07C836B838091DC
:10539000B80A9091B90A94838383ED93FC93A0910A
:1053A000B80AB091B90A1296FC93EE931197CF0107
:1053B000DF91CF910895DF92EF92FF920F931F93A9
:1053C000CF93DF93CDB7DEB72F970FB6F894DEBF3C
:1053D0000FBECDBF1092770A1092BF0A1092BE0A7C
:1053E0001092740A1092730A00E010E00F2EFFE092
:1053F000DF2EF02DCE0101967C01F7018D2D11924B
:105400008A95E9F74AE0B701C8010E94AC4FD7017D
:105410000D900020E9F7119785E0E7EDF5E00190A8
:105420000D928A95E1F7B70181E00E94413C8130FD
:10543000C1F4802F5EDFBC0183E79AE091DF909397
:10544000740A8093730A802F07DE882351F0802F1F
:1054500044DFBC018EEB9AE058DF9093BF0A809343
:10546000BE0A0F5F1F4F0932110539F600E020E038
:1054700040E060E070E083EF96E0BEDE909357136B
:1054800080935613E091670AF091680AF093BB0A83
:10549000E093BA0A8091B80A9091B90A9093C90A28
:1054A0008093C80A80810E9431072F960FB6F89426
:1054B000DEBF0FBECDBFDF91CF911F910F91FF9047
:1054C000EF90DF900895CF93DF93EC0166E070E0FA
:1054D00081E090E00E94084EFC01D183C083DF91FF
:1054E000CF910895CF93DF93DC01FB018D919C91C7
:1054F00011979383828315821482CD91DC91119749
:10550000209729F47093A50A6093A40A08C07D83AC
:105510006C838091A40A9091A50A95838483ED936E
:10552000FC93A091A40AB091A50A1396FC93EE9364
:105530001297CF01DF91CF910895EF92FF920F93D1
:105540001F93CF93DF938C01E62EF42E68E070E07A
:1055500081E090E00E94084EEC0161E070E085E19E
:1055600090E00E94084E99838883EA82FB821F8222
:105570001E821D821C82B8010E947E4FCE01DF91E7
:10558000CF911F910F91FF90EF900895CF93DF93EC
:10559000DC01FB018D919C91119795838483178287
:1055A0001682CD91DC911197209729F47093D80C35
:1055B0006093D70C08C07F836E838091D70C909145
:1055C000D80C97838683ED93FC93A091D70CB09170
:1055D000D80C1596FC93EE931497CF01DF91CF91E1
:1055E0000895CF9310927D0A10927C0A1092D80CE5
:1055F0001092D70CC1E04C2F6C2F8BE197E09DDF10
:10560000BC018CE79AE0C2DF90937D0A80937C0A0C
:10561000CF5FCB3081F7CF910895CF93DF9364E0D4
:1056200070E081E090E00E94084EEC0161E070E0E3
:1056300085E190E00E94084E998388831A821B823C
:1056400080E090E0E881F981E80FF91F108201966F
:1056500085319105B9F7CE01DF91CF9108958F92F1
:105660009F92AF92BF92CF92DF92EF92FF920F93F1
:105670001F93CF93DF93B82E192F862E942EA22E30
:105680006EE070E081E090E00E94084EEC0161E085
:1056900070E085E190E00E94084E998388838A82B9
:1056A0000D83CE82DF82E886F9869B82AC821D86DE
:1056B0001C861B861A86AB2DB12F80E090E02D91C1
:1056C000E881F981E80FF91F208301968531910562
:1056D000B1F7CE01DF91CF911F910F91FF90EF9025
:1056E000DF90CF90BF90AF909F908F900895CF9311
:1056F000DF93DC01FA018D919C911197938782874A
:1057000015861486CD91DC911197209721F4EB0139
:105710005983488307C05D874C87EB018881998155
:1057200095878487ED93FC93EB01A881B9811B9643
:10573000FC93EE931A97CF01DF91CF910895CF9309
:10574000C82F65E070E081E090E00E94084EFC0107
:10575000C083CF910895CF93DF93DC01FB018D913E
:105760009C9111979283818314821382CD91DC9155
:105770001197209729F470938B0A60938A0A08C0C6
:105780007C836B8380918A0A90918B0A94838383B4
:10579000ED93FC93A0918A0AB0918B0A1296FC9328
:1057A000EE931197CF01DF91CF9108957F928F9261
:1057B0009F92AF92BF92CF92DF92EF92FF920F93A0
:1057C0001F93CF93DF93CDB7DEB7C754D1090FB680
:1057D000F894DEBF0FBECDBF1092D50B1092D40B44
:1057E000109265091092640910928B0A10928A0A2D
:1057F000FE01319685E1DF011D928A95E9F77596E4
:1058000085E0DF011D928A95E9F700E010E00F2E98
:10581000FAE5CF2ED12CF02D75977F01DA82C9825F
:105820004AE0BE016A5E7F4FC8010E94AC4FBE01D4
:105830006A5E7F4FC7010E946A4FD7010D9000201A
:10584000E9F7119785E0E7EDF5E001900D928A9573
:10585000E1F7B70181E00E94413C813051F4802F93
:105860006EDFBC0184E699E076DF90936509809352
:1058700064090F5F1F4F0F31110581F6CEDE909343
:10588000870A8093860A80918A0A90918B0A909366
:105890000D1080930C1010926A0A1092690A1092EF
:1058A000ED0F1092EC0F8CE29DE09C8F8B8F8AE0C5
:1058B00090E09E8F8D8F5E01FFE1AF0EB11C85E100
:1058C000D5011D928A95E9F7BE016C5C7F4F84E19A
:1058D000FB0111928A95E9F786E0E6EDF5E0DB0140
:1058E00001900D928A95E1F780E00E94413CBE0153
:1058F000655E7F4F89ED9CE00E94604FBC01C50151
:105900000E947E4FBE01655E7F4F80E090E00E9466
:10591000604F0E94434F182FBE01655E7F4F80E0AD
:1059200090E00E94604F0E94434F782EBE01655E5A
:105930007F4F80E090E00E94604F4C010E94434FF7
:10594000C12CD12C760100E0282F472D612FC501F5
:1059500086DEAC016CEE7FE089E69AE0C8DE9093CB
:105960006A0A8093690A892809F44FC088248394BD
:10597000BE01655E7F4F80E090E00E94604FBC01F9
:10598000CE014F960E947E4FBE01655E7F4F80E044
:1059900090E00E94604F0E94434F182FBE01655E49
:1059A0007F4F80E090E00E94604F0E94434F982E0E
:1059B000BE01655E7F4F80E090E00E94604F5C0119
:1059C0000E94434FE82F8F8D8823E1F0A82DB0E08F
:1059D00020E432E44FE050E00E94224D6B017C0154
:1059E000082D2E2F492D612FCE014F9638DEAC01A8
:1059F0006CEE7FE089E69AE07ADE90936A0A809303
:105A0000690A8394AB2809F0B3CF8091EC0F909191
:105A1000ED0F9093790A8093780AC95BDF4F0FB638
:105A2000F894DEBF0FBECDBFDF91CF911F910F91D4
:105A3000FF90EF90DF90CF90BF90AF909F908F90AE
:105A40007F900895CF93DF93EC0166E070E081E0F2
:105A500090E00E94084EFC01D183C083DF91CF917A
:105A60000895CF93DF93DC01FB018D919C911197F9
:105A70009583848313821282CD91DC9111972097B4
:105A800029F4709309106093081008C07B836A831F
:105A9000809108109091091093838283ED93FC9379
:105AA000A0910810B09109101596FC93EE931497ED
:105AB000CF01DF91CF91089594B5926094BD95B5D3
:105AC000956095BD682F70E080E090E00E94504B9B
:105AD00020E030E04AEF50E40E94044C20E030E047
