:1000000071C000008EC000008CC000008AC00000DB
:1000100088C0000086C0000084C0000082C00000CC
:1000200080C000007EC000007CC000007AC00000DC
:1000300078C0000076C0000074C0000072C00000EC
:1000400070C000006EC000006CC000006AC00000FC
:1000500068C0000066C0000064C0000062C000000C
:1000600060C0000083C5000044C500005AC0000005
:1000700058C0000056C0000054C0000052C000002C
:1000800050C000004EC000004CC000004AC000003C
:1000900048C0000046C0000044C0000042C000004C
:1000A00040C000003EC000003CC000003AC000005C
:1000B00038C0000036C0000034C0000032C000006C
:1000C00030C000002EC000002CC000002AC000007C
:1000D00028C0000026C0000024C0000022C000008C
:1000E00020C0000011241FBECFEFD1E2DEBFCDBF84
:1000F00000E00CBF12E0A0E0B2E0EEE4FCE000E0C3
:100100000BBF02C007900D92AA35B107D9F720E1C5
:10011000AAE5B2E001C01D92A336B207E1F751D5BE
:1001200094C56ECF87EC84B981E88093010188E89B
:100130008DB984E283BB0895FC0111821082089579
:10014000FC0190818181981720F0981B892F809560
:100150000895891B0895FC0120819181291718F0C9
:10016000822F891B0895892F821B80950895CF9334
:10017000DF93EC01F0DF882339F09981FE01E90F6C
:10018000F11D82819F5F9983DF91CF9108950F9335
:100190001F93CF93DF93EC01062F1881D1DF8823C3
:1001A000F1F3011101C00FEFFE01E10FF11D028318
:1001B0001F5F188381E0DF91CF911F910F91089508
:1001C000FF920F931F93CF93DF934423C9F0C42F63
:1001D000D72FF62E8C01B4DF8C17F0F3F801908145
:1001E000EF2DFD2FC90F2191D801A90FB11D129636
:1001F0002C939F5F9C13F7CFF801C08381E001C06F
:1002000080E0DF91CF911F910F91FF9008952E987C
:1002100008952E9A089573980895739A0895CF9328
:10022000DF93D82FC62FF3DFCD2311F0F6DF01C007
:10023000F2DF8AE18A95F1F700C0EBDF8AE18A9567
:10024000F1F700C0DF91CF910895CF93C82FF894B4
:1002500060E8E5DF60E48C2FE2DF60E28C2FDFDF17
:1002600060E18C2FDCDF68E08C2FD9DF64E08C2F1D
:10027000D6DF62E08C2FD3DF61E08C2FD0DF789463
:10028000CF9108951F93CF93DF93EC01162FBFDF1B
:100290008AE18A95F1F700C0BCDF659B0AC081E066
:1002A00090E002C0880F991F1A95E2F79881892B78
:1002B00088838AE18A95F1F700C0DF91CF911F9181
:1002C0000895CF93DF931F92CDB7DEB7198273984D
:1002D00067E0CE010196D6DF66E0CE010196D2DF5F
:1002E00065E0CE010196CEDF64E0CE010196CADF63
:1002F00063E0CE010196C6DF62E0CE010196C2DF67
:1003000061E0CE010196BEDF60E0CE010196BADF6A
:1003100089810F90DF91CF9108958EBD0DB407FEB6
:10032000FDCF08951EBC0DB407FEFDCF8EB5089518
:10033000882319F0813019F0089577980895289846
:100340000895882319F0813019F00895779A089557
:10035000289A08958FE58CBD1DBC80E0F2DF81E016
:10036000F0CF0895CF92DF92EF92FF920F931F93F9
:10037000CF93DF93CDB7DEB72B970FB6F894DEBFE0
:100380000FBECDBFFE01319676E0DF011D927A955A
:10039000E9F7606869835A834B833C832D83019717
:1003A00009F046C0369685E0DF011D928A95E9F78F
:1003B00080E092E08CD3FE0131966F0100E010E006
:1003C000D601FD906D01F11004C085E192E07FD36C
:1003D0001BC0BFE0BF1570F086E192E078D340E12A
:1003E000BE01695F7F4F8F2D90E0FCD3CE01079651
:1003F0006ED30AC040E1BE01695F7F4F8F2D90E050
:10040000F1D3CE01079663D3043011051CF488E1C3
:1004100092E05DD30F5F1F4F0530110589F6EFE3C2
:10042000FCE93197F1F700C000008AE192E04FD378
:1004300080E07EDF8E010F5F1F4F7E01F6E0EF0E42
:10044000F11CD8018D918D0100DF0E151F05C9F734
:1004500080E077DF2B960FB6F894DEBF0FBECDBFDE
:10046000DF91CF911F910F91FF90EF90DF90CF9090
:1004700008955F926F927F928F929F92AF92BF92F8
:10048000CF92DF92EF92FF920F931F93CF93DF9360
:10049000CDB7DEB72B970FB6F894DEBF0FBECDBF3A
:1004A0008C01FE01319686E0DF011D928A95E9F705
:1004B0006F77F62E698380E03BDF8F2DC6DE7E01ED
:1004C000B2E0EB0EF11C6E01E6E0CE0ED11CF9DEBF
:1004D000D7018D937D01AC15BD05C9F780E031DFF3
:1004E0008A80912CA12CB12CBA2CA92C982C882470
:1004F0008B81882ABA2CA92C982C88248C81882A54
:10050000BA2CA92C982C88248D81882A01301105B9
:1005100009F04CC08CE192E0DAD2FE0131966F0115
:1005200000E010E00F2EF5E05F2EF02D7E01F7E0E9
:10053000EF0EF11C0F2EF0E36F2EF02DD701E52DFD
:100540001D92EA95E9F76F82D6017D906D017110D9
:1005500004C085E192E0BBD215C0BFE0B71558F0EA
:1005600086E192E0B4D240E1B701872D90E03AD322
:10057000C701ADD207C040E1B701872D90E032D36B
:10058000C701A5D2043011051CF488E192E09FD286
:100590000F5F1F4F0530110589F6EFE3FCE9319736
:1005A000F1F700C000008AE192E091D2C501B401E8
:1005B0002B960FB6F894DEBF0FBECDBFDF91CF9163
:1005C0001F910F91FF90EF90DF90CF90BF90AF9071
:1005D0009F908F907F906F905F9008954ACF08957D
:1005E00020E030E0A90167E180E090E0BBDE23E09D
:1005F00030E0A9016BE180E090E0B4DE2FE93FE05C
:1006000040E050E068E180E090E0ACDE29E139E1D3
:1006100040E050E069E180E090E0A4DE27E030E0D7
:1006200040E050E06AE180E090E09CDE20E030E0D5
:10063000A9016FE180E090E095DE2CE330E040E03E
:1006400050E060E280E090E08DDE26EF3FEF4FEF7C
:100650005FEF61E280E090E085DE22E030E040E0A4
:1006600050E062E580E090E07DDE20EA3FE040E09F
:1006700050E064E280E090E075DE28E030E040E0A9
:1006800050E063E680E090E06DDE2CE330E040E097
:1006900050E061E280E090E065DE2FEF87EA91E6CE
:1006A000215080409040E1F700C0000024EC3FEF73
:1006B0004FEF5FEF61E280E090E054DE2FEF8FE4D8
:1006C00093EC215080409040E1F700C0000020E012
:1006D00030E0A90161E280E090E044DE2FEF87EA9C
:1006E00091E6215080409040E1F700C0000020E0FA
:1006F00030E0A90164E280E090E034CE08956BE13F
:1007000081E090E06BDF67E181E090E067DF68E126
:1007100081E090E063DF69E181E090E05FDF6AE122
:1007200081E090E05BDF6FE181E090E057DF60E225
:1007300081E090E053DF61E281E090E04FCF0895E7
:100740005F926F927F928F929F92AF92BF92CF9261
:10075000DF92EF92FF920F931F93CF93DF93CDB76A
:10076000DEB72B970FB6F894DEBF0FBECDBF182FA4
:10077000FE01319686E0DF011D928A95E9F7062F8A
:100780000F77098381E0D4DD802FC7DD7E01B2E0E1
:10079000EB0EF11C6E01E6E0CE0ED11CC3DDD701DD
:1007A0008D937D01AC15BD05C9F781E0CADD8A8056
:1007B000912CA12CB12CBA2CA92C982C88248B819B
:1007C000882ABA2CA92C982C88248C81882ABA2CA7
:1007D000A92C982C88248D81882A113009F04CC0CE
:1007E00080E392E074D1FE0131966F0100E010E0E9
:1007F0000F2EF5E05F2EF02D7E01F7E0EF0EF11CDD
:100800000F2EF0E36F2EF02DD701E52D1D92EA9506
:10081000E9F76F82D6017D906D01711004C085E10A
:1008200092E055D115C0BFE0B71558F086E192E0CF
:100830004ED140E1B701872D90E0D4D1C70147D117
:1008400007C040E1B701872D90E0CCD1C7013FD16F
:10085000043011051CF488E192E039D10F5F1F4F7D
:100860000530110589F6EFE3FCE93197F1F700C097
:1008700000008AE192E02BD1C4012B960FB6F894C8
:10088000DEBF0FBECDBFDF91CF911F910F91FF90C3
:10089000EF90DF90CF90BF90AF909F908F907F9020
:1008A0006F905F900895CF92DF92EF92FF920F9337
:1008B0001F93CF93DF93CDB7DEB72B970FB6F89486
:1008C000DEBF0FBECDBFFE01319696E0DF011D9267
:1008D0009A95E9F7606869835A834B833C832D833B
:1008E000813009F046C0369685E0DF011D928A9579
:1008F000E9F784E492E0EBD0FE0131966F0100E06D
:1009000010E0D601FD906D01F11004C085E192E088
:10091000DED01BC0BFE0BF1570F086E192E0D7D0FB
:1009200040E1BE01695F7F4F8F2D90E05BD1CE012A
:100930000796CDD00AC040E1BE01695F7F4F8F2D81
:1009400090E050D1CE010796C2D0043011051CF4BE
:1009500088E192E0BCD00F5F1F4F0530110589F68A
:10096000EFE3FCE93197F1F700C000008AE192E083
:10097000AED081E0DDDC8E010F5F1F4F7E01F6E01F
:10098000EF0EF11CD8018D918D01C7DC0E151F05EE
:10099000C9F781E0D6DC2B960FB6F894DEBF0FBE08
:1009A000CDBFDF91CF911F910F91FF90EF90DF901E
:1009B000CF9008952F9A2FEF81EE94E02150804040
:1009C0009040E1F700C000002F982FEF81EE94E0F7
:1009D000215080409040E1F700C000002F9A2FEF97
:1009E00083ED90E3215080409040E1F700C000008B
:1009F00020E130E040E050E060E081E054DF20E0C2
:100A000030E0A90161E081E04EDF20E030E0A901A3
:100A100066E081E048DF2FE030E040E050E068E051
:100A200081E041DF26E036E041E053E169E081E02A
:100A30003ADF24E030E048E050E06AE081E033CF84
:100A4000089560E081E07CDE61E081E079DE64E0D1
:100A500081E076DE66E081E073DE67E081E070DEF3
:100A600068E081E06DDE69E081E06ADE6AE081E0F5
:100A700067DE2FEF81EE94E0215080409040E1F757
:100A800000C000000895000000000895CF93DF9398
:100A90001092C50080E18093C400C1ECD0E088E1F1
:100AA000888386E08093C2008AE592E045DB8EE58C
:100AB0009AE042DB888180688883789483E495E0BB
:100AC0009093621080936110DF91CF910895FC01A3
:100AD00001900020E9F73197AF01481B590BBC0189
:100AE0008AE592E06DDBE1ECF0E08081806280835A
:100AF00008951F920F920FB60F9211240BB60F920A
:100B00002F933F934F935F936F937F938F939F9315
:100B1000AF93BF93EF93FF938AE592E01CDB8823AA
:100B200031F08AE592E023DB8093C6000CC0E1EC53
:100B3000F0E080818F7D8083E0916110F091621000
:100B4000309709F01995FF91EF91BF91AF919F9167
:100B50008F917F916F915F914F913F912F910F9066
:100B60000BBE0F900FBE0F901F9018951F920F9203
:100B70000FB60F9211240BB60F922F933F934F9302
:100B80005F936F937F938F939F93AF93BF93EF93F5
:100B9000FF936091C6008EE59AE0F9DAFF91EF913C
:100BA000BF91AF919F918F917F916F915F914F9185
:100BB0003F912F910F900BBE0F900FBE0F901F9083
:100BC0001895B0DAC7DB62DFF5DE0ADD98DD39DFC4
:100BD0002FEF83E294EF215080409040E1F700C076
:100BE0000000F4CFBB274A3031F4992322F4BDE250
:100BF000909581959F4F01C0BB27FB015527AA27E0
:100C0000880F991FAA1FA41710F0A41B8395505199
:100C1000B9F7A05DAA3308F0A95DA193009779F711
:100C2000B111B1931192CB0100C0DC01FC01672F1F
:100C300071917723E1F7329704C07C916D937083B3
:0E0C40006291AE17BF07C8F30895F894FFCF76
:100C4E00577269746520544D4334363731206461D0
:100C5E0074613A20003030002C000D005265616442
:100C6E0020544D433436373120646174613A20008C
:100C7E005265616420544D433632303020646174C5
:100C8E00613A2000577269746520544D43363230F4
:0A0C9E003020646174613A20000008
:00000001FF
