:1000000071C0000090C000008EC000008CC00000D5
:100010008AC0000088C0000086C0000084C00000C4
:1000200082C0000080C000007EC000007CC00000D4
:100030007AC0000078C0000076C0000074C00000E4
:1000400072C0000070C000006EC000006CC00000F4
:100050006AC000000C94D10966C0000064C00000B2
:1000600062C0000060C000005EC000005CC0000014
:100070005AC0000058C0000056C0000054C0000024
:1000800052C0000050C000004EC000004CC0000034
:100090004AC0000048C0000046C0000044C0000044
:1000A00042C0000040C000003EC000003CC0000054
:1000B0003AC0000038C0000036C0000034C0000064
:1000C00032C0000030C000002EC000002CC0000074
:1000D0002AC0000028C0000026C0000024C0000084
:1000E00022C0000011241FBECFEFD1E2DEBFCDBF82
:1000F00000E00CBF12E0A0E0B2E0E2E9F9E100E0CC
:100100000BBF02C007900D92A636B107D9F724E0C5
:10011000A6E6B2E001C01D92A33AB207E1F70E9441
:10012000E8090C94C70C6CCF10926B024FE752E0B9
:100130000C94A40B0895CF92DF92EF92FF920F934D
:100140001F93CF93DF9300918F041091900420911F
:10015000910430919204061717072807390731F1E7
:100160006B017C0180916B02813041F410926B0233
:100170004FE752E0C901B8010E94A40BC9E8D4E0DE
:100180008E819F81A885B9858093670290936802CC
:10019000A0936902B0936A024FE752E0C701B6012B
:1001A0000E94E50BCE82DF82E886F98681E0DF914E
:1001B000CF911F910F91FF90EF90DF90CF90089516
:1001C000CF92DF92EF92FF920F931F93CF93DF9323
:1001D0006B017C01C42FD0E007E612E0C701B60135
:1001E0006D0F711D811D911DA6DF30916602EFE735
:1001F000F2E080E090E02081222311F0253E89F496
:100200003F5F3C130FC096958795929582958F70AE
:1002100089279F708927809399041092660281E054
:100220000FC030E08096B096811522E0920719F752
:1002300030936602DF5FF8018589D81778F280E095
:10024000DF91CF911F910F91FF90EF90DF90CF90B2
:1002500008950F931F939B01AC012250310941096E
:100260005109E7E6F2E0A589B0E00E94690C058536
:10027000168527853089600F711F821F931F1F917C
:100280000F9108950F931F93E7E6F2E00585168519
:1002900027853089601B710B820B930B258930E019
:1002A00040E050E00E94470CCA01B9016E5F7F4FE9
:1002B0008F4F9F4F1F910F9108950F931F93E9E860
:1002C000F4E0DC01AD56BD4F4D915C9160E070E013
:1002D000BA0155274427DC01A756BD4F0D911C914B
:1002E00020E030E0402B512B622B732B418B528B43
:1002F000638B748BDC01A556BD4F8D919D910D9044
:10030000BC91A02D82879387A487B5871F910F91F9
:1003100008952F923F924F925F926F927F928F92A9
:100320009F92AF92BF92CF92DF92EF92FF920F9384
:100330001F93CF93DF932B013C016A01212C4FE7E0
:1003400052E053014201820C911CA11CB11CC50159
:10035000B4010E94E50B80928F0490929004A092C9
:100360009104B0929204CFE7D2E000E010E08881DF
:10037000882309F45AC09B85903119F0903209F016
:1003800045C0853E09F442C0312C912CC8018959E1
:100390009D4F7C01F701E90DF11D808C90E28912DF
:1003A00002C0939415C0F601E30DF11D80818E32D9
:1003B00029F487E0891578F433940AC090E00E940C
:1003C000820C282D30E02817390729F433949394B0
:1003D0009AE09915F8F68BE0981218C0C9E8D4E0B5
:1003E000C80196958795929582958F7089279F7001
:1003F0008927888BC80161DF8E819F81A885B98597
:100400008D8B9E8BAF8BB88F81E00FC0005E1F4F2E
:10041000A096011592E0190709F0A9CF23948091C5
:100420007C02281608F48BCF80E0DF91CF911F91DA
:100430000F91FF90EF90DF90CF90BF90AF909F9083
:100440008F907F906F905F904F903F902F90089586
:100450002F923F925F926F927F928F929F92AF9274
:10046000BF92CF92DF92EF92FF920F931F93CF93A1
:10047000DF9300D01F92CDB7DEB79C838B83562EBF
:1004800049015A016701780181E080936B02009174
:10049000990480E2089F80011124F801E158FD4F82
:1004A000FA83E983CF01459611928E179F07E1F7F2
:1004B00069807A80312C10E06894222425F8F301B9
:1004C0002082183070F5EB81FC81E30DF11D8081F5
:1004D0008E3251F190E00E94820CF30180833394BC
:1004E00023C03394EB81FC81E30DF11D80818823CF
:1004F00031F090E00E94820CF30180833394FFEF8F
:100500006F1A7F0A1F5F1B30D1F6E981FA8153868B
:10051000B58AA48A938E828EC48ED58EE68EF78E8F
:1005200006C01830F9F6DDCF183049F7DACF0F9052
:100530000F900F900F90DF91CF911F910F91FF902F
:10054000EF90DF90CF90BF90AF909F908F907F9073
:100550006F905F903F902F900895CF92DF92EF922F
:10056000FF920F931F9320917D02203181F56B0143
:100570007C01CC0CDD1CEE1CFF1CB701A601032E78
:1005800039E076956795579547953A95D1F7302D8F
:100590008091780290917902A0917A02B0917B02C9
:1005A0008A019B01080F191F2A1F3B1FC901B801AF
:1005B000C2DD11E0D122EE24FF24C6014896FC01E1
:1005C000E959FD4F6081718180E090E033C06B019B
:1005D0007C01CC0CDD1CEE1CFF1CCC0CDD1CEE1CCD
:1005E000FF1CB701A601032E39E076956795579554
:1005F00047953A95D1F7302D809178029091790204
:10060000A0917A02B0917B028A019B01080F191F09
:100610002A1F3B1FC901B8018EDD11E0D122EE2453
:10062000FF24C6014896FC01E959FD4F60817181A4
:10063000828193811F910F91FF90EF90DF90CF9077
:100640000895CF92DF92EF92FF920F931F93CF9373
:10065000DF938C01C0906C02D0906D02E0906E022E
:10066000F0906F02C114D104E104F10421F58091EE
:100670007D028031C1F4F12CC7E6D2E089859A85EC
:10068000AB85BC85BC01CD016F0D711D811D911D18
:10069000A8013FDE8130B1F18D89F80E8FE18F1511
:1006A00068F780E02FC0C0907002D0907102E09097
:1006B0007202F0907302C7E6D2E00CC0C701B60127
:1006C000C8DDA80126DE8130E9F0C701B60145DFAB
:1006D0006B017C0188EFC8168FEFD806E8068FE023
:1006E000F80618F08E89803261F088EFC8168FEF17
:1006F000D806E104F10410F38E898031F9F680E028
:1007000001C080E0DF91CF911F910F91FF90EF909A
:10071000DF90CF9008952F923F924F925F926F9209
:100720007F928F929F92AF92BF92CF92DF92EF9281
:10073000FF920F931F93CF93DF931B012C0189DD51
:10074000EFE7F4E0608371838283938380917C027E
:1007500090E09583848372016101C0E0D0E08F0155
:100760000F2EF7E66F2EF2E07F2EF02DC701B601B7
:10077000F4DE460157012FEF821A920AA20AB20A4A
:10078000681579058A059B05A1F4F3012589F8010F
:1007900044815581FA01E20FF11D9F01F801358373
:1007A000248321966B017C01C115F1E0DF07F1F68E
:1007B00009C0C0928504D0928604E0928704F0922A
:1007C00088040EC0520141012FEF921AA20AB20A08
:1007D0008092850490928604A0928704B092880447
:1007E000DF91CF911F910F91FF90EF90DF90CF900D
:1007F000BF90AF909F908F907F906F905F904F9041
:100800003F902F9008958F929F92AF92BF92CF9278
:10081000DF92EF92FF920F931F93CF93DF934B01E1
:100820005C0105C08FEF881A980AA80AB80AC501AA
:10083000B40193DE672B682B692BA1F7C501B401C6
:1008400008DDEFE7F4E06083718382839383809116
:100850007C0290E09583848375016401EFEFCE1AEA
:10086000DE0AEE0AFE0AFFEF9F1AAF0ABF0ACFE7C1
:10087000D4E007E612E0C701B6016FDE672B682BF4
:10088000692B91F4F80125898C819D81820F911D3E
:100890009D838C83FFEFCF1ADF0AEF0AFF0AC8148B
:1008A000D904EA04FB0439F7DF91CF911F910F912E
:1008B000FF90EF90DF90CF90BF90AF909F908F9080
:1008C00008958F929F92AF92BF92CF92DF92EF9254
:1008D000FF920F931F9349015A0120917D0220310D
:1008E00071F56B017C01CC0CDD1CEE1CFF1CB7010B
:1008F000A601032E39E076956795579547953A9569
:10090000D1F7302D8091780290917902A0917A02EE
:10091000B0917B028A019B01080F191F2A1F3B1F00
:10092000C901B80108DC11E0D122EE24FF24C60180
:100930004896FC01E959FD4F9182808233C06B01DA
:100940007C01CC0CDD1CEE1CFF1CCC0CDD1CEE1C59
:10095000FF1CB701A601032E39E0769567955795E0
:1009600047953A95D1F7302D809178029091790290
:10097000A0917A02B0917B028A019B01080F191F96
:100980002A1F3B1FC901B801D6DB11E0D122EE249A
:10099000FF24C6014896FC01E959FD4F80829182EF
:1009A000A282B38281E080936B021F910F91FF902E
:1009B000EF90DF90CF90BF90AF909F908F90089571
:1009C0002F923F924F925F927F928F929F92AF921F
:1009D000BF92CF92DF92EF92FF920F931F93CF932C
:1009E000DF931F921F92CDB7DEB79A838983762E4D
:1009F000C0906C02D0906D02E0906E02F0906F0299
:100A0000C114D104E104F10449F4E7E6F2E0C18441
:100A1000D284E384F4848689803119F007E612E0F9
:100A200017C010E041E0C701B601610F711D811DC3
:100A3000911DC6DB813009F4B5C080917C02180F8E
:100A4000103280F3AFC06B017C0102C06B017C01EE
:100A5000C701B601FEDB41E0B3DB813009F4A2C07F
:100A600080908F0490909004A0909104B090920494
:100A7000C701B60172DD683F2FEF720782072FE0D2
:100A8000920720F0F8012689203251F0683FFFEFED
:100A90007F0781059105B8F2F80126892031B1F66A
:100AA00060917F0470918004809181049091820410
:100AB000E9DB1B012C019B01AC01C701B60101DF81
:100AC0002FEF3FEF4FEF5FE0C201B101FADE60911F
:100AD0008F047091900480919104909192044FE75B
:100AE00052E032D6EFE7F4E08FE792E01292E81797
:100AF000F907E1F7512C07E612E001C0592EEFE7A4
:100B0000F4E080819181A281B381BC01CD01650DAA
:100B1000711D811D911D08DB91E0950DF8018589FE
:100B2000581660F3EFE7F4E0208031804280538074
:100B300020928F043092900440929104509292043B
:100B4000C501B4019FDB6093850470938604809394
:100B500087049093880441E0C201B10131DB8091A8
:100B600083049091840440917C02242F30E0281764
:100B70003907A8F4EFE7F4E0C080D180E280F38089
:100B800046015701840E911CA11CB11C80829182E8
:100B9000A282B382821B930B9583848303C0C70117
:100BA000B60131DE80918F0490919004A091910460
:100BB000B091920480939E0490939F04A093A0040C
:100BC000B093A1040F2EFFE7CF2EF4E0DF2EF02D1F
:100BD000F601608171818281938154DB9B01AC01BC
:100BE00060939A0470939B0480939C0490939D045B
:100BF000F601668377838087918710929304109221
:100C000094041092950410929604E12CF12C870123
:100C1000672D89819A811CDC60918F04709190040A
:100C200080919104909192044FE752E08DD5F601A6
:100C300080819181A281B38180938F0490939004ED
:100C4000A0939104B09392040F900F90DF91CF91F5
:100C50001F910F91FF90EF90DF90CF90BF90AF90DA
:100C60009F908F907F905F904F903F902F9008952E
:100C70004F925F926F927F928F929F92AF92BF92AC
:100C8000CF92DF92EF92FF926B017C0129013A0132
:100C90006091850470918604809187049091880406
:100CA000A70196010EDEC414D504E604F70499F0FA
:100CB000460157018FEF881A980AA80AB80AA501B9
:100CC0009401C701B601FDDD7501640148145904A2
:100CD0006A047B0469F72FEF3FEF4FEF5FE0C3013A
:100CE000B201EFDD40928504509286046092870441
:100CF0007092880410926B0260918F04709190043E
:100D000080919104909192044FE752E01DD5FF909D
:100D1000EF90DF90CF90BF90AF909F908F907F909B
:100D20006F905F904F9008958F929F92AF92BF9275
:100D3000CF92DF92EF92FF92CF934FE752E060E0C5
:100D400070E0CB0142D5C82F813009F094C080916A
:100D5000480481110EC08090450490904604A090F4
:100D60004704B09048044FE752E0C501B4012DD5C7
:100D700003C0812C912C5401E7E6F2E085A1858B1C
:100D8000C6A0D7A0E12CF12CC18AD28AE38AF48ACA
:100D900086A597A541A552A5440F551F429552958A
:100DA000507F5427407F542741505E4F452F552791
:100DB000469560E070E04115510561057105F1F45B
:100DC00024AD35AD46AD57AD8091AB029091AC02EC
:100DD000A091AD02B091AE0281879287A387B487BC
:100DE000A0A5B0E076D5C60ED71EE81EF91EC586B2
:100DF000D686E786F08A80E2868B1EC0E7E6F2E0C0
:100E0000A0A5A89F9001A99F300D1124C20ED31E4A
:100E1000E11CF11C4C0D5D1D6E1D7F1D4587568725
:100E20006787708BC80CD91CEA1CFB1CC186D28654
:100E3000E386F48680E1868BE7E6F2E08189928999
:100E4000A389B489880D991DAA1DBB1D818B928B26
:100E5000A38BB48B85859685A785B089880E991E4E
:100E6000AA1EBB1E85869686A786B08A1582168224
:100E70001782108601C0C0E08C2FCF91FF90EF90B9
:100E8000DF90CF90BF90AF909F908F9008950F9379
:100E90001F93CF93DF93EC01162FD3DB8130C1F486
:100EA000123751F509E814E0F801618972898389E4
:100EB000948931DCF801D787C68760917F047091EF
:100EC0008004809181049091820435D980E019C01A
:100ED000811114C01336A1F4D0939804C0939704E1
:100EE00062E070E080E090E08EDC60E2CE0168DDE0
:100EF00081E080936B0205C082E003C082E001C004
:100F000082E0DF91CF911F910F9108954F925F92F0
:100F10006F927F928F929F92AF92BF92CF92DF9209
:100F2000EF92FF920F931F93CF93DF93A9E8B4E062
:100F3000ED91FC9111971296CD90DD90ED90FC9083
:100F40001597CE0EDF1EE11CF11C1A968D919D9116
:100F50000D90BC91A02D8C159D05AE05BF0508F028
:100F60005AC080908F0490909004A0909104B0900B
:100F70009204309709F059C062C01192E817F9073E
:100F8000E1F781E080936B0210C07CD92B013C011A
:100F900060917F047091800480918104909182041B
:100FA00071D9A301920164DE11C0C501B4016AD9EF
:100FB0002B013C0160917F04709180048091810439
:100FC000909182045FD9A301920152DEC9E8D4E076
:100FD0006D897E898F89988DAED8E88980E2E89FF7
:100FE000F0011124E556FD4FC082D182E282F382E6
:100FF000CA86DB86EC86FD8680927F049092800410
:10100000A0928104B092820481E080936B02C501BA
:10101000B40191D829C060918F047091900480919F
:1010200091049091920480D81FC0E11582E0F807E6
:1010300008F0BBCFE158FD4F8FE794E09ECFC5018C
:10104000B401615071098109910900917F041091E7
:101050008004209181043091820460177107820717
:10106000930708F4B3CF91CFDF91CF911F910F91E8
:10107000FF90EF90DF90CF90BF90AF909F908F90B8
:101080007F906F905F904F90089540DFE9E8F4E023
:1010900011821082128213821482158281E00895D7
:1010A0008F929F92AF92BF92CF92DF92EF92FF9278
:1010B0000F931F93CF93DF934B015C0127DFC9E8A8
:1010C000D4E069897A898B899C8925DB40917F04EA
:1010D0005091800460918104709182041A821B8275
:1010E0001C821D82811482E09806A104B104A8F13B
:1010F000750164018E01CFE7D4E0E2E0DE1AE10879
:10110000F108F80182819381A481B5819E5FAF4F80
:10111000BF4F82839383A483B5838C819D81019784
:101120009D838C83892B29F04F5F5F4F6F4F7F4FDB
:101130000AC06E817F81888599850FDAECDA488153
:1011400059816A817B81C114F2E0DF06E104F10478
:10115000A0F681E09822AA24BB24CB01BA010E9408
:101160009B0090928A0480928904DF91CF911F9115
:101170000F91FF90EF90DF90CF90BF90AF909F9036
:101180008F900895CF93DF938091890490918A0482
:101190008115924089F5EFE7F4E08481958101970C
:1011A00095838483892BC1F4C9E8D4E06E817F8163
:1011B0008885998567D8D1D9AEDA80917F049091DE
:1011C0008004A0918104B09182040197A109B10922
:1011D0008E839F83A887B987E9E8F4E011821082A3
:1011E00086819781A085B185BC01CD016F5F7F4F5E
:1011F0008F4F9F4F0E949B00E9E8F4E0808191812E
:101200009C012F5F3F4F31832083FC01E959FD4F43
:10121000808DDF91CF910895CF92DF92EF92FF9270
:101220000F931F93CF93DF93E9E8F4E0208131819E
:10123000A9014F5F5F4F51834083F901E959FD4F89
:10124000808F4115524009F092C0C9E8D4E019825C
:1012500018828A819B81AC81BD819E5FAF4FBF4F59
:101260008A839B83AC83BD836E817F8188859985CA
:101270004FE752E069D24E815F8168857985DB0155
:10128000CA010196A11DB11D8E839F83A887B987CE
:10129000EFE7F4E084819581019795838483892B1E
:1012A00009F04BC00A811B812C813D818A859B8579
:1012B000AC85BD8580179107A207B30750F507E6F7
:1012C00012E0F8011482CB01BA010E9442016B01C5
:1012D0007C01CFE7D4E0688179818A819B810E947B
:1012E0004201A7019601C4DC6E817F8188859985C2
:1012F0008ADA88819981AA81BB8180938F04909337
:101300009004A0939104B093920481E0F801848347
:1013100014C0CFE7D4E06E817F81888599851DD97F
:10132000FAD988819981AA81BB8180938F04909397
:101330009004A0939104B0939204E9E8F4E0428110
:1013400053816481758182859385A485B5858417D1
:101350009507A607B70758F060918F047091900425
:1013600080919104909192044FE752E02ED2DF9148
:10137000CF911F910F91FF90EF90DF90CF90089544
:10138000CF93DF93EC018881882329F0219644DFF5
:1013900089918111FCCF81E080936B02DF91CF9125
:1013A00008951F920F920FB60F9211248F93809180
:1013B000A204882321F08091A204815001C080E022
:1013C0008093A2048F910F900FBE0F901F901895DD
:1013D000CF92DF92EF92FF92CF93DF93CDB7DEB73C
:1013E00066970FB6F894DEBF0FBECDBF89E0EEE082
:1013F000F2E0DE01119601900D928A95E1F78DE001
:10140000E7E1F2E0DE011A9601900D928A95E1F78C
:101410001092A20482E084BD80936E0084E686BDB3
:101420008BE987BD85E085BD789425D280E092E088
:1014300014D2AFD0882309F446C086E092E00DD2E2
:1014400073DC882309F43FC08AE092E006D262E7A9
:10145000CE0101961CDD811111C060919304709141
:10146000940480919504909196041ADECE010A9618
:1014700087DF8DE0D1DE8AE0CFDE07DE63E6CE01D6
:10148000019605DD813041F4CE010A9679DF8DE0C9
:10149000C3DE8AE0C1DEF9DD62E7CE010196F7DC4A
:1014A000811111C0C0909304D0909404E0909504F1
:1014B000F090960467DEC9D181E0C81AD108E1082E
:1014C000F108C1F7E2DD66960FB6F894DEBF0FBEF5
:1014D000CDBFDF91CF91FF90EF90DF90CF90089537
:1014E0008EBD0DB407FEFDCF08958FEF8EBD0DB4F8
:1014F00007FEFDCF8EB50895289AF7CF089582E3B1
:101500008093A204F2DF8F3F29F08091A204811121
:10151000F9CF089581E00895FF920F931F93CF9321
:10152000DF93C82FD42F152F062FF72EE5DF28982D
:10153000E6DF811114C0E0DF84E292E08ED18FEF0C
:1015400022C0C830D1F081E0CBDFCC3009F4CDDF50
:10155000C4E6CBDF8823BCF4C150D9F714C08C2F6C
:101560008064BEDF8F2DBCDF802FBADF812FB8DF14
:101570008D2FB6DFCC2321F0E4CF87E8B1DFE8CFB1
:1015800085E9AEDFE5CFDF91CF911F910F91FF90FD
:101590000895CF92DF92EF92FF920F931F93CF9314
:1015A000DF93CDB7DEB729970FB6F894DEBF0FBE35
:1015B000CDBF2398219A229A209A83E58CBD289A40
:1015C0009BDF04E610E091DF01501109E1F704E62A
:1015D00010E040E050E0BA0180E09EDF813009F089
:1015E0007CC084E68093A2044AEA51E060E070E0A7
:1015F00088E092DF813009F043C0CE0101966C0192
:101600007E0195E0E90EF11C86016FDFF801819300
:101610008F01EE16FF06C9F78B81813009F048C0B3
:101620008C818A3A79F000E044C040E050E0BA0191
:1016300087E372DF40E050E060E070E489E26CDF55
:101640008823C1F08091A2048111EFCF13C040E044
:1016500050E0BA018AE360DF81110CC046DFF60179
:1016600081936F01EE15FF05C9F7898186FD2EC0B4
:1016700004E01FC08091A2048111E9CF00E019C0ED
:1016800040E050E0BA0189E247DF823018F001E023
:1016900011E002C002E019E28091A204882349F01F
:1016A00040E050E0BA01812F37DF8111F5CF01C052
:1016B00000E08091A204882351F040E052E060E015
:1016C00070E080E129DF8111F4CF01C00CE080914E
:1016D000A204811107C000E005C00150110909F002
:1016E00078CF00E00F2EF7E6CF2EF2E0DF2EF02DC0
:1016F000F601078B7E01F5E0EF0EF11C85E0F701A6
:1017000011928A95E9F74AE050E0B701802F90E006
:1017100001D1C701A2D080E090E09FD0EDDE81E052
:10172000F6019789911101C080E029960FB6F894CF
:10173000DEBF0FBECDBFDF91CF911F910F91FF9004
:10174000EF90DF90CF900895FF920F931F93CF9368
:10175000DF938A0120917E0223FD09C0052E59E006
:10176000660F771F881F991F5A95D1F7502DAB012F
:10177000BC0188E1D1DEF82E81111EC0C0DE8823B5
:10178000F1F08EEFADDEE8011E5F8991A9DEC01792
:10179000D107D9F78FEFA4DE8FEFA2DEC4E1A5DE7B
:1017A0008F71853021F0C150D1F78F2D08C0CC2327
:1017B00029F0A2DE81E003C080E001C08F2DDF911F
:1017C000CF911F910F91FF9008950F931F93CF9387
:1017D000DF938A0120917E0223FD09C0052E59E086
:1017E000660F771F881F991F5A95D1F7502DAB01AF
:1017F000BC0181E191DEC82F882329F087E392E0C4
:101800002CD0C0E01CC084E18093A2046EDE8F3F28
:1018100029F48091A2048111F9CF02C08E3F21F0FA
:101820008FE492E01AD00BC0E8011E5F5EDE899360
:10183000C017D107D9F759DE58DE5EDEC1E08C2F24
:10184000DF91CF911F910F910895E0ECF0E090812E
:1018500095FFFDCF8093C6000895CF93DF93EC01F1
:101860008881882329F02196F0DF89918111FCCFAE
:10187000DF91CF9108951092C50080E18093C4005C
:1018800088E18093C10086E08093C2000895A1E2C0
:101890001A2EAA1BBB1BFD010DC0AA1FBB1FEE1FEA
:1018A000FF1FA217B307E407F50720F0A21BB30B35
:1018B000E40BF50B661F771F881F991F1A9469F7B1
:1018C00060957095809590959B01AC01BD01CF010D
:1018D000089509D0A59F900DB49F900DA49F800DF1
:1018E000911D11240895A29FB001B39FC001A39F31
:1018F000700D811D1124911DB29F700D811D112449
:10190000911D08959111089581568A5108F48052CD
:10191000855808954532510518F4423008F004C046
:10192000FB011082CB010895BB274A3031F4992383
:1019300022F4BDE2909581959F4F01C0BB27FB012A
:101940005527AA27880F991FAA1FA41710F0A41BB8
:1019500083955051B9F7A05DAA3308F0A95DA19312
:10196000009779F7B111B1931192CB0100C0DC015E
:10197000FC01672F71917723E1F7329704C07C91C6
:101980006D9370836291AE17BF07C8F30895F89402
:02199000FFCF87
:101992000A426F6F74002E2E2E004F4B0A007465A0
:1019A20073742E7478740048616C6C6F2044617497
:1019B200656921006D6D6320656E61626C652066EC
:1019C200616C73652E0D006D6D635F726561645F9E
:1019D200736563746F722066616C73652E0D006EA1
:1019E2006F742076616C6964206461746120746F25
:0619F2006B656E2E0D0076
:00000001FF
