:1000000093C00000B2C00000B0C00000AEC000004D
:10001000ACC00000AAC00000A8C00000A6C000003C
:10002000A4C00000A2C00000A0C000009EC000004C
:100030009CC000009AC0000098C0000096C000005C
:1000400094C0000092C0000090C000008EC000006C
:100050008CC000008AC0000088C0000086C000007C
:1000600084C000000C94710D0C94340D7EC000000F
:100070007CC000007AC0000078C0000076C000009C
:1000800074C0000072C0000070C000006EC00000AC
:100090000C94D90D0C949C0D68C0000066C0000043
:1000A00064C0000062C0000060C000005EC00000CC
:1000B0005CC000005AC0000058C0000056C00000DC
:1000C00054C0000052C0000050C000000C94410E0B
:1000D0000C94040E4AC0000048C0000046C0000056
:1000E00044C00000C100C300C500C700C900CB0068
:1000F000CD00CF00D500DB00E100E700F800FA00FA
:10010000FC00FE0000010201040106010C011201C5
:1001100018011E0185039803AB03C603DE03F30336
:100120000504140420046D0411241FBECFEFD1E296
:10013000DEBFCDBF00E00CBF18E0A0E0B2E0E6EC0F
:10014000F5E200E00BBF02C007900D92AA34B107A0
:10015000D9F727E1AAE4B8E001C01D92AF37B20792
:10016000E1F70E946C0E0C94E1124ACF90E08C30C3
:10017000910590F5FC018827EE58FF4F8F4F0C94A6
:100180003411129A0895139A0895149A0895159A9D
:100190000895169A0895179A0895A29A0895E5E089
:1001A000F1E08081806480830895E5E0F1E0808162
:1001B000806280830895E5E0F1E080818061808342
:1001C0000895E5E0F1E08081886080830895E5E0AE
:1001D000F1E0808184608083089590E08C30910507
:1001E00090F5FC018827E258FF4F8F4F0C94341193
:1001F00012980895139808951498089515980895DD
:100200001698089517980895A2980895E5E0F1E0EA
:1002100080818F7B80830895E5E0F1E080818F7D90
:1002200080830895E5E0F1E080818F7E80830895EA
:10023000E5E0F1E08081877F80830895E5E0F1E0EB
:1002400080818B7F808308954F925F926F927F921F
:100250008F929F92AF92BF92CF92DF92EF92FF92D6
:100260000F931F93CF93DF937C0100E010E0D1E068
:10027000C12CD02EE0916E12F0916F120480F581A6
:10028000E02DE00FF11F8081882309F446C08081B2
:100290009181E89E4001E99E900CF89E900C1124FB
:1002A000802F64DF9D2FA12CB12C80914E08C82F88
:1002B000CD2781112EC069F140914A0850914B0819
:1002C00060914C0870914D082A013B018FEF481A4C
:1002D000580A680A780A40924A0850924B0860927D
:1002E0004C0870924D0884169506A606B70658F479
:1002F0008D2D73DF10924A0810924B0810924C0813
:1003000010924D089C2DEFE9FFE03197F1F700C006
:100310000000C0934E089111C8CF0F5F1F4F0C30E3
:10032000110509F0A6CFDF91CF911F910F91FF909A
:10033000EF90DF90CF90BF90AF909F908F907F9085
:100340006F905F904F9008950E94100D85E994E0A2
:100350000E94100D84E190E077CF089580915609B6
:100360009091570990936F1280936E1281E051D54E
:10037000E0916E12F0916F126081718188EE93E0CE
:1003800065C508950F931F93CF93DF9300D01F92FD
:10039000CDB7DEB78C0181E03CD5F8016081718179
:1003A00088EE93E053D5F80186814AE0BE016F5F85
:1003B0007F4F90E00E94A612AE014F5F5F4F65EF46
:1003C00073E088EF93E055D50F900F900F900F904A
:1003D000DF91CF911F910F9108952F923F924F92ED
:1003E0005F926F927F928F929F92AF92BF92CF92C5
:1003F000DF92EF92FF920F931F93CF93DF93CDB7CE
:10040000DEB7C450D1400FB6F894DEBF0FBECDBFEB
:100410002C0100915D0A10915E0AFE01319680E088
:1004200091E0DF019C011D9221503040E1F7CF5F48
:10043000DE4F188219821A821B82C150D140C12C12
:10044000D12C7F010F2EF4E1AF2EB12CF02D0F2E09
:10045000FDE28F2E912CF02D0F2EF8E22F2E312C55
:10046000F02DD20114966D907C9015976C0C7D1C2C
:10047000F3018081882309F44BC0D8016D917C91F0
:10048000C7010E949B1280E090E008C0F701019034
:100490000020E9F73197918280820196F801A081CE
:1004A000B181FD0101900020E9F73197EA1BFB0BB8
:1004B00095012E1B3F0B8217930740F3F701019024
:1004C0000020E9F7319731822082D3018C914AE0F4
:1004D000BE016F5F7E4F90E00E94A612BE016F5F6B
:1004E0007E4FC7010E949B12F70101900020E9F79F
:1004F000319725E239E2318320831282F70101909E
:100500000020E9F731978CE592E79183808312828E
:10051000D80112960D911C911397BFEFCB1ADB0AED
:10052000ECE0CE16D10409F09CCFBE016F5F7F4F87
:100530008CEF93E08BD4CC5FDE4F0FB6F894DEBF28
:100540000FBECDBFDF91CF911F910F91FF90EF9024
:10055000DF90CF90BF90AF909F908F907F906F90E3
:100560005F904F903F902F900895DF92EF92FF920F
:100570000F931F93CF93DF93CDB7DEB769970FB675
:10058000F894DEBF0FBECDBF823009F49BC018F4D3
:10059000813041F00BC2833009F4A9C0843009F4E2
:1005A0009FC104C2643041F128F4623041F06330ED
:1005B000B9F0FCC1653019F1663069F1F7C182E02C
:1005C00028D4E0916E12F0916F126081718188EEF3
:1005D00093E03CD480916E1290916F12FEDEE6C1E2
:1005E000E0916E12F0916F128185928590936F1257
:1005F00080936E12C7DEDAC184E00BD4D7C1E091DC
:100600006E12F0916F128781908590936F12809394
:100610006E12B8DECBC183E0FCD380915609909175
:10062000570990936F1280936E12EE24E394F12C8D
:100630000F2EF5E1DF2EF02D8E010F5F1F4FF80119
:100640002D2D11922A95E9F71E8A1F8A188E198E70
:10065000D8010D900020E9F7119789E0E9E0F4E076
:1006600001900D928A95E1F74AE0BE016A5E7F4FE4
:10067000C7010E94A612BE016A5E7F4FC8010E9498
:100680009B12E0916E12F0916F1260817181C8012E
:10069000DDD3E0916E12F0916F1287819085909377
:1006A0006F1280936E128FE39CE90197F1F700C0FF
:1006B00000009FEFE91AF90AE9E0EE16F10409F0EB
:1006C000BECF74C1623019F0633049F06FC181E070
:1006D000A0D380916E1290916F1254DE67C181E0B9
:1006E00098D380916E1290916F124CDE5FC1862F6D
:1006F00090E0FC013197EA30F10508F057C18827F6
:10070000E657FF4F8F4F0C943411E0916E12F09129
:100710006F1228E030E00184F285E02D215031098C
:10072000D1F7F0936F12E0936E12CF012BDE3EC132
:10073000E0916E12F0916F1227E030E00184F285B3
:10074000E02D21503109D1F7F0936F12E0936E1232
:10075000CF0118DE2BC1E0916E12F0916F1201846F
:10076000F285E02D0184F285E02D0184F285E02DF3
:100770000184F285E02D0184F285E02D818592854A
:1007800090936F1280936E12FDDD10C1E0916E1296
:10079000F0916F120184F285E02D0184F285E02D45
:1007A0000184F285E02D0184F285E02D818592851A
:1007B00090936F1280936E12E5DDF8C0E0916E1297
:1007C000F0916F120184F285E02D0184F285E02D15
:1007D0000184F285E02D8185928590936F1280933C
:1007E0006E12D0DDE3C0E0916E12F0916F120184C1
:1007F000F285E02D0184F285E02D8185928590932C
:100800006F1280936E12BEDDD1C0E0916E12F09136
:100810006F120184F285E02D8185928590936F128D
:1008200080936E12AFDDC2C0E0916E12F0916F1234
:100830008185928590936F1280936E12A3DDB6C06E
:10084000EE24E394F12C0F2EF5E1DF2EF02D8E0136
:100850000F5F1F4FF8012D2D11922A95E9F71E8A7F
:100860001F8A188E198ED8010D900020E9F7119774
:1008700089E0E9E0F4E001900D928A95E1F74AE021
:10088000BE016A5E7F4FC7010E94A612BE016A5E6A
:100890007F4FC8010E949B12E0916E12F0916F127F
:1008A00060817181C801D2D2E0916E12F0916F1215
:1008B0008781908590936F1280936E128FE39CE9ED
:1008C0000197F1F700C000009FEFE91AF90AE9E08B
:1008D000EE16F10409F0BECF69C081E09AD266C07D
:1008E0006230A1F1633009F45FC0613009F05EC08D
:1008F00085E08FD262E174E083E494E0A7D2FFEF59
:1009000023ED80E3F15020408040E1F700C000007B
:1009100084E690E099DC86E07CD29FEFE7EAF1E69E
:100920009150E040F040E1F700C00000809156098E
:100930009091570990936F1280936E1281E069D263
:1009400080916E1290916F121DDD30C085E061D2F2
:1009500062E174E083E494E079D22FEF83ED90E3D9
:10096000215080409040E1F700C000008CE291E00F
:100970006BDC86E04ED2EFEFF7EA21E6E150F04083
:100980002040E1F700C0000080915609909157097E
:1009900090936F1280936E1281E03BD280916E1221
:1009A00090916F12EFDC02C081E033D269960FB6EE
:1009B000F894DEBF0FBECDBFDF91CF911F910F9195
:1009C000FF90EF90DF9008959F92AF92BF92CF92E9
:1009D000DF92EF92FF920F931F93CF93DF937C01EF
:1009E000B62E172FA42E922E6BE070E081E090E0DF
:1009F0000E943C11EC01F70101900020E9F73197CA
:100A00006F01CE18DF0861E070E0C60101960E9418
:100A10003C119983888361E070E08DE090E00E9452
:100A20003C119D838C839B82AA820E83C114D104C6
:100A3000D1F0D701A60180E090E02D91E881F98105
:100A4000E80FF91F2083019684179507B1F70BC0B3
:100A50002D91EC81FD81E80FF91F208301968C30E8
:100A60009105B1F712C08FEFC81AD80AF701EC0D43
:100A7000FD1D808128813981F901EC0DFD1D8083E8
:100A8000AB2DB12F80E090E0E3CFEC81FD811586A6
:100A9000CE01DF91CF911F910F91FF90EF90DF90EA
:100AA000CF90BF90AF909F900895CF93DF93DC01DC
:100AB000FB018D919C9111979087878312861186F7
:100AC000CD91DC911197209729F470935A0A609385
:100AD000590A08C07A8769878091590A90915A0A01
:100AE00092878187ED93FC93A091590AB0915A0A9D
:100AF0001896FC93EE931797CF01DF91CF9108954D
:100B00008F929F92AF92BF92CF92DF92EF92FF921D
:100B10000F931F93CF93DF93CDB7DEB7CD52D24063
:100B20000FB6F894DEBF0FBECDBF109268101092C2
:100B3000671088ECE6E0F2E0DE01119601900D927C
:100B40008A95E1F77E0129ECE20EF11C8BE391E03E
:100B5000F7019C01119221503040E1F78BE4F7013D
:100B6000808379E1738781E2838B52E2568B828F97
:100B700092E4968F91E195A391A76CE367A797E024
:100B800091AB80AF9FE0C75FDE4F9883C950D140E3
:100B9000C55FDE4F9883CB50D14036E4C35FDE4F54
:100BA0003883CD50D14088E2C95EDE4F8883C7517B
:100BB000D140C75EDE4F9883C951D14025E0C65E63
:100BC000DE4F2883CA51D140C45EDE4F8883CC51AA
:100BD000D140CB5DDE4F3883C552D1404EE1C35D7D
:100BE000DE4F4883CD52D140CD5CDE4F3883C353B6
:100BF000D140C45CDE4F4883CC53D14083E2CB5B11
:100C0000DE4F8883C554D140C65BDE4F8883CA540B
:100C1000D140C45BDE4F4883CC54D140CB5ADE4F29
:100C20007883C555D140C75ADE4F5883C955D14046
:100C300059E2C55ADE4F5883CB55D140CE59DE4FCD
:100C40008883C256D140CB59DE4F2883C556D14048
:100C5000C959DE4F6883C756D14051E4CF58DE4FA3
:100C60005883C157D140C758DE4F8883C957D140F8
:100C70005AE0CE57DE4F5883C258D140CB57DE4F93
:100C80006883C558D140C957DE4F4883C758D14003
:100C9000C157DE4F9883CF58D140CF56DE4F58838F
:100CA000C159D140CE56DE4F2883C259D140CA56D1
:100CB000DE4F3883C659D140C056DE4F9883C05AA4
:100CC000D14092E3CD55DE4F9883C35AD140CC55E5
:100CD000DE4F8883C45AD14084E6C655DE4F8883F0
:100CE000CA5AD140C654DE4F8883CA5BD140C5532F
:100CF000DE4F8883CB5CD140C952DE4F9883C75DFD
:100D0000D140C852DE4F9883C85DD1408FE5C951AC
:100D1000DE4F8883C75ED140C451DE4F2883CC5E4E
:100D2000D1408DE2CB50DE4F8883C55FD140C950A2
:100D3000DE4F8883C75FD140C550DE4F5883CB5FFD
:100D4000D14085E1EEECF2E0DE01AC5FBD4F0190F9
:100D50000D928A95E1F785E1E3EEF2E0DE01A75E10
:100D6000BD4F01900D928A95E1F7109257091092AC
:100D700056099E012C5F3D4F4901CE01875E9D4F74
:100D80005C01FE0131966F0110E0F40101914F0109
:100D9000F50121915F01412FB701C60115DEBC01AC
:100DA00086E599E082DE9093570980935609F4E135
:100DB000CF0ED11C2FE0E20EF11C1F5F1A3029F775
:100DC000C35DDD4F0FB6F894DEBF0FBECDBFDF9120
:100DD000CF911F910F91FF90EF90DF90CF90BF9038
:100DE000AF909F908F900895CF93DF9300D01F9284
:100DF000CDB7DEB78FEF89838A838B831C82CE01C8
:100E0000019620D60F900F900F900F90DF91CF9109
:100E10000895CF93DF9300D0CDB7DEB719821A8241
:100E20001B8290E04AE0BE016F5F7F4F01970E94F6
:100E3000A6128EE494E006D6CE01019603D6D4DF46
:100E40000F900F900F90DF91CF910895CF93DF9384
:100E5000EB01F8D584E594E0F5D58AE594E0F2D588
:100E6000CE01F0D58AE594E0EDD5BEDFDF91CF91DC
:100E70000895EF92FF920F931F93CF93DF937C011E
:100E80008B01EA0181E694E0DDD5C701DBD586E67A
:100E900094E0D8D5C801D6D586E694E0D3D5CE0166
:100EA000D1D5A2DFDF91CF911F910F91FF90EF90ED
:100EB0000895CF93DF93C82FD62F82E022D58C2FB1
:100EC000880F8E7718D585E38A95F1F700008D2F6E
:100ED00012D582E026D5DF91CF910895CF93C82F08
:100EE00082E00FD58C2F880F8E77806804D580E044
:100EF00002D5C82F82E015D58C2FCF9108956FE0D1
:100F000081E0D7CF0895FBDF6DE88AE2D2DF6EE3A0
:100F10008BE2CFDF6EE18CE2CCDF60E08DE2C9DFF7
:100F200060E485E1C6DF6DE381E1C3DF84E1D6DF04
:100F3000982F937021F4682F636084E1BADF87E310
:100F4000CDDF823939F488E694E06AD58AE794E007
:100F500067C508958059823038F486E894E060D5FA
:100F60008AE794E05DC5089588E994E059C508953D
:100F70003F924F925F926F927F928F929F92AF9229
:100F8000BF92CF92DF92EF92FF920F931F93CF9376
:100F9000DF93982EF62EE72E442E822E332E580104
:100FA0008CE0981609F4BAC0EEE09E1203C010E17E
:100FB00002E102C010E000E084E090DF682F6F776C
:100FC00084E077DF8AE08ADF682F60688AE071DF7B
:100FD00060E081E06EDF512C612C712C41145104D2
:100FE0006104710419F414C010E307E7CF2DDE2D5E
:100FF000C12CD12C7601699189E05BDFFFEFCF1A1C
:10100000DF0AEF0AFF0AC414D504E604F70498F3D4
:10101000692D81E04EDF8CE0981206C08DE05EDF26
:10102000682F60688DE045DF84E058DFF82EC0E06F
:10103000D0E0116009C084E051DFF82E2196CF3C4A
:10104000E7E0DE0709F483C0812F8F21A1F387C079
:101050000170F02211F0C2E001C0C1E0FCE09F127B
:101060008AC08AE03BDF482E8CE038DF282F2770CB
:10107000A9F0842D90E00197880F991F880F991F80
:10108000880F991F820F911D092E000CAA0BBB0B14
:10109000F50180839183A283B38311C0842D90E0F6
:1010A000880F991F880F991F880F991F092E000C10
:1010B000AA0BBB0BF50180839183A283B3834420E9
:1010C00071F0842D813108F080E1482E512C612C83
:1010D000712C411451046104710429F44CC0412C59
:1010E000512C32014394082D132DC12CD12C7601A3
:1010F00089E0F4DEF80181938F01FFEFCF1ADF0A58
:10110000EF0AFF0AC414D504E604F70488F333C0D9
:101110006CE081E0CEDE10E307E780CF84E0DEDE26
:10112000682F6F7784E0C5DE8AE0D8DE682F6068BC
:101130008AE0BFDE60E081E0BCDE512C612C712CC6
:10114000411451046104710409F04ECFE1CF8DE0E8
:10115000C5DE682F6F778DE0ACDEC3E00CC08DE09C
:10116000BDDE682F6F778DE0A4DE86E0B7DE8B7181
:1011700009F46ECFC3E08C2FDF91CF911F910F91B7
:10118000FF90EF90DF90CF90BF90AF909F908F90A7
:101190007F906F905F904F903F900895EF92FF92F5
:1011A0000F931F93CF93DF9300D01F92CDB7DEB77D
:1011B000182F7B0167E08DE07CDEF70110838E0144
:1011C0000F5F1F4F970141E0B7018CE0D1DE813006
:1011D00059F449815A816B817C8140315105610507
:1011E000710519F083E001C083E00F900F900F901C
:1011F0000F90DF91CF911F910F91FF90EF90089585
:10120000EF92FF920F931F93CF93DF9300D01F9223
:10121000CDB7DEB77C0160E08DE04BDE83E9F701FE
:10122000808380E281838E010F5F1F4F970142E030
:10123000B7018CE09DDE813071F4F701A7014C5FAE
:101240005F4F90E0219192274E175F07D9F7F70182
:101250002481921383E00F900F900F900F90DF91F5
:10126000CF911F910F91FF90EF9008950F931F93CF
:10127000CF93DF93CDB7DEB760970FB6F894DEBF9C
:101280000FBECDBF82E02ADE682F606282E011DEF1
:1012900083E024DE682F606883E00BDEBE016F5FB1
:1012A0007F4F82E57BDF813009F03FC0CE010196A0
:1012B000A7DFCE010196B4D38BEA94E0B1D3898144
:1012C000813051F18B818230A1F086EB94E00E9455
:1012D0007712FC0101900020E9F73197AF01481B1C
:1012E000590B00E010E020E030E0BC018CE040DE73
:1012F00013C089EB94E00E947712FC01019000205A
:10130000E9F73197AF01481B590B00E010E020E0EE
:1013100030E0BC018CE02CDECE01019671DFCE0105
:1013200001967ED38CEB94E07BD360960FB6F89455
:10133000DEBF0FBECDBFDF91CF911F910F910895FA
:10134000FC01118210820895FC019081818198171F
:1013500020F0981B892F80950895891B0895FC0122
:1013600020819181291718F0822F891B0895892FD8
:10137000821B80950895CF93DF93EC01F0DF8823E3
:1013800059F0898191E0980FFE01E80FF11D8281EB
:101390009F3F09F490E09983DF91CF9108950F93D7
:1013A0001F93CF93DF93EC01162F0881CDDF8823A5
:1013B000F1F3111101C01FEF81E0800FFE01E00F7A
:1013C000F11D12838F3F09F480E0888381E0DF9173
:1013D000CF911F910F910895FF920F931F93CF9379
:1013E000DF934423D9F0C42FD72FF62E8C01ACDF26
:1013F0008C17F0F315C021E0290F3191D801A90F06
:10140000B11D12963C932F3F11F4982F01C0922FDB
:10141000415088F7F801908381E00AC080E008C05D
:10142000F80190814FEF4C0FEF2DFD2F80E0E3CFBF
:10143000DF91CF911F910F91FF900895CF93A59ABF
:101440008FE39CE90197F1F700C00000A5988FEFAA
:1014500052D2C0E58FEF4FD2C150E1F7CF9108953E
:10146000FF920F931F93CF93DF93D42F152F062F47
:10147000F72EC22F80643FD28F2D3DD2802F3BD2DA
:10148000812F39D28D2F37D28C2F816034D2DF91CA
:10149000CF911F910F91FF900895CF93C9E002C0A3
:1014A000C15021F08FEF27D28F3FD1F3CF91089514
:1014B0000F931F93CF93DF934FEF460F662369F08F
:1014C000EC01042F10E00F5F1F4F080F191F8FEF63
:1014D00012D28993C017D107D1F7DF91CF911F9115
:1014E0000F910895CF93DF93EC01D7DF888382308B
:1014F00020F464E0CE010196DBDFDF91CF91089507
:10150000CF93DF93EC01C9DF8883823020F464E05D
:10151000CE010196CDDFDF91CF910895CF938FEF6C
:10152000EAD1A5988FEFE7D124E940E050E0BA0175
:1015300080E096DFB2DFC82F8FEFDDD1A59A8FEF65
:10154000DAD18C2FCF910895CF93DF93EC018FEFF9
:10155000D2D1A5988FEFCFD126E84AEA51E060E0DA
:1015600070E088E07DDFCE01CBDF8FEFC4D1A59A9C
:101570008FEFC1D1DF91CF9108958F929F92AF925B
:10158000BF92CF92DF92EF92FF920F931F93CF9370
:10159000DF934B015C017A0169018FEFF9018083D0
:1015A000AAD1A5988FEFA7D120E0B501A40181E1D0
:1015B00057DF73DF082F8F3FD9F0CAE1D6E08FEFF6
:1015C0009AD1182F8F3F19F42197C9F70FC08E3F7A
:1015D00069F4E701FEEFFF1A8FEF8DD18993CE15E5
:1015E000DF05D1F78FEF87D18FEF85D1F60110831B
:1015F0008FEF81D1A59A8FEF7ED1802FDF91CF9190
:101600001F910F91FF90EF90DF90CF90BF90AF9020
:101610009F908F9008958F929F92AF92BF92DF928A
:10162000EF92FF920F931F93CF93DF934B015C01D7
:101630008A0179018FEFF90180835DD1A5988FEF41
:101640005AD120E0B501A40188E10ADF26DFD82EB7
:10165000811128C08EEF4FD1E8011E5F89914BD1D7
:10166000C017D107D9F7C2E4DFE08FEF44D18F3F35
:1016700039F09FEFF70190838F71853099F403C0A3
:10168000219799F70FC085E0F7018083C3E4DFE07D
:1016900005C0219719F4F701108204C08FEF2BD1F8
:1016A0008823B9F38FEF27D1A59A8FEF24D18D2D01
:1016B000DF91CF911F910F91FF90EF90DF90BF903E
:1016C000AF909F908F900895CF93DF93EC018FEFB1
:1016D00012D1A5988FEF0FD18F3F21F08FEF0BD153
:1016E0008F3FE1F720E040E050E0BA018AE3B8DE46
:1016F000CE01F8DE8FEFFFD0A59A8FEFFCD0DF91FF
:10170000CF910895CF938FEFF6D0A5988FEFF3D0B8
:1017100020E040E050E0BA0187E3A2DEBEDEC82F41
:101720008FEFE9D0A59A8FEFE6D08C2FCF91089557
:10173000CF938FEFE0D0A5988FEFDDD020E040E091
:1017400050E060E070E489E28BDEA7DEC82F8FEF07
:10175000D2D0A59A8FEFCFD08C2FCF910895FF9242
:101760000F931F93CF93DF9300D01F921F92CDB79B
:10177000DEB764DE0FEF02C0015091F1CFDE182F0B
:1017800089838130C9F78FE99FE00197F1F700C0A5
:101790000000CE010196D8DEF98091E0F91225C053
:1017A0008D818A3AF9F40FEF02C00150E9F0AADF07
:1017B0008983823010F4BCDF89838FE99FE0019731
:1017C000F1F700C0000019811111EFCF8FE99FE000
:1017D0000197F1F700C00000CE01019675DF05C04A
:1017E00011E003C01F2D01C01F2D812F0F900F90FE
:1017F0000F900F900F90DF91CF911F910F91FF905D
:101800000895CF93C82F8F3F21F48AEC94E008D13C
:101810002FC0882324F489ED94E002D129C08111DE
:1018200004C08BEE94E0FCD023C086FF03C089EF98
:1018300094E0F6D0C5FF03C08CE095E0F1D0C4FF82
:1018400003C08DE195E0ECD0C3FF03C085E395E0D4
:10185000E7D0C2FF03C082E495E0E2D0C1FF03C03D
:1018600085E595E0DDD0C0FF03C08AE695E0D8D0DD
:10187000CF910895EF92FF921F93CF93DF93EC01E6
:101880007C018EEFF81A10E0899190E0C9D01331F5
:1018900029F485E994E0C4D010E004C080E290E02F
:1018A000BFD01F5FCE15DF0579F785E994E0B8D08A
:1018B000DF91CF911F91FF90EF900895CF93C82FA4
:1018C000807F19F085E497E0ABD0C3FF03C088E5C3
:1018D00097E0A6D0C2FF03C08DE697E0A1D0C1FF7C
:1018E00003C08BEC95E09CD0C0FF03C087ED95E072
:1018F00097D0CF9108958EBD0DB407FEFDCF8EB564
:101900000895813031F018F0823049F00895289818
:101910000895E2E0F1E080818F7B80830895409814
:101920000895813031F018F0823049F00895289AF6
:101930000895E2E0F1E08081806480830895409A18
:10194000089583E58CBD1DBC89E690E1F9DC84E651
:101950009DE0F6DC80E0E5DF81E0E3DF82E0E1CFDF
:101960000895000000000895EF92FF920F931F93D7
:10197000CF93DF931092C50027E62093C4000F2E6B
:10198000F1ECEF2EF12CF02D98E9F701908386E031
:101990008093C2001092CD002093CC0009EC10E09F
:1019A000F80190838093CA001092D5002093D40050
:1019B000C1EDD0E098838093D20085E598E0C0DC4B
:1019C00085E69EE0BDDC88E599E0BADC80E69BE038
:1019D000B7DC86E69FE0B4DC8FE59AE0B1DCF70186
:1019E000808180688083F80180818068808388811D
:1019F00080688883789481EB9CE090937A1280933E
:101A0000791290937412809373129093761280934C
:101A10007512DF91CF911F910F91FF90EF90089574
:101A2000FC0101900020E9F73197AF01481B590BE9
:101A3000BC0185E598E0D0DCE1ECF0E080818062DB
:101A400080830895FC0101900020E9F73197AF01F0
:101A5000481B590BBC0188E599E0BEDCE9ECF0E0DD
:101A600080818062808308951F920F920FB60F923B
:101A700011240BB60F922F933F934F935F936F9365
:101A80007F938F939F93AF93BF93EF93FF9385E5DE
:101A900098E065DC882331F085E598E06CDC809384
:101AA000C6000CC0E1ECF0E080818F7D8083E09186
:101AB0007912F0917A12309709F01995FF91EF9110
:101AC000BF91AF919F918F917F916F915F914F9156
:101AD0003F912F910F900BBE0F900FBE0F901F9054
:101AE00018951F920F920FB60F9211240BB60F92FA
:101AF0002F933F934F935F936F937F938F939F9316
:101B0000AF93BF93EF93FF936091C60085E69EE08D
:101B100046DCFF91EF91BF91AF919F918F917F91A3
:101B20006F915F914F913F912F910F900BBE0F904E
:101B30000FBE0F901F9018951F920F920FB60F9225
:101B400011240BB60F922F933F934F935F936F9394
:101B50007F938F939F93AF93BF93EF93FF9388E50A
:101B600099E0FDDB882331F088E599E004DC80937F
:101B7000CE000CC0E9ECF0E080818F7D8083E091A5
:101B80007312F0917412309709F01995FF91EF914B
:101B9000BF91AF919F918F917F916F915F914F9185
:101BA0003F912F910F900BBE0F900FBE0F901F9083
:101BB00018951F920F920FB60F9211240BB60F9229
:101BC0002F933F934F935F936F937F938F939F9345
:101BD000AF93BF93EF93FF936091CE0080E69BE0BD
:101BE000DEDBFF91EF91BF91AF919F918F917F913C
:101BF0006F915F914F913F912F910F900BBE0F907E
:101C00000FBE0F901F9018951F920F920FB60F9254
:101C100011240BB60F922F933F934F935F936F93C3
:101C20007F938F939F93AF93BF93EF93FF9386E63A
:101C30009FE095DB882331F086E69FE09CDB809374
:101C4000D6000CC0E1EDF0E080818F7D8083E091D3
:101C50007512F0917612309709F01995FF91EF9176
:101C6000BF91AF919F918F917F916F915F914F91B4
:101C70003F912F910F900BBE0F900FBE0F901F90B2
:101C800018951F920F920FB60F9211240BB60F9258
:101C90002F933F934F935F936F937F938F939F9374
:101CA000AF93BF93EF93FF936091D6008FE59AE0D7
:101CB00076DBFF91EF91BF91AF919F918F917F91D3
:101CC0006F915F914F913F912F910F900BBE0F90AD
:101CD0000FBE0F901F901895CF93DF93CDB7DEB74F
:101CE000C150D2400FB6F894DEBF0FBECDBF91D029
:101CF00028DE3ADEA6D007D973D20E9480050E9462
:101D0000AE012DDD882321F080E897E089DE71C0E7
:101D10008EE997E085DE84EB97E082DE80E090E05C
:101D20007FDE80E090E07CDE80E090E079DE80E0A5
:101D300090E076DE9E012F5F3D4FAE014F5F5F4F1B
:101D400060E070E0CB0119DC182F89EC97E068DEC9
:101D5000812F57DD11110BC0CF5FDD4F8881C1503E
:101D6000D2408E3F21F4CE01019684DD4BC0CF5F7F
:101D7000DD4F8881C150D240807F09F043C087ED9C
:101D800097E04EDECF5FDD4F8881C150D24096DDB7
:101D900039C08193E217F307E1F786EE97E040DE62
:101DA00080E090E03DDE80E090E03ADE81E090E08F
:101DB00037DE80E090E034DE9E012F5F3D4FAE01C4
:101DC0004F5F5F4F60E071E080E090E024DC182F0F
:101DD00089EC97E025DE812F14DD11110AC0CF5F59
:101DE000DD4F8881C150D240853019F481E098E000
:101DF00017DE3CDA80D18FE39CE90197F1F700C050
:101E00000000F7CFFE0131969E012F5F3D4F85E523
:101E1000C0CF88E780BB87E884B988E6809301015A
:101E20008CEF81B984E283BB8CE78093040181E06D
:101E300087B910920701089591B388E7892781BB7C
:101E40000895FADF2FEF83ED90E32150804090401A
:101E5000E1F700C0000008951F93CF93DF93D0E017
:101E6000C0E011E01EC085E69EE085DA8D3069F4A1
:101E7000E0915408F0E0E558FD4E1082C0935408FC
:101E8000C0935308D9DFD12F0CC090915408E92F8B
:101E9000F0E0E558FD4E80839F5F90935408CCDFBF
:101EA000DC2F85E69EE05BDA8111DDCF8D2FDF919F
:101EB000CF911F910895CF93DF9384E198E0B0DD37
:101EC0008BE792E10E94A401ABE7B2E180E090E0F1
:101ED000ED0102C01D920196FE0101900020E9F77C
:101EE0003197EB57F2418E179F07A0F3DF91CF9107
:101EF00008950F931F93CF93DF9300E0C0E0D1E0EC
:101F000012E04CC080E69BE036DA8F3F29F59091D5
:101F10005108992319F0913009F049C0E091520815
:101F2000F0E0E658FB4E90819F3F09F03DC01093D2
:101F300051082091520830E0F901E658FB4E90819B
:101F40009F3F39F4F901E758FB4E90819F3FA1F57F
:101F500007C0C093510816C090915108933091F476
:101F6000E0915208F0E0E558FB4E1082DF01119736
:101F70001C9232971082C0935208C09351085CDFC4
:101F80000D2F0CC090915208E92FF0E0E558FB4E60
:101F900080839F5F909352084FDF0C2F80E69BE079
:101FA000DED98111AFCF11C0C0935108D5CF909128
:101FB0005108923089F6BDCFE0915208F0E0E75821
:101FC000FB4E90819F3F29F6DDCF802FDF91CF918F
:101FD0001F910F91089587E298E022DD8BE794E14D
:101FE0001FDD85E994E01CDDEBE7F4E16181808190
:101FF0000C94B50208950F931F93CF93DF9300E0E5
:10200000C0E0D1E012E04CC08FE59AE0B4D98F3F38
:1020100029F590914F08992319F0913009F049C0A2
:10202000E0915008F0E0E658FA4E90819F3F09F0A9
:102030003DC010934F082091500830E0F901E65858
:10204000FA4E90819F3F39F4F901E758FA4E90819A
:102050009F3FA1F507C0C0934F0816C090914F084D
:10206000933091F4E0915008F0E0E558FA4E108278
:10207000DF0111971C9232971082C0935008C093D1
:102080004F08DADE0D2F0CC090915008E92FF0E0D8
:10209000E558FA4E80839F5F90935008CDDE0C2F59
:1020A0008FE59AE05CD98111AFCF11C0C0934F0882
:1020B000D5CF90914F08923089F6BDCFE09150086E
:1020C000F0E0E758FA4E90819F3F29F6DDCF802F50
:1020D000DF91CF911F910F91089588E398E0A0DCE4
:1020E0008BE795E19DDC85E994E09ADC61E084E092
:1020F0000C94B5020895B0DE8111DDDEFADE8111A7
:102100006ADF79DF8111E9CF0895EF92FF920F9393
:102110001F93CF93DF937C0166E070E081E090E055
:10212000ABD0EC01F70101900020E9F731978F0166
:102130000E191F0961E070E0C80101969DD09983D6
:1021400088831D821C821B821A820115110579F079
:10215000D701A80120E030E08D91E881F981E20FFC
:10216000F31F80832F5F3F4F24173507A9F788811E
:102170009981FC01E00FF11F1182CE01DF91CF9117
:102180001F910F91FF90EF900895CF93DF93DC01A3
:10219000FB018D919C911197938382831582148208
:1021A000CD91DC911197209729F470936D12609373
:1021B0006C1208C07D836C8380916C1290916D12BB
:1021C00095838483ED93FC93A0916C12B0916D1272
:1021D0001396FC93EE931297CF01DF91CF91089560
:1021E000EF92FF920F931F93CF93DF93CDB7DEB79C
:1021F000C05FD1090FB6F894DEBF0FBECDBF1092FD
:102200005C0A10925B0A80EFE8EFF2E0DE011196C3
:1022100001900D928A95E1F710925E0A10925D0A84
:102220008E010F5F1F4F7E0181EFE80EF11CC80188
:102230006CDFBC018DE59AE0A8DF90935E0A809385
:102240005D0A0C5E1F4F0E151F0589F7C051DF4F49
:102250000FB6F894DEBF0FBECDBFDF91CF911F91B7
:102260000F91FF90EF900895EE0FFF1F881F8BBF17
:102270000790F691E02D19940F931F93CF93DF935E
:10228000869F8001879F100D969F100D1124C80115
:102290000DD0EC01009721F0A80160E070E044D17E
:1022A000CE01DF91CF911F910F9108950F931F934E
:1022B000CF93DF938230910510F482E090E0E091BB
:1022C0007D17F0917E1720E030E0A0E0B0E030977D
:1022D00019F1408151810281138148175907C8F0D3
:1022E0008417950769F4109731F012960C931297A2
:1022F00013961C9327C000937D1710937E1722C05E
:102300002115310519F04217530718F49A01BD0140
:10231000EF01DF01F801DBCF21153105F9F0281BB2
:10232000390B2430310580F48A819B816115710558
:1023300021F0FB019383828304C090937E178093E6
:102340007D17FE01329644C0FE01E20FF31F819318
:10235000919322503109398328833AC020917B1709
:1023600030917C17232B41F420910202309103021B
:1023700030937C1720937B1720910002309101024B
:102380002115310541F42DB73EB74091040250911B
:102390000502241B350BE0917B17F0917C17E217A7
:1023A000F307A0F42E1B3F0B2817390778F0AC0178
:1023B0004E5F5F4F2417350748F04E0F5F1F509355
:1023C0007C1740937B178193919302C0E0E0F0E08B
:1023D000CF01DF91CF911F910F910895CF93DF939C
:1023E000009709F481C0FC01329713821282A091F8
:1023F0007D17B0917E17109781F420813181820F73
:10240000931F20917B1730917C172817390751F5BE
:10241000F0937C17E0937B1767C0ED0120E030E07C
:10242000CE17DF0740F44A815B819E0141155105BB
:10243000F1F0EA01F5CFD383C28340815181840F4B
:10244000951FC817D90759F488819981840F951F62
:102450000296918380838A819B8193838283211555
:10246000310529F4F0937E17E0937D173DC0E90113
:10247000FB83EA8349915991C40FD51FEC17FD07DF
:1024800061F480819181840F951F0296E9019983FF
:102490008883828193819B838A83E0E0F0E01296B7
:1024A0008D919C911397009719F0FD01DC01F7CFF6
:1024B0008D919C9111979D012E5F3F4F820F931F2D
:1024C00020917B1730917C172817390769F43097D2
:1024D00029F410927E1710927D1702C01382128287
:1024E000B0937C17A0937B17DF91CF910895FC01E7
:1024F00088279927E89421912032E9F3293010F0B8
:102500002E30C8F32B3239F02D3231F4689403C0E9
:1025100027D0820F911D219120532A30C8F31EF439
:10252000909581959F4F0895DC0101C06D934150B6
:102530005040E0F70895FB01DC010D900020E9F721
:10254000119701900D920020E1F70895BB274A30C2
:1025500031F4992322F4BDE2909581959F4F09C0F3
:102560007AE0979F902D879F802D910D11240895DB
:10257000BB27FB015527AA27880F991FAA1FA4175D
:1025800010F0A41B83955051B9F7A05DAA3308F051
:10259000A95DA193009779F7B111B1931192CB0185
:1025A00000C0DC01FC01672F71917723E1F73297BE
:1025B00004C07C916D9370836291AE17BF07C8F31E
:0625C0000895F894FFCF1E
:1025C60000007F172000372026203700000000007B
:1025D60000000000000000000000426C7565204B02
:1025E600616D696B617A6500000000000000426C55
:1025F6007565204C61676F6F6E000000000000007B
:1026060000004275636B20436F636B7461696C7382
:1026160000000000000047696D6C65740000000052
:102626000000000000000000000047696E205369AA
:102636006E00000000000000000000000000486975
:10264600676862616C6C000000000000000000001A
:102656000000576869736B7920436F6C6100000056
:102666000000000000004B616D696B617A65000037
:10267600000000000000000000004D617274696EE9
:1026860069204C656D6F6E2044726F700000030404
:1026960005060708090A0B0C0D0E0F10111213146C
:1026A60015161701010101010101010101010101D5
:1026B6000101000000000000375570000000000016
:1026C600000000000000000000000000436F63618E
:1026D6002D436F6C61000000000000000000000048
:1026E60047696E6765722D416C6500000000000049
:1026F600000000004F72616E67656E73616674005C
:1027060000000000000000004C696D657474656E81
:102716007361667400000000000000005A6974725C
:102726006F6E656E73616674000000000000000045
:102736004772656E6164696E656E73697275700065
:1027460000000000426C7565204375726163616F1D
:10275600000000000000000047696E000000000055
:1027660000000000000000000000000054726970C4
:102776006C65205365630000000000000000000047
:10278600576869736B7900000000000000000000C4
:1027960000000000576F646B61000000000000003D
:1027A6000000000000000000636F636B7461696CD9
:1027B6006E616D6500383000323335007A757461AC
:1027C60074656E6C6973746500636F636B746169BD
:1027D6006C00446F2073746F68742064656E6E209D
:1027E600697267656E6420652054657874207A7511
:1027F6006D2047657472E46E6B2C205363687775A1
:102806006C2E007A7566616C6C73747874007061F6
:10281600676520002E7478743D00220076616C3D59
:102826000070696320002C004D49464152452052F4
:10283600433532327632200D0A004465746563747E
:102846006564200D0A004D494641524520524335E4
:1028560032327631200D0A004E6F20726561646552
:102866007220666F756E64200D0A00203A566F72EC
:102876006865720D0A00313200313300203A204E6D
:10288600616368686572200D0A00094E6F207265E3
:1028960073706F6E73650D0A00094572726F723A36
:1028A600204D5342203D20310D0A000943617264D8
:1028B6002052656164790D0A0009506172616D6587
:1028C600746572204572726F720D0A000941646464
:1028D60072657373204572726F720D0A0009457234
:1028E6006173652053657175656E63652045727207
:1028F6006F720D0A0009435243204572726F720DC2
:102906000A0009496C6C6567616C20436F6D6D61E7
:102916006E640D0A00094572617365205265736520
:1029260074204572726F720D0A0009496E2049645F
:102936006C652053746174650D0A00094E6F205250
:1029460032204572726F720D0A00094F7574206F3E
:10295600662052616E67650D0A00094572617365EE
:1029660020506172616D657465720D0A00095750D9
:102976002056696F6C6174696F6E0D0A00094543D4
:1029860043204661696C65640D0A0009434320458E
:1029960072726F720D0A00094572726F720D0A002B
:1029A60009575020457261736520536B69700D0A93
:1029B600000943617264204C6F636B65640D0A0005
:1029C600094361726420506F7765722055702053F9
:1029D60074617475733A200052454144590D0A00DA
:1029E60009434353205374617475733A2000300DC4
:1029F6000A00425553590D0A0009564444205769A6
:102A06006E646F773A2000322E372D322E382C2006
:102A160000322E382D322E392C2000322E392D330D
:102A26002E302C2000332E302D332E312C20003327
:102A36002E312D332E322C2000332E322D332E33D1
:102A46002C2000332E332D332E342C2000332E34FD
:102A56002D332E352C2000332E352D332E360009FE
:102A6600436F6D6D616E642056657273696F6E3A61
:102A7600200009566F6C7461676520416363657059
:102A86007465643A2000322E372D332E36560D0AE1
:102A9600004C4F5720564F4C544147450D0A0052A3
:102AA600455345525645440D0A004E4F5420444561
:102AB60046494E45440D0A00094563686F3A2000B1
:102AC6004353443A0D0A0009435344205374727524
:102AD60063747572653A200009544141433A2000F7
:102AE600094E5341433A2000095452414E5F535018
:102AF6004545443A20000944657669636520536973
:102B06007A653A2000094E6F74204572726F722002
:102B1600746F6B656E0D0A000944617461206F75F0
:102B260074206F662072616E67650D0A0009436145
:102B3600726420454343206661696C65640D0A0032
:102B46004572726F7220696E697469616C697A6127
:102B5600696E6720534420434152440D0A00534492
:102B6600204361726420696E697469616C697A6573
:102B7600640D0A000D0A52656164696E672073650B
:102B860063746F723A203078000D0A526573706F65
:102B96006E73653A0D0A004572726F7220746F6B20
:102BA600656E3A0D0A0057726974696E672030784F
:102BB600353520746F20736563746F723A203078F0
:102BC6000057726974652073756363657373667500
:102BD6006C0D0A0050726F6365656420554152544E
:102BE60020303A200A0D0050726F636565642055E7
:102BF60041525420313A200050726F63656564205B
:0A2C06005541525420323A200000DC
:00000001FF
